:100000000C9498030C94C0030C94C0030C94C0038C
:100010000C94C0030C94C0030C94C0030C94C00354
:100020000C94C0030C94C0030C941F090C948E090B
:100030000C94C0030C94C0030C94C0030C94C00334
:100040000C94C0030C94C0030C94C0030C94C00324
:100050000C94C0030C94C0030C94C0030C94C00B0C
:100060000C94C0030C94C0030C94C0030C94C00304
:100070000C94C0030C94C0030C94C0030C94C003F4
:100080000C94C0030C94C0030C94C0030C94C003E4
:100090000C94C0030C94C0030C94C0030C94C003D4
:1000A0000C94C0030C94C0030C94C0030000000027
:1000B000003E5B4F5B3E3E6B4F6B3E1C3E7C3E1CEE
:1000C000183C7E3C181C577D571C1C5E7F5E1C0034
:1000D000183C1800FFE7C3E7FF0018241800FFE7EB
:1000E000DBE7FF30483A060E2629792926407F05AE
:1000F0000507407F05253F5A3CE73C5A7F3E1C1CC4
:1001000008081C1C3E7F14227F22145F5F005F5F83
:1001100006097F017F006689956A6060606060946F
:10012000A2FFA29408047E040810207E2010080874
:100130002A1C08081C2A08081E101010100C1E0C7F
:100140001E0C30383E3830060E3E0E060000000011
:100150000000005F00000007000700147F147F14F8
:10016000242A7F2A1223130864623649562050003D
:1001700008070300001C2241000041221C002A1C29
:100180007F1C2A08083E0808008070300008080814
:100190000808000060600020100804023E51494534
:1001A0003E00427F400072494949462141494D3352
:1001B0001814127F1027454545393C4A49493141B9
:1001C000211109073649494936464949291E000087
:1001D00014000000403400000008142241141414DC
:1001E0001414004122140802015909063E415D59C8
:1001F0004E7C1211127C7F494949363E41414122D1
:100200007F4141413E7F494949417F090909013EFA
:10021000414151737F0808087F00417F4100204021
:10022000413F017F081422417F404040407F021C33
:10023000027F7F0408107F3E4141413E7F0909094A
:10024000063E4151215E7F09192946264949493216
:1002500003017F01033F4040403F1F2040201F3FDC
:100260004038403F63140814630304780403615961
:10027000494D43007F4141410204081020004141A3
:10028000417F04020102044040404040000307084F
:100290000020545478407F2844443838444444284B
:1002A000384444287F385454541800087E090218F2
:1002B000A4A49C787F0804047800447D400020407A
:1002C000403D007F1028440000417F40007C0478BE
:1002D00004787C080404783844444438FC18242406
:1002E0001818242418FC7C08040408485454542486
:1002F00004043F44243C4040207C1C2040201C3C03
:100300004030403C44281028444C9090907C4464F9
:10031000544C44000836410000007700000041368C
:10032000080002010204023C2623263C1EA1A16112
:10033000123A4040207A3854545559215555794144
:100340002154547841215554784020545579400C1B
:100350001E527212395555555939545454593955FC
:100360005454580000457C410002457D420001453F
:100370007C40F0292429F0F0282528F07C545545AC
:10038000002054547C547C0A097F4932494949323F
:100390003248484832324A4848303A4141217A3A54
:1003A00042402078009DA0A07D39444444393D401E
:1003B00040403D3C24FF2424487E4943662B2FFCCB
:1003C0002F2BFF0929F620C0887E09032054547979
:1003D000410000447D413048484A32384040227A4A
:1003E000007A0A0A727D0D19317D2629292F2826C7
:1003F0002929292630484D402038080808080808CF
:100400000808382F10C8ACBA2F102834FA00007B27
:10041000000008142A142222142A1408950022002D
:1004200095AA005500AAAA55AA55AA000000FF00E7
:10043000101010FF00141414FF001010FF00FF1024
:1004400010F010F0141414FC001414F700FF000056
:10045000FF00FF1414F404FC141417101F10101FD5
:10046000101F1414141F00101010F0000000001FC3
:10047000101010101F10101010F010000000FF10CE
:100480001010101010101010FF10000000FF1400CA
:1004900000FF00FF00001F10170000FC04F41414FC
:1004A0001710171414F404F40000FF00F7141414C8
:1004B00014141414F700F7141414171410101F1048
:1004C0001F141414F4141010F010F000001F101F6B
:1004D0000000001F14000000FC140000F010F010D9
:1004E00010FF10FF141414FF141010101F00000050
:1004F00000F010FFFFFFFFFFF0F0F0F0F0FFFFFF54
:100500000000000000FFFF0F0F0F0F0F38444438AA
:10051000447C2A2A3E147E02020606027E027E02E5
:1005200063554941633844443C04407E201E200604
:10053000027E020299A5E7A5991C2A492A1C4C7241
:1005400001724C304A4D4D303048784830BC625AC8
:10055000463D3E494949007E0101017E2A2A2A2A58
:100560002A44445F444440514A444040444A514034
:100570000000FF0103E080FF000008086B6B0836F5
:1005800012362436060F090F060000181800000066
:100590001010003040FF0101001F01011E00191D55
:1005A0001712003C3C3C3C0000000000F0F89C8E20
:1005B0008783878E9CF8F00000FEFF03030303038C
:1005C000070EFCF80000FEFF0303030303070EFC05
:1005D000F80000FFFF00000000000000FFFF000027
:1005E000FEFF8383838383C7EE7C380000F8FC0E14
:1005F00007030303070EFCF800003F7FE0C0808084
:10060000C0E07F3FFFFF01010101010101FFFF0089
:1006100000FFFF0C0C0C0C1C3E77E3C100007FFFB9
:10062000C0C0C0C0C0E0703F1F00001F3F70E0C0EE
:10063000C0C0E0703F1F00007FFFC1C1C1C1C1E366
:10064000773E1C00001F3F70E0C0C0C0E0703F1F3D
:10065000000000000001FFFF01000000D5F08D1434
:10066000A1C881CFD9F1AF20003E09093F3F3E002C
:10067000003F3F2020202000003F060C063F3F00A7
:10068000001E3F21213F1E00001227253D3D18007E
:100690000001013F3F01010000000000003F3F0951
:1006A000090F0600001E3F21213F1E00003F060CDF
:1006B000183F3F00001E3F21293B3A080B00020271
:1006C00002000009040000010202000005240010DD
:1006D0000105240101010424020605240600010786
:1006E00005810310004009040100020A0000000710
:1006F00005020240000007058302400000040309D0
:100700000412010002EF0201404123378000010181
:1007100002030141726475696E6F204C4C430041C5
:10072000726475696E6F204D6963726F00003D0CD5
:1007300011241FBECFEFDAE0DEBFCDBF11E0A0E095
:10074000B1E0E2E8F9E202C005900D92A438B107E9
:10075000D9F726E0A4E8B1E001C01D92A630B207A7
:10076000E1F713E0C8E9D3E004C02197FE010E943D
:10077000B914C739D107C9F70E945A0C0C94BF1499
:100780000C940000480F592F511D1416150684F5BE
:10079000803891056CF597FF02C090E080E0413809
:1007A000510514F040E850E0481BFB01E770FF27BB
:1007B00021E001C0220FEA95EAF777FF02C0695FE6
:1007C0007F4FFB0133E0F595E7953A95E1F7F69514
:1007D000FE2FEE27F795E795E80FF91FEE54FE4F31
:1007E000415030F08191DF011197822B8C93F8CF2B
:1007F0000895E2EBF1E0A0E0B8E000800EBC8111CA
:10080000012C1197A0FDFDCF0192B9F70DB4089509
:100810008F929F92AF92BF92CF92DF92EF92FF9210
:100820000F931F93CF93DF93FC01E20FF11D1E1670
:100830001F060CF088C0803491050CF084C0DC01E8
:1008400097FF04C0AA27BB27A81BB90BA770BB271B
:10085000FC0197FD379633E0F595E7953A95E1F77A
:1008600097FF07C0319788E090E0EC01CA1BDB0BD3
:10087000DE01E22EE694E694E694F12C277019F05E
:10088000DFEFED1AFD0A50E0CF01EB018F01169565
:10089000102F0027179507950E541E4F97012E0F06
:1008A0003F1F68E070E05B01AA1ABB0A821793073A
:1008B00009F449C08830910509F445C08F3FEFEF36
:1008C0009E07C4F170E060E07801F0E8EF0EF11CE3
:1008D0008F3F9807A9F1FE01E60FF71FE491680129
:1008E000C60ED71EF0E04F010A2E01C0880C0A94F4
:1008F000EAF7F60194888928848A1097B1F0873046
:10090000910599F0FB01EC0FFD1FE4916701C60E04
:10091000D71EF0E04F010A2C02C0959487940A94E8
:10092000E2F7F60194888928848A6F5F7F4F641705
:10093000750774F20196C40FD51F00581F4FB6CF2C
:10094000109799F3DFCFDF91CF911F910F91FF9017
:10095000EF90DF90CF90BF90AF909F908F900895D1
:10096000FC018091B101882311F13FB7F89482E036
:100970008093E9002091F200822F90E0181619066A
:1009800014F481E090E0882339F0289A44E64093FB
:10099000B0014091F1004083222339F02091F20010
:1009A000211103C02BE62093E8003FBF08958FEF8D
:1009B0009FEF08952FB7F89483E08093E90090911A
:1009C000E800892F807295FF04C09091F20080E4C6
:1009D000891B2FBF08958091A80181110DC082E06D
:1009E0008093A40184E08093A5011092A701109246
:1009F000A60181E08093A80184EA91E00895CF9355
:100A0000DF931F92CDB7DEB76983DC01ED91FC91D6
:100A10000280F381E02D41E050E0BE016F5F7F4F27
:100A200009950F90DF91CF91089583E08093E900BD
:100A30008091F200882319F08AE38093E8000895FA
:100A40000E94DA0490E00895CF93DF931F92CDB710
:100A5000DEB7FC018485958597FD08C02FEF3FEF39
:100A6000358724870F90DF91CF910895CE010196AD
:100A70000E94B004019719F4898190E0F3CF8FEFC1
:100A80009FEFF0CF0F931F93CF93DF931F92CDB7BC
:100A9000DEB78C01FC018485958597FF0BC0CE01E4
:100AA00001960E94B004019771F4898190E0F801E9
:100AB00095878487F801848595850F90DF91CF9184
:100AC0001F910F9108958FEF9FEFF1CFFC01848567
:100AD000958597FD0BC09FB7F89482E08093E9005D
:100AE0008091F2009FBF90E0019608959FB7F8941F
:100AF00082E08093E9008091F2009FBF90E008952A
:100B000040919E0150919F0120919C0130919D0147
:100B100042175307B4F49091E8009570E1F3909177
:100B2000E80092FD19C08093F10080919E019091A0
:100B30009F0101968F739927892B19F48EEF80936B
:100B4000E80080919E0190919F01019690939F01F2
:100B500080939E0181E0089580E00895DF92EF92F6
:100B6000FF920F931F93CF93DF93D82E8A01EB014F
:100B70007B01E40EF51ECE15DF0559F0D7FE12C03D
:100B8000FE0184910E94800521968111F4CF0FEF20
:100B90001FEFC801DF91CF911F910F91FF90EF9050
:100BA000DF9008958881EECF0F931F93CF93DF934B
:100BB0001F92CDB7DEB782E0898342E450E06BEB51
:100BC00076E080E80E94AE050E94EB04DC011296FC
:100BD0000D911C910115110589F0D801ED91FC9141
:100BE0000280F381E02DBE016F5F7F4FC801099540
:100BF00097FD04C0F80100851185ECCF89810F9025
:100C0000DF91CF911F910F910895615030F02091A5
:100C1000F100FC0120830196F8CF289A84E68093A6
:100C2000B00108953FB7F89480919801909199018F
:100C3000A0919A01B0919B0126B5A89B05C02F3FBA
:100C400019F00196A11DB11D3FBFBA2FA92F982FF2
:100C50008827BC01CD01620F711D811D911D42E0ED
:100C6000660F771F881F991F4A95D1F708958F92B5
:100C70009F92AF92BF92CF92DF92EF92FF926B0161
:100C80007C010E9412064B015C01C114D104E104F5
:100C9000F104B9F00E941206681979098A099B09C2
:100CA000683E73408105910580F321E0C21AD108A6
:100CB000E108F10888EE880E83E0981EA11CB11CA3
:100CC000E4CFFF90EF90DF90CF90BF90AF909F90D8
:100CD0008F9008958F929F92AF92BF92CF92DF92A2
:100CE000EF92FF920F931F93CF93DF936C017B01E1
:100CF0008A0180912F01882309F45CC08091B101A1
:100D0000882309F457C08091A30180FF05C080911A
:100D1000E00082608093E000E801B12C8AEFA82E09
:100D200093E0892E2AE3922E209711F4BB20D9F16B
:100D30000E94DA0481110AC0AA94AA20D9F161E0C4
:100D400070E080E090E00E943706EECF8C171D0621
:100D500011F00CF08C2F9FB7F8948092E90020914D
:100D6000E80025FD02C09FBFDFCF282F30E0C21B67
:100D7000D30BF701815020F041914093F100FACF5D
:100D8000E20EF31EBB2021F09092E800B12CEBCFD5
:100D90008091E80085FDE7CF9092E800BB24B394F2
:100DA000209709F3F3CF5D9A84E68093A201101691
:100DB00011063CF081E090E0F6019383828310E01D
:100DC00000E0C801DF91CF911F910F91FF90EF904C
:100DD000DF90CF90BF90AF909F908F900895AF928B
:100DE000BF92CF92DF92EF92FF920F931F93CF9318
:100DF000DF936C017B018B01040F151FEB015E017A
:100E0000AE18BF08C017D10759F06991D601ED910E
:100E1000FC910190F081E02DC6010995892B79F7AD
:100E2000C501DF91CF911F910F91FF90EF90DF905F
:100E3000CF90BF90AF9008952D9A0895BC0190E097
:100E400080E00C9437068FB18095807F669B886028
:100E50001C9B8460089520E191E061FD94E060FDB9
:100E6000990F62FD9295687F269FD0011124A80FEB
:100E7000AE54BE4F8C9140FF03C0892B8C930895D4
:100E800090958923FBCFEF92FF920F931F93CF93FF
:100E9000DF937C018B01040F111DEB0177FF02C072
:100EA000D0E0C0E0C8010134110514F080E490E006
:100EB000C817D9075CF480E8E816F10428F441E08B
:100EC000BE01C7010E942B072196ECCFDF91CF9185
:100ED0001F910F91FF90EF900895EF92FF920F9363
:100EE0001F93CF93DF937C018B01C42FD22F6034EB
:100EF000710510F40E94C203B8016D0F711D61509D
:100F000071096034710520F44C2FC7010E94C2039F
:100F10004D2FB801C7010E944307C7018C0F911DD7
:100F20004D2FB8010197DF91CF911F910F91FF9045
:100F3000EF900C94430780E0E2EBF1E081118FEF3A
:100F4000002481938193819381930394D1F710922C
:100F500087011092860110928901109288010895EC
:100F60002F923F924F925F926F927F928F929F92B9
:100F7000AF92BF92CF92DF92EF92FF920F931F93A7
:100F8000CF93DF9300D000D01F92CDB7DEB76D3086
:100F9000C9F0409001016090860170908701042D96
:100FA00010E06A3049F5109289011092880183E0BF
:100FB000000F111F8A95E1F7600E711E7092870174
:100FC0006092860181E090E00F900F900F900F905B
:100FD0000F90DF91CF911F910F91FF90EF90DF90D5
:100FE000CF90BF90AF909F908F907F906F905F90C9
:100FF0004F903F902F900895209088013090890164
:10100000E5E06E9FC001112484559F4F9D838C8322
:101010006101512CF5E05F1651F18C819D810196A3
:10102000EC81FD81F491F9839D838C83430128E059
:101030002A83898181708B8376018E2D8C1984158A
:10104000E0F4B12CA12CA414A0F490E8E916F1046A
:1010500050F4B4016A0D7B1D6034710520F44B819E
:10106000C7010E942B07EFEFAE1ABE0AECCF198220
:10107000DDCFFFEFEF1AFF0AE0CF29812695298304
:101080008A8181508A83800E911E8111D2CF539420
:10109000C00ED11E96E05912BDCFC101459C800DF6
:1010A000911D112490938901809388018BCF909199
:1010B0008C01982329F490918D01982381E009F403
:1010C00080E0089580E00C94F903089590E080E0BA
:1010D00008958F929F92AF92BF920F931F93CF93D9
:1010E000DF93CDB7DEB7A1970FB6F894DEBF0FBE82
:1010F000CDBF19A2423008F44AE08E010F5D1F4FA8
:10110000842E912CB12CA12CA50194010E94A8122F
:10111000E62FB901CA01EA3044F5E05DD801EE934B
:101120008D01232B242B252B79F790E080E010975D
:1011300069F0FD0101900020E9F73197AF014A1BEA
:101140005B0BBD0182E096E00E94EF06A1960FB610
:10115000F894DEBF0FBECDBFDF91CF911F910F91ED
:10116000BF90AF909F908F900895E95CD7CFFC011E
:1011700001900020E9F73197AF01481B590BBC01E2
:1011800082E096E00C94EF06CF92DF92EF92FF920E
:10119000CF93DF936C01990FEE08FF08F7FE19C09B
:1011A0006DE282E096E00E94B007EC0166277727A7
:1011B000CB016C197D098E099F094AE00E946908DC
:1011C0008C0F9D1FDF91CF91FF90EF90DF90CF901C
:1011D00008954AE0C701B601DF91CF91FF90EF90EB
:1011E000DF90CF900C946908CF92DF92EF92FF923C
:1011F000CF93DF93EC010E9408122AE2C22ED12C79
:10120000E12CF12CA70196010E9476126D5F7F4FB1
:101210008F4F9F4F69830E940812A70196010E9479
:1012200076126D5F7F4F8F4F9F4F6B83DF91CF9112
:10123000FF90EF90DF90CF9008950C9460121F9272
:101240000F920FB60F9211248F939F938091E1001C
:101250009091E100937F9093E10083FF0FC0109283
:10126000E90091E09093EB001092EC0092E39093F0
:10127000ED001092B10198E09093F00082FF22C03F
:1012800093E09093E9009091F200992319F09AE38A
:101290009093E8009091A201992341F09091A201CE
:1012A00091509093A201911101C05D989091B0016D
:1012B000992341F09091B00191509093B001911118
:1012C00001C0289884FF18C08091E2008E7E816062
:1012D0008093E2008091E1008F7E8093E100809115
:1012E000A3018E7E80618093A3019F918F910F90C7
:1012F0000FBE0F901F90189580FFF7CF8091E200EE
:101300008E7E80618093E2008091E1008E7E8093EA
:10131000E1008091A3018E7E8160E5CF1F920F9244
:101320000FB60F921124CF92DF92EF92FF920F939C
:101330001F932F933F934F935F936F937F938F935D
:101340009F93AF93BF93EF93FF93CF93DF93CDB76B
:10135000DEB76C97DEBFCDBF1092E9008091E80048
:1013600083FF25C068E0CE0145960E94050682EF06
:101370008093E8008D8987FF39C09091E80090FF45
:10138000FCCF982F907609F034C19E894F89588DF3
:101390002F89F88C911131C0803861F58091A101BD
:1013A0008093F1001092F1008EEF8093E8006C962C
:1013B0000FB6F894DEBF0FBECDBFDF91CF91FF9186
:1013C000EF91BF91AF919F918F917F916F915F91BD
:1013D0004F913F912F911F910F91FF90EF90DF90D0
:1013E000CF900F900FBE0F901F9018959EEF909387
:1013F000E800C7CF1092F100D5CF913059F4811198
:10140000D3CF4130510581F68091A1018D7F80932A
:10141000A101CACF933049F48111C6CF41305105A3
:1014200019F68091A1018260F2CF953041F480914C
:10143000E80080FFFCCF20682093E300B5CF963012
:1014400009F0A9C00B8D1C8D22E01092E9001092CA
:101450009F0110929E01F2122EC010929D011092D7
:101460009C010E94D4051F8299E09983FA8291E041
:101470009E8390EA98879AEF998720919E013091F8
:101480009F01275F3F4F3C832B838D831092E900A0
:1014900010929F0110929E0110939D0100939C0158
:1014A00049E050E0BE016F5F7F4F80E00E94AE05D3
:1014B0000E94D40579CF10939D0100939C010E9456
:1014C000EB04DC0112960D911C910115110509F434
:1014D00051C1D801ED91FC910480F581E02DBE0150
:1014E0006B5E7F4FC8010995009709F03EC1F80176
:1014F00000851185EACFF3E0FF120EC08F898823A3
:1015000009F440C0823061F440E86DE08FE197E07B
:101510000E940A0C811148CF81E28093EB0047CFF3
:10152000813029F440E86BE083E197E0F1CF83302C
:1015300099F70E94EB04DC011296ED90FC908E016D
:101540000F5F1F4F6801E114F10479F0D701ED91AD
:10155000FC910680F781E02DB801C7010995080FBD
:10156000111DF701E084F184EECFD8011C92F60141
:1015700001900020E9F73197BF016C197D0940E027
:10158000C601C6CF6DEF76E0FB01449150E080E8E4
:101590000E94AE0509CF973009F4BECF983021F4F0
:1015A00081E08093F10000CF993009F0FDCE837087
:1015B00009F0B2CFE5E3F1E081E031E096E321917B
:1015C000222371F08093E9003093EB00DF01119743
:1015D0002C912093EC009093ED008F5F873079F78A
:1015E0008EE78093EA001092EA008F898093B10120
:1015F000DBCE8B8D9C8D1092E90010929F01109292
:101600009E0190939D0180939C01898D811192C0D0
:101610008E899D89913A49F4813209F07DCF47E066
:1016200050E068E271E080E0B3CF913209F074CF0E
:10163000833269F48F89988DB0E0A0E08093240113
:1016400090932501A0932601B0932701ADCE80325F
:1016500069F48091E80082FFFCCF67E088E291E0C6
:101660000E9405068BEF8093E8009ECE823209F03F
:101670009BCE8F8980932F01EEEFFFE785919491A8
:101680008B3F9C4D51F1E0E0F8E080912801909172
:101690002901A0912A01B0912B01803B9440A10522
:1016A000B105F1F480912F0180FD1AC0EE3F8AE070
:1016B000F80789F587E797E7918380838091600039
:1016C0008093A00188E19BE00FB6F894A8958093E1
:1016D00060000FBE9093600067CEEEEFFAE0D5CFCA
:1016E000808191818737974709F05ECEA8958091D8
:1016F00060008861809360008091A0018093600009
:10170000EE3F2AE0F20789F08091FE0A9091FF0AED
:101710009183808349CE808191818737980751F2E8
:101720009093FF0A8093FE0AC5CF1092FF0A109291
:10173000FE0A3ACE0E94EB04DC0112960D911C9138
:101740000115110509F4E8CED801ED91FC91019045
:10175000F081E02DBE016B5E7F4FC80109958111BC
:1017600023CEF80100851185EBCF181619060CF46D
:101770001BCED2CEF1E0FF12BECE61E077E004CF07
:101780001F920F920FB60F9211242F933F938F93B6
:101790009F93AF93BF938091940190919501A091F5
:1017A0009601B09197013091930123E0230F2D37DB
:1017B00058F50196A11DB11D2093930180939401CA
:1017C00090939501A0939601B09397018091980111
:1017D00090919901A0919A01B0919B010196A11D50
:1017E000B11D8093980190939901A0939A01B093B1
:1017F0009B01BF91AF919F918F913F912F910F903E
:101800000FBE0F901F90189526E8230F0296A11D7A
:10181000B11DD2CFEF92FF920F931F93CF93DF931F
:10182000F82E192FE62E042F81E0860F880F0E94D4
:10183000800583E00E948005CF2DD12FEC0EFD2E78
:10184000F11CCE15DF05B9F007FF13C0FE0184912E
:101850000E948005182F80E00E9480058123219638
:101860008111EFCFDF91CF911F910F91FF90EF90FA
:1018700008958881EDCF81E0F5CFE2EBF5E01382AA
:10188000128288EE93E0A0E0B0E084839583A68383
:10189000B7838FE391E0918380838FEF9FEF9587EC
:1018A0008487E2E0F6E01382128281E591E0918381
:1018B00080830895CF93DF93CDB7DEB72A970FB615
:1018C000F894DEBF0FBECDBF789484B5826084BD2E
:1018D00084B5816084BD85B5826085BD85B5816034
:1018E00085BD80916E00816080936E0010928100B2
:1018F000809181008260809381008091810081606D
:10190000809381008091800081608093800080912D
:10191000910082608093910080919100816080931A
:101920009100809190008160809390008091C1002F
:1019300084608093C1008091C10082608093C10067
:101940008091C10081608093C1008091C30081605B
:101950008093C3008091C00082608093C00080911A
:10196000C20081608093C20080917A00846080937D
:101970007A0080917A00826080937A0080917A0068
:10198000816080937A0080917A00806880937A00E9
:101990001092B1011092A1011092A3018091D70081
:1019A00081608093D70080EA8093D80089B58061F8
:1019B00089BD89B5826089BD09B400FEFDCF61E0B3
:1019C00070E080E090E00E9437068091D8008F7C24
:1019D00080618093D8008091E000807F8093E00058
:1019E0008091E1008E7E8093E1008DE08093E200A3
:1019F000559A209A5D98289881EC80937C0085B157
:101A0000806F85B984B1877E84B984B1876E84B9CB
:101A10005E9A5F988AB1806D8AB9769A6E9881B322
:101A2000806F81BB899880B38D7080BB80E58CBD51
:101A300081E08DBD85E090E00E941E075F9A85E001
:101A400090E00E941E075E985C98ECE5F6E089E65F
:101A500096E024912EBD00000DB407FEFDCF319617
:101A60008E179F07B1F75C9A81E88093640080919C
:101A700065008160809365000E9462080E942307D0
:101A800087FF15C05C9885EA8EBD00000DB407FE87
:101A9000FDCF5C9A2E982F982D98809164008062DB
:101AA0008093640081E083BF889513BEFCCF0E94C1
:101AB000230782FF48C02D980E942307847884382A
:101AC000E1F40E941C0788EC90E00E941E072F980A
:101AD00082E090E00E9460128F3F29F06FEF82E079
:101AE00090E00E94681284EF91E00E941E072F9AF6
:101AF0000E94230784788438D9F30E9423078471D5
:101B00008431E1F40E941C0788EC90E00E941E07DB
:101B10002E9882E090E00E946012882329F060E015
:101B200082E090E00E94681284EF91E00E941E071C
:101B30002E9A0E94230784718431D9F388EC90E0B7
:101B40000E941E07B4CF0E941C0782E090E00E9412
:101B50001D09882309F453C03E9A3F9A81E090E022
:101B60000E941D09182F147081FF0EC011112E98AC
:101B700021EF3FEF3A8329830E94230786FF42C06B
:101B80002E9A2F9A0E941C0782E390E00E941E0763
:101B90000E9423078111F8CF86E1809300010E9403
:101BA0009B0785E080931A018BE780931F018FE1EB
:101BB00091E00E94F4088AE191E00E94F4088AE230
:101BC000282E312C412C512C03E210E02FB7F89431
:101BD0008091940190919501A0919601B091970107
:101BE0002FBF20918401222309F46DC0109284013B
:101BF00080E090E0892B51F30E940000E7CF3E98EF
:101C00003F98ACCF112331F089819A81049711F468
:101C10002E9A2F9881E00E94F90320E148E56CEAB2
:101C200075E089819A810E9408040E9462088FE011
:101C300090E00E941E07A981BA811196BA83A983F8
:101C4000599709F099CF112311F02F9A2D9880E917
:101C500091E00E941E070E941C0781E090E00E9414
:101C60001D0980FF91CF8AE090E00E941D099FEF3F
:101C7000980F9E3F08F088CF22E330E0309389012F
:101C80002093880128E330E0309387012093860178
:101C90002BE030E03A832983682F82E096E00E94AF
:101CA000B00789819A810E941D09A981BA81119684
:101CB000BA83A983519781F70E94620888EE93E066
:101CC0000E941E0761CF20918501382F321B232FE0
:101CD00030910001231748F42F5F231708F088CFB5
:101CE00081E083BF889513BE83CF21E020938401D8
:101CF00080938501E0908A01F0908B018FEFE81AC4
:101D0000F80AF0928B01E0928A010E949B07809171
:101D10008D0180938C010E94230780938D01809117
:101D20009201811195C0C7016CE870E00E94A51472
:101D300023E043E063E270E08634910508F011C3CC
:101D400049960E946D072AE042E06EE170E087E16B
:101D500090E00E946D072AE042E06EE170E082E6CA
:101D600090E00E946D0726E042E569E676E08FE0AC
:101D700090E00E940804B1E0B09301012AE230E053
:101D800030938901209388018DE290E09093870140
:101D90008093860189E591E00E94B70884E190E094
:101DA000909389018093880187E390E09093870165
:101DB0008093860181E691E00E94B70880918E01B0
:101DC00090918F010E94C4080E94620888E00E94DE
:101DD00057088823E9F131E0309392018FE191E0D7
:101DE0000E94F4088AE191E00E94F40880E090E00B
:101DF000A0E2B1E48093020190930301A093040157
:101E0000B093050180E090E0A0E2B2E48093060187
:101E100090930701A0930801B093090180E090E03E
:101E2000A0E8BFE380930E0190930F01A0931001EF
:101E3000B09311011092120110921301109214012B
:101E40001092150110929101109290010E949B072F
:101E500080919201833061F4809190019091910181
:101E60000196909391018093900181E0809392017B
:101E700080919201813009F002C2ACE3B0E0B093EE
:101E80008901A09388012EE130E0309387012093EF
:101E9000860180919001909191010E94C4088091E7
:101EA0001B0190911D01891728F420911C01820FBC
:101EB00080931B0180911B01981728F490911C01BD
:101EC000891B80931B0160911B0170E080911A01B6
:101ED00022E142E090E00E946D0780912001909104
:101EE0002201891728F420912101820F809320017B
:101EF00080912001981728F490912101891B8093EB
:101F000020016091200170E080911F0122E142E0F8
:101F100090E00E946D0780E80E945708811105C07B
:101F200088E00E945708882361F080E090E0A0E2FA
:101F3000B0EC8093120190931301A0931401B0931D
:101F4000150180910E0190910F01A0911001B091A7
:101F5000110189839A83AB83BC8320910201309164
:101F600003014091040150910501BC01CD010E9483
:101F7000DA126B017C01C0920201D0920301E0925F
:101F80000401F09205018091120190911301A0913A
:101F90001401B09115018D839E83AF83B887209182
:101FA0000601309107014091080150910901BC01DF
:101FB000CD010E94DA123B014C0160920601709241
:101FC0000701809208019092090190918A019987F6
:101FD000A0918B01AA8790FD16C02D813E814F8173
:101FE00058856091160170911701809118019091A8
:101FF00019010E94DA126093120170931301809309
:1020000014019093150189859A8562E370E00E941E
:10201000A514892B91F428EB3EE145E85FE3698143
:102020007A818B819C810E94381460930E01709399
:102030000F01809310019093110120E030E040EFF8
:1020400052E4C701B6010E94331418160CF05AC0AE
:10205000A0902001B12C20E030E040E450E4C40125
:10206000B3010E94DA126B017C01B5010B2C000C4C
:10207000880B990B0E9483139B01AC01C701B60129
:102080000E94331418160CF073C1B5016E5E7F4FB9
:10209000072E000C880B990B0E9483139B01AC0147
:1020A000C401B3010E94461387FF62C1C0900E01B4
:1020B000D0900F01E0901001F090110120E030E08D
:1020C000A901C701B6010E943314181624F4F7FAC7
:1020D000F094F7F8F094C0920E01D0920F01E092C4
:1020E0001001F09211010E940812A20191010E94B8
:1020F00076126D5F7F4F8F4F9F4F6093220183E079
:102100008093920120E030E040EC50E460910201C5
:102110007091030180910401909105010E94461382
:1021200087FF62C0C0900601D0900701E0900801CF
:10213000F090090160901B01712C20E030E040E438
:1021400050E4C701B6010E94DA124B015C01B301F1
:10215000072C000C880B990B0E9483139B01AC0188
:10216000C501B4010E94331418160CF003C1B30169
:102170006E5E7F4F072E000C880B990B0E94831315
:102180009B01AC01C701B6010E94461387FFF2C054
:10219000C0900E01D0900F01E0901001F09011015D
:1021A00020E030E0A901C701B6010E9433141816DF
:1021B00024F0F7FAF094F7F8F094C0920E01D09260
:1021C0000F01E0921001F09211010E940812A20189
:1021D00091010E9476126D5F7F4F8F4F9F4F6093EA
:1021E0001D0183E080939201C0900601D090070109
:1021F000E0900801F090090120E030E044E852E46A
:10220000C701B6010E94331418166CF420E030E0C8
:102210004AE753E4C701B6010E94461387FF03C093
:1022200082E08093920160910A0170910B0180918C
:102230000C0190910D010E9452136983C701B601F0
:102240000E944B136B016091020170910301809118
:102250000401909105010E944B13CB012981422F6B
:10226000B6010E946D072CE330E030938901209382
:1022700088018BE190E090938701809386018091A3
:102280009201823009F06AC00E949B070E940812E6
:10229000A20191010E9476126D5F7F4F8F4F9F4F79
:1022A000609320010E940812A20191010E947612FF
:1022B0006D5F7F4F8F4F9F4F609320018091900102
:1022C0009091910120918E0130918F01281739074B
:1022D000BCF490938F0180938E01AEE1B0E0B09397
:1022E0008901A09388012FE030E03093870120938B
:1022F000860181E0809301018EE691E00E94B7089B
:10230000109389010093880110938701009386013F
:1023100031E0309301018AE791E00E94B708109301
:1023200089010093880182E390E090938701809374
:10233000860191E09093010186E691E00E94B70842
:1023400080919001909191010E94C4080E946208BE
:1023500088EB9BE00E941E07109292010E94620887
:1023600047CCE5EAF0E0DF01A81BB90BCD01E9CCD1
:1023700082E0C6CE82E036CF8F929F92AF92BF921C
:10238000CF92DF92EF92FF92CF93DF93EC016881BF
:1023900079818A819B81611571058105910521F4FF
:1023A00064E279ED8BE597E02DE133EF41E050E019
:1023B0000E94761249015A019B01AC01A7EAB1E4DF
:1023C0000E9495126B017C01ACEEB4EFA501940163
:1023D0000E94A312C60ED71EE81EF91EF7FE06C005
:1023E00081E0C81AD108E10880E8F80AC882D982D9
:1023F000EA82FB82C701B6019F77DF91CF91FF9000
:10240000EF90DF90CF90BF90AF909F908F90089506
:102410008F929F92AF92BF92CF92DF92EF92FF92F4
:1024200060913001709131018091320190913301BE
:10243000611571058105910521F464E279ED8BE563
:1024400097E02DE133EF41E050E00E947612490120
:102450005A019B01AC01A7EAB1E40E9495126B01FD
:102460007C01ACEEB4EFA50194010E94A312C60E4C
:10247000D71EE81EF91EF7FE06C081E0C81AD10873
:10248000E10880E8F80AC0923001D0923101E09270
:102490003201F0923301C701B6019F77FF90EF90B0
:1024A000DF90CF90BF90AF909F908F9008956093F2
:1024B000300170933101809332019093330108957C
:1024C000F999FECF92BD81BDF89A992780B50895FC
:1024D000262FF999FECF1FBA92BD81BD20BD0FB640
:1024E000F894FA9AF99A0FBE01960895052E97FB73
:1024F0001EF400940E948D1257FD07D00E94A8126E
:1025000007FC03D04EF40C948D12509540953095F5
:1025100021953F4F4F4F5F4F08959095809570954F
:1025200061957F4F8F4F9F4F08950E94CA12A59FBC
:10253000900DB49F900DA49F800D911D11240895BE
:10254000B7FF0C9495120E949512821B930B08956D
:10255000A1E21A2EAA1BBB1BFD010DC0AA1FBB1FA7
:10256000EE1FFF1FA217B307E407F50720F0A21B19
:10257000B30BE40BF50B661F771F881F991F1A9486
:1025800069F760957095809590959B01AC01BD01B0
:10259000CF010895A29FB001B39FC001A39F700D0A
:1025A000811D1124911DB29F700D811D1124911D5B
:1025B00008955058BB27AA270E94F1120C94F913D2
:1025C0000E94EB1338F00E94F21320F039F49F3F81
:1025D00019F426F40C94E8130EF4E095E7FB0C9440
:1025E000E213E92F0E940A1458F3BA17620773071F
:1025F0008407950720F079F4A6F50C942C140EF4BA
:10260000E0950B2EBA2FA02D0B01B90190010C0102
:10261000CA01A0011124FF27591B99F0593F50F41A
:10262000503E68F11A16F040A22F232F342F442772
:10263000585FF3CF469537952795A795F04053956A
:10264000C9F77EF41F16BA0B620B730B840BBAF03A
:102650009150A1F0FF0FBB1F661F771F881FC2F7A5
:102660000EC0BA0F621F731F841F48F487957795B9
:102670006795B795F7959E3F08F0B0CF9395880F73
:1026800008F09927EE0F9795879508950E94BE133D
:1026900008F481E008950E9452136894B1110C94DB
:1026A0002D1408950E94121488F09F5798F0B92FA6
:1026B0009927B751B0F0E1F0660F771F881F991F77
:1026C0001AF0BA95C9F714C0B13091F00E942C14D9
:1026D000B1E008950C942C14672F782F8827B85FE9
:1026E00039F0B93FCCF3869577956795B395D9F7CF
:1026F0003EF490958095709561957F4F8F4F9F4FD9
:102700000895E89409C097FB3EF4909580957095E4
:1027100061957F4F8F4F9F4F9923A9F0F92F96E92D
:10272000BB279395F695879577956795B795F111A2
:10273000F8CFFAF4BB0F11F460FF1BC06F5F7F4F3F
:102740008F4F9F4F16C0882311F096E911C0772351
:1027500021F09EE8872F762F05C0662371F096E85A
:10276000862F70E060E02AF09A95660F771F881F29
:10277000DAF7880F9695879597F90895990F0008CD
:10278000550FAA0BE0E8FEEF16161706E807F90743
:10279000C0F012161306E407F50798F0621B730BDE
:1027A000840B950B39F40A2661F0232B242B252B5F
:1027B00021F408950A2609F4A140A6958FEF811D02
:1027C000811D089597F99F6780E870E060E00895A3
:1027D0009FEF80EC089500240A9416161706180639
:1027E0000906089500240A94121613061406050615
:1027F0000895092E0394000C11F4882352F0BB0FA6
:1028000040F4BF2B11F460FF04C06F5F7F4F8F4F08
:102810009F4F089557FD9058440F551F59F05F3F43
:1028200071F04795880F97FB991F61F09F3F79F0F2
:1028300087950895121613061406551FF2CF469574
:10284000F1DF08C0161617061806991FF1CF8695F6
:102850007105610508940895E894BB2766277727DA
:10286000CB0197F908950E94BE1308F48FEF0895E5
:102870000E944B140C94F9130E94EB1338F00E9441
:10288000F21320F0952311F00C94E2130C94E8134A
:1028900011240C942D140E940A1470F3959FC1F317
:1028A000950F50E0551F629FF001729FBB27F00DFE
:1028B000B11D639FAA27F00DB11DAA1F649F662753
:1028C000B00DA11D661F829F2227B00DA11D621FA2
:1028D000739FB00DA11D621F839FA00D611D221F5C
:1028E000749F3327A00D611D231F849F600D211D40
:1028F000822F762F6A2F11249F5750409AF0F1F0C3
:1029000088234AF0EE0FFF1FBB1F661F771F881F2B
:1029100091505040A9F79E3F510580F00C94E2136E
:102920000C942D145F3FE4F3983ED4F3869577958D
:102930006795B795F795E7959F5FC1F7FE2B880FD1
:10294000911D9695879597F90895AA1BBB1B51E198
:1029500007C0AA1FBB1FA617B70710F0A61BB70B0F
:10296000881F991F5A95A9F780959095BC01CD01B4
:102970000895EE0FFF1F0590F491E02D0994F8944F
:02298000FFCF87
:102982001001000020410000A04100004040000072
:10299200803F000000009A99993E0000010000006B
:1029A20000010000FFFFFFFF00E100000000000047
:1029B2000100000000C1808100000000000000FF53
:1029C200046A062005150566052405420500000077
:1029D20000B007EF06660865085072657373204100
:1029E20000486967682053636F72653A20004E653C
:1029F20077205265636F7264210047616D65204FD5
:042A02007665720083
:00000001FF
