:100000000C945C040C9484040C9484040C94840478
:100010000C9484040C9484040C9484040C94840440
:100020000C9484040C9484040C94CA170C9439180E
:100030000C9484040C9484040C9484040C94840420
:100040000C9484040C9484040C9484040C94840410
:100050000C9484040C9484040C9484040C948017F1
:100060000C9484040C9484040C9484040C948404F0
:100070000C9484040C9484040C9484040C948404E0
:100080000C946B1A0C9484040C9484040C948404D3
:100090000C9484040C9484040C9484040C948404C0
:1000A0000C9484040C9484040C94840400000000D8
:1000B000003E5B4F5B3E3E6B4F6B3E1C3E7C3E1CEE
:1000C000183C7E3C181C577D571C1C5E7F5E1C0034
:1000D000183C1800FFE7C3E7FF0018241800FFE7EB
:1000E000DBE7FF30483A060E2629792926407F05AE
:1000F0000507407F05253F5A3CE73C5A7F3E1C1CC4
:1001000008081C1C3E7F14227F22145F5F005F5F83
:1001100006097F017F006689956A6060606060946F
:10012000A2FFA29408047E040810207E2010080874
:100130002A1C08081C2A08081E101010100C1E0C7F
:100140001E0C30383E3830060E3E0E060000000011
:100150000000005F00000007000700147F147F14F8
:10016000242A7F2A1223130864623649562050003D
:1001700008070300001C2241000041221C002A1C29
:100180007F1C2A08083E0808008070300008080814
:100190000808000060600020100804023E51494534
:1001A0003E00427F400072494949462141494D3352
:1001B0001814127F1027454545393C4A49493141B9
:1001C000211109073649494936464949291E000087
:1001D00014000000403400000008142241141414DC
:1001E0001414004122140802015909063E415D59C8
:1001F0004E7C1211127C7F494949363E41414122D1
:100200007F4141413E7F494949417F090909013EFA
:10021000414151737F0808087F00417F4100204021
:10022000413F017F081422417F404040407F021C33
:10023000027F7F0408107F3E4141413E7F0909094A
:10024000063E4151215E7F09192946264949493216
:1002500003017F01033F4040403F1F2040201F3FDC
:100260004038403F63140814630304780403615961
:10027000494D43007F4141410204081020004141A3
:10028000417F04020102044040404040000307084F
:100290000020545478407F2844443838444444284B
:1002A000384444287F385454541800087E090218F2
:1002B000A4A49C787F0804047800447D400020407A
:1002C000403D007F1028440000417F40007C0478BE
:1002D00004787C080404783844444438FC18242406
:1002E0001818242418FC7C08040408485454542486
:1002F00004043F44243C4040207C1C2040201C3C03
:100300004030403C44281028444C9090907C4464F9
:10031000544C44000836410000007700000041368C
:10032000080002010204023C2623263C1EA1A16112
:10033000123A4040207A3854545559215555794144
:100340002154547841215554784020545579400C1B
:100350001E527212395555555939545454593955FC
:100360005454580000457C410002457D420001453F
:100370007C40F0292429F0F0282528F07C545545AC
:10038000002054547C547C0A097F4932494949323F
:100390003248484832324A4848303A4141217A3A54
:1003A00042402078009DA0A07D39444444393D401E
:1003B00040403D3C24FF2424487E4943662B2FFCCB
:1003C0002F2BFF0929F620C0887E09032054547979
:1003D000410000447D413048484A32384040227A4A
:1003E000007A0A0A727D0D19317D2629292F2826C7
:1003F0002929292630484D402038080808080808CF
:100400000808382F10C8ACBA2F102834FA00007B27
:10041000000008142A142222142A1408950022002D
:1004200095AA005500AAAA55AA55AA000000FF00E7
:10043000101010FF00141414FF001010FF00FF1024
:1004400010F010F0141414FC001414F700FF000056
:10045000FF00FF1414F404FC141417101F10101FD5
:10046000101F1414141F00101010F0000000001FC3
:10047000101010101F10101010F010000000FF10CE
:100480001010101010101010FF10000000FF1400CA
:1004900000FF00FF00001F10170000FC04F41414FC
:1004A0001710171414F404F40000FF00F7141414C8
:1004B00014141414F700F7141414171410101F1048
:1004C0001F141414F4141010F010F000001F101F6B
:1004D0000000001F14000000FC140000F010F010D9
:1004E00010FF10FF141414FF141010101F00000050
:1004F00000F010FFFFFFFFFFF0F0F0F0F0FFFFFF54
:100500000000000000FFFF0F0F0F0F0F38444438AA
:10051000447C2A2A3E147E02020606027E027E02E5
:1005200063554941633844443C04407E201E200604
:10053000027E020299A5E7A5991C2A492A1C4C7241
:1005400001724C304A4D4D303048784830BC625AC8
:10055000463D3E494949007E0101017E2A2A2A2A58
:100560002A44445F444440514A444040444A514034
:100570000000FF0103E080FF000008086B6B0836F5
:1005800012362436060F090F060000181800000066
:100590001010003040FF0101001F01011E00191D55
:1005A0001712003C3C3C3C0000000000080B00021D
:1005B00002020000090400000102020000052400FC
:1005C000100105240101010424020605240600018E
:1005D0000705810310004009040100020A00000021
:1005E00007050202400000070583024000000403E3
:1005F000090412010002EF0201404123378000018B
:100600000102030141726475696E6F204C4C430016
:1006100041726475696E6F204D6963726F00F0F806
:100620009C8E8783878E9CF8F00000FEFF030303F7
:100630000303070EFCF80000FEFF03030303030798
:100640000EFCF80000FFFF00000000000000FFFFAC
:100650000000FEFF8383838383C7EE7C380000F8AD
:10066000FC0E07030303070EFCF800003F7FE0C009
:100670008080C0E07F3FFFFF01010101010101FF18
:10068000FF0000FFFF0C0C0C0C1C3E77E3C10000C8
:100690007FFFC0C0C0C0C0E0703F1F00001F3F70A0
:1006A000E0C0C0C0E0703F1F00007FFFC1C1C1C1FA
:1006B000C1E3773E1C00001F3F70E0C0C0C0E07087
:1006C0003F1F000000000001FFFF01000000D5F007
:1006D0008D14A1C881CFD9F1AF20004849474820E7
:1006E00053434F524500040A090600000000060962
:1006F000090600000000020D09060000000060A0CD
:1007000090F000000000182641818242241818242D
:1007100044424222221C3C4283818182621C265A2E
:1007200081424181413E0000C0300C0202020204BD
:10073000040408F00000000000030418202020201A
:10074000101008080700008060100804020202026E
:1007500002040830C0000001020C1020404040405C
:100760002010080403000000C0300C04040202043E
:10077000040C30C00000000F10202020204040401A
:1007800020100804030000C040404080806018042E
:1007900002040830C00000030C10202040404040FC
:1007A000242A1201010045524541534520444F4E31
:1007B0004500574F524B494E472E2E2E0053544161
:1007C0005254203D205249474854202B2042004596
:1007D0005245415345204849474853434F52453FAE
:1007E000005041555345002000200003030201FF43
:1007F000FEFDFEFF01020303FDFEFF0102030201F5
:10080000FFFEFD03030303030303FDFDFDFDFDFDEB
:10081000FDFDFDFDFD0303030303030002030303CA
:100820000404040303030200FEFDFDFDFCFCFCFDCB
:10083000FDFDFEFCFCFDFDFDFE00020303030404C0
:10084000040303030200FEFDFDFDFCFDFDFDFDFDB7
:10085000FDFDFDFDFDFDFDFD030303030303030398
:10086000030303030201FFFEFDFD030201FFFEFD82
:10087000FEFF010203FDFDFEFF010200EC05ED0A93
:10088000EF0EF211F613FB14001305110A0E0E0AF7
:100890001105130014FB13F611F20EEF0AED05EC2F
:1008A00000EDFBEFF6F2F2F6EFFBED41535445524B
:1008B0004F4944530000FF1A11241FBECFEFDAE066
:1008C000DEBFCDBF11E0A0E0B1E0E2EBFCE502C08D
:1008D00005900D92A434B107D9F728E0A4E4B1E063
:1008E00001C01D92A334B207E1F714E0CCE5D4E0D7
:1008F00004C02197FE010E94512ECB35D107C9F7C4
:100900000E942C1B0C94572E0C94000080915703CE
:100910000895480F592F511D1416150684F5803877
:1009200091056CF597FF02C090E080E041385105D9
:1009300014F040E850E0481BFB01E770FF2721E07E
:1009400001C0220FEA95EAF777FF02C0695F7F4F87
:10095000FB0133E0F595E7953A95E1F7F695FE2F23
:10096000EE27F795E795E80FF91FE152FC4F41504C
:1009700030F08191DF011197822B8C93F8CF08958D
:100980004F925F926F927F928F929F92AF92BF929F
:10099000CF92DF92EF92FF920F931F93CF93DF934B
:1009A00030E0F901E80FF91F1E161F060CF0A0C079
:1009B000803891050CF09CC0FB01E00FF11D1E1664
:1009C0001F060CF095C0603471050CF091C0DB017E
:1009D00077FF04C0AA27BB27A61BB70BA770BB27AE
:1009E000FB0177FD3796C3E0F595E795CA95E1F7EA
:1009F00077FF07C0319768E070E0EB01CA1BDB0BA3
:100A0000DE01802E869486948694912C077019F0CE
:100A1000DFEF8D1A9D0ABF018A01AF015695542F51
:100A2000442757954795480F591F41525C4F860EF2
:100A3000971EE8E0F0E03F016A1A7B0A86169706E7
:100A400009F456C06830710509F452C06F3FEFEFEA
:100A50007E070CF443C07C01D0E0C0E05A01E0E81E
:100A6000AE0EB11CF7FC2EC06F3F760709F43DC0F7
:100A7000FE01E00FF11FE4916A01CC0EDD1EF0E0F3
:100A80002F010A2E01C0440C0A94EAF7F6015080A7
:100A9000452840821097B1F06730710599F0F80150
:100AA000EC0FFD1FE4916501CC0EDD1EF0E02F017F
:100AB000062C02C0559447940A94E2F7F601508040
:100AC000452840822196FFEFEF1AFF0AC217D3078D
:100AD0002CF4F0E8EF16F10409F0C4CF6F5F7F4FFC
:100AE000020F131F40585F4FA9CF1097C1F6EACFEE
:100AF000DF91CF911F910F91FF90EF90DF90CF90FA
:100B0000BF90AF909F908F907F906F905F904F902D
:100B10000895EFEDF3E0A0E0B8E000800EBC811195
:100B2000012C1197A0FDFDCF0192B9F70DB40895E6
:100B30002FB7F89483E08093E9009091E800892F23
:100B4000807295FF04C09091F20080E4891B2FBF52
:100B50000895FC018091DE03882311F13FB7F894DA
:100B600082E08093E9002091F200822F90E0181635
:100B7000190614F481E090E0882339F0289A44E6BD
:100B80004093DD034091F1004083222339F020910E
:100B9000F200211103C02BE62093E8003FBF089527
:100BA0008FEF9FEF08958091D50381110DC082E0F2
:100BB0008093D10384E08093D2031092D4031092E7
:100BC000D30381E08093D50381ED93E008953FB78F
:100BD000F8948091CD039091CE03A091CF03B09172
:100BE000D00326B5A89B05C02F3F19F00196A11D83
:100BF000B11D3FBFBA2FA92F982F8827BC01CD0167
:100C0000620F711D811D911D42E0660F771F881FC5
:100C1000991F4A95D1F708958F929F92AF92BF92F4
:100C2000CF92DF92EF92FF926B017C010E94E70569
:100C30004B015C01C114D104E104F104B9F00E943C
:100C4000E705681979098A099B09683E734081059F
:100C5000910580F321E0C21AD108E108F10888EE7D
:100C6000880E83E0981EA11CB11CE4CFFF90EF908A
:100C7000DF90CF90BF90AF909F908F90089580911C
:100C800064008E7F809364008EE580937C0062E038
:100C900070E080E090E00E940C0680917A00806411
:100CA00080937A0080917A0086FDFCCF20917800B5
:100CB0003091790090916400916090936400C90133
:100CC000089540915601509157012091540130915F
:100CD000550142175307B4F49091E8009570E1F381
:100CE0009091E80092FD19C08093F1008091560127
:100CF0009091570101968F739927892B19F48EEFE4
:100D00008093E8008091560190915701019690934D
:100D100057018093560181E0089580E00895DF92A5
:100D2000EF92FF920F931F93CF93DF93D82E8A01F8
:100D3000EB017B01E40EF51ECE15DF0559F0D7FE61
:100D400012C0FE0184910E94610621968111F4CFA8
:100D50000FEF1FEFC801DF91CF911F910F91FF900F
:100D6000EF90DF9008958881EECF0F931F93CF937C
:100D7000DF931F92CDB7DEB782E0898342E450E073
:100D80006CEA75E080E80E948F060E94D305DC01C2
:100D900012960D911C910115110589F0D801ED9164
:100DA000FC910280F381E02DBE016F5F7F4FC8018F
:100DB000099597FD04C0F80100851185ECCF898164
:100DC0000F90DF91CF911F910F910895615030F0F6
:100DD0002091F100FC0120830196F8CF289A84E647
:100DE0008093DD030895AF92BF92CF92DF92EF928E
:100DF000FF920F931F93CF93DF936C017B018B01C5
:100E0000040F151FEB015E01AE18BF08C017D10714
:100E100059F06991D601ED91FC910190F081E02D9E
:100E2000C6010995892B79F7C501DF91CF911F91F3
:100E30000F91FF90EF90DF90CF90BF90AF9008950B
:100E40008F929F92AF92BF92CF92DF92EF92FF92DA
:100E50000F931F93CF93DF936C017B018A018091E5
:100E60000B01882309F45CC08091DE03882309F418
:100E700057C080915A0180FF05C08091E0008260D8
:100E80008093E000E801B12C8AEFA82E93E0892E30
:100E90002AE3922E209711F4BB20D9F10E949805E5
:100EA00081110AC0AA94AA20D9F161E070E080E023
:100EB00090E00E940C06EECF8C171D0611F00CF08E
:100EC0008C2F9FB7F8948092E9002091E80025FDCF
:100ED00002C09FBFDFCF282F30E0C21BD30BF7012A
:100EE000815020F041914093F100FACFE20EF31EC1
:100EF000BB2021F09092E800B12CEBCF8091E8006C
:100F000085FDE7CF9092E800BB24B394209709F3C6
:100F1000F3CF5D9A84E680935901101611063CF0D8
:100F200081E090E0F6019383828310E000E0C80145
:100F3000DF91CF911F910F91FF90EF90DF90CF90B5
:100F4000BF90AF909F908F900895CF93DF931F92A3
:100F5000CDB7DEB76983DC01ED91FC910280F381AE
:100F6000E02D41E050E0BE016F5F7F4F09950F908B
:100F7000DF91CF91089583E08093E9008091F200A2
:100F8000882319F08AE38093E80008950E94980569
:100F900090E00895CF93DF931F92CDB7DEB7FC01A9
:100FA0008485958597FD08C02FEF3FEF358724870F
:100FB0000F90DF91CF910895CE0101960E94A9056F
:100FC000019719F4898190E0F3CF8FEF9FEFF0CF75
:100FD0000F931F93CF93DF931F92CDB7DEB78C0192
:100FE000FC018485958597FF0BC0CE0101960E9478
:100FF000A905019771F4898190E0F80195878487AC
:10100000F801848595850F90DF91CF911F910F9105
:1010100008958FEF9FEFF1CFFC018485958597FDB3
:101020000BC09FB7F89482E08093E9008091F200B2
:101030009FBF90E0019608959FB7F89482E0809357
:10104000E9008091F2009FBF90E0089520914D014A
:10105000E0914B01F0914C01CF01029690934C012D
:1010600080934B01222319F08591949108958081FA
:1010700091810895CF92DF92EF92FF92CF93DF9309
:101080000E942608811520E8920791F48091710052
:101090008D7F80937100109291004698479810922E
:1010A0004A01DF91CF91FF90EF90DF90CF900895AC
:1010B00021E020934A01813020E8920751F4809189
:1010C00048019091490190934C0180934B010E94FB
:1010D000260897FD05C020914701222309F454C03A
:1010E00020914601211150C021E020934E01EC01D6
:1010F000DF77209709F04BC081E080934F0146983D
:101100003FE9C32E3FE0D32EE12CF12CCAEFD0E013
:10111000E0913D08F0913E080995811103C081E0FE
:1011200080934F0180914E01882329F080914F01D7
:10113000882309F43FC047980E9426080097F1F1E0
:101140009C01DE010E947C2CDC01CB0129E0B595DD
:10115000A795979587952A95D1F7109290002AE048
:1011600020939100D0929900C092980080935001F2
:1011700090935101A0935201B0935301809171005B
:101180008260809371008DCF10924E01B0CF9E018E
:1011900050E040E060E472E48FE090E00E94282C90
:1011A00069017A0181E0C81AD108E108F1081092BA
:1011B0004F01AECF4699BFCF479ABECF8FEF9FEF7B
:1011C000DC01CBCF9C01E1E7F0E090819D7F908333
:1011D00010924D01EFE2F8E0F0934C01E0934B01E7
:1011E000F0934901E0934801318320837383628344
:1011F00080E090E8958384830C943A082D9A0895B2
:10120000BC0190E080E00C940C068FB18095807F4B
:10121000669B88601C9B84600895109257033E98DB
:101220003F9808953E9A3F9A81E08093570308952E
:1012300020E191E061FD94E060FD990F62FD9295DF
:10124000687F269FD0011124A80FA152BC4F8C911A
:1012500040FF03C0892B8C93089590958923FBCF81
:101260008038910528F46034710510F40C94180945
:1012700008952F923F924F925F926F927F928F923A
:101280009F92AF92BF92CF92DF92EF92FF920F9315
:101290001F93CF93DF93EC018B017A016901C61A8A
:1012A000D70AD7FE03C0D194C194D10847018C1A44
:1012B0009D0A97FE03C09194819491088C149D041B
:1012C00054F49E2D8F2D7901292F382F9C2F8D2F8F
:1012D000E801092F182FEC16FD0654F4902F812FEA
:1012E0008901292F382F9C2F8D2FE701E92EF82E09
:1012F00017012C1A3D0A2901401A510A57FE03C052
:10130000519441945108310137FE03C08FEF681AA0
:10131000780A759467948FEF021713070CF481E035
:10132000A82E880FBB08EC16FD06A4F041E0BE0114
:10133000C8018C149D0414F0B801CE010E9430093C
:101340006418750877FE04C00A0D1B1D620C731C1F
:101350002196E9CFDF91CF911F910F91FF90EF90F0
:10136000DF90CF90BF90AF909F908F907F906F90C5
:101370005F904F903F902F90089580E0EFEDF3E065
:1013800081118FEF00248193819381938193039442
:10139000D1F710925B0310925A0310925D031092E2
:1013A0005C0308952F923F924F925F926F927F92CB
:1013B0008F929F92AF92BF92CF92DF92EF92FF9265
:1013C0000F931F93CF93DF9300D000D000D01F92D4
:1013D000CDB7DEB76D30D9F030900D0140905A0393
:1013E00050905B03832D90E09F838E836A3051F58C
:1013F00010925D0310925C0323E0880F991F2A95D9
:10140000E1F7480E591E50925B0340925A0381E067
:1014100090E027960FB6F894DEBF0FBECDBFDF91E8
:10142000CF911F910F91FF90EF90DF90CF90BF90E1
:10143000AF909F908F907F906F905F904F903F9074
:101440002F900895A0905C03B0905D0395E0699F94
:10145000B0011124FB01E455FF4F3F016501212C30
:10146000F5E02F1629F1C3010196F301F491F983F8
:101470003C01420128E02A83898181708D8310E03C
:1014800000E00315D0F4F801EC0DFD1DFC83EB83A7
:10149000F12CE12CE31470F4B4016E0D7F1D4D812D
:1014A0008B819C810E943009FFEFEF1AFF0AF2CF77
:1014B0001982DFCF0F5F1F4FE4CF29812695298343
:1014C0008A8181508A83EE81FF818E0E9F1E811159
:1014D000D3CF2394CE0EDF1EF6E02F12C1CFC5016D
:1014E000329C800D911D112490935D0380935C03C9
:1014F0008ECF682F8FE398E00C94D2090F931F933F
:10150000CF93DF938C01D0E0C0E0F801EC0FFD1F1A
:101510006491662341F08FE398E00E94D209892B01
:1015200011F02196F2CFCE01DF91CF911F910F9153
:10153000089590915D01982329F490915E0198237C
:1015400081E009F480E00895CF93C82F0E94050937
:10155000982F9C2381E09C1380E0CF91089580E038
:101560000C9489052F923F925F926F927F928F9297
:101570009F92AF92BF92CF92DF92EF92FF920F9322
:101580001F93CF93DF9300D000D000D0CDB7DEB74C
:101590007C018B01522E242F30E03E832D8381E08D
:1015A00090E05C01A21AB30AC90191958195910955
:1015B0009C01220F331F3A8329836D817E81600F46
:1015C000711F452DC7010E943009B8018D819E8190
:1015D000681B790B452DC7010E943009452DB801C4
:1015E0008D819E818E0D9F1D0E943009452DB80171
:1015F000C7012D813E81821B930B0E943009D12CA3
:10160000C12C81E090E09C838B83B7FC0DC02D81C1
:101610003E81215031093E832D8389819A81029632
:101620009A838983A80EB91E9FEFC91AD90A2B8104
:101630003C812E5F3F4F3C832B83A20EB31E3601AD
:101640006E0C7F1C452D8D809E80800E911EB401F6
:10165000C3010E94300917012C183D08452DB40123
:10166000C1010E943009452D48018D819E81881A53
:10167000990AB401C3010E943009452DB401C1018A
:101680000E9430094601800E911E452DB4016D80E7
:101690007E806E0C7F1CC3010E943009452DB40171
:1016A00017012D813E81221A330AC1010E9430099F
:1016B00048018C189D08452DB401C3010E943009D2
:1016C000452DB401C1010E9430098D819E81C8164B
:1016D000D9060CF49ACF26960FB6F894DEBF0FBE4B
:1016E000CDBFDF91CF911F910F91FF90EF90DF90D1
:1016F000CF90BF90AF909F908F907F906F905F90B2
:101700003F902F9008958FB7F8944091C90350915E
:10171000CA036091CB037091CC038FBF80914501C8
:10172000942F981B80914401882331F090935C01A1
:101730001092440180E0089520910C01921740F42A
:101740009F5F9217A0F491E093BF889513BE089510
:1017500081E080934401409345018091580390912A
:1017600059030196909359038093580381E008959B
:101770001092680310925F0310925E031092C403EC
:101780001092C30388E790E090936C0380936B03FF
:101790001092C203109260031092610310926203D0
:1017A000089588E893E190936F0380936E0380E03F
:1017B00099E190937103809370030E94B80B10928B
:1017C000C70310926A0310926903089580E19FEFA6
:1017D00090936C0380936B0362E370E086E990E082
:1017E0000E94E20880916D03815080936D0380E038
:1017F00099E1909371038093700380E89CE090934B
:101800006F0380936E031092C4031092C30310926F
:101810005F0310925E030895CF92DF92EF92FF92E2
:101820000F931F93CF93DF93D0E0CAE004E610E05C
:101830008D2F90E02091C203622F022E000C770BB7
:10184000861797070CF0B2C0C89FF001C99FF00D32
:101850001124EE58FC4F40815181A281B3814A0F7F
:101860005B1F5183408344815581A681B7814A0F14
:101870005B1F55834483408151814C303EEF5307B9
:1018800024F448515A4C51834083C89FF001C99FAA
:10189000F00D1124EE58FC4F40815181453F33E358
:1018A000530724F0485E554351834083C89FF0019D
:1018B000C99FF00D1124EE58FC4F448155814C30E6
:1018C0003EEF530724F44851534E55834483C89F39
:1018D000F001C99FF00D1124EE58FC4F4481558151
:1018E000453F3AE1530724F0485E5C415583448309
:1018F000C89FF001C99FF00D1124EE58FC4F4085A0
:10190000518557FF31C01186108630E0DB011197F9
:101910003A171B06ACF43C9F6001112450E040E0F4
:10192000F601E40FF51FEE58FC4FE284F384F182D8
:10193000E0824E5F5F4F4A30510591F73F5FE8CF3D
:10194000C69FF001C79FF00D1124EE58FC4F118285
:1019500010821382128215821482178216821186D7
:10196000108621502093C203C89F9001C99F300D5B
:101970001124C9018E589C4F7C01FC018481958102
:10198000B8010E943D2E9B0180819181B8010E9487
:101990003D2ECB0141E0B9010E943009F70180855D
:1019A0009185049791878087DF5F42CFDF91CF9148
:1019B0001F910F91FF90EF90DF90CF9008952F929D
:1019C0003F924F925F926F927F928F929F92AF92CF
:1019D000BF92CF92DF92EF92FF920F931F93CF931C
:1019E000DF93CDB7DEB72E970FB6F894DEBF0FBEEC
:1019F000CDBF20917003309171038091C30390910A
:101A0000C403280F391F3093710320937003809112
:101A10006E0390916F0340915E0350915F03840FBA
:101A2000951F90936F0380936E032C304EEF340715
:101A300034F428513A4C3093710320937003209171
:101A4000700330917103253F53E3350734F0285E6E
:101A5000354330937103209370038C30EEEF9E0773
:101A600034F48851934E90936F0380936E0380916A
:101A70006E0390916F03853FFAE19F0734F0885E13
:101A80009C4190936F0380936E0380916E039091BD
:101A90006F03E4E6F0E0BF010E943D2E9B018091C0
:101AA000C503082F880F110B80917003909171036B
:101AB000BF010E943D2EF801ED59F74FA801455B8B
:101AC000574F5A834983C8018D5C974F7C01D801D9
:101AD000A55EB74FA8014D5F574FC8018551984F7C
:101AE00000916B0310916C03101611060CF059C095
:101AF000E49189010E0F111DE7FD1A95E981FA8124
:101B0000F491DF2EF901ED0DF11DD7FCFA95FA8362
:101B1000E983F701E4906901CE0CD11CE7FCDA946B
:101B2000FD01A4917901EA0EF11CA7FDFA94FA01D6
:101B300044915901A40EB11C47FDBA94FC01849153
:101B40004B01880E911C87FD9A949601A701B5015F
:101B5000C4010E943909980149815A81B601C7011F
:101B60000E9439099501A401B80189819A812E96B4
:101B70000FB6F894DEBF0FBECDBFDF91CF911F919E
:101B80000F91FF90EF90DF90CF90BF90AF909F901C
:101B90008F907F906F905F904F903F902F900C941C
:101BA0003909E4915901AE0EB11CE7FDBA94E981FF
:101BB000FA81F49189010F0F111DF7FD1A95F701B4
:101BC000E490F901EE0DF11DE7FCFA957F01FD01AE
:101BD000A491F901EA0FF11DA7FDFA95FE87ED87A3
:101BE000FA0144916901C40ED11C47FDDA94FC014D
:101BF0008491680F711D87FD7A95EC14FD040CF03B
:101C00000AC1AC14BD040CF41DC19C2D8D2D6701BF
:101C1000E92EF82E962F872F6D857E859D878E87DE
:101C2000CA14DB0409F03FC02D853E85261737070F
:101C30005CF0962F872F6217730714F49D858E85AD
:101C40007E876D87692F782F4D855E850417150770
:101C500034F0601771070CF4B8010D851E8550E44F
:101C6000C516D10408F0FEC06F5F462F401BB601B9
:101C7000C8012E960FB6F894DEBF0FBECDBFDF9120
:101C8000CF911F910F91FF90EF90DF90CF90BF9079
:101C9000AF909F908F907F906F905F904F903F900C
:101CA0002F900C948904902F812F8B01692F782F0E
:101CB0009A2D8B2D5601C92ED82E8D859E85801B81
:101CC000910B98878F83F701EA19FB09FA87E98757
:101CD0003B01601A710A96012A193B093A8329834C
:101CE000AB018D859E85481B590B5C834B83F601A8
:101CF000EE19FF09FC87EB87CE14DF0409F443C01B
:101D00009701215031093E832D834501512C412CEF
:101D1000312C212C4D815E8148155905BCF1C10142
:101D200069857A850E943D2E9B01200F311FC201DB
:101D300069817A810E943D2ECB01800F911FEF8136
:101D4000F8852E0E3F1E460C571C821793071CF079
:101D5000582FC901252FF0E48F16910430F441E08B
:101D6000420F481BB4010E9489042FEF821A920A85
:101D7000D1CF9D858E857E876D87692F782F9C2D8D
:101D80008D2D67016CC0DE82CD82BFCFC4018E195C
:101D90009F094B815C81849F7001859FF00C949F0B
:101DA000F00C1124C4018A199B09869D5001879D5E
:101DB000B00C969DB00C1124C814D9040CF452C078
:101DC000C7016B857C850E943D2E2D853E85260FA3
:101DD000371FC50169817A810E943D2ECB01800F9A
:101DE000911FEB81FC81EE0EFF1EA60CB71C821723
:101DF00093071CF0582FC901252FF0E48F1691048A
:101E000030F441E0420F481BB4010E9489042FEFD7
:101E1000821A920AD1CFAE14BF040CF001CFAC14D9
:101E2000BD040CF4A6CF902F812F0D851E857E87D3
:101E30006D87692F782F9E2D8F2D76016501A92E34
:101E4000B82EE3CEAE14BF040CF437CF902F812F01
:101E50000D851E859D878E879A2D8B2D5701E92E26
:101E6000F82E2BCF2E960FB6F894DEBF0FBECDBF47
:101E7000DF91CF911F910F91FF90EF90DF90CF9066
:101E8000BF90AF909F908F907F906F905F904F909A
:101E90003F902F900895089590E080E008958F92EC
:101EA0009F92AF92BF920F931F93CF93DF93CDB7C3
:101EB000DEB7A1970FB6F894DEBF0FBECDBF19A253
:101EC000423008F44AE08E010F5D1F4F842E912CA2
:101ED000B12CA12CA50194010E945A2CE62FB90126
:101EE000CA01EA3044F5E05DD801EE938D01232B61
:101EF000242B252B79F790E080E0109769F0FD0105
:101F000001900020E9F73197AF014A1B5B0BBD013F
:101F10008FE398E00E94F306A1960FB6F894DEBF17
:101F20000FBECDBFDF91CF911F910F91BF90AF90AA
:101F30009F908F900895E95CD7CFBC0190E080E03E
:101F40004AE00C944F0FCF92DF92EF92FF92CF9323
:101F5000DF936C01990FEE08FF08F7FE17C08DE2C2
:101F60000E94790AEC0166277727CB016C197D095D
:101F70008E099F094AE00E944F0F8C0F9D1FDF9131
:101F8000CF91FF90EF90DF90CF9008954AE0C70186
:101F9000B601DF91CF91FF90EF90DF90CF900C943E
:101FA0004F0FCF92DF92EF92FF926B017C01C11431
:101FB000D104E104F10441F00E94BA2BA70196017B
:101FC0000E94282C6B017C01C701B601FF90EF90A5
:101FD000DF90CF9008956F927F928F929F92AF92F1
:101FE000BF92CF92DF92EF92FF920F931F93CF9306
:101FF000DF9380916B0390916C0397FD02C00C946A
:10200000CF16B12C08EFA02ECB2DD0E0809162032B
:10201000082E000C990BC817D9070CF0A8C213E0C2
:10202000CC0FDD1F1A95E1F7FE01E95EFC4F8081C0
:1020300091812091700330917103821B930B209149
:10204000C503022E000C330BA9014551584FFA016C
:1020500064913C01660E711C67FD7A94E0906E03FA
:10206000F0906F03D9015896161417040CF0CCC0E9
:1020700064913C01660E711C67FD7A9404EF601652
:1020800001E070060CF4CCC0FA0164913C01660ECC
:10209000711C67FD7A94161417040CF0C2C14491A8
:1020A000BC01640F711D47FD7A95FE01E95EFC4F8E
:1020B000428153814E195F09FD01E551F84FA4910A
:1020C0003A016A0E711CA7FD7A94D3011A161B06F9
:1020D0000CF0B1C1E4914A018E0E911CE7FD9A9477
:1020E000F4016E0F7F1F6C3B72400CF4B6C0D90137
:1020F000A55EB74FFD016491FC01E60FF11D67FD80
:10210000FA95B901685B7F4F1E161F060CF09EC141
:10211000FD01D490FC01ED0DF11DD7FCFA95E43FD3
:10212000F1400CF49EC1FD01D490FC01ED0DF11DB8
:10213000D7FCFA951E161F060CF0BAC1FD01A4913A
:102140003C016A0E711CA7FD7A94D301FB01E55195
:10215000F84F64914A01860E911C67FD9A941814F9
:1021600019040CF0B1C1E491BA016E0F711DE7FDC5
:102170007A95A60FB71FAC3BB2400CF46EC0B90104
:10218000655B774FFB011491FC01E10FF11D17FD19
:10219000FA9528583F4F1E161F060CF09FC1FB01F1
:1021A0001491FC01E10FF11D17FDFA95E43FF14098
:1021B0000CF49FC1FB011491FC01E10FF11D17FD0F
:1021C000FA951E161F060CF0BBC1FB016491860F29
:1021D000911D67FD9A95F901E551F84F24913A0157
:1021E000620E711C27FD7A94161417040CF0B2C10C
:1021F000E4914E0F511DE7FD5A95840F951F8C3BBE
:1022000092405CF1B39400CF64913C01660E711C66
:1022100067FD7A940DE060160EEF70060CF434CF73
:10222000FE01E95EFC4F648175816E197F09FD0135
:10223000E551F84F14913B01610E711C17FD7A9422
:10224000161417040CF0E3C0E4916E0F711DE7FD46
:102250007A95643F71400CF017CF62E370E086E935
:1022600090E00E94E2080E94E60BE091610318E012
:10227000E102F0011124E956FD4FC95EDC4F88816F
:1022800099812A813B81820F931F918380838C8166
:102290009D812E813F81820F931F9583848364E605
:1022A00070E080E090E00E94D10FE091610328E0AF
:1022B000E202F0011124E956FD4F625371098109D0
:1022C00091097383628364E670E080E090E00E948D
:1022D000D10FE091610348E0E402F0011124E956D6
:1022E000FD4F62537109810991097783668364E028
:1022F00070E080E090E00E94D10FE0916103AE2F8A
:102300000E2E000CBB0BA957BD4F6C93EF5FE093F3
:10231000610358E0E502F0011124E956FD4F888180
:1023200099812A813B81820F931F918380838C81C5
:102330009D812E813F81820F931F9583848364E664
:1023400070E080E090E00E94D10FE0916103A8E08E
:10235000EA02F0011124E956FD4F62537109810927
:1023600091097383628364E670E080E090E00E94EC
:10237000D10FE0916103B8E0EB02F0011124E956BE
:10238000FD4F62537109810991097783668364E087
:1023900070E080E090E00E94D10F80916103E82F0F
:1023A000082E000CFF0BE957FD4F60838F5F809371
:1023B000610380916203282F082E000C330B2150FB
:1023C00031099B2D492F50E0421753070CF0CBC029
:1023D000BA01C3E0660F771FCA95E1F7FB01E95E1A
:1023E000FC4F0A2D0403E001059FD00D112440E0AD
:1023F00000851185DF01AC0FBD1FA60FB71F0D9320
:102400001C934F5F3296443099F79F5FDBCFE49186
:102410006E0F711DE7FD7A956D307E4F0CF434CE52
:102420001CCF4491BC01640F711D47FD7A957195D5
:10243000619571093ACEE4916A01CE0ED11CE7FD97
:10244000DA94F601F195E195F1094BCEFD01D490B6
:10245000FC01ED0DF11DD7FCFA95ED30FE4F0CF4AB
:1024600062CEFE01E95EFC4F048115810E191F0941
:10247000FB01E551F84FD49038016D0C711CD7FC6D
:102480007A941614170454F4E4910E0F111DE7FD0D
:102490001A95043F11400CF046CEDFCEE4910E0FAA
:1024A000111DE7FD1A950D301E4F0CF43CCED5CE14
:1024B000FD01A4913C016A0E711CA7FD7A94D30121
:1024C000B195A195B10942CEE491BA016E0F711D8B
:1024D000E7FD7A957195619571094BCEFB011491D9
:1024E000FC01E10FF11D17FDFA95ED30FE4F0CF4E4
:1024F00061CEFE01E95EFC4FA481B581AE19BF0932
:10250000F901E551F84F14913D01610E711C17FD61
:102510007A941614170454F4E491AE0FB11DE7FD3C
:10252000BA95A43FB1400CF045CE97CEE491AE0FE2
:10253000B11DE7FDBA95AD30BE4F0CF43BCE8DCE4C
:10254000FB016491860F911D67FD9A959195819588
:10255000910941CEE4914E0F511DE7FD5A955195D9
:10256000419551094ACE8150809362034BCE912C04
:10257000C92DD0E080916103082E000C990BC8177B
:10258000D9070CF0B1C20091700310917103B3E050
:10259000CC0FDD1FBA95E1F7FE01E956FD4F6081D2
:1025A0007181601B710B8091C503082E000C990B83
:1025B000AC014551584FFA0124913B01620E711C48
:1025C00027FD7A94E0906E03F0906F03DC0158963B
:1025D000161417040CF0D5C024913B01620E711C37
:1025E00027FD7A94E0E96E16E1E07E060CF4D5C092
:1025F000FE01E158FE4F20813181201B310BFA0191
:10260000D490F901ED0DF11DD7FCFA951E161F06A9
:102610000CF0C4C1FA0144918901040F111D47FD5A
:102620001A95FE01E158FE4F428153814E195F0910
:10263000FD01E551F84FA4913A016A0E711CA7FD06
:102640007A94D3011A161B060CF0B3C1E4915A0117
:10265000AE0EB11CE7FDBA94F5010E0F1F1F083531
:1026600012400CF4B7C0DC01A55EB74FFD01D49059
:10267000FB01ED0DF11DD7FCFA958C01085B1F4F96
:1026800058011E161F060CF09FC1FD01D490FB01DE
:10269000ED0DF11DD7FCFA95E039F1400CF49FC126
:1026A000FD01D490F901ED0DF11DD7FCFA951E1630
:1026B0001F060CF0BBC1FD01A49139016A0E711C0B
:1026C000A7FD7A94D301F501E551F84F14915A0111
:1026D000A10EB11C17FDBA941A141B040CF0B2C160
:1026E000E4916A01CE0ED11CE7FDDA94F601AE0F3B
:1026F000BF1FA835B2400CF46DC0DC01A55BB74F1D
:10270000FD01D490FB01ED0DF11DD7FCFA95885821
:102710009F4F1E161F060CF0A0C1FD011491610F02
:10272000711D17FD7A95603971400CF4A0C1FD014F
:1027300064913901660E711C67FD7A9416141704B2
:102740000CF0BCC1A4912A0F311DA7FD3A95FC01E4
:10275000E551F84F84913A01680E711C87FD7A9417
:10276000C301181619060CF0B2C18491480F511D0F
:1027700087FD5A95420F531F483552405CF19394A0
:10278000F7CE24913B01620E711C27FD7A94E1E79C
:102790006E16EEEF7E060CF42BCFFE01E956FD4FD0
:1027A000248135812E193F09FD01E551F84FD49060
:1027B00039016D0C711CD7FC7A94161417040CF0B7
:1027C000E3C0E4912E0F311DE7FD3A9520393140E9
:1027D0000CF00ECF62E370E086E990E00E94E20820
:1027E0000E94E60BE091600318E0E102F001112481
:1027F000E158FE4FC956DD4F888199812A813B817E
:10280000820F931F918380838C819D812E813F81D4
:10281000820F931F9583848364E670E080E090E0EC
:102820000E94D10FE091600328E0E202F001112440
:10283000E158FE4F625371098109910973836283E4
:1028400064E670E080E090E00E94D10FE0916003C8
:1028500048E0E402F0011124E158FE4F625371098F
:10286000810991097783668364E070E080E090E0FD
:102870000E94D10FE0916003AE2F0E2E000CBB0B17
:10288000A15ABE4F6C93EF5FE093600358E0E502FE
:10289000F0011124E158FE4F888199812A813B8102
:1028A000820F931F918380838C819D812E813F8134
:1028B000820F931F9583848364E670E080E090E04C
:1028C0000E94D10FE0916003A8E0EA02F001112418
:1028D000E158FE4F62537109810991097383628344
:1028E00064E670E080E090E00E94D10FE091600328
:1028F000B8E0EB02F0011124E158FE4F6253710978
:10290000810991097783668364E070E080E090E05C
:102910000E94D10F80916003E82F082E000CFF0B5E
:10292000E15AFE4F60838F5F809360038091610363
:10293000282F082E000C330B21503109992D492FD7
:1029400050E0421753070CF0CBC0BA01A3E0660F6A
:10295000771FAA95E1F7FB01E956FD4F08EF040345
:10296000E001059FD00D112440E000851185DF01B5
:10297000AC0FBD1FA60FB71F0D931C934F5F329670
:10298000443099F79F5FDBCFE4912E0F311DE7FDB7
:102990003A9521373E4F0CF42BCE1CCFFA014491CF
:1029A0008901040F111D47FD1A9511950195110913
:1029B00038CEE4916A01CE0ED11CE7FDDA94F6011F
:1029C000F195E195F10949CEFD01D490FB01ED0DA2
:1029D000F11DD7FCFA95E137FE4F0CF461CEFE01F4
:1029E000E956FD4F048115810E191F09F501E551C6
:1029F000F84FD49038016D0C711CD7FC7A941614E2
:102A0000170454F4E4910E0F111DE7FD1A950039D7
:102A100011400CF045CEDECEE4910E0F111DE7FD06
:102A20001A9501371E4F0CF43BCED4CEFD01A49174
:102A300039016A0E711CA7FD7A94D301B195A19555
:102A4000B10941CEE4918A010E0F111DE7FD1A95DF
:102A5000F801F195E195F1094ACEFD011491610F5C
:102A6000711D17FD7A9561377E4F0CF460CEFE0123
:102A7000E956FD4F648175816E197F09FC01E551AE
:102A8000F84F14913B01610E711C17FD7A941614D6
:102A9000170454F4E4916E0F711DE7FD7A956039C7
:102AA00071400CF044CE96CEE4916E0F711DE7FD9F
:102AB0007A9561377E4F0CF43ACE8CCEA4912A0FD2
:102AC000311DA7FD3A9531952195310940CE84916C
:102AD000480F511D87FD5A955195419551094ACE90
:102AE0008150809361034BCEC0E018EF4C2F50E033
:102AF00080916003082E000C990B481759070CF0C1
:102B000036C1F3E0440F551FFA95E1F7FA01E15899
:102B1000FE4F208131818091700390917103281BB9
:102B2000390B8091C503082E000C990BFC01E5516F
:102B3000F84F6491D901A60FB11D67FDBA951A1619
:102B40001B060CF039C0E491B9016E0F711DE7FD51
:102B50007A95603971400CF439C0FC01E55EF74F9D
:102B600064913901660E711C67FD7A94161417047E
:102B70000CF08DC0E491B9016E0F711DE7FD7A95DF
:102B8000603971400CF48DC0FC01E55BF74F649136
:102B90003901660E711C67FD7A94161417040CF047
:102BA000ACC0E4912E0F311DE7FD3A95203931403C
:102BB0000CF4ACC0CF5F9ACFE491B9016E0F711DD8
:102BC000E7FD7A9561377E4F0CF4C7CFFA01E158E3
:102BD000FE4F64817581E0916E03F0916F036E1B6F
:102BE0007F0BFC01ED5FF74FA4913B016A0E711C56
:102BF000A7FD7A94D3011A161B060CF03EC0E4918F
:102C00006E0F711DE7FD7A95603971400CF0A5CF0C
:102C100068EC70E080E090E00E940C060E94E60BF9
:102C200080916003282F082E000C330B21503109AE
:102C30009C2F492F50E0421753070CF094C0BA0163
:102C4000E3E0660F771FEA95E1F7FB01E158FE4FDD
:102C500014037001159FF00C112440E0C084D1844E
:102C6000D701AE0FBF1FA60FB71FCD92DC924F5FEB
:102C70003296443099F79F5FDCCFE4916E0F711D5F
:102C8000E7FD7A9561377E4F0CF467CFC1CFE491B1
:102C9000B9016E0F711DE7FD7A9561377E4F0CF417
:102CA00073CFFA01E158FE4F64817581E0916E03A4
:102CB000F0916F036E1B7F0BFC01ED5CF74FA4914D
:102CC0003B016A0E711CA7FD7A94D3011A161B06EC
:102CD00054F4E4916E0F711DE7FD7A9560397140EF
:102CE0000CF052CF95CFE4916E0F711DE7FD7A95F0
:102CF00061377E4F0CF448CF8BCFE4912E0F311DFE
:102D0000E7FD3A9521373E4F0CF454CF41585E4FC2
:102D1000DA0114962D913C9140916E0350916F030E
:102D2000241B350BFC01ED59F74F84913901680ED6
:102D3000711C87FD7A94C3011816190654F4E491A6
:102D40002E0F311DE7FD3A95203931400CF032CF7E
:102D50005FCFE4912E0F311DE7FD3A9521373E4FAD
:102D60000CF428CF55CF81508093600323CF8091FE
:102D70006B0390916C03019690936C0380936B03AB
:102D8000DF91CF911F910F91FF90EF90DF90CF9047
:102D9000BF90AF909F908F907F906F9008952091FB
:102DA00062032111EDCF209161032111E9CF209120
:102DB00060032111E5CF019718161906ECF288E798
:102DC00090E090936C0380936B038091680388304C
:102DD0001CF48F5F80936803C0E080916803C8177C
:102DE0007CF668EE7CE180E090E00E94D10FE091FB
:102DF000620358E0E502F0011124E95EFC4F6058DF
:102E00007A4D7183608368E670E180E090E00E9413
:102E1000D10FE0916203A8E0EA02F0011124E95E1B
:102E2000FC4F60547D4E7583648364E670E080E0FF
:102E300090E00E94D10FE0916203B8E0EB02F00154
:102E40001124E95EFC4F6253710981099109738372
:102E5000628364E670E080E090E00E94D10FE09130
:102E6000620308E0E002F0011124E95EFC4F6253C6
:102E70007109810991097783668364E070E080E0DD
:102E800090E00E94D10F80916203E82F082E000C81
:102E9000FF0BE158FD4F60838F5F80936203CF5F2C
:102EA0009CCFFF920F931F93CF93DF93EC01F62EED
:102EB00008811981C8010E94122CF81621F06F2D8B
:102EC000C8010E941A2CCE01DF91CF911F910F9162
:102ED000FF9008950C94122C0F931F93CF93DF93C0
:102EE0008C01EB010E94122C8883C80101960E947C
:102EF000122C8983CE01DF91CF911F910F910895FC
:102F00001F920F920FB60F9211242F933F938F931E
:102F10009F93AF93BF938091C9039091CA03A091EF
:102F2000CB03B091CC033091C80323E0230F2D379E
:102F300058F50196A11DB11D2093C8038093C903C4
:102F40009093CA03A093CB03B093CC038091CD039D
:102F50009091CE03A091CF03B091D0030196A11D13
:102F6000B11D8093CD039093CE03A093CF03B09374
:102F7000D003BF91AF919F918F913F912F910F906F
:102F80000FBE0F901F90189526E8230F0296A11DE3
:102F9000B11DD2CF1F920F920FB60F9211248F93B3
:102FA0009F938091E1009091E100937F9093E100E5
:102FB00083FF0FC01092E90091E09093EB00109214
:102FC000EC0092E39093ED001092DE0398E0909372
:102FD000F00082FF22C093E09093E9009091F2000C
:102FE000992319F09AE39093E8009091590199235D
:102FF00041F090915901915090935901911101C064
:103000005D989091DD03992341F09091DD039150FB
:103010009093DD03911101C0289884FF18C080911E
:10302000E2008E7E81608093E2008091E1008F7EDD
:103030008093E10080915A018E7E806180935A01D5
:103040009F918F910F900FBE0F901F90189580FF4A
:10305000F7CF8091E2008E7E80618093E2008091C4
:10306000E1008E7E8093E10080915A018E7E816026
:10307000E5CF1F920F920FB60F921124CF92DF92DD
:10308000EF92FF920F931F932F933F934F935F9372
:103090006F937F938F939F93AF93BF93EF93FF9320
:1030A000CF93DF93CDB7DEB76C97DEBFCDBF109265
:1030B000E9008091E80083FF25C068E0CE014596D5
:1030C0000E94E60682EF8093E8008D8987FF39C071
:1030D0009091E80090FFFCCF982F907609F034C1D2
:1030E0009E894F89588D2F89F88C911131C0803875
:1030F00061F580915B018093F1001092F1008EEFF9
:103100008093E8006C960FB6F894DEBF0FBECDBF7B
:10311000DF91CF91FF91EF91BF91AF919F918F91EF
:103120007F916F915F914F913F912F911F910F91DF
:10313000FF90EF90DF90CF900F900FBE0F901F90F9
:1031400018959EEF9093E800C7CF1092F100D5CF6D
:10315000913059F48111D3CF4130510581F68091DE
:103160005B018D7F80935B01CACF933049F481115D
:10317000C6CF4130510519F680915B018260F2CFD4
:10318000953041F48091E80080FFFCCF20682093C7
:10319000E300B5CF963009F0A9C00B8D1C8D22E05D
:1031A0001092E9001092570110925601F2122EC0AF
:1031B00010925501109254010E94B5061F8299E0A9
:1031C0009983FA8291E09E8390EA98879AEF998793
:1031D0002091560130915701275F3F4F3C832B834D
:1031E0008D831092E90010925701109256011093AE
:1031F00055010093540149E050E0BE016F5F7F4FDD
:1032000080E00E948F060E94B50679CF1093550189
:10321000009354010E94D305DC0112960D911C917C
:103220000115110509F451C1D801ED91FC910480FB
:10323000F581E02DBE016B5E7F4FC80109950097B7
:1032400009F03EC1F80100851185EACFF3E0FF12D5
:103250000EC08F89882309F440C0823061F440E8B1
:103260006DE080E196E00E94CC1A811148CF81E2A6
:103270008093EB0047CF813029F440E86BE084E095
:1032800096E0F1CF833099F70E94D305DC011296C6
:10329000ED90FC908E010F5F1F4F6801E114F10467
:1032A00079F0D701ED91FC910680F781E02DB8010E
:1032B000C7010995080F111DF701E084F184EECFD5
:1032C000D8011C92F60101900020E9F73197BF0167
:1032D0006C197D0940E0C601C6CF6EEE75E0FB01BA
:1032E000449150E080E80E948F0609CF973009F49E
:1032F000BECF983021F481E08093F10000CF993067
:1033000009F0FDCE837009F0B2CFE3E1F1E081E096
:1033100031E096E32191222371F08093E90030930C
:10332000EB00DF0111972C912093EC009093ED00BE
:103330008F5F873079F78EE78093EA001092EA007A
:103340008F898093DE03DBCE8B8D9C8D1092E900FC
:103350001092570110925601909355018093540199
:10336000898D811192C08E899D89913A49F481326B
:1033700009F07DCF47E050E064E071E080E0B3CF3A
:10338000913209F074CF833269F48F89988DB0E05F
:10339000A0E08093000190930101A0930201B093FB
:1033A0000301ADCE803269F48091E80082FFFCCF4A
:1033B00067E084E091E00E94E6068BEF8093E800EE
:1033C0009ECE823209F09BCE8F8980930B01EEEF67
:1033D000FFE7859194918B3F9C4D51F1E0E0F8E03F
:1033E0008091040190910501A0910601B09107011F
:1033F000803B9440A105B105F1F480910B0180FD63
:103400001AC0EE3F8AE0F80789F587E797E79183CE
:103410008083809160008093580188E19BE00FB623
:10342000F894A895809360000FBE9093600067CEDB
:10343000EEEFFAE0D5CF808191818737974709F089
:103440005ECEA89580916000886180936000809135
:10345000580180936000EE3F2AE0F20789F08091E6
:10346000FE0A9091FF0A9183808349CE80819181E9
:103470008737980751F29093FF0A8093FE0AC5CFD1
:103480001092FF0A1092FE0A3ACE0E94D305DC0188
:1034900012960D911C910115110509F4E8CED80181
:1034A000ED91FC910190F081E02DBE016B5E7F4FAC
:1034B000C8010995811123CEF80100851185EBCF54
:1034C000181619060CF41BCED2CEF1E0FF12BECEB8
:1034D00062EF75E004CF1F920F920FB60F92112486
:1034E0002F933F934F935F936F937F938F939F930C
:1034F000AF93BF93EF93FF9380915001909151014F
:10350000A0915201B0915301892B8A2B8B2B09F486
:1035100040C080914F0181110BC088B190E4892790
:1035200088B980914E01882319F088B1805888B9F4
:103530008091500190915101A0915201B09153019D
:10354000181619061A061B069CF4809150019091DA
:103550005101A0915201B09153010197A109B10904
:103560008093500190935101A0935201B093530165
:10357000FF91EF91BF91AF919F918F917F916F914B
:103580005F914F913F912F910F900FBE0F901F9021
:1035900018950E943A08ECCFEF92FF920F931F9379
:1035A000CF93DF93F82E192FE62E042F81E0860F9C
:1035B000880F0E94610683E00E946106CF2DD12F03
:1035C000EC0EFD2EF11CCE15DF05B9F007FF13C080
:1035D000FE0184910E946106182F80E00E9461061E
:1035E000812321968111EFCFDF91CF911F910F9110
:1035F000FF90EF9008958881EDCF81E0F5CFEFED5A
:10360000F7E01382128288EE93E0A0E0B0E08483BA
:103610009583A683B7838DE191E0918380838FEFBB
:103620009FEF95878487EFE3F8E0138212828FE2A1
:1036300091E09183808386E894E090933E088093A4
:103640003D0880E090E890933C0880933B084698C2
:103650003E9A47983F9A0895CF93DF9300D000D0C9
:10366000CDB7DEB7789484B5826084BD84B58160BF
:1036700084BD85B5826085BD85B5816085BD80913D
:103680006E00816080936E001092810080918100B5
:1036900082608093810080918100816080938100AD
:1036A0008091800081608093800080919100826091
:1036B000809391008091910081608093910080912E
:1036C00090008160809390008091C100846080931D
:1036D000C1008091C10082608093C1008091C100CF
:1036E00081608093C1008091C30081608093C3009A
:1036F0008091C00082608093C0008091C200816090
:103700008093C20080917A00846080937A008091D7
:103710007A00826080937A0080917A008160809341
:103720007A0080917A00806880937A001092DE039C
:1037300010925B0110925A018091D70081608093B2
:10374000D70080EA8093D80089B5806189BD89B5AA
:10375000826089BD09B400FEFDCF61E070E080E0C9
:1037600090E00E940C068091D8008F7C806180934D
:10377000D8008091E000807F8093E0008091E1009C
:103780008E7E8093E1008DE08093E200559A209A2E
:103790005D98289881EC80937C0085B1806F85B915
:1037A00084B1877E84B984B1876E84B95E9A5F984C
:1037B0008AB1806D8AB9769A6E9881B3806F81BB29
:1037C000899880B38D7080BB80E58CBD81E08DBD14
:1037D00085E090E00E9400095F9A85E090E00E94F9
:1037E00000095E985C98EEECF6E08BED96E0249193
:1037F0002EBD00000DB407FEFDCF31968E179F073A
:10380000B1F75C9A81E880936400809165008160E3
:10381000809365000E94AF0A80E80E94A40A02E03B
:1038200010E08823A9F05C9885EA8EBD00000DB4F5
:1038300007FEFDCF5C9A2E982F982D9880916400FA
:1038400080628093640081E083BF889513BEFCCFC3
:1038500084E00E94A40A882309F440C02D9884E8DB
:103860000E94A40A8823C1F00E94FE0888EC90E020
:103870000E9400092F981A8309836FEFCE010196E9
:103880000E94511784EF91E00E9400092F9A84E86A
:103890000E94A40A8111FBCF84E10E94A40A88231C
:1038A000C1F00E94FE0888EC90E00E9400092E986A
:1038B0001A83098360E0CE0101960E94511784EFBC
:1038C00091E00E9400092E9A84E10E94A40A8111CD
:1038D000FBCF88EC90E00E940009BACF0E94FE085E
:1038E00082E090E00E946A17882309F4D6C10E9402
:1038F000120981E090E00E946A17182F147081FF6E
:1039000010C011112E9801EFE02EFF24FA9480E4EC
:103910000E94A40A882309F4C3C12E9A2F9A0E94F8
:10392000FE0882E390E00E9400090E9405098111CF
:10393000F8CF809164008E7F8093640080917A003C
:10394000806480937A0080917A0086FDFCCF00919C
:103950007800109179000E94E705AB01BC01C80115
:10396000B0E0A0E0DC01992788278C019D01040FBD
:10397000151F261F371FC901B8012091640021605F
:1039800020936400611571058105910511F00E9475
:10399000092C81E280930C010E94BD090E94D10B89
:1039A00080915703882309F4D8C10E9412098FEF30
:1039B0009FEF9093EC078093EB07B4E12B2E312C13
:1039C0001091C70381E2113019F082E3111182E4F2
:1039D00080930C010E94830B882309F456C10E9436
:1039E000BD09123011F40C94A22808F0B9C11123BA
:1039F00009F432C2113009F415C381E080930D013E
:103A000082E090E090935D0380935C030AE010E015
:103A100010935B0300935A038091690390916A03AA
:103A20000E949D0F80E290E090935D0380935C0381
:103A300010935B0300935A0380916803082E000CD7
:103A4000990B0E94A30F88E790E090935D03809309
:103A50005C0310935B0300935A0380916D03082E5F
:103A6000000C990B0E94A30F8CE290E090935D03F1
:103A700080935C0310935B0300935A038091C5030A
:103A8000082E000C990B0E94A30F8CE390E09093FA
:103A90005D0380935C0310935B0300935A03809152
:103AA0006203082E000C990B0E94A30F8EE490E095
:103AB00090935D0380935C0310935B0300935A0320
:103AC00080916103082E000C990B0E94A30F80E6E1
:103AD00090E090935D0380935C0310935B030093ED
:103AE0005A0380916003082E000C990B0E94A30FCB
:103AF0008EE690E090935D0380935C0310935B03EC
:103B000000935A038091C203082E000C990B0E9467
:103B1000A30F84E6E82EF12CF0925D03E0925C03A3
:103B200089E190E090935B0380935A038091700346
:103B3000909171030E94A30FF0925D03E0925C03E9
:103B400083E290E090935B0380935A0380916E032D
:103B500090916F030E94A30FF0925D03E0925C03CB
:103B60008DE290E090935B0380935A038091C303AE
:103B70009091C4030E94A30FF0925D03E0925C0356
:103B800087E390E090935B0380935A0380915E03F8
:103B900090915F030E94A30F10935D0300935C0359
:103BA00082E390E090935B0380935A0380916B03D0
:103BB00090916C030E94A30F10935D0300935C032C
:103BC0008EE190E090935B0380935A0380915C01B7
:103BD00004E6809FC001112460910C0170E00E94F6
:103BE0003D2ECB010E94A30F809157038823D9F16A
:103BF00042E06EE370E08DE790E00E94890442E0CD
:103C00006FE370E08DE790E00E94890441E06EE38D
:103C100070E08DE790E00E94300941E06FE370E0D2
:103C20008DE790E00E94300941E06EE370E08EE79E
:103C300090E00E94300941E06FE370E08EE790E091
:103C40000E9430092FE330E04EE750E06BE370E074
:103C50008EE790E00E94390941E06CE370E08FE765
:103C600090E00E94180940E054E06FED73E08FEDA2
:103C700097E00E9420070E94AF0A80915E01809326
:103C80005D010E94050980935E0180E090E0892B30
:103C900009F496CE0E94000093CE0E940D0929CE11
:103CA000112331F004E0E016F10411F42E9A2F985C
:103CB00081E00E94890500E128E54EE156E0B70168
:103CC00084E190E00E94C0040E94AF0A8FE090E07F
:103CD0000E9400092FEFE21AF20A39E1E316F1041B
:103CE00009F015CE112311F02F9A2D9880E991E05B
:103CF0000E9400090E94FE0881E090E00E946A177D
:103D000080FF0FCE8AE090E00E946A179FEF980F25
:103D10009E3F08F006CE22E330E030935D0320930F
:103D20005C0328E330E030935B0320935A030BE0FD
:103D300010E0682F8FE398E00E94D209C8010E942A
:103D40006A170F5F1F4F0131110599F70E94AF0AE3
:103D500088EE93E00E940009E4CD0E940D0927CE71
:103D6000143011F40C94072B10F40C94562A1530CF
:103D700009F043CE0EE010E010935D0300935C0366
:103D800080E290E090935B0380935A0381E08093FC
:103D90000D018FEC97E00E947E0A10935D03009363
:103DA0005C0388E290E090935B0380935A038DEB71
:103DB00097E00E947E0A84E40E94A40A882309F402
:103DC00042C004E610E094E2A92EB12C20E2E22EDB
:103DD000F12C0E94BD09B0925D03A0925C03F092A9
:103DE0005B03E0925A0382EB97E00E947E0A0E94F6
:103DF000AF0A1A8309836FEFCE0101960E94511713
:103E00000F5F1F4F0738110521F764EF71E080E065
:103E100090E00E940C06F0925D03E0925C03F09249
:103E20005B03E0925A030E94BD0986EA97E00E9474
:103E30007E0A0E94AF0A68EE73E080E090E00E9484
:103E40000C061092C70388E00E94990A882309F49F
:103E5000D4CD1092C703D1CD0AE010E010935D03DA
:103E600000935C0310935B0300935A0382E08093FA
:103E70000D018BEA98E00E947E0A80915803909190
:103E80005903B8010E94292E892B79F462E070E071
:103E900080E090E00E94D10F21E061307105810542
:103EA000910509F020E02093C603E0905803F090BC
:103EB0005903C70163E070E00E94292E892B51F459
:103EC0008091C5039091C603992309F4A6C08F5F22
:103ED0008093C5038091C50388311CF0885180937D
:103EE000C5038091C50387FF03C0885E8093C50327
:103EF00004E610E01093C4030093C3030E94DF0C98
:103F0000C70165E070E00E94292E892B09F050C09E
:103F10004091C20348300CF04BC08091C503082E7D
:103F2000000C990B9C01220F331FF901E558F74F44
:103F3000E4915AE04502D0011124AE58BC4F54E13F
:103F4000E502F00111241396FC93EE931297F90108
:103F5000E458F74FE491E502F00111241796FC9321
:103F6000EE931697FC01E55EF74FE4912091700304
:103F7000309171032E0F311DE7FD3A9511963C9358
:103F80002E93FC01ED5CF74FE49180916E039091CC
:103F90006F038E0F911DE7FD9A9515969C938E9356
:103FA000149719961C930E9318974F5F4093C20372
:103FB0000E940C0C84E00E94990A8823A1F083E0FF
:103FC00080936D0380E099E1909371038093700377
:103FD00080E89CE090936F0380936E030E94B80B7F
:103FE00081E08093C70380E80E94990A811105C08F
:103FF00080E10E94990A882331F080915703882339
:1040000071F00E940D0988E00E94990A882309F442
:10401000F4CC83E08093C703F0CC815059CF0E9449
:104020001209F1CF80916D03181614F00C949728A3
:1040300080916B0390916C0389389F4F0CF442C1BF
:104040008091580380FD4BC080E20E94A40A88231F
:1040500029F08091C50381508093C50380E40E94BC
:10406000A40A882329F08091C5038F5F8093C5033C
:104070008091C50388311CF088518093C5038091DD
:10408000C50387FF03C0885E8093C50380E80E9454
:10409000A40A882321F18091C503880F990BFC01A4
:1040A000E558F74FE4912091C3033091C4032E0FDC
:1040B000311DE7FD3A953093C4032093C303FC01FF
:1040C000E458F74FE49180915E0390915F038E0F67
:1040D000911DE7FD9A9590935F0380935E0380E1C5
:1040E0000E94990A8823D1F06CE271E080E090E0B0
:1040F0000E940C0663E070E080E090E00E94D10F27
:10410000623071058105910509F0B6C168EC70E077
:1041100080E090E00E940C060E94E60B80915E0316
:1041200090915F03181619062CF4019790935F0382
:1041300080935E0380915E0390915F0397FF05C0BB
:10414000019690935F0380935E038091C3039091E7
:10415000C403181619062CF401979093C403809396
:10416000C3038091C3039091C40397FF05C00196D8
:104170009093C4038093C3038091C3039091C403BD
:104180000496099720F41092C4031092C3038091FF
:104190005E0390915F030496099720F410925F03E9
:1041A00010925E0380915E0390915F038D32914087
:1041B00034F08CE291E090935F0380935E038091F2
:1041C0005E0390915F03843D9E4F34F484ED9EEF37
:1041D00090935F0380935E038091C3039091C40327
:1041E0008D32914034F08CE291E09093C40380933F
:1041F000C3038091C3039091C403843D9E4F34F464
:1042000084ED9EEF9093C4038093C3030E94DF0C60
:1042100084E00E94990A882309F452C04091C203A5
:1042200048300CF04DC08091C503082E000C990B4E
:104230009C01220F331FF901E558F74FE4911AE072
:104240004102D0011124AE58BC4F54E1E502F00107
:1042500011241396FC93EE931297F901E458F74F4B
:10426000E491E502F00111241796FC93EE93169762
:10427000FC01E55EF74FE4912091700330917103EA
:104280002E0F311DE7FD3A9511963C932E93FC01BC
:10429000ED5CF74FE49180916E0390916F038E0F68
:1042A000911DE7FD9A9515969C938E93149784E63D
:1042B00090E019969C938E9318974F5F4093C2039A
:1042C0000E940C0CE12CEAE0DE2E0E2D10E0809115
:1042D0006203082E000C990B081719070CF094C202
:1042E000C80173E0880F991F7A95E1F7FC01E95E38
:1042F000FC4F2081318142815381240F351F31834E
:1043000020832481358146815781240F351F3583D1
:104310002483208131812C304EEF340724F428513E
:104320003A4C31832083FC01E95EFC4F20813181CE
:10433000253F53E3350724F0285E3543318320833E
:10434000FC01E95EFC4F248135812C30AEEF3A0749
:1043500024F42851334E35832483FC01E95EFC4F5D
:1043600024813581253FBAE13B0724F0285E3C419A
:1043700035832483F12CFC01E95EFC4F4F013F01A2
:10438000F4E06F0E711C4F2D50E08091C203282F76
:10439000082E000C330BD401AD90BC90F30160816A
:1043A0007181421753070CF084C1D49EF001D59E51
:1043B000F00D1124EE58FC4F408151814A195B09E0
:1043C0000480F581E02DDF01A61BB70BBD01FA01CA
:1043D000EC50FE4FE93EF34030F4FB01EC50FE4F51
:1043E000E93EF34080F057FF03C0519541955109D4
:1043F00077FF03C0719561957109640F751F6C3B60
:1044000072400CF054C19F2DB90161507109A92E61
:10441000B12CA616B7060CF04CC0A5014F5F5F4F3C
:10442000D49ED001D59EB00D1124AE58BC4F4D91F5
:104430005C911197DA9CF001DB9CF00D1124EE5891
:10444000FC4F5183408312964D915C911397538397
:10445000428314964D915C9115975583448316962B
:104460004D915C9117975783468318964D915C91B7
:10447000518740879F5FCBCF10925F0310925E03FE
:104480001092C4031092C30360E072E380E090E0F6
:104490000E94D10F709371036093700360E079E123
:1044A00080E090E00E94D10F70936F0360936E03E1
:1044B00035CED29EF001D39EF00D1124EE58FC4F64
:1044C0001182108213821282158214821782168240
:1044D0001186108681508093C2036BE470E086E9F8
:1044E00090E00E94E2088091690390916A0302962D
:1044F00090936A0380936903E0916103B8E0EB0253
:10450000F0011124E956FD4FD4018D919C919183C6
:104510008083D3018D919C919583848364E670E0C0
:1045200080E090E00E94D10FE0916103B8E0EB02DF
:10453000F0011124E956FD4F625371098109910977
:104540007383628364E670E080E090E00E94D10FA4
:10455000E091610328E0E202F0011124E956FD4FE9
:1045600062537109810991097783668364E070E081
:1045700080E090E00E94D10FE0916103AE2F0E2EFB
:10458000000CBB0BA957BD4F6C93EF5FE093610329
:1045900038E0E302F0011124E956FD4FD4018D917A
:1045A0009C9191838083D3018D919C919583848389
:1045B00064E670E080E090E00E94D10FE09161033A
:1045C000B8E0EB02F0011124E956FD4F6253710986
:1045D000810991097383628364E670E080E090E072
:1045E0000E94D10FE091610328E0E202F001112462
:1045F000E956FD4F625371098109910977836683FA
:1046000064E070E080E090E00E94D10F809161034F
:10461000E82F082E000CFF0BE957FD4F60838F5FDA
:104620008093610340916203842F042E000C990B48
:1046300001975E2DE52FF0E0E817F907ACF55F0173
:104640003FEFA31AB30A950121583D4FD9016C9150
:104650009F0121583D4FD9016C93D50123E0AA0F4A
:10466000BB1F2A95E1F7A95EBC4F2D913C91119794
:1046700063E0EE0FFF1F6A95E1F7E95EFC4F3183BF
:10468000208312962D913C911397338322831496A5
:104690002D913C9115973583248316962D913C914D
:1046A000378326835F5FC6CF415040936203F39404
:1046B0006ACE072E000C880B990B0E94302D2AE041
:1046C00037ED43E25CE30E94BC2D2B013C01B501B8
:1046D000BB0C880B990B0E94302D2AE037ED43E28A
:1046E0005CE30E94BC2D4B015C01F801E158FD4FD9
:1046F0008081813009F452C094F4882381F1C30190
:10470000B2010E94F82C2B01C501B4010E94F82CC3
:10471000CB0125E045E0B2010E94B20A3DC08230E3
:1047200009F457C0833059F720E030E040E051E40D
:10473000C301B2010E948B2C0E94F82C2B0120E0B7
:1047400030E040E051E4C501B4010E948B2C0E948E
:10475000F82CCB0100E120E146E257E01AC020E04E
:1047600030E040E051E4C301B2010E948B2C0E9472
:10477000F82C2B0120E030E040E051E4C501B40109
:104780000E948B2C0E94F82CCB0100E120E146E82E
:1047900057E0B2010E94C004E39497CD20E030E0DE
:1047A00040E051E4C301B2010E948B2C0E94F82C1E
:1047B0002B0120E030E040E051E4C501B4010E944B
:1047C0008B2C0E94F82CCB0100E120E146E657E05B
:1047D000E0CF20E030E040E051E4C301B2010E94AC
:1047E0008B2C0E94F82C2B0120E030E040E051E4BB
:1047F000C501B4010E948B2C0E94F82CCB0100E172
:1048000020E146E457E0C5CFE12CEAE0DE2E0E2D94
:1048100010E080916103082E000C990B081719070E
:104820000CF076C2C80173E0880F991F7A95E1F702
:10483000FC01E956FD4F2081318142815381240FD3
:10484000351F318320832481358146815781240F90
:10485000351F35832483208131812C30BEEF3B0707
:1048600024F428513A4C31832083FC01E956FD4F52
:1048700020813181253F43E3340724F0285E35430E
:1048800031832083FC01E956FD4F248135812C3092
:104890005EEF350724F42851334E35832483FC0121
:1048A000E956FD4F24813581253FAAE13A0724F0DE
:1048B000285E3C4135832483F12CFC01E956FD4FF1
:1048C0004F013F01F4E06F0E711C4F2D50E08091BD
:1048D000C203282F082E000C330BD401AD90BC90DE
:1048E000F30160817181421753070CF066C1D49EB9
:1048F000F001D59EF00D1124EE58FC4F40815181FE
:104900004A195B090480F581E02DDF01A61BB70B76
:10491000BD01FA01E057FE4FE132F34030F4FB01F4
:10492000E057FE4FE132F34080F057FF03C051954E
:104930004195510977FF03C0719561957109640F25
:10494000751F683572400CF036C19F2DB90161505A
:104950007109A92EB12CA616B7067CF5A5014F5FEB
:104960005F4FD49ED001D59EB00D1124AE58BC4FE0
:104970004D915C911197DA9CF001DB9CF00D1124B4
:10498000EE58FC4F5183408312964D915C911397E2
:104990005383428314964D915C91159755834483BC
:1049A00016964D915C9117975783468318964D91B3
:1049B0005C91518740879F5FCCCFD29EF001D39E00
:1049C000F00D1124EE58FC4F1182108213821282D6
:1049D0001582148217821682118610868150809368
:1049E000C2036BE470E086E990E00E94E2088091E7
:1049F000690390916A03049690936A038093690314
:104A0000E0916003B8E0EB02F0011124E158FE4FA1
:104A1000D4018D919C9191838083D3018D919C9140
:104A20009583848364E670E080E090E00E94D10F7B
:104A3000E0916003B8E0EB02F0011124E158FE4F71
:104A400062537109810991097383628364E670E09E
:104A500080E090E00E94D10FE091600328E0E20244
:104A6000F0011124E158FE4F625371098109910947
:104A70007783668364E070E080E090E00E94D10F6D
:104A8000E0916003AE2F0E2E000CBB0BA15ABE4F5F
:104A90006C93EF5FE093600338E0E302F0011124D0
:104AA000E158FE4FD4018D919C9191838083D30175
:104AB0008D919C919583848364E670E080E090E022
:104AC0000E94D10FE0916003B8E0EB02F0011124E5
:104AD000E158FE4F62537109810991097383628322
:104AE00064E670E080E090E00E94D10FE091600306
:104AF00028E0E202F0011124E158FE4F62537109EF
:104B0000810991097783668364E070E080E090E03A
:104B10000E94D10F80916003E82F082E000CFF0B3C
:104B2000E15AFE4F60838F5F809360034091610381
:104B3000842F042E000C990B01975E2DE52FF0E0D9
:104B4000E817F907ACF55F013FEFA31AB30A950127
:104B500029573D4FD9016C919F0129573D4FD901EC
:104B60006C93D50123E0AA0FBB1F2A95E1F7A95644
:104B7000BD4F2D913C91119763E0EE0FFF1F6A9599
:104B8000E1F7E956FD4F3183208312962D913C9138
:104B900013973383228314962D913C911597358377
:104BA000248316962D913C91378326835F5FC6CF71
:104BB000415040936103F39488CE072E000C880B7C
:104BC000990B0E94302D2AE037ED43E25CE30E940E
:104BD000BC2D2B013C01B501BB0C880B990B0E942D
:104BE000302D2AE037ED43E25CE30E94BC2D4B01FF
:104BF0005C01F801E957FD4F8081813009F452C012
:104C000094F4882381F1C301B2010E94F82C2B0196
:104C1000C501B4010E94F82CCB0124E044E0B201AC
:104C20000E94B20A3DC0823009F457C0833059F760
:104C300020E030E040E850E4C301B2010E948B2C38
:104C40000E94F82C2B0120E030E040E850E4C50140
:104C5000B4010E948B2C0E94F82CCB0108E028E0C4
:104C600046E057E01AC020E030E040E850E4C301DD
:104C7000B2010E948B2C0E94F82C2B0120E030E026
:104C800040E850E4C501B4010E948B2C0E94F82C2E
:104C9000CB0108E028E04EE157E0B2010E94C004D9
:104CA000E394B5CD20E030E040E850E4C301B20128
:104CB0000E948B2C0E94F82C2B0120E030E040E871
:104CC00050E4C501B4010E948B2C0E94F82CCB014A
:104CD00008E028E046E157E0E0CF20E030E040E89F
:104CE00050E4C301B2010E948B2C0E94F82C2B01CE
:104CF00020E030E040E850E4C501B4010E948B2C74
:104D00000E94F82CCB0108E028E04EE057E0C5CF28
:104D1000D12CEAE0CE2EED2CF12C80916003082EF0
:104D2000000C990BE816F9060CF0B8C1870173E086
:104D3000000F111F7A95E1F7F801E158FE4F8081CD
:104D4000918122813381820F931F9183808384819B
:104D5000958126813781820F931F9583848380817B
:104D600091818C30BEEF9B0724F488519A4C91833B
:104D70008083F801E158FE4F80819181853F23E3D4
:104D8000920724F0885E954391838083F801E1586F
:104D9000FE4F848195818C303EEF930724F4885137
:104DA000934E95838483F801E158FE4F8481958169
:104DB000853F4AE1940724F0885E9C419583848373
:104DC000B12C01581E4F380154E0650E711C8B2D1B
:104DD00090E02091C203422F022E000C550BD80107
:104DE0004D905C90F30160817181841795070CF000
:104DF000AAC0C89EF001C99EF00D1124EE58FC4FC8
:104E0000808191818419950988539F4F8139914000
:104E100008F097C084819581861B970B88539F4F1C
:104E20008139914008F08DC03B2D41505109632FCD
:104E300070E06417750774F5CB010196C89ED00128
:104E4000C99EB00D1124AE58BC4F8D919C91119705
:104E5000C69EF001C79EF00D1124EE58FC4F9183C1
:104E6000808312968D919C911397938382831496DD
:104E70008D919C9115979583848316968D919C9125
:104E800017979783868318968D919C919187808739
:104E90003F5FCDCF21502093C2036BE470E086E9E1
:104EA00090E00E94E2088091690390916A0308965D
:104EB00090936A038093690340916003842F042ECA
:104EC000000C990B01975D2DE52FF0E0E817F9072D
:104ED000ACF54F01BFEF8B1A9B0A9401215A3E4F4C
:104EE000D9016C919F01215A3E4FD9016C93D40195
:104EF00023E0AA0FBB1F2A95E1F7A158BE4F2D91C1
:104F00003C91119763E0EE0FFF1F6A95E1F7E158BE
:104F1000FE4F3183208312962D913C91139733835A
:104F2000228314962D913C911597358324831696F0
:104F30002D913C91378326835F5FC6CF41504093CC
:104F40006003B39444CF072E000C880B990B0E948A
:104F5000302D2AE037ED43E25CE30E94BC2D4B018B
:104F60005C01B201550C880B990B0E94302D2AE090
:104F700037ED43E25CE30E94BC2D2B013C01F701BD
:104F8000E15AFE4F8081813009F452C094F48823A5
:104F900081F1C501B4010E94F82C4B01C301B2019B
:104FA0000E94F82CCB0122E042E0B4010E94B20A38
:104FB0003DC0823009F457C0833059F720E030E01B
:104FC00040E050E4C501B4010E948B2C0E94F82CF3
:104FD0004B0120E030E040E050E4C301B2010E9408
:104FE0008B2C0E94F82CCB0104E024E046EE56E026
:104FF0001AC020E030E040E050E4C501B4010E9456
:105000008B2C0E94F82C4B0120E030E040E050E473
:10501000C301B2010E948B2C0E94F82CCB0104E04A
:1050200024E04EEF56E0B4010E94C004D39473CE46
:1050300020E030E040E050E4C501B4010E948B2C38
:105040000E94F82C4B0120E030E040E050E4C30126
:10505000B2010E948B2C0E94F82CCB0104E024E0CA
:1050600046EF56E0E0CF20E030E040E050E4C501FC
:10507000B4010E948B2C0E94F82C4B0120E030E000
:1050800040E050E4C301B2010E948B2C0E94F82C36
:10509000CB0104E024E04EEE56E0C5CF0E94EB0FBA
:1050A00081E080930D0182E090E090935D03809316
:1050B0005C030AE010E010935B0300935A038091B5
:1050C000690390916A030E949D0F80E290E09093A3
:1050D0005D0380935C0310935B0300935A038091FC
:1050E0006803082E000C990B0E94A30F88E790E03C
:1050F00090935D0380935C0310935B0300935A03CA
:1051000080916D03082E000C990B0E94A30F8091D3
:105110006D03811102C00E94B80B88E00E94990AB9
:10512000882311F40C94FD1C84E00C940A2068EB95
:105130007BE080E090E00E940C060E94B80B82E0C9
:105140000C940A2014E6E12EF12C00E0BE016D5F04
:105150007F4FC7010E946C178B819C81019611F4CF
:105160001C821B82D02E2091690330916A038B81AF
:105170009C818217930708F091C180E280936503B8
:10518000809366038093670310E061E2B62E70E3BC
:10519000A72EE1E49E2EFFE28F2EAAE57A2EBFE332
:1051A0006B2E13300CF012C10E94830B8823C9F3BD
:1051B0000E94BD09E0E1F0E0F0935D03E0935C0341
:1051C00010925B0310925A038BED96E00E947E0AC8
:1051D00028E530E030935D0320935C0310925B037D
:1051E00010925A038091690390916A030E949D0F67
:1051F00048E350E050935D0340935C0330925B03BF
:1052000020925A03809165030E94790A80E490E01D
:1052100090935D0380935C0330925B0320925A036A
:10522000809166030E94790AA8E4B0E0B0935D0320
:10523000A0935C0330925B0320925A038091670332
:105240000E94790A2BE130E04EE350E06BE170E020
:1052500088E390E00E9439092BE130E046E450E019
:105260006BE170E080E490E00E9439092BE130E0CE
:105270004EE450E06BE170E088E490E00E94390970
:10528000812F012E000C990B079653E0880F991F70
:105290005A95E1F7AC014A5F5F4F2CE130E06CE1D9
:1052A00070E00E94390966E970E080E090E00E94B9
:1052B0000C0680E20E94990A882349F068EC70E0AD
:1052C00086E194E00E94E208115008F410E080E4C6
:1052D0000E94990A882351F01F5F133009F412E0ED
:1052E00068EC70E086E194E00E94E20880E10E94B0
:1052F000A40A882331F1812F012E000C990BFC01A7
:10530000EB59FC4F7F0180818F5F808366E970E0FD
:105310008BE092E00E94E208D7018C91803311F477
:1053200080E28C93F7018081813209F49082D70169
:105330008C918B3509F4AC92F7018081803409F4AB
:10534000B08280E80E94A40A882339F1812F012EBF
:10535000000C990B9C012B593C4F7901D9018C9180
:1053600081508C9366E970E08BE092E00E94E20845
:10537000F7018081803209F46082D7018C918F32ED
:1053800009F47C92F70180818F3109F48082D70182
:105390008C91803411F480E28C9388E00E94A40AFE
:1053A000882349F0123039F468EC70E086E194E02B
:1053B0000E94E20813E080915E0180935D010E94EB
:1053C000050980935E010E94AF0AEBCEB5E00B9F0A
:1053D000800111240A591F4F4801E2E08E1A9108FA
:1053E000BE016D5F7F4FC4010E946C178B819C8151
:1053F000019611F41C821B82C8010E946A17582E64
:1054000058012FEFA21AB20AC5010E946A17682E2E
:10541000780132E0E30EF11CC7010E946A17782E72
:105420009A82898260916903CE0101960E94511788
:10543000C80101979A83898360916A03CE0101961E
:105440000E94511760916503C8010E941A2C609157
:105450006603C5010E941A2C60916703C7010E9470
:105460001A2C8B819C8190936A03809369035092DC
:1054700065036092660370926703D3940B5F1F4FBE
:1054800047E0D412A9CF80E280936503809366033E
:10549000809367030E94D10B0C94FD1C55E0E50E30
:1054A000F11C0F5F073009F051CEF4CF80E290E09D
:1054B00090935D0380935C0310925B0310925A03F8
:1054C00081E080930D014BE050E067E371E08FE3F2
:1054D00098E00E94F30639E0A32EB12C04E610E018
:1054E000F12CE12C4EE1842E912C69E673E0C80189
:1054F0000E946C178091690390916A03019621F4D0
:1055000010926A0310926903C80102960E946A17FA
:1055100080936503C80103960E946A17809366030F
:10552000C80104960E946A178093670390925D03F6
:1055300080925C03B0925B03A0925A03BFEFEB1A18
:10554000FB0AC7010E94A30F89EE97E00E947E0A22
:10555000809165030E94790A809166030E94790A0E
:10556000809167030E94790A87EE97E00E947E0A85
:105570008091690390916A030E949D0F10926A03C3
:10558000109269030B5F1F4FE8E0AE0EB11CF7E00D
:10559000EF16F10409F0A9CF88E00E94990A811161
:1055A0001092C70380E20E94990A882319F085E0CF
:1055B0008093C70380915803909159036FE070E086
:1055C0000E94292E892B79F40E943F069C0150E00D
:1055D00040E060E070E381E190E00E94282C30938D
:1055E00064032093630384E690E090935D038093CB
:1055F0005C0382E390E090935B0380935A03809175
:105600006303909164030E949D0F0C94FD1C80E243
:1056100090E090935D0380935C038EE190E0909323
:105620005B0380935A0382E080930D0181EE97E043
:105630000E947E0A84E00E94990A882319F081E082
:105640008093C70388E00E94990A81110E94D10BC0
:1056500080E80E94990A811105C080E10E94990AA0
:10566000882381F0809157038823A9F10E940D09B6
:105670006091570382E090E09A838983CE0101967E
:105680000E945117809158039091590364E170E092
:105690000E94292E892B79F40E943F069C0150E03C
:1056A00040E060E070E381E190E00E94282C3093BC
:1056B00064032093630384E690E090935D038093FA
:1056C0005C0382E390E090935B0380935A0381E054
:1056D00080930D0194CF0E941209CACF8F929F929E
:1056E000AF92BF92CF92DF92EF92FF92CF93DF9370
:1056F000EC01688179818A819B8161157105810541
:10570000910521F464E279ED8BE597E02DE133EF2B
:1057100041E050E00E94282C49015A019B01AC0154
:10572000A7EAB1E40E94472C6B017C01ACEEB4EF18
:10573000A50194010E94552CC60ED71EE81EF91E25
:10574000F7FE06C081E0C81AD108E10880E8F80A2F
:10575000C882D982EA82FB82C701B6019F77DF91B6
:10576000CF91FF90EF90DF90CF90BF90AF909F9040
:105770008F9008958F929F92AF92BF92CF92DF92B7
:10578000EF92FF9260910E0170910F0180911001D4
:1057900090911101611571058105910521F464E273
:1057A00079ED8BE597E02DE133EF41E050E00E9489
:1057B000282C49015A019B01AC01A7EAB1E40E94DF
:1057C000472C6B017C01ACEEB4EFA50194010E9463
:1057D000552CC60ED71EE81EF91EF7FE06C081E046
:1057E000C81AD108E10880E8F80AC0920E01D092E8
:1057F0000F01E0921001F0921101C701B6019F77ED
:10580000FF90EF90DF90CF90BF90AF909F908F90E0
:10581000089560930E0170930F018093100190938F
:1058200011010895F999FECF92BD81BDF89A99278B
:1058300080B50895262FF999FECF1FBA92BD81BD7C
:1058400020BD0FB6F894FA9AF99A0FBE0196089502
:10585000052E97FB1EF400940E943F2C57FD07D0A5
:105860000E945A2C07FC03D04EF40C943F2C509508
:105870004095309521953F4F4F4F5F4F089590953C
:105880008095709561957F4F8F4F9F4F08950E942F
:105890007C2CA59F900DB49F900DA49F800D911D11
:1058A00011240895B7FF0C94472C0E94472C821BAB
:1058B000930B0895A1E21A2EAA1BBB1BFD010DC07C
:1058C000AA1FBB1FEE1FFF1FA217B307E407F507B0
:1058D00020F0A21BB30BE40BF50B661F771F881F8C
:1058E000991F1A9469F760957095809590959B0122
:1058F000AC01BD01CF010895A29FB001B39FC001CB
:10590000A39F700D811D1124911DB29F700D811DEB
:105910001124911D08955058BB27AA270E94A32C3B
:105920000C94822D0E94742D38F00E947B2D20F063
:1059300039F49F3F19F426F40C94712D0EF4E09580
:10594000E7FB0C946B2DE92F0E94932D58F3BA17A7
:10595000620773078407950720F079F4A6F50C9485
:10596000B52D0EF4E0950B2EBA2FA02D0B01B90129
:1059700090010C01CA01A0011124FF27591B99F0C5
:10598000593F50F4503E68F11A16F040A22F232FD1
:10599000342F4427585FF3CF469537952795A79521
:1059A000F0405395C9F77EF41F16BA0B620B730BC8
:1059B000840BBAF09150A1F0FF0FBB1F661F771F39
:1059C000881FC2F70EC0BA0F621F731F841F48F4EE
:1059D000879577956795B795F7959E3F08F0B0CF77
:1059E0009395880F08F09927EE0F9795879508955E
:1059F0000E94FF2C6894B1110C94B62D08950E945A
:105A00009B2D88F09F5798F0B92F9927B751B0F088
:105A1000E1F0660F771F881F991F1AF0BA95C9F732
:105A200014C0B13091F00E94B52DB1E008950C94EE
:105A3000B52D672F782F8827B85F39F0B93FCCF3A1
:105A4000869577956795B395D9F73EF490958095AF
:105A5000709561957F4F8F4F9F4F0895E89409C0CF
:105A600097FB3EF490958095709561957F4F8F4F91
:105A70009F4F9923A9F0F92F96E9BB279395F695A7
:105A8000879577956795B795F111F8CFFAF4BB0F25
:105A900011F460FF1BC06F5F7F4F8F4F9F4F16C089
:105AA000882311F096E911C0772321F09EE8872F13
:105AB000762F05C0662371F096E8862F70E060E0CF
:105AC0002AF09A95660F771F881FDAF7880F969548
:105AD000879597F9089597F99F6780E870E060E0EF
