:100000000C9441080C9469080C9469080C946908D4
:100010000C9469080C9469080C9469080C9469089C
:100020000C9469080C9469080C94930F0C940210BA
:100030000C9469080C9469080C9469080C9469087C
:100040000C9469080C9469080C9469080C9469086C
:100050000C9469080C9469080C9469080C94341287
:100060000C9469080C9469080C9469080C9469084C
:100070000C9469080C9469080C9469080C9469083C
:100080000C947E120C9469080C9469080C9469080D
:100090000C9469080C9469080C9469080C9469081C
:1000A0000C9469080C9469080C94690803081F05EE
:1000B0001F1F151B1F11111F110E1F15111F0501E9
:1000C0001F111D1F041F001F0010101F1F041B1FE6
:1000D00010101F061F1F011F1F111F1F05071F31B3
:1000E0001F1F051B17151D011F011F101F0F100FCC
:1000F0001F0C1F1B041B071C071915130C121E1FB6
:10010000120C1E12120C121F0C1A14041F052E2A98
:100110001E1F021C001D00201D001F041A011F00CD
:100120001E041E1E021E1E121E3E120C0C123E1E2D
:10013000020614120A020F121E101E0E100E1E08C6
:100140001E1A041A2E281E1A12161F111F001F0035
:100150001D151711151F07041F17151D1F151D014C
:10016000011F1F151F17151F0017000010000005A5
:100170000000000000003E5B4F5B3E3E6B4F6B3E5D
:100180001C3E7C3E1C183C7E3C181C577D571C1C9A
:100190005E7F5E1C00183C1800FFE7C3E7FF0018F5
:1001A000241800FFE7DBE7FF30483A060E262979DE
:1001B0002926407F050507407F05253F5A3CE73C3F
:1001C0005A7F3E1C1C08081C1C3E7F14227F2214F0
:1001D0005F5F005F5F06097F017F006689956A6047
:1001E0006060606094A2FFA29408047E040810205E
:1001F0007E201008082A1C08081C2A08081E101057
:1002000010100C1E0C1E0C30383E3830060E3E0E00
:1002100006000000000000005F000000070007006B
:10022000147F147F14242A7F2A1223130864623651
:10023000495620500008070300001C2241000041DD
:10024000221C002A1C7F1C2A08083E080800807017
:10025000300008080808080000606000201008044A
:10026000023E5149453E00427F400072494949469D
:100270002141494D331814127F1027454545393C1B
:100280004A49493141211109073649494936464908
:1002900049291E000014000000403400000008142A
:1002A00022411414141414004122140802015909A3
:1002B000063E415D594E7C1211127C7F49494936F8
:1002C0003E414141227F4141413E7F494949417F71
:1002D000090909013E414151737F0808087F004127
:1002E0007F41002040413F017F081422417F404070
:1002F00040407F021C027F7F0408107F3E41414145
:100300003E7F090909063E4151215E7F09192946B0
:10031000264949493203017F01033F4040403F1FC6
:100320002040201F3F4038403F63140814630304FB
:100330007804036159494D43007F4141410204085B
:100340001020004141417F0402010204404040402E
:1003500040000307080020545478407F2844443864
:100360003844444428384444287F385454541800AE
:10037000087E090218A4A49C787F0804047800442D
:100380007D40002040403D007F1028440000417F18
:1003900040007C047804787C0804047838444444A1
:1003A00038FC1824241818242418FC7C0804040899
:1003B000485454542404043F44243C4040207C1CB2
:1003C0002040201C3C4030403C44281028444C90A5
:1003D00090907C4464544C440008364100000077FF
:1003E0000000004136080002010204023C262326D8
:1003F0003C1EA1A161123A4040207A38545455590C
:100400002155557941215454784121555478402043
:10041000545579400C1E527212395555555939545C
:1004200054545939555454580000457C41000245F4
:100430007D420001457C40F0292429F0F028252840
:10044000F07C545545002054547C547C0A097F4963
:1004500032494949323248484832324A4848303AAB
:100460004141217A3A42402078009DA0A07D394444
:100470004444393D4040403D3C24FF2424487E49CB
:1004800043662B2FFC2F2BFF0929F620C0887E09FD
:100490000320545479410000447D413048484A3299
:1004A000384040227A007A0A0A727D0D19317D2681
:1004B00029292F28262929292630484D4020380867
:1004C00008080808080808382F10C8ACBA2F1028E8
:1004D00034FA00007B000008142A142222142A1483
:1004E000089500220095AA005500AAAA55AA55AA67
:1004F000000000FF00101010FF00141414FF001083
:1005000010FF00FF1010F010F0141414FC0014146D
:10051000F700FF0000FF00FF1414F404FC1414178C
:10052000101F10101F101F1414141F00101010F0B3
:10053000000000001F101010101F10101010F010FD
:10054000000000FF101010101010101010FF10000D
:100550000000FF140000FF00FF00001F1017000044
:10056000FC04F414141710171414F404F40000FF1E
:1005700000F714141414141414F700F714141417B7
:100580001410101F101F141414F4141010F010F095
:1005900000001F101F0000001F14000000FC1400CA
:1005A00000F010F01010FF10FF141414FF141010BE
:1005B000101F00000000F010FFFFFFFFFFF0F0F041
:1005C000F0F0FFFFFF0000000000FFFF0F0F0F0F14
:1005D0000F38444438447C2A2A3E147E0202060620
:1005E000027E027E0263554941633844443C044024
:1005F0007E201E2006027E020299A5E7A5991C2AEC
:10060000492A1C4C7201724C304A4D4D30304878AA
:100610004830BC625A463D3E494949007E010101CD
:100620007E2A2A2A2A2A44445F444440514A4440AC
:1006300040444A51400000FF0103E080FF000008F1
:10064000086B6B083612362436060F090F060000B9
:1006500018180000001010003040FF0101001F01B9
:10066000011E00191D1712003C3C3C3C000000001C
:1006700000F0F89C8E8783878E9CF8F00000FEFFC8
:100680000303030303070EFCF80000FEFF0303034C
:100690000303070EFCF80000FFFF0000000000004D
:1006A00000FFFF0000FEFF8383838383C7EE7C3857
:1006B0000000F8FC0E07030303070EFCF800003FE0
:1006C0007FE0C08080C0E07F3FFFFF0101010101AA
:1006D0000101FFFF0000FFFF0C0C0C0C1C3E77E338
:1006E000C100007FFFC0C0C0C0C0E0703F1F00005D
:1006F0001F3F70E0C0C0C0E0703F1F00007FFFC11F
:10070000C1C1C1C1E3773E1C00001F3F70E0C0C003
:10071000C0E0703F1F000000000001FFFF0100006B
:1007200000D5F08D14A1C881CFD9F1AF2000080801
:100730003CFF42FF8DFFA1FF8DFF42FF3CFF00FF0A
:1007400030FF48FF94FF84FF84FF94FF48FF30FF91
:100750007810C0F0F0FCFEFE0E0EFCFC0000000065
:10076000E0E0F030303030F0F0F0C0000000C0C009
:10077000F0F0C0C000C0C0F0C0C00000E0E0F0F089
:10078000F0F0F0E0E0C00000000000000000000019
:10079000000000000000C0F0F0FC3C3C3CFCF0F02D
:1007A00000000000E0F0F0E000000000F0F0E000E9
:1007B0000000E0F0F0F0F0F0F0E0C0C0000000C099
:1007C000E0E0F0303030F0E0E0C01FFFFFFFFFFF5F
:1007D000809071710000001F7F7FFF70181870FFFC
:1007E000FFFF7F0000001F1FFF7F0F0F1E0F0FFF77
:1007F0007F7F00007F7FFF99999989616161000087
:1008000000000000000000000000000000001FFFCA
:10081000FFFF808080FF7F7F1F000000071F1FFFFA
:10082000F8F8F0781F1F0F0000007FFFFF999999DB
:10083000896161610000007FFFFFFF1818187EEFDB
:10084000EF87190800FF0CFF1EFF3EFF7CFF3EFFF5
:100850001EFF0CFF00FF18FF3CFF7CFFF8FF7CFF32
:100860003CFF18FF00FF0CFF1EFF3EFF7CFF3EFF1A
:100870001EFF0CFF00FF00FF18FF3CFF7CFFF8FF8E
:100880007CFF3CFF18FF00FF0CFF1EFF3EFF7CFFBC
:100890003EFF1EFF0CFF00FF18FF3CFF7CFFF8FF30
:1008A0007CFF3CFF18FF00FF080800FF17FFF9FF5F
:1008B0007FFF7FFF79FF17FF20FF20FF17FF79FFE2
:1008C0007FFF7FFFF9FF17FF00FF00FF17FFFFFF0C
:1008D00047FF47FF7FFF17FF20FF20FF17FF7FFF26
:1008E00047FF47FFFFFF17FF00FF60100000C0C079
:1008F000C0C000C0C0C0C000C0C00000000000C038
:10090000C0000000C0C00000000000000000C020C7
:1009100090D09020C00000000000C0C0C0C0C0C087
:1009200000C0C0C0C000000000000000C0C0000047
:1009300000C0C0C0C0C0C0000000C0C0000000C0F7
:10094000C0C0C000C0C0C0C0C0C0000000000F0FC9
:100950000303000F0F0000000F0F0F0F0C0C000C13
:100960000C0F0F000C0C0F0F00000000000003061E
:100970000D0C0D0603000000000000000F0F00002A
:10098000000F0F0C0C0F0F00000000000C0C0F0FDD
:100990000000000F0F0000000F0F03030F0F000FE8
:1009A0000F00000000000F0F000000000000C0C09A
:1009B000C0C000C0C0C0C000C0C00000000000C077
:1009C000C0000000C0C00000000000000000E010F7
:1009D000C868C810E00000000000C0C0C0C0C0C0AF
:1009E00000C0C0C0C000000000000000C0C0000087
:1009F00000C0C0C0C0C0C0000000C0C0000000C037
:100A0000C0C0C000C0C0C0C0C0C0000000000F0F08
:100A10000303000F0F0000000F0F0F0F0C0C000C52
:100A20000C0F0F000C0C0F0F00000000000003055E
:100A30000A0A0A0503000000000000000F0F000072
:100A4000000F0F0C0C0F0F00000000000C0C0F0F1C
:100A50000000000F0F0000000F0F03030F0F000F27
:100A60000F00000000000F0F0000000060280000D1
:100A7000C0E0F03030E0000000C0E0E0E0E0C000A6
:100A8000000000C0E0E0E0E0C000000000C0E0E0E6
:100A9000E0E0E0C0000000E0E0C0000080C0C0C0B6
:100AA000C08000000080C0C0C0C0C0C08000000086
:100AB0000000000000000000000000000000000036
:100AC0000000000000000000000000000000001F07
:100AD0007F7F7F40403300001F7F7F40407F3F1E6D
:100AE00000001F7F7F40407F3F1E0000072F073F11
:100AF0007F7F071F0700003F7F7F00003F7F5B5B1A
:100B00004B2323000037776742667E7C3900000064
:100B100000000000000000000000000000000000D5
:100B200000000000000000000000000000000000C5
:100B300000000000000400000000000000000000B1
:100B400000000000000000000000000000000000A5
:100B50000080C0C0C0C0C0C00000000080C0C0C0D5
:100B6000C0C0800000000080C0C0C0C0C0800000C5
:100B7000000080C0C0C0C0C0C0000000000080C035
:100B8000C0C080000000C0C0800000C08000000025
:100B90000000000000000000000000000000000055
:100BA0000000000000000000000000000000000045
:100BB0003E7FFF301830FFFF7F00000E0F0F7FFFDA
:100BC000FF0F0F0E00000E0F0F7FFFFF0F0F0E0025
:100BD000003E7FFF301830FFFF7F00003CFFFFFF2B
:100BE00080806700007FFFFF7F1C3FF763000000ED
:100BF00000000000000000000000000000000000F5
:100C000000000000000000000000000000000000E4
:100C100001000000000000000000000000000000D3
:100C200000000000000000000000000000000000C4
:100C300000000000000000000000000000000300B1
:100C400000000000000000000000000000000000A4
:100C5000C0E0F03030E0000000C0E0E0E0E0C000C4
:100C6000000000C0E0E0E0E0C000000000C0E0E004
:100C7000E0E0E0C0000000E0E0C0000080C0C0C0D4
:100C8000C08000000080C0C0C0C0C0C080000000A4
:100C90000000000000000000000000000000000054
:100CA0000000000000000000000000000000001F25
:100CB0007FFF7F4040B300001F7F7F40407F3F1E8B
:100CC00000001F7F7F40407F3F1E00000787073FD7
:100CD0007F7F07872700003F7F7F00003F7F5B5BB0
:100CE0004B2323000037776742667E7C3900000083
:100CF00000000000000000000000000000000000F4
:100D000000000000000000000000000000000000E3
:100D100000010000000000000000000000000000D2
:100D200000000000000000000000000000040000BF
:100D300010A0C0C1C0C0C0C00000000080C0C0C0C2
:100D4000C0C0800000000080C0C0C0C0C0800000E3
:100D5000000080C0C0C0C0C0C0000000000080C053
:100D6000C0C080000000C0C0800000C08000000043
:100D70000000000000000000000000000000000073
:100D80000000000000000000000000000000000063
:100D90003E7FFF301830FFFF7F00000E0F0F7FFFF8
:100DA000FF0F0F0E00000E0F0F7FFFFF0F0F0E0043
:100DB000003E7FFF301830FFFF7F00003CFFFFFF49
:100DC00080806700007FFFFF7F1C3FF7630000000B
:100DD0000000000000000000000000000000000013
:100DE0000000000000000000000000000000000003
:100DF00010000200000000020400000000000000DB
:100E000000000000000000000000000000000000E2
:100E100000000000000000000000000000001800BA
:100E200000000100000000000000000000000000C1
:100E3000C0E0F03030E0000000C0E0E0E0E0C000E2
:100E4000000000C0E0E0E0E0C000000000C0E0E022
:100E5000E0E0E0C0000000E0E0C0000080C0C0C0F2
:100E6000C08000000080C0C0C0C0C0C080000000C2
:100E70000000000000000000000000000000000072
:100E80000000000000000000000000000000001F43
:100E90007F7F7F40403300001F7F7F40407F3F1EA9
:100EA00000001F7F7F40407F3F1E0000072F073F4D
:100EB0007F7F07070700003F7F7F00003F7F5B5B6E
:100EC0004B2323000037776742667E7C39000000A1
:100ED0000000000000000000000000000000000012
:100EE0000000000000000000000000000000000002
:100EF000006000000008000000000000000000008A
:100F000000000000000000000000000000000002DF
:100F10000180C0F0C0C0C0C00000000080C0C0C0E0
:100F2000C0C0800000000080C0C0C0C0C080000001
:100F3000000080C0C0C0C0C0C0000000000080C071
:100F4000C0C080000000C0C0800000C08000000061
:100F50000000000000000000000000000000000091
:100F60000000000000000000000000000000000081
:100F70003E7FFF301830FFFF7F00000E0F0F7FFF16
:100F8000FF0F0F0E00000E0F0F7FFFFF0F0F0E0061
:100F9000003E7FFF301830FFFF7F00003CFFFFFF67
:100FA00080806700007FFFFF7F1C3FF76300000029
:100FB0000000000000000000000000000000000031
:100FC0000000000000000000000000000000000021
:100FD00001000400000000100000000000000000FC
:100FE0000000000000000000000000000000000001
:100FF00000000000000000000000000000000000F1
:101000000000080000000000000000000000080BC5
:1010100000020202000009040000010202000005B3
:101020002400100105240101010424020605240600
:1010300000010705810310004009040100020A00B5
:10104000000007050202400000070583024000007F
:101050000403090412010002EF020140412337801A
:1010600000010102030141726475696E6F204C4CEE
:10107000430041726475696E6F204D6963726F0041
:10108000121311241FBECFEFDAE0DEBFCDBF12E096
:10109000A0E0B1E0E2E0F6E302C005900D92AC31D1
:1010A000B107D9F727E0ACE1B2E001C01D92AF3340
:1010B000B207E1F718E0C1E4D8E004C02197FE01CF
:1010C0000E94F91AC034D107C9F70E947F130C940B
:1010D000FF1A0C9400008091250208956F927F9270
:1010E0008F929F92AF92BF92CF92DF92EF92FF9238
:1010F0000F931F93CF93DF93DC01FA011491319684
:1011000054913196C12FD0E0222309F1CC24C3940D
:10111000D12C852F877011F4D12CC12CE52EE694AB
:10112000E694E694EC0CFD2CF11CEC9EC001ED9EC7
:10113000900DFC9E900D1124033011F4880F991F1F
:10114000289F7001299FF00C1124EE0DFF1D7D01D9
:10115000EC0EFD1E1E141F040CF06BC0A038B10570
:101160000CF067C0CB01850F911D181619060CF005
:1011700060C0603471050CF05CC0309709F459C050
:10118000362F3770CB0177FD079623E0959587952D
:101190002A95E1F7282F77FF04C0332311F02FEFB2
:1011A000280F662777276A1B7B0BB7FD02C070E00C
:1011B00060E090E89A1B40E8E416F1040CF4912FEB
:1011C000961BE22E022E000CFF08DE2CD0942F3F3F
:1011D0000CF0D12C41E0852F877009F440E0B52E4A
:1011E000B694B694B6944B0DE40EF11C89E0E81663
:1011F000F10414F048E0421BB42EBD182D0D40E858
:10120000240370011124AE0DBF1DA60FB71F1D9D35
:10121000600D711D1124AF01460F571FC32E032E01
:10122000000CDD08033009F4C7C090F4023009F463
:1012300074C0DF91CF911F910F91FF90EF90DF90DD
:10124000CF90BF90AF909F908F907F906F900895B8
:101250000A3FA1F1B20E0B3F61F72B1551F3BD010F
:1012600062587D4F10E000E0091708F09FC0FA01B6
:10127000E00FF11FE491F0E04F010C2C02C0880C4C
:10128000991C0A94E2F727FD06C0FB018081F82C27
:10129000F0948F218083332361F0273054F47B0155
:1012A000F0E8EF0EF11CA92CA094F70180818A21AF
:1012B00080830F5F1F4F6F5F7F4FD6CFB20E2B150E
:1012C00009F4B7CFBD0162587D4F10E000E0091767
:1012D00008F066C0FA01E00FF11FE491F0E04F0161
:1012E0000C2C02C0880C991C0A94E2F727FD04C05C
:1012F000FB01808188298083332351F0273044F417
:101300007B01F0E8EF0EF11CF701808189298083D1
:101310000F5F1F4F6F5F7F4FDACF6FEF70E0032ECD
:1013200002C0660F771F0A94E2F760957095972EBA
:101330008B2C820E281509F47CCF8D0102581D4F8D
:10134000F12CE12CE91630F5FA01EE0DFF1DE491C8
:10135000F0E03F010C2C02C0660C771C0A94E2F707
:1013600027FD05C0F80180818623862980833323E9
:1013700059F027304CF45801F0E8AF0EB11CF501DC
:101380008081892187298083FFEFEF1AFF0A0F5F91
:101390001F4FD8CF2F5F4C0F5D1FA058BF4FCACF34
:1013A0002F5F4C0F5D1FA058BF4F89CF2F5F4C0F91
:1013B0005D1FA058BF4F51CFE92EF12CFA01E60F67
:1013C000F71FA258BD4F60E870E06E197F09CE1973
:1013D000DF098E01000F111F41E050E07A01032E5A
:1013E00001C0EE0C0A94EAF7592F4B2D892E932E4B
:1013F000CF93DF93ED01EF96EF962296A590C590DF
:10140000992059F0AE9C5001CE9C600127302CF4FD
:10141000F880D094FD20FB28F99222233AF0FC902A
:10142000C094FC20FA28FD920C94170A11965A9544
:1014300029F74A9551F0582D23951124E00FF11DFD
:10144000A60FB11DC60FD11DD9CFDF91CF911124A9
:10145000F0CE80E0EEE7F2E081118FEF002481937F
:101460008193819381930394D1F70895EEE7F2E09D
:10147000A0E0B8E000800EBC8111012C1197A0FD06
:10148000FDCF0192B9F70DB40895FC0180917D0262
:10149000882311F13FB7F89482E08093E90020910E
:1014A000F200822F90E01816190614F481E090E003
:1014B000882339F0289A44E640937C024091F10059
:1014C0004083222339F02091F200211103C02BE642
:1014D0002093E8003FBF08958FEF9FEF08952FB747
:1014E000F89483E08093E9009091E800892F80725E
:1014F00095FF04C09091F20080E4891B2FBF0895EE
:101500008091740281110DC082E08093700284E0AA
:1015100080937102109273021092720281E08093A4
:10152000740280E792E00895CF93DF931F92CDB7C6
:10153000DEB76983DC01ED91FC910280F381E02D3F
:1015400041E050E0BE016F5F7F4F09950F90DF9142
:10155000CF91089583E08093E9008091F200882381
:1015600019F08AE38093E80008950E946F0A90E0E2
:101570000895CF93DF931F92CDB7DEB7FC0184852A
:10158000958597FD08C02FEF3FEF358724870F9093
:10159000DF91CF910895CE0101960E94450A0197EF
:1015A00019F4898190E0F3CF8FEF9FEFF0CF0F9385
:1015B0001F93CF93DF931F92CDB7DEB78C01FC0151
:1015C0008485958597FF0BC0CE0101960E94450A40
:1015D000019771F4898190E0F80195878487F8017B
:1015E000848595850F90DF91CF911F910F9108957C
:1015F0008FEF9FEFF1CFFC018485958597FD0BC0A0
:101600009FB7F89482E08093E9008091F2009FBF39
:1016100090E0019608959FB7F89482E08093E900E6
:101620008091F2009FBF90E0089540916A0250912E
:101630006B02209168023091690242175307B4F49B
:101640009091E8009570E1F39091E80092FD19C047
:101650008093F10080916A0290916B0201968F73E2
:101660009927892B19F48EEF8093E80080916A0204
:1016700090916B02019690936B0280936A0281E0D5
:10168000089580E00895DF92EF92FF920F931F93E9
:10169000CF93DF93D82E8A01EB017B01E40EF51E78
:1016A000CE15DF0559F0D7FE12C0FE0184910E94CD
:1016B000150B21968111F4CF0FEF1FEFC801DF91B9
:1016C000CF911F910F91FF90EF90DF900895888147
:1016D000EECF0F931F93CF93DF931F92CDB7DEB75B
:1016E00082E0898342E450E06EE070E180E80E948D
:1016F000430B0E94800ADC0112960D911C9101158A
:10170000110589F0D801ED91FC910280F381E02D63
:10171000BE016F5F7F4FC801099597FD04C0F801B6
:1017200000851185ECCF89810F90DF91CF911F91BA
:101730000F910895615030F02091F100FC01208359
:101740000196F8CF289A84E680937C0208953FB7EB
:10175000F8948091640290916502A0916602B09124
:10176000670226B5A89B05C02F3F19F00196A11D61
:10177000B11D3FBFBA2FA92F982F8827BC01CD01DB
:10178000620F711D811D911D42E0660F771F881F3A
:10179000991F4A95D1F708958F929F92AF92BF9269
:1017A000CF92DF92EF92FF926B017C010E94A70B18
:1017B0004B015C01C114D104E104F104B9F00E94B1
:1017C000A70B681979098A099B09683E734081054E
:1017D000910580F321E0C21AD108E108F10888EEF2
:1017E000880E83E0981EA11CB11CE4CFFF90EF90FF
:1017F000DF90CF90BF90AF909F908F9008958F9281
:101800009F92AF92BF92CF92DF92EF92FF920F938F
:101810001F93CF93DF936C017B018A0180910D01AF
:10182000882309F45CC080917D02882309F457C0A5
:1018300080916F0280FF05C08091E00082608093FC
:10184000E000E801B12C8AEFA82E93E0892E2AE36C
:10185000922E209711F4BB20D9F10E946F0A8111BA
:101860000AC0AA94AA20D9F161E070E080E090E07B
:101870000E94CC0BEECF8C171D0611F00CF08C2FB4
:101880009FB7F8948092E9002091E80025FD02C0FE
:101890009FBFDFCF282F30E0C21BD30BF701815051
:1018A00020F041914093F100FACFE20EF31EBB20ED
:1018B00021F09092E800B12CEBCF8091E80085FDFB
:1018C000E7CF9092E800BB24B394209709F3F3CFBD
:1018D0005D9A84E680936E02101611063CF081E05A
:1018E00090E0F6019383828310E000E0C801DF916D
:1018F000CF911F910F91FF90EF90DF90CF90BF900D
:10190000AF909F908F900895AF92BF92CF92DF9249
:10191000EF92FF920F931F93CF93DF936C017B01A4
:101920008B01040F151FEB015E01AE18BF08C01735
:10193000D10759F06991D601ED91FC910190F081A8
:10194000E02DC6010995892B79F7C501DF91CF916B
:101950001F910F91FF90EF90DF90CF90BF90AF90CD
:10196000089520918206E0918006F0918106CF01D2
:1019700002969093810680938006222319F0859128
:1019800094910895808191810895CF92DF92EF9292
:10199000FF92CF93DF930E94B10C811520E892074C
:1019A00091F4809171008D7F80937100109291006D
:1019B0004698479810921E02DF91CF91FF90EF90CA
:1019C000DF90CF90089521E020931E02813020E81F
:1019D000920751F480917E0690917F069093810644
:1019E000809380060E94B10C97FD05C020911D02D6
:1019F000222309F454C020911C02211150C021E07F
:101A000020931F02EC01DF77209709F04BC081E0A3
:101A10008093200246983FE9C32E3FE0D32EE12C6D
:101A2000F12CCAEFD0E0E091E106F091E2060995D1
:101A3000811103C081E08093200280911F028823DE
:101A400029F080912002882309F43FC047980E9422
:101A5000B10C0097F1F19C01DE010E94D61ADC0165
:101A6000CB0129E0B595A795979587952A95D1F74C
:101A7000109290002AE020939100D0929900C09299
:101A800098008093210290932202A0932302B093A6
:101A90002402809171008260809371008DCF10923A
:101AA0001F02B0CF9E0150E040E060E472E48FE09E
:101AB00090E00E94821A69017A0181E0C81AD10877
:101AC000E108F10810922002AECF4699BFCF479AA5
:101AD000BECF8FEF9FEFDC01CBCF9C01E1E7F0E0C1
:101AE00090819D7F908310928206E3EDF6E0F09363
:101AF0008106E0938006F0937F06E0937E063183B3
:101B000020838AE090E09383828380E090E895834D
:101B100084830C94C50C0F9302E00E946E080F9111
:101B200008952D9A0895BC0190E080E00C94CC0BB0
:101B30008FB18095807F669B88601C9B8460089530
:101B40005C988EBD00000DB407FEFDCF5C9A089531
:101B500020E191E061FD94E060FD990F62FD9295B6
:101B6000687F269FD0011124A80FA258BD4F8C91E9
:101B700040FF03C0892B8C93089590958923FBCF58
:101B80008F929F92AF92BF92CF92DF92EF92FF928D
:101B90000F931F93CF93DF936D3089F0C090540261
:101BA000D09055026A30D1F4109253021092520232
:101BB00088E0C80ED11CD0925502C092540281E038
:101BC00090E0DF91CF911F910F91FF90EF90DF9008
:101BD000CF90BF90AF909F908F9008950091520248
:101BE00010915302E5E06E9FE0011124CF58DE4FC3
:101BF0005801F12CF5E0E12CFF1629F0CE010196F9
:101C0000FE01E490EC01912C812CF0E8AF16B104B8
:101C100058F4B601680D791D6034710528F44E2D15
:101C20004170C5010E94A80DE6948FEF881A980AAA
:101C3000E8E08E16910449F7F394FFEFAF1ABF0A5C
:101C400086E0F812D7CF0A5F1F4F1093530200931C
:101C50005202B5CFCF93C82F0E94980D982F9C2386
:101C600081E09C1380E0CF91089580E00C94360AC7
:101C70008F929F92AF92BF92CF92DF92EF92FF929C
:101C80000F93CF93DF935B01EC014C01840E911C09
:101C90006B01C20ED11CC815D905ECF47501B7FE55
:101CA00002C0F12CE12CC60121E4C216D10414F0CB
:101CB00080E490E0E816F90664F4C038D10528F411
:101CC000402FB701CE010E94A80D8FEFE81AF80A45
:101CD000EACF2196E0CFDF91CF910F91FF90EF9067
:101CE000DF90CF90BF90AF909F908F9008950F930B
:101CF000CF93DF93EC019E816A3059F48D818C8300
:101D00006985960F9E8381E090E0DF91CF910F91DE
:101D10000895262F6A3361F178F46E3279F140F438
:101D2000613251F198859D5F8C81890F8C83EBCF57
:101D30006033C0F32C5F09C06134A0F36B35D0F081
:101D40008FE9860F27548A3168F761E0690F062E04
:101D5000000C770B8C81082E000C990B3F810AEF49
:101D6000313009F00BEF4CEA50E00E946E08DACFF8
:101D700020E4EBCF2154E9CF2EE3E7CF2FE3E5CFEB
:101D8000CF93DF93C0912A02D0912B02CE016AE05B
:101D900070E00E94E51A892BA9F480915D028230DF
:101DA00040F58F5F80935D0280915C02811124C0B9
:101DB00081E080935C0280915A02811120C081E011
:101DC00080935A0280E80E942A0E8823D9F0CE011F
:101DD00065E070E00E94E51A892BC1F180913D0712
:101DE00090915102911138C08230D8F010923D0785
:101DF00018C010925D02D8CF10925C02DCCF109216
:101E00005A02E0CF80E10E942A0E8111E0CF80E2E9
:101E10000E942A0E8111DBCF80E40E942A0E8111DC
:101E2000D6CFC770DD27E1EFF6E08AE0209719F4FE
:101E300093859F5F93879385923008F01386815036
:101E40003D968111F3CFDF91CF91089580913D07A9
:101E50008F5F80933D07C2CF843018F382E0809378
:101E60003D07DFCF089590E080E00895FB010190E9
:101E70000020E9F73197AF01461B570BDC01ED91CC
:101E8000FC910280F381E02D09948F929F92AF9292
:101E9000BF92EF92FF920F931F93CF93DF93CDB733
:101EA000DEB7A1970FB6F894DEBF0FBECDBF7C01A1
:101EB000FA01CB0119A2223008F42AE08E010F5D4D
:101EC0001F4F822E912CB12CA12CBF01A501940192
:101ED0000E94B41AF901CA016A300CF5605DD8019C
:101EE0006E938D01232B242B252B79F790E080E036
:101EF000109721F0BD01C7010E94360FA1960FB6C1
:101F0000F894DEBF0FBECDBFDF91CF911F910F912F
:101F1000FF90EF90BF90AF909F908F900895695C75
:101F2000DECF0C946C1A1F920F920FB60F921124F1
:101F30008F939F938091E1009091E100937F909324
:101F4000E10083FF0FC01092E90091E09093EB0055
:101F50001092EC0092E39093ED0010927D0298E0D5
:101F60009093F00082FF22C093E09093E90090915B
:101F7000F200992319F09AE39093E80090916E0291
:101F8000992341F090916E02915090936E029111BD
:101F900001C05D9890917C02992341F090917C0260
:101FA000915090937C02911101C0289884FF18C031
:101FB0008091E2008E7E81608093E2008091E1005A
:101FC0008F7E8093E10080916F028E7E806180938E
:101FD0006F029F918F910F900FBE0F901F901895D9
:101FE00080FFF7CF8091E2008E7E80618093E200D7
:101FF0008091E1008E7E8093E10080916F028E7E61
:102000008160E5CF1F920F920FB60F921124CF92ED
:10201000DF92EF92FF920F931F932F933F934F9373
:102020005F936F937F938F939F93AF93BF93EF9340
:10203000FF93CF93DF93CDB7DEB76C97DEBFCDBFF5
:102040001092E9008091E80083FF25C068E0CE018E
:1020500045960E949A0B82EF8093E8008D8987FF56
:1020600039C09091E80090FFFCCF982F907609F04E
:1020700034C19E894F89588D2F89F88C911131C0B8
:10208000803861F580916D028093F1001092F1002B
:102090008EEF8093E8006C960FB6F894DEBF0FBE0B
:1020A000CDBFDF91CF91FF91EF91BF91AF919F9104
:1020B0008F917F916F915F914F913F912F911F91E0
:1020C0000F91FF90EF90DF90CF900F900FBE0F9089
:1020D0001F9018959EEF9093E800C7CF1092F100E3
:1020E000D5CF913059F48111D3CF4130510581F6CC
:1020F00080916D028D7F80936D02CACF933049F439
:102100008111C6CF4130510519F680916D02826070
:10211000F2CF953041F48091E80080FFFCCF206839
:102120002093E300B5CF963009F0A9C00B8D1C8D2C
:1021300022E01092E90010926B0210926A02F212F1
:102140002EC010926902109268020E94690B1F82D1
:1021500099E09983FA8291E09E8390EA98879AEFBA
:10216000998720916A0230916B02275F3F4F3C8331
:102170002B838D831092E90010926B0210926A02F9
:10218000109369020093680249E050E0BE016F5F5E
:102190007F4F80E00E94430B0E94690B79CF109320
:1021A0006902009368020E94800ADC0112960D9178
:1021B0001C910115110509F451C1D801ED91FC9153
:1021C0000480F581E02DBE016B5E7F4FC80109954B
:1021D000009709F03EC1F80100851185EACFF3E0D0
:1021E000FF120EC08F89882309F440C0823061F449
:1021F00040E86DE082E790E10E94DF12811148CF54
:1022000081E28093EB0047CF813029F440E86BE016
:1022100086E690E1F1CF833099F70E94800ADC01D5
:102220001296ED90FC908E010F5F1F4F6801E11434
:10223000F10479F0D701ED91FC910680F781E02D52
:10224000B801C7010995080F111DF701E084F18459
:10225000EECFD8011C92F60101900020E9F73197EA
:10226000BF016C197D0940E0C601C6CF60E570E191
:10227000FB01449150E080E80E94430B09CF973066
:1022800009F4BECF983021F481E08093F10000CFB3
:10229000993009F0FDCE837009F0B2CFE3EDF1E0A3
:1022A00081E031E096E32191222371F08093E900EF
:1022B0003093EB00DF0111972C912093EC00909369
:1022C000ED008F5F873079F78EE78093EA001092F8
:1022D000EA008F8980937D02DBCE8B8D9C8D1092DE
:1022E000E90010926B0210926A0290936902809347
:1022F0006802898D811192C08E899D89913A49F435
:10230000813209F07DCF47E050E066E071E080E087
:10231000B3CF913209F074CF833269F48F89988DED
:10232000B0E0A0E08093020190930301A093040128
:10233000B0930501ADCE803269F48091E80082FF50
:10234000FCCF67E086E091E00E949A0B8BEF8093D0
:10235000E8009ECE823209F09BCE8F8980930D01DA
:10236000EEEFFFE7859194918B3F9C4D51F1E0E0BA
:10237000F8E08091060190910701A0910801B091C9
:102380000901803B9440A105B105F1F480910D0154
:1023900080FD1AC0EE3F8AE0F80789F587E797E7E6
:1023A000918380838091600080936C0288E19BE040
:1023B0000FB6F894A895809360000FBE90936000CC
:1023C00067CEEEEFFAE0D5CF8081918187379747CE
:1023D00009F05ECEA89580916000886180936000CE
:1023E00080916C0280936000EE3F2AE0F20789F052
:1023F0008091FE0A9091FF0A9183808349CE80816B
:1024000091818737980751F29093FF0A8093FE0AD3
:10241000C5CF1092FF0A1092FE0A3ACE0E94800A9F
:10242000DC0112960D911C910115110509F4E8CEFD
:10243000D801ED91FC910190F081E02DBE016B5E21
:102440007F4FC8010995811123CEF80100851185C0
:10245000EBCF181619060CF41BCED2CEF1E0FF120A
:10246000BECE64E570E104CF1F920F920FB60F92BB
:1024700011242F933F938F939F93AF93BF9380919A
:10248000600290916102A0916202B091630230916A
:102490005F0223E0230F2D3758F50196A11DB11DD2
:1024A00020935F028093600290936102A093620286
:1024B000B09363028091640290916502A0916602DC
:1024C000B09167020196A11DB11D809364029093A3
:1024D0006502A0936602B0936702BF91AF919F918E
:1024E0008F913F912F910F900FBE0F901F901895D5
:1024F00026E8230F0296A11DB11DD2CF1F920F9285
:102500000FB60F9211242F933F934F935F936F93C6
:102510007F938F939F93AF93BF93EF93FF9380919C
:10252000210290912202A0912302B0912402892BD2
:102530008A2B8B2B09F440C08091200281110BC0A3
:1025400088B190E4892788B980911F02882319F007
:1025500088B1805888B98091210290912202A0917F
:102560002302B0912402181619061A061B069CF4C1
:102570008091210290912202A0912302B091240225
:102580000197A109B1098093210290932202A0939F
:102590002302B0932402FF91EF91BF91AF919F91DD
:1025A0008F917F916F915F914F913F912F910F90FC
:1025B0000FBE0F901F9018950E94C50CECCFEF92A4
:1025C000FF920F931F93CF93DF93F82E192FE62ED0
:1025D000042F81E0860F880F0E94150B83E00E9474
:1025E000150BCF2DD12FEC0EFD2EF11CCE15DF05D6
:1025F000B9F007FF13C0FE0184910E94150B182F3C
:1026000080E00E94150B812321968111EFCFDF918D
:10261000CF911F910F91FF90EF9008958881EDCF9A
:1026200081E0F5CF109286061092850688EE93E041
:10263000A0E0B0E08093870690938806A093890677
:10264000B0938A068DED91E0909384068093830683
:102650008FEF9FEF9093900680938F0682E3809395
:10266000380710923A0710923B0782E080933C07AC
:1026700010923D0783E080933E07E1EFF6E022E30E
:1026800092E02683108611869287138684873D9672
:1026900037E0E233F307A9F71092F0061092EF0645
:1026A0008BEF91E09093EE068093ED061092E60694
:1026B0001092E5068FEE91E09093E4068093E30696
:1026C00088E08093EC0681E08093EB061092E806A8
:1026D0001092E9061092E7068093EA068BE698E0EE
:1026E0009093E2068093E10680E090E89093E00604
:1026F0008093DF0646983E9A47983F9A08957894CB
:1027000084B5826084BD84B5816084BD85B58260F6
:1027100085BD85B5816085BD80916E0081608093A7
:102720006E00109281008091810082608093810010
:102730008091810081608093810080918000816020
:1027400080938000809191008260809391008091BD
:1027500091008160809391008091900081608093CE
:1027600090008091C10084608093C1008091C1007D
:1027700082608093C1008091C10081608093C1001C
:102780008091C30081608093C3008091C00082600B
:102790008093C0008091C20081608093C2008091CC
:1027A0007A00846080937A0080917A0082608093BE
:1027B0007A0080917A00816080937A0080917A001B
:1027C000806880937A0010927D0210926D021092C0
:1027D0006F028091D70081608093D70080EA809358
:1027E000D80089B5806189BD89B5826089BD09B489
:1027F00000FEFDCF61E070E080E090E00E94CC0B35
:102800008091D8008F7C80618093D8008091E00017
:10281000807F8093E0008091E1008E7E8093E100D4
:102820008DE08093E200559A209A5D98289881EC7B
:1028300080937C0085B1806F85B984B1877E84B92F
:1028400084B1876E84B95E9A5F988AB1806D8AB9C7
:10285000769A6E9881B3806F81BB899880B38D70B2
:1028600080BB80E58CBD81E08DBD85E090E00E945D
:10287000930D5F9A85E090E00E94930D5E985C98BE
:10288000E1E2F7E08EE297E024912EBD00000DB466
:1028900007FEFDCF31968E179F07B1F75C9A81E84E
:1028A00080936400809165008160809365000E9440
:1028B000350E80E80E942A0E882381F085EA0E9466
:1028C000A00D2E982F982D9880916400806280939F
:1028D000640081E083BF889513BEFCCF84E00E9432
:1028E0002A0E882309F448C02D9884E80E942A0EF5
:1028F0008823E1F00E94910D88EC90E00E94930DF6
:102900002F9882E090E00E946C1A8F3F29F06FEFC1
:1029100082E090E00E94741A84EF91E00E94930D8F
:102920002F9A84E80E942A0E8111FBCF84E10E9435
:102930002A0E8823E1F00E94910D88EC90E00E941D
:10294000930D2E9882E090E00E946C1A882329F063
:1029500060E082E090E00E94741A84EF91E00E94AF
:10296000930D2E9A84E10E942A0E8111FBCF88ECF0
:1029700090E00E94930DB2CF0E94910D82E090E012
:102980000E94910F882309F493C03E9A3F9A81E0F8
:102990008093250281E090E00E94910F282F2470FF
:1029A000722E81FF13C021112E98C1EFDFEF08E0D6
:1029B00010E0ACE6EA2EF12C80E40E942A0E882377
:1029C00009F47BC02E9A2F9A0E94910D82E390E029
:1029D0000E94930D0E94980D8111F8CF80E18093A1
:1029E00000010E94290A109255021092540210927E
:1029F0005302109252020E94350EEEE2F2E02FEFE7
:102A00003FEF83E03183208384838583379642E0E0
:102A1000E135F407B9F761EFC62E66E0D62E89E0FE
:102A2000F601848385831086FDE0CF0ED11C25E25C
:102A3000C21627E0D206A1F780E490E09093330716
:102A40008093320780E290E09093350780933407BB
:102A500088E08093360780933707109258021092CF
:102A6000570281E08093560288248A94982C40E390
:102A7000442E512C612C712C54E3252E312C2FB770
:102A8000F8948091600290916102A0916202B091ED
:102A900063022FBF20912602222309F4CCC010929A
:102AA0002602E0E0F0E0EF2B51F30E940000E7CFB8
:102AB000109225023E983F986DCF772029F0C430C0
:102AC000D10511F42E9A2F9881E00E94360A9E01BA
:102AD000D7FF04C0222733272C1B3D0B2770332739
:102AE000CE01D7FD0796F3E095958795FA95E1F726
:102AF000D7FF05C00197A801421B530B9A01BC01E7
:102B00007695762F66277795679562587D4FB0E06A
:102B1000A0E02801421A530A8E3F5FEF950709F49F
:102B20003CC048E550E0FD01E753F94F5F014B0120
:102B3000F0E88F0E911C8F3F9807A1F0F501E41B80
:102B4000F50BE4916701C41AD50AC60ED71EF0E052
:102B50001F01022E01C0220C0A94EAF7F6016080E0
:102B60002628208221153105A9F0F501E41BF50B7B
:102B7000E4916701C41AD50AC80CD91CF0E01F0102
:102B8000042C02C0359427940A94E2F7F601608081
:102B9000262820824150510971F60196A85ABF4F4C
:102BA00060587F4FA03BB10509F0B6CF0E94350EAB
:102BB0008FE090E00E94930D2196C931D10509F074
:102BC000FBCE772011F02F9A2D9880E991E00E949A
:102BD000930D0E94910D81E090E00E94910F80FF83
:102BE000F5CE8AE090E00E94910F9FEF980F9E3FF4
:102BF00008F0ECCE22E330E03093530220935202EF
:102C000028E330E03093550220935402CBE0D0E02B
:102C1000682F8DEE96E00E94C00DCE010E94910FAC
:102C20002196C131D105A1F70E94350E88EE93E0BF
:102C30000E94930DCBCE20912702382F321B232FD9
:102C400030910001231748F42F5F231708F029CF94
:102C500081E083BF889513BE24CFC1E0C0932602D4
:102C60008093270280912A0290912B0201969093E3
:102C70002B0280932A020E94290A10925502109278
:102C80005402109253021092520210912C0210938F
:102C90002D020E94980DD82F80932C020E94C00E06
:102CA00080915E028D7F19F513FD21C0D3FF1FC0F7
:102CB00083E080933E0740E450E050933307409315
:102CC000320780E290E090933507809334071092AA
:102CD000580210925702C09356021092F9061092B1
:102CE00006071092130710922007C0935E0280E837
:102CF0000E942A0E882389F080913407909135072D
:102D00008B30910554F001979093350780933407E9
:102D10001092390781E08093510280E10E942A0ECF
:102D2000882389F080913407909135078833910585
:102D300054F40196909335078093340782E0809392
:102D400039071092510280E20E942A0E882379F0FE
:102D500080913207909133071816190644F40197B1
:102D6000909333078093320783E08093390780E4A0
:102D70000E942A0E882379F08091320790913307C0
:102D80008837910544F40196909333078093320776
:102D900081E08093390788E00E942A0E882399F009
:102DA00080915B0281110FC0EEE2F2E090E080E0E2
:102DB000208131812F3F3F4F09F4CDC201963796D4
:102DC00085309105A9F780915E028130F1F030F0F5
:102DD000823009F484C20E94350E63CE0E94C00E78
:102DE00020915D024CE65AE061E070E083E090E003
:102DF0000E948B0D20915C024AEE58E06EE270E07A
:102E00008EE090E00E948B0DE6CFE1EFF6E010E05F
:102E100000E08085811184C00E94141A2DE0209F5B
:102E2000E001219FD00D1124CF50D94F20910101F5
:102E30002C8721E02887A30192010E94821A70E06A
:102E4000660F771FFB01EE58FE4F808191819983B9
:102E500088836E5E7E4FFB01808191819B838A8394
:102E600091EFE92E96E0F92EF7016281738103E07C
:102E700023854EE257E0808191810E946E08FDE03B
:102E8000EF0EF11CCE14DF0479F780912A029091A5
:102E90002B026FE070E00E94E51A892B09F069C0EF
:102EA0002091320730913307409134075091350714
:102EB000E1EFF6E0B12CA1EFB6E0A12CBA1409F4D1
:102EC0004FC0808191816D917C911197C481C80F11
:102ED000D92FD11D6C177D07ECF41496CC91149763
:102EE0006C0F711D86179707ACF4C281D3811296BF
:102EF0000D911C91139765816C0F7D2F711D061725
:102F0000170744F415966C911597060F111DC017FD
:102F1000D10774F0821793070CF4A6C10197A5C1DD
:102F20000F5F1F4F3D960430110509F072CF98CF07
:102F30000497918380838D919C91119704961196AB
:102F40009C938E93828193810497938382831296BC
:102F50008D919C911397049613969C938E93129740
:102F6000A3941D9684E0A812A9CFB3943D96B812FD
:102F7000A2CF20913907CEE2D2E02E8388819981B9
:102F80008F3F9807B1F0213009F07CC101969983F9
:102F9000888388819981803891054CF4892B39F098
:102FA0008A819B818034910514F4892B11F49982D4
:102FB00088822796F2E0C135DF07F9F68EE2A82E67
:102FC00082E0B82EF501808191818F3F980741F012
:102FD000F5016281738101E023E043E00E94380E35
:102FE000F7E0AF0EB11CCA15DB0561F780913E0713
:102FF00084302CF4833009F058C11092590280912A
:103000005B02882319F0815080935B02809138071E
:10301000882319F0815080933807609134077091AC
:10302000350703E020913D0748EA58E080913207D8
:10303000909133070E946E0800E02AE040E870E0BB
:1030400060E090E080E00E94380E01E021E040E87E
:103050006AE070E090E080E00E94380E03E020918A
:103060005A0242E458E070E060E084E690E00E949A
:103070006E0802E028E04091590270E060E084E6CA
:1030800090E00E94380EC1EFD6E08C85181684F0CF
:1030900080915602853009F018C190910101963057
:1030A00018F49F5F9093010118868F5F80935602FA
:1030B0002881398140913207509133078C81820FEA
:1030C000932F911D481759070CF04FC08091360778
:1030D000480F511D241735070CF047C02A813B814A
:1030E00040913407509135078D81820F932F911DA8
:1030F00048175907D4F580913707480F511D2417F9
:1031000035079CF58091380781112FC080912802E6
:10311000909129020196909329028093280222E33C
:10312000209338078BE092E00E946D0D87EA0E94A1
:10313000A00D64E170E080E090E00E94CC0B86EA94
:103140000E94A00D80913E0718167CF48150809358
:103150003E0780915702909158028B30910528F0DC
:103160000A979093580280935702309138078091C4
:10317000570290915802EEE2F2E025E031112AC0A8
:10318000A081B1814881598164816A0F7B2F711DB3
:1031900046175707FCF46C81460F511DA417B5075D
:1031A000CCF4A281B3814A815B8165816A0F7B2F58
:1031B000711D4617570774F46D81460F511DA417F2
:1031C000B50744F401964C85141614F441504C870D
:1031D00091828082215037962111D0CF909358024E
:1031E000809357022D96CE15DF0509F04ECF109231
:1031F000E8061092E7061092E90663E072E083EEBB
:1032000096E00E94360F8EE18093E8068093E706F1
:103210001092E906409157025091580270E060E028
:103220002AE083EE96E00E94450F8AE38093E80649
:103230008093E7061092E9066CE072E083EE96E078
:103240000E94360F82E58093E8068093E70610928D
:10325000E9064091560250E070E060E02AE083EE1B
:1032600096E00E94450FB7CD0196918380838281BD
:1032700093818417950724F401969383828370CEFB
:103280000197FBCF233011F4019781CE211106C0A5
:103290008A819B8101979B838A837BCE223009F0B0
:1032A00078CE8A819B810196F6CF823021F489E025
:1032B00080935902A4CE813011F481E1F9CF8111BC
:1032C0009ECE82E080935E029ACE8A3009F4E5CEEB
:1032D0008F3009F4E2CE843109F4DFCEE5CE20E070
:1032E00040E557E06FE070E084E090E00E948B0DD5
:1032F00020915C024AEE58E063E270E08EE090E0DC
:103300000E948B0D40E350E05093530240935202D1
:10331000309255022092540264E172E08DEE96E004
:103320000E94360F83E590E09093530280935202FF
:103330003092550220925402809157029091580287
:103340002AE0289FA001299F500D112470E060E021
:103350008DEE96E086CF27E0289FF001299FF00DA3
:103360001124E25DFD4F80913207909133079183E4
:1033700080838091340790913507039693838283ED
:103380008CED93E00E946D0D8AE080935B021BCD73
:103390008F929F92AF92BF92CF92DF92EF92FF9265
:1033A000CF93DF93EC01688179818A819B816115DC
:1033B00071058105910521F464E279ED8BE597E0D3
:1033C0002DE133EF41E050E00E94821A49015A0199
:1033D0009B01AC01A7EAB1E40E94A11A6B017C0138
:1033E000ACEEB4EFA50194010E94AF1AC60ED71E31
:1033F000E81EF91EF7FE06C081E0C81AD108E108F0
:1034000080E8F80AC882D982EA82FB82C701B60145
:103410009F77DF91CF91FF90EF90DF90CF90BF909B
:10342000AF909F908F9008958F929F92AF92BF928E
:10343000CF92DF92EF92FF9260910E0170910F0197
:10344000809110019091110161157105810591051F
:1034500021F464E279ED8BE597E02DE133EF41E073
:1034600050E00E94821A49015A019B01AC01A7EA6F
:10347000B1E40E94A11A6B017C01ACEEB4EFA5018E
:1034800094010E94AF1AC60ED71EE81EF91EF7FE61
:1034900006C081E0C81AD108E10880E8F80AC092A5
:1034A0000E01D0920F01E0921001F0921101C701BC
:1034B000B6019F77FF90EF90DF90CF90BF90AF90D5
:1034C0009F908F90089560930E0170930F018093E9
:1034D0001001909311010895F999FECF92BD81BD1D
:1034E000F89A992780B50895262FF999FECF1FBA2B
:1034F00092BD81BD20BD0FB6F894FA9AF99A0FBE1D
:1035000001960895052E97FB1EF400940E94991AC7
:1035100057FD07D00E94B41A07FC03D04EF40C9458
:10352000991A50954095309521953F4F4F4F5F4FD9
:10353000089590958095709561957F4F8F4F9F4F1F
:1035400008950E94D61AA59F900DB49F900DA49F38
:10355000800D911D11240895B7FF0C94A11A0E94AB
:10356000A11A821B930B0895A1E21A2EAA1BBB1B62
:10357000FD010DC0AA1FBB1FEE1FFF1FA217B3073F
:10358000E407F50720F0A21BB30BE40BF50B661F55
:10359000771F881F991F1A9469F760957095809519
:1035A00090959B01AC01BD01CF010895A29FB00190
:1035B000B39FC001A39F700D811D1124911DB29F67
:1035C000700D811D1124911D0895AA1BBB1B51E193
:1035D00007C0AA1FBB1FA617B70710F0A61BB70B83
:1035E000881F991F5A95A9F780959095BC01CD0128
:1035F0000895EE0FFF1F0590F491E02D0994F894C3
:02360000FFCFFA
:103602001003FFFFFFFF00E10000000000000100C7
:103612000000F8FFF8FFF8FFF8FFF8FFF8FFF8FFE7
:10362200F8FFF8FFF8FFF8FFF8FFF8FFF8FFF8FFE0
:10363200F8FFF8FF080010001800200028003000F2
:103642003800400040004000400040004000400080
:103652004000400040004000400040004000400068
:103662004000400038003000280020001800100000
:103672000800000008001000180020002800300098
:103682003800400048005000580060006800700098
:103692007800800082008200820082008200820024
:1036A20082008000780070006800600058005000BE
:1036B20048004000380030002800200018001000A8
:1036C20008000000F8FFF8FFF8FFF8FFF8FFF8FF26
:1036D200F8FF00C1808100000000000000940AFF92
:1036E2000BB50AAA0AFB0AB90AD70A00000000773A
:1036F2000E840C330F320F00000000C00D840C3317
:103702000F320F506F696E74733A20004C65766504
:0C3712006C3A200053636F72653A20008F
:00000001FF
