:100000000C94E4030C940C040C940C040C940C0459
:100010000C940C040C940C040C940C040C940C0420
:100020000C940C040C940C040C94DA230C944924C6
:100030000C940C040C940C040C940C040C940C0400
:100040000C940C040C940C040C940C040C940C04F0
:100050000C940C040C940C040C940C040C947B264F
:100060000C940C040C940C040C940C040C940C04D0
:100070000C940C040C940C040C940C040C940C04C0
:100080000C940C040C940C040C940C040C940C04B0
:100090000C940C040C940C040C940C040C940C04A0
:1000A0000C940C040C940C040C940C0405A84CCD7A
:1000B000B2D44EB93836A9020C50B9918688083CA2
:1000C000A6AAAA2ABE000000803F06495F7F7F5F84
:1000D0004906060F1E0F060E1115110E18181D18D1
:1000E0001806495F7F7F5F49060C1221210A0C0E1A
:1000F0000E0C0A2121120C0810207F201008444801
:10010000507F504844007C3A7F3A7C001C3E415569
:100110006B3E1C1C3E4375433E1C1C1C6B776B1CCA
:100120001C4C494E4553004C4556454C0053434FDB
:1001300052450000000000003E5B4F5B3E3E6B4FAF
:100140006B3E1C3E7C3E1C183C7E3C181C577D5769
:100150001C1C5E7F5E1C00183C1800FFE7C3E7FF15
:100160000018241800FFE7DBE7FF30483A060E26A8
:1001700029792926407F050507407F05253F5A3C00
:10018000E73C5A7F3E1C1C08081C1C3E7F14227F43
:1001900022145F5F005F5F06097F017F006689951B
:1001A0006A606060606094A2FFA29408047E040804
:1001B00010207E201008082A1C08081C2A08081E87
:1001C000101010100C1E0C1E0C30383E3830060E6D
:1001D0003E0E06000000000000005F000000070067
:1001E0000700147F147F14242A7F2A122313086423
:1001F0006236495620500008070300001C224100C7
:100200000041221C002A1C7F1C2A08083E08080006
:1002100080703000080808080800006060002010A6
:100220000804023E5149453E00427F400072494960
:1002300049462141494D331814127F102745454541
:10024000393C4A4949314121110907364949493662
:10025000464949291E0000140000004034000000F7
:100260000814224114141414140041221408020129
:100270005909063E415D594E7C1211127C7F494955
:1002800049363E414141227F4141413E7F494949F2
:10029000417F090909013E414151737F0808087FE8
:1002A00000417F41002040413F017F081422417FEF
:1002B000404040407F021C027F7F0408107F3E4187
:1002C00041413E7F090909063E4151215E7F0919DE
:1002D0002946264949493203017F01033F404040F6
:1002E0003F1F2040201F3F4038403F6314081463E5
:1002F00003047804036159494D43007F41414102A1
:1003000004081020004141417F04020102044040E2
:10031000404040000307080020545478407F2844A0
:1003200044383844444428384444287F385454548A
:100330001800087E090218A4A49C787F0804047899
:1003400000447D40002040403D007F1028440000D4
:10035000417F40007C047804787C080404783844A9
:10036000444438FC1824241818242418FC7C08045D
:100370000408485454542404043F44243C4040207E
:100380007C1C2040201C3C4030403C442810284429
:100390004C9090907C4464544C44000836410000DA
:1003A00000770000004136080002010204023C26EA
:1003B00023263C1EA1A161123A4040207A385454B1
:1003C0005559215555794121545478412155547836
:1003D0004020545579400C1E5272123955555559CA
:1003E000395454545939555454580000457C4100EF
:1003F00002457D420001457C40F0292429F0F02887
:100400002528F07C545545002054547C547C0A091E
:100410007F4932494949323248484832324A48488D
:10042000303A4141217A3A42402078009DA0A07D97
:1004300039444444393D4040403D3C24FF24244855
:100440007E4943662B2FFC2F2BFF0929F620C088FD
:100450007E090320545479410000447D41304848CE
:100460004A32384040227A007A0A0A727D0D1931E8
:100470007D2629292F28262929292630484D402044
:10048000380808080808080808382F10C8ACBA2F20
:10049000102834FA00007B000008142A14222214C9
:1004A0002A14089500220095AA005500AAAA55AA68
:1004B00055AA000000FF00101010FF00141414FFD4
:1004C000001010FF00FF1010F010F0141414FC00C6
:1004D0001414F700FF0000FF00FF1414F404FC14D0
:1004E0001417101F10101F101F1414141F001010C9
:1004F00010F0000000001F101010101F101010103E
:10050000F010000000FF101010101010101010FF5D
:1005100010000000FF140000FF00FF00001F101774
:100520000000FC04F414141710171414F404F4005D
:1005300000FF00F714141414141414F700F7141423
:1005400014171410101F101F141414F4141010F0AA
:1005500010F000001F101F0000001F14000000FC1E
:10056000140000F010F01010FF10FF141414FF140A
:100570001010101F00000000F010FFFFFFFFFFF041
:10058000F0F0F0F0FFFFFF0000000000FFFF0F0F92
:100590000F0F0F38444438447C2A2A3E147E02024E
:1005A0000606027E027E0263554941633844443C9C
:1005B00004407E201E2006027E020299A5E7A5992E
:1005C0001C2A492A1C4C7201724C304A4D4D303065
:1005D00048784830BC625A463D3E494949007E0150
:1005E00001017E2A2A2A2A2A44445F444440514A6F
:1005F000444040444A51400000FF0103E080FF00B6
:100600000008086B6B083612362436060F090F06F1
:10061000000018180000001010003040FF01010019
:100620001F01011E00191D1712003C3C3C3C00003C
:10063000000000D5F08D14A1C881CFD9F1AF200002
:1006400050726573656E747300434F52453130329A
:1006500034006E256D00403807427269646765207A
:100660004275696C6465720077007755555577421D
:100670006C6F636B732050757A7A6C65001C15740F
:100680004574151C426C6F636B7320417263616427
:10069000650053746172742000526573756D650056
:1006A00045786974001C3E41556B3E1C546861746A
:1006B0002077617300596F7520616C6D6F737420C2
:1006C00062656174005468617427732061206E65EF
:1006D00077207265636F72642100436F6E67726189
:1006E00074756C6174696F6E73210047616D65206C
:1006F0004F7665720006495F7F7F5F490653656CE0
:1007000065637400526573657420004D6F766500F3
:100710001C1C6B776B1C1C1C3E4375433E1C4368C2
:100720006F6F73652047616D65204D6F64650008CC
:100730000B00020202000009040000010202000096
:1007400005240010010524010101042402060524EA
:100750000600010705810310004009040100020A98
:100760000000000705020240000007058302400068
:10077000000403090412010002EF02014041233783
:100780008000010102030141726475696E6F204CA3
:100790004C430041726475696E6F204D6963726FDE
:1007A000006E256D004038071F111F121F101D1508
:1007B0001711151F07041F17151D1F151D011D07F4
:1007C0001F151F17151FC52611241FBECFEFDAE016
:1007D000DEBFCDBF12E0A0E0B1E0EEEAF3E602C07A
:1007E00005900D92A435B107D9F727E0A4E5B2E052
:1007F00001C01D92A13FB207E1F713E0C4EED3E0C0
:1008000004C02197FE010E94CF31C33ED107C9F732
:100810000E94E2260C94D5310C940000FC018091DA
:10082000AC06882311F13FB7F89482E08093E90089
:100830002091F200822F90E01816190614F481E03E
:1008400090E0882339F0289A44E64093AB06409123
:10085000F1004083222339F02091F200211103C0DE
:100860002BE62093E8003FBF08958FEF9FEF089598
:100870002FB7F89483E08093E9009091E800892FE6
:10088000807295FF04C09091F20080E4891B2FBF15
:1008900008958091A30681110DC082E080939F0688
:1008A00084E08093A0061092A2061092A10681E037
:1008B0008093A3068FE996E00895CF93DF931F926C
:1008C000CDB7DEB76983DC01ED91FC910280F38145
:1008D000E02D41E050E0BE016F5F7F4F09950F9022
:1008E000DF91CF91089583E08093E9008091F20039
:1008F000882319F08AE38093E80008950E94380461
:1009000090E00895CF93DF931F92CDB7DEB7FC013F
:100910008485958597FD08C02FEF3FEF35872487A5
:100920000F90DF91CF910895CE0101960E940E04A1
:10093000019719F4898190E0F3CF8FEF9FEFF0CF0B
:100940000F931F93CF93DF931F92CDB7DEB78C0128
:10095000FC018485958597FF0BC0CE0101960E940E
:100960000E04019771F4898190E0F80195878487DE
:10097000F801848595850F90DF91CF911F910F919C
:1009800008958FEF9FEFF1CFFC018485958597FD4A
:100990000BC09FB7F89482E08093E9008091F20049
:1009A0009FBF90E0019608959FB7F89482E08093EE
:1009B000E9008091F2009FBF90E008954091990670
:1009C00050919A0620919706309198064217530746
:1009D000B4F49091E8009570E1F39091E80092FDF5
:1009E00019C08093F1008091990690919A06019622
:1009F0008F739927892B19F48EEF8093E8008091EB
:100A0000990690919A06019690939A06809399067A
:100A100081E0089580E00895EF92FF920F931F9375
:100A2000CF93DF93F82E192FE62E042F81E0860F47
:100A3000880F0E94DE0483E00E94DE04CF2DD12FB8
:100A4000EC0EFD2EF11CCE15DF05B9F007FF13C02B
:100A5000FE0184910E94DE04182F80E00E94DE04D3
:100A6000812321968111EFCFDF91CF911F910F91BB
:100A7000FF90EF9008958881EDCF81E0F5CFDF9270
:100A8000EF92FF920F931F93CF93DF93D82E8A019B
:100A9000EB017B01E40EF51ECE15DF0559F0D7FE04
:100AA00012C0FE0184910E94DE0421968111F4CFD0
:100AB0000FEF1FEFC801DF91CF911F910F91FF90B2
:100AC000EF90DF9008958881EECF0F931F93CF931F
:100AD000DF931F92CDB7DEB782E0898342E450E016
:100AE0006FE277E080E80E943F050E944904DC0144
:100AF00012960D911C910115110589F0D801ED9107
:100B0000FC910280F381E02DBE016F5F7F4FC80131
:100B1000099597FD04C0F80100851185ECCF898106
:100B20000F90DF91CF911F910F910895615030F098
:100B30002091F100FC0120830196F8CF289A84E6E9
:100B40008093AB0608953FB7F894809193069091F7
:100B50009406A0919506B091960626B5A89B05C06F
:100B60002F3F19F00196A11DB11D3FBFBA2FA92F2C
:100B7000982F8827BC01CD01620F711D811D911D29
:100B800042E0660F771F881F991F4A95D1F7089595
:100B90008F929F92AF92BF92CF92DF92EF92FF928D
:100BA0006B017C010E94A3054B015C01C114D104BF
:100BB000E104F104B9F00E94A305681979098A09D2
:100BC0009B09683E73408105910580F321E0C21ABC
:100BD000D108E108F10888EE880E83E0981EA11C78
:100BE000B11CE4CFFF90EF90DF90CF90BF90AF901B
:100BF0009F908F9008958F929F92AF92BF92CF92C5
:100C0000DF92EF92FF920F931F93CF93DF936C01CC
:100C10007B018A0180910D01882309F45CC08091D9
:100C2000AC06882309F457C080919E0680FF05C05A
:100C30008091E00082608093E000E801B12C8AEFAF
:100C4000A82E93E0892E2AE3922E209711F4BB2040
:100C5000D9F10E94380481110AC0AA94AA20D9F1BE
:100C600061E070E080E090E00E94C805EECF8C1754
:100C70001D0611F00CF08C2F9FB7F8948092E900BC
:100C80002091E80025FD02C09FBFDFCF282F30E074
:100C9000C21BD30BF701815020F041914093F1002A
:100CA000FACFE20EF31EBB2021F09092E800B12CA7
:100CB000EBCF8091E80085FDE7CF9092E800BB2460
:100CC000B394209709F3F3CF5D9A84E680939D0651
:100CD000101611063CF081E090E0F60193838283C8
:100CE00010E000E0C801DF91CF911F910F91FF90BC
:100CF000EF90DF90CF90BF90AF909F908F9008952E
:100D00002FB7F89460918F067091900680919106AC
:100D1000909192062FBF0895EF92FF920F931F9329
:100D2000CF93DF938C017B01D0E0C0E0F701EC0FA3
:100D3000FD1F6491662361F0D801ED91FC91019053
:100D4000F081E02DC8010995892B11F02196EECF95
:100D5000CE01DF91CF911F910F91FF90EF900895F9
:100D6000AF92BF92CF92DF92EF92FF920F931F93B9
:100D7000CF93DF936C017B018B01040F151FEB01F7
:100D80005E01AE18BF08C017D10759F06991D601AE
:100D9000ED91FC910190F081E02DC6010995892B20
:100DA00079F7C501DF91CF911F910F91FF90EF90DF
:100DB000DF90CF90BF90AF900895BC0190E080E0AD
:100DC0000C94C8058FB18095807F669B88601C9BC2
:100DD0008460089581E083BF889513BE0895480F0D
:100DE000592F511D141615060CF03CC08038910582
:100DF000CCF597FF02C090E080E04138510514F037
:100E000040E850E0481BFB0177FD379633E0F5954D
:100E1000E7953A95E1F7F695FE2FEE27F795E795DA
:100E2000E80FF91FEF58FD4F6770772781E090E0DA
:100E300001C0880F6A95EAF7382F222351F021303C
:100E400089F4415078F08191DF011197832B8C93C5
:100E5000F8CF8095415030F09191DF0111979823A0
:100E60009C93F8CF08956034710510F40C94EF064C
:100E7000089520E191E061FD94E060FD990F62FD2D
:100E80009295687F269FD0011124A80FAF58BD4FBF
:100E90008C9140FF03C0892B8C93089590958923F2
:100EA000FBCF8038910528F46034710510F40C9460
:100EB000390708952F923F924F925F927F928F92BF
:100EC0009F92AF92BF92CF92DF92EF92FF920F93D9
:100ED0001F93CF93DF93782E482F6EE170E08EE161
:100EE00090E00E945107472D62E070E08EE190E0B3
:100EF0000E945107472D60E170E08CE290E00E9473
:100F00005107472D60E170E080E190E00E945107B9
:100F100022242394312C10E000E0CEE0D0E054EE07
:100F2000452E55245A9463EFE62EFF24FA940F5F62
:100F30001F4F82E0280E311CE20CF31C48018EE1A9
:100F4000880E911C472D6E0180E1C80ED11CB601A0
:100F5000C4010E9451078EE1A82EB12CA01AB10A3B
:100F6000472DB601C5010E945107472D90E1C92EBA
:100F7000D12CCC1ADD0AB601C4010E945107472DBD
:100F8000B601C5010E945107580180E1A80EB11CAD
:100F9000472DB5016E018EE1C80ED11CC6010E941D
:100FA0005107472DB5012EE1822E912C8C1A9D0AF6
:100FB000C4010E94510730E1A32EB12CA01AB10A3E
:100FC000472DB501C6010E945107472DB501C40147
:100FD0000E9451070C171D0794F0DF91CF911F91CC
:100FE0000F91FF90EF90DF90CF90BF90AF909F90C8
:100FF0008F907F905F904F903F902F900895F7FCD7
:1010000096CF219782E0480E511CE40CF51C8FCF3F
:101010002F923F924F925F926F927F928F929F9208
:10102000AF92BF92CF92DF92EF92FF920F931F93F6
:10103000CF93DF937C014B01C42FD0E081E090E09F
:101040006C01CC1ADD0A662477246C1A7D0A660CC2
:10105000771C10E000E0AA24A394B12C822F8470A6
:10106000582E822F8270482E822F8870382E217041
:10107000222E0C171D070CF061C0D7FC06C021976B
:1010800082E0680E711CC60CD71C0F5F1F4F82E0F8
:10109000A80EB11CCA0CDB1C552091F041E0BE012A
:1010A000680D791DC701800F911F0E94510741E013
:1010B000B401600F711FCE018E0D9F1D0E9451075C
:1010C000442091F041E0B4016C1B7D0BC701800FFF
:1010D000911F0E94510741E0B401601B710BCE01CA
:1010E0008E0D9F1D0E945107332091F041E0B40105
:1010F000600F711FC7018C1B9D0B0E94510741E0BF
:10110000BE01680D791DC701801B910B0E9451071C
:10111000222009F4AECF41E0B401601B710BC7017E
:101120008C1B9D0B0E94510741E0B4016C1B7D0B91
:10113000C701801B910B0E9451079BCFDF91CF917C
:101140001F910F91FF90EF90DF90CF90BF90AF90E5
:101150009F908F907F906F905F904F903F902F90D7
:10116000089580E0E1E7F2E081118FEF00248193A0
:101170008193819381930394D1F710927206109218
:101180007106109274061092730608955F926F9222
:101190007F928F929F92AF92BF92CF92DF92EF9207
:1011A000FF920F931F93CF93DF936D3089F0C09020
:1011B0007106D09072066A30E9F4109274061092AB
:1011C000730688E0C80ED11CD0927206C0927106D8
:1011D00081E090E0DF91CF911F910F91FF90EF9010
:1011E000DF90CF90BF90AF909F908F907F906F9047
:1011F0005F90089560907002509000010091730616
:1012000010917406E5E06E9FE0011124CD5CDE4F85
:101210005801F12CF5E0E12CFF1629F0CE010196E2
:10122000FE01E490EC01460188E0782EE0FC18C055
:10123000462D651016C0E6947A94FFEF8F1A9F0A28
:101240007110F4CFF3948FEFA81AB80AE6E0FE12FB
:10125000E1CF0A5F1F4F1093740600937306B8CF57
:10126000452DB401C5010E945107E5CF90916F0251
:10127000982329F090916E02982381E009F080E094
:10128000089590916F02982329F490916E0298230B
:1012900081E009F480E0089588E00E94410981110D
:1012A00017C084E00E944109811112C080E80E94A9
:1012B000410981110DC080E10E944109811108C0DE
:1012C00080E20E944109811103C080E40C9441092D
:1012D000089580916E0280936F020E94E2068093CF
:1012E0006E020895CF93C82F0E94E206982F9C2388
:1012F00081E09C1380E0CF910895E1E7F2E080E087
:10130000A0E0B8E000800EBC8111012C1197A0FD77
:10131000FDCF0192B9F70DB408955F926F927F925D
:101320008F929F92AF92BF92CF92DF92EF92FF92F5
:101330000F931F93CF93DF9330E0F901E80FF91F6C
:101340001E161F060CF0C1C0803891050CF0BDC000
:10135000FB01E00FF11D1E161F060CF0B6C0603435
:1013600071050CF0B2C0DB0177FF04C0AA27BB27D0
:10137000A61BB70BA770BB27FB0177FD3796C3E011
:10138000F595E795CA95E1F777FF07C0319768E0D3
:1013900070E0EB01CA1BDB0BDE01602E66946694E5
:1013A0006694712C077019F0DFEF6D1A7D0ABF018A
:1013B000EF01D695DC2FCC27D795C795C80FD91F3D
:1013C000CF58DD4F8A01660E771E48E050E06A0173
:1013D000CA1ADB0A6615770509F477C0683071050B
:1013E00009F473C06F3FEFEF7E070CF463C050E069
:1013F00040E04E01F0E88F0E911C421753070CF0AD
:1014000059C0FA01E80FF91FE038F1050CF052C09D
:10141000F7FD35C06F3F760709F453C05E01A40E97
:10142000B51EF501F080FA01E00FF11F5524539429
:10143000E51028C0E4910A2E01C0EE0F0A94EAF7E5
:10144000FE2AF501F0821097D1F067307105B9F0EE
:101450005401A40EB51EF501F080FA01E00FF11F52
:1014600055245394E5101AC0E491F0E00C2C02C00E
:10147000F595E7950A94E2F7FE2AF501F0824F5FB1
:101480005F4FBBCFE491F0E00A2E02C0EE0FFF1FCA
:101490000A94E2F7E095F095FE22D3CFE491F0E0D4
:1014A0000C2C02C0F595E7950A94E2F7E095F095CB
:1014B000FE22E3CF6F5F7F4FC058DF4F020F131F35
:1014C00089CF109709F0C4CFDACFDF91CF911F9168
:1014D0000F91FF90EF90DF90CF90BF90AF909F90D3
:1014E0008F907F906F905F9008952F923F924F92D0
:1014F0005F926F927F928F929F92AF92BF92CF92A4
:10150000DF92EF92FF920F931F93CF93DF9300D060
:1015100000D0CDB7DEB7382E262EF22EB32EA42E55
:10152000952E802E81E08983FAE04F2E512C612C7C
:10153000712CCA01B901A30192010E943F2E21150D
:1015400031054105510521F099819F5F9983F1CFC4
:10155000CE2CD12C8981082E000C990B9C838B8377
:101560001E2DC816D9060CF41B81EAE04E2E512C14
:10157000612C712C822D90E09A838983232C312C4D
:10158000111684F511506F2D7B2D8A2D992DA301F5
:1015900092010E943F2EE62FF22EB32EA42E952EFE
:1015A000812F90E0E11108C02B813C81280F391F69
:1015B0002C193D0937FDE4CF9B01AB01440F551FAA
:1015C000420F531F4855584F880F991F880F991F76
:1015D000E82C05E023E069817A81820D931D0E9449
:1015E0008D09CECF0F900F900F900F90DF91CF917C
:1015F0001F910F91FF90EF90DF90CF90BF90AF9031
:101600009F908F907F906F905F904F903F902F9022
:101610000895CF92DF92EF92FF920F931F93CF9393
:10162000DF93F82EC42FC62E660FDD08D8E0D40F46
:1016300082FF11C0C65F0C2F0C2E000C110B41E075
:10164000B801C6010E94510741E0B801C6010296E7
:101650000E945107DC2F6C2FCC0F770B6E5F7F4FF2
:10166000EE24E39407E023E041EA57E0C6010E943C
:101670008D09F0FE10C040E00D2F0D2E000C110B57
:10168000B801C60102960E94510741E0B801C601A7
:1016900003960E945107F1FE16C0CD2FDD0FDD0B22
:1016A00040E0BE01C6010E94510741E0BE01C601F3
:1016B0000197DF91CF911F910F91FF90EF90DF90F5
:1016C000CF900C945107DF91CF911F910F91FF9014
:1016D000EF90DF90CF900895DF92EF92FF920F93FB
:1016E0001F93CF93DF937C01D22E8B01040F111D2A
:1016F000EB0177FF02C0D0E0C0E0C8010134110562
:1017000014F080E490E0C817D9073CF44D2DBE01D9
:10171000C7010E9451072196F0CFDF91CF911F9111
:101720000F91FF90EF90DF900895CF93DF93C82F34
:10173000D62F21E0482F70E060E090E080E00E942A
:10174000EF068D2F8150990BBC0121E04C2F90E0CA
:1017500080E00E94330721E04D2F70E060E090E0D0
:1017600080E00E946C0B21E04D2F70E060E0EC2FD8
:10177000E150FF0BCF01DF91CF910C946C0B7F9266
:101780008F929F92AF92BF92CF92DF92EF92FF9291
:101790000F931F93CF93DF93EC017B01822E50E0D8
:1017A00030E020E077247394700E83E0982E900E42
:1017B0008B01015011095E018FEFA81AB80A6E0162
:1017C00081E0C81AD10824173507B4F481E021E07C
:1017D000472DB70188120EC0C5010E946C0B21E095
:1017E000492DB801CE010E946C0B21E030E050E0A1
:1017F00040E0E9CFC601F1CFDF91CF911F910F916A
:10180000FF90EF90DF90CF90BF90AF909F908F9020
:101810007F900895CF92DF92EF92FF920F931F93E4
:10182000CF93DF936B01122FEC017C01E40EF11CCE
:10183000CE15DF0544F4202F412FB601CE010E94C2
:101840006C0B2196F5CFDF91CF911F910F91FF90F7
:10185000EF90DF90CF900895EF92FF920F931F9338
:10186000CF93DF93D62FC72F182FE62E660FFF08D2
:1018700001E029E0472F67E370E0C7010E940A0CEE
:101880007C2FC7FD7F5F872F859540E069E370E07F
:101890009701280F311D87FD3A95C9010E94510714
:1018A000112389F01D167CF44D2F410F21E066E3D2
:1018B00070E090E080E0DF91CF911F910F91FF9059
:1018C000EF900C94EF06DF91CF911F910F91FF9055
:1018D000EF9008952F923F924F925F926F927F9276
:1018E0008F929F92AF92BF92CF92DF92EF92FF9230
:1018F0000F931F93CF93DF9300D01F92CDB7DEB726
:101900009B838A837B016A0109838901061B170B6C
:1019100017FF03C011950195110946018A819B812A
:10192000881A990A97FE03C09194819491088016B1
:1019300091065CF49C2D8D2D6901292F382F9A81F9
:101940008B81FB82EA82E92EF82E8A819B81C81660
:10195000D9065CF49E2D8F2D7901292F382F9A817D
:101960008B81DB82CA82C92ED82E16018A819B8187
:10197000281A390A29014E185F0857FE03C05194EE
:1019800041945108310137FE03C09FEF691A790A6B
:10199000759467948FEFE216F3060CF481E0A82E9D
:1019A000880FBB088A819B81C816D906CCF0498173
:1019B000BC01C701801691061CF0B7018A819B818A
:1019C0000E9451076418750877FE04C0EA0CFB1CDE
:1019D000620C731C8A819B8101969B838A83E2CF70
:1019E0000F900F900F90DF91CF911F910F91FF906B
:1019F000EF90DF90CF90BF90AF909F908F907F90AF
:101A00006F905F904F903F902F900895CF930E94DA
:101A10008006C0916C02CC2331F010926C02C0E0C1
:101A20008C2FCF91089580916D02962F981B892F4E
:101A300090910101891730F48F5F891788F70E9410
:101A4000EA06EECF81E080936C0260936D02809194
:101A50006A0290916B02019690936B0280936A02E6
:101A6000C1E0DECF2F923F924F925F926F927F92B2
:101A70008F929F92AF92BF92CF92DF92EF92FF929E
:101A80000F931F93CF93DF9300D000D0CDB7DEB775
:101A9000542E2983702E92E0692E600E262F30E09E
:101AA0003C832B83E82EF12C462C440C142F141964
:101AB000A62CB12C6701CA0CDB1C21E0412F6B81E5
:101AC0007C81C6010E9433072B803C803981230E24
:101AD000311CB1016150710921E0412FC6010E9402
:101AE0003307898184198A838B809C808A0C9B1C94
:101AF00021E0482FB401C7010E946C0B8701050D3E
:101B0000111D21E04A81B401C80101970E946C0BAC
:101B100021E0462DB401C6010E9408080A191B09DC
:101B20000150110922E0462DB401C8010E940808A5
:101B300091012A193B09590131E0A31AB10824E0A7
:101B4000462DB501C8010E94080828E0462DB501C0
:101B5000C6010E94080889808CEF880E2B813C8189
:101B60002E5F3F4F3C832B8332E0E30EF11CC72CEA
:101B7000D12C5701AC0CBD1C1CEF150D452D441983
:101B800001E0282D6B817C81C5010E940A0C912CFB
:101B9000C601880F991F881A990A81E0881A91084E
:101BA0002B813C812C0D3D1D3C832B83E10EF11CD0
:101BB000C7018C199D09840121E0472D6B817C812F
:101BC00001970E94BF0B22E0472D6B817C81C501EC
:101BD0000E94BF0B0F900F900F900F90DF91CF914D
:101BE0001F910F91FF90EF90DF90CF90BF90AF903B
:101BF0009F908F907F906F905F904F903F902F902D
:101C000008958F929F92AF92BF92CF92DF92EF9200
:101C1000FF920F931F93CF93DF9300916602109171
:101C20006702B0E0A0E06F5F8F5FC12CD12C76011E
:101C3000C3949A2FEA2FE695E695E60FE7FD2AC0B2
:101C4000EA010A2E02C0D695C7950A94E2F7C0FFB2
:101C500021C0F0E0EE0FFF1FE00FF11FC185D2851C
:101C60009370980F223049F402C0D695C7959A9583
:101C7000E2F7C0FF0FC080E012C04601570104C068
:101C8000880C991CAA1CBB1C9A95D2F7C829D92983
:101C9000D287C1871196A031B10559F681E0DF9155
:101CA000CF911F910F91FF90EF90DF90CF90BF9059
:101CB000AF909F908F900895CF92DF92EF92FF9216
:101CC0000F931F93CF93DF93C0916602D091670269
:101CD000FE01E85BFF4FD0807E0123E4E20EF11CA1
:101CE0008E010C5B1F4FC95BDF4F83E18D15D8F070
:101CF000CC24C394CD0CD7018C91D801EC91B4E0E5
:101D00008B9FC0011124E80FF92FF11DEE0FFF1F6B
:101D1000EB55FE4F4081518122E06C2D88810E945D
:101D2000010E81110AC08D2DDF91CF911F910F916E
:101D3000FF90EF90DF90CF900895DC2CD6CF0F93DB
:101D4000E0915802F0915902022E000C330B260F3D
:101D5000311D67FD3A95220F331FE20FF31F840FE9
:101D60002185328502C0369527958A95E2F7217044
:101D7000332781E00217130609F080E00F910895E0
:101D8000CF92DF92EF92FF920F93E0915802F09181
:101D90005902C180D280E380F4809FEFC91AD90A2A
:101DA000E90AF90AC182D282E382F482022E000C8F
:101DB000330B260F311D67FD3A95220F331FE20FBB
:101DC000F31F21853285480F81E090E0A0E0B0E06C
:101DD00004C0880F991FAA1FBB1F4A95D2F7002382
:101DE00059F0822B932B9287818780E00F91FF908F
:101DF000EF90DF90CF900895809590958223932364
:101E0000F2CF942F990F490F440F8E5F480F4D3337
:101E100058F4822F880F280F220F6E5F620F81E027
:101E20006D3318F480E0089581E008956F927F92F9
:101E30008F929F92AF92BF92CF92DF92EF92FF92DA
:101E40000F931F93CF93DF93C82F162FD42F722E8B
:101E50006E2CF22EF094F2FE05C070E0202F90E080
:101E60000E943307F0FE08C0612F70E0202F4D2F35
:101E70008C2F90E00E946C0BF3FE0DC0812F8D0F14
:101E80009927991FBC0161507109202F4D2F8C2F6C
:101E900090E00E943307F1FE0CC0612F70E0202F0C
:101EA0004D2FEC2FED0FFF27FF1FCF0101970E9451
:101EB0006C0B72FE21C0E12EF12CCC2ED12C402FC8
:101EC000B701C6010E9451075601AD0EB11CF1E0E9
:101ED000AF1AB108402FB701C5010E94510721E098
:101EE000E21AF108402FB701C6010E945107402FA6
:101EF000B701C5010E94510770FE21C0C12ED12C2F
:101F0000EC2EF12C402FB601C7010E94510756015B
:101F1000AD0EB11C81E0A81AB108402FB501C70170
:101F20000E94510791E0E91AF108402FB601C7015C
:101F30000E945107402FB501C7010E94510773FE4F
:101F400024C0ED2EF12C5701A10EB11C4501E1E09A
:101F50008E1A9108CC2ED12C402FB401C6010E94BC
:101F60005107EC0CFD1CF1E0EF1AF108402FB40111
:101F7000C7010E945107402FB501C6010E945107B9
:101F8000402FB501C7010E94510771FE24C0C12E28
:101F9000D12CED2EF12C5701AC0EB11C450121E0E6
:101FA000821A9108402FB601C4010E945107EC0C1F
:101FB000FD1C81E0E81AF108402FB701C4010E941E
:101FC0005107402FB601C5010E945107402FB701AC
:101FD000C5010E945107662059F08C2F90E0E2E085
:101FE0006E1215C0612F70E02D2F4D2F0E940A0C2C
:101FF000DF91CF911F910F91FF90EF90DF90CF90E5
:10200000BF90AF909F908F907F906F9008957C01CC
:102010008D2E912C6401CE0CDF1CA12EB12C8A0CCC
:102020009B1CEC14FD0424F7E501C815D90564F4E4
:10203000CE018E0D9F1D80FF05C0402FBE01C70140
:102040000E9451072196F1CFFFEFEF1AFF0AE9CF67
:10205000EF920F93A82F862F342F330F340F330FA7
:1020600092E09A0F390F3D3390F5522F550F520FD2
:10207000550F92E0960F590F5D3348F5E0915802E5
:10208000F0915902B6E06B2F0E949931622F220F16
:10209000770B680F711D87FD7A95660F771FE60F26
:1020A000F71F8A2F6B2F0E949931480F81859285E7
:1020B00002C0969587954A95E2F780FD0CC082E0B4
:1020C0002E2DE82E45E0652F832F0E94160F80E00D
:1020D0000F91EF90089581E0F3CFEF920F93220FCD
:1020E000220F620F942F990F990F22E0E22E20E029
:1020F00043E0890F0E94160F80E00F91EF90089542
:102100006F927F928F929F92AF92BF92CF92DF9207
:10211000EF92FF920F931F93CF93DF93C0915802DA
:10212000D091590289819A81AB81BC814D815E81B8
:102130006F817885481759076A077B0720F48D83DC
:102140009E83AF83B88700E025E04CE162E070E059
:1021500081E490E00E940A0C29813A814B815C81E4
:1021600097E0E92E01E062E081E40E94750A00E058
:1021700025E04AE162E070E086E690E00E940A0C09
:102180002D813E814F815885E12C01E062E086E699
:102190000E94750A12E0D12CC12C88248394912CC2
:1021A00034010C2C02C0660C771C0A94E2F75E0125
:1021B00089E0A80EB11C82E0F82EF5018191919181
:1021C0005F0186219721E12C01E0892B09F400E0D1
:1021D00020E045E06F2D812F0E94160FF6E0FF0EE4
:1021E0008EE3F812EACFEFEFCE1ADE0A1A5F1E3343
:1021F000B9F6DF91CF911F910F91FF90EF90DF9093
:10220000CF90BF90AF909F908F907F906F900895E8
:102210009F92AF92BF92CF92DF92EF92FF920F9375
:102220001F93CF93DF93F82EB62EEA01A22E6801FA
:1022300010E085E0982E812F692D0E948D31E92FC5
:10224000F0E0882381F0DE01A80FB11D87FDBA956B
:1022500011974C9150E0092E02C0559547950A946C
:10226000E2F734E040FF30E0DE01A80FB11D119627
:102270004C91119750E0092E02C0559547950A944C
:10228000E2F740FD38606C9170E0992359F0AF019E
:1022900041505109DB0102C0B595A7954A95E2F777
:1022A000A0FD31603196AB0102C055954795EA9586
:1022B000E2F740FD3260092E02C0759567950A94D9
:1022C000E2F760FD06C01F5F193109F0B4CF81E06D
:1022D0000BC0E32E0A2D282F492F6B2D8F2DF601D1
:1022E0000995882381F380E0DF91CF911F910F91B1
:1022F000FF90EF90DF90CF90BF90AF909F900895A8
:10230000EF92FF920F931F93CF93DF9300E027E1AB
:1023100042E468E270E080E490E00E940A0CD0E0C1
:10232000C0E085E0F82E96E1E92EE0915802F091A8
:102330005902EC0FFD1F40A1433178F44F9DA001DD
:102340001124445E5E4FCE9D802D11240DE610E1D8
:1023500021E06AE2805C0E9408112196C330D10519
:1023600021F7DF91CF911F910F91FF90EF9008958A
:10237000089590E080E00895FB0101900020E9F7C6
:102380003197AF01461B570BDC01ED91FC910280A8
:10239000F381E02D09948F929F92AF92BF92EF92BA
:1023A000FF920F931F93CF93DF93CDB7DEB7A19723
:1023B0000FB6F894DEBF0FBECDBF7C01FA01CB0192
:1023C00019A2223008F42AE08E010F5D1F4F822EE1
:1023D000912CB12CA12CBF01A50194010E943F2E8C
:1023E000F901CA016A300CF5605DD8016E938D0168
:1023F000232B242B252B79F790E080E0109721F0F8
:10240000BD01C7010E94BC11A1960FB6F894DEBFB2
:102410000FBECDBFDF91CF911F910F91FF90EF9035
:10242000BF90AF909F908F900895695CDECFCF935F
:10243000C82F843690F462E072E080916802909137
:1024400069020E94BC11CA3040F462E072E08091DF
:102450006802909169020E94BC114C2F50E070E01C
:1024600060E02AE08091680290916902CF910C941B
:10247000CB11CF93DF9387E490E090937406809321
:10248000730682E190E09093720680937106E0916A
:102490006602F091670241815281638174812AE072
:1024A00080916802909169020E94CB11CAE6D0E047
:1024B000D0937406C093730685E290E09093720601
:1024C00080937106E0916602F091670281AD0E94EF
:1024D0001712D0937406C093730685E390E090932F
:1024E000720680937106E0916602F091670282ADF8
:1024F000DF91CF910C941712BF92CF92DF92EF929F
:10250000FF920F931F93CF93DF9300916602109178
:102510006702E801CE5BDF4F888190E0019667E0BB
:1025200070E00E94BB318883892B01F5055C1F4F49
:1025300087E0C82ED12CE12CF12C0E949F2DBA905F
:10254000A70196010E940D2E0E94A82F0E94772FAE
:10255000F801E60FF11D80818883B08281E0C81AFE
:10256000D108E108F108C017D10739F78091660258
:1025700090916702DC01AD5BBF4FFC01EB5BFF4F4D
:1025800020812C931196EC01CA5BDF4F28812C939C
:1025900012972C91820F911DDC01DB968C91808328
:1025A0000E949F2DC0916602D0916702CA5BDF4FE7
:1025B00024E030E040E050E00E940D2E6883DF917F
:1025C000CF911F910F91FF90EF90DF90CF90BF9030
:1025D00008952F923F924F925F926F927F928F92C7
:1025E0009F92AF92BF92CF92DF92EF92FF920F93A2
:1025F0001F93CF93DF93CDB7DEB7A3970FB6F894B1
:10260000DEBF0FBECDBFFB01B42E3B8F2A8F1D8FC7
:102610000C8FFF8EEE8E9093690280936802709308
:1026200067026093660221E04213FDC011821282AC
:102630001382148212AE11AEDB01A95BBF4F13E00F
:10264000A12EAC92E85BFF4F10820E949F2D00915B
:102650006602109167020B5B1F4F27E030E040E0FD
:1026600050E00E940D2ED8016C930E949F2D009186
:102670006602109167027801B6E4EB0EF11C24E0CB
:1026800030E040E050E00E940D2EF7016083349767
:1026900086E08083D801DB961C92DB97DC96BC92A7
:1026A000DC9792E0DD969C93DD97DE96AC92DE9708
:1026B00094E0DF969C93329795E0908331968083E7
:1026C000F897C801C99621E038E0219331938E171D
:1026D0009F07D9F78FEF9FEFF80190AF87AB0E946C
:1026E0007C12E0916602F091670281E0808380E4D1
:1026F0000E947209882309F4FAC012E080E20E9465
:1027000041098111EDC080E40E9441098111E8C0B6
:102710000E94060D882391F30E9469090E94B10866
:10272000EE24E39407E027E04AE151E06CE170E039
:102730008CE190E00E948D0927E043E151E064E1E3
:1027400070E08EE490E00E948D0927E04CE051E0BB
:1027500064E270E08EE490E00E948D09A090660231
:10276000B0906702F9E4AF0EB11CD5018C9180FBEB
:10277000CC24C0F8D12C81FD03C0A3E0CA2ED12CFB
:1027800087E08C9DA0018D9D500D112447515F4F16
:10279000EE24E39407E027E06CE070E08CE190E049
:1027A0000E948D09F501808182FF75C083E090E071
:1027B000F7E0FF2EF89EA001F99E500D112447511D
:1027C0005F4FEE24E39407E027E06CE270E08CE1D9
:1027D00090E00E948D09D5014C9141704F9DA00160
:1027E000112447515F4F27E064E170E08CE590E0F1
:1027F0000E948D09F501808183FD09C027E045E035
:1028000051E064E270E08CE590E00E948D0988E080
:102810000E944109882309F441C0D5018C9191E0BF
:1028200089278C936BCF411162CFE0916602F091C2
:1028300067028081AA8DBB8D8C9341815281638117
:102840007481AC8DBD8D4D935D936D937C93139787
:1028500085819681A781B085EE8DFF8D80839183E0
:10286000A283B383A3960FB6F894DEBF0FBECDBF8D
:10287000DF91CF911F910F91FF90EF90DF90CF905C
:10288000BF90AF909F908F907F906F905F904F9090
:102890003F902F90089582E090E08ACF84E00E94DC
:1028A0004109882331F0F501808198E089278083F0
:1028B00025CF80E80E944109882321F0D5018C9121
:1028C0008127AFCF80E10E944109882321F0F501E3
:1028D000808194E0EBCF0E947D090E94EA060ECF32
:1028E0000E94060D811103C00E94EA06F9CF81E023
:1028F000809370021092000140906A0250906B0227
:10290000FFE04F0E511C0E94B10801E02DE04FE2A4
:1029100060E08EE30E94320D21E043E167E070E069
:102920008BE290E00E94EF0621E043E167E070E077
:102930008DE690E00E94EF06E7E4EE2EF12CF09297
:102940007406E092730683E090E0909372068093A1
:1029500071066DE271E080916802909169020E94B7
:102960008C0621E045E56FE070E08BE290E00E948C
:10297000EF0629E044E561E170E08CE290E00E941E
:102980000A0C21E045E56BE170E08BE290E00E94EB
:10299000EF062DE04EE362E282E40E94320DF092F7
:1029A0007406E092730685E290E09093720680933D
:1029B000710667E271E080916802909169020E945D
:1029C0008C062DE04EE362E382E40E94320DF09229
:1029D0007406E092730685E390E09093720680930C
:1029E000710661E271E080916802909169020E9433
:1029F0008C0600E021E141E168E28EE20E94320DA6
:102A000021E04FE370E060E090E080E00E946C0B1A
:102A100021E04FE370E060E081E090E00E946C0B09
:102A200021E04FE370E060E089E290E00E946C0BEF
:102A300021E04FE370E060E08AE290E00E946C0BDE
:102A400041E06CE370E084E290E00E94390741E0ED
:102A50006EE370E085E290E00E94390705E010E047
:102A600041E06CE370E0C8010E94510741E06CE373
:102A700070E0C80101960E945107780123E0E20E40
:102A8000F11C41E06CE370E0C7010E94510741E096
:102A90006EE370E0C8010E94510741E06EE370E010
:102AA000C80102960E94510741E06EE370E0C70141
:102AB0000E94510787010332110591F610E000E0F2
:102AC00041E0B80182E090E00E94510741E0B80186
:102AD00083E090E00E94510741E0B80185E090E07A
:102AE0000E94510741E0B80185E290E00E94510741
:102AF00041E0B80186E290E00E94510741E0B80150
:102B000088E290E00E945107780132E0E30EF11C68
:102B100041E0B70182E090E00E94510741E0B70137
:102B200084E090E00E94510741E0B70185E090E029
:102B30000E94510741E0B70185E290E00E945107F1
:102B400041E0B70187E290E00E94510741E0B70100
:102B500088E290E00E9451070C5F1F4F003411057E
:102B600009F0AECF0E943912B12C0E94060D8823C5
:102B7000E1F30E94690984E00E9441090091660224
:102B800010916702811117C24B2D4B7F4B87780143
:102B900089E4E80EF11CD701DC90D1FC05C080E887
:102BA0000E944109811107C0D2FE0FC080E10E943E
:102BB0004109882351F00E945C0EF801E85BFF4F49
:102BC0008083BB85B160BB8739C080E10E947209F8
:102BD000882311F0B1FE05C080E10E9441098823DD
:102BE00069F16801E8E4CE0ED11CD601AC9080E119
:102BF0000E947209A80EF801ED5BFF4F80813196AB
:102C0000E081B4E08B9FC0011124E80FF92FF11D82
:102C1000EE0FFF1FEB55FE4F4081518122E06A2DE0
:102C2000F801E95BFF4F80810E94010E882309F4BF
:102C30006BC0EB2DE97FEB87D601AC9280E20E945E
:102C40007209882309F462C00E94800680906202A3
:102C500090906302A0906402B090650268197909AF
:102C60008A099B096B3F71058105910508F453C0E2
:102C700080E20E944109811105C080E40E9441095F
:102C8000882351F00E948006609362027093630271
:102C900080936402909365026801E7E4CE0ED11C34
:102CA000D601BC9080E40E947209B80E80E20E94B6
:102CB0007209B81AF801ED5BFF4F80813196E0810F
:102CC000B4E08B9FC0011124E80FF92FF11DEE0F26
:102CD000FF1FEB55FE4F4081518122E0F801E85B78
:102CE000FF4F60818B2D0E94010E8823A1F0EB85A0
:102CF000EE7FEB87D601BC9240906A0250906B0247
:102D0000BFE04B0E511C07C0B1E05DCF80E40E94D4
:102D10007209811199CF88E00E944109F701F08082
:102D2000811108C0F1FE66C080E80E944109882335
:102D300009F460C03801F4E46F0E711CD3018C916A
:102D400090E005962F2D30E0220F331F7C01E21A10
:102D5000F30AB3E0EB22FF243E2C4801E3E48E0E9D
:102D6000911CD401EC91B4E0EB9FF0011124EE0D25
:102D7000FF1DEE0FFF1FEB55FE4F408151815801A3
:102D8000E8E4AE0EB11C6801F7E4CF0ED11C22E0DE
:102D9000D5016C91F60180810E94010E81111DC048
:102DA000D401EC91B4E0EB9FF0011124EE0DFF1D76
:102DB000EE0FFF1FEB55FE4F40815181F6018081E0
:102DC00022E0D5016C918F5F0E94010EF601908187
:102DD000882309F4F6C09F5F9083F3012081832D3F
:102DE000032C000C990B2817190609F026C1FB8546
:102DF000F460FB87EB85E0FD3DC0C0906A02D09097
:102E00006B02D801D996EC91E83108F0E7E1F0E0E7
:102E1000E357FE4F6081669570E0C6010E94A731BE
:102E2000892B41F5F801ED5BFF4F80813196E08100
:102E3000B4E08B9FC0011124E80FF92FF11DEE0FB4
:102E4000FF1FEB55FE4F408151817801E8E4EE0E03
:102E5000F11CD7016C916F5F22E0F801E95BFF4F35
:102E600080810E94010E882309F4F4C0F70180815B
:102E70008F5F80833B8530FF07C180916A0290910C
:102E80006B028415950508F4FFC0F801ED5BFF4F58
:102E900080813196E08144E0849FC0011124E80FD5
:102EA000F92FF11DEE0FFF1FEB55FE4F40815181B1
:102EB00021E0F801E85BFF4F6081319780810E943B
:102EC000010E8AE0E2E1F1E0DE01119601900D923F
:102ED0008A95E1F7F8013D9680E092E021913191E9
:102EE0002F3F3F40C1F48F5F692F262F30E0D9017B
:102EF0001197AA0FBB1FA00FB11F19964D915C919E
:102F0000220F331FD801A20FB31F1A965C934E9362
:102F10001997615051F79F5F973101F7F80141AD63
:102F200050E04F5F5F4FE82FF0E0EE0FFF1F21E012
:102F300030E02C0F3D1FE20FF31F60817181469F2F
:102F40009001479F300D569F300D1124D8011196E6
:102F50004D915D916D917C911497420F531F611DAE
:102F6000711DF8014183528363837483C580D680C9
:102F7000E780F084C416D506E606F70630F4159609
:102F80004D935D936D937C931897F80192AD890FE3
:102F900082AF6AE00E948D3181AF0E943912E091C8
:102FA0006602F0916702DF01A85BBF4F8C9182300F
:102FB00008F058C010821092700281E080930001E6
:102FC00034CCD401EC91B4E0EB9FF0011124EE0D70
:102FD000FF1DEE0FFF1FEB55FE4F4081518122E098
:102FE000F50160818FEF890F0E94010E882329F07F
:102FF000D6018C9181508C93F0CED401EC91B4E049
:10300000EB9FF0011124EE0DFF1DEE0FFF1FEB559E
:10301000FE4F40815181F5016081615022E0D6016F
:103020008C910E94010E882329F0F5018081815046
:103030008083D3CED3013C90D0CE8B858E7F8460AD
:103040008B87308240906A0250906B02BFE04B0E3B
:10305000511CD0CEFB85F160FB8726012FE0420E8C
:10306000511C08CFE95BFF4F23E020831C928B8526
:103070008E7F82608B870E947C1240906A02509003
:103080006B023FE0430E511CA6E02A2E312C07E0D4
:1030900010E081E090E09D878C87A1E0B0E00C8497
:1030A00002C0AA0FBB1F0A94E2F7BF87AE87E3E016
:1030B0006E2E712CF2E0CF2ED12C5601B2E0AB1A5D
:1030C000B10820E042E0B601C8010E94330720E0C9
:1030D00042E0B501C1010E946C0BE0906602F090E5
:1030E00067024601E1E08E1A9108F301EE0FFF1F1F
:1030F000EE0DFF1D818592852E853F8582239323CA
:10310000892B09F4A0C121E042E0B501C8010E9469
:10311000330721E042E0B401C8010E94330733E0E5
:10312000C30ED11C4FEF641A740A8EE3C816D10483
:1031300021F6AC85BD851196BD87AC870D5F1F4F0D
:10314000B3E02B0E311C0532110509F0A6CF0E9409
:103150005C0E982E01E02DE04DE06AE270E080E325
:1031600090E00E940A0CF3E09F9EF0011124F98F79
:10317000E88F312C212C9701295B3F4F39A328A3DD
:10318000C701875B9F4F9BA38AA3D701AD5BBF4F4E
:10319000B98BA88BF701EC5BFF4FFB8BEA8B2F5FA2
:1031A0003F4F3D872C8704979D8B8C8B1396BF8B4D
:1031B000AE8BB22DB3708B2E122D169516950B2F4C
:1031C000000F0B0F095FE12EEE0CE10EE8A1F9A153
:1031D0008081C82ECC0CC80EC00EF22CAAA1BBA1B7
:1031E0008C9183FD2BC0EC85FD858081891530F5A0
:1031F000A889B9898C91AA89BB89EC91B4E08B9F8D
:10320000C0011124E80FF92FF11DEE0FFF1FEB5540
:10321000FE4F80819181022C02C0969587950A9479
:10322000E2F780FF0BC0688D798D6E0D711D6650C1
:10323000710941E08C2D90E00E945107E889F989DD
:103240008081AA89BB89EC91B4E08B9FC0011124D5
:10325000E80FF92FF11DEE0FFF1FEB55FE4F808198
:1032600091819C010F2C02C0369527950A94E2F7B4
:1032700020FF6BC0E4E01E9F30011124062C02C029
:10328000969587950A94E2F721E0280D02C096955D
:1032900087952A95E2F780FDDEC0F2E0FE87AE2C2E
:1032A000B12CD12CAC85BD858C91B501B3E08B9F41
:1032B000600D711D11246550710921E04E85C60114
:1032C0000E943307EC85FD858081B501F3E08F9F77
:1032D000600D711D11246650710921E04E85C601F3
:1032E0000E943307A889B9898C91AA89BB89EC917E
:1032F000B4E08B9FC0011124E80FF92FF11DEE0FF0
:10330000FF1FEB55FE4F24E0620E711C80819181FE
:1033100002C0969587956A94E2F7082C02C09695AC
:1033200087950A94E2F780FF10C0AC85BD858C912B
:10333000B501B3E08B9F600D711D112464507109BC
:1033400021E042E0C6010E943307EC89FD898081BB
:10335000AE89BF89EC91B4E08B9FC0011124E80FC6
:10336000F92FF11DEE0FFF1FEB55FE4F808191816C
:103370009C0102C036952795FA94E2F720FF55C0CC
:10338000E4E01E9F600111240C2C02C096958795E5
:103390000A94E2F721E0280D02C0969587952A95B8
:1033A000E2F722E0B22E80FF02C093E0B92EF12CAA
:1033B00010E0065D1F4FB701655D7F4F20E04B2D8C
:1033C000C8010E943307B701645D7F4F20E04B2D99
:1033D000C8010E943307AC89BD898C91AE89BF8931
:1033E000EC91B4E08B9FC0011124E80FF92FF11D7F
:1033F000EE0FFF1FEB55FE4F24E0C20ED11C808163
:10340000918102C096958795CA94E2F702C096957D
:1034100087958A94E2F780FF08C0B701635D7F4F0C
:1034200020E042E0C8010E9433073FEF231A330A2D
:1034300040E12416310409F0BCCE0E947D090E94AF
:10344000EA06BB8492CB20E042E0B501C8010E94AD
:10345000330720E05FCE23E02E8721CFEF92FF924B
:103460000F931F93CF93DF938C0180915C02DFE079
:1034700081FD0AC00E949F2D2AE030E040E050E02C
:103480000E940D2ED5E0D60FE0915E02F0915F0212
:10349000C5858685C80F8285C81B8385C81B80911A
:1034A0005C0265E080FD1DC026E330E07901ED1A85
:1034B000F10865E070E080E090E086E0E816F10455
:1034C00084F00E949F2D9701FF0C440B550B255053
:1034D0003109410951090E940D2E6B5F7F4F8F4FBB
:1034E0009F4F6C0FF8016083D18310925C02DF91D3
:1034F000CF911F910F91FF90EF900895CF92DF929F
:10350000EF92FF92CF93DF930E949F2DC0915802BC
:10351000D091590223E1C22ED12CE12CF12CA7012C
:1035200096010E940D2E68A30E949F2DC091580203
:10353000D0915902A70196010E940D2E69A30E9405
:103540009F2DC0915802D0915902A70196010E9467
:103550000D2E6AA38FEF8F8FDF91CF91FF90EF90A9
:10356000DF90CF9008952F923F924F925F926F928B
:103570007F928F929F92AF92BF92CF92DF92EF9203
:10358000FF920F931F93CF93DF93CDB7DEB72B97A7
:103590000FB6F894DEBF0FBECDBF3F832E831987D1
:1035A0000887FB86EA8690935B0280935A027093A9
:1035B000590260935802413009F0DDC0DB014C93A1
:1035C000FB011182128213821482675F7F4F84E1B4
:1035D000DB011D928A95E9F70E947E1A0E94B108CC
:1035E0006FE38FE30E94950BEE24E39408E028E05C
:1035F0004AEC50E061E070E08DE590E00E948D09BA
:103600000E9480100E947D0925E0F22EFE01319675
:103610002F01E0915802F091590280A187FF07C065
:1036200081A187FF04C082A187FD0E947E1AD12C50
:10363000C12C212CE0915802F0915902EC0DFD1D96
:1036400080A187FD88C0912CE12CE0915802F09177
:103650005902EC0DFD1D40A14F9DA0011124445EB7
:103660005E4F01E01FE021E060E0892D0E9408111B
:103670008111B9C0BB24B394BE0C912CE12CE09114
:103680005802F0915902EC0DFD1D40A14F9DA00183
:103690001124445E5E4F01E01FE021E0692D80E0CF
:1036A0000E9408118111A6C0AA24A394AE0CE12C9B
:1036B0008A2C0A2C000C99086B2C0B2C000C770818
:1036C000312CE0915802F0915902EC0DFD1D40A102
:1036D0004F9DA0011124445E5E4FC401830D911DD6
:1036E00037FC9A95682F660F680F660F93012E0DB1
:1036F000311DE7FC3A95822F880F820F01E01FE011
:1037000021E0880F0E9408118823E1F0E09158021F
:10371000F0915902EC0DFD1D40A14F9DA001112417
:10372000445E5E4F0FE91EE021E06A2D630D8B2D94
:103730008E0D0E940811882329F023948AE0382EE8
:103740009AE0E92E339499E0931508F0BACFE39408
:103750009E1508F0B5CFAFEFCA1ADA0AB3E0CB1660
:10376000D10409F067CFE0915802F091590221107D
:1037700048C0108202C0411131CFE0915802F0914F
:1037800059028081AE81BF818C93418152816381D6
:103790007481A885B9854D935D936D937C93139740
:1037A00085819681A781B085EA85FB858083918399
:1037B000A283B3832B960FB6F894DEBF0FBECDBFA6
:1037C000DF91CF911F910F91FF90EF90DF90CF90FD
:1037D000BF90AF909F908F907F906F905F904F9031
:1037E0003F902F900895EA94FAEF9F0E2BEFE2128C
:1037F0002CCF43CFEA943AEF930E8BEFE8123FCFF2
:1038000056CF11E0812F90E0DF01A80FB91F9096ED
:103810002C9127FF40C0019663E070E00E94BB310D
:10382000182FF0CF80E40E944109082F80E20E9407
:103830004109081B202F000F330B812F90E00396C6
:10384000820F931F63E070E00E94BB314C01182F80
:10385000F601E80FF91F80A187FDEFCF0E948011CC
:1038600026E1289D6001299DD00C112430E4C30E6F
:10387000D11C21E043E168E270E0C6010E94EF063E
:1038800021E043E16EE370E0C6010E94EF060E9472
:103890007D090E94EA060E94060D8823E1F30E943A
:1038A000690984E00E944109C0905802D0905902F1
:1038B000811163CF88E00E944109882309F4B2CFC7
:1038C000F601178FE10FF11D90A1906890A3E2E13E
:1038D000D6015D96EC935D97F2E15E96FC930E94B3
:1038E00080110E948010E0915802F0915902878D5A
:1038F000DF01A80FB11D87FDBA9590968C9190E0DD
:103900008F77F89EA001F99E500D1124445E5E4F02
:1039100008E210E121E0668D858D0E9408110E9469
:103920007D090E94060D8823E1F30E946909E09158
:103930005802F0915902878DDF01A80FB11D87FD54
:10394000BA9590968C9190E08F77F89EA001F99EA1
:10395000500D1124445E5E4F08E210E120E0668DB8
:10396000858D0E94081184E00E944109C090580290
:10397000D0905902882309F475C0D6015F968C91C6
:10398000F601E80FF11D87FDFA9580A18F7780A3DE
:103990002FEFF601278FC0905802D090590290E087
:1039A00080E010E0A601435E5F4FE82E61E070E02A
:1039B000082E02C0660F771F0A94E2F7F6013996C7
:1039C0004F0100E0D4012D913D914D012623372375
:1039D000232B09F00F5F48155905A1F70A3031F480
:1039E0009201210F311DD901EC921F5F01968A309F
:1039F0009105D9F6712E819191918F3F9340B9F441
:103A0000CF010297DC011D921C92D60111964D91B7
:103A10005D916D917C911497465F5F4F6F4F7F4F23
:103A200011964D935D936D937C93149773948E16BA
:103A30009F0609F74201882D8419811708F021C1DA
:103A4000612CE12C00E0262DF401408160E080E053
:103A50000E94C00E6394FAE06F12F3CF2FEF821A28
:103A6000920AE9CF88E00E944109882309F452C0F4
:103A7000D6015F968C91F601E80FF11D87FDFA954E
:103A800080A190E08F77F89EA001F99E500D11243F
:103A9000445E5E4FF601868D66E00E949931382FB4
:103AA000858D66E00E9499310FE91EE021E0632FC9
:103AB0000E940811882309F434CFE0915802F09154
:103AC0005902878DDF01A80FB11D87FDBA95909629
:103AD0008C9190E08F77F89EA001F99E500D1124F3
:103AE000445E5E4F868D66E00E949931382F858D49
:103AF00066E00E94993100EC1EE021E0632F0E94F5
:103B00000811E0915802F09159022FEF278F0E947F
:103B1000801041CF80E20E947209882309F49FC07F
:103B20000E94800600915402109155022091560285
:103B300030915702601B710B820B930B6B3F710529
:103B40008105910508F49AC080E20E944109811123
:103B50000FC080E40E94410981110AC080E80E94E0
:103B60004109811105C080E10E944109882351F07B
:103B70000E9480066093540270935502809356020F
:103B80009093570280E40E947209982E80E20E946E
:103B90007209A92DA81BBB0B9A2E990C9A0E990C91
:103BA00080E10E947209E82E80E80E947209EE2DE1
:103BB000E81BFF0BEE2EEE0CEE0EEE0CD6015F9620
:103BC0008C91F601E80FF11D87FDFA9580A190E038
:103BD0008F77F89EA001F99E500D1124445E5E4F30
:103BE000F601668D6E0D858D01E01FE021E0890DE7
:103BF0000E940811882309F441C0C0905802D09057
:103C00005902D6015D968C915D97980E5D969C92B7
:103C10005D975E968C915E97E80E5E96EC920E94A0
:103C20008010F601878DE80FF11D87FDFA9580A1C0
:103C300090E08F77F89EA001F99E500D1124445E0C
:103C40005E4F08E210E121E0D6015E966C915E972E
:103C50005D968C910E9408110E947D090FC080E43E
:103C60000E94720981115CCF80E80E947209811163
:103C700057CF80E10E947209811152CF0E94EA065B
:103C800050CE31E03715D0F4A72DA150BB0B2AE060
:103C90002A9FA0012B9F500D1124052E000C660BAE
:103CA000770BF60181819281A381B481840F951FE6
:103CB000A61FB71F81839283A383B4830E948010C1
:103CC000A8CC4F925F926F927F928F929F92AF9209
:103CD000BF92CF92DF92EF92FF920F931F93CF93F9
:103CE000DF930E94B108C0915E02D0915F02888983
:103CF000082E000C990B60E870E00E94BB31888BA5
:103D00003BE7E32E31E0F32E8BE8E81681E0F8067E
:103D1000F1F0E8890E2E000CFF0BD70113962C91C1
:103D2000139730E012964C91129750E04E1B5F0BA8
:103D300011966C91119770E08C9190E001E08E1BD0
:103D40009F0B0E946A0CB2E0EB0EF11CDDCFEE245B
:103D5000E39408E028E041EE50E061E070E08DE59A
:103D600090E00E948D0900E025E04CE162E070E007
:103D700081E490E00E940A0C29813A814B815C81A8
:103D800087E0E82E01E062E081E40E94750A00E02D
:103D900025E04AE162E070E086E690E00E940A0CCD
:103DA0002D813E814F815885E12C01E062E086E65D
:103DB0000E94750A95E0C92ED12CAA24A394B12C97
:103DC000912C812C15E0F9846F2D70E090E080E05B
:103DD0000E94A62F20E030E040EA50E40E94FE2E30
:103DE0000E94DD2E2B013C01B401092C000C880B34
:103DF000990B0E94A82FA30192010E94F42E87FF25
:103E00001DC08FEF881A980A95E0FC141D0424F455
:103E10008F2D612F0E948D31EE24E39405E0292F30
:103E200042ED50E061E070E0C5010E948D0996E02E
:103E3000A90EB11CA5E0CA0ED11CC5CF8989882363
:103E400081F04A89B5E04B9FA00111244E525F4F8B
:103E5000EE24E39405E025E069E370E090E00E9441
:103E60008D0940915D02442379F02A858B85082EC7
:103E7000000C990B820F911D27FD9A9521E066E3B6
:103E800070E001970E94EF066A857B858C850E9411
:103E90002C0C6D857E858F85DF91CF911F910F91C1
:103EA000FF90EF90DF90CF90BF90AF909F908F905A
:103EB0007F906F905F904F900C942C0C2F923F92BC
:103EC0004F925F926F927F928F929F92AF92BF922A
:103ED000CF92DF92EF92FF920F931F93CF93DF93D6
:103EE000CDB7DEB7A4970FB6F894DEBF0FBECDBF37
:103EF000FB013C8B2B8B1E8B0D8BF88EEF8A9093E6
:103F000061028093600270935F0260935E024130B1
:103F100009F08AC0408311821282138214821186B2
:103F2000118A128A8DEE828784E28387148680E26A
:103F3000858716861786CB010D960E942E1A109241
:103F40005D0220905E0230905F02D1018C91882347
:103F500009F46CC084E00E944109811167C00E948D
:103F6000060D882371F30E9469090E94611EF10108
:103F700062858385680F65504DE280E00E94090BE1
:103F80000E944C09882309F4C3C384E00E944109BC
:103F90008111BEC3D1011A969C911A971B968C91E0
:103FA000980F9A87D92EDA9410925D020D2D0D2C60
:103FB000000C110B88E00E94360981116DC084E06D
:103FC0000E943609811168C080E80E94360981117B
:103FD00063C080E10E94360981115EC080E20E94C8
:103FE0003609811159C080E40E943609811154C0FC
:103FF0000E94060D8823F1F20E94690980915D02FA
:1040000041E0863308F040E0480F40935D0267E3EB
:1040100070E0641B710921E0C8010E946C0B0E94D2
:104020007D090E94EA06C6CF411189CFE0915E0268
:10403000F0915F028081AB89BC898C934181528170
:1040400063817481AD89BE894D935D936D937C933B
:10405000139785819681A781B085EF89F88D80833C
:104060009183A283B383A4960FB6F894DEBF0FBEEC
:10407000CDBFDF91CF911F910F91FF90EF90DF9017
:10408000CF90BF90AF909F908F907F906F905F90F8
:104090004F903F902F90089510915D02E12EF12CEA
:1040A000ED2D0D2C000CFF0BFD83EC8367E370E01E
:1040B0006E197F0920E0412FCF010E946C0BD101C6
:1040C0001D968C911D97E82F880FFF0BFC87EB87BF
:1040D0001A962C911A971B968C91082E000C990B0E
:1040E000820F911D27FD9A9501979C012E0D3F1D72
:1040F0003E872D87E217F3070CF4A4C06BED7FE039
:1041000089E490E46F87788B898B9A8B412C512CB2
:104110003201B701FF0C880B990B6D8F7E8F8F8F4B
:1041200098A38D2DDD0C990BAA0BBB0B89A39AA329
:10413000ABA3BCA3A30192016F85788989899A8971
:104140000E94D83018160CF086C00E94060D8823F5
:1041500089F32BED3FE049E450E4C301B2010E9432
:10416000712E2BED3FE049EC5FE30E94712E4B0175
:104170005C010E944A316E837F83888799876D8DA9
:104180007E8D8F8D98A10E94A82F6B017C01C501A7
:10419000B4010E94F92E4B015C01A70196016E81CA
:1041A0007F81888599850E94DD3020E030E048E5F8
:1041B00052E40E94712E0E94702FA62F660FBB0B37
:1041C000BF83AE8369A17AA18BA19CA10E94A82F75
:1041D000698F7A8F8B8F9C8FA5019401C701B601DF
:1041E0000E94DD309B01AC01698D7A8D8B8D9C8D99
:1041F0000E94712E0E94702FE62E660FFF0801E0CC
:104200002E813F81A70166E370E08C819D810E9431
:104210006A0C0E947D0900E02E813F81A70166E3C0
:1042200070E08C819D810E946A0C20E537E746E5AD
:104230005EE3C301B2010E94712E2B013C010E947A
:10424000EA0678CF8BED9FE0A9ECBFE38F87988BD0
:10425000A98BBA8B5BCFEB85FC852D853E85E2175C
:10426000F3070CF010E010935D028C809D80810EAE
:10427000911CD1011D968C911D971E96CC900C2CF3
:10428000000CDD08C80ED11C87FDDA94960125507C
:104290003109882D821693060CF4822F682E0A8528
:1042A0000550F10192854385940F9150190FA12E6D
:1042B000012E000CBB08CA14DB043CF0682E880FEA
:1042C0007708261537050CF43901E02E002E000C76
:1042D000FF08F4E0EF0EF11C512C712C06150CF0C8
:1042E00023C10E94060D8823C9F30E9469090E9418
:1042F0004C099701245031093D832C83882379F0A0
:10430000D1011D968C91082E000C990B295F3F4F0F
:104310002817390724F4772009F4D2C0712C0E94A1
:10432000611E802F63E00E9499314DE2602F892F3A
:1043300087290E94090B0E947D09EA14FB043CF0C6
:10434000F101858581179CF4CA14DB0484F0772081
:1043500009F4E3C0D1011D968C91082E000C990B35
:1043600097012D5F3F4F281739070CF4C3C0F101A7
:1043700010821DE28FEF711002C013E281E00C5F2A
:10438000080F103409F09FC0D10151961C9251972B
:1043900052961C92512CD1018C91882309F4BDC1F5
:1043A0001D96FC901D971E962C91822F27FF02C010
:1043B00081E0820F85954F2D0F2C000C550BFA01D3
:1043C000E80FF11D87FDFA95A4014150510911E054
:1043D000E417F50709F010E0150D31E0310FF10198
:1043E00081819281A381B481830F911DA11DB11D93
:1043F00081839283A383B4834581568167817085CD
:10440000481759076A077B0720F485839683A7839B
:10441000B087112309F48BC0F20EFBEFFF0E3BE2D5
:10442000D32EAF2C0F2C000CBB0895012450310962
:104430003D832C8333E0A31AB108412E512C712CFB
:10444000612C0E944C09811172C01D140CF06FC0C8
:104450000E94060D8823A9F30E9469090E94611E2B
:104460008D2C0D2C000C9908B4016E5F7F4F21E05C
:1044700043E08C819D810E943307B4016F5F7F4FC1
:1044800021E043E0C5010E946C0BE12C01E0A30197
:1044900092016D2D8F2D0E94750A4DE26F2D80E0E7
:1044A0000E94090B8DE290E08819990997FD019609
:1044B00095958795D81A0E947D090E94EA06C1CF7A
:1044C00044E0742E2CCF0E94060D882309F459CFA6
:1044D0000E94611E812F63E00E949931412F602F5D
:1044E000892F84600E94090B0E947D090E94EA06C0
:1044F0001F5F47CFF101818990E0E816F9066CF063
:1045000005962C813D81821793073CF08289809328
:104510005C02118A128A552453940E94EA060F5FA6
:104520003FEFE31AF30ADACE511035CF2DCF81E0F9
:1045300090915C02911101C080E0181B79F0D101CB
:1045400019962C91812F110F990B820F911D833396
:10455000910514F082E390E0F1018187D1018C9103
:10456000882309F4DAC0CE0101960E942E1A1B821C
:1045700000915E0210915F02F801128A118A228571
:104580008385082E000C990B820F911D27FD9A95AB
:10459000BC016150710977FDBC0175956795072EC7
:1045A000000C880B990B0E94A82F9B01AC010E9464
:1045B000712E0E94702FF62E862F880F982F9F0D38
:1045C0008981890F8983F1E0FF158CF50E94060D22
:1045D0008823C9F3D80150968C9150978F5F5096DD
:1045E0008C9350971A968C911A9782501A968C93A6
:1045F0001A971D968C911D9782501D968C938981D8
:1046000086508983FA94FA940E94611E69817A81A6
:104610008B810E942C0CF80165858685680F65509A
:104620004DE280E00E94090B0E947D09CCCFD801A9
:104630001A962C911A971B968C911B97280F1D96F2
:104640009C911D9780915D028150820F891B1F965E
:104650008C931F979F5F921B892F1E962C911E97FC
:104660001F969C911F971A968C931A971B962C93C2
:104670001B971C969C931C97F9802A811D96FC928F
:104680001D971E962C931E971F961C921F97109293
:104690005D02F394F81A1B968C91F81AB8E0BF15D6
:1046A000BCF50E949F2D22E030E040E050E00E94E7
:1046B0000D2E672B682B692B59F5E0915E02F09166
:1046C0005F02E2846385E60E0E949F2D00915E02E8
:1046D00010915F022F2DFF0C330B27503109032E51
:1046E000000C440B550B0E940D2EE3946E0DF80147
:1046F000618B0E949F2D00915E0210915F0223E06A
:1047000030E040E050E00E940D2ED80152966C93AC
:104710000E947D090E94EA0614CCF1018185853052
:10472000B8F38550818721E0208310925D02F0CF9D
:10473000FF920F931F93CF93DF93EC01F62E088126
:104740001981C8010E94F72DF81621F06F2DC801BC
:104750000E94FF2DCE01DF91CF911F910F91FF900D
:104760000895EF92FF920F931F93CF93DF9300D0A2
:10477000CDB7DEB70DEA16E08D5A96407C01C70131
:10478000800F911F9A838983F80161918F01CE0177
:1047900001960E949823F7E00D391F0781F78DEAF3
:1047A00096E00F900F90DF91CF911F910F91FF90A6
:1047B000EF9008951F920F920FB60F9211248F93CE
:1047C0009F938091E1009091E100937F9093E100AD
:1047D00083FF0FC01092E90091E09093EB001092DC
:1047E000EC0092E39093ED001092AC0698E0909369
:1047F000F00082FF22C093E09093E9009091F200D4
:10480000992319F09AE39093E80090919D069923DB
:1048100041F090919D06915090939D06911101C099
:104820005D989091AB06992341F09091AB06915021
:104830009093AB06911101C0289884FF18C0809115
:10484000E2008E7E81608093E2008091E1008F7EA5
:104850008093E10080919E068E7E806180939E060B
:104860009F918F910F900FBE0F901F90189580FF12
:10487000F7CF8091E2008E7E80618093E20080918C
:10488000E1008E7E8093E10080919E068E7E8160A5
:10489000E5CF1F920F920FB60F921124CF92DF92A5
:1048A000EF92FF920F931F932F933F934F935F933A
:1048B0006F937F938F939F93AF93BF93EF93FF93E8
:1048C000CF93DF93CDB7DEB76C97DEBFCDBF10922D
:1048D000E9008091E80083FF25C068E0CE0145969D
:1048E0000E94960582EF8093E8008D8987FF39C08A
:1048F0009091E80090FFFCCF982F907609F034C19A
:104900009E894F89588D2F89F88C911131C080383C
:1049100061F580919C068093F1001092F1008EEF7A
:104920008093E8006C960FB6F894DEBF0FBECDBF43
:10493000DF91CF91FF91EF91BF91AF919F918F91B7
:104940007F916F915F914F913F912F911F910F91A7
:10495000FF90EF90DF90CF900F900FBE0F901F90C1
:1049600018959EEF9093E800C7CF1092F100D5CF35
:10497000913059F48111D3CF4130510581F68091A6
:104980009C068D7F80939C06CACF933049F4811199
:10499000C6CF4130510519F680919C068260F2CF56
:1049A000953041F48091E80080FFFCCF206820938F
:1049B000E300B5CF963009F0A9C00B8D1C8D22E025
:1049C0001092E90010929A0610929906F2122EC0E7
:1049D00010929806109297060E9465051F8299E032
:1049E0009983FA8291E09E8390EA98879AEF99875B
:1049F0002091990630919A06275F3F4F3C832B8385
:104A00008D831092E90010929A06109299061093E5
:104A100098060093970649E050E0BE016F5F7F4F14
:104A200080E00E943F050E94650579CF10939806AB
:104A3000009397060E944904DC0112960D911C9187
:104A40000115110509F451C1D801ED91FC910480C3
:104A5000F581E02DBE016B5E7F4FC801099500977F
:104A600009F03EC1F80100851185EACFF3E0FF129D
:104A70000EC08F89882309F440C0823061F440E879
:104A80006DE083E997E00E940C05811148CF81E237
:104A90008093EB0047CF813029F440E86BE087E852
:104AA00097E0F1CF833099F70E944904DC01129618
:104AB000ED90FC908E010F5F1F4F6801E114F1042F
:104AC00079F0D701ED91FC910680F781E02DB801D6
:104AD000C7010995080F111DF701E084F184EECF9D
:104AE000D8011C92F60101900020E9F73197BF012F
:104AF0006C197D0940E0C601C6CF61E777E0FB0194
:104B0000449150E080E80E943F0509CF973009F4B6
:104B1000BECF983021F481E08093F10000CF99302E
:104B200009F0FDCE837009F0B2CFEEEDF1E081E047
:104B300031E096E32191222371F08093E9003093D4
:104B4000EB00DF0111972C912093EC009093ED0086
:104B50008F5F873079F78EE78093EA001092EA0042
:104B60008F898093AC06DBCE8B8D9C8D1092E900F3
:104B700010929A0610929906909398068093970641
:104B8000898D811192C08E899D89913A49F4813233
:104B900009F07DCF47E050E066E071E080E0B3CF00
:104BA000913209F074CF833269F48F89988DB0E027
:104BB000A0E08093020190930301A0930401B093BD
:104BC0000501ADCE803269F48091E80082FFFCCF10
:104BD00067E086E091E00E9496058BEF8093E80005
:104BE0009ECE823209F09BCE8F8980930D01EEEF2D
:104BF000FFE7859194918B3F9C4D51F1E0E0F8E007
:104C00008091060190910701A0910801B0910901DE
:104C1000803B9440A105B105F1F480910D0180FD28
:104C20001AC0EE3F8AE0F80789F587E797E7918396
:104C300080838091600080939B0688E19BE00FB6A3
:104C4000F894A895809360000FBE9093600067CEA3
:104C5000EEEFFAE0D5CF808191818737974709F051
:104C60005ECEA895809160008861809360008091FD
:104C70009B0680936000EE3F2AE0F20789F0809166
:104C8000FE0A9091FF0A9183808349CE80819181B1
:104C90008737980751F29093FF0A8093FE0AC5CF99
:104CA0001092FF0A1092FE0A3ACE0E944904DC01DB
:104CB00012960D911C910115110509F4E8CED80149
:104CC000ED91FC910190F081E02DBE016B5E7F4F74
:104CD000C8010995811123CEF80100851185EBCF1C
:104CE000181619060CF41BCED2CEF1E0FF12BECE80
:104CF00065E777E004CF1F920F920FB60F92112451
:104D00002F933F938F939F93AF93BF9380918F0681
:104D100090919006A0919106B091920630918E06E6
:104D200023E0230F2D3758F50196A11DB11D2093C7
:104D30008E0680938F0690939006A0939106B09371
:104D400092068091930690919406A0919506B09159
:104D500096060196A11DB11D80939306909394062B
:104D6000A0939506B0939606BF91AF919F918F91B6
:104D70003F912F910F900FBE0F901F90189526E82E
:104D8000230F0296A11DB11DD2CFEDE9F7E01382EA
:104D9000128288EE93E0A0E0B0E084839583A6833E
:104DA000B78388EE91E0918380838FEF9FEF9587A3
:104DB0008487EDEEF7E0138212828AEF91E091830F
:104DC00080830895CF93DF93CDB7DEB72A970FB6D0
:104DD000F894DEBF0FBECDBF789484B5826084BDE9
:104DE00084B5816084BD85B5826085BD85B58160EF
:104DF00085BD80916E00816080936E00109281006D
:104E00008091810082608093810080918100816027
:104E100080938100809180008160809380008091E8
:104E200091008260809391008091910081608093D5
:104E30009100809190008160809390008091C100EA
:104E400084608093C1008091C10082608093C10022
:104E50008091C10081608093C1008091C300816016
:104E60008093C3008091C00082608093C0008091D5
:104E7000C20081608093C20080917A008460809338
:104E80007A0080917A00826080937A0080917A0023
:104E9000816080937A0080917A00806880937A00A4
:104EA0001092AC0610929C0610929E068091D7003C
:104EB00081608093D70080EA8093D80089B58061B3
:104EC00089BD89B5826089BD09B400FEFDCF61E06E
:104ED00070E080E090E00E94C8058091D8008F7C4F
:104EE00080618093D8008091E000807F8093E00013
:104EF0008091E1008E7E8093E1008DE08093E2005E
:104F0000559A209A5D98289884E896E090937606C2
:104F10008093750681E890E09093780680937706F9
:104F200089EE92E190937A06809379068DE796E078
:104F300090937C0680937B068FE696E090937E06A6
:104F400080937D0681E791E09093800680937F06B1
:104F500083EB9AE1909382068093810688E696E03F
:104F6000909384068093830689E596E09093860665
:104F70008093850681E692E0909388068093870669
:104F80008EE59FE190938A068093890682E596E0FC
:104F900090938C0680938B0680E890E00E94F72D1A
:104FA000803711F180E890E09A83898360E7CE0131
:104FB00001960E949823EDEAF6E080EFDF011D9252
:104FC0008A95E9F780917706909178060E94B1233F
:104FD00080917F06909180060E94B1238091870680
:104FE000909188060E94B12381EC80937C0085B16A
:104FF000806F85B984B1877E84B984B1876E84B9A6
:105000005E9A5F988AB1806D8AB9769A6E9881B3FC
:10501000806F81BB899880B38D7080BB80E58CBD2B
:1050200081E08DBD85E090E00E94DD065F9A85E01D
:1050300090E00E94DD065E985C98E3E3F6E08491E0
:105040008EBD00000DB407FEFDCF3196B6E0E03412
:10505000FB07A9F75C9A81E8809364008091650062
:1050600081608093650080E80E94720902E010E090
:10507000882399F05C9885EA8EBD00000DB407FE88
:10508000FDCF5C9A2E982F982D98809164008062B5
:10509000809364000E94EA06FDCF84E00E947209BA
:1050A0008823F1F12D9884E80E9472098823B9F0D1
:1050B0002D9A88EC90E00E94DD062F981A830983D0
:1050C0006FEFCE0101960E94982384EF91E00E9439
:1050D000DD062F9A84E80E9472098111FBCF84E1DA
:1050E0000E9472098823B9F02D9A88EC90E00E9402
:1050F000DD062E981A83098360E0CE0101960E9496
:10510000982384EF91E00E94DD062E9A84E10E94AC
:1051100072098111FBCF88EC90E00E94DD06BDCFC3
:105120002D9A81E2809301010E94B1089EEEC92E62
:10513000DD24DA9426E0E22EF12C36EFA32EBB24F8
:10514000BA94712C612C4AE4242E312C5AE0452E5D
:1051500069E2862E912C0E94E206582E882309F4DB
:10516000E0C082E0C82ED12C19860E94E20681118F
:105170002DC267E1462E512C73E0672E712C898574
:10518000811127C20E94060D8823C9F30E94690974
:105190000E94B10860E480E80E94950BD0927406EA
:1051A000C0927306D0927206C09271066EE177E0EB
:1051B0008DEE97E00E948C0621E040E86AE070E006
:1051C00090E080E00E94EF0680918D0618E0819FBC
:1051D000C00111240E96D0927406C092730690936B
:1051E00072068093710664E072E08DEE97E00E9493
:1051F000BC11EE24E39407E027E047E157E067E3C2
:1052000070E082E090E00E948D092CE030E0309365
:1052100074062093730687E390E090937206809360
:10522000710680E20E9472096DEF76E0882311F02A
:1052300064E077E08DEE97E00E948C06EE24E39424
:1052400007E027E040E157E067E370E082E490E0A8
:105250000E948D098CE490E090937406809373060D
:1052600087E390E090937206809371066BE077E09D
:105270008DEE97E00E948C0645E7842E46E0942E42
:105280005EE0A52EB12CD40116964D915C91EE24D2
:10529000E39407E027E0B50189E090E00E948D09E2
:1052A0005092740640927306B0927206A0927106F4
:1052B000F401608171818DEE97E00E948C06F8E028
:1052C0008F0E911C08E0A00EB11C16E2A116B104CD
:1052D000D1F60E947D0980E80E944109882349F0A7
:1052E00080918D0690E00296B3010E94BB318093BD
:1052F0008D0680E10E944109882349F080918D0646
:1053000090E00496B3010E94BB3180938D0688E043
:105310000E944109882311F081E089870E94EA06F2
:105320002ECF0E94060D882309F415CFE2E06E16F9
:1053300009F4D0C0E61560F0662009F445C0F1E03C
:105340006F1609F45DC00FE0071508F055C009CFCE
:1053500003E0601609F4F0C014E06112F4CF872D69
:10536000642D0E948D31692F70E0655D7F4F41E0B3
:105370008DE590E00E945107872D65E00E948D31F8
:10538000092F10E0035A1F4F41E06BE270E0C801A3
:105390000E945107E4E0E71578F441E060E370E033
:1053A000C8010E945107F9E0F71530F441E065E3C8
:1053B00070E0C8010E94510781E0870D803108F438
:1053C00003C1E5E06E2E6EC081E00E945A0721E025
:1053D0004AE0B7018EE190E00E946C0B21E045E0CD
:1053E000B701665F7F4F8EE190E00E9433072AE0AD
:1053F00081E0271508F45AC055245394570C52C025
:1054000020E04AE0B7018EE190E00E946C0BB7010A
:10541000665F7F4F20E045E08EE190E00E94330719
:10542000779C80011124780136E0E30EF11C8CE2B8
:10543000E816F104F4F180E00E945A0721E04AE006
:105440006BE270E08EE190E00E946C0B21E045E0A1
:1054500065E370E08EE190E00E94EF0690927406A2
:1054600080927306A8E0B0E0B0937206A093710634
:1054700069E476E08DEE97E00E948C0690927406C7
:1054800080927306E2E1F0E0F0937206E093710619
:1054900060E476E08DEE97E00E948C06F12CE12C22
:1054A00002E0602E0E947D09862D652C762C682EE8
:1054B00052CE21E04AE0B7018EE190E00E946C0BF1
:1054C000B801605F7F4F21E045E08EE190E00E94EF
:1054D000330792CFF2E0F715B0F0872D90E0072D5B
:1054E0001DEF1003B00111246C5C7F4F21E043E0FD
:1054F000C2960E946C0B40E066E370E082E390E0AD
:105500000E94390779CF26E0271598F033E0739E83
:10551000B00111246E5D7F4F872D90E021E043E0C4
:10552000C2960E946C0B40E066E370E088E390E076
:10553000E7CF13E0612E60CF00E025E330E04AE4DE
:1055400050E065E370E06E197F09C1018A199B097B
:105550000E946A0CC601AC14BD044CF48FEFA81A6B
:10556000B80AC501880F991F01968C0D9D1DEC147A
:10557000FD0434F1AFEFEA1AFA0A6701CC0CDD1C26
:10558000BFEFCB1ADB0AC80ED91E01E025E330E0DD
:105590004AE450E065E370E06E197F09C1018A19A1
:1055A0009B090E946A0CB7FC0DC021E045E06BE24C
:1055B00070E088E490E00E94EF06F4E06F2E72CF76
:1055C0006C01E3CF572C6ECF582E6CCF0E94EA06A9
:1055D000CCCD809164008E7F8093640080917A00AE
:1055E000806480937A0080917A0086FDFCCF0091E0
:1055F0007800109179000E94A305AB01BC01C8019D
:10560000B0E0A0E0DC01992788278C019D01040F00
:10561000151F261F371FC901B801209164002160A2
:1056200020936400611571058105910511F00E94B8
:10563000EE2D00918D0628E0029F80011124F801D3
:10564000EB58F94F82819381BDE98B2EB7E09B2EF9
:105650002DEAE22E26E0F22EDC01AD5AB6405D01C5
:10566000C5018E0D9F1D0E94F72DF70181937F01CB
:105670008E169F06A9F780E20E947209882339F0EE
:10568000EDEAF6E080EFDF011D928A95E9F7F80177
:10569000EB58F94F0480F581E02D8E010F5F1F4F0D
:1056A00078010C5F1F4F9E01275F3F4F40E06DEA7E
:1056B00076E08DEE97E0099522242A94322C210180
:1056C000E5E28E2E912CF4E1AF2EB12CA7E36A2EE9
:1056D000712C0E94B10860E480E80E94950BD09282
:1056E0007406C0927306D0927206C0927106E09161
:1056F0008D0618E0E19FF0011124EB58F94F60810D
:1057000071818DEE97E00E948C0621E040E86AE00E
:1057100070E090E080E00E94EF06EE24E39408E061
:1057200028E045EF56E06CE070E08CE390E00E94EA
:105730008D0929813A814B815C81E12C01E06DE08A
:1057400085E40E94750A89858111E7C02FEF221632
:1057500032064206520609F4E0C02D813E814F8197
:10576000588567E0E62E6DE080E20E94750A90920F
:10577000740680927306B0927206A09271066BEE68
:1057800076E08DEE97E00E948C066D817E818F81A0
:105790009885261637064806590648F5D0927406AD
:1057A000C092730690927206809271066AED76E05E
:1057B0008DEE97E00E948C06D0927406C09273061C
:1057C0008EE290E0909372068093710665EC76E02D
:1057D0008DEE97E00E948C060E947D090E94690967
:1057E0000E944C09811186C00E94EA06F7CFA201EF
:1057F00091010E943F2EA4E6B0E00E942C2E6C3452
:10580000710581059105E8F1B0927406A0927306C6
:10581000ACE1B0E0B0937206A093710665EB76E060
:105820008DEE97E00E948C06B0927406A0927306EB
:10583000909272068092710666E072E08DEE97E0BB
:105840000E94BC11B0927406A0927306EEE2F0E0E2
:10585000F0937206E093710662E172E08DEE97E0DC
:105860000E94BC11B0927406A092730670927206E8
:10587000609271066EE172E08DEE97E00E94BC11BD
:10588000ABCFD0927406C09273060CE110E0109377
:105890007206009371066CEA76E08DEE97E00E9446
:1058A0008C06D0927406C092730690927206809213
:1058B000710669E272E08DEE97E00E94BC11D09211
:1058C0007406C09273062EE230E030937206209385
:1058D000710666E372E08DEE97E00E94BC11D092F3
:1058E0007406C0927306709272066092710669E443
:1058F00072E0C2CF00E02AE24CE764E170E082E0AF
:1059000090E00E940A0C2D813E814F81588597E0DE
:10591000E92E6DE080E20E94750AE0918D0638E084
:10592000E39FF0011124EB58F94F46815781EE2493
:10593000E39407E027E060E270E08DE390E00E94EE
:105940008D098985882309F496C02D813E814F8178
:10595000588587E0E82E01E06DE080E20E94750A3C
:10596000EE24E39407E027E047E157E067E370E0C7
:1059700082E090E00E948D0927E045EA56E067E367
:1059800070E082E490E00E948D098CE490E09093B6
:10599000740680937306709272066092710660EAD4
:1059A00076E08DEE97E00E948C060E94060D88231B
:1059B000E1F30E946909ACE0B0E0B0937406A093F3
:1059C000730670927206609271068985882339F099
:1059D00080E20E94720969E976E0882311F062E9A9
:1059E00076E08DEE97E00E948C0688E00E944109E7
:1059F000882309F449C08985882331F080E20E9418
:105A00007209882309F44AC0B1E0BA8729803A8034
:105A10004B805C80E0918D0608E0E09FF00111244E
:105A2000EB58F94F0480F581E02D9E012F5F3F4F29
:105A300079018E010B5F1F4F285F3F4F4A856DEA4A
:105A400076E08DEE97E00995E0918D0638E0E39FD2
:105A5000F0011124EB58F94F828193810E94B12308
:105A60008A85811136CE80E090E0892B09F47CCBC9
:105A70000E94000079CB21E043E06FE070E088E312
:105A800090E00E94EF066CCF84E00E9441098111F2
:105A900008C00E947D090E94EA0687CFE2E0EA87FB
:105AA000B5CF1A86B3CF8F929F92AF92BF92CF920B
:105AB000DF92EF92FF92CF93DF93EC0168817981BF
:105AC0008A819B81611571058105910521F464E24C
:105AD00079ED8BE597E02DE133EF41E050E00E9456
