:100000000C942F150C9457150C9457150C945715E8
:100010000C9457150C9457150C9457150C945715B0
:100020000C9457150C9457150C94CE280C943D291C
:100030000C9457150C9457150C9457150C94571590
:100040000C9457150C9457150C9457150C94571580
:100050000C9457150C9457150C9457150C946F2B42
:100060000C9457150C9457150C9457150C94571560
:100070000C9457150C9457150C9457150C94571550
:100080000C94B92B0C9457150C9457150C945715C8
:100090000C9457150C9457150C9457150C94571530
:1000A0000C9457150C9457150C9457151008C6014D
:1000B000FFFF0FC003C003C003C013C003C003C0D1
:1000C00003C003C013C003C003C003C00FC0FFFFC1
:1000D00001F60C6908830003FF03FF03FC03F00330
:1000E000C003C043C003C003C043C003C003C04338
:1000F000C003C003C0FFCFFFCF03C003C003C0FFD6
:10010000CFFFCF03C003C003C0FFCFFFCF03C003A7
:10011000C003C043C003C003C00000AA3A0030AA15
:100120003A0000AA0E000CAA0E0000AA030003AABF
:1001300003000000000000000000000000000000BC
:1001400000AA030003AA0300000000000000000052
:10015000000000000000000000000000000000009F
:10016000000000AA030003AA030000000000FC0333
:10017000CF033303CF033303CF033303CF0333035F
:10018000CF033303CF03FF03C003C03FC3FFC3FF4D
:10019000C3FFC003C003C043C003C003C043C003C8
:1001A000C003C043C003C003C0193507350A910E10
:1001B000C112C117C11CB721B725B729B72D142EFD
:1001C0003236B7381439323B32422442B7453247CF
:1001D000B749B74A4259A35A356135645F0886006A
:1001E000FFC0FFC0FFC0FFC0FFC0FFC0FFC0FFC017
:1001F000FFC03FC00FC003C043C003C003C043C023
:1002000003C003C043C003C003C003CC03FC03FC12
:1002100003FC03FC03FC03F003C003C043C003C0A2
:1002200003C000000000AA0E000CAA0E000000008F
:100230000303030F033F03FF03FC03F003C043C0AA
:1002400003C003C003C043C003C003C003C043C016
:1002500003C003F003FC03FF03F003FF03FF033FAE
:10026000030F030303030303030303030300030058
:10027000030303030300030003030303030003005A
:1002800003030303033003C00303030303C303C3D4
:1002900003C30303030303030303030303031B3524
:1002A000033506A61533163319C11E632BC131C1A0
:1002B00035A43CA53C323F824A834C0446824E839F
:1002C00050044A82528354044E8256835804523258
:1002D000574658325A2408860000C000C000C000AB
:1002E000C004C000C000C000C000C004C000C00006
:1002F000C000C0C0FFC0FFC0FFC0FFC0FF00FF00C4
:10030000FF03FF03FF03FC03FC0FFC0FFC0FF00FC8
:10031000F03FF03FF03FC03FC0FFC0FFC0FFC0FF55
:10032000C0031504230962101008C601FFFF00C0B6
:1003300000C000C000C000C000C000C000C000C0BD
:1003400000C000C000C000C000C0FFFF01E10E5CA3
:100350000845003FF03FF03FF03FF00FFC0FFC0F6F
:10036000FC3FF0FFC0FFC0FFC03FF03FFC3FFC3F41
:10037000C03FC03FD00FC00FFC0FFC0FFC0FC03FB1
:10038000D03FC03FC03FFC3FFD3FFC3FFD3FFC3F37
:10039000FD3FFC0FFC03F000C0000000080000005F
:1003A0000000200000000000080000000000200005
:1003B000200000000000000000000000000002001B
:1003C000AA00AA00AA00020000000000000000002D
:1003D000000000000200AA00AA00AA00020000001B
:1003E00000000000000000000000AA008A000200D7
:1003F0008A00AA008A0002008A00AA008A0002007D
:100400008A00AA008A0002008A00AA123305350970
:100410007611331376184127912E053191343237F6
:10042000143A904232421445734E32513255325989
:1004300060080600FFC0FFC0FFC0FFC0FFC0FFC0D4
:10044000FFC0FFC0FFC0FFC0FFC03FC00FC003C060
:10045000CFC00300000003C000D003C00FC003C022
:1004600003C303CF03CF43CF0FCF03CD03CF03CFBE
:1004700003CF03CF0FC00FF003F403F003F003F03A
:100480000FF003C003C000C00000000003C0030061
:100490000F003FC003D003C0CFC003C003C00300A0
:1004A00000000300000000C003C003C00FD003C061
:1004B00003C0CFC003C003C003F000FC03F000C0C2
:1004C00000C200C000D000C200C000C000C200C016
:1004D00000C000C200C000C003FF03FF43FF03FFD2
:1004E00003FF03FF03FF03FC03F00FF03FF03FF0B7
:1004F0003FF03FF0133505350966153619361D6393
:100500001F6524342866320636423A353D3540832D
:100510004E83518354325373553256300844000A87
:10052000A80AA802A002A002A00280028002800203
:1005300080028002A002A002A002A80AA80AAA00C3
:10054000000000000000000000000000FF00FF00AD
:10055000FF00FC00F000C000C000C000C000C000F0
:10056000D000C000C000C000C000D003C000C00F59
:10057000C003C0FFC33FC0FFC3FFCFFFCFFFC00614
:10058000C107141084218623862E86311008C501E8
:10059000FFFF03F003C013C303C003C013C003C0B5
:1005A00003C013C003C003C013C303C003F0FFFFA5
:1005B00001D60D6508430000FF00FF40FF00FF006B
:1005C000FF00000000000200020002000200000024
:1005D0000000FF40FF00FF00FF00FF40FF00FF00A2
:1005E000FC00F000F400F000F000F000F000F0007B
:1005F000F000F000F200F280F680F080F080F080F1
:10060000F080FA00FA00F800F000F000F000F400CA
:10061000F000F000000000000000000000000000FA
:1006200000000000000000000000000000000000CA
:10063000FF00FF00FF0000000000000000000000BD
:100640000000FF40FF00FF00FF000000000000006E
:100650000000000000000300034003000300CF007F
:10066000FF00F000C00000000000000000000000DB
:100670000000AA00AA00AA00AA0AAA0AAA0AAA0AAC
:10068000AA17320363104017651935213522352327
:1006900062243524063005340438323D0441534881
:1006A000044B32503253045504570459045B325EF4
:1006B0006508460000C000C000C000C000C000C007
:1006C00000D000C000C000C000D000C000C000C00A
:1006D00000C000C000C000C000C000D000C000C00A
:1006E00000C000F000FC0000000000FC00FC00FC6A
:1006F00000FC00F000C000C000C000C000D000C07E
:1007000000C000C000C000C000D000C000C000C0D9
:1007100000C000C000D000C000C000C000C000C0C9
:1007200000C000F000F000F000C000C000C000D029
:1007300000C000C000C000C000C000C000D000C0A9
:1007400000C000C000D000C000F000FC00FD00FCB4
:1007500000FC00C000C000D000C000C000C000C04D
:1007600000C000C000D000C000C000C000C000F049
:1007700000FC00FF00FF00FF00FF00FF00FF163538
:10078000053508560F35114514541E8629862C351B
:1007900029352C66343438663E8547854A644E33A5
:1007A0005066543556355986623262180845000045
:1007B000F000F000F000F000F400F000F000FC00A9
:1007C000FD00FC00F000F000F000C000D000C00010
:1007D000F000F400F000C000C000D000C000C00075
:1007E0000808000C0C1E1E3F0C3F123F0C1E000C94
:1007F0000000000C0C1E1E3F1E3F0C1E000C0C1EA9
:10080000000C08080030207050F818FE0A1F060F70
:10081000040E000C0038183C0C1E081C081C041E9A
:100820001C3E183C08080C1E043F1E3F0C1E0C1EEC
:100830000C1E040E00060006040E0C1E0C1E0C1EE0
:100840001E3F043F0C1E08080018183C247E7AFF47
:100850007AFF3C7E183C001800000000007E7EFFFE
:100860007EFF007E000000000C100303DFDFFFFFAF
:10087000FEFEFFFFFFFFFFFFFEFE7F7F3F3F1F1FCC
:100880000F0F000001010D0D0F0F0F0F07070303DE
:10089000010100000000000000000070307830F816
:1008A00010F888FC40F858FEA6FF1AFF027F043EAD
:1008B000001C00000000000000000001000303070E
:1008C00002070107040F00040000001C0C1E0CBEF0
:1008D00084FE42FFE0FE7CFEBCFE5CFEB8FC70F8CD
:1008E0000070000000010103020701070007020772
:1008F00000030103000100000000000302DFC6FF47
:1009000068FE16FF56FFAAFF44FE327F1A3F0A1FF9
:10091000000F00000001000D040F030F0207010388
:10092000000100000000000000000F0F1F1F3F3FEC
:100930007F7FFEFEFFFFFFFFFFFFFEFEFFFFDFDF0B
:10094000030300000000000000000101030307078B
:100950000F0F0F0F0D0D01010000001C043E027F60
:100960001AFFA6FF58FE40F888FC10F830F83078DF
:10097000007000000004040F0107020703070003D2
:1009800000010000000000000000007070F8B8FCDA
:100990005CFEBCFE7CFEE0FE42FF84FE0CBE0C1E34
:1009A000001C000000000001010300030207000713
:1009B00001070207010300010000000F0A1F1A3F90
:1009C000327F44FEAAFF56FF16FF68FEC6FF02DF15
:1009D0000003000000000000000000010103020706
:1009E000030F040F000D000100001820008000809C
:1009F0000080008000800080008030B078F870F0C7
:100A0000F0F0F0F0F8F8F8F8F8F8F8F8F0F0F0F0A6
:100A1000F0F07878303000000000000000FFFFFFA9
:100A200001FFFDFFFDFF01FF01FF01FFFFFF00FFD1
:100A3000FFFFFFFFFFFFFFFFFFFFFFFFFFFFFFFFC6
:100A4000FFFF7E7EFCFCF8F8E0E0C0C0001F1F3F07
:100A5000207F40FF80FFBFFF5FFFA0FFDFFFE0FFC1
:100A6000F0F0F9F9FFFFFFFFFFFFFFFFFFFFFFFFC0
:100A7000FFFFFCFCFEFE7F7F3F3F1F1F00000000CA
:100A800000000000000100018383FFFFFFFFFFFF64
:100A9000FFFFFFFFFFFFF3F3070707070F0FFFFF3E
:100AA000FFFFFFFFFFFFFEFEF8F8E0E000800080A0
:100AB0000080008000800080008000B030F860F08E
:100AC00060F0A0F070F8B0F870F8B0F860F060F086
:100AD00060F03078003000000000000000FFFFFFF1
:100AE00001FFFDFFFDFF01FF01FF01FFFFFFE0FF31
:100AF00053FFA8FF50FF40FF54FF57FF4BFFA5FFD8
:100B00003CFF1C7E68FCE0F8C0E000C0001F1F3FF7
:100B1000207F40FF80FFBFFF5FFF20FF9FFF40FF60
:100B200020F010F9E1FFE8FFE8FF21FFD5FF12FFF9
:100B300080FF28FC70FE2E7F1F3F001F000000007A
:100B40000000000000010001018382FFD5FFDEFFED
:100B5000BDFFFAFF70FF01F303070007060F05FF53
:100B6000A2FFD5FFDEFFD8FEA0F800E000000000E5
:100B7000000000000000000000000018183C30F8E1
:100B8000B0F850F838FC58FC38FCD8FCB0F8B0F895
:100B900030F8183C0018000000000000000000FFC2
:100BA000FEFF02FFFAFFFAFF02FF02FF02FFFEFF55
:100BB00001FF54FFA8FF20FF2AFFABFFA5FF52FF54
:100BC0001EFF0E3F347E70FCE0F000E00000003FAE
:100BD0003F7F40FF81FF01FF7EFFBEFF40FF3F7F61
:100BE00000FF68FC70FF14FF44FF90FF3AFF193FBD
:100BF000001F143E387F173F0F1F000F000000003A
:100C000000000000000101030103000100000000DA
:100C100000000007078F88FFC5FFD6FFFFFFFCFF1E
:100C200000FCF0F800F000000000000000000000F0
:100C300000000000000000000000006060F0C0E064
:100C4000C0E040E0E0F060F0E0F060F0C0E0C0E064
:100C5000C0E060F000600000000000000000000044
:100C60000000FEFEFEFEFEFEFEFEFEFEFEFEFEFF9F
:100C7000FEFFFFFFFEFF81FFA8FFAFFF56FF62FFF1
:100C8000B8FFB8FC30F800300000000000000000A1
:100C900000007F7FFFFFFFFFFFFFFFFFFFFFFFFF62
:100CA000FFFFFFFF7FFF14FF42FF56FFA6FF67FF16
:100CB00003670103000100000000000000000000C5
:100CC00000000000000001010303070707070303FA
:100CD00001030007048F88FFC5FFD2FFFCFFF8FC6B
:100CE00000F8F0F800F00000000000000000000034
:100CF000000030307878F0F0F0F0F0F0F8F8F8F824
:100D0000F8F8F8F8F0F0F0F070F078F830B0008013
:100D1000008000800080008000800080C0C0E0E093
:100D2000F8F8FCFC7E7EFFFFFFFFFFFFFFFFFFFFE9
:100D3000FFFFFFFFFFFFFFFF00FFFFFF01FF01FFBE
:100D400001FFFDFFFDFF01FFFFFF00FF1F1F3F3FF2
:100D50007F7FFEFEFCFCFFFFFFFFFFFFFFFFFFFFAB
:100D6000FFFFFFFFF9F9F0F0E0FFDFFFA0FF5FFFFB
:100D7000BFFF80FF40FF207F1F3F001FE0E0F8F82B
:100D8000FEFEFFFFFFFFFFFFFFFF0F0F0707070735
:100D9000F3F3FFFFFFFFFFFFFFFFFFFFFFFF838373
:100DA0000001000100000000000000000000000041
:100DB00000000030307860F060F060F0B0F870F85B
:100DC000B0F870F8A0F060F060F030F800B000808B
:100DD00000800080008000800080008000C0C0E0B3
:100DE000E0F868FC1C7E3CFFA5FF4BFF57FF54FF5B
:100DF00040FF50FFA8FF53FFE0FFFFFF01FF01FF8F
:100E000001FFFDFFFDFF01FFFFFF00FF001F1F3F70
:100E10002E7F70FE28FC80FF12FFD5FF21FFE8FF28
:100E2000E8FFE1FF10F920F040FF9FFF20FF5FFF88
:100E3000BFFF80FF40FF207F1F3F001F00E0A0F8A2
:100E4000D8FEDEFFD5FFA2FF05FF060F0007030750
:100E500001F370FFFAFFBDFFDEFFD5FF82FF0183C4
:100E60000001000100000000000000000000000080
:100E700000000018183C30F8B0F8B0F8D8FC38FC86
:100E800058FC38FC50F8B0F830F8183C0018000056
:100E900000000000000000000000000000E0E0F0A2
:100EA00070FC347E0E3F1EFF52FFA5FFABFF2AFFF2
:100EB00020FFA8FF54FF01FFFEFF02FF02FF02FF19
:100EC000FAFFFAFF02FFFEFF00FF0000000F0F1FF6
:100ED000173F387F143E001F193F3AFF90FF44FF31
:100EE00014FF70FF68FC00FF3F7F40FFBEFF7EFFE6
:100EF00001FF81FF40FF3F7F003F00000000000036
:100F0000000000F0F0F800FCFCFFFFFFD6FFC5FF7B
:100F100088FF078F000700000000000000010103A8
:100F200001030001000000000000000000000000BC
:100F30000000006060F0C0E0C0E0C0E060F0E0F001
:100F400060F0E0F040E0C0E0C0E060F00060000071
:100F50000000000000000000000000000000000091
:100F6000003030F8B8FCB8FF62FF56FFAFFFA8FFB3
:100F700081FFA0FF01FFFCFF04FF04FE04FEF4FE5E
:100F8000F4FE04FEFCFE00FE000000000000000075
:100F9000000000010103036767FFA6FF56FF42FF41
:100FA00014FFC6FF80FF7FFF80FF7CFFFCFF03FF75
:100FB00003FF80FF7FFF007F0000000000000000B3
:100FC000000000F0F0F800F8F8FCFCFFD2FFC5FFCD
:100FD00088FF058F010700030001010302070207D4
:100FE00001030001000000000000000000000000FC
:100FF0000000000000000000000000C0C0E080C051
:1010000080C080C0C0E0C0E0C0E0C0E080C080C060
:1010100080C0C0E000C0000000000000000000F838
:10102000F0F810F8D0F8D0F810F810F810F9F1FF37
:101030000DFFA2FF41FF02FF51FF5EFF2DFF85FF65
:1010400051FF70F970F8E0F000E00000000000FFD0
:10105000FFFF00FF0FFF15FFCAFFD4FF0CFFEDFFDE
:1010600008FF24FF5DFF4DFF49FF54FFABFF1BBF8F
:10107000071F03070003000100010000000000013A
:1010800001030207040F089F8BFFD5FFDAFFBDFFA6
:10109000F8FF73FF0FFF0EFF51FFADFFA5FFD0FF5D
:1010A00064FE78FCB8FCD8FCF0F800F0000000000A
:1010B00000F8E8FC94FE2CFE083C00080000000C40
:1010C00008DC50F828FC18FC28FC08FCD8FC90F838
:1010D00060F060F060F02070103000000000000050
:1010E000000101030007050F0E1F061F0A1F041E43
:1010F00000FF54FFA8FF20FF2AFFABFFA5FF52FF10
:101100001EFF0E3F347E70FCE0F000E000000000A7
:1011100000000000000000000000000000E0E0F01F
:1011200090F808FD70FFF4FFF4FF18FFEAFF29FFB5
:1011300080FF14BE387F173F0F1F000F0000000014
:101140000000000000000000008080FCD4FFDDFFF4
:10115000BCFFFBFF70FF00F101030007060F05FF56
:10116000A2FFD6FFDCFED8FCA0F800E00C0800D8F7
:1011700058FC60F858FD61FF5DFF5DFF61FF58FDA1
:1011800060F858FC00D806080038287C74FE74FE0D
:10119000287C00380030307A7AFF7AFF307A0030CD
:1011A00008087878FEFEFFFFFFFFFFFFFFFFFFFF4D
:1011B0007E7E007838FE56FF3EFF52FF4AFF26FF34
:1011C000007E006C4CFE46FF4EFF44FF48FF26FFAA
:1011D000007E080878783C3C3F3F7F7F7F7F7F7FA1
:1011E0007F7F3F3F3078183C183F277F317F197F42
:1011F000297F123F000C0C1E06EFEEFF72FFBEFFB0
:101200007EFF3C7E3F3F7F7F7F7F7F7F7F7F3F3FB3
:101210003C3C7878123F297F197F317F277F183F28
:10122000183C30783C7E7EFFBEFF72FFEEFF06EF7B
:101230000C1E000C08081414BEBEFFFFFFFFFFFFCA
:10124000FFFF5E5E0C0C001414BEBEFF9EFFB6FFD7
:101250005EFF0C5E000C001A1A7F4FFF8FFF9BFF92
:101260004FFF367F00360C101818FCFCFEFEFEFE09
:10127000FEFEFEFEFEFEFCFCF8F8E0E0C0C0000052
:10128000000000006161F3F3FFFFFFFFFFFFFFFFBE
:101290009F9F0F0F07070303001818FCC4FEDCFE16
:1012A000C4FE98FE64FE28FCC0F8C0E000C0000048
:1012B00000000000006160F392FF0AFF60FF96FFEC
:1012C0000A9F020F030700030000000C0C7E62FF60
:1012D0006EFF62FF4CFFB2FF14FE60FCA0F000E066
:1012E0000000000C0C1E001F11BFA9FF45FF20FFCE
:1012F000C4FF0ADF010B00010B100C0C1E1E7F7FC8
:10130000FFFFFFFFFFFFFEFEFCFCE0E0C0C08080AF
:101310000C0C1E1E1F1FBFBFFFFFFFFFFFFFFFFFC5
:10132000DFDF0B0B01010018183C24FEACFEBCFEF5
:101330005CFE18FC40F880C00080000000000060E7
:1013400060F292FF0AFF60FF96FF0A9F020F0307F9
:101350000003000C081E067F48FF4AFF1EFF8CFE9C
:1013600020FC40E080C00080000C0C1E001F11BF5C
:10137000A9FF45FF20FFC4FF0ADF010B0001001891
:10138000183C24FEACFEBCFE5CFE18FC00FE8CFE8D
:1013900074FE007C000E06EFE0F712FF0A1F021F2A
:1013A0001D3F20FFC0E100C000000508004C4CFFBD
:1013B000F3FF4CFF004C005C5CFEF6FF5CFE005C43
:1013C000180800FF01FF00FF01FF00FF03FF03FFFC
:1013D00000FF03FF07FF07FF07FF07FF07FF07FFE8
:1013E00003FF00FF03FF03FF00FF01FF00FF01FFFA
:1013F00000FF10087FFF41FF7DFF7DFF7DFF7DFF28
:101400007FFF00FF7FFF41FF7DFF7DFF7DFF7DFFB1
:101410007FFF00FF80FFBEFF82FF82FF82FF82FF0F
:1014200080FFFFFF80FFBEFF82FF82FF82FF82FFFF
:1014300080FFFFFF03063F213F03063F3F3F0808B1
:101440000C1E043F1E3F0C1E0C1E0C1E040E00063C
:101450000006040E0C1E0C1E0C1E1E3F043F0C1E2C
:10146000100302070207020702070207020702072A
:101470000207020702070207000702070007020728
:10148000000210030002020700070207000702071C
:101490000207020702070207020702070207020704
:1014A000020702071010000000000000008080D03A
:1014B000D0F8E8FCDCFEBCFE6CFE7CFE08FC0008FC
:1014C00000000000000000000000000000E3E3F75F
:1014D000F5FF36FF183F063F16FFF8FFA3FF80E336
:1014E00000C000000000000000000000000000003C
:1014F00000000000008000800080008000000000EC
:101500000000000000000000006060F070F8B8FC0F
:101510005CFEDAFFD7FF2FFF5BFF5FFF02FFE8FEF5
:10152000A0F880E00080000000000000000000C87B
:10153000C8FCE4FEEEFF5EFFB6FFBEFF04FE000443
:10154000000000000000000000000000000000019A
:1015500001E3E3F7F5FF96FF40FF367F003F000011
:10156000000000000000000000000000000000007B
:10157000000000000080008000800080000000006B
:10158000000000000000000000C0C0E040F8B8FC0F
:101590007CFE7AFF97FF4FFFDBFFDFFF02FF0002B9
:1015A00000000000000000F0F0F818FC183C307853
:1015B00048FC24FE6EFFDEFFB6FFBEFF44FEC0E423
:1015C00080C00080000000030307040F008480E057
:1015D000A0F030FF173F061F021F14FFF0FFA1F31A
:1015E00081E3008100000000000000800080000016
:1015F00000000000008000800080008000000000EB
:10160000000000000000003E3E7F43FF03C786CF7E
:1016100044EECAFFD7FF2FFF5BFF5FFF02FFE0F240
:10162000A0F080E00080000000000000008080C08A
:10163000C0E2E2F7E4FEEEFFDEFFDEFFDEFFC4FE07
:1016400020F460F0207000000000000303E7E2F7E0
:10165000B1FB93FF0B9F030F0B1F1BFFF1FFA0F1CB
:1016600080E000800000000000000000000000009A
:10167000008080C0008080C080C080C080C00080AA
:1016800000000000000000000000003030F8A8FC5E
:101690005CFEBCFFBDFF3BFFB7FFAFFF4FFFA1FFED
:1016A00060F160F0207000000000000000C0C0E8A1
:1016B000E8FCF4FEEEFF5EFF36FFBEFF84FE008412
:1016C0000000000000000000000000000032327F37
:1016D000093F1D3F0C1F011F0D1F040F01070001D3
:1016E00000000000000000000000008080C0C0FA80
:1016F000EAFFDCFFBCFE5CFE5CFE18FC009800000C
:101700000000000000000000000000030307076F56
:10171000217F287F1A3F1B7F7AFFB1FF83F7008369
:1017200000000000000000000000000000000000B9
:1017300000000000000000000000000000000000A9
:1017400000000000000060F020F030F850F828FCA5
:1017500058FE64FE0CFE5CFE0CFE34FE40FC4CFFAA
:101760002AFF6CFE00FC000000000000000808FCDE
:101770007CFE6CFEBCFEDCFEE8FCD0F880D0008075
:101780000000000000000000000000C080E3A3FF94
:10179000F8FF16FF063F183F36FFF5FFE3F700E3BB
:1017A0000000000000000000000000000000000039
:1017B0000080008000800080000000000000000029
:1017C000000000000000008080E0A0F8E8FE02FFBA
:1017D0005FFF5BFF2FFFD7FFDAFF5CFEB8FC70F8FE
:1017E00060F000600000000000000000000404FE43
:1017F000BEFFB6FF5EFFEEFFE4FEC8FC00C80000BF
:101800000000000000000000000000000000003F99
:10181000367F40FF96FFF5FFE3F701E3000100008C
:1018200000000000000000000000000000000000B8
:1018300000800080008000800000000000000000A8
:10184000000000000000000000000000000202FF95
:10185000DFFFDBFF4FFF97FF7AFF7CFEB8FC40F80D
:10186000C0E000C000000000008080C0C0E444FE72
:10187000BEFFB6FFDEFF6EFF24FE48FC3078183C4A
:1018800018FCF0F800F00000008181E3A1F3F0FF04
:1018900014FF021F061F173F30FFA0F080E00084F6
:1018A000040F030700030000000000000000000018
:1018B00000800080008000800000000000000080A8
:1018C000008000000000008080E0A0F0E0F202FF55
:1018D0005FFF5BFF2FFFD7FFCAFF44EE86CF03C732
:1018E00043FF3E7F003E207060F020F4C4FEDEFF28
:1018F000DEFFDEFFEEFFE4FEE2F7C0E280C0008024
:101900000000000000000000008080E0A0F1F1FF76
:101910001BFF0B1F030F0B9F93FFB1FBE2F703E7C6
:10192000000300000000000000000000008080C0F4
:1019300080C080C080C0008080C0008000000000A7
:10194000000000000000207060F060F1A1FF4FFF78
:10195000AFFFB7FF3BFFBDFFBCFF5CFEA8FC30F84C
:10196000003000000000000000000000008484FE41
:10197000BEFF36FF5EFFEEFFF4FEE8FCC0E800C0ED
:10198000000000000000000000000000000101074E
:10199000040F0D1F011F0C1F1D3F093F327F003236
:1019A000000000000000000000000000000000989F
:1019B00018FC5CFE5CFEBCFEDCFFEAFFC0FA80C0E7
:1019C000008000000000000000000000008383F79A
:1019D000B1FF7AFF1B7F1A3F287F217F076F030724
:1019E00000030000000000000000000000000000F4
:1019F00000000000000000000000000000000000E7
:101A000000000000000000FC6CFE2AFF4CFF40FCC0
:101A100034FE0CFE5CFE0CFE64FE58FE28FC50F802
:101A200030F820F060F008080000006060F8B8FDB1
:101A3000B1FB60F100600000004040E0E0F4E4FE33
:101A4000E0F4E0F040E000400000007070FD9DFF19
:101A50009EFF70FE007000000808777770777707A8
:101A600077775727502552057275030100012F0122
:101A70000B0101010301170100012B572697271BBA
:101A8000158B235726886675B34867EB47976B77A6
:101A9000334515C8E1620D4AA650FC2A09212903E5
:101AA000FEFC000F9F50A8020500FC82818181810D
:101AB00082FC070000000F00000007070000070776
:101AC0000000070700000F0F00000707000F0F0FAF
:101AD0000F00070007000700000007000F000700C5
:101AE0000F000B060C041E0C0C0400003B043B789A
:101AF00010000000000000000000000000000000D6
:101B00000000000000000000000000000000804015
:101B10008040C080000000000000000000000000C5
:101B20000000000000000000000000008000804075
:101B300020102050E0C08000000000000000804025
:101B4000804080C080000000000000000000000015
:101B5000000000000000000000000000A87C8040A1
:101B60008040A8FC00F000000000800080808080A1
:101B70008080804020108804A854E8D8B070E040ED
:101B800020100804820180412A172E55E3C18B17CB
:101B90002EDCF8F8F0C08080C0C0C04080402050EB
:101BA00028140A0502018040A07060400005AB7552
:101BB000EADCB874E2C18040A0D1EA77AF170A042A
:101BC00002018255EEDCB874E8D0B870E040A04065
:101BD0008040E0D08A151F111F152A1F2A7FE0C000
:101BE0008017063F0906003E051F001F203E002209
:101BF0002518003E2511003D211E03083E211F220D
:101C00003F2039252211251B06043F0725191E25D3
:101C100038013D033A251B07291E0508004CF34CEB
:101C200000005CF65C00D5F08D14A1C881CFD9F11D
:101C3000AF2000F0F89C8E8783878E9CF8F0000020
:101C4000FEFF0303030303070EFCF80000FEFF037F
:101C500003030303070EFCF80000FFFF0000000071
:101C6000000000FFFF0000FEFF8383838383C7EE35
:101C70007C380000F8FC0E07030303070EFCF80095
:101C8000003F7FE0C08080C0E07F3FFFFF01010197
:101C900001010101FFFF0000FFFF0C0C0C0C1C3EBA
:101CA00077E3C100007FFFC0C0C0C0C0E0703F1F2D
:101CB00000001F3F70E0C0C0C0E0703F1F00007F09
:101CC000FFC1C1C1C1C1E3773E1C00001F3F70E0EE
:101CD000C0C0C0E0703F1F000000000001FFFF0116
:101CE0000000001A06222518003E050100330C33BF
:101CF000001200003E211F003E0501003E050116B6
:101D000006222518003E050100330C3300120000A6
:101D10003E211F003F013E0F063E041F003E2511DD
:101D2000003F2010003F09060F063F0906003F2034
:101D300010003E051F00033C0322063E2119003E11
:101D4000051F003F023F003E2511000000003E211C
:101D50001F000F300F003E2511001F0936080877BD
:101D60007770777707777757275025520572750375
:101D70000100012F010B0101010301170100012BDB
:101D8000572697271B158B235726886675B34867F8
:101D9000EB47976B77334515C8E1620D4AA650FCB7
:101DA0002A09212903FEFC000F9F50A8020500FC10
:101DB000828181818182FC1010000000008060E43B
:101DC000EAEE5EBEC480000000000000CEDF1F16F9
:101DD00016160BCFCF9F1E0C00000000008060F491
:101DE000F2F66EBEC48000000000001CDEDF0F0EA5
:101DF0000A1617DFDF9F0E0000301867EB47976B5E
:101E00007733452B572697271B158B67EB47976B27
:101E10007733452B572697271B158B67EB47976B17
:101E2000773345000000000000000015C8E1620D96
:101E30004AA650235726886675B34815C8E1620D37
:101E40004AA650235726886675B34815C8E1620D27
:101E50004AA65000000000000000002357268866B4
:101E600075B34815C8E1620D4AA650235726886607
:101E700075B34815C8E1620D4AA650000000000085
:101E800000000000000000000000007810000000CA
:101E90000000000000000000000000000000000042
:101EA0000000000000000000000080408040C08072
:101EB0000000000000000000000000000000000022
:101EC0000000000000000000800080402010205032
:101ED000E0C080000000000000008040804080C022
:101EE0008000000000000000000000000000000072
:101EF0000000000000000000A87C80408040A8FC9A
:101F000000F00000000080008080808080808040A1
:101F100020108804A854E8D8B070E04020100804CD
:101F2000820180412A172E55E3C18B172EDCF8F869
:101F3000F0C08080C0C0C0408040205028140A05F6
:101F400002018040A07060400005AB75EADCB87407
:101F5000E2C18040A0D1EA77AF170A04020182559E
:101F6000EEDCB874E8D0B870E040A0408040E0D02B
:101F70008A151F111F152A1F2A7FE0C0801B060229
:101F80003E01003E041F003E251100000000003EFF
:101F90002511003F011E003F211E281000000000F7
:101FA000000000000000000000003E051F001F09A7
:101FB0003600023E010000000000000000000000AA
:101FC00000000000182A221C00223E21003C043898
:101FD00000382410003C040800183428003C083C59
:101FE00000183428003C043800083F042810000082
:101FF000000000000000000000003E2113003E2110
:102000001F003D211E003E251100000000000000C1
:102010000000000000003054443800724A4600308E
:10202000487800F8483000F84830003068500070B8
:10203000483E007C422600704838007820781F1007
:102040003E051F00000018A4780018243C003C083E
:102050003C001834280000001F24380018207C00A1
:10206000000000000000000064544C007C44440068
:102070001038100010381000000000000000172079
:10208000F8080808C8881020408000000000000000
:1020900000000000000000FF0050003F201F00C0B3
:1020A000201F00E0F010F0E00070F080F0F0FF0082
:1020B000FF00FF413E817E817E000307040703008D
:1020C0000000000F070F080B0A0A0A0502010000B2
:1020D0000000000000000000000000002020804000
:1020E00020100A8F0A10204080000000000000002D
:1020F0000000000000000000000000000000FF00E1
:102100005000FF0027B494F4E70060F090B0201076
:1021100010FCFE101000FCFE00E0F090F0E0FF006C
:10212000FF007F807317D413F70002060407030033
:10213000000F070000000F0700030704060200015C
:1021400002052A7A2A0502010000000000000000B2
:1021500000000000000000000000000000000B0272
:1021600046000601460000008C00410018010000F6
:102170008C004100180100008C0041001801000093
:102180008C0000008C0000008C0000008C00060118
:102190001801060146000601460041001801000032
:1021A0008C0083008C0000008C00410018010000AE
:1021B0008C004100180100008C0000008C00000021
:1021C0008C004100180101800B06060F1F3E1F0FF7
:1021D00006003B043B2307047C0200447C42007E53
:1021E000047E007C4A22000201444A3000000000C4
:1021F0003E407C007E120C00005E13062225180073
:102200003E2113003E211F001F0936003E251110FC
:1022100010000000000000008080D0D0F8E8FCDC56
:10222000FEBCFE6CFE7CFE08FC0008000000000006
:102230000000000000000000E3E3F7F5FF36FF18A0
:102240003F063F16FFF8FFA3FF80E300C000000039
:10225000000000000000000000000000000000007E
:10226000800080008000800000000000000000006E
:10227000000000006060F070F8B8FC5CFEDAFFD788
:10228000FF2FFF5BFF5FFF02FFE8FEA0F880E0008A
:1022900080000000000000000000C8C8FCE4FEEE62
:1022A000FF5EFFB6FFBEFF04FE000400000000005A
:1022B000000000000000000000000101E3E3F7F56A
:1022C000FF96FF40FF367F003F0000000000000047
:1022D00000000000000000000000000000000000FE
:1022E00080008000800080000000000000000000EE
:1022F00000000000C0C0E040F8B8FC7CFE7AFF9708
:10230000FF4FFFDBFFDFFF02FF00020000000000C5
:102310000000F0F0F818FC183C307848FC24FE6E01
:10232000FFDEFFB6FFBEFF44FEC0E480C0008000B9
:102330000000030307040F008480E0A0F030FF17C3
:102340003F061F021F14FFF0FFA1F381E30081008D
:10235000000000000000800080000000000000007D
:10236000800080008000800000000000000000006D
:1023700000003E3E7F43FF03C786CF44EECAFFD72F
:10238000FF2FFF5BFF5FFF02FFE0F2A0F080E000A5
:1023900080000000000000008080C0C0E2E2F7E49E
:1023A000FEEEFFDEFFDEFFDEFFC4FE20F460F02065
:1023B0007000000000000303E7E2F7B1FB93FF0B9E
:1023C0009F030F0B1F1BFFF1FFA0F180E0008000B7
:1023D0000000000000000000000000008080C0003D
:1023E0008080C080C080C080C000800000000000ED
:1023F0000000000000003030F8A8FC5CFEBCFFBD0F
:10240000FF3BFFB7FFAFFF4FFFA1FF60F160F02080
:102410007000000000000000C0C0E8E8FCF4FEEE20
:10242000FF5EFF36FFBEFF84FE0084000000000058
:10243000000000000000000032327F093F1D3F0C09
:102440001F011F0D1F040F01070001000000000005
:102450000000000000008080C0C0FAEAFFDCFFBC82
:10246000FE5CFE5CFE18FC0098000000000000000E
:10247000000000000000030307076F217F287F1A78
:102480003F1B7F7AFFB1FF83F7008300000000004D
:10249000000000000000000000000000000000003C
:1024A000000000000000000000000000000000002C
:1024B0000060F020F030F850F828FC58FE64FE0C64
:1024C000FE5CFE0CFE34FE40FC4CFF2AFF6CFE005E
:1024D000FC000000000000000808FC7CFE6CFEBC54
:1024E000FEDCFEE8FCD0F880D00080000000000098
:1024F000000000000000C080E3A3FFF8FF16FF0605
:102500003F183F36FFF5FFE3F700E300000000004F
:1025100000000000000000000000000080008000BB
:1025200080008000000000000000000000000000AB
:1025300000008080E0A0F8E8FE02FF5FFF5BFF2F55
:10254000FFD7FFDAFF5CFEB8FC70F860F0006000B7
:1025500000000000000000000404FEBEFFB6FF5EA5
:10256000FFEEFFE4FEC8FC00C80000000000000011
:10257000000000000000000000003F367F40FF9692
:10258000FFF5FFE3F701E300010000000000000099
:10259000000000000000000000000000800080003B
:1025A000800080000000000000000000000000002B
:1025B00000000000000000000202FFDFFFDBFF4F11
:1025C000FF97FF7AFF7CFEB8FC40F8C0E000C00037
:1025D000000000008080C0C0E444FEBEFFB6FFDE05
:1025E000FF6EFF24FE48FC3078183C18FCF0F80021
:1025F000F00000008181E3A1F3F0FF14FF021F0649
:102600001F173F30FFA0F080E00084040F03070095
:1026100003000000000000000000000080008000B7
:1026200080008000000000000000800080000000AA
:1026300000008080E0A0F0E0F202FF5FFF5BFF2F70
:10264000FFD7FFCAFF44EE86CF03C743FF3E7F009C
:102650003E207060F020F4C4FEDEFFDEFFDEFFEE01
:10266000FFE4FEE2F7C0E280C0008000000000004E
:10267000000000008080E0A0F1F1FF1BFF0B1F03B2
:102680000F0B9F93FFB1FBE2F703E700030000008D
:1026900000000000000000008080C080C080C0807A
:1026A000C0008080C000800000000000000000002A
:1026B00000207060F060F1A1FF4FFFAFFFB7FF3B5C
:1026C000FFBDFFBCFF5CFEA8FC30F800300000003E
:1026D00000000000000000008484FEBEFF36FF5EA4
:1026E000FFEEFFF4FEE8FCC0E800C00000000000C0
:1026F0000000000000000000010107040F0D1F0191
:102700001F0C1F1D3F093F327F00320000000000F8
:10271000000000000000000000009818FC5CFE5C57
:10272000FEBCFEDCFFEAFFC0FA80C00080000000B3
:1027300000000000000000008383F7B1FF7AFF1B58
:102740007F1A3F287F217F076F03070003000000E7
:102750000000000000000000000000000000000079
:102760000000000000000000000000000000000069
:102770000000FC6CFE2AFF4CFF40FC34FE0CFE5CAB
:10278000FE0CFE64FE58FE28FC50F830F820F06085
:10279000F0130622251800023E01003E051F003EF0
:1027A0002119003E25114F28000000000000000004
:1027B0000000000000000000000000000000000019
:1027C000000000FE010501F11755155711511111B7
:1027D0001151511111111111515111F1010501FE48
:1027E00000000000000000000000000000000000E9
:1027F000000000000000007E0834007E027C0044DF
:102800007C42007C0A02007C4A220000202020201A
:1028100040807F000000FF004040685C684800087E
:102820004040406060786C706000FF000000FF0076
:102830000000000000000000000000000000000098
:1028400000000000000000000000E000E000C0A068
:10285000E000E0000000E080400000000000000018
:10286000007D02C4C8C1B97979B9C1C1C1010101F2
:1028700001010101010101018181004020AF2020FF
:102880002020202000007E207E007C083E00447C2A
:1028900042007E120C000000000702070007000340
:1028A000000704020007000300000101010101010B
:1028B000BD402313031D1E1E1D0303030000000063
:1028C000000C1E1E0C204347474340405F404040E1
:1028D000404040000040C02000E000C000E040E078
:1028E00000E020C0000000007A423C003E407C0036
:1028F0007C4226007E083400000404040402017EA9
:1029000080A08080808080808080F090D090D09067
:10291000F08080808080808080A0807F0000000028
:102920000000000004030000030407000700070084
:102930000701001E2C000000000000000080C0E025
:10294000F0F8FCFEFFFEFCF8F0E0C08000000000A4
:102950000000008040E0F0F8FCFEFFFFFFFFFFFFFB
:10296000FFFFFFFFFFFFFFFFFFFFFFFEFCF8F0E0B0
:10297000C0070F9EFDFBF70FDFBF7FFFFFFFFFFFCD
:10298000FFFFFFFFFFFFFFFFFFFF1F0F071F0F1ED0
:102990003F7FF3E1C000FFFF0F1E3D7BF70FFFFFFE
:1029A0001F0F071F0FFFC3E180C0E07E3F00000044
:1029B000000103000F1F3C78F0E0C000C3E180C0BD
:1029C000E07E3F1F0F070301000000000000000031
:1029D000000000000000000103000F0703010000D9
:1029E000000000000000000000080B0002020200CE
:1029F0000009040000010202000005240010010586
:102A000024010101042402060524060001070581B2
:102A10000310004009040100020A0000000705023B
:102A2000024000000705830240000004030904126D
:102A3000010002EF0201404123378000010102033F
:102A40000141726475696E6F204C4C4300417264A1
:102A500075696E6F204D6963726F00004D2C1124F3
:102A60001FBECFEFDAE0DEBFCDBF11E0A0E0B1E0E6
:102A7000E0E9F6E602C005900D92AE3FB107D9F746
:102A800027E0AEEFB1E001C01D92A03DB207E1F733
:102A900015E1CFE2D5E104C02197FE010E94403349
:102AA000CE32D107C9F70E94722C0C9446330C9495
:102AB00000008091380308956F927F928F929F92C9
:102AC000AF92BF92CF92DF92EF92FF920F931F933C
:102AD000CF93DF93DC017A014115510509F462C1FE
:102AE000FA01149131965491F2E0EF0EF11CC12FCE
:102AF000D0E0222309F1CC24C394D12C852F8770F8
:102B000011F4D12CC12CE52FE695E695E695EC0D58
:102B1000FD2DF11DEC9FC001ED9F900DFC9F900DD0
:102B20001124033011F4880F991F289FF001299F69
:102B3000F00D1124EE0EFF1EFD01EC0FFD1F1E1601
:102B40001F060CF02FC1A038B1050CF02BC1CB0132
:102B5000850F911D181619060CF024C160347105FB
:102B60000CF020C1E114F10409F41CC1362F3770B8
:102B7000CB0177FD079623E0959587952A95E1F798
:102B8000282F77FF04C0332311F02FEF280F66277B
:102B900077276A1B7B0BB7FD02C070E060E090E80E
:102BA0009A1BE038F1050CF4912F961BE22F022EB0
:102BB000000CFF0BDE2ED0942F3F0CF0D12C41E007
:102BC000852F877009F440E0B52EB694B694B6947C
:102BD0004B0DE40FF11D399714F048E0421BB42E61
:102BE000BD182D0D40E82403F0011124AE0FBF1FC6
:102BF000A60FB71F1D9D600D711D1124A701460F63
:102C0000571FC32E032E000CDD08033009F47EC0CD
:102C10000A3F09F441C0023009F0C4C06FEF70E010
:102C2000032E02C0660F771F0A94E2F76095709535
:102C3000972E8B2C820E281509F4B4C08D010059F3
:102C40001C4FF12CE12CE91608F054C0FA01EE0DEE
:102C5000FF1DE491F0E03F010C2C02C0660C771CD4
:102C60000A94E2F727FD05C0F801808186238629B2
:102C70008083332359F027304CF45801F0E8AF0E2D
:102C8000B11CF5018081892187298083FFEFEF1A2C
:102C9000FF0A0F5F1F4FD7CFB20E2B1509F482C06A
:102CA000BD0160597C4F10E000E0091748F5FA01BA
:102CB000E00FF11FE491F0E04F010C2C02C0880CF2
:102CC000991C0A94E2F727FD04C0FB018081882942
:102CD0008083332351F0273044F47B01F0E8EF0E7A
:102CE000F11CF7018081892980830F5F1F4F6F5F7F
:102CF0007F4FDBCF2F5F4C0F5D1FA058BF4F9BCF87
:102D00002F5F4C0F5D1FA058BF4FC7CFE92EF12C8E
:102D1000FA01E60FF71FA059BC4F60E870E06E198A
:102D20007F09CE19DF098E01000F111F41E050E02D
:102D30007A01032E01C0EE0C0A94EAF7592F4B2DAD
:102D4000892E932ECF93DF93ED01EF96EF96229687
:102D5000A590C590992059F0AE9C5001CE9C600181
:102D600027302CF4F880D094FD20FB28F992222300
:102D70003AF0FC90C094FC20FA28FD920C94C11605
:102D800011965A9529F74A9551F0582D23951124FB
:102D9000E00FF11DA60FB11DC60FD11DD9CFDF91D8
:102DA000CF911124DF91CF911F910F91FF90EF9060
:102DB000DF90CF90BF90AF909F908F907F906F905B
:102DC0000895E0E7F3E0A0E0B8E000800EBC8111D8
:102DD000012C1197A0FDFDCF0192B9F70DB4089514
:102DE000FC0180916F03882311F13FB7F89482E0D2
:102DF0008093E9002091F200822F90E018161906C6
:102E000014F481E090E0882339F0289A44E6409356
:102E10006E034091F1004083222339F02091F200AB
:102E2000211103C02BE62093E8003FBF08958FEFE8
:102E30009FEF08952FB7F89483E08093E900909175
:102E4000E800892F807295FF04C09091F20080E421
:102E5000891B2FBF08958091660381110DC082E008
:102E60008093620384E08093630310926503109261
:102E7000640381E08093660382E693E00895CF9334
:102E8000DF931F92CDB7DEB76983DC01ED91FC9132
:102E90000280F381E02D41E050E0BE016F5F7F4F83
:102EA00009950F90DF91CF91089583E08093E90019
:102EB0008091F200882319F08AE38093E800089556
:102EC0000E941A1790E00895CF93DF931F92CDB719
:102ED000DEB7FC018485958597FD08C02FEF3FEF95
:102EE000358724870F90DF91CF910895CE01019609
:102EF0000E94F016019719F4898190E0F3CF8FEFCB
:102F00009FEFF0CF0F931F93CF93DF931F92CDB717
:102F1000DEB78C01FC018485958597FF0BC0CE013F
:102F200001960E94F016019771F4898190E0F801F2
:102F300095878487F801848595850F90DF91CF91DF
:102F40001F910F9108958FEF9FEFF1CFFC018485C2
:102F5000958597FD0BC09FB7F89482E08093E900B8
:102F60008091F2009FBF90E0019608959FB7F8947A
:102F700082E08093E9008091F2009FBF90E0089585
:102F800040915C0350915D0320915A0330915B03A3
:102F900042175307B4F49091E8009570E1F39091D3
:102FA000E80092FD19C08093F10080915C0390913C
:102FB0005D0301968F739927892B19F48EEF809307
:102FC000E80080915C0390915D03019690935D030E
:102FD00080935C0381E0089580E00895DF92EF9292
:102FE000FF920F931F93CF93DF93D82E8A01EB01AB
:102FF0007B01E40EF51ECE15DF0559F0D7FE12C099
:10300000FE0184910E94C01721968111F4CF0FEF29
:103010001FEFC801DF91CF911F910F91FF90EF90AB
:10302000DF9008958881EECF0F931F93CF93DF93A6
:103030001F92CDB7DEB782E0898342E450E069EEAB
:1030400079E280E80E94EE170E942B17DC011296AD
:103050000D911C910115110589F0D801ED91FC919C
:103060000280F381E02DBE016F5F7F4FC80109959B
:1030700097FD04C0F80100851185ECCF89810F9080
:10308000DF91CF911F910F910895615030F0209101
:10309000F100FC0120830196F8CF289A84E6809302
:1030A0006E0308953FB7F8948091560390915703AB
:1030B000A0915803B091590326B5A89B05C02F3F96
:1030C00019F00196A11DB11D3FBFBA2FA92F982F4E
:1030D0008827BC01CD01620F711D811D911D42E049
:1030E000660F771F881F991F4A95D1F708958F9211
:1030F0009F92AF92BF92CF92DF92EF92FF926B01BD
:103100007C010E9452184B015C01C114D104E104FE
:10311000F104B9F00E945218681979098A099B09CB
:10312000683E73408105910580F321E0C21AD10801
:10313000E108F10888EE880E83E0981EA11CB11CFE
:10314000E4CFFF90EF90DF90CF90BF90AF909F9033
:103150008F9008958F929F92AF92BF92CF92DF92FD
:10316000EF92FF920F931F93CF93DF936C017B013C
:103170008A0180910C01882309F45CC080916F035F
:10318000882309F457C08091610380FF05C08091B6
:10319000E00082608093E000E801B12C8AEFA82E65
:1031A00093E0892E2AE3922E209711F4BB20D9F1C7
:1031B0000E941A1781110AC0AA94AA20D9F161E0CD
:1031C00070E080E090E00E947718EECF8C171D062B
:1031D00011F00CF08C2F9FB7F8948092E9002091A9
:1031E000E80025FD02C09FBFDFCF282F30E0C21BC3
:1031F000D30BF701815020F041914093F100FACFB9
:10320000E20EF31EBB2021F09092E800B12CEBCF30
:103210008091E80085FDE7CF9092E800BB24B3944D
:10322000209709F3F3CF5D9A84E68093600310162C
:1032300011063CF081E090E0F6019383828310E078
:1032400000E0C801DF91CF911F910F91FF90EF90A7
:10325000DF90CF90BF90AF909F908F900895209176
:103260003F03E0913D03F0913E03CF01029690931E
:103270003E0380933D03222319F085919491089594
:10328000808191810895CF92DF92EF92FF92CF9348
:10329000DF930E942F19811520E8920791F4809105
:1032A00071008D7F8093710010929100469847982D
:1032B00010922F03DF91CF91FF90EF90DF90CF908E
:1032C000089521E020932F03813020E8920751F4E4
:1032D00080913B0390913C0390933E0380933D0388
:1032E0000E942F1997FD05C020912E03222309F477
:1032F00054C020912D03211150C021E020933003B0
:10330000EC01DF77209709F04BC081E08093310317
:1033100046983FE9C32E3FE0D32EE12CF12CCAEFB3
:10332000D0E0E091CE07F091CF070995811103C05D
:1033300081E08093310380913003882329F08091CC
:103340003103882309F43FC047980E942F19009742
:10335000F1F19C01DE010E94FD32DC01CB0129E08C
:10336000B595A795979587952A95D1F710929000D6
:103370002AE020939100D0929900C0929800809307
:10338000320390933303A0933403B09335038091B9
:1033900071008260809371008DCF10923003B0CFA6
:1033A0009E0150E040E060E472E48FE090E00E9413
:1033B000BC3269017A0181E0C81AD108E108F1083C
:1033C00010923103AECF4699BFCF479ABECF8FEF51
:1033D0009FEFDC01CBCFEF92FF920F931F93DC01A5
:1033E000E1E7F0E090819D7F908310923F03E0EC55
:1033F000F7E0F0933E03E0933D03F0933C03E0934A
:103400003B03B183A08373836283558344833783F3
:10341000268311870087F386E2861F910F91FF9024
:10342000EF900C944319DC01E1E7F0E090819D7F7F
:10343000908310923F03E0ECF7E0F0933E03E093BB
:103440003D03F0933C03E0933B03B183A08373837C
:103450006283558344833783268380E090E8918795
:1034600080870C9443199C01E1E7F0E090819D7FF7
:10347000908310923F03E0ECF7E0F0933E03E0937B
:103480003D03F0933C03E0933B033183208373833C
:10349000628380E090E8958384830C9443190F93B2
:1034A00003E00E945C150F9108950F9302E00E94C3
:1034B0005C150F9108952D9A0895BC0190E080E06D
:1034C0000C9477188FB18095807F669B88601C9BD9
:1034D00084600895109238033E983F9808953E9A6C
:1034E0003F9A81E080933803089590914D0398238B
:1034F00029F490914E03982381E009F480E0089527
:10350000CF93C82F0E94621A982F9C2381E09C13AE
:1035100080E0CF91089580E00C94E116EF92FF9245
:103520000F931F93CF93DF93E02E480F592F511D18
:10353000FB01E20FF11D20E1F22E8417950744F5FF
:10354000EB019F01E134F10514F020E430E0C217F3
:10355000D307E4F480389105A0F48E0121E001FD49
:1035600024E000FD220F02FD2295087FF09ED0018D
:103570001124A80FA059BC4F3C91EE2021F0322B12
:103580003C932196DECF20953223FACF0196D5CFFA
:10359000DF91CF911F910F91FF90EF900895FF92CF
:1035A0000F931F93CF93DF93F82EAB01FB01849110
:1035B000CF2DD0E0259693E0CC0FDD1F9A95E1F753
:1035C0008695082F10E020E0BE0180E490E0801B8B
:1035D000910B0E94551A809139038F111BC0F090F6
:1035E0004B0322972F2D4AE15CE1BE0187E390E077
:1035F000801B910B0E94551A2F2D4AE15CE1BE0100
:10360000C8018C5B9F4FDF91CF911F910F91FF906D
:103610000C94551ADF91CF911F910F91FF9008954F
:10362000EF92FF920F931F9380912B0390912C03A5
:10363000892BD9F086E080934C0380E58093490381
:103640008EE5E82EFF24F39408E811E026E930E047
:1036500044EC50E064E670E082E690E00E94EB19F2
:103660001F910F91FF90EF90089585E080934C0398
:1036700088E280934903F4CF10924C0310924203E6
:103680008CE3809349031092390381E080934A03CD
:1036900085E08093440310922A03809343031092A1
:1036A0004603109245031092290308959091280330
:1036B000E62FF0E0899FE00DF11D1124CF019595D3
:1036C000879595958795E0912403F0912503E80F60
:1036D000F91FE491637070E0660F771F83E090E05C
:1036E000062E02C0880F991F0A94E2F7F0E08E239D
:1036F0009F2302C0959587956A95E2F708953F92BA
:103700004F925F926F927F928F929F92AF92BF92F1
:10371000CF92DF92EF92FF920F931F93CF93DF939D
:10372000EA0128816C01C21AD108D7FC97C08981AF
:10373000681B862E062E000C99082B81280D392D2A
:10374000311DC901019797FD079633E0959587953F
:103750003A95E1F7482E87FF13C080E0DF91CF91C3
:103760001F910F91FF90EF90DF90CF90BF90AF909F
:103770009F908F907F906F905F904F903F900895B3
:10378000082E000C990B209128032817190629F3FD
:1037900024F38A818C0D9D2D911D8C0101501109FE
:1037A00017FF02C0095F1F4F23E0159507952A9563
:1037B000E1F78091270390E0081719071CF08C01AE
:1037C00001501109760193E0F594E7949A95E1F799
:1037D00067FD695F562E55945594559457FC512CAE
:1037E000570183E0AA0CBB1C8A95E1F70E151F0553
:1037F0000CF4B3CF352C350188E0680E711C4314EE
:1038000034F1632D8E2D0E94561B9091260389174B
:10381000E0F08A818C0D9D2D911DA816B906ACF49F
:10382000C614D70494F4832D880F880F880F082EB0
:10383000000C990B2B81280D392D311D8217930710
:1038400024F40896881699064CF03394D8CF8FEF5D
:10385000E81AF80A88E0A80EB11CC8CF81E07ECF34
:10386000BF92CF92DF92EF92FF920F931F93CF936D
:10387000DF93E82E192F6B01B42EF22E422F440F46
:10388000440F00E027E00E948E1ACE2DD12F10E0C9
:1038900044E354E11B1510F449E354E10AEF20E03E
:1038A000B601CE010E945C151F5F2496F112F0CF85
:1038B000DF91CF911F910F91FF90EF90DF90CF900C
:1038C000BF9008953F924F925F926F927F928F9236
:1038D0009F92AF92BF92CF92DF92EF92FF920F939F
:1038E0001F93CF93DF93722E7C01E40EF11C47FDF2
:1038F000FA94662E620EC8E0D2E088E0482E83E09B
:10390000582E80E099E0392EC62C062C000CDD08DC
:1039100023E0A22EB12C2D8126FF46C03881333002
:1039200008F042C0D8019C914701891A9108339E42
:10393000F0011124EB5DFE4F908149815A81491BB2
:10394000510912966C911297680D792D711D4617C9
:10395000570754F59281490F511D8416950624F599
:103960009B809181692D691B062E000C770B1196A7
:103970004C91B62DB41B4B2F042E000C550BD801C7
:1039800013968C90DA01A80DB11D6A177B0764F4B9
:10399000E3816E0F711D4617570734F431111EC0B5
:1039A000B1E07B16C1F081E028964C165D0609F067
:1039B000B2CFDF91CF911F910F91FF90EF90DF90E9
:1039C000CF90BF90AF909F908F907F906F905F90BF
:1039D0004F903F90089520622D83E5CFE1E07E1265
:1039E000E3CF492D990C550B491B51094F5F5F4F90
:1039F000C416D506C9F68091400390914103B501E4
:103A00000E941833892B79F680901E0390901F0333
:103A10002072313021F4222321F08FEF03C02223C2
:103A2000E1F381E0880E911C87FD9A94A801662D30
:103A3000C4010E947F1B8111B6CF90921F03809218
:103A40001E03B1CFBF92CF92DF92EF92FF920F93FE
:103A50001F93CF93DF93EC01E62E6A01B22EFF2471
:103A6000F394161614F0FF24FA94EE2031F16A81D3
:103A70006F0DA601888199810E947F1B882359F0D0
:103A800081E0DF91CF911F910F91FF90EF90DF9038
:103A9000CF90BF900895B11005C08A818F0D8A83A1
:103AA000EF18E3CF86012F2D40E06A81888199814C
:103AB0000E94621C882389F3E3CF80E0E2CF5F920B
:103AC0006F927F928F929F92AF92BF92CF92DF922E
:103AD000EF92FF920F931F93CF93DF934C01C8E0B7
:103AE000D2E080E099E0792E6401C40ED11CE62E6C
:103AF000660FFF085701A20EB11C6624639413E001
:103B00009D8196FF81C0292F2F7009F07DC06881AB
:103B1000769EF0011124EB5DFE4F2681222309F4ED
:103B200073C049815A812081DA01A21BB1099D012C
:103B3000AC15BD050CF068C07281270F311D8216CF
:103B400093060CF061C02B813181231B022E000CE7
:103B5000330B2A153B050CF057C07381270F311D1D
:103B6000E216F3060CF050C06D3009F048C0209109
:103B70001E0330911F035524539495FF39C0241719
:103B80003507CCF1512C1E839F609D836FE070E060
:103B900088E690E00E94331A8D8185FF03C09E81E4
:103BA0009C5F9E8389608D83552069F18C81081705
:103BB00008F45CC08091450390914603288123500E
:103BC000223008F051C02D81207F2D836E820A960D
:103BD00090934603809345038D818F7B8D831C8258
:103BE0001F826EE170E08BE890E80E94331A0BC0F0
:103BF000421753073CF690619D831E82CDCF6E30F5
:103C000011F594FF17C081E02896B3E0C830DB07B8
:103C100009F076CFDF91CF911F910F91FF90EF9038
:103C2000DF90CF90BF90AF909F908F907F906F90DC
:103C30005F900895892F86958695869584708E83EA
:103C400099619D83B3CF6F3061F45524539495FDF2
:103C500004C0512C1E838D81A5CF1E8299619D8346
:103C6000FACF1E829960EDCF4996B2CF801B8C832C
:103C70006FE070E0B8CFE8E0F2E030E020E095815E
:103C8000911125C093E0220F331F9A95E1F7F901B6
:103C9000E85FFD4F808372836183438399E0899F4E
:103CA000D0011124AB5DBE4F16969C91948380EC9D
:103CB0008583DF01169681E0911101C080E08C932D
:103CC000285F3D4FD90117961C92CF0108952F5FB1
:103CD0003F4F38962032310591F6F0E0E0E0F5CF25
:103CE000EF92FF920F931F93CF93DF9310922303D2
:103CF0001092210382E080934C03E8E0F2E088E038
:103D000093E0158238968E179F07D9F71092070215
:103D100010920602E0912A03F0E0EE0FFF1FE35F2E
:103D2000FE4FC081D181FE0184918093270331969B
:103D3000E491E0932803FE0132968491182F107CC1
:103D400087FF83C093E0909326031092030291E0D3
:103D500090930402109201029093020210920002CA
:103D600099E0909305029AE09093FF0110921A0354
:103D7000FE013396E49198E0E99FF0011124349616
:103D8000F0931F03E0931E03E82FEF70EF5FEE0F39
:103D9000EE0FEE0FE093200381E080931203109268
:103DA00015031092140380931D03109211031092B7
:103DB00013038093160310920D03109219031092AF
:103DC000170310920E031092180310921003109212
:103DD0000F0310920C032496D0932503C093240361
:103DE0008091270390912803899FC0011124959504
:103DF000879595958795C80FD91FFE01F49010926D
:103E00002C0310922B0300E0F01609F442C0FE01CF
:103E1000319684912296FE016491482F4F704F5F36
:103E2000440F440F440FF8E06F9FB00111246C5F02
:103E30007F4F82958F700E943B1E103C21F490931F
:103E40002C0380932B030F5FDFCF92E09093260328
:103E500025E02093030297E090930402109205025C
:103E600086FF10C094E09093010296E090930202C6
:103E700091E090931A0398E09093FF0191E0909362
:103E8000000276CF209301029093020210921A034F
:103E9000F2CF10921C0310921B0310922203809108
:103EA0002B0390912C03892B99F084E8E82E83E072
:103EB000F82E02E610E02CE231E044EC50E06CE237
:103EC00071E088E891E00E94EB1988E78093220373
:103ED000DF91CF911F910F91FF90EF9008956F9216
:103EE0007F929F92AF92BF92CF92DF92EF92FF921A
:103EF0000F931F93CF93DF93CDB7DEB72A970FB6FB
:103F0000F894DEBF0FBECDBF8C016B01B22EBA019B
:103F100090E080E02AE0AE014F5F5F4F7A010E949F
:103F20006532F70101900020E9F7AF0141505109D6
:103F30004E195F09942EF1E0842F8195880FBF16EA
:103F400049F082E0B81611F080E004C0842F81951A
:103F5000880F880F5801A80EB11C87FDBA94440F32
:103F6000440F4F5F00E027E0B601C50101970E94B2
:103F70008E1A3701862D8E19891590F4F30121913F
:103F80003F0120532A3008F020E00AEF4AEF5BE1BE
:103F9000B601C5010E945C15F4E0AF0EB11CEACF7A
:103FA0002A960FB6F894DEBF0FBECDBFDF91CF913A
:103FB0001F910F91FF90EF90DF90CF90BF90AF9047
:103FC0009F907F906F9008953F924F925F926F9273
:103FD0007F928F929F92AF92BF92CF92DF92EF9299
:103FE000FF920F931F93CF93DF9380912303882336
:103FF00061F1E1EEFBE1E491E69520E041EE5BE169
:1040000060E270E080E490E08E1B91090E94551AF6
:1040100084E00E94751A811104C088E00E94751A1C
:10402000811110922303DF91CF911F910F91FF9087
:10403000EF90DF90CF90BF90AF909F908F907F9048
:104040006F905F904F903F90089580E10E94801A9A
:10405000882331F088E00E94751A81110C94A328FE
:1040600080912203882309F495C081508093220314
:1040700080912103811125C08091470390914803CD
:10408000009729F00197909348038093470320916C
:104090001E0330911F03245031098091270348E00B
:1040A000849FC0011124821793070CF076C680917B
:1040B0002A038F5F80932A030E94101B81E0809364
:1040C000210320911B0330911C0380911E039091CA
:1040D0001F03A901495E5F4F481759070CF4A2C698
:1040E000489797FD9AC690931C0380931B03C09139
:1040F0001B03D0911C0380911A03882389F0CE0101
:104100006CE170E00E942C33FB0120E04FEE5AE19D
:1041100064E070E080E190E08E1B9F0B0E94551AD6
:10412000CE01D7FD079633E0959587953A95E1F74F
:10413000982E99276C01A0E1CA0ED11CA92CB12C94
:10414000CA14DB040CF4B5C623E0AA0CBB1C2A95E8
:10415000E1F7AC1ABD0A10E000E0F12CE12CB92D1A
:10416000B1708B2E80912803E81608F0A0C66E2D42
:10417000892D0E94561B811172C611117EC6102F07
:10418000002309F47AC600E022E0882009F46CC616
:1041900023E06AC680911903882369F081508093D7
:1041A0001903811108C010921803809144038111F2
:1041B00002C010921D0380911703882341F08150A3
:1041C00080931703811103C081E0809316038091CF
:1041D0001D03882309F435C280911903811115C08C
:1041E00080911503811111C084E00E94751A882303
:1041F00009F46AC0109214038EE0809315036AE0FC
:1042000070E08FE991E00E94331A809119038111C7
:1042100025C080911503909113039111ADC78111B1
:104220001DC080911203882381F088E00E94751AD6
:10423000882359F01092120381E08093110384EED9
:1042400093EF9093100380930F03809112038823C0
:1042500019F080E10E94801A809313038091130368
:10426000C1EED1E0882311F0CDEDD1E080910E03B5
:10427000882309F446C0815080930E0310911903DE
:10428000E090150311110EC0E11067C780E20E9493
:10429000801A882309F45CC78FEF8093180381E0AC
:1042A00080930D03F0901803FF2009F4B4C08091AF
:1042B00040039091410311117EC02091130364E0EB
:1042C00021117DC062E07BC080E80E94751A8823BE
:1042D00009F49BCF80912903882371F0815080934A
:1042E000290381E0809314038EE0809315036AE034
:1042F00070E08FE393E087CF65E070E082E690E0C6
:1043000082CF80910F039091100382549F4F209190
:1043100011039093100380930F032223A9F097FDBC
:1043200008C01092100310920F031092110384E042
:10433000A3CF68EE73E00E942C3321E0AE018EE142
:1043400093E00E94221D9ACF68EE73E00E942C3306
:104350001616170694F421E0AE018EE193E00E9458
:10436000221D8093120380911203882309F486CFC3
:104370001092100310920F0381CF8E0121E040E0D4
:104380006091200380911E0390911F030E94621C84
:104390008111E7CF609120036F5FAE0180911E0312
:1043A00090911F030E947F1BDCCF81E08093180354
:1043B00010920D0377CF61E0123108F483CF70E0E3
:1043C0000E941833892B39F58E0120E04F2D609122
:1043D000200380911E0390911F030E94621C811193
:1043E0001AC00F2DFF0C110B80911E0390911F031B
:1043F000AE0160912003800F911F0E947F1B8111ED
:104400000AC080911E0390911F03080F191F10937B
:104410001F0300931E03EE2079F1609120038FEFBC
:104420008E0D80931503893038F5909114039923EC
:1044300009F433C1883001F581E080930C03809149
:104440001E0390911F0320910D0342EF5FEF211196
:1044500002C046E050E0840F951F90930A038093BA
:10446000090380911303882309F415C186E0681BB2
:1044700060930B032093080380912003813514F08F
:1044800010921D0380910C038823D9F180910903B8
:1044900090910A0320910803222309F41BC12DEFF8
:1044A0003FEF820F931F90930A038093090360915B
:1044B0000B03615001E024E048E00E945F1D811180
:1044C00010920C030091090310910A0349ED51E089
:1044D00060910B03C8010E947F1B811110920C0395
:1044E00080911B0390911C039801285F3F4F281770
:1044F00039072CF080589F4F8017910714F41092C1
:104500000C038B80AA80E09020038981E81A8881BF
:10451000C0901E03D0901F03C81AD10808E012E013
:10452000D0E0C0E099E0792EAC0CBD2CB11C0E2C73
:10453000000CFF088E0C9F2C911CD80115968C91B5
:10454000159786FFF9C08F7009F0F6C08C919DEF2A
:10455000980F923008F4F0C0789EF0011124EB5DC2
:10456000FE4F908111962D913C911297291B310994
:104570002A153B050CF0E0C09281290F311DC216AF
:10458000D3060CF0D9C013962C9113979181291B57
:10459000022E000C330B281539050CF0CDC0938189
:1045A000290F311DE216F3060CF0C6C0803109F464
:1045B000ADC008F092C0833008F4BEC083E0CC0FD9
:1045C000DD1F8A95E1F7C85FDD4F809144038823A2
:1045D000C1F190911703911134C0209791F1498155
:1045E0005A8120911E0330911F0391E04217530717
:1045F0000CF090E090930D0391E0421753070CF0FC
:104600009FEF9093180398E1909319031092110370
:1046100010920E0310921503815080934403882357
:1046200019F088E78093170382E080934F032FE00F
:1046300030E044EC50E069E170E080ED90E00E94F1
:10464000131AC8E0D2E061E1362E70E1472EECE0AB
:10465000EE2EF12CFAE0AF2EB12CA9E06A2EB3E0D9
:104660005B2E7724739416E1812E912C03E0C02EEB
:10467000D12C2D8127FF9FC0822F8F7009F474C029
:104680008150207F282B2D83811195C08C81811131
:104690005DC01E82F1C28EE0EACE809113038823B2
:1046A000A1F084E0681BE0911E03F0911F0380914C
:1046B0000D03882361F088EE9FEF02E022E048E1DD
:1046C0008E0F9F1F0E945F1DD7CE8BE0EBCF90E037
:1046D00080E0F3CF23E030E0E4CE813109F06ECF0B
:1046E000809129038D5F80932903809145039091E8
:1046F000460388539F4F9093460380934503159636
:104700001C9228E230E04AEA58E010C0F801158215
:1047100080914503909146038C599F4F9093460397
:104720008093450328E230E04AE252E06EE170E017
:1047300085E594E00E94131A2196085F1F4FC0324E
:10474000D10509F0FACED0E0C0E03FCF88818D30AE
:1047500021F425FFA1C185E038C18E3009F034C0B5
:1047600025FF74C287E031C126FFFEC24881443173
:1047700010F5E42FF0E0E154FC4D0C944033D323CA
:10478000E623E6232724272444244424442499248C
:10479000CC24242510244E257625BB252826342418
:1047A00034248926892625FF06C08F818F5F8F8359
:1047B000883241F41D82289623E0C830D20709F0E0
:1047C00058CF56CC8C30B9F77E82F5CF809140031C
:1047D00090914103B6010E941833892B61F7922F03
:1047E0009072413021F4911104C081E003C0911115
:1047F000FCCF8FEF49815A81480F511D87FD5A9593
:104800005A8349838F818F5F873111F08F83D3CF94
:104810001F82992319F02F7D2D83CDCF2062FCCFED
:104820008B818F5F8B83843439F480912B0390913B
:104830002C03892B49F01D82809140039091410304
:10484000B7010E94183309C08CEF8B83F5CF80919C
:1048500040039091410387709927892B09F0ABCFD2
:104860008E818F5F8170B1C0469DA00111244B5D88
:104870005E4F20E062E0CE0101960E94221D8881F9
:10488000813109F498CFD8CF0091400310914103B2
:10489000C801B6010E941833892B91F48F8124FF3F
:1048A00014C08F5F8F838A3071F44B814A506981C5
:1048B0007A8182E10E943B1E8D818F7E8D831F82D3
:1048C0008D8184FF14C05E8276CFE981FA81922FB8
:1048D000907261E070E025FD02C06FEF7FEF6E0F18
:1048E0007F1F7A8369838F5F873161F08F830770C1
:1048F0001127012B09F05FCF8E81823009F4CCC0E3
:1049000082E063C01F82992319F02F7D2D83D8CFB9
:10491000463059F480911E0390911F03681B790B58
:104920006E35710514F420612D838D8180628D8335
:10493000C7CF25FD0DC089819A8140911E035091FA
:104940001F03841B950B8A35910514F420622D8377
:104950008D8185FF30CF209140033091410320FDB0
:1049600015C089819A8101979A838983883F9F4FD7
:104970000CF41D828F818F5F8F8364E10E940C3362
:1049800091E080FF9FEF8B81890F8B832770332706
:10499000232B09F4B1CF0FCF8F8124FD2DC08C3391
:1049A000B0F48F5F8F838091400390914103B501F4
:1049B0000E941833892B09F0FECE9D818E8195FFD0
:1049C0009CCF853009F0C7CE84E08E83F4CE8981F8
:1049D0009A8140911E0350911F03BC016F537109CE
:1049E0004617570704F3815B9F4F84179507DCF246
:1049F00020612D831F82D7CF49815A81922F9072D7
:104A000061E070E025FD02C06FEF7FEF460F571F9A
:104A10005A8349838F5F8F83883631F4992381F0DD
:104A20002F7D2F7E2D831F829F81892F837009F414
:104A3000BACF8B81943330F491E0890F8B83B3CF5D
:104A40002062EFCF9FEFF9CF809140039091410317
:104A5000B6010E941833892BD9F48F818E3110F45E
:104A60008F5F8F838F818E3199F469817A818091F4
:104A70001E0390911F03FB01E81BF90BEE35F105B6
:104A80000CF03ECF4B81445083E10E943B1E1F82BD
:104A90008F81843108F034CF81E097CF80911E035D
:104AA00090911F03039649815A818417950714F04A
:104AB00020622D838D8185FF7ECE20E041E951E08B
:104AC00061E0CE0101960E94221D882309F473CE75
:104AD0008D818F7B8D832FE030E044EC50E069E1E5
:104AE00070E080ED90E00E94131A65CE4091400383
:104AF00050914103CA0183709927892B09F524FF3E
:104B00000BC0822F8F7E8D8325FF2AC02F7C2D83A3
:104B10009F8187E5891B8F8329813A819D81892F18
:104B2000807261E070E095FD02C06FEF7FEF260FAD
:104B3000371F3A8329832F812F5F2735A1F02F83D9
:104B4000CA01B4010E941833892B09F034CE9D812B
:104B50008E8195FFD2CE863009F4FDCD86E035CF2B
:104B600080628D83D5CF1F82882319F09F7D9D831E
:104B7000E7CF9062FCCF8091400380FD42C0498125
:104B80005A81922F907261E070E025FD02C06FEFB4
:104B90007FEF640F751F7A8369838F818F5F8F83A7
:104BA000883699F4992309F43FC02F7D2D831F8205
:104BB000809107028F5F80930702833031F424FFD6
:104BC00002C02F7E2D83109207028091070282304F
:104BD00068F58C8190E00896209106022F5F209363
:104BE000060228171906A1F09CF04B818BE00E9469
:104BF0003B1E1092060269E170E088E891E00E9495
:104C0000331A80910702823018F08F818433D8F0F4
:104C100080914003909141038F709927892B09F06F
:104C2000CACD8E819D8195CF2062C0CF9F81892F73
:104C3000837059F38B81943320F491E0890F8B8337
:104C4000E0CF9FEFFBCF8D8185FD8CCD83E0BDCE86
:104C500024FF06C02F7C2D83109207021F827E82C4
:104C60009D818F8195FF0AC08F5F8F83843609F005
:104C7000A2CD9F7D9D837E821F829DCDE091060205
:104C8000F8E0EF9FA00111249C8128E130E09730EB
:104C900010F030E020E0E0910702E770E40FF52F1C
:104CA000F11DE20FF31FEE54F54EE491EE2319F0DF
:104CB00098E08D3008F491E09E838F5F8F83803180
:104CC00009F079CDEE2369F04B814E1B69817A8121
:104CD00083E10E943B1E69E170E088E891E00E9458
:104CE000331A1F82809107028F5F809307028831F9
:104CF00009F061CD8D8180628D836E8210920702F2
:104D0000809106028F5F652D0E940C3390930602FE
:104D100052CD29813A81215031093A832983E0918A
:104D20004003F0914103423189F44F819EEF940F8B
:104D30008B81890F8B83483048F4CF01B5010E94E5
:104D40001833892B19F481E0840F8F838B8185348C
:104D500044F480911B0390911C030897281739078E
:104D60000CF41D82CF016CCD8F818F5F8F838830D3
:104D700009F021CD8E818F5F8E83833009F07CCF47
:104D80008881833021F4488220642D8382CC843052
:104D900011F43882F9CF1D826FCFE0912B03F0918F
:104DA0002C03309721F08481882309F480C98091F5
:104DB00047039091480320911D03222319F0009787
:104DC00009F07FC910921D03109229030097C9F4BE
:104DD0001092430387E080934C038CE8809349034F
:104DE0005EE5E52EFF24F39401E310E026E930E0D0
:104DF00042E650E064E670E084EC90E00E94EB193B
:104E00005DC98C579C4F90934803809347038091D2
:104E10004303815080934303DDCF10921C03109213
:104E20001B0365C9265D3F4F281739070CF05FC982
:104E30008A9790931C0380931B0320912703205192
:104E4000330B43E0220F331F4A95E1F72817390748
:104E50000CF04DC930931C0320931B0348C98230CA
:104E600071F420910502F12CE8E0EE9EB0011124CE
:104E700048E55AE1C5010E94551AE39473C983308D
:104E800081F4811002C0E0FC70C120910102F11098
:104E900020910302F0900002F11007C0FF24F39468
:104EA000E3CF2091FF0100E0DFCF0F2DDDCF939402
:104EB00045C908E012E088E0E82E83E0F82E99E08A
:104EC000D92ED80115963C91159737FF26C0169616
:104ED0002C91169713966C911397062E000C770B56
:104EE00011968D919C9112973F7409F415C1EC9124
:104EF000DE9EF0011124EB5DFE4F47815085358128
:104F0000631B710937FD73953481831B910937FD4C
:104F100093958C1B9D0B0E944F1A085F1F4FE01644
:104F2000F10679F6E0914003F091410380911D0371
:104F30002AE0882339F18091190329E0811122C0E8
:104F4000209115032111EEC080911203882309F4EA
:104F5000F5C080911803882389F0CF016CE070E0E0
:104F60000E941833892B31F48091FE0191E089274A
:104F70008093FE018091FE018111DCC080911303BA
:104F800081112F5FE370FF27EF2B71F480911903DC
:104F900081110AC080911703882331F08091160394
:104FA00091E089278093160380911603882309F4E2
:104FB00047C010910D038BE0111101C080E0280F54
:104FC00060912003062E000C770B605171098091CF
:104FD0001E0390911F03089744EA54E18C1B9D0B1C
:104FE0000E944F1A809115038150873048F58091B7
:104FF0001403811125C042E854E1111102C040E6BA
:1050000054E160912003062E000C770B809113036E
:10501000882309F495C084E090E0681B790B8091A7
:105020001E0390911F0328EE3FEF111102C028E0EC
:1050300030E0820F931F20E08C1B9D0B0E944F1AC3
:1050400080910C03882389F060910B03062E000CDD
:10505000770B8091090390910A0320910D034EE391
:1050600054E18C1B9D0B0E944F1A25E04091440394
:1050700070E060E090E080E00E94301C00E027E0FB
:105080004DE070E060E086E390E00E948E1A0AEF47
:1050900020E042EE5AE170E060E087E390E00E9499
:1050A0005C154091290350E020E070E060E084E46A
:1050B00090E00E946F1F80914703909148036CE33A
:1050C00070E00E941833AB0122E070E060E080E8FD
:1050D00090E00E946F1FE0912B03F0912C0330971A
:1050E00011F40C9413202CE044816AE370E088E210
:1050F00090E0DF91CF911F910F91FF90EF90DF90A3
:10510000CF90BF90AF909F908F907F906F905F9067
:105110004F903F900C94301C6A507109049746E2FE
:105120005AE1F7CE80911403811102C0283020F497
:1051300026E024CF22E022CF24E020CF28E022CF97
:105140008CE090E06ACF81E0809323030C941320DD
:1051500080E40E94801A811128C98091120388235B
:1051600009F4A0C8109218039DC820910402F11000
:1051700091CE209102028ECE811170C880E10E94F2
:10518000801A811171C841EE51E060912003809135
:105190001E0390911F030E947F1B5EC81F920F92F7
:1051A0000FB60F9211248F939F938091E1009091FD
:1051B000E100937F9093E10083FF0FC01092E9001C
:1051C00091E09093EB001092EC0092E39093ED004D
:1051D00010926F0398E09093F00082FF22C093E05A
:1051E0009093E9009091F200992319F09AE390933B
:1051F000E80090916003992341F0909160039150F1
:1052000090936003911101C05D9890916E03992372
:1052100041F090916E03915090936E03911101C0F3
:10522000289884FF18C08091E2008E7E8160809370
:10523000E2008091E1008F7E8093E1008091610324
:105240008E7E8061809361039F918F910F900FBE3E
:105250000F901F90189580FFF7CF8091E2008E7E0F
:1052600080618093E2008091E1008E7E8093E10076
:10527000809161038E7E8160E5CF1F920F920FB601
:105280000F921124CF92DF92EF92FF920F931F9310
:105290002F933F934F935F936F937F938F939F933E
:1052A000AF93BF93EF93FF93CF93DF93CDB7DEB769
:1052B0006C97DEBFCDBF1092E9008091E80083FFBC
:1052C00025C068E0CE0145960E94451882EF809384
:1052D000E8008D8987FF39C09091E80090FFFCCFEE
:1052E000982F907609F034C19E894F89588D2F8967
:1052F000F88C911131C0803861F580915F03809303
:10530000F1001092F1008EEF8093E8006C960FB6DA
:10531000F894DEBF0FBECDBFDF91CF91FF91EF912B
:10532000BF91AF919F918F917F916F915F914F91BD
:105330003F912F911F910F91FF90EF90DF90CF90B1
:105340000F900FBE0F901F9018959EEF9093E8005E
:10535000C7CF1092F100D5CF913059F48111D3CF3E
:105360004130510581F680915F038D7F80935F030B
:10537000CACF933049F48111C6CF4130510519F697
:1053800080915F038260F2CF953041F48091E80014
:1053900080FFFCCF20682093E300B5CF963009F062
:1053A000A9C00B8D1C8D22E01092E90010925D03C4
:1053B00010925C03F2122EC010925B0310925A03FB
:1053C0000E9414181F8299E09983FA8291E09E83CB
:1053D00090EA98879AEF998720915C0330915D035A
:1053E000275F3F4F3C832B838D831092E9001092FF
:1053F0005D0310925C0310935B0300935A0349E032
:1054000050E0BE016F5F7F4F80E00E94EE170E9468
:10541000141879CF10935B0300935A030E942B1743
:10542000DC0112960D911C910115110509F451C171
:10543000D801ED91FC910480F581E02DBE016B5EF9
:105440007F4FC8010995009709F03EC1F80100851A
:105450001185EACFF3E0FF120EC08F89882309F48B
:1054600040C0823061F440E86DE08DE49AE20E9431
:105470001A2C811148CF81E28093EB0047CF813015
:1054800029F440E86BE081E49AE2F1CF833099F7A8
:105490000E942B17DC011296ED90FC908E010F5F9D
:1054A0001F4F6801E114F10479F0D701ED91FC91EF
:1054B0000680F781E02DB801C7010995080F111D7D
:1054C000F701E084F184EECFD8011C92F60101903F
:1054D0000020E9F73197BF016C197D0940E0C60152
:1054E000C6CF6BE27AE2FB01449150E080E80E9473
:1054F000EE1709CF973009F4BECF983021F481E040
:105500008093F10000CF993009F0FDCE837009F04F
:10551000B2CFE6EEF1E081E031E096E32191222383
:1055200071F08093E9003093EB00DF0111972C912B
:105530002093EC009093ED008F5F873079F78EE732
:105540008093EA001092EA008F8980936F03DBCE8C
:105550008B8D9C8D1092E90010925D0310925C037C
:1055600090935B0380935A03898D811192C08E8939
:105570009D89913A49F4813209F07DCF47E050E0AE
:1055800065E071E080E0B3CF913209F074CF8332EF
:1055900069F48F89988DB0E0A0E080930101909329
:1055A0000201A0930301B0930401ADCE803269F4EF
:1055B0008091E80082FFFCCF67E085E091E00E94E7
:1055C00045188BEF8093E8009ECE823209F09BCE87
:1055D0008F8980930C01EEEFFFE7859194918B3FCB
:1055E0009C4D51F1E0E0F8E08091050190910601B9
:1055F000A0910701B0910801803B9440A105B1053D
:10560000F1F480910C0180FD1AC0EE3F8AE0F807AA
:1056100089F587E797E79183808380916000809385
:105620005E0388E19BE00FB6F894A8958093600034
:105630000FBE9093600067CEEEEFFAE0D5CF808189
:1056400091818737974709F05ECEA89580916000D9
:1056500088618093600080915E0380936000EE3FDC
:105660002AE0F20789F08091FE0A9091FF0A918367
:10567000808349CE808191818737980751F290933A
:10568000FF0A8093FE0AC5CF1092FF0A1092FE0A0D
:105690003ACE0E942B17DC0112960D911C91011538
:1056A000110509F4E8CED801ED91FC910190F0814B
:1056B000E02DBE016B5E7F4FC8010995811123CE9D
:1056C000F80100851185EBCF181619060CF41BCED6
:1056D000D2CEF1E0FF12BECE6FE27AE204CF1F928B
:1056E0000F920FB60F9211242F933F938F939F9396
:1056F000AF93BF938091520390915303A0915403B1
:10570000B09155033091510323E0230F2D3758F505
:105710000196A11DB11D20935103809352039093D4
:105720005303A0935403B093550380915603909173
:105730005703A0915803B09159030196A11DB11DC3
:105740008093560390935703A0935803B093590343
:10575000BF91AF919F918F913F912F910F900FBE6D
:105760000F901F90189526E8230F0296A11DB11DDA
:10577000D2CF1F920F920FB60F9211242F933F9307
:105780004F935F936F937F938F939F93AF93BF9349
:10579000EF93FF938091320390913303A0913403F0
:1057A000B0913503892B8A2B8B2B09F440C0809153
:1057B000310381110BC088B190E4892788B98091A9
:1057C0003003882319F088B1805888B9809132035A
:1057D00090913303A0913403B09135031816190644
:1057E0001A061B069CF48091320390913303A0911A
:1057F0003403B09135030197A109B10980933203B5
:1058000090933303A0933403B0933503FF91EF914A
:10581000BF91AF919F918F917F916F915F914F91C8
:105820003F912F910F900FBE0F901F9018950E94DF
:105830004319ECCFEF92FF920F931F93CF93DF9317
:10584000F82E192FE62E042F81E0860F880F0E9474
:10585000C01783E00E94C017CF2DD12FEC0EFD2E74
:10586000F11CCE15DF05B9F007FF13C0FE018491CE
:105870000E94C017182F80E00E94C0178123219634
:105880008111EFCFDF91CF911F910F91FF90EF909A
:1058900008958881EDCF81E0F5CFE0E7F7E013824E
:1058A000128288EE93E0A0E0B0E084839583A68323
:1058B000B78380EF91E0918380838FEF9FEF95878F
:1058C000848789E595E19093CF078093CE0780E0A8
:1058D00090E89093CD078093CC0746983E9A4798DE
:1058E0003F9A0895789484B5826084BD84B58160C0
:1058F00084BD85B5826085BD85B5816085BD80919B
:105900006E00816080936E00109281008091810012
:10591000826080938100809181008160809381000A
:1059200080918000816080938000809191008260EE
:10593000809391008091910081608093910080918B
:1059400090008160809390008091C100846080937A
:10595000C1008091C10082608093C1008091C1002C
:1059600081608093C1008091C30081608093C300F7
:105970008091C00082608093C0008091C2008160ED
:105980008093C20080917A00846080937A00809135
:105990007A00826080937A0080917A00816080939F
:1059A0007A0080917A00806880937A0010926F0369
:1059B00010925F03109261038091D7008160809301
:1059C000D70080EA8093D80089B5806189BD89B508
:1059D000826089BD09B400FEFDCF61E070E080E027
:1059E00090E00E9477188091D8008F7C806180932E
:1059F000D8008091E000807F8093E0008091E100FA
:105A00008E7E8093E1008DE08093E200559A209A8B
:105A10005D98289881EC80937C0085B1806F85B972
:105A200084B1877E84B984B1876E84B95E9A5F98A9
:105A30008AB1806D8AB9769A6E9881B3806F81BB86
:105A4000899880B38D7080BB80E58CBD81E08DBD71
:105A500085E090E00E945D1A5F9A85E090E00E94E8
:105A60005D1A5E985C98E6E2FCE183E39CE1249198
:105A70002EBD00000DB407FEFDCF31968E179F0797
:105A8000B1F75C9A81E88093640080916500816041
:105A9000809365000E948B1A80E80E94801A8823F8
:105AA000A9F05C9885EA8EBD00000DB407FEFDCF1D
:105AB0005C9A2E982F982D98809164008062809334
:105AC000640081E083BF889513BEFCCF84E00E9410
:105AD000801A882309F448C02D9884E80E94801A0F
