:100000000C94440E0C946C0E0C946C0E0C946C0EB0
:100010000C946C0E0C946C0E0C946C0E0C946C0E78
:100020000C946C0E0C946C0E0C946C0E0C946C0E68
:100030000C946C0E0C946C0E0C946C0E0C946C0E58
:100040000C94A5240C946C0E0C946C0E0C946C0EF9
:100050000C94AF230C946C0E0C946C0E0C94042333
:100060000C946C0E0C946C0E0C946C0E0C946C0E28
:100070000C946C0E0C946C0E0C946C0E0C946C0E18
:100080000C944E230C946C0E0C946C0E0C946C0E11
:100090000C946C0E0C946C0E0C946C0E0C946C0EF8
:1000A0000C946C0E0C946C0E0C946C0E06073C06B3
:1000B00018110410FF0003100001031001020210C8
:1000C00002020310FF000414FF0006073C0518128B
:1000D0000410FF00031000010310010202100202CD
:1000E0000310FF000607320418110510FF0003106B
:1000F0000002031001020210020206063204181068
:100100000310FF000310000103100101021002019F
:1001100006073204180E030CFF00030C0001030C49
:100120000102021002020607280620120310FF0037
:100130000310000103100102021002020310FF006D
:100140000414FF000607280520100410FF00031008
:10015000000103100102021002020310FF00060753
:100160002804200F0310FF000310000203100101F8
:10017000021002020606280420110310FF000310DB
:1001800000010310010202100201060728042010DA
:10019000030CFF00030C0001030C01020210020219
:1001A0000506190420100410FF00031000010310BD
:1001B0000101021002010310FF00050619042010BE
:1001C0000310FF00041000020310010102100201DD
:1001D0000506190320160410FF0003100001041087
:1001E000010105051903200F0510FF00031000028F
:1001F0000210010105051903200B0310FF00031075
:1002000000020210010104050F0420170410FF0072
:10021000041000010310FF000310FF0004050F0588
:1002200020100210FF000310000104100101031050
:10023000FF000310FF0004050F0420100210FF0050
:1002400003100001041001010310FF0004050F0357
:10025000180A0410FF000310000202100101040537
:100260000F0320070310FF0002100002021001011B
:100270004D4F52414C7E535550504F52543A7E4A46
:100280004553534943410054455354494E473A7EE0
:10029000545558494E41544F523230303900207E27
:1002A00047524150484943533A7E56414D50495276
:1002B00049435320002020444556454C4F50455259
:1002C0003A7E46494C4D4F544500204359424552D1
:1002D0004841434B3A2050504F547E323032310027
:1002E0002D7E534F4C447E4F55547E2D0A004D4F6A
:1002F00056452048455245004841434B494E470A20
:1003000043594245524445434B530A5341564500D5
:100310004445434B7E563320004445434B7E563282
:1003200020004445434B7E563120004E4F7E4445CD
:10033000434B20004F460042414C414E4345005440
:100340004F4F4B00434F4E47524154554C41544937
:100350004F4E5321004F5645522100495300484506
:1003600052450054494D4500554E464F5254554E46
:100370004154454C592C00414E59004146464F527C
:10038000440043414E4E4F5400434F4E54494E5546
:10039000450053574150004F520050555243484179
:1003A000534500434F4D504C455445442E00424563
:1003B000454E004841434B53004F4E434500465580
:1003C00052544845522E00414C4C4F5700474F4F16
:1003D000442E00414E44005345525645525300426C
:1003E0005900444F4E452E0048415645005448455B
:1003F00059005041590043524F4F4B5300434F5205
:10040000504F0054484F5345004D49474854004809
:1004100041434B494E470052454D4F5445005354BC
:1004200055434B2C00414D00494600434155474838
:10043000542E0047455454494E47005448455245B0
:100440000055504752414445532E00534F4D4500EF
:1004500053484F50532E00004F55542E004D450029
:1004600048454C5000434F4E544143540046494E7A
:100470004400484F504500484552452E004C4556D3
:10048000454C004C4F5745520050454F504C45008D
:10049000524947485400504159494E470057484532
:1004A0004E0050524943452E004E414D452E2E2EB2
:1004B00000434C4541520043414E00484500444FE3
:1004C000574E2E005448454D0053454C4C00544F58
:1004D0004441592E00554E434F564552004D554309
:1004E0004800484F570048555254532E005748452E
:1004F000524500484954004C45542753004649474B
:10050000485421004100574954484F555400484F22
:100510004D4500474554004556454E0043414E2742
:1005200054004845434B2C0057484154004D4F520E
:10053000450053595354454D5300544845495200C2
:100540004841434B004C414D4553542E004E4350BF
:100550004427530041564F494400494E54454C00EE
:100560004A55535400484F4D452E004954004D41C3
:100570004B450054455252592C004E4F57004441B0
:10058000544121004F574E00594F5552005749547E
:10059000480057494C4C00494E54454C21005448A2
:1005A0004500464F5200594F55005448414E4B00AC
:1005B0004C4556454C2100544852454154004D5934
:1005C00000474F455300555000544849532E00549E
:1005D00048524F5547480042524541434800505207
:1005E000455041524544005741534E275400444121
:1005F000524E2C00434F5354532100414C4C004168
:100600005400444F574E00434F52500054484154F9
:100610000054414B4500544F004E454544004900AD
:100620000A00D5F08D14A1C881CFD9F1AF20000305
:100630000302050202021C1E0A10000020408086F0
:100640008687C6CF00000000061E1E1F5F5F2222A5
:10065000FFFF0703010000000000004000C8B8F8D9
:10066000F8F8F8F8F8F8F8F8F8F8F8F08001030767
:10067000FFFFFFFFF000000000000000E0F0F47C4E
:10068000180001FFFCFDF1F1F0F2FAFFFFFF00009E
:10069000C0FFFFFFFFFFFFF8E000000000000001C7
:1006A000004000889C9C9F9DBFFFFFFFFFFF7F9B3A
:1006B000EFF0FFFFFFFFFFFF7F8F770300000000D9
:1006C00000000000000C3C3E3FBFBFDFDFCF8703D0
:1006D00040A143871F7FFFFF0303020202020202C1
:1006E00002020202020202020202020202020202EA
:1006F000020202020202020202037E00010203045D
:100700000500060708090A20032223240025020306
:10071000270028290203222324002A2B2C18002D2D
:100720001A2E192F3000313233343500363738194C
:10073000063900233A3B3C1B013D003E01022D26B9
:10074000033F0003044041010203320321004243FE
:100750004413450018354647481949004A01434BA0
:100760001300144C4D4E011B4F05005003515253C2
:10077000373203195500010256570257250200036C
:1007800032583400595A5B015C5D5E005F60515223
:10079000005361626300020364182E006566676897
:1007A0005F2B690001434F266A003F23036C52030D
:1007B000002A406D6E01662E0102010043044007CD
:1007C00018006B0B010C0D00030E0F10001112131B
:1007D0001415161718191A00011B041707001C1D01
:1007E0001E1F096F667000710375007273740057E5
:1007F000096F71007917007677780057791D007AB4
:100800007B7C7D7E00096F7100177F190607001C35
:100810003580810B0D0D0C08070B100E0B0A0C0C0C
:100820000D150F0F100E0C07100A08010101010031
:1008300000010000010A00070D002E6B3A000014B1
:10084000061B0F1B06000A4C4F41440054455252F0
:100850005920422E00290A7E204E4F004C4F57450A
:10086000527E5448524541547E3130250A7E2059EB
:10087000455320280043594245524445434B5300B9
:100880000308070707070800282C2E2C28008801DA
:100890003C0000003C0088013C000080544152476D
:1008A000455420004D4F4E45590053544154555323
:1008B00020202020202020204841434B0004090113
:1008C000000101010001014D1000FF5EFF02FF0267
:1008D000FFF2FF52FFF2FF02FFF2FF02FF02FF02F0
:1008E000FFF2FF02FF02FF02FF02FF02FF02FFF220
:1008F000FF42FFF2FF02FFF2FF52FFF2FF02FFF2A0
:10090000FF12FF12FF02FFF2FF42FFB2FF02FF726F
:10091000FF52FFD2FF02FF02FF02FF02FFF2FF526F
:10092000FF12FF02FF02FFF2FF02FF02FFF2FF12BF
:10093000FFF2FF02FF02FFF2FF02FF02FF72FF520F
:10094000FFD2FF02FFF2FF42FFF2FF02FFF2FF526F
:10095000FF12FF02FFF2FF12FFE2FF02FF02FF5E43
:10096000FF00FF001F091F081F081F091F081F099C
:100970001F081F091F091F091F081F091F091F0939
:100980001F081F081F081F081F091F081F091F082D
:100990001F091F081F091F081F091F091F091F081A
:1009A0001F091F081F091F081F091F091F091F080A
:1009B0001F081F081F081F091F081F081F081F08FE
:1009C0001F091F081F081F091F081F091F081F08EC
:1009D0001F091F081F081F091F091F091F081F09DA
:1009E0001F081F091F081F091F091F091F081F09CA
:1009F0001F091F081F081F081F091F001F43414E22
:100A00004E4F54204D4F56450042554646455220C4
:100A100046554C4C00444953434F4E4E4543544574
:100A20004400371000FF5EFF02FF02FF02FF02FFDB
:100A300002FF02FF02FF02FF02FF02FF02FF02FFAE
:100A400002FF02FF02FF02FF02FF02FF02FF02FF9E
:100A500002FF02FF02FF02FF02FF02FF02FF02FF8E
:100A600002FF02FF02FF02FF02FF02FF02FF02FF7E
:100A700002FF02FF02FF02FF02FF02FF02FF02FF6E
:100A800002FF02FF02FF02FF02FF02FF02FF5EFF02
:100A900000FF001F091F081F081F081F081F081F4D
:100AA000081F081F081F081F081F081F081F081F0E
:100AB000081F081F081F081F081F081F081F081FFE
:100AC000081F081F081F081F081F081F081F081FEE
:100AD000081F081F081F081F081F081F081F081FDE
:100AE000081F081F081F081F081F081F081F081FCE
:100AF000081F081F081F081F081F081F091F001FC5
:100B0000100350005D01500000805D015000100393
:100B1000500000805E024C0236021C020602F40104
:100B2000E201D001BA01A0018A0174015E01440111
:100B300026011001FA00E400CA00AC000A05101CEE
:100B40001F1C1001071F0701484F4C442020207E26
:100B5000424F4F544C4F414445520050524553531D
:100B60007E2741277E544F7E4252454143480076BE
:100B7000180000000000000000000000000080805D
:100B8000C0C0E0E070703838180C0C0E0E04000085
:100B90000000000000000080C0E070380C0201007E
:100BA0000000000000000000000000000000000045
:100BB00000000000000000000080C0F87E0F070168
:100BC000C0E0781E070300000000000000000000E5
:100BD00000000000000000000000000000808040D5
:100BE000402010000000002020707078787C7C7E0F
:100BF0007E7E7F7F7B7B39393938383838383838D2
:100C0000383890CEFE38BCDEE6F2FCEEE7733B3EB1
:100C10001ECEE6FAFCDEDEDADA5A5A0AC2FAFC3EE8
:100C2000767272FAFADEDECE86868684E0F83E0FB1
:100C30000785E4FC7C1FC7E3F8FE3E4EE6FE7EE639
:100C4000F8FC9E82C286C6F87C3E3F7B7CECE4C604
:100C50008603010100000000000000000000000009
:100C60000000000000000000000000000000000084
:100C70000080402030180C0F070100000001010126
:100C8000010100000000000101010101000000005D
:100C90000003070300000000000000010101011132
:100CA0001E0F0301101C1E0F0701000001030300AB
:100CB0000000030100000101010100030301000025
:100CC000000000000101030306040C08101020209E
:100CD0004040800601010001000100140E000000E8
:100CE0000000000000000000000000000080C0E0E4
:100CF000F020202020202020202020202020202222
:100D00002222222222B8014D014A019A0288014D75
:100D10000126014D0100004D0188019A024A01E8B7
:100D2000034A014D0100004D01B8014D014A019AED
:100D30000288014D0126014D0100004D0188019AF4
:100D4000024A01E8034A01E80300004D01B8014DE1
:100D5000014A019A0288014D0126014D0100004D12
:100D60000188019A024A01E8034A01E80300004DA4
:100D700001B8014D014A019A0288014D0126014D39
:100D80000100004D0188019A024A011D09008041BD
:100D900020FE0105F1F1F111D1B1D111F151515103
:100DA00051515151515151515151510000FF0000C9
:100DB0007F7F09090F06007F7F19396F46007F7F0B
:100DC0004949414100266F49497B3200266F494914
:100DD0007B32FF0000FFFFFFFEFFFEFF0279CD9593
:100DE000A5CD790111111101F9F901010000FF00F0
:100DF000007F7F09090F06007F7F40404040007C54
:100E00007E0B0B7E7C00070F78780F07007F7F3EFC
:100E10001C0800FF00001F3F3F33333333333E369F
:100E2000363E363E363E36363E36363E360000FFDD
:100E300000003E7F41417F3E007F7F0E1C7F7F0090
:100E400000000000000000000000000000000000A2
:100E5000000000003F405040404078464141595911
:100E600041414141595941414141414141410000C4
:100E70007F000001017F7F0101007C7E0B0B7E7CE7
:100E8000007F7F09090F06007F7F4949414100002B
:100E90000000000000040407030100080C01050124
:100EA0000501020458000000000000000B0A0201C6
:100EB0000001010001010100014255464645520072
:100EC000090801294511452901391133077F417569
:100ED0007D7F4175417F7F417F7F415F5F7F4155CE
:100EE0005D7F415D637F7F7F5D496363495D7F7F98
:100EF0007F7F7F7F7F7F7F7F7F7F7F7F7F7F7F7F02
:100F000033077F7F417F7F417D417F5155457F7D05
:100F1000417D7F4175417F415F5F7F415F5F7F41E1
:100F2000555D7F415D637F7F7F674F6773797D7F0D
:100F30007F7F7F7F7F30302E30300054494D453ADF
:100F4000004841434B53000608F8043231010102C6
:100F500008B70006090001010001000001010001BD
:100F6000000219FE00FF0096000000021900FE00BA
:100F7000FF00960000172000000080E0F8FC7E7E55
:100F80003F3F1F3F3F7E7EFCF8E080000000802056
:100F90000C0301000000040400B0E0C4C4E0000041
:100FA00001030C2080BC0000000000C00000000015
:100FB0003D3F1F0F03C00000000000BC80909C98C4
:100FC0009A9D99999488908490889499999D9A98DB
:100FD0009C90800128FFFFFF6F050328FF00FF7F23
:100FE00000FFCB00FF2D00B70500040128FF7FCBD9
:100FF0002D0520534146450A484F55534500544856
:10100000457E534C554D530A444953545249435419
:1010100000434F4D4D45524349414C0A202044491D
:10102000535452494354001F2E000000000000009A
:10103000E05088248850600080000000F81422C12D
:101040002214F80000000000600020408853204770
:1010500088103F00FC0A11E4118A5C2192244F841D
:10106000224180008040200000000000010205882D
:1010700045224488112247801F2142FC72391F807B
:101080004022110A0400000000000000003F4284DA
:10109000F9E472BF000500F128449239924428F027
:1010A000000000000000000000000000000000112F
:1010B000284482010204FF00FE00FF500054FF009C
:1010C0000000000000000000000000000000000020
:1010D0000000000000010204081F0D0603010000CB
:1010E0000000002C270E1DFAFC001108040000006F
:1010F0000000000000000000F028449229924428DB
:10110000F00000000000C0A010A0C0003874E2741D
:1011100038020003010000000080408000008000D1
:10112000E050A8100F183060FF5820168F40201094
:101130000810214387031D3A713A1C00000000008B
:101140000000FC0A1124CA24118AFD010A152A553F
:10115000EA1438000000020940000000000000000E
:101160000081000000800008001020040A040386AB
:101170000C983F16080583000070E8C4E8708040B2
:1011800080000000000000000000000000000000DF
:10119000000000000000000000000002010200004A
:1011A000000000010204081120470E1C0E07000079
:1011B000000000000000000000000000000000002F
:1011C00000272D000000000000000000000000F0DB
:1011D00028448201824428F0000000000000000042
:1011E00000000000000000000000000000000000FF
:1011F000000000804020172040807F0052007F8048
:1012000000000000000000000000000000000000DE
:10121000000000000000000000FF020408F0088445
:101220004201F815224180412214F80000C0A0407C
:1012300080000000000080000000000000000000AE
:101240001F2080402F55AA3500FF000000FFA85442
:10125000AAFF00003F83470E1DFAFC001108043A64
:10126000F4F80022110800FE458812E71288C5FE36
:10127000881122448F462311884422110804020059
:10128000030100000000000703000000000001034C
:10129000060C1F0F070301000102040804020100ED
:1012A000000000000000000000000000000D083FEA
:1012B000353537353D353D353F31313F111400FF70
:1012C000FFFF0703000000000000000000000040D6
:1012D0005E405F4040404040404040404040400011
:1012E00000070007000000000000000000000700E9
:1012F000000C14FFFEFDFDFEFFFEFDFDFE00FF9F46
:101300003FFFFFFFFFFF3F80BE00FF020007070710
:101310000707000707000729050004020E020E0256
:101320000E020E020E020E020E020E020E020E023D
:101330000E020E020E020E020E020E020E020E022D
:1013400004002930000000FF7AFF72FF7AFF7AFF65
:1013500072FF7AFF7AFF72FF7AFF7AFF72FF7AFFDD
:101360007AFF72FF7AFF7AFF72FF7AFF7AFF72FFCD
:101370007AFF00FF7AFF00FFF8FE04FEF4FE94FE01
:1013800094FE94FE94FEF4FE04FE04FE08FCF0F8C5
:1013900000F000000000000E040F04FFF4FFF5FF52
:1013A000F4FFF4FFF4FFF4FFF4FFF4FFF4FFF4FFA5
:1013B000F4FFF4FFF4FFF4FFF4FFF4FFF4FF74FF15
:1013C000F5FFF4FF14FF14FF14FF15FF14FF01FFD6
:1013D000AAFFAAFF01FF15FF15FF14FF14FF14FF5A
:1013E00015FFF4FF04FE000E0000000000FFFFFFE9
:1013F0007FFFFFFF7FFFD0FF52FFD2FF52FFD2FFE0
:1014000052FFD2FF52FFD2FF52FFD0FF7FFFF0FF0B
:101410006FFFF0FFF6FF06FF20FF06FFA0FF26FF8D
:10142000A0FFA6FFA6FFA0FFA0FFA0FFA0FF80FFD8
:1014300080FF00FFFFFF00FF00000000000000FF32
:10144000FFFFF8FFFFFFF8FF3FFF18FF1FFF18FF28
:101450001FFF18FF1FFF18FF1FFF18FF3FFFD8FFD8
:101460003FFFF8FFFFFFFFFF00FF00FFF0FFE0FF7F
:10147000D0FFD6FFE0FFF6FFE6FFD6FFD6FFE6FF80
:1014800006FFF6FF00FFFFFF00FF00000000000066
:1014900000FFFFFFFFFFFFFFFFFF00FF00FF00FF58
:1014A00000FF00FF00FF00FF00FF00FF00FF00FF44
:1014B000FFFF00FFFFFFFFFFFFFF00FF00FFFFFF39
:1014C000FFFFFFFFFFFFFFFFFFFFFFFFFFFF0FFF1C
:1014D000EFFF00FFFFFF00FFFFFF00FF0000000025
:1014E000000000FFFFFFFFFFFFFFFFFF00FF00FF07
:1014F00000FF00FF00FF00FF00FF00FF00FF00FFF4
:1015000000FFFFFF00FFFFFFFFFFFFFF00FF00FFE7
:1015100029FF03FF7FFF7FFF7FFF7FFF7FFF03FF29
:1015200078FF7BFF00FF7FFF00FFFFFF00FF000051
:10153000101301FE01FEFE807EEAFEFEFEFE01FEAD
:10154000000100FF00FFFFFFFEBDF30FFFFF00FFE4
:101550000000000700030303030203000303000766
:10156000000001FE0180000000007EEAFEFE01FE98
:10157000000100FF00FFFEBCF0000001030F00FFB0
:101580000000000700030302030000000000000742
:10159000000001FE01000000000000007EEA01FEE4
:1015A000000100FF00BCF00000000000000100FF8F
:1015B0000000000700020300000000000000000718
:1015C000000001FE0100000000000000000001FE1C
:1015D000000100FF0000000000000000000000FF0C
:1015E00000000007000000000000000000000007ED
:1015F00000001110C1BEAAAAAAAABAAABAAEAABE6F
:10160000AAAAAABEC1FFFFFEFEFEFEFEFEFEFEFE71
:10161000FEFEFEFEFFFF062000FFFF00FF0000FFB2
:10162000FF00FF0000FFFF00FF0000FFFF00FF00C2
:10163000140800E0E0F0F0F818FCECFE16FF0E1FB6
:10164000060F060F061F163F163F163F163F163FA2
:10165000163F163F163F061F0006200B010D0D0D0D
:101660000D0D0D0D0D0D0D0D0D0D0D0D010D0D0DB6
:101670000D0D0D0D0D0D0D0D0D0D0D0D05050505BA
:10168000050505050505050505050505050505050A
:1016900005050505050505050505050506081E11D1
:1016A0001F1F000A05083F293F00140610000F06FF
:1016B000FFB6FFBEFF0CFF001E0000000301030188
:1016C000030003000011082854AA55AA552A542AD9
:1016D0005428142814081008142A55AA55AA542A64
:1016E000542A142814281008100810081428142844
:1016F000542A542A55AA55AA5428100810281428E8
:10170000142A542A54AA55AA552A14041000FFDE9C
:10171000FFDEFF00FF00010001000100010C1000CE
:101720003C3C7E42FFA2FFA2FFA2FFA2FF82FF423B
:10173000FF04FEF8FC00F8000000000001010100B9
:101740000101010001000100010101000100000090
:10175000F8F8FC04FE42FF82FFA2FFA2FFA2FFA254
:10176000FF42FF3C7E003C0000000101010001003F
:101770000100010101000101010001000000000D54
:10178000180000001C1C3E22FFD2FF52FFD2FFA215
:10179000FF04FE84FE08FCF0F800F00030307820F2
:1017A000F080FE0EFF46FFCEFF0EFF09FF30FFBAAE
:1017B000FF29FF00290000000000010101000100D5
:1017C000010101010100010001000101010001000E
:1017D000F0F0F808FC84FE04FEA2FFD2FF52FFD214
:1017E000FF22FF1C3E001C0000002929FFBAFF3029
:1017F000FF09FF0EFFCEFF46FF0EFF80FE20F030F8
:101800007800300001010100010001000101010127
:10181000010001000101010001000000000E0800AC
:1018200018183C10F8C0FE06FF22FFE6FF86FF06F0
:10183000FF18FF5EFF94FE009C0000000000E868B7
:10184000FC00FD15FF70FF45FF84FF1AFF18FF53D2
:10185000FF8CDF008C00000000000000D8D8FE06DE
:10186000FF22FFE6FF9AFF1AFF10FF4EFF80CE0017
:101870008000000000001818FCD0FF06FF72FF4631
:10188000FF06FF0AFF28FF42FF0C5F000C0000006C
:1018900000009C94FE5EFF18FF06FF86FFE6FF2215
:1018A000FF06FFC0FE10F8183C00180000008C8CEA
:1018B000DF53FF18FF1AFF84FF45FF70FF15FF007D
:1018C000FD68FC00E800000000008080CE4EFF10A4
:1018D000FF1AFF9AFFE6FF22FF06FFD8FE00D8009E
:1018E0000000000000000C0C5F42FF28FF0AFF060A
:1018F000FF46FF72FF06FFD0FF18FC001800000C27
:1019000010000C0C7E52FF72FF92FFD2FFF2FF829A
:10191000FF42FF04FEF8FC00F80000000000010197
:1019200001010101010001000100010101000100AC
:101930000000F8F8FC04FE42FF82FFF2FFD2FF92A3
:10194000FF72FF52FF0C7E000C000000010101003D
:10195000010001000101010101010100010000007D
:10196000000A1000144211010111421400000A4142
:1019700040000040410A000E1800000000007030D6
:10198000F848FC48FCC8FC48FC48FCC8FC08FC10B3
:10199000F8E0F000E0000000C0C0E080E303F724BE
:1019A000FF05FFA7FF32FF33FF42FF75FFA2F700DD
:1019B000E30000000000010001010100010001013D
:1019C0000100010001010100010101000100E0E04E
:1019D000F010F808FCC8FC48FC48FCC8FC48FC486F
:1019E000FC30F800700000000000E3A2F775FF4231
:1019F000FF33FF32FFA7FF05FF24FF03F780E3C09B
:101A0000E000C0000000010101000101010001002F
:101A100001010100010001010100010001000000BD
:101A2000000D1000FE766676FE0252525202FE0053
:101A3000007F4347437F00410141007F00594F55DC
:101A40007E484156457E4245454E7E434150545561
:101A500052454421000F10004040E040F8F8FC4897
:101A6000FC085C085E5EFF085E085C48FCF8FC4011
:101A7000F840E000400000000000030307020702F6
:101A800007020F0F1F020F020702070307000300E0
:101A90000000000008080688015000AF0050000058
:101AA00080AF003C0000805D013C0000805D0114BF
:101AB000000080001D11110C12110C0E1F0C0E1FC6
:101AC000150E2D15062D1B0A3705173705174E0560
:101AD0001A4E1A12600E0D600E13730E1403081FB7
:101AE000051F1F151B1F11111F110E1F15111F059B
:101AF000011F111D1F041F001F0010101F1F041BBA
:101B00001F10101F061F1F011F1F111F1F05071F7A
:101B1000311F1F051B17151D011F011F101F0F105F
:101B20000F1F0C1F1B041B071C071915131F111F68
:101B3000001F001D151711151F07041F17151D1F66
:101B4000151D01011F1F151F17151F00170000107D
:101B500000000A00190413201000000300000E11F9
:101B6000110E0004040418040320061E06190616AC
:101B70000611060C0607060206FF05FB05F405EE36
:101B800005E705DE05D705CF05C905C605C105BEB4
:101B900005B705B005AA05A605A2059E05970592FD
:101BA000058D05880584057E057A0573056E056B30
:101BB00005650560055A0554054D05450540053A7E
:101BC0000532052D05280522051C05170513050EF0
:101BD0000506050405FD04F704F304ED04E604E23C
:101BE00004DD04D504CE04C904C404BE04BB04B798
:101BF00004B104A904A2049D0496049004890483FA
:101C0000047D04770472046D04650460045D045867
:101C100004570450044B0441043B0433042B0428B0
:101C20000425041E0417040F0409040304FD03F62D
:101C300003F203ED03E803E203DF03D703D303CD8D
:101C400003C703BE03B903B303AE03A3039A039709
:101C5000039203890382037B037703680363035EB4
:101C6000035B03550344033F03370334032B032271
:101C70000319031003F802EE02E002CA02B5029E45
:101C8000028702700200C92411241FBECFEFDAE0E0
:101C9000DEBFCDBF12E0A0E0B1E0E6E0FEE602C0AC
:101CA00005900D92A830B107D9F726E0A8E0B2E080
:101CB00001C01D92A63FB207E1F71EE0C4E4DEE0DA
:101CC00004C02197FE010E94FB36C334D107C9F737
:101CD0000E94FC240C9401370C94000010924806DA
:101CE0001092490610924D061092C2068FEF809313
:101CF0004F0680935006809351068093520680933E
:101D000053068093540690E080E03FEFFC01EA5ACE
:101D1000F94F26E0319333A32150E1F70696843240
:101D20009105A1F708956F927F928F929F92AF9243
:101D3000BF92CF92DF92EF92FF920F931F93CF93B8
:101D4000DF93DC01FA011491319654913196C12F41
:101D5000D0E0222309F1CC24C394D12C852F8770A5
:101D600011F4D12CC12CE52EE694E694E694EC0C0B
:101D7000FD2CF11CEC9EC001ED9E900DFC9E900D83
:101D80001124033011F4880F991F289F7001299F97
:101D9000F00C1124EE0DFF1D7D01EC0EFD1E1E1436
:101DA0001F040CF06BC0A038B1050CF067C0CB016C
:101DB000850F911D181619060CF060C0603471056E
:101DC0000CF05CC0309709F459C0362F3770CB0146
:101DD00077FD079623E0959587952A95E1F7282FBB
:101DE00077FF04C0332311F02FEF280F66277727E2
:101DF0006A1B7B0BB7FD02C070E060E090E89A1BA5
:101E000040E8E416F1040CF4912F961BE22E022E0A
:101E1000000CFF08DE2CD0942F3F0CF0D12C41E0B9
:101E2000852F877009F440E0B52EB694B694B69429
:101E30004B0DE40EF11C89E0E816F10414F048E0C3
:101E4000421BB42EBD182D0D40E82403700111244F
:101E5000AE0DBF1DA60FB71F1D9D600D711D112476
:101E6000AF01460F571FC32E032E000CDD080330B1
:101E700009F4C7C090F4023009F474C0DF91CF9127
:101E80001F910F91FF90EF90DF90CF90BF90AF9098
:101E90009F908F907F906F9008950A3FA1F1B20EAE
:101EA0000B3F61F72B1551F3BD01695B7D4F10E0CE
:101EB00000E0091708F09FC0FA01E00FF11FE4915C
:101EC000F0E04F010C2C02C0880C991C0A94E2F738
:101ED00027FD06C0FB018081F82CF0948F218083C0
:101EE000332361F0273054F47B01F0E8EF0EF11C4E
:101EF000A92CA094F70180818A2180830F5F1F4F56
:101F00006F5F7F4FD6CFB20E2B1509F4B7CFBD014F
:101F1000695B7D4F10E000E0091708F066C0FA0128
:101F2000E00FF11FE491F0E04F010C2C02C0880C8F
:101F3000991C0A94E2F727FD04C0FB0180818829DF
:101F40008083332351F0273044F47B01F0E8EF0E17
:101F5000F11CF7018081892980830F5F1F4F6F5F1C
:101F60007F4FDACF6FEF70E0032E02C0660F771F4E
:101F70000A94E2F760957095972E8B2C820E2815A7
:101F800009F47CCF8D01095B1D4FF12CE12CE91682
:101F900030F5FA01EE0DFF1DE491F0E03F010C2C4D
:101FA00002C0660C771C0A94E2F727FD05C0F80111
:101FB0008081862386298083332359F027304CF48F
:101FC0005801F0E8AF0EB11CF50180818921872905
:101FD0008083FFEFEF1AFF0A0F5F1F4FD8CF2F5FED
:101FE0004C0F5D1FA058BF4FCACF2F5F4C0F5D1F16
:101FF000A058BF4F89CF2F5F4C0F5D1FA058BF4F18
:1020000051CFE92EF12CFA01E60FF71FA95BBD4F66
:1020100060E870E06E197F09CE19DF098E01000FAC
:10202000111F41E050E07A01032E01C0EE0C0A942A
:10203000EAF7592F4B2D892E932ECF93DF93ED0185
:10204000EF96EF962296A590C590992059F0AE9CF8
:102050005001CE9C600127302CF4F880D094FD20F4
:10206000FB28F99222233AF0FC90C094FC20FA2835
:10207000FD920C943C1011965A9529F74A9551F00F
:10208000582D23951124E00FF11DA60FB11DC60F89
:10209000D11DD9CFDF91CF911124F0CE9C0180E0EA
:1020A00090E09617B8F48417A8F4E92FF0E0E15B0C
:1020B000F94F70819F5FF901E80FF11D5081751391
:1020C00006C08F5F691739F04813EBCF0895981B4E
:1020D00080E0E7CF80E008953FB7F894809139021F
:1020E00090913A02A0913B02B0913C0226B5A89B88
:1020F00005C02F3F19F00196A11DB11D3FBFBA2F9A
:10210000A92F982F8827BC01CD01620F711D811D59
:10211000911D42E0660F771F881F991F4A95D1F7DE
:102120000895AF92BF92CF92DF92EF92FF920F93FA
:102130001F93CF93DF936C017B018B01040F151F5D
:10214000EB015E01AE18BF08C017D10759F06991C5
:10215000D601ED91FC910190F081E02DC601099529
:10216000892B79F7C501DF91CF911F910F91FF90D6
:10217000EF90DF90CF90BF90AF90089520912D0207
:10218000E0912B02F0912C02CF01029690932C0249
:1021900080932B02222319F08591949108958081D8
:1021A00091810895E1E7F0E080818D7F8083109236
:1021B00091004698479810922A020895CF92DF9294
:1021C000EF92FF92CF93DF930E94BE10811520E81B
:1021D000920741F4DF91CF91FF90EF90DF90CF9085
:1021E0000C94D21021E020932A02813020E892073B
:1021F00051F4809128029091290290932C028093AF
:102200002B020E94BE1097FD05C0209127022223B9
:1022100009F45BC020912602211157C021E02093D0
:102220002E02EC01DF77209709F052C081E0809305
:102230002F0246983FE9C32E3FE0D32EE12CF12C2C
:10224000CAEFD0E0E0912402F091250209958111B6
:1022500003C081E080932F0280912E02882329F011
:1022600080912F02882309F446C047980E94BE102F
:10227000009709F444C09C01DE010E94B836DC01DD
:10228000CB0129E0B595A795979587952A95D1F724
:10229000109290002AE020939100D0929900C09271
:1022A00098008093300290933102A0933202B09351
:1022B000330280917100826080937100DF91CF9131
:1022C000FF90EF90DF90CF90089510922E02A9CF4B
:1022D0009E0150E040E060E472E48FE090E00E94F4
:1022E000643669017A0181E0C81AD108E108F10871
:1022F00010922F02A7CF4699B8CF479AB7CF8FEF4A
:102300009FEFDC01C5CF9C01E1E7F0E090819D7F6C
:10231000908381E080932D0230932C0220932B0236
:1023200030932902209328020C94DE100F9303E0CF
:102330000E94930E0F9108950F930AEF0E94930E3F
:102340000F9108950F9302E00E94930E0F9108954C
:102350008F929F92AF92BF92CF92DF92EF92FF92B5
:102360006C01F12CE12C0E946C104B015C010E946D
:102370006C10681979098A099B09683E73408105C8
:102380009105A8F321E0C21AD108E108F10888EE0E
:10239000880E83E0981EA11CB11CC114D104E10475
:1023A000F10429F7FF90EF90DF90CF90BF90AF90AE
:1023B0009F908F9008958FB18095807F669B8860F5
:1023C0001C9B846008955C988EBD00000DB407FED0
:1023D000FDCF5C9A0895809123020895480F592FEC
:1023E000511D14161506D4F580389105BCF597FFDC
:1023F00002C090E080E04138510514F040E850E020
:10240000481BFB0177FD379633E0F595E7953A9544
:10241000E1F7F695FE2FEE27F795E795E80FF91F00
:10242000E95BFD4F6770772781E090E001C0880F7E
:102430006A95EAF7382F213041F4415078F08191C4
:10244000DF011197832B8C93F8CF8095415030F0AA
:102450009191DF01119798239C93F8CF0895909163
:102460002202982329F490912102982381E009F413
:1024700080E00895E7E4F2E081118FEF002481937A
:102480008193819381930394D1F70895603471050A
:1024900010F40C94EE11089580389105B8F460346E
:1024A0007105A0F420E191E061FD94E060FD990FD9
:1024B00062FD9295687F269FD0011124A80FA95B29
:1024C000BD4F8C9140FF03C0892B8C93089590954C
:1024D0008923FBCFDF92EF92FF920F931F93CF934D
:1024E000DF937C01EB01D22E8B01040F111DC8017B
:1024F0000134110514F080E490E0C817D9073CF4CA
:102500004D2DBE01C7010E944C122196F0CFDF91E4
:10251000CF911F910F91FF90EF90DF900895EF9270
:10252000FF920F931F93CF93DF937C018B01C42FF6
:10253000D22F21E00E944612B8016D0F711D61502B
:10254000710921E04C2FC7010E94461221E04D2F56
:10255000B801C7010E946A12C7018C0F911D21E0CA
:102560004D2FB8010197DF91CF911F910F91FF90EF
:10257000EF900C946A12CF92DF92EF92FF920F933A
:102580001F93CF93DF936B01122FEC017C01E40EBC
:10259000F11CCE15DF0544F4202F412FB601CE01EA
:1025A0000E946A122196F5CFDF91CF911F910F9172
:1025B000FF90EF90DF90CF9008950F93CF93DF932C
:1025C000EC016A3061F48D818C838E819985890F4D
:1025D0008E8381E090E0DF91CF910F9108958C81FF
:1025E0006E3719F48E5F8C83F4CF262F6E816F5F68
:1025F0002D3209F441C098F42732A1F148F4213278
:10260000C9F1253289F198859D5F8C81890FEBCFC7
:10261000293221F128F12C32B1F728E20FC02A33F8
:1026200040F42033C8F42E3219F12F3261F72DE235
:1026300005C02A33D9F021542A3128F7062E000C80
:10264000770B082E000C990B3F813130B9F44DED1A
:102650005AE10E949C11D7CF2651F0CF2BE2EECF4A
:102660002AE2ECCF29E2EACF27E2E8CF26E2E6CF62
:1026700025E2E4CF24E2E2CF2CE2E0CF0BEF4DEDF8
:102680005AE10E94930EBFCF0F931F93CF93DF9316
:102690008C01D0E0C0E0F801EC0FFD1F64916623CF
:1026A00041F08DE392E00E94DD12892B11F021961A
:1026B000F2CFCE01DF91CF911F910F910895E82FB6
:1026C000F0E0EE0FFF1FE759F44E859194910C94C2
:1026D0004413089590E080E00895813F30F4853000
:1026E00060F4813040F480E00895853FE0F794EF96
:1026F000981B892F08958150089583E008950F93C2
:102700001F93CF93DF93182F8091110290911202A3
:1027100060EC70E00E94D3368234F0F423E0803421
:1027200030F4853019F080F48230A0F428E1612F74
:1027300070E000E040E890E080E00E94BB12DF9192
:10274000CF911F910F910895803181F38D3371F3F3
:10275000873061F320E0EBCF8B3469F140F48234B1
:1027600051F185548230B0F71B5F28E0E0CFC12FD4
:10277000D0E0863819F1883811F0843859F7BE0155
:102780006E5F7F4F20E048E290E080E00E944612BA
:10279000BE016F5E7F4F20E042E38EE190E00E9439
:1027A0004612BE01675E7F4F20E042E38CE390E07B
:1027B0000E944612CFCF105F25E0B9CFBE01695FFE
:1027C0007F4F20E048E28CE390E00E944612BE0179
:1027D0006F5E7F4F20E042E38EE190E00E94461260
:1027E000BE01675E7F4F20E042E390E080E0E0CFF3
:1027F000EF92FF921F93CF93DF937C01C3EBDAE15B
:1028000010E0FE0184918E0D9F2D911D31966491F3
:1028100070E03196449121E010FD0CC00E944612F8
:102820001F5F23961E3069F7DF91CF911F91FF90B4
:10283000EF9008950E946A12F3CFE1EAF1E09081EF
:1028400045E0949F90011124215F3E4FD901AE587D
:10285000BF4F11967C936E93129644E24C9311965F
:102860008C932A583F4F81E0D9018C939F5F9083CE
:102870000895EFE0F1E0108A118A158E168E12A6E7
:1028800013A617AA10AE0895E0910F02ED51EA3099
:1028900008F03DC0F0E0E15BFB4E0C94FB365914B0
:1028A0008714871487146914721478146D148014B3
:1028B0008314809107018E3051F08F3099F08D3064
:1028C000F1F48EE0809307011092080108958FE0E3
:1028D000F9CF8091B501843629F48CE180930F0201
:1028E00084E1F0CF8CE080930F0210920E020895E5
:1028F000809107018231B1F384E080930F02089543
:102900008FE080930F0282E08093C00008958DE0F5
:10291000F4CFCF93DF9320E041EC51E170E060E031
:1029200083E090E00E94A21120E043EE50E167E1D5
:1029300070E082E290E00E94A21120E047E250E1C4
:1029400060E170E08EE590E00E94A211CDE3D2E05C
:102950008CE18D838C831E8281E190E10E9444137F
:102960008CE38D838C8389E28E838EEF9FE00E94BF
:1029700044138CE58D838C8382E08E8382EF9FE00D
:10298000DF91CF910C9444139F92AF92BF92CF925C
:10299000DF92EF92FF920F931F93CF93DF93142F49
:1029A0004AE5111147E6E62EF12CC82FD0E000E0F1
:1029B00025E2B701CE010E94BB1207E5111104E622
:1029C00067018FEFC81AD80A5E0182E0A80EB11C19
:1029D00021E0402FB601C5010E94461295E3992ED1
:1029E000112311F082E4982E21E0492DB701695E90
:1029F0007F4FC5010E94461221E0492DB7016F5D4E
:102A00007F4FC5010E94461221E0402FB7016D5D46
:102A10007F4FC5010E94461220E04BEE5FE0B601F9
:102A2000CE0101960E94A211CE01C69611112CC0B2
:102A300010E000E020E04AED5FE0B601800F911F5A
:102A40000E94A211CE01885A9F4F20E043ED5FE023
:102A5000B601800F911F0E94A211B7016C5F7F4FDA
:102A6000CE01CD9620E045E75FE0800F911FDF911A
:102A7000CF911F910F91FF90EF90DF90CF90BF907B
:102A8000AF909F900C94A2110DE010E0D3CF5F9215
:102A90006F927F928F929F92AF92BF92CF92DF926E
:102AA000EF92FF920F931F93CF93DF93E82E562E52
:102AB000F42EC22F862E912CC82ED12C00E0242F6C
:102AC0004C2FB401C6010E94BB1254018FEFA81A0B
:102AD000B80A360182E0680E711C4FEF4C0F21E0FE
:102AE000B501C3010E9446120F2D10E0B401600F22
:102AF000711F6250710921E04C2FC3010E944612E0
:102B000009511109080D191D20E04BE65FE0B801DD
:102B1000C6010E94A211CC0DDD2DD11D20E041E6A1
:102B20005FE0B801CE010E94A21117EE1F0D21E057
:102B3000412FB501C60101960E946A1221E0412F82
:102B4000B501CE010E946A128AE08E0DEDE3F2E03B
:102B50008583848383E0850D8683DF91CF911F91E8
:102B60000F91FF90EF90DF90CF90BF90AF909F902C
:102B70008F907F906F905F900895FC0180818230EC
:102B800019F0833039F00895818192810197928301
:102B900081830895818192810196F9CFFC01019092
:102BA0000020E9F73197AF01481B590BBC018DE3B9
:102BB00092E00C9491108F929F92AF92BF920F93DC
:102BC0001F93CF93DF93CDB7DEB7A1970FB6F894DD
:102BD000DEBF0FBECDBF19A2423008F44AE08E011D
:102BE0000F5D1F4F842E912CB12CA12CA5019401B7
:102BF0000E949636E62FB901CA01EA30F4F4E05D8E
:102C0000D801EE938D01232B242B252B79F790E00F
:102C100080E0109719F0CD010E94CE15A1960FB655
:102C2000F894DEBF0FBECDBFDF91CF911F910F9102
:102C3000BF90AF909F908F900895E95CE1CF462FB1
:102C4000682F70E090E080E00C94DB150C94CE15BA
:102C5000CF93C82F803120F480EF91E00E94261698
:102C600060E170E08C2FCF910C941F161F93CF93CF
:102C7000DF9381E0809342028093410282E380935C
:102C8000430289EB9EE00E94441320E04DEA5EE09F
:102C900063E370E08AE190E00E94A21120E04BE93A
:102CA0005EE063E370E081E490E00E94A21121E025
:102CB0004FE163E370E082E290E00E94EE11C0E039
:102CC000DAE018E380914E06C81708F5EC2FF0E023
:102CD00080914D06C81778F4CD9F802D11248F5F09
:102CE000809342028093410210934302E95BF94FC3
:102CF00080850E942816CD9FC001112421E047E065
:102D00006FE370E001960E94EE11CF5FDBCFDF91A1
:102D1000CF911F910895BF92CF92DF92EF92FF92D1
:102D20000F931F93CF93DF93B82E8091470690E0C7
:102D3000FC01E752FE4FC081D0E02CE0B29EC00DF6
:102D4000D11D1124C62ED12C960143E0220F331F32
:102D50004A95E1F78E529E4FFC01E080E20EF32E81
:102D6000F11C01E029E04DE0B701CE010E94BB1249
:102D70000DE312E0F8011782CD5FC583C483E394AD
:102D8000E68286E08C9DF0018D9DF00D1124E95BBB
:102D9000F94FEB0DF11D87850E94281681E0F8019F
:102DA0008783DF91CF911F910F91FF90EF90DF907C
:102DB000CF90BF9008952F923F924F925F926F9263
:102DC0007F928F929F92AF92BF92CF92DF92EF92BB
:102DD000FF920F931F93CF93DF9300D000D000D0CA
:102DE0001F92CDB7DEB750904706852D90E0FC01CD
:102DF000E752FE4F20812A838E529E4FFC01308085
:102E00004CE0549E402D11244C83F52DFF0FFF0FF5
:102E1000FF0FFD83B32CA22EC12C30E03F832E8305
:102E2000032D10E0D12CEB2CF12C41E0B7018E8169
:102E30009F818D0D911D0E944C12D394D3948C814F
:102E40008D1598F7D12CEA2CF12CB8016D0D711D60
:102E500041E0C7010E944C12D394D3949D819D15EB
:102E6000A0F7C394ECE0AE0EF8E0BF0E5C14D0F611
:102E700087E4682E86E0782E21E0230D2B837801ED
:102E80006301412C4514B9F13A813D5F3983460114
:102E90008FE0880E911CAE80BF80212C251401F19B
:102EA00099819093420290934102EB81E093430217
:102EB000F40181914F010E942816F40183A18F3FF4
:102EC00039F020E045E95EE0B701C5010E949C11A0
:102ED0002394F981F45FF9832CE0A20EB11CDECFBC
:102EE000439436E0C30ED11C8B81885F8B8398E0BE
:102EF000E90EF11CC7CF8091EE068823E1F0813006
:102F000009F45AC027960FB6F894DEBF0FBECDBFA6
:102F1000DF91CF911F910F91FF90EF90DF90CF90B5
:102F2000BF90AF909F908F907F906F905F904F90E9
:102F30003F902F9008958091C206823080F18230B8
:102F400009F72D812F5F809148064DE0B801EE8191
:102F5000FF813CE0839FE00DF11D1124CF010E9411
:102F60008F12609149068091480627960FB6F89413
:102F7000DEBF0FBECDBFDF91CF911F910F91FF90AC
:102F8000EF90DF90CF90BF90AF909F908F907F9009
:102F90006F905F904F903F902F900C948B164C81C8
:102FA0004F5F60914906660F660F660F630D70E014
:102FB00029E08E819F81D3CF10E007E0411609F40C
:102FC000A1CF1F821E8280914C0620914B06089F44
:102FD000C00111248D53994F820F911DFC019381E3
:102FE000EE81FF81E60DF71D8785981304C0612FE0
:102FF0008E810E948B162E813F812F5F3F4F3F8332
:103000002E83241500F31F5F36E0630E711CD6CFAC
:1030100080EF91E00C9426163F924F925F926F9250
:103020007F928F929F92AF92BF92CF92DF92EF9258
:10303000FF920F931F93CF93DF9300D000D000D067
:103040001F92CDB7DEB77090C3061092F0061092B3
:10305000F10621E047E370E060E080E590E00E9447
:10306000EE1121E047E368E070E08CE490E00E941C
:10307000EE1121E047E367E370E080E590E00E9415
:10308000EE1121E047E36FE370E08CE490E00E94F2
:10309000EE1121E043E269E070E08CE490E00E94F0
:1030A0006A1220E043E55FE070E060E08AE790E0CC
:1030B0000E94A21120E043E55FE067E370E08AE749
:1030C00090E00E94A21120E04FE45FE069E270E02E
:1030D0008CE490E00E94A21120E047E45FE070E001
:1030E00060E08CE490E00E949C1120E047E45FE007
:1030F00067E370E08CE490E00E949C1112E510936D
:1031000042021093410281E08093430281E49FE0F8
:103110000E944413109342021093410288E380936B
:1031200043028BE39FE00E9444132091F20630910A
:10313000F3062115310509F49BC02630310558F4FA
:1031400080911102909112026FE070E00E94D336DC
:10315000883008F492C0C9016CE370E00E94D33655
:10316000062F182FF82E6A3010F40E9408186AE013
:1031700070E0802F0E941F1682EF91E00E942616B9
:1031800029E02F1510F00E9408186AE070E0812FE6
:103190000E941F1610928800F12CE12C37E0632E5C
:1031A000552453948091C306F81608F09CC06F9C78
:1031B00050011124F501EC53F94FDE011196862DD3
:1031C00001900D928A95E1F7DA8000914D064D2D20
:1031D000602FCE0103960E944E10182FB5018D115D
:1031E00005C08091EE06882309F44BC08D2D811B0C
:1031F000990BAC0180914E06801B990B84179507A3
:103200000CF45AC09BE0A90EB11CF69C802D112431
:103210009BE0492E480EFE0133964F012EE4C22E4C
:10322000D12CF40131904F01FFEF3F16C9F011236B
:1032300009F456C001E027E04AE0B501C6010E944A
:10324000BB121092440281E08C0D80934202809365
:10325000410240924302832D0E9428161111115001
:103260002AE0C20ED11C80E8C816D104D1F622C0D3
:1032700085E39FE00E9444138DCF80E28093880015
:103280008BCF655F7F4F20E040E05FE08EE490E011
:103290000E949C117A948091F0068F5F8093F006D3
:1032A000125080E0143028F4E12FF0E0E052FE4F9D
:1032B0008081E80EF39476CF8091EE068111A2CF43
:1032C000655F7F4F20E04BEC5EE08EE490E00E9473
:1032D0009C117A948091F1068F5F8093F106EACF7A
:1032E00050924402B0CF8091EE068130F1F580918A
:1032F00011028F71F82E10914C06B0904B069AE097
:10330000B99E60011124EFE4CE0ED11CF7E01F9F9F
:10331000400111242BE0820E911C01E080E18F1509
:1033200008F000E027E04AE0B401C60101970E94DE
:10333000BB1281E090E19F1508F480E08093440285
:10334000C0924202C092410280924302E7E01E9F77
:10335000C00111248D53994F8B0D911DFC01838168
:103360000E94281681E0809344027092EF0620E0CC
:1033700040EC5EE070E060E08BE690E00E94A2111D
:1033800086E7809342028093410281E0809343026A
:1033900010914A06E116F8F41E191A30E8F06AE0B6
:1033A00070E0812F27960FB6F894DEBF0FBECDBF19
:1033B000DF91CF911F910F91FF90EF90DF90CF9011
:1033C000BF90AF909F908F907F906F905F904F9045
:1033D0003F900C941F1610E00E940818E0CFCF9287
:1033E000DF92EF92FF926B017C01C114D104E104E2
:1033F000F10441F00E94F635A70196010E9464365F
:103400006B017C01C701B601FF90EF90DF90CF9078
:103410000895CF92DF92EF92FF926B017C01C2166A
:10342000D306E406F50664F4CA01B9016C197D09F6
:103430008E099F090E94EF19C60ED71EE81EF91EBD
:10344000C701B601FF90EF90DF90CF9008950F93E2
:103450001F93CF93DF93EC01188281E0898382E090
:103460008A8383E08B8384E08C8385E08D830CE00A
:103470002091470630E050E040E060E070E0CB0192
:103480000E94091A162F2091470630E050E040E0D4
:1034900060E070E0CB010E94091ADE01A10FB11DAE
:1034A0008C91FE01E60FF11D90819C938083015069
:1034B000F9F6DF91CF911F910F910895CF93DF938C
:1034C000D091C101ED2FF0E0EC55FE4F268D908597
:1034D000291780F465E070E080E090E00E94EF1929
:1034E0008D2F880F880F8D0F860F8093C601DF9177
:1034F000CF910895E4EAF1E0C4E090E020E0348D5B
:10350000332309F151A14385541790F4882369F0BE
:1035100065E070E080E090E00E94EF198C2F880F4A
:10352000880F8C0F860F8550E0CFDC1788F7232F8C
:10353000C1503197C111E3CF211103C08EEF992300
:10354000A1F28FEFD2CF91E0F3CF82E090E00E9422
:103550004E36882331F03E9A3F9A81E080932302D1
:103560000895109223023E983F98089583EA92E0CE
:103570000E944E3691E0813009F090E0892F089545
:1035800010928A008FEF87BD1092880008954F92A5
:103590005F926F927F928F929F92AF92BF92CF92E3
:1035A000DF92EF92FF920F931F93CF93DF93D09010
:1035B00021021091220210951D21012F86EA0E94FE
:1035C000E3118091B301882309F46BC1809111024A
:1035D000909112022091BC01222321F0282F237008
:1035E00009F05FC18F779927892B79F48091B40115
:1035F000863018F48F5F8093B4018091B4018630D7
:1036000021F48DEA9AE10E948311209111023091F8
:103610001202C9018F739927892B39F48091B30164
:10362000803C18F48F5F8093B30120FD33C09091EC
:10363000B001EFE0F1E027E431E085AD4FEF480F56
:10364000433F08F05DC08F5F85AF85AD803F08F0D8
:1036500091E034962E173F0781F79093B001809147
:10366000A301209111013091120187FF4BC04091BD
:103670001301509114014E5F5F4F5093140140931A
:1036800013012F5F3F4F30931201209311018F5F81
:103690008093A301C5E1D1E0A9E4AA2EA1E0BA2E4E
:1036A000E12CB2E0FB2E82E0982E93E0892E772465
:1036B000739425E0C22E30E4632E80911101909125
:1036C000120129813A81820F931F2091B601309116
:1036D000B701821B930B9C0197FF04C0222733275D
:1036E000281B390B588169EF650F452F2E153F05B3
:1036F000E8F4623008F081C68C319105D4F02FC017
:1037000015AEA3CF882331F24091130150911401DB
:103710004250510950931401409313012150310933
:1037200030931201209311018150B2CF8C31910559
:1037300094F42091B0012450233068F0623058F0A6
:103740002B85211107C06A86CF822885243010F48A
:103750002F5F28877B864750423008F053C62F8161
:10376000222309F44FC621502F832D96AC16BD0697
:1037700009F0A3CF2CE1E216F10460F48091B001CE
:103780008450833038F08091B301882319F0815040
:103790008093B301812F88709091B301992309F42C
:1037A000C7C3811182C08091BC0181117EC015FD0B
:1037B000CEC2D5FEC8C282E08093B0018091B6012E
:1037C0009091B7018D3391050CF492C201979093BB
:1037D000B7018093B601BDC2933089F0943009F0EF
:1037E00029C6CE010E94BD1525C68230D1F71986A3
:1037F00021C68330E1F3F5CF8430C9F3F2CF8530B1
:10380000B1F3EFCF2B85222339F097FD03C09882C7
:10381000CF82ABCF8882FCCF69817A818B819C81FA
:10382000681B790B77FF03C07195619571098D81D4
:103830009E8196958795680F791F523089F038F4EC
:103840005523E1F0513009F090CF988218C05730DD
:10385000A9F05830D1F3533009F087CF788201C0F6
:1038600018826FE070E080E090E00E94EF19615FE5
:103870007F4F8F4F9F4F6F83198677CF88829B0131
:1038800050E040E07695679590E080E00E94091A4C
:103890006F8364E070E080E090E00E94EF19688739
:1038A000EBCFE12C22E0F22E75CF8091B401833072
:1038B00008F419C28091B001823009F4C4C1833088
:1038C00009F4C4C18091BC0181110BC081E08093D7
:1038D000BC0187EA0E94E31187EA9AE10E94831102
:1038E00000E005FFBAC18091A201882309F4B2C1AA
:1038F00081508093A20103FF28C087EA0E94E31150
:103900008091B40183508093B4011092BC018091E6
:10391000A20145E0849FC0011124815F9E4FFC01FC
:10392000EA58FF4F2081213009F0A7C18B589F4FE3
:10393000DC01EC91B4E0EB9FF0011124E15FFE4F5C
:1039400025AF81EA9AE10E94831102FF05C087EA50
:103950000E94E3111092BC011092850110928A011D
:1039600010928F01109294011092990110929E0171
:103970001092A10180910F019091100164E770E015
:103980000E94E736EC01845791090E94F813CE019A
:103990000E94F813CE018C589F4F0E94F813FFE04D
:1039A000CF2EF1E0DF2E912CF60185ADC0911101F3
:1039B000D091120163AD74ADC60FD71F92AD923096
:1039C00009F4DFC2933009F4F6C2913009F073C0F4
:1039D0009E01255C3F4F2C3B310508F063C00E94DF
:1039E0006D13882E20E047E153E162E170E0CE01E3
:1039F0000E94A21101E02BE144E169E170E0CE01F7
:103A000003960E94BB1200E023E04BE366E170E006
:103A1000CE010E94BB122AE141E26AE170E05E0140
:103A2000F7E1AF0EB11CC5010E94BB1221E049E3D2
:103A300067E170E0CE0101960E94EE1121E041E2C3
:103A400069E170E0C5010E94EE1121E04BE169E1FE
:103A500070E0CE01C8960E946A1220E041EF52E168
:103A600060E270E0CE0149960E94A21120E04CEB8A
:103A700052E160E270E0CE0187960E94A21120E040
:103A80004DEA52E16BE170E08E010A5F1F4FC80101
:103A90000E94A211282D40E355E161E270E0C801C7
:103AA0000E94A211CE010E96BE016B5F7F4F81383E
:103AB000910508F4D6C2939424E0C20ED11C47E0CD
:103AC000941272CF809113019091140163EF70E012
:103AD0000E94E7368C010D5E1109E80120E04AE5FD
:103AE00056E165E370E0CE010E94A211A096C33FAB
:103AF000D105A4F3D0E0C0E065E0D62E7AE0C72E71
:103B0000E2E0BE2EC801439683399105F0F520E02E
:103B100040E356E16CE070E0C8010E94961120E09D
:103B200046E156E164E170E0C8010E94A211809173
:103B30009F01882351F18091A0018C1326C066E17A
:103B400070E080E090E00E94EF192B013C01A2E1BF
:103B50004A0E511C611C711C642D70E08091110291
:103B6000909112020E94D336942D9695981768F47E
:103B700020E048E060E170E0C8010A960E94EE1182
:103B80006EEE640D60938800D1E0C8010996873716
:103B90009105D0F49091A101D99EF0011124E15F2B
:103BA000FE4FDF01AE58BF4F9801295F3F4F11967E
:103BB0003C932E931296CC921296BC92EB58FF4FE8
:103BC000C0839F5F9093A101CF5F0F5A1F4F093DA4
:103BD000B2E01B070CF496CFD11102C010928800FE
:103BE00080919F01882319F0815080939F0140911B
:103BF000B301429546954770425F00E027E061E0DF
:103C000070E090E080E00E94BB1220E044EA56E1C0
:103C100061E070E081E090E00E949C11C8E0D0E09B
:103C200010E08091B301829586958770181708F08F
:103C30001CC221E045E062E070E0CE010E946A1201
:103C40001F5F2296EECF1092B0013CCE81E08093B0
:103C5000B00138CE8091A1014BCE06FF4CCE8091B1
:103C6000A2012091A1012150330B8217130614F4F5
:103C70008F5F3FCE1092A2013ECE223009F061CE7E
:103C80002FEF20939F01FC01EB58FF4F20812093E1
:103C9000A0016091110170911201EFE0F1E043E4A5
:103CA00051E08E589F4FAFEFB7E018E02781308585
:103CB000260F371F6901CEE1CC0ED11CDCEBCD16EF
:103CC000D10450F4EC01C880D9802C153D054CF48A
:103CD0001683118A108AA5873D964E175F0731F724
:103CE00030CEB683F6CF87E99AE10E94831134CEB5
:103CF000209111013091120122383105ECF48091AC
:103D0000110280FF09C080910F019091100101966E
:103D10009093100180930F018091130190911401F1
:103D2000029690931401809313012F5F3F4F3093BD
:103D30001201209311010DC02238310551F4833056
:103D400091053CF043CD8091B001823011F4109286
:103D5000B00116FF75C081E08093B00117FF37C036
:103D6000C090B601D090B7018091110190911201DD
:103D7000C81AD90ACFE0D1E09BE2A92E91E0B92E72
:103D800006E08AAD81508330F0F48BAD9CAD9C0190
:103D900021503109C216D306B4F00B968C159D053F
:103DA00094F08DAD81508F3E70F40093B0010E946D
:103DB0003914EAADF0E0ED56F54EE4918BAD8C1977
:103DC000E80FE093A3012496AC16BD06D1F614FFCC
:103DD000C3CDC090B601D090B701809113019091EE
:103DE0001401C81AD90AC6E6D1E002E811E0B4E02D
:103DF000BB2E85E0A82E888199819C012351310931
:103E0000C216D3060CF47FC0275F3F4FC216D306FD
:103E10000CF079C0A092B0018C199D099C012C5026
:103E2000310937FF02C02F5F3F4F3595279520930B
:103E3000A3010E94391424960C171D07E1F68CCDBE
:103E4000D6FE5BC083E08093B0018091B601909173
:103E5000B7018C33910534F401969093B7018093A8
:103E6000B6017CCF2091110130911201293ADDEF8A
:103E70003D07ECF08091110280FF09C080910F0195
:103E80009091100101979093100180930F01809100
:103E900013019091140102979093140180931301E0
:103EA00021503109309312012093110157CF8038EE
:103EB000910594F281E180930F028CE080931002CF
:103EC00010920E028091050180930401811146CF6A
:103ED0008091BE01882379F08091BF01882349F049
:103EE0008091C001811107C083E081508093060159
:103EF00035CF82E0FACF81E0F8CF8091B0018330F6
:103F000009F02CCF28CF9C01285F3F4F2C153D0591
:103F10000CF091CF275F3F4F2C153D050CF48BCF54
:103F2000B092B0018C199D099C01265F3F4F79CF5B
:103F3000882309F411CD8091B5019091050191116B
:103F400015C0865F8093B5018091B501843681F4F8
:103F500084E1809307011092080181E180930F02B0
:103F600010920E028CE180931002F6CC8B5FEACFA8
:103F700081E180930F028CE08093100210920E0278
:103F8000EBCC9E01205D3F4F213B310508F08ACDEF
:103F90000E946D13182F20E042E453E162E170E0CB
:103FA000CE010E949611212F40E355E161E270E0BD
:103FB000CE01069675CD9E01225D3F4F2F3A310509
:103FC00008F046C00E946D13182F20E044E370E013
:103FD00060E0CE010E946A1201E024E347E170E054
:103FE00060E0CE0101960E94BB1220E044E370E045
:103FF00060E0CE0148960E946A1221E044E370E03E
:1040000060E0CE0149960E946A1200E024E343E199
:1040100070E060E0CE014A960E94BB1221E044E3CA
:1040200070E060E0CE018D960E946A1220E042EFBF
:1040300055E167E170E0CE0103960E94A211212FA5
:1040400040E355E161E270E0CE0104960E94A211C6
:10405000CE010C968138910508F02DCDBE016D5F23
:104060007F4F892D0E941D1426CD4091B401440F2D
:10407000475F00E027E061E070E08AE690E00E94A0
:10408000BB1220E04CE956E162E070E08BE690E084
:104090000E949C11C0E08091B401C81770F48C2F6D
:1040A00090E0880F991F21E045E062E070E08D58B4
:1040B0009F4F0E946A12CF5FEECF83E4C82E81E04B
:1040C000D82E0FE011E090E6A92EB12C28E1722E37
:1040D00038E1832E912C46E0642EF801C781D0850B
:1040E0008091110190911201C80FD91F5090B30116
:1040F000552079F080911102909112022091BC011B
:1041000021115FC0B4010E94D336662D0E94C736CC
:10411000582ED80116968C91823009F473C008F09D
:1041200055C0882309F483C0813009F464C0D801E4
:1041300050968C91882349F020E04BE057E169E1EB
:1041400070E0CE0105960E94961151FA222720F9BF
:10415000F8018681823009F489C008F06BC0882399
:1041600009F484C0813009F48AC0035F1F4FC01670
:10417000D10609F0B2CFC091B301CC2361F0809198
:1041800011029091120268E170E00E94D33666E05D
:104190000E94C736C82F9091B001A091B601B0918E
:1041A000B701973008F007C1E92FF0E0E652FF4D64
:1041B0000C94FB36F7214721F52148214D214D2153
:1041C0005921B5010E94D336672DA0CF8330A1F0CD
:1041D00099EF980F923008F0AACF21E0883009F0CB
:1041E00020E04FE757E164E270E0CE010E949611B3
:1041F00055245A949CCF512CB4E05B0E21E064E22C
:1042000070E006C0E1E020E065E270E05E12F7CF0A
:104210004DE157E1CE0101960E949611252D4DE109
:1042200058E16DE270E0CE010E94961180CF20E04F
:10423000512CE5CF833019F18750823008F095CFAB
:104240008585813448F480911102909112028F711A
:104250009927813108F489CF20E04BEA56E168E1E3
:1042600070E0CE0104960E9496117FCF45EC56E196
:104270006CE270E0CE0140970E949C1176CF2E5FD9
:1042800045EC56E16CE270E0CE010E96F5CFC0E051
:10429000CC5F21E070E060E096C021E0953009F04D
:1042A00020E047E759E165E270E0CD010E949611F8
:1042B00008C020E041E659E165E270E0CD010E94CE
:1042C0009C11C6E6D1E002E811E088819981209135
:1042D000130130911401820F931F9C01235F3F4F04
:1042E0002E38310538F420E041E25AE167E270E00F
:1042F0000E94A21124960C171D0739F78091BC016A
:104300008823F9F080911102909112028F70992701
:104310008930B8F08091A201B5E08B9FC0011124D3
:10432000815F9E4FFC01EC58FF4F608170E08E581A
:104330009F4F20E045E55AE1EC01888199810E9478
:1043400096118091B30181111DC000E023E140E688
:1043500064E170E080E190E00E94BB1221E14EE553
:1043600065E170E081E190E00E948F1286E1809328
:104370004202809341028AE1809343028DE39AE1F5
:104380000E944413D0E3ED16F104A0F580E38E19EA
:1043900080938A00DF91CF911F910F91FF90EF9052
:1043A000DF90CF90BF90AF909F908F907F906F9055
:1043B0005F904F9008952FEF91E080E0C13009F0B9
:1043C00090E0692F782F6C5D7F4F4FEF58E1CD0162
:1043D00001960E9496112C2F4DE158E16DE270E09C
:1043E0008091B6019091B70161CF20E0E5CF20E048
:1043F000C0E050CF10928A00CDCF79018C31910569
:104400000CF497C92A85222311F021502A872F8185
:10441000222309F4F7C989858F5F898798859230AF
:1044200009F4EAC908F0D8C9992309F4DEC9913022
:1044300009F4DFC98F8181508F8397C9FF920F9351
:104440001F93CF93DF93EC01F62E08811981C801E9
:104450000E944E36F81621F06F2DC8010E94563684
:10446000CE01DF91CF911F910F91FF900895EF92B0
:10447000FF920F931F93CF93DF9300D0CDB7DEB79A
:104480008C017B019A838983FB016081CE010196B7
:104490000E941E220F5F1F4F1A830983F70161815B
:1044A000CE0101960E941E22C7010F900F90DF914E
:1044B000CF911F910F91FF90EF900895BF92CF92EF
:1044C000DF92EF92FF920F931F93CF93DF9300D071
:1044D000CDB7DEB7B82E01EA12E0F12CE12CCC24E6
:1044E000C394D12C00FD03C0CC24CA94DC2CC80199
:1044F0000E944E36282F2C9DC0012D9D900D112419
:10450000E80EF91E0F5F1F4F073C82E0180739F7CE
:10451000BB2049F0FA82E982BE016F5F7F4F87ECD2
:1045200092E00E943722C7010F900F90DF91CF9148
:104530001F910F91FF90EF90DF90CF90BF90089563
:104540000F931F93CF93DF9300D0CDB7DEB78B01CE
:104550009A838983FB016081CE0101960E941E220D
:10456000C8010F900F90DF91CF911F910F91089587
:104570000F931F93CF93DF9300D0CDB7DEB7182FE3
:1045800081EA92E00E944E36082F82EA92E00E9471
:104590004E36033421F4883411F41123F1F01982DA
:1045A00061ED71E081EA92E00E94A02260ED71E08D
:1045B00082EA92E00E94A022BE016F5F7F4F83EAF1
:1045C00092E00E94A02281E00E945E220F900F9054
:1045D000DF91CF911F910F91089580E00E945E229C
:1045E0008C0187EC92E00E944E36898388EC92E041
:1045F0000E944E368A8389819A810817190731F300
:1046000081E00E94B822E2CF1F920F920FB60F9264
:1046100011242F933F938F939F93AF93BF938091D8
:10462000350290913602A0913702B0913802309154
:10463000340223E0230F2D3758F50196A11DB11D3B
:10464000209334028093350290933602A093370270
:10465000B09338028091390290913A02A0913B02C6
:10466000B0913C020196A11DB11D80933902909337
:104670003A02A0933B02B0933C02BF91AF919F914D
:104680008F913F912F910F900FBE0F901F90189513
:1046900026E8230F0296A11DB11DD2CF1F920F92C3
:1046A0000FB60F9211242F933F934F935F936F9305
:1046B0007F938F939F93AF93BF93EF93FF938091DB
:1046C000300290913102A0913202B0913302892BD5
:1046D0008A2B8B2B09F440C080912F0281110BC0D3
:1046E00088B190E4892788B980912E02882319F037
:1046F00088B1805888B98091300290913102A091A0
:104700003202B0913302181619061A061B069CF4E1
:104710008091300290913102A0913202B091330227
:104720000197A109B1098093300290933102A093BF
:104730003202B0933302FF91EF91BF91AF919F91FD
:104740008F917F916F915F914F913F912F910F903A
:104750000FBE0F901F9018950E94DE10ECCF1F9295
:104760000F920FB60F9211248F929F92AF92BF9229
:10477000CF92DF92EF92FF920F931F932F933F936D
:104780004F935F936F937F938F939F93AF93BF9359
:10479000CF93DF93EF93FF93C0900A02D0900B0268
:1047A000E0900C02F0900D023FEFC31AD30AE30A27
:1047B000F30AC0920A02D0920B02E0920C02F0922D
:1047C0000D0280910E02813011F108F44BC082304D
:1047D00009F467C0FF91EF91DF91CF91BF91AF9145
:1047E0009F918F917F916F915F914F913F912F9109
:1047F0001F910F91FF90EF90DF90CF90BF90AF90FF
:104800009F908F900F900FBE0F901F901895772755
:10481000F7FC7A956F2D5E2D4D2DD701C601F2E183
:10482000B595A79597958795FA95D1F7842B8C9D8B
:10483000802D112497018601A3E0359527951795C2
:104840000795AA95D1F7017280234C21B4E1F59424
:10485000E794D794C794BA95D1F7C42AC826C092D2
:10486000CF00B8CF7727F7FC7A956F2D5E2D4D2DB1
:10487000D701C60177E0B595A795979587957A9565
:10488000D1F721E032E0C316D104E104F1040CF4C5
:1048900020E0822B942F9C21892B4C0DC82EC42AFA
:1048A000DECFDC2DD572D701C60146E0B595A795C0
:1048B000979587954A95D1F7D827460157015BE030
:1048C000B594A794979487945A95D1F7CC2DC82581
:1048D000CC0DC701B60128E130E040E050E00E9475
:1048E0006436672B682B692B19F586E090E0A0E011
:1048F000B0E08821C89EC0191124D701C601880FD5
:10490000991FAA1FBB1FB701A601467552706627E3
:104910007727452B462B472B81F024E0F594E7942D
:10492000D794C7942A95D1F7C822CC26CD2A97CF01
:1049300082E090E0A0E0B0E0DCCF9AE0F594E7946C
:10494000D794C7949A95D1F7EFCF1F920F920FB6D5
:104950000F9211242F933F934F935F936F937F9305
:104960008F939F93AF93BF93EF93FF930E94AF23D7
:10497000FF91EF91BF91AF919F918F917F916F9137
:104980005F914F913F912F910F900FBE0F901F900D
:1049900018958BEE91E1909325028093240280E09C
:1049A00090E89093200280931F0246983E9A479881
:1049B0003F9AEDE3F2E01382128288EE91E0918358
:1049C000808386E0818781E0808715821682148249
:1049D00087831092C2061092EE061092EF06109294
:1049E000F0061092F1061092F3061092F206109261
:1049F000F4061092F5060895CDB7DEB7C355D10978
:104A0000DEBFCDBF11E01093E0001092E2001092E3
:104A1000E10080E28093D8001092D7008091650079
:104A2000806880936500789484B5826084BD84B585
:104A3000816084BD85B5826085BD85B5816085BD99
:104A400080916E00816080936E0010928100809151
:104A500081008260809381008091810081608093D9
:104A6000810080918000816080938000809191001E
:104A70008260809391008091910081608093910089
:104A8000809190008160809390008091C10084604B
:104A90008093C1008091C10082608093C1008091A9
:104AA000C10081608093C1008091C30081608093C8
:104AB000C3008091C00082608093C0008091C200DA
:104AC00081608093C20080917A00846080937A0034
:104AD00080917A00826080937A0080917A00816070
:104AE00080937A0080917A00806880937A00559A4A
:104AF000209A5D9828985D9828988C9A84988AE0E6
:104B000090E00E94A8117C990EC0F89487E78093EA
:104B1000000880930108A89588E18093600088E0F0
:104B200080936000FFCF81EC80937C0085B1806F23
:104B300085B984B1877E84B984B1876E84B95E9A61
:104B40005F988AB1806D8AB9769A6E9881B3806FCA
:104B500081BB899880B38D7080BB80E58CBD1DBD05
:104B600085E090E00E94A8115F9A85E090E00E94A5
:104B7000A8115E985C98E2E2F6E084918EBD000098
:104B80000DB407FEFDCF319606E0EF32F007A9F72E
:104B90005C9A81E8809364008091650081608093D5
:104BA000650002E010E00E94DB1182FF3EC02D98FC
:104BB0000E94DB1184788438B9F42D9A88EC90E057
:104BC0000E94A8112F981A8309836FEFCE010196D6
:104BD0000E941E2284EF91E00E94A8112F9A0E9449
:104BE000DB1184788438D9F30E94DB11847184311D
:104BF000B9F42D9A88EC90E00E94A8112E981A839F
:104C0000098360E0CE0101960E941E2284EF91E0AC
:104C10000E94A8112E9A0E94DB1184718431D9F36D
:104C200088EC90E00E94A811BECF2D9A84E1809379
:104C30000001809164008E7F8093640080917A00EF
:104C4000806480937A0080917A0086FDFCCF009189
:104C50007800109179000E946C10AB01BC01C80172
:104C6000B0E0A0E0DC01992788278C019D01040FAA
:104C7000151F261F371FC901B8012091640021604C
:104C800020936400611571058105910511F00E9462
:104C900045360E94A51A0E94A51A80E00E94B822FB
:104CA00082EF8093800082E1809381008FEF90E01B
:104CB000909387008093860081E280936F0010922A
:104CC00089001092880010928B0010928A0082E076
:104CD0008093C00081E08093C1008FEF8093D1006A
:104CE00093E894BD87BD222423948FB7F894409114
:104CF00035025091360260913702709138028FBFB1
:104D000080910802882319F010920802EECF80915A
:104D10000902142F181B812F90910001191740F4DC
:104D20008F5F891710F721E023BF889513BEDDCF71
:104D30002092080240930902E0901102F0901202C2
:104D40003FEFE31AF30AF0921202E092110210917F
:104D50002102109322020E94DB1180932102009114
:104D60000F02073208F059C0E02FF0E0E654F94D89
:104D70000C94FB36E126E3262B273827EF27B52BAB
:104D80002E2D2E2D2E2D2E2D6F2D142F172F0A3454
:104D9000DA344B355035DE34E734FB32FB32FB324C
:104DA000FB32FB32FB32FB32FB32FB32FB3206338F
:104DB000063306330633063306330633063306332B
:104DC000063320920F021095182331F081E1809371
:104DD0000F0282E08093100220E04FE85DE060E186
:104DE00070E080E290E00E94A211C70160E570E0EF
:104DF0000E94D336883220F48431F8F081E31EC05B
:104E00008C3338F581E58093FB03807A31F485EAB1
:104E10008093F40385E98093F503E7E4F2E041E051
:104E200080E098E000800EBC4111012C019780FDCC
:104E3000FDCF0192B9F70DB458CF81E11092220451
:104E40001092230410922404109225041092260438
:104E5000DACF81E9D8CF83E080930F02109212025B
:104E6000109211020E94C01A85E09DE00E948311F9
:104E700020E04BED5CE070E060E090E080E00E94BC
:104E8000A21120E043ED5CE06DE070E089E490E089
:104E90000E94A21120E043ED5CE06EE270E083E34B
:104EA00090E00E94A21120E04FE65BE061E170E03B
:104EB00085E090E00E94A21181E10E947F1301E051
:104EC00024E040E864E070E084E190E00E94BB12DE
:104ED00021E049E46DE070E090E080E00E94EE1196
:104EE00021E040E869E070E08DE090E00E94EE1182
:104EF00021E040E86EE270E087E390E00E94EE116E
:104F000021E049E162E370E090E080E00E94EE1170
:104F100024E049E164E370E090E080E00E94BB128D
:104F20002BE04DE462E370E089E190E00E948F1293
:104F30008DE1809342028093410284E38093430297
:104F400080911102909112026EEF70E00E94D336B0
:104F500087FF37C08BE59BE00E94441320E043EDC0
:104F60005CE06EE270E083E390E00E949C1188E0D8
:104F70000E942F12882309F450CF2092BD01109275
:104F8000C2011092BE011092C3011092BF01109293
:104F9000C4011092C0011092C5011092B20110928A
:104FA000B1011092B5018DE08093070110920801C4
:104FB00083E180930F020E94D21082E88093C000A8
:104FC0002CCF88E49BE00E94441320E04CE35BE09C
:104FD00065E370E08EE290E00E949C11BFCFE0910B
:104FE000C601F0E0EE0FFF1FEC5EF44F0591149147
:104FF0000E94C01A0E946E0EF801849180934706A9
:105000003196E491E0934E06F8013296E491F0E097
:10501000F093F306E093F2061092C30634ECC32E2D
:1050200036E0D32E27E436E02C963FAF2EAF2C97F8
:105030002EEE36E0F6018FEF108211828283838399
:1050400084838583868337962E173F07A9F7F80157
:1050500033963490319634912D963FAF2D973196FB
:10506000E491E0934A0687E4882E86E0982EA12CEE
:10507000F12C96E0B92E66246A943A1409F4C0C063
:10508000F801EB0DF11D7490E1E0EB0DE00FF12F55
:10509000F11D9491E2E0EB0DE00FF12FF11D8491F1
:1050A000E3E0EB0DE00FF12FF11D44E0B40EE491CD
:1050B000AA2011F08F3F09F0F3946EA66FA668AA9C
:1050C00069AA6AAAE12C8F3F09F14E2F50E067E0F0
:1050D000869F400D511D112430E020E0E12C8E2FE1
:1050E000820F853098F4DA01A20FB31FAA53B94F8B
:1050F0008C918F3F41F0AEE2B0E0AC0FBD1FAE0D22
:10510000B11D8C93E3942F5F3F4FE9CF5524539407
:105110007E10512C2E2D30E0D90112966096BFAF33
:10512000AEAF6097E92FF0E031969F01FF0F440B7F
:10513000550B64962CAF3DAF4EAF5FAF64975110E7
:1051400045C04CE250E04C0F5D1F60966EAD7FADE8
:105150006097460F571F2A965FAF4EAF2A974E2C87
:105160004714B8F464962CAD3DAD4EAD5FAD649779
:1051700061E070E080E090E00E94091A2A96AEADEE
:10518000BFAD2A976D932A96BFAFAEAF2A974394CF
:10519000E7CF90E080E0A816A1F0DE019E9630E017
:1051A00020E04D91F901E158FF4FE80DF91D908184
:1051B000491306C02F5F3F4F2530310591F7BFCF10
:1051C00091E08F5F863039F7592EB9CF8EA5F60161
:1051D00082838FA5838388A9848389A985838AA9EB
:1051E0008683E08271828091C3068F5F8093C306BD
:1051F000A394F7E0CF0ED11C27E0820E911C3DCF87
:105200008BE2E3ECF6E0DE01119601900D928A95B7
:10521000E1F700E06E013CE2C30ED11CB6E03B2E8C
:105220000E946E0EAE014F5F5F4F5A01E12C912C30
:10523000812C55245A941FEF8F1408F467C0EE2078
:1052400079F390E080E0FC01EA5AF94F26E03191D1
:10525000DF01A95BBF4F3C932150C9F7069684320A
:10526000910589F7A6E06A2E6E011CE2C10ED11CE1
:105270008981F816E0F490E080E0FC01EA5AF94FE9
:1052800026E0DF01A85BBF4F3C9131932150C9F765
:1052900006968432910589F75F2C80E077247A9412
:1052A0001FEF9981591608F4A6C0882309F310E06E
:1052B000F6E0BF2E2D960FAD2D97402E512C712C60
:1052C000612C80914706181708F01BC100E0B19EC1
:1052D000C00111249C01295B394F79018091470657
:1052E000081708F00CC16701C00ED11CD6011F962B
:1052F0008C918F3F49F4A301920160E070E0CB01F3
:105300000E94091AF60167870F5FE8CFD501119651
:105310004C90B7E0B89D3001B99D700C1124E1E0CC
:10532000F0E0EC0FFD1F6E0E7F1ED50112968C91E2
:10533000481608F057C0F301E40DF11DE3801F3F4C
:1053400019F0BFEF5B1215C02091470630E050E026
:1053500040E060E070E0CB010E94091A162FE62FB2
:10536000F0E0E95BF94FE786512C4394EE24E39497
:10537000DCCFC6010E94271A20914706D601812F53
:1053800090E00023F1F0F601359CC0011124895B07
:10539000994F3E2F3C19321708F042CF1191DC0192
:1053A000A10FB11D1F963C913F3F99F7359CF0012D
:1053B0001124E95BF94FE10FF11DE78651E0052764
:1053C000D4CF3A2F3C19321708F02ACF5D90FC0158
:1053D000359CE00DF11D1124E95BF94F37853F3F06
:1053E00081F7E4CFEFEF8E1A9E0AF7E0AF0EB11C03
:1053F000E11022CF15CF27E0529E40011124540125
:105400003FEFA31AB30A41E050E04C0F5D1FA40E1A
:10541000B51ED5014C90840E951EF501918149165B
:1054200008F068C0F401E40DF11D33801F3F19F04E
:10543000FFEF7F1226C02091470630E050E040E0A9
:1054400060E070E0CB010E94091A162F20914706F8
:1054500030E050E040E060E070E0CB010E94091ACB
:10546000762E669EF0011124E95BF94FE10FF11DE4
:10547000DF011F9687858F3FF1F63C9243948E2D76
:10548000CCCFC6010E94271A20914706D601812F52
:1054900090E00023F1F0F601679CC0011124895BC4
:1054A000994F3E2F3C19321708F0E2CE1191DC01E2
:1054B000A10FB11D1F963C913F3F99F7679CF001EA
:1054C0001124E95BF94FE10FF11D378661E00627F2
:1054D000D5CF3A2F3C19321708F0CACE7D90FC0187
:1054E000679CE00DF11D1124E95BF94F37853F3FC3
:1054F00081F7E4CF882309F4BBCE5394D2CE1F5F4B
:10550000E0CE20E037E0E22FF0E0E090C3060E2D81
:105510000150110BE017F1070CF0B1C041E0420F50
:10552000239FB00111246C53794F439FC001112474
:105530008C53994F242FF42E3E9FA0013F9F500D76
:1055400011248B014D53594FDA0111962A96BFAFA2
:10555000AEAF2A9711962E96BFAFAEAF2E9711968B
:105560006096BFAFAEAF60972A01B4E04B0E511CFE
:105570005A01A5E0AA0EB11C6A01B6E0CB0ED11CFF
:1055800031963E9FA0013F9F500D11244D53594F1E
:10559000FE1408F0B8CFFC017180DB0111969C90DD
:1055A000791408F069C0F801DE01AF5BBF4F832EAC
:1055B00001900D928A94E1F7FB0180802496EFAD73
:1055C0002497EEA72596EFAD2597EFA72696EFAD8A
:1055D0002697E8AB2796EFAD2797E9AB2896EFAD76
:1055E0002897EAABFC01DE01D396632E01900D9261
:1055F0006A94E1F7DC01EC912A96AEADBFAD2A9733
:10560000EC932E96EEADFFAD2E977082EDA96096CD
:10561000AEADBFAD6097EC93EEA9D201EC93EFA9CC
:10562000D501EC93E8ADD601EC93E9ADDA01EC934A
:105630008CA69DA6FE01BC96DE01DA96732E019023
:105640000D927A94E1F7FC0180829182ECADDC014D
:105650001296EC931297EDAD1396EC931397EEAD73
:105660001496EC931497EFAD1596EC93159721963D
:10567000EFAD21971696EC93F394079689CFE7E464
:10568000F2E010E000E001930F5F1F4F0115B1E061
:105690001B07C9F76FEF70E080E090E00E94EF1900
:1056A0006B016FEF70E080E090E00E94EF19D6018F
:1056B000A95BBD4F2C91FB01E95BFD4F80818C9371
:1056C00020830150110931F72091470680E0281707
:1056D000A1F02C96AEADBFAD2C971F9690E0291788
:1056E00071F1ED91AD0141505109F0E0E95BFD4FE1
:1056F0003081FA0130839F5FF2CF3091C306A5EC71
:10570000B6E090E080E017E0831740F520E0189FB6
:10571000A001199F500D11244D53594F6C9126171C
:10572000D0F4BA01620F711DFB010381E02FF0E09C
:10573000E95BFD4F0081FB0103832F5FEFCF8F5F9C
:105740002C960EAD1FAD2C970A5F1F4F2C961FAFE6
:105750000EAF2C97BCCF01961796D6CF20920E0293
:105760001092F50685E080930F02109122021095A9
:1057700080912102182380911102909112026EE112
:1057800070E00E94D336892B79F48091F506882346
:1057900059F08091F2069091F306009729F0019755
:1057A0009093F3068093F2068091F4068823D9F053
:1057B00081508093F4068091EE068823B9F0813001
:1057C00009F402C10E94DB160E940C180E943616D2
:1057D0008091F2069091F306892B09F031C186E0A1
:1057E00080930F021ACB0E94C01AE5CF9091C20697
:1057F000913009F471C0D0F0923081F113FF11C0E3
:1058000020914906E091480646E0249F900111242A
:10581000295B394FE20FF32FF11D83A98F3F09F464
:1058200097C012FFCFCF2092EE06CCCF15FF07C056
:1058300080914806882319F081508093480616FF0E
:10584000DDCF80914806209147062150330B821707
:105850001306A4F68F5F80934806D0CF17FF17C0BA
:1058600080914906882399F0E0914806F0E02FEFF7
:10587000280F06E0209FE00DF11D1124E95BF94F90
:10588000815023A92F3F21F580934906B7CF14FFFC
:10589000B5CF8091490620914706622F6150770B62
:1058A000861717060CF0AACF8F5FE0914806F0E04C
:1058B00076E0879FE00DF11D1124E95BF94F821717
:1058C00008F09CCF369635A53F3FF1F28F5FF7CFBA
:1058D00036978111D5CF92CF15FF18C08091480619
:1058E0008823A1F020914906EFEFE80FF0E0A6E051
:1058F0002A9FE00DF11D1124E558F94F81502291A6
:105900002F3F09F4A8CF8111F9CF78CF16FF76CFBA
:105910008091480620914706E22FE150FF0B8E1739
:105920001F060CF06BCF8F5F30914906E82FF0E037
:1059300006E0309FE00DF11D1124E658F94F821763
:1059400008F05CCF31913F3F09F485CF8F5FF7CFEF
:105950000091F0061091F1062092F50680914D0617
:10596000A82FB0E0A95BB94F278518962C9383AB7D
:105970008F5F80934D06923090F09230A1F00E949C
:105980000C188091F006081789F08CE08093F406DB
:105990008FED87BD8AE09BE00E94831113CF82E0E8
:1059A0008093C206ECCF2092C206E9CF8091F10627
:1059B000181709F407CF8CE08093F40680E28093F7
:1059C0008A0080E09BE0E8CF15FF04C080914B0681
:1059D00081110DC016FD0FC017FF1FC080914C062E
:1059E000882309F4EFCE815080934C06EBCE815092
:1059F00080934B06E7CE80914B06E0914C0657E032
:105A0000E59FF0011124EC53F94F21812150330B14
:105A1000821713060CF78F5FEBCF14FF0CC0809139
:105A20004C062091C3062150330B821713060CF04D
:105A3000C9CE8F5FD9CF12FFC5CE1092EE06C2CE6F
:105A40008091EF06811102C089E0CACE90914D0687
:105A500080914E069813E1C987E0C2CE0E94C01A19
:105A60000E94DB160E940C180E94361620E042E2CB
:105A70005AE067E170E084E290E00E94961188E2CB
:105A800080934202809341028AE180934302809195
:105A90000F028730F1F050F48630B1F088E00E94B8
:105AA0002F12882309F4B9C98AE09ACE8830A1F070
:105AB0008930A1F720E047EC58E067E170E089E128
:105AC00090E00E949611EACF85E19AE00E9444138B
:105AD000E5CF89E09AE0FACF8DEF99E0F7CF20E0AB
