:100000000C946F030C9497030C9497030C94970330
:100010000C9497030C9497030C9497030C949703F8
:100020000C9497030C9497030C94A2060C9411075C
:100030000C9497030C9497030C9497030C949703D8
:100040000C9497030C9497030C9497030C949703C8
:100050000C9497030C9497030C9497030C94430906
:100060000C9497030C9497030C9497030C949703A8
:100070000C9497030C9497030C9497030C94970398
:100080000C9497030C9497030C9497030C94970388
:100090000C9497030C9497030C9497030C94970378
:1000A0000C9497030C9497030C94970300000000A2
:1000B000003E5B4F5B3E3E6B4F6B3E1C3E7C3E1CEE
:1000C000183C7E3C181C577D571C1C5E7F5E1C0034
:1000D000183C1800FFE7C3E7FF0018241800FFE7EB
:1000E000DBE7FF30483A060E2629792926407F05AE
:1000F0000507407F05253F5A3CE73C5A7F3E1C1CC4
:1001000008081C1C3E7F14227F22145F5F005F5F83
:1001100006097F017F006689956A6060606060946F
:10012000A2FFA29408047E040810207E2010080874
:100130002A1C08081C2A08081E101010100C1E0C7F
:100140001E0C30383E3830060E3E0E060000000011
:100150000000005F00000007000700147F147F14F8
:10016000242A7F2A1223130864623649562050003D
:1001700008070300001C2241000041221C002A1C29
:100180007F1C2A08083E0808008070300008080814
:100190000808000060600020100804023E51494534
:1001A0003E00427F400072494949462141494D3352
:1001B0001814127F1027454545393C4A49493141B9
:1001C000211109073649494936464949291E000087
:1001D00014000000403400000008142241141414DC
:1001E0001414004122140802015909063E415D59C8
:1001F0004E7C1211127C7F494949363E41414122D1
:100200007F4141413E7F494949417F090909013EFA
:10021000414151737F0808087F00417F4100204021
:10022000413F017F081422417F404040407F021C33
:10023000027F7F0408107F3E4141413E7F0909094A
:10024000063E4151215E7F09192946264949493216
:1002500003017F01033F4040403F1F2040201F3FDC
:100260004038403F63140814630304780403615961
:10027000494D43007F4141410204081020004141A3
:10028000417F04020102044040404040000307084F
:100290000020545478407F2844443838444444284B
:1002A000384444287F385454541800087E090218F2
:1002B000A4A49C787F0804047800447D400020407A
:1002C000403D007F1028440000417F40007C0478BE
:1002D00004787C080404783844444438FC18242406
:1002E0001818242418FC7C08040408485454542486
:1002F00004043F44243C4040207C1C2040201C3C03
:100300004030403C44281028444C9090907C4464F9
:10031000544C44000836410000007700000041368C
:10032000080002010204023C2623263C1EA1A16112
:10033000123A4040207A3854545559215555794144
:100340002154547841215554784020545579400C1B
:100350001E527212395555555939545454593955FC
:100360005454580000457C410002457D420001453F
:100370007C40F0292429F0F0282528F07C545545AC
:10038000002054547C547C0A097F4932494949323F
:100390003248484832324A4848303A4141217A3A54
:1003A00042402078009DA0A07D39444444393D401E
:1003B00040403D3C24FF2424487E4943662B2FFCCB
:1003C0002F2BFF0929F620C0887E09032054547979
:1003D000410000447D413048484A32384040227A4A
:1003E000007A0A0A727D0D19317D2629292F2826C7
:1003F0002929292630484D402038080808080808CF
:100400000808382F10C8ACBA2F102834FA00007B27
:10041000000008142A142222142A1408950022002D
:1004200095AA005500AAAA55AA55AA000000FF00E7
:10043000101010FF00141414FF001010FF00FF1024
:1004400010F010F0141414FC001414F700FF000056
:10045000FF00FF1414F404FC141417101F10101FD5
:10046000101F1414141F00101010F0000000001FC3
:10047000101010101F10101010F010000000FF10CE
:100480001010101010101010FF10000000FF1400CA
:1004900000FF00FF00001F10170000FC04F41414FC
:1004A0001710171414F404F40000FF00F7141414C8
:1004B00014141414F700F7141414171410101F1048
:1004C0001F141414F4141010F010F000001F101F6B
:1004D0000000001F14000000FC140000F010F010D9
:1004E00010FF10FF141414FF141010101F00000050
:1004F00000F010FFFFFFFFFFF0F0F0F0F0FFFFFF54
:100500000000000000FFFF0F0F0F0F0F38444438AA
:10051000447C2A2A3E147E02020606027E027E02E5
:1005200063554941633844443C04407E201E200604
:10053000027E020299A5E7A5991C2A492A1C4C7241
:1005400001724C304A4D4D303048784830BC625AC8
:10055000463D3E494949007E0101017E2A2A2A2A58
:100560002A44445F444440514A444040444A514034
:100570000000FF0103E080FF000008086B6B0836F5
:1005800012362436060F090F060000181800000066
:100590001010003040FF0101001F01011E00191D55
:1005A0001712003C3C3C3C0000000000F0F89C8E20
:1005B0008783878E9CF8F00000FEFF03030303038C
:1005C000070EFCF80000FEFF0303030303070EFC05
:1005D000F80000FFFF00000000000000FFFF000027
:1005E000FEFF8383838383C7EE7C380000F8FC0E14
:1005F00007030303070EFCF800003F7FE0C0808084
:10060000C0E07F3FFFFF01010101010101FFFF0089
:1006100000FFFF0C0C0C0C1C3E77E3C100007FFFB9
:10062000C0C0C0C0C0E0703F1F00001F3F70E0C0EE
:10063000C0C0E0703F1F00007FFFC1C1C1C1C1E366
:10064000773E1C00001F3F70E0C0C0C0E0703F1F3D
:10065000000000000001FFFF01000000D5F08D1434
:10066000A1C881CFD9F1AF2000080B00020202001F
:100670000009040000010202000005240010010529
:100680002401010104240206052406000107058156
:100690000310004009040100020A000000070502DF
:1006A0000240000007058302400000040309041211
:1006B000010002EF020140412337800001010203E3
:1006C0000141726475696E6F204C4C430041726445
:1006D00075696E6F204D6963726F0000C009112447
:1006E0001FBECFEFDAE0DEBFCDBF11E0A0E0B1E08A
:1006F000E8E0F0E202C005900D92A633B107D9F709
:1007000025E0A6E3B1E001C01D92AD3AB207E1F7E2
:1007100013E0CFE6D3E004C02197FE010E94FC0F56
:10072000CE36D107C9F70E94DD090C9402100C9453
:100730000000E9E5F1E0A0E0B8E000800EBC811126
:10074000012C1197A0FDFDCF0192B9F70DB40895CA
:10075000FC0180915801882311F13FB7F89482E0A1
:100760008093E9002091F200822F90E0181619067C
:1007700014F481E090E0882339F0289A44E640930D
:1007800057014091F1004083222339F02091F2007B
:10079000211103C02BE62093E8003FBF08958FEF9F
:1007A0009FEF08952FB7F89483E08093E90090912C
:1007B000E800892F807295FF04C09091F20080E4D8
:1007C000891B2FBF089580914F0181110DC082E0D8
:1007D00080934B0184E080934C0110924E01109263
:1007E0004D0181E080934F018BE491E00895CF9318
:1007F000DF931F92CDB7DEB76983DC01ED91FC91E9
:100800000280F381E02D41E050E0BE016F5F7F4F39
:1008100009950F90DF91CF91089583E08093E900CF
:100820008091F200882319F08AE38093E80008950C
:100830000E94D20390E00895CF93DF931F92CDB72B
:10084000DEB7FC018485958597FD08C02FEF3FEF4B
:10085000358724870F90DF91CF910895CE010196BF
:100860000E94A803019719F4898190E0F3CF8FEFDC
:100870009FEFF0CF0F931F93CF93DF931F92CDB7CE
:10088000DEB78C01FC018485958597FF0BC0CE01F6
:1008900001960E94A803019771F4898190E0F80104
:1008A00095878487F801848595850F90DF91CF9196
:1008B0001F910F9108958FEF9FEFF1CFFC01848579
:1008C000958597FD0BC09FB7F89482E08093E9006F
:1008D0008091F2009FBF90E0019608959FB7F89431
:1008E00082E08093E9008091F2009FBF90E008953C
:1008F00040914501509146012091430130914401BE
:1009000042175307B4F49091E8009570E1F3909189
:10091000E80092FD19C08093F1008091450190910B
:10092000460101968F739927892B19F48EEF8093D6
:10093000E80080914501909146010196909346010F
:100940008093450181E0089580E00895DF92EF9261
:10095000FF920F931F93CF93DF93D82E8A01EB0161
:100960007B01E40EF51ECE15DF0559F0D7FE12C04F
:10097000FE0184910E94780421968111F4CF0FEF3B
:100980001FEFC801DF91CF911F910F91FF90EF9062
:10099000DF9008958881EECF0F931F93CF93DF935D
:1009A0001F92CDB7DEB782E0898342E450E069E66A
:1009B00076E080E80E94A6040E94E303DC01129620
:1009C0000D911C910115110589F0D801ED91FC9153
:1009D0000280F381E02DBE016F5F7F4FC801099552
:1009E00097FD04C0F80100851185ECCF89810F9037
:1009F000DF91CF911F910F910895615030F02091B8
:100A0000F100FC0120830196F8CF289A84E68093B8
:100A1000570108953FB7F89480913F0190914001AC
:100A2000A0914101B091420126B5A89B05C02F3F7E
:100A300019F00196A11DB11D3FBFBA2FA92F982F04
:100A40008827BC01CD01620F711D811D911D42E0FF
:100A5000660F771F881F991F4A95D1F708958F92C7
:100A60009F92AF92BF92CF92DF92EF92FF926B0173
:100A70007C010E940A054B015C01C114D104E10410
:100A8000F104B9F00E940A05681979098A099B09DD
:100A9000683E73408105910580F321E0C21AD108B8
:100AA000E108F10888EE880E83E0981EA11CB11CB5
:100AB000E4CFFF90EF90DF90CF90BF90AF909F90EA
:100AC0008F9008958F929F92AF92BF92CF92DF92B4
:100AD000EF92FF920F931F93CF93DF936C017B01F3
:100AE0008A0180910B01882309F45CC08091580130
:100AF000882309F457C080914A0180FF05C0809186
:100B0000E00082608093E000E801B12C8AEFA82E1B
:100B100093E0892E2AE3922E209711F4BB20D9F17D
:100B20000E94D20381110AC0AA94AA20D9F161E0DF
:100B300070E080E090E00E942F05EECF8C171D063C
:100B400011F00CF08C2F9FB7F8948092E90020915F
:100B5000E80025FD02C09FBFDFCF282F30E0C21B79
:100B6000D30BF701815020F041914093F100FACF6F
:100B7000E20EF31EBB2021F09092E800B12CEBCFE7
:100B80008091E80085FDE7CF9092E800BB24B39404
:100B9000209709F3F3CF5D9A84E6809349011016FC
:100BA00011063CF081E090E0F6019383828310E02F
:100BB00000E0C801DF91CF911F910F91FF90EF905E
:100BC000DF90CF90BF90AF909F908F900895AF929D
:100BD000BF92CF92DF92EF92FF920F931F93CF932A
:100BE000DF936C017B018B01040F151FEB015E018C
:100BF000AE18BF08C017D10759F06991D601ED9121
:100C0000FC910190F081E02DC6010995892B79F7BF
:100C1000C501DF91CF911F910F91FF90EF90DF9071
:100C2000CF90BF90AF9008952D9A0895BC0190E0A9
:100C300080E00C942F058FB18095807F669B886043
:100C40001C9B84600895AF92BF92CF92DF92EF9287
:100C5000FF920F931F93CF93DF936D3079F0C09184
:100C60003801D09139016A30B1F4109237011092F5
:100C700036012896D0933901C093380181E090E085
:100C8000DF91CF911F910F91FF90EF90DF90CF9068
:100C9000BF90AF900895409136015091370185E0A3
:100CA000689FF0011124E455FF4F9A01C12C80E1A7
:100CB000E82EA5E070E0CA1621F0CF0101967491EC
:100CC000FC0110E000E0B72FB170DB2E20383105B9
:100CD000D0F4CE01800F911F80349105A0F461E023
:100CE00081FD64E080FD660F82FD6295887FE89E4D
:100CF000D0011124A20FF62EA75ABE4F8C91DD20F1
:100D0000A9F0862B8C9376950F5F1F4F0830110545
:100D1000D1F6C3942F5F3F4F86E0C812CACF4A5F17
:100D20005F4F5093370140933601A8CFF0948F2145
:100D3000E9CF80E00C949903089590E080E0089555
:100D40000C947A0D1F920F920FB60F9211248F936D
:100D50009F938091E1009091E100937F9093E10057
:100D600083FF0FC01092E90091E09093EB00109286
:100D7000EC0092E39093ED001092580198E090936C
:100D8000F00082FF22C093E09093E9009091F2007E
:100D9000992319F09AE39093E800909149019923DF
:100DA00041F090914901915090934901911101C0F6
:100DB0005D9890915701992341F09091570191507E
:100DC00090935701911101C0289884FF18C0809119
:100DD000E2008E7E81608093E2008091E1008F7E50
:100DE0008093E10080914A018E7E806180934A0168
:100DF0009F918F910F900FBE0F901F90189580FFBD
:100E0000F7CF8091E2008E7E80618093E200809136
:100E1000E1008E7E8093E10080914A018E7E8160A8
:100E2000E5CF1F920F920FB60F921124CF92DF924F
:100E3000EF92FF920F931F932F933F934F935F93E4
:100E40006F937F938F939F93AF93BF93EF93FF9392
:100E5000CF93DF93CDB7DEB76C97DEBFCDBF1092D7
:100E6000E9008091E80083FF25C068E0CE01459647
:100E70000E94FD0482EF8093E8008D8987FF39C0CE
:100E80009091E80090FFFCCF982F907609F034C144
:100E90009E894F89588D2F89F88C911131C08038E7
:100EA00061F5809148018093F1001092F1008EEF7E
:100EB0008093E8006C960FB6F894DEBF0FBECDBFEE
:100EC000DF91CF91FF91EF91BF91AF919F918F9162
:100ED0007F916F915F914F913F912F911F910F9152
:100EE000FF90EF90DF90CF900F900FBE0F901F906C
:100EF00018959EEF9093E800C7CF1092F100D5CFE0
:100F0000913059F48111D3CF4130510581F6809150
:100F100048018D7F80934801CACF933049F48111F5
:100F2000C6CF4130510519F6809148018260F2CF59
:100F3000953041F48091E80080FFFCCF2068209339
:100F4000E300B5CF963009F0A9C00B8D1C8D22E0CF
:100F50001092E9001092460110924501F2122EC043
:100F600010924401109243010E94CC041F8299E028
:100F70009983FA8291E09E8390EA98879AEF998705
:100F80002091450130914601275F3F4F3C832B83E1
:100F90008D831092E9001092460110924501109342
:100FA00044010093430149E050E0BE016F5F7F4F71
:100FB00080E00E94A6040E94CC0479CF10934401E3
:100FC000009343010E94E303DC0112960D911C91F2
:100FD0000115110509F451C1D801ED91FC9104806E
:100FE000F581E02DBE016B5E7F4FC801099500972A
:100FF00009F03EC1F80100851185EACFF3E0FF1248
:101000000EC08F89882309F440C0823061F440E823
:101010006DE08DEC96E00E948D09811148CF81E250
:101020008093EB0047CF813029F440E86BE081ECFE
:1010300096E0F1CF833099F70E94E303DC0112962A
:10104000ED90FC908E010F5F1F4F6801E114F104D9
:1010500079F0D701ED91FC910680F781E02DB80180
:10106000C7010995080F111DF701E084F184EECF47
:10107000D8011C92F60101900020E9F73197BF01D9
:101080006C197D0940E0C601C6CF6BEA76E0FB0132
:10109000449150E080E80E94A60409CF973009F4FB
:1010A000BECF983021F481E08093F10000CF9930D9
:1010B00009F0FDCE837009F0B2CFE1E1F1E081E00B
:1010C00031E096E32191222371F08093E90030937F
:1010D000EB00DF0111972C912093EC009093ED0031
:1010E0008F5F873079F78EE78093EA001092EA00ED
:1010F0008F8980935801DBCE8B8D9C8D1092E900F7
:10110000109246011092450190934401809343014F
:10111000898D811192C08E899D89913A49F48132DD
:1011200009F07DCF47E050E064E071E080E0B3CFAC
:10113000913209F074CF833269F48F89988DB0E0D1
:10114000A0E08093000190930101A0930201B0936D
:101150000301ADCE803269F48091E80082FFFCCFBC
:1011600067E084E091E00E94FD048BEF8093E8004B
:101170009ECE823209F09BCE8F8980930B01EEEFD9
:10118000FFE7859194918B3F9C4D51F1E0E0F8E0B1
:101190008091040190910501A0910601B091070191
:1011A000803B9440A105B105F1F480910B0180FDD5
:1011B0001AC0EE3F8AE0F80789F587E797E7918341
:1011C0008083809160008093470188E19BE00FB6A7
:1011D000F894A895809360000FBE9093600067CE4E
:1011E000EEEFFAE0D5CF808191818737974709F0FC
:1011F0005ECEA895809160008861809360008091A8
:10120000470180936000EE3F2AE0F20789F0809169
:10121000FE0A9091FF0A9183808349CE808191815B
:101220008737980751F29093FF0A8093FE0AC5CF43
:101230001092FF0A1092FE0A3ACE0E94E303DC01EC
:1012400012960D911C910115110509F4E8CED801F3
:10125000ED91FC910190F081E02DBE016B5E7F4F1E
:10126000C8010995811123CEF80100851185EBCFC6
:10127000181619060CF41BCED2CEF1E0FF12BECE2A
:101280006FEA76E004CF1F920F920FB60F921124EF
:101290002F933F938F939F93AF93BF9380913B0185
:1012A00090913C01A0913D01B0913E0130913A01F5
:1012B00023E0230F2D3758F50196A11DB11D209372
:1012C0003A0180933B0190933C01A0933D01B09380
:1012D0003E0180913F0190914001A0914101B09168
:1012E00042010196A11DB11D80933F0190934001E1
:1012F000A0934101B0934201BF91AF919F918F9113
:101300003F912F910F900FBE0F901F90189526E8D8
:10131000230F0296A11DB11DD2CFEF92FF920F9322
:101320001F93CF93DF93F82E192FE62E042F81E021
:10133000860F880F0E94780483E00E947804CF2DE6
:10134000D12FEC0EFD2EF11CCE15DF05B9F007FFF5
:1013500013C0FE0184910E947804182F80E00E943F
:101360007804812321968111EFCFDF91CF911F91D6
:101370000F91FF90EF9008958881EDCF81E0F5CF38
:10138000E9E5F5E01382128288EE93E0A0E0B0E098
:1013900084839583A683B7838BE191E091838083D7
:1013A0008FEF9FEF95878487E9EAF5E01382128239
:1013B0008DE291E0918380830895789484B5826072
:1013C00084BD84B5816084BD85B5826085BD85B5E9
:1013D000816085BD80916E00816080936E00109267
:1013E00081008091810082608093810080918100E2
:1013F0008160809381008091800081608093800073
:101400008091910082608093910080919100816031
:1014100080939100809190008160809390008091F2
:10142000C10084608093C1008091C100826080937C
:10143000C1008091C10081608093C1008091C30090
:1014400081608093C3008091C00082608093C0005F
:101450008091C20081608093C20080917A00846094
:1014600080937A0080917A00826080937A008091E4
:101470007A00816080937A0080917A0080688093FE
:101480007A00109258011092480110924A018091FE
:10149000D70081608093D70080EA8093D80089B517
:1014A000806189BD89B5826089BD09B400FEFDCF28
:1014B00061E070E080E090E00E942F058091D8000C
:1014C0008F7C80618093D8008091E000807F809342
:1014D000E0008091E1008E7E8093E1008DE08093BA
:1014E000E200559A209A5D98289881EC80937C00C0
:1014F00085B1806F85B984B1877E84B984B1876EE8
:1015000084B95E9A5F988AB1806D8AB9769A6E982E
:1015100081B3806F81BB899880B38D7080BB80E57B
:101520008CBD81E08DBD85E090E00E9416065F9A3B
:1015300085E090E00E9416065E985C98ECE5F6E087
:1015400084918EBD00000DB407FEFDCF319646E0BC
:10155000E936F407A9F75C9A81E8809364008091EA
:1015600065008160809365000E9499060E941B06B9
:1015700087FF15C05C9885EA8EBD00000DB407FE9C
:10158000FDCF5C9A2E982F982D98809164008062F0
:101590008093640081E083BF889513BEFCCF0E94D6
:1015A0001B0682FF48C02D980E941B068478843851
:1015B000E1F40E94140688EC90E00E9416062F9831
:1015C00082E090E00E947A0D8F3F29F06FEF82E079
:1015D00090E00E94820D84EF91E00E9416062F9AFF
:1015E0000E941B0684788438D9F30E941B068471FC
:1015F0008431E1F40E94140688EC90E00E94160603
:101600002E9882E090E00E947A0D882329F060E015
:1016100082E090E00E94820D84EF91E00E94160625
:101620002E9A0E941B0684718431D9F388EC90E0D5
:101630000E941606B4CF0E94140682E090E00E9439
:10164000A006882309F4F1C03E9A3F9A81E090E019
:101650000E94A006582F5470952E81FF0EC0511184
:101660002E98C1EFDFEF08E010E00E941B0686FF16
:10167000DFC02E9A2F9A0E94140682E390E00E9407
:1016800016060E941B068111F8CFE9E5F1E08111F1
:101690008FEF002481938193819381930394D1F7F9
:1016A00010923901109238011092370110923601D0
:1016B0000E949906109290008AE08093910080ED3C
:1016C000C82E87E0D82EE12CF12C90E4392E28EE9C
:1016D000422E23E0522E612C712C00E010E0CAE073
:1016E000D0E00E94220DA70196010E94900D685A39
:1016F000744E8F4F9F4F0E94030F4B015C0120E0FF
:1017000030E040E05FE30E948F0F20E034E244E7E6
:1017100059E40E94F40DA50194010E94600E0E94FC
:10172000D20E6150710930929000709399006093CD
:10173000980086E090E00E941606219791F60E949C
:10174000220DA70196010E94900D6055794C8F4F94
:101750009F4F0E94030F4B015C0120E030E040E00E
:101760005FE30E948F0F20E034E244E759E40E94D7
:10177000F40DA50194010E94600E0E94D20E6150EA
:1017800071093092900070939900609398000E94C4
:10179000220D20E530E040E050E00E94900DDC0199
:1017A000CB014496A11DB11D0E941606CAE0D0E0EF
:1017B0000E94220DA30192010E94900D6056704F6D
:1017C0008F4F9F4F0E94030F4B015C0120E030E0E0
:1017D00040E05FE30E948F0F20E034E244E759E4E9
:1017E0000E94F40DA50194010E94600E0E94D20E89
:1017F0006150710930929000709399006093980045
:1018000086E090E00E941606219791F610929000D3
:1018100060E67AEE8FEF9FEF0E942F05011511050C
:1018200009F45DCF0E9400005ACF3E983F980ECF3A
:10183000992029F0C430D10511F42E9A2F9881E017
:101840000E9499039E01D7FF04C0222733272C1B37
:101850003D0B27703327CE01D7FD079673E0959592
:1018600087957A95E1F7D7FF05C00197F801E21B4C
:10187000F30B9F01AC015695542F4427579547957C
:10188000475A5E4FF12CE12C3801621A730A8E3FE1
:10189000FFEF9F0709F43AC06A0164E9C60ED11C44
:1018A000DA0170E060E0F701E455FA4F5F018F3F25
:1018B000980781F0F501E60FF71FE491022E01C0B1
:1018C000EE0F0A94EAF75496FC915497EF2B549636
:1018D000EC9354972115310581F0F501E60FF71FC0
:1018E000E491F0E02F01062C02C0559447940A942D
:1018F000E2F7F6018080482840826F5F7F4FFFEF5C
:10190000CF1ADF0A11966835710589F6019668E5E8
:10191000E60EF11C40585F4FE0EBEE16F10409F0C3
:10192000B6CF0E9499068FE090E00E94160621969D
:10193000C931D10509F099CE992011F02F9A2D982F
:1019400080E991E00E9416060E94140681E090E072
:101950000E94A00680FF91CE8AE090E00E94A0063F
:101960009FEF980F9E3F08F088CE22E330E030933F
:1019700037012093360128E330E03093390120937A
:101980003801CBE0D0E0682F89EA95E00E94230679
:10199000CE010E94A0062196C131D105A1F70E9477
:1019A000990688EE93E00E94160667CE8F929F926A
:1019B000AF92BF92CF92DF92EF92FF92CF93DF93DD
:1019C000EC01688179818A819B81611571058105AE
:1019D000910521F464E279ED8BE597E02DE133EF99
:1019E00041E050E00E94900D49015A019B01AC0179
:1019F000A7EAB1E40E94AF0D6B017C01ACEEB4EF3D
:101A0000A50194010E94BD0DC60ED71EE81EF91E49
:101A1000F7FE06C081E0C81AD108E10880E8F80A9C
:101A2000C882D982EA82FB82C701B6019F77DF9123
:101A3000CF91FF90EF90DF90CF90BF90AF909F90AD
:101A40008F9008958F929F92AF92BF92CF92DF9224
:101A5000EF92FF9260910C0170910D0180910E0147
:101A600090910F01611571058105910521F464E2E2
:101A700079ED8BE597E02DE133EF41E050E00E94F6
:101A8000900D49015A019B01AC01A7EAB1E40E9403
:101A9000AF0D6B017C01ACEEB4EFA50194010E9487
:101AA000BD0DC60ED71EE81EF91EF7FE06C081E06A
:101AB000C81AD108E10880E8F80AC0920C01D09257
:101AC0000D01E0920E01F0920F01C701B6019F7760
:101AD000FF90EF90DF90CF90BF90AF909F908F904E
:101AE000089560930C0170930D0180930E01909303
:101AF0000F010895F999FECF92BD81BDF89A9927FB
:101B000080B50895262FF999FECF1FBA92BD81BDE9
:101B100020BD0FB6F894FA9AF99A0FBE019608956F
:101B2000052E97FB1EF400940E94A70D57FD07D0C9
:101B30000E94C20D07FC03D04EF40C94A70D5095E3
:101B40004095309521953F4F4F4F5F4F08959095A9
:101B50008095709561957F4F8F4F9F4F08950E949C
:101B6000E40DA59F900DB49F900DA49F800D911D35
:101B700011240895B7FF0C94AF0D0E94AF0D821B86
:101B8000930B0895A1E21A2EAA1BBB1BFD010DC0E9
:101B9000AA1FBB1FEE1FFF1FA217B307E407F5071D
:101BA00020F0A21BB30BE40BF50B661F771F881FF9
:101BB000991F1A9469F760957095809590959B018F
:101BC000AC01BD01CF010895A29FB001B39FC00138
:101BD000A39F700D811D1124911DB29F700D811D59
:101BE0001124911D08955058BB27AA270E940B0E5F
:101BF0000C94550F0E94470F38F00E944E0F20F0B2
:101C000039F49F3F19F426F40C94440F0EF4E09538
:101C1000E7FB0C943E0FE92F0E94660F58F3BA17AA
:101C2000620773078407950720F079F4A6F50C94F2
:101C3000880F0EF4E0950B2EBA2FA02D0B01B901E1
:101C400090010C01CA01A0011124FF27591B99F032
:101C5000593F50F4503E68F11A16F040A22F232F3E
:101C6000342F4427585FF3CF469537952795A7958E
:101C7000F0405395C9F77EF41F16BA0B620B730B35
:101C8000840BBAF09150A1F0FF0FBB1F661F771FA6
:101C9000881FC2F70EC0BA0F621F731F841F48F45B
:101CA000879577956795B795F7959E3F08F0B0CFE4
:101CB0009395880F08F09927EE0F979587950895CB
:101CC0000E94740E0C94550F0E944E0F58F00E9403
:101CD000470F40F029F45F3F29F00C943E0F51115B
:101CE0000C94890F0C94440F0E94660F68F399239B
:101CF000B1F3552391F3951B550BBB27AA27621708
:101D00007307840738F09F5F5F4F220F331F441F14
:101D1000AA1FA9F335D00E2E3AF0E0E832D0915048
:101D20005040E695001CCAF72BD0FE2F29D0660F35
:101D3000771F881FBB1F261737074807AB07B0E878
:101D400009F0BB0B802DBF01FF2793585F4F3AF07E
:101D50009E3F510578F00C943E0F0C94890F5F3F25
:101D6000E4F3983ED4F3869577956795B795F79504
:101D70009F5FC9F7880F911D9695879597F90895EC
:101D8000E1E0660F771F881FBB1F62177307840788
:101D9000BA0720F0621B730B840BBA0BEE1F88F797
:101DA000E09508950E946E0F88F09F5798F0B92F24
:101DB0009927B751B0F0E1F0660F771F881F991F80
:101DC0001AF0BA95C9F714C0B13091F00E94880F8B
:101DD000B1E008950C94880F672F782F8827B85F9B
:101DE00039F0B93FCCF3869577956795B395D9F7D8
:101DF0003EF490958095709561957F4F8F4F9F4FE2
:101E00000895E89409C097FB3EF4909580957095ED
:101E100061957F4F8F4F9F4F9923A9F0F92F96E936
:101E2000BB279395F695879577956795B795F111AB
:101E3000F8CFFAF4BB0F11F460FF1BC06F5F7F4F48
:101E40008F4F9F4F16C0882311F096E911C077235A
:101E500021F09EE8872F762F05C0662371F096E863
:101E6000862F70E060E02AF09A95660F771F881F32
:101E7000DAF7880F9695879597F9089597F99F67F0
:101E800080E870E060E008959FEF80EC0895002402
:101E90000A941616170618060906089500240A94CF
:101EA00012161306140605060895092E0394000C55
:101EB00011F4882352F0BB0F40F4BF2B11F460FFE4
:101EC00004C06F5F7F4F8F4F9F4F089557FD90580D
:101ED000440F551F59F05F3F71F04795880F97FBEE
:101EE000991F61F09F3F79F08795089512161306A8
:101EF0001406551FF2CF4695F1DF08C016161706D7
:101F00001806991FF1CF869571056105089408950B
:101F1000E894BB2766277727CB0197F908950E949D
:101F2000A20F0C94550F0E94470F38F00E944E0FDD
:101F300020F0952311F00C943E0F0C94440F1124C3
:101F40000C94890F0E94660F70F3959FC1F3950F53
:101F500050E0551F629FF001729FBB27F00DB11D2D
:101F6000639FAA27F00DB11DAA1F649F6627B00DBD
:101F7000A11D661F829F2227B00DA11D621F739FA6
:101F8000B00DA11D621F839FA00D611D221F749FB4
:101F90003327A00D611D231F849F600D211D822FFB
:101FA000762F6A2F11249F5750409AF0F1F0882322
:101FB0004AF0EE0FFF1FBB1F661F771F881F91504F
:101FC0005040A9F79E3F510580F00C943E0F0C94B1
:101FD000890F5F3FE4F3983ED4F386957795679534
:101FE000B795F795E7959F5FC1F7FE2B880F911D79
:101FF0009695879597F90895EE0FFF1F0590F49138
:08200000E02D0994F894FFCFD4
:10200800FFFFFFFF00E100000000000001000000EA
:1020180000C1808100000000000000F7036205187D
:10202800040D045E041C043A04000000002306E7C3
:06203800059D069C060058
:00000001FF
