:100000000C946F0D0C94970D0C94970D0C94970D08
:100010000C94970D0C94970D0C94970D0C94970DD0
:100020000C94970D0C94970D0C9436130C94A51307
:100030000C94970D0C94970D0C94970D0C94970DB0
:100040000C94970D0C94970D0C94970D0C94970DA0
:100050000C94970D0C94970D0C94970D0C94D71548
:100060000C94970D0C94970D0C94970D0C94970D80
:100070000C94970D0C94970D0C94970D0C94970D70
:100080000C9421160C94970D0C94970D0C94970DCD
:100090000C94970D0C94970D0C94970D0C94970D50
:1000A0000C94970D0C94970D0C94970D0000000084
:1000B000003E5B4F5B3E3E6B4F6B3E1C3E7C3E1CEE
:1000C000183C7E3C181C577D571C1C5E7F5E1C0034
:1000D000183C1800FFE7C3E7FF0018241800FFE7EB
:1000E000DBE7FF30483A060E2629792926407F05AE
:1000F0000507407F05253F5A3CE73C5A7F3E1C1CC4
:1001000008081C1C3E7F14227F22145F5F005F5F83
:1001100006097F017F006689956A6060606060946F
:10012000A2FFA29408047E040810207E2010080874
:100130002A1C08081C2A08081E101010100C1E0C7F
:100140001E0C30383E3830060E3E0E060000000011
:100150000000005F00000007000700147F147F14F8
:10016000242A7F2A1223130864623649562050003D
:1001700008070300001C2241000041221C002A1C29
:100180007F1C2A08083E0808008070300008080814
:100190000808000060600020100804023E51494534
:1001A0003E00427F400072494949462141494D3352
:1001B0001814127F1027454545393C4A49493141B9
:1001C000211109073649494936464949291E000087
:1001D00014000000403400000008142241141414DC
:1001E0001414004122140802015909063E415D59C8
:1001F0004E7C1211127C7F494949363E41414122D1
:100200007F4141413E7F494949417F090909013EFA
:10021000414151737F0808087F00417F4100204021
:10022000413F017F081422417F404040407F021C33
:10023000027F7F0408107F3E4141413E7F0909094A
:10024000063E4151215E7F09192946264949493216
:1002500003017F01033F4040403F1F2040201F3FDC
:100260004038403F63140814630304780403615961
:10027000494D43007F4141410204081020004141A3
:10028000417F04020102044040404040000307084F
:100290000020545478407F2844443838444444284B
:1002A000384444287F385454541800087E090218F2
:1002B000A4A49C787F0804047800447D400020407A
:1002C000403D007F1028440000417F40007C0478BE
:1002D00004787C080404783844444438FC18242406
:1002E0001818242418FC7C08040408485454542486
:1002F00004043F44243C4040207C1C2040201C3C03
:100300004030403C44281028444C9090907C4464F9
:10031000544C44000836410000007700000041368C
:10032000080002010204023C2623263C1EA1A16112
:10033000123A4040207A3854545559215555794144
:100340002154547841215554784020545579400C1B
:100350001E527212395555555939545454593955FC
:100360005454580000457C410002457D420001453F
:100370007C40F0292429F0F0282528F07C545545AC
:10038000002054547C547C0A097F4932494949323F
:100390003248484832324A4848303A4141217A3A54
:1003A00042402078009DA0A07D39444444393D401E
:1003B00040403D3C24FF2424487E4943662B2FFCCB
:1003C0002F2BFF0929F620C0887E09032054547979
:1003D000410000447D413048484A32384040227A4A
:1003E000007A0A0A727D0D19317D2629292F2826C7
:1003F0002929292630484D402038080808080808CF
:100400000808382F10C8ACBA2F102834FA00007B27
:10041000000008142A142222142A1408950022002D
:1004200095AA005500AAAA55AA55AA000000FF00E7
:10043000101010FF00141414FF001010FF00FF1024
:1004400010F010F0141414FC001414F700FF000056
:10045000FF00FF1414F404FC141417101F10101FD5
:10046000101F1414141F00101010F0000000001FC3
:10047000101010101F10101010F010000000FF10CE
:100480001010101010101010FF10000000FF1400CA
:1004900000FF00FF00001F10170000FC04F41414FC
:1004A0001710171414F404F40000FF00F7141414C8
:1004B00014141414F700F7141414171410101F1048
:1004C0001F141414F4141010F010F000001F101F6B
:1004D0000000001F14000000FC140000F010F010D9
:1004E00010FF10FF141414FF141010101F00000050
:1004F00000F010FFFFFFFFFFF0F0F0F0F0FFFFFF54
:100500000000000000FFFF0F0F0F0F0F38444438AA
:10051000447C2A2A3E147E02020606027E027E02E5
:1005200063554941633844443C04407E201E200604
:10053000027E020299A5E7A5991C2A492A1C4C7241
:1005400001724C304A4D4D303048784830BC625AC8
:10055000463D3E494949007E0101017E2A2A2A2A58
:100560002A44445F444440514A444040444A514034
:100570000000FF0103E080FF000008086B6B0836F5
:1005800012362436060F090F060000181800000066
:100590001010003040FF0101001F01011E00191D55
:1005A0001712003C3C3C3C0000000000F0F89C8E20
:1005B0008783878E9CF8F00000FEFF03030303038C
:1005C000070EFCF80000FEFF0303030303070EFC05
:1005D000F80000FFFF00000000000000FFFF000027
:1005E000FEFF8383838383C7EE7C380000F8FC0E14
:1005F00007030303070EFCF800003F7FE0C0808084
:10060000C0E07F3FFFFF01010101010101FFFF0089
:1006100000FFFF0C0C0C0C1C3E77E3C100007FFFB9
:10062000C0C0C0C0C0E0703F1F00001F3F70E0C0EE
:10063000C0C0E0703F1F00007FFFC1C1C1C1C1E366
:10064000773E1C00001F3F70E0C0C0C0E0703F1F3D
:10065000000000000001FFFF01000000D5F08D1434
:10066000A1C881CFD9F1AF20000000183C7EFF0067
:10067000000000000000000000000000000000007A
:1006800000000000000000000000000000C0F0FCBE
:100690003F0000000000000000000000000000001B
:1006A000000000000000000000C0F0FCFFFFFFFFA2
:1006B000000000000000000000000000000000003A
:1006C0000000000000C0F0FCFFFFFFFFFFFFFF0085
:1006D000000000000000000000000000000000001A
:1006E00000C0F0FCFFFFFFFFFFFFFFFFFFFF070061
:1006F00000000000000000000000000000C0F0FC4E
:10070000FFFFFFFFFFFFFFFFFFFFFFFFFF1F0000D7
:10071000000000000000000000C0F0FCFFFFFFFF31
:10072000FFFFFFFFFFFFFFFFFFFFFFFFFF000000D6
:100730000000000000C0F0FCFFFFFFFFFFFFFFFF15
:10074000FFFFFFFFFFFFFFFFFFFFFFFF00000000B5
:1007500000C0F0FCFFFFFFFFFFFFFFFFFFFFFFFFF9
:10076000FFFFFFFFFFFFFFFFFFFFFF030000000091
:10077000003FFCF0C000000000000000000000008E
:100780000000000000000000000000000000000069
:100790000000FFFFFFFFFCF0C000000000000000B1
:1007A0000000000000000000000000000000000049
:1007B000000000FFFFFFFFFFFFFFFCF0C000000094
:1007C0000000000000000000000000000000000029
:1007D00000000007FFFFFFFFFFFFFFFFFFFFFCF030
:1007E000C000000000000000000000000000000049
:1007F000000000001FFFFFFFFFFFFFFFFFFFFFFFE5
:10080000FFFFFCF0C000000000000000000000003E
:100810000000000000FFFFFFFFFFFFFFFFFFFFFFE3
:10082000FFFFFFFFFFFFFCF0C00000000000000022
:10083000000000000000FFFFFFFFFFFFFFFFFFFFC2
:10084000FFFFFFFFFFFFFFFFFFFFFCF0C000000006
:1008500000000000000003FFFFFFFFFFFFFFFFFF9E
:10086000FFFFFFFFFFFFFFFFFFFFFFFFFFFFFCF0AA
:10087000C0000000000000000000000000000000B8
:1008800000E02020202020202020202020202020C8
:10089000E000000000000000000000000000000078
:1008A0000000000000000000000000000000000048
:1008B0000000000000000000000000000000000038
:1008C0000000000000000000000000000000000028
:1008D0000000000000000000000000000000000018
:1008E0000000000000000000000000000000000008
:1008F00000000000000000000000000000000000F8
:1009000000FF00006060606062666CF8F0600000EC
:10091000FF000000000000000000000000000000D8
:1009200000000000000000000000000000000000C7
:1009300000000000000000000000000000000000B7
:1009400000000000000000000000000000000000A7
:100950000000000000000000000000000000000097
:100960000000000000000000000000000000000087
:100970000000000000000000000000000000000077
:10098000003F20202020202024262321202020205A
:100990003F00000000000000000000000000000018
:1009A0000000000000000000000000000000000047
:1009B0000000000000000000000000000000000037
:1009C0000000000000000000000000000000000027
:1009D0000000000000000000000000000000000017
:100BC0000000000000000000000000000000808025
:100BD0008080808080808080808080808080000015
:100BE0000000000000000000000000000000000005
:100BF00000F0F0F0F0F0F0F0F0F0F0F0F0F0F0F0E5
:100C0000F0F0F0F0F0F0F0F0F0F0F0F0F0F0F0F0E4
:100C1000F0F0F0F0F0F0F0F0F0F0F0F0F0F0F0F0D4
:100C2000F0F0F0F0F0F0F0F0F0F0F0F0F0F0F0F0C4
:100C3000F0F0F0F0F0F0F0F0F0F0F0F0F0F0F0F0B4
:100C4000F0F0F0F0F0F0F0F0F0F0F0F0F0F0F3F39E
:100C5000F3F3F3F3F3F3F3030303030303030000DA
:100C60000000000000000000000000000000000084
:100C70000000000000000000000000000000000074
:100C80000000000000000000000000000000000064
:100C90000000000000000000000000000000000054
:100CA00000000000008080C0C06020303090909034
:100CB000909090909010103060C0808000000000F4
:100CC0000000000000000000000000000000000024
:100CD0000000000000000000000000000000000014
:100CE0000000000000000000000000000000000004
:100CF00000000000000000000000000000000000F4
:100D000000000000000000000000000000000000E3
:100D100000000000000000000000000000000000D3
:100D200000F01C0643A15000F80C062311C9C8C8E6
:100D3000000000C8C9C913260CF800030EF000001B
:100D400000000000000000000000000000000000A3
:100D50000000000000000000000000000000000093
:100D60000000000000000000000000000000000083
:100D70000000000000000000000000000000000073
:100D80000000000000000000000000000000000063
:100D90000000000000000000000000000000000053
:100DA00000011FF0810221F02366CC98F00101E1DF
:100DB000080CE00101F198CC466330180C070000E4
:100DC0000000000000000000000000000000000023
:100DD0000000000000000000000000000000000013
:100DE0000000000000000000000000000000000003
:100DF00000000000000000000000000000000000F3
:100E000000000000000000000000000000000000E2
:100E100000000000000000000000000000000000D2
:100E200000000000010301010000000007040407A6
:100E30000404070404070000000000000000000094
:100E400000000000000000000000000000000000A2
:100E50000000000000000000000000000000000092
:100E60000000000000000000000000000000000082
:100E70000000000000000000000000000000000072
:100E8000000000000000000000FF0101794909098D
:100E9000FF0000FF0101951111FF0000CF4979010A
:100EA000017949CF0000FF0103E644E60301FF009A
:100EB000000000FF0101C14941417F0000FF010125
:100EC000951111FF0000FF010179790101FF000078
:100ED000FF4141490909FF00000000000000000037
:100EE0000000000000000000000000000000000002
:100EF00000000000000000000000000000000000F2
:100F000000000000000000000003020202020202D2
:100F100003000003020203020203000003020202B4
:100F200002020203000003020203000302020300A4
:100F300000000003020203000000000000030202A0
:100F40000302020300000302020202020203000085
:100F50000302020202020300000000000000000081
:100F60000000000000000000000000000000000081
:100F70000000000000000000000000000000000071
:100F80000000000000000000000000000000000061
:100F90000000000000000000000000000000000051
:100FA0000000000000000000000000000000000041
:100FB0000000000000000000000000000000000031
:100FC0000000000000000000000000000000000021
:100FD0000000000000000000000000000000000011
:100FE0000000000000000000000000000000000001
:100FF00000000000000000000000000000000000F1
:1010000000000000000000000000000000000000E0
:1010100000000000000000000000000000000000D0
:1010200000000000000000000000000000000000C0
:1010300000000000000000000000000000000000B0
:1010400000000000000000000000000000000000A0
:101050000000000000000000000000000000000090
:101060000000000000000000000000000000000080
:1010700000FFFFFFFF7FFFFF0F0FFFFF7FFFFFFF5F
:10108000FFFFFFFFFFFEFCF9F0F0F9FCFEFFFFFFA2
:10109000FFFFFF0303830303F3F30303830303FF50
:1010A000FFFFFFC0C0C1C3C6CFCFC6C3C1C0C0FF12
:1010B000FFFFFFFFFF7F3F1F4F6F7F7F7FFFFFFF20
:1010C000FFFFFFFFFFFEFCF8F2F6FEFEFEFFFFFF54
:1010D000FFFFFF030383C3E3B3938383830303FF10
:1010E000FFFFFFC0C0C1C3C7CDC9C1C1C1C0C0FFE0
:1010F000FFFFFFFFFF7F3F9F0F0F9F3F7FFFFFFF20
:10110000FFFFFFFFFFFEFFFFF0F0FFFFFEFFFFFF0F
:10111000FFFFFF030383C363F3F363C3830303FF8F
:10112000FFFFFFC0C0C1C0C0CFCFC0C0C1C0C0FFA3
:10113000FFFFFFFFFF7F7F7F6F4F1F3F7FFFFFFF9F
:10114000FFFFFFFFFFFEFEFEF6F2F8FCFEFFFFFFD3
:10115000FFFFFF030383838393B3E3C3830303FF8F
:10116000FFFFFFC0C0C1C1C1C9CDC7C3C1C0C0FF5F
:10117000FF0000008080C043EEFBFAEF40C000009B
:101180000000000080C0F8CC07030387CCF9C3003F
:101190000000000060C08286DCF6F4DE80C07800CB
:1011A0000000000080C0F0D80F07078FD8F0C00003
:1011B00000000000000000000000C0FCFFFFFCF089
:1011C000C00000000000000000000000000000005F
:1011D000C0FCFFFFFFFFFFFFFFFFFCF0C0000000AF
:1011E000000000000000C0FCFFFFFFFFFFFFFFFF4B
:1011F000FFFFFFFFFFFFFCF0C00000000000000049
:1012000000C0F0FCFFFFFCC0000000000000000078
:101210000000000000C0F0FCFFFFFFFFFFFFFFFF2A
:10122000FCC000000000000000C0F0FCFFFFFFFF5A
:10123000FFFFFFFFFFFFFFFFFFFFFCC000000000FC
:1012400000000060607E7E78787C7C70700000FF1B
:10125000FF00000000464E7E7E4E4600000000FF6C
:10126000FF0000FF7E3C18000000000000000000AE
:10127000000000000000000000000000000000006E
:10128000000000000000000000000000000000005E
:10129000000000000000FFFF000000000000000050
:1012A00000000054AA04F214129492143264C09FF5
:1012B0000004F21412949294921412F40204F214A0
:1012C0001274C284F21412F40204F214129492946E
:1012D000929492F40204F21412949294929492F4DE
:1012E0000254AA00000000000000000000000000FE
:1012F00000000000000000000000000000000000EE
:1013000000000000000000000000000000000000DD
:10131000000000000000FFFF0000000000000000CF
:1013200000000055AA00FF0000FF81C37E0000FFFF
:101330000000FF0000CF4848CF0000FF0000FF0082
:1013400000808001010000FF0000FF0000FF00009E
:10135000000000000000FF0000E724242424243CB7
:101360000055AA000000000000000000000000007E
:10137000000000000000000000000000000000006D
:10138000000000000000000000000000000000005D
:10139000000000000000FFFF00000000000000004F
:1013A000000000552A402F4828492948AC4603F937
:1013B00000008F48484F40404F48484F8000EFE8BA
:1013C000E8EFE1E3EEE8E8EF0000EFE8E8E9E9E95B
:1013D000E9E9E9EF0000EFE80809E9E90909E9EFBF
:1013E0000055AA00000000000000000000000000FE
:1013F00000000000000000000000000000000000ED
:1014000000000000000000000000000000000000DC
:10141000000000000000FFFF0000000000000000CE
:10142000000000000000000000000000AA5500FFBE
:101430000000FF00080808492A1C0800FF00FFFF01
:10144000FFFCFCFCECEFEFEF0000FFFFFFFFC1C172
:10145000FFFFFFFF0000FFFF0000FFFF0000FFFF96
:101460000055AA000000000000000000000000007D
:10147000000000000000000000000000000000006C
:10148000000000000000000000000000000000005C
:10149000000000000000FFFF00000000000000004E
:1014A0000000000000000000000000000A1500FF1E
:1014B00000100811091109110911091108100B1365
:1014C0000B1308100B130B1308100B130B130B1338
:1014D0000B130B1308100B130B130B130B130B1322
:1014E00008150A00000000000000000000000000D5
:1014F00000000000000000000000000000000000EC
:1015000000000000000000000000000000000000DB
:10151000000000000000FFFF0000000000000000CD
:10152000000000000000000080406070787C7E7F3A
:101530007F7F7F7F7F7F7F7F7F7F7F7FFFFFFFDFDB
:10154000CFC7C3C1C1C1C1C1C1C1C1C1C1C1C1C175
:10155000C1416171797D7F7F7F7F7F7F7F7F7F7FCB
:101560007F7F7F7FFFFFFFDFCF00000000000000D4
:10157000000000000000000000000000000000006B
:10158000000000000000000000000000000000005B
:10159000000000000000FFFF00000000000000004D
:1015A00080C0E0F0F8F4F2F1F0F0F0F0F0F0F0F0DC
:1015B000F0F0F0F0F0703010181C1E1F1F1F1F1FDE
:1015C0001F1F1F1F1F1F1F1F9FDFFFFFFFF7F3F1CD
:1015D000F0F0F0F0F0F0F0F0F0F0F0F0F07030102B
:1015E000181C1E1F1F1F1F1F1F00000000000000EF
:1015F00000000000000000000000000000000000EB
:1016000000000000000000000000000000000000DA
:10161000000000000000FFFF8040201008040607C3
:1016200007070707070707070707070787C7E7F73A
:10163000FFFFFFFDFCFCFCFCFCFCFCFCFCFCFCFCE0
:10164000FC7C3C1C0C040607070707070707070775
:101650000707070787C7E7F7FFFFFFFDFCFCFCFC58
:10166000FCFCFCFCFCFCFCFCFC000000000000009E
:10167000000000000000000000000000000000006A
:10168000000000000000000000000000000000005A
:10169000000000000000FFFF00000000000000004C
:1016A00000000054AA04F214129492143264C09FF1
:1016B0000004F21412949294921412F40204F2149C
:1016C0001274C284F21412F40204F214129492946A
:1016D000929492F40204F21412949294929492F4DA
:1016E0000254AA00000000000000000000000000FA
:1016F00000000000000000000000000000000000EA
:1017000000000000000000000000000000000000D9
:10171000000000000000FFFF0000000000000000CB
:1017200000000055AA00FF0000FF81C37E0000FFFB
:101730000000FF0000CF4848CF0000FF0000FF007E
:1017400000808001010000FF0000FF0000FF00009A
:10175000000000000000FF0000E724242424243CB3
:101760000055AA000000000000000000000000007A
:101770000000000000000000000000000000000069
:101780000000000000000000000000000000000059
:10179000000000000000FFFF00000000000000004B
:1017A000000000552A402F4828492948AC4603F933
:1017B00000008F48484F40404F48484F8000EFE8B6
:1017C000E8EFE1E3EEE8E8EF0000EFE8E8E9E9E957
:1017D000E9E9E9EF0000EFE80809E9E90909E9EFBB
:1017E0000055AA00000000000000000000000000FA
:1017F00000000000000000000000000000000000E9
:1018000000000000000000000000000000000000D8
:10181000000000000000FFFF0000000000000000CA
:10182000000000000000000000000000AA5500FFBA
:101830000000FF00080808492A1C0800FF00FFFFFD
:10184000FFFCFCFCECEFEFEF0000FFFFFFFFC1C16E
:10185000FFFFFFFF0000FFFF0000FFFF0000FFFF92
:101860000055AA0000000000000000000000000079
:101870000000000000000000000000000000000068
:101880000000000000000000000000000000000058
:10189000000000000000FFFF00000000000000004A
:1018A0000000000000000000000000000A1500FF1A
:1018B00000100811091109110911091108100B1361
:1018C0000B1308100B130B1308100B130B130B1334
:1018D0000B130B1308100B130B130B130B130B131E
:1018E00008150A00000000000000000000000000D1
:1018F00000000000000000000000000000000000E8
:1019000000000000000000000000000000000000D7
:10191000000000000000FFFF0000000000000000C9
:10192000000000000000000080C0E0D0C8C4C2C1B8
:10193000C1C1C1C1C1C1C1C1C1C1C1C1C1416171C7
:10194000797D7F7F7F7F7F7F7F7F7F7F7F7F7F7FAF
:10195000FFFFFFDFCFC7C3C1C1C1C1C1C1C1C1C189
:10196000C1C1C1C1C1416171790000000000000026
:101970000000000000000000000000000000000067
:101980000000000000000000000000000000000057
:10199000000000000000FFFF000000000000000049
:1019A00080402010181C1E1F1F1F1F1F1F1F1F1FDE
:1019B0001F1F1F1F9FDFFFFFFFF7F3F1F0F0F0F095
:1019C000F0F0F0F0F0F0F0F0F0703010181C1E1F86
:1019D0001F1F1F1F1F1F1F1F1F1F1F1F9FDFFFFF17
:1019E000FFF7F3F1F0F0F0F0F0000000000000006D
:1019F00000000000000000000000000000000000E7
:101A000000000000000000000000000000000000D6
:101A1000000000000000FFFF80C0E0F0F8FCFEFDC9
:101A2000FCFCFCFCFCFCFCFCFCFCFCFCFC7C3C1C16
:101A30000C04060707070707070707070707070735
:101A400087C7E7F7FFFFFFFDFCFCFCFCFCFCFCFC90
:101A5000FCFCFCFCFC7C3C1C0C040607070707078D
:101A6000070707070707070787080B00020202009E
:101A70000009040000010202000005240010010515
:101A80002401010104240206052406000107058142
:101A90000310004009040100020A000000070502CB
:101AA00002400000070583024000000403090412FD
:101AB000010002EF020140412337800001010203CF
:101AC0000141726475696E6F204C4C430041726431
:101AD00075696E6F204D6963726F0000B516112431
:101AE0001FBECFEFDAE0DEBFCDBF13E0A0E0B1E074
:101AF000ECECF1E402C005900D92A238B107D9F7E1
:101B000028E0A2E8B3E001C01D92A633B207E1F7D6
:101B10001DE0CFE6DDE004C02197FE010E94DE203B
:101B2000CE36D107C9F70E94E2160C94E4200C943B
:101B3000000080918B0308952F923F924F925F9205
:101B40006F927F928F929F92AF92BF92CF92DF92CD
:101B5000EF92FF920F931F93CF93DF9330E0F90141
:101B6000E80FF91F1E161F060CF098C0803891056B
:101B70000CF094C0FB01E00FF11D1E161F060CF0C7
:101B80008DC0603471050CF089C0DB0177FF04C0A3
:101B9000AA27BB27A61BB70BA770BB27EB0177FDB6
:101BA0002796E3E0D595C795EA95E1F777FF07C05B
:101BB000219768E070E0FB01EA1BFB0BDF01069553
:101BC00006950695602E712C7A01AE015695542F1C
:101BD000442757954795480F591F4E525C4FBE01F9
:101BE000E8E0F0E02F014A1A5B0A6F3FFFEF7F0742
:101BF0000CF444C06C0110E000E04A01F0E88F0EE4
:101C0000911CD7FC2EC06F3F760709F45AC0F7012C
:101C1000E00FF11FE4915A01A00EB11EF0E01F0188
:101C20000A2E01C0220C0A94EAF7F501308023281D
:101C300020821097B1F06730710599F0F701E00F3D
:101C4000F11FE4915401A00EB11EF0E01F01042C1D
:101C500002C0359427940A94E2F7F50130802328D6
:101C600020820F5F1F4FFFEFCF1ADF0A0217130703
:101C70002CF4E0E8CE16D10409F0C3CF6F5F7F4F9C
:101C8000E20EF31E40585F4FFB01EC1BFD0BE61507
:101C9000F70524F46830710509F0A7CFDF91CF91E3
:101CA0001F910F91FF90EF90DF90CF90BF90AF907A
:101CB0009F908F907F906F905F904F903F902F906C
:101CC0000895109709F0BACFCCCFE2EDF3E0A0E091
:101CD000B8E000800EBC8111012C1197A0FDFDCF52
:101CE0000192B9F70DB40895FC018091D1038823C6
:101CF00011F13FB7F89482E08093E9002091F2005F
:101D0000822F90E01816190614F481E090E08823E1
:101D100039F0289A44E64093D0034091F100408383
:101D2000222339F02091F200211103C02BE62093E9
:101D3000E8003FBF08958FEF9FEF08952FB7F89405
:101D400083E08093E9009091E800892F807295FFED
:101D500004C09091F20080E4891B2FBF0895809108
:101D6000C80381110DC082E08093C40384E0809396
:101D7000C5031092C7031092C60381E08093C80385
:101D800084EC93E00895CF93DF931F92CDB7DEB735
:101D90006983DC01ED91FC910280F381E02D41E04B
:101DA00050E0BE016F5F7F4F09950F90DF91CF919B
:101DB000089583E08093E9008091F200882319F070
:101DC0008AE38093E80008950E949E0E90E00895B3
:101DD000CF93DF931F92CDB7DEB7FC018485958545
:101DE00097FD08C02FEF3FEF358724870F90DF91D5
:101DF000CF910895CE0101960E94740E019719F4B7
:101E0000898190E0F3CF8FEF9FEFF0CF0F931F9377
:101E1000CF93DF931F92CDB7DEB78C01FC01848591
:101E2000958597FF0BC0CE0101960E94740E019715
:101E300071F4898190E0F80195878487F8018485A1
:101E400095850F90DF91CF911F910F9108958FEF9E
:101E50009FEFF1CFFC018485958597FD0BC09FB75F
:101E6000F89482E08093E9008091F2009FBF90E0B7
:101E7000019608959FB7F89482E08093E9008091DD
:101E8000F2009FBF90E008954091BE035091BF03C0
:101E90002091BC033091BD0342175307B4F49091D5
:101EA000E8009570E1F39091E80092FD19C08093ED
:101EB000F1008091BE039091BF0301968F73992723
:101EC000892B19F48EEF8093E8008091BE039091E6
:101ED000BF0301969093BF038093BE0381E00895F2
:101EE00080E00895DF92EF92FF920F931F93CF93BC
:101EF000DF93D82E8A01EB017B01E40EF51ECE158F
:101F0000DF0559F0D7FE12C0FE0184910E94440FF4
:101F100021968111F4CF0FEF1FEFC801DF91CF9110
:101F20001F910F91FF90EF90DF9008958881EECF81
:101F30000F931F93CF93DF931F92CDB7DEB782E04D
:101F4000898342E450E069E67AE180E80E94720FFA
:101F50000E94AF0EDC0112960D911C910115110526
:101F600089F0D801ED91FC910280F381E02DBE0152
:101F70006F5F7F4FC801099597FD04C0F801008588
:101F80001185ECCF89810F90DF91CF911F910F9137
:101F90000895615030F02091F100FC0120830196FA
:101FA000F8CF289A84E68093D00308953FB7F89439
:101FB0008091B8039091B903A091BA03B091BB038B
:101FC00026B5A89B05C02F3F19F00196A11DB11D94
:101FD0003FBFBA2FA92F982F8827BC01CD01620FD0
:101FE000711D811D911D42E0660F771F881F991F8B
:101FF0004A95D1F708958F929F92AF92BF92CF9258
:10200000DF92EF92FF926B017C010E94D60F4B0191
:102010005C01C114D104E104F104B9F00E94D60FAF
:10202000681979098A099B09683E73408105910501
:1020300080F321E0C21AD108E108F10888EE880E89
:1020400083E0981EA11CB11CE4CFFF90EF90DF90BD
:10205000CF90BF90AF909F908F9008958F929F9256
:10206000AF92BF92CF92DF92EF92FF920F931F93A6
:10207000CF93DF936C017B018A0180912401882337
:1020800009F45CC08091D103882309F457C0809182
:10209000C30380FF05C08091E00082608093E00070
:1020A000E801B12C8AEFA82E93E0892E2AE3922E24
:1020B000209711F4BB20D9F10E949E0E81110AC015
:1020C000AA94AA20D9F161E070E080E090E00E943B
:1020D000FB0FEECF8C171D0611F00CF08C2F9FB765
:1020E000F8948092E9002091E80025FD02C09FBF8E
:1020F000DFCF282F30E0C21BD30BF701815020F037
:1021000041914093F100FACFE20EF31EBB2021F083
:102110009092E800B12CEBCF8091E80085FDE7CFED
:102120009092E800BB24B394209709F3F3CF5D9A13
:1021300084E68093C203101611063CF081E090E023
:10214000F6019383828310E000E0C801DF91CF9114
:102150001F910F91FF90EF90DF90CF90BF90AF90C5
:102160009F908F900895AF92BF92CF92DF92EF929F
:10217000FF920F931F93CF93DF936C017B018B0131
:10218000040F151FEB015E01AE18BF08C017D10781
:1021900059F06991D601ED91FC910190F081E02D0B
:1021A000C6010995892B79F7C501DF91CF911F9160
:1021B0000F91FF90EF90DF90CF90BF90AF90089578
:1021C00020919903E0919703F0919803CF01029633
:1021D0009093980380939703222319F0859194910B
:1021E0000895808191810895CF92DF92EF92FF92BE
:1021F000CF93DF930E94E010811520E8920791F4BD
:10220000809171008D7F80937100109291004698AB
:10221000479810928403DF91CF91FF90EF90DF9069
:10222000CF90089521E020938403813020E8920725
:1022300051F4809195039091960390939803809325
:1022400097030E94E01097FD05C02091830322238D
:1022500009F454C020918203211150C021E0209341
:102260008503EC01DF77209709F04BC081E0809374
:10227000860346983FE9C32E3FE0D32EE12CF12C94
:10228000CAEFD0E0E0913008F09131080995811152
:1022900003C081E08093860380918503882329F021
:1022A00080918603882309F43FC047980E94E0107C
:1022B0000097F1F19C01DE010E94A720DC01CB0117
:1022C00029E0B595A795979587952A95D1F710920E
:1022D00090002AE020939100D0929900C09298003B
:1022E0008093870390938803A0938903B0938A0314
:1022F000809171008260809371008DCF1092850370
:10230000B0CF9E0150E040E060E472E48FE090E0E6
:102310000E94532069017A0181E0C81AD108E108BE
:10232000F10810928603AECF4699BFCF479ABECF31
:102330008FEF9FEFDC01CBCF2D9A0895BC0190E089
:1023400080E00C94FB0F8FB18095807F669B886046
:102350001C9B84600895882341F02E9A662339F0EF
:102360002F9A442331F00C949C112E98F7CF2F987C
:10237000F8CF2D98089520E191E061FD94E060FD93
:10238000990F62FD9295687F269FD0011124A80FB6
:10239000AE52BC4F8C9140FF03C0892B8C930895A3
:1023A00090958923FBCFAF92BF92CF92DF92EF92AD
:1023B000FF920F931F93CF93DF935B01EC017C019E
:1023C000E40EF11C6B01C20ED11CCE15DF058CF49E
:1023D00085010C151D055CF4C038D1052CF441E0D5
:1023E000B801CE010E94BB110F5F1F4FF2CF2196A3
:1023F000ECCFDF91CF911F910F91FF90EF90DF9085
:10240000CF90BF90AF9008958F929F92AF92BF925E
:10241000CF92DF92EF92FF920F931F93CF93DF93B0
:102420006D3089F0C090B003D090B1036A30D1F420
:102430001092AF031092AE0388E0C80ED11CD09268
:10244000B103C092B00381E090E0DF91CF911F9182
:102450000F91FF90EF90DF90CF90BF90AF909F9043
:102460008F9008950091AE031091AF03E5E06E9F49
:10247000E0011124C455DF4F5801F12CF5E0E12CA7
:10248000FF1629F0CE010196FE01E490EC01912C9B
:10249000812CF0E8AF16B10458F4B601680D791D2F
:1024A0006034710528F44E2D4170C5010E94BB11A6
:1024B000E6948FEF881A980AE8E08E16910449F79F
:1024C000F394FFEFAF1ABF0A86E0F812D7CF0A5F86
:1024D0001F4F1093AF030093AE03B5CF9091AC03A1
:1024E000982329F49091AD03982381E009F480E0CA
:1024F000089580E00C94650E1092A803E0E0F1E0EE
:1025000085E080838183828383838483858386833C
:10251000878308959091A803209117019217A0F442
:102520002091A903222381F0292F30E0F901E85FEF
:10253000FE4F408148130C947C129F5F9093A80338
:1025400020503F4FF90140830895089590E080E0C6
:1025500008958F929F92AF92BF920F931F93CF9344
:10256000DF93CDB7DEB7A1970FB6F894DEBF0FBEED
:10257000CDBF19A2423008F44AE08E010F5D1F4F13
:10258000842E912CB12CA12CA50194010E948520B0
:10259000E62FB901CA01EA3044F5E05DD801EE93B7
:1025A0008D01232B242B252B79F790E080E01097C9
:1025B00069F0FD0101900020E9F73197AF014A1B56
:1025C0005B0BBD0182E398E00E94B310A1960FB6A9
:1025D000F894DEBF0FBECDBFDF91CF911F910F9159
:1025E000BF90AF909F908F900895E95CD7CFFC018A
:1025F00001900020E9F73197AF01481B590BBC014E
:1026000082E398E00C94B310682F70E090E080E0D3
:102610004AE00C94A9120C943D20CF92DF92EF92E5
:10262000FF920F931F93CF93C0E084E0C82ED12C6C
:10263000E12CF12C80911701C81770F40E94E51F5E
:102640000C2F10E0085F1E4FA70196010E94532037
:10265000F8016083CF5FEECF10921001CF911F91F0
:102660000F91FF90EF90DF90CF9008951F920F92FF
:102670000FB60F9211248F939F938091E100909158
:10268000E100937F9093E10083FF0FC01092E90077
:1026900091E09093EB001092EC0092E39093ED00A8
:1026A0001092D10398E09093F00082FF22C093E053
:1026B0009093E9009091F200992319F09AE3909396
:1026C000E8009091C203992341F09091C203915088
:1026D0009093C203911101C05D989091D00399230A
:1026E00041F09091D00391509093D003911101C08B
:1026F000289884FF18C08091E2008E7E81608093CC
:10270000E2008091E1008F7E8093E1008091C3031D
:102710008E7E80618093C3039F918F910F900FBE37
:102720000F901F90189580FFF7CF8091E2008E7E6A
:1027300080618093E2008091E1008E7E8093E100D1
:102740008091C3038E7E8160E5CF1F920F920FB6FA
:102750000F921124CF92DF92EF92FF920F931F936B
:102760002F933F934F935F936F937F938F939F9399
:10277000AF93BF93EF93FF93CF93DF93CDB7DEB7C4
:102780006C97DEBFCDBF1092E9008091E80083FF17
:1027900025C068E0CE0145960E94C90F82EF809364
:1027A000E8008D8987FF39C09091E80090FFFCCF49
:1027B000982F907609F034C19E894F89588D2F89C2
:1027C000F88C911131C0803861F58091C1038093FC
:1027D000F1001092F1008EEF8093E8006C960FB636
:1027E000F894DEBF0FBECDBFDF91CF91FF91EF9187
:1027F000BF91AF919F918F917F916F915F914F9119
:102800003F912F911F910F91FF90EF90DF90CF900C
:102810000F900FBE0F901F9018959EEF9093E800B9
:10282000C7CF1092F100D5CF913059F48111D3CF99
:102830004130510581F68091C1038D7F8093C103A2
:10284000CACF933049F48111C6CF4130510519F6F2
:102850008091C1038260F2CF953041F48091E8000D
:1028600080FFFCCF20682093E300B5CF963009F0BD
:10287000A9C00B8D1C8D22E01092E9001092BF03BD
:102880001092BE03F2122EC01092BD031092BC0330
:102890000E94980F1F8299E09983FA8291E09E83AB
:1028A00090EA98879AEF99872091BE033091BF03F1
:1028B000275F3F4F3C832B838D831092E90010925A
:1028C000BF031092BE031093BD030093BC0349E005
:1028D00050E0BE016F5F7F4F80E00E94720F0E9448
:1028E000980F79CF1093BD030093BC030E94AF0EE5
:1028F000DC0112960D911C910115110509F451C1CD
:10290000D801ED91FC910480F581E02DBE016B5E54
:102910007F4FC8010995009709F03EC1F801008575
:102920001185EACFF3E0FF120EC08F89882309F4E6
:1029300040C0823061F440E86DE08DEC9AE10E9485
:102940008216811148CF81E28093EB0047CF81301E
:1029500029F440E86BE081EC9AE1F1CF833099F7FC
:102960000E94AF0EDC011296ED90FC908E010F5F7D
:102970001F4F6801E114F10479F0D701ED91FC914A
:102980000680F781E02DB801C7010995080F111DD8
:10299000F701E084F184EECFD8011C92F60101909A
:1029A0000020E9F73197BF016C197D0940E0C601AD
:1029B000C6CF6BEA7AE1FB01449150E080E80E94C7
:1029C000720F09CF973009F4BECF983021F481E01F
:1029D0008093F10000CF993009F0FDCE837009F0AB
:1029E000B2CFEBEAF2E081E031E096E321912223DD
:1029F00071F08093E9003093EB00DF0111972C9187
:102A00002093EC009093ED008F5F873079F78EE78D
:102A10008093EA001092EA008F898093D103DBCE85
:102A20008B8D9C8D1092E9001092BF031092BE0313
:102A30009093BD038093BC03898D811192C08E89D0
:102A40009D89913A49F4813209F07DCF47E050E009
:102A50006DE171E080E0B3CF913209F074CF833241
:102A600069F48F89988DB0E0A0E08093190190936C
:102A70001A01A0931B01B0931C01ADCE803269F402
:102A80008091E80082FFFCCF67E08DE191E00E9439
:102A9000C90F8BEF8093E8009ECE823209F09BCE67
:102AA0008F8980932401EEEFFFE7859194918B3F0E
:102AB0009C4D51F1E0E0F8E080911D0190911E01E4
:102AC000A0911F01B0912001803B9440A105B10568
:102AD000F1F48091240180FD1AC0EE3F8AE0F807EE
:102AE00089F587E797E791838083809160008093E1
:102AF000C00388E19BE00FB6F894A895809360002E
:102B00000FBE9093600067CEEEEFFAE0D5CF8081E4
:102B100091818737974709F05ECEA8958091600034
:102B20008861809360008091C00380936000EE3FD5
:102B30002AE0F20789F08091FE0A9091FF0A9183C2
:102B4000808349CE808191818737980751F2909395
:102B5000FF0A8093FE0AC5CF1092FF0A1092FE0A68
:102B60003ACE0E94AF0EDC0112960D911C91011518
:102B7000110509F4E8CED801ED91FC910190F081A6
:102B8000E02DBE016B5E7F4FC8010995811123CEF8
:102B9000F80100851185EBCF181619060CF41BCE31
:102BA000D2CEF1E0FF12BECE6FEA7AE104CF1F92DF
:102BB0000F920FB60F9211242F933F938F939F93F1
:102BC000AF93BF938091B4039091B503A091B603E6
:102BD000B091B7033091B30323E0230F2D3758F59D
:102BE0000196A11DB11D2093B3038093B40390936C
:102BF000B503A093B603B093B7038091B803909147
:102C0000B903A091BA03B091BB030196A11DB11DF8
:102C10008093B8039093B903A093BA03B093BB0316
:102C2000BF91AF919F918F913F912F910F900FBEC8
:102C30000F901F90189526E8230F0296A11DB11D35
:102C4000D2CF1F920F920FB60F9211242F933F9362
:102C50004F935F936F937F938F939F93AF93BF93A4
:102C6000EF93FF938091870390918803A09189034C
:102C7000B0918A03892B8A2B8B2B09F440C0809159
:102C8000860381110BC088B190E4892788B98091AF
:102C90008503882319F088B1805888B9809187030B
:102CA00090918803A0918903B0918A0318161906A0
:102CB0001A061B069CF48091870390918803A091CB
:102CC0008903B0918A030197A109B1098093870311
:102CD00090938803A0938903B0938A03FF91EF91A7
:102CE000BF91AF919F918F917F916F915F914F9124
:102CF0003F912F910F900FBE0F901F9018950E943B
:102D0000F410ECCFEF92FF920F931F93CF93DF93CA
:102D1000F82E192FE62E042F81E0860F880F0E94CF
:102D2000440F83E00E94440FCF2DD12FEC0EFD2ED7
:102D3000F11CCE15DF05B9F007FF13C0FE01849129
:102D40000E94440F182F80E00E94440F8123219697
:102D50008111EFCFDF91CF911F910F91FF90EF90F5
:102D600008958881EDCF81E0F5CFE2EDF7E01382A1
:102D7000128288EE93E0A0E0B0E084839583A6837E
:102D8000B78385EB92E0918380838FEF9FEF9587E8
:102D90008487E2E3F8E01382128287EC92E0918369
:102DA000808389E99DE0909331088093300880E02A
:102DB00090E890932F0880932E0846983E9A479863
:102DC0003F9A0895CF93DF9300D000D0CDB7DEB700
:102DD000789484B5826084BD84B5816084BD85B5F6
:102DE000826085BD85B5816085BD80916E00816002
:102DF00080936E00109281008091810082608093A8
:102E000081008091810081608093810080918000A9
:102E10008160809380008091910082608093910016
:102E200080919100816080939100809190008160F9
:102E3000809390008091C10084608093C100809154
:102E4000C10082608093C1008091C1008160809345
:102E5000C1008091C30081608093C3008091C00055
:102E600082608093C0008091C20081608093C20024
:102E700080917A00846080937A0080917A008260E9
:102E800080937A0080917A00816080937A008091AB
:102E90007A00806880937A001092D1031092C10367
:102EA0001092C3038091D70081608093D70080EA9D
:102EB0008093D80089B5806189BD89B5826089BD5C
:102EC00009B400FEFDCF61E070E080E090E00E9478
:102ED000FB0F8091D8008F7C80618093D800809117
:102EE000E000807F8093E0008091E1008E7E8093FF
:102EF000E1008DE08093E200559A209A5D98289831
:102F000081EC80937C0085B1806F85B984B1877E28
:102F100084B984B1876E84B95E9A5F988AB1806DF6
:102F20008AB9769A6E9881B3806F81BB899880B395
:102F30008D7080BB80E58CBD81E08DBD85E090E02B
:102F40000E949E115F9A85E090E00E949E115E981B
:102F50005C98ECE5F6E089E696E024912EBD000051
:102F60000DB407FEFDCF31968E179F07B1F75C9A1F
:102F700081E88093640080916500816080936500A2
:102F80000E9479120E94A31187FF17C05C9885EAFE
:102F90008EBD00000DB407FEFDCF5C9A40E060E0FE
:102FA00080E00E94AB118091640080628093640095
:102FB00081E083BF889513BEFCCF0E94A31182FFDE
:102FC00048C02D980E94A31184788438E1F40E94AF
:102FD0009C1188EC90E00E949E112F9882E090E076
:102FE0000E943D208F3F29F06FEF82E090E00E9429
:102FF000452084EF91E00E949E112F9A0E94A31118
:1030000084788438D9F30E94A31184718431E1F467
:103010000E949C1188EC90E00E949E112E9882E004
:1030200090E00E943D20882329F060E082E090E05B
:103030000E94452084EF91E00E949E112E9A0E94EA
:10304000A31184718431D9F388EC90E00E949E1121
:10305000B4CF0E949C1182E090E00E940B13882361
:1030600009F47FC03E9A3F9A81E080938B0381E010
:1030700090E00E940B13182F147081FF0FC01111E4
:103080002E9821EF3FEF3A8329830E94A31186FFF8
:103090006DC041E061E081E00E94AB1182E390E00D
:1030A0000E949E110E94A3118111F8CF89E28093A2
:1030B0001401809164008E7F8093640080917A0077
:1030C000806480937A0080917A0086FDFCCF009125
:1030D0007800109179000E94D60FAB01BC01C801A5
:1030E000B0E0A0E0DC01992788278C019D01040F46
:1030F000151F261F371FC901B801209164002160E8
:1031000020936400611571058105910511F00E94FD
:10311000342020E3822E912C32E3A32EB12C08E23E
:10312000202E312C8AE0482E512C90E1692E712CF2
:103130002FB7F8948091B4039091B503A091B60392
:10314000B091B7032FBF20918E03222309F473C0DF
:1031500010928E0380E090E0892B51F30E940000D2
:10316000DECF10928B033E983F9881CF112331F030
:1031700089819A81049711F42E9A2F9881E00E94F8
:10318000650E00E128E54CEA55E069817A8184E129
:1031900090E00E949C0D0E9479128FE090E00E94C6
:1031A0009E11A981BA811196BA83A983599709F012
:1031B0006CCF112311F02F9A2D9880E991E00E9495
:1031C0009E110E949C1181E090E00E940B1380FFF1
:1031D00065CF8AE090E00E940B139FEF980F9E3F0F
:1031E00008F05CCF22E330E03093AF032093AE03CE
:1031F00028E330E03093B1032093B0030BE010E0FC
:103200001A830983682F82E398E00E94041289815F
:103210009A810E940B1309811A810F5F1F4F1A8335
:1032200009830131110571F70E94791288EE93E04C
:103230000E949E1133CF30918F03182F131B312F13
:1032400040911401141748F43F5F341708F082CFFF
:1032500081E083BF889513BE7DCF31E030938E032C
:1032600080938F0380918C0390918D0301969093AE
:103270008D0380938C033091B2033F5F3983309389
:10328000B203E2EDF3E021112FEF0024219321930B
:10329000219321930394D1F71092B1031092B003BC
:1032A0001092AF031092AE038091AD038093AC03F4
:1032B0000E94A3118093AD0380911801833009F41B
:1032C00071C548F4813009F449C1823009F4E1C183
:1032D0000E9479123FCF853009F42FC508F4FFC44E
:1032E0008630B1F719811F7081E009F080E090917C
:1032F000AB03890F8093AB0300E420E849E656E175
:1033000080FF02C049E652E170E060E090E080E0BA
:103310000E949C0D25E030E03093AF032093AE0374
:1033200081E793E00E94F7128FE090E09093AF0363
:103330008093AE035092B1034092B003809111018B
:103340000E940413A5E0B0E0B093AF03A093AE03D6
:1033500086E190E09093B1038093B00387E793E018
:103360000E94F7122091120189E090E0211102C021
:103370008CE090E09093AF038093AE0380E290E006
:103380009093B1038093B0038FEC92E0211102C0BF
:1033900083ED92E00E94F71287E090E09093AF03F4
:1033A0008093AE03EDE2F0E0F093B103E093B0035D
:1033B0008DE793E00E94F7122091130189E090E0DD
:1033C000211102C08CE090E09093AF038093AE0394
:1033D00087E390E09093B1038093B0038FEC92E089
:1033E000211102C083ED92E00E94F7122091900318
:1033F000022F10E01A83098316E1219F7001112426
:103400003AE0E30EF11C81E090E0223011F090E010
:1034100080E0E80EF91E08E028E049E656E0B70132
:1034200090E080E00E949C0D28E041E652E1B70167
:103430008FE190E00E949C0D80E80E946E1288232C
:1034400049F089819A81029663E070E00E94B6207B
:103450008093900380E10E946E12882351F0809146
:10346000900390E0019663E070E00E94B6208093A4
:10347000900380E20E946E12882361F09091900385
:10348000911128C5809111018450843108F420C520
:103490008093110180E40E946E12882361F0909164
:1034A0009003911128C5809111018C5F853208F03D
:1034B00020C58093110188E00E946E12882309F4D0
:1034C00034C481E08093170110929E03E8E0F1E09C
:1034D000A0E0B1E080E191E025E021932D938E17EB
:1034E0009F07D9F71092A80381E0809310011092F2
:1034F000A7031092A90310929403109293031092C1
:10350000A6031092A5038FEF809316011092A003DB
:1035100010929203109291038EE280931501109203
:10352000A4031092A2031092A10310929F03109281
:103530009B0310929A0310929C0310929D03109289
:10354000A30382E0809318016091110170E088EE7E
:1035500093E00E94B62060931401E7C309810F70C5
:1035600081E009F080E09091AB03890F8093AB0379
:1035700000E420E849E656E180FF02C049E652E156
:1035800070E060E090E080E00E949C0D84E190E0BB
:103590009093B1038093B0038091AA03811167C017
:1035A00087ED92E00E94F7121092AF031092AE03E3
:1035B0008EE190E09093B1038093B0038091AA03D1
:1035C000813009F057C08DED92E00E94F712109201
:1035D000AF031092AE033092B1032092B0038091FA
:1035E000AA03823009F049C083EE92E00E94F712EC
:1035F0006091AA03262F30E03A8329833AE0639F43
:10360000B00111246D5E7F4F08E028E041E652E1F1
:103610008EEF9FEF0E949C0D80E80E946E1288231F
:1036200049F089819A81029663E070E00E94B62099
:103630008093AA0380E10E946E12882351F080914A
:10364000AA0390E0019663E070E00E94B6208093A8
:10365000AA0388E00E946E12882309F439CE809173
:10366000AA0381110DC086E08093180131CE88ED48
:1036700092E098CF8EED92E0A8CF84EE92E0B6CFA4
:10368000813011F485E0F0CF823009F021CE84E062
:10369000EBCF8091100181110E940D13D090A903EE
:1036A000DD2009F454C0C09017018C2D8295807FD5
:1036B000869540E4481B842F90E09C838B8310E028
:1036C000E12E11E0F12EA8E0B1E0BA83A98310E069
:1036D000C116E9F1E981FA818191FA83E9838111C7
:1036E0001BC0D7018C9100E120E141E551E181113E
:1036F00002C041E351E160E270E08B819C810E9455
:103700009C0D1F5F2B813C81205F3F4F3C832B83AF
:103710003FEFE31AF30ADCCF813059F4F7018081DF
:1037200000E120E141E151E1813029F741EF50E131
:10373000E2CF823009F0EEC3D7018C9100E120E1A5
:1037400041ED50E18230B9F641EB50E1D4CF8091A8
:10375000A70390E002968F779927982F8093A7036D
:10376000811105C080919E038F5F80939E0380919D
:103770009E038170DD2009F4F9C18823A1F0903601
:1037800090F483E08093160181E0809317011092FA
:10379000A00380919F038F5F80939F0380E18093BC
:1037A000A3031092A9030091A7030983802F8052DD
:1037B00046E0853008F44AE089818054853008F479
:1037C0004AE089818056853008F4E4C119811530BA
:1037D00008F4E2C1342F369523E066E370E080E61A
:1037E00090E0831B91090E94D31124E049816CE38E
:1037F00070E090E080E00E94D31188E00E946E1299
:103800008B8384E00E946E120B81080F1127111F19
:10381000C801892B09F43EC08091A9038823D1F106
:103820008091A803909117018913EAC199819E554F
:10383000953008F0B3C12091A5033091A60313E0A1
:10384000819F200D311D11243093A6032093A503E1
:10385000109216018091A4038F5F8093A40380E1EE
:103860008093A3031092A9038091170187708F5F43
:10387000809317019091A003981708F4982F9093C4
:10388000A003943028F0843008F484E0809317017A
:103890000E947C121092AF031092AE039092B1037B
:1038A0008092B00380911601813009F4BBC108F405
:1038B000B4C1823009F4B9C1833009F4B9C180E4DC
:1038C0000E946E12882319F080E00E948A1280E81C
:1038D0000E946E12882319F081E00E948A1280E211
:1038E0000E946E12882319F082E00E948A1280E101
:1038F0000E946E12882319F083E00E948A12809140
:10390000150190919E03891B990B019711F4109258
:10391000A9038091A7038F7149F48091910390913D
:103920009203019690939203809391038091910367
:1039300008E128E180FF7FC149EF51E162E070E0DA
:1039400080E590E00E949C0D28E141EB51E162E0AE
:1039500070E087E190E00E949C0D00E120E141E9E8
:1039600051E169E070E088E390E00E949C0D22E064
:1039700041E569E170E087E190E00E94D31108E041
:1039800020E141E552E170E060E08EEF9FEF0E94A0
:103990009C0D7092AF036092AE031092B10310922F
:1039A000B00380919303909194032091A5033091EB
:1039B000A6038217930728F40196909394038093AB
:1039C0009303609193037091940390E080E04AE048
:1039D0000E94A91208E020E141E452E16AE070E0AF
:1039E0008EEF9FEF0E949C0D7092AF036092AE032A
:1039F0005092B1034092B0038091150190919E03C3
:103A0000891B990B6C01092E000CEE08FF0897FF2B
:103A100028C16DE282E398E00E94041266277727AE
:103A2000CB016C197D098E099F094AE00E94A912F9
:103A300080911201882309F473C020919C0330E027
:103A4000F901EE0FFF1FEA53FE4F8081918100972D
:103A500009F45DC060919A0370919B03AC01E4E0AE
:103A6000440F551FEA95E1F76417750708F44FC036
:103A7000F901EE0FFF1FE853FE4F408151814115C0
:103A8000510509F4F2C0481B590B6DE7649FC00152
:103A9000659F900D1124609111016150770B0E9478
:103AA000B62086E0660F771F8A95E1F72B5A3E4FC6
:103AB000D901EC91F0E0EE0FFF1FE75DFE4F208192
:103AC0003181809171008D7F8093710010929903F4
:103AD00082E298E0909398038093970390939603E3
:103AE0008093950330932308209322087093250830
:103AF0006093240880E090E890932708809326083C
:103B00000E94F41080919C038F5F80939C038091AE
:103B10009A0390919B03029690939B0380939A0340
:103B200080911301882381F00091A3030B8301117D
:103B30009FC080919D03882339F041E061E081E0DE
:103B40000E94AB1110929D0390919E0380911501EC
:103B5000981708F4BDCB89E28093140168EE73E0F6
:103B600080E090E00E94FB0F83E07ECD882309F483
:103B70001ACE903609F017CE41E04093A9030E9477
:103B80007C1281E0809310010E940D138FEF8093CF
:103B9000160109CE40E11ECE4AE01CCE99819A550D
:103BA0009D30B0F490E0880F991F2091A5033091CB
:103BB000A603820F931F9093A6038093A50381E031
:103BC000809316018091A2038F5F8093A20347CE5A
:103BD000098106550531A0F42091A5033091A60373
:103BE000820F932F911D9093A6038093A50382E0EB
:103BF000809316018091A1038F5F8093A1032FCE44
:103C000083E080931601109217011092A003809117
:103C10009F038F5F80939F0322CE8BEE92E00E94E2
:103C2000F7124DCE84EF92E0FACF8AEF92E0F7CF11
:103C30008FEF92E0F4CF41EB51E162E070E080E57C
:103C400090E00E949C0D28E149EF51E162E070E0B4
:103C500087E190E00E949C0D00E120E141E751E105
:103C600080CE4AE0C701B601E1CE40E150E00DCF81
:103C70001091160119831130B1F048F0123001F1A2
:103C8000133031F11B8111501093A3035DCF80914C
:103C90009D0340E060E08111F5CF0E94AB1181E00F
:103CA00080939D03EFCF80919D038111EBCF41E085
:103CB00060E081E00E94AB11098100939D03E2CF97
:103CC00080919D038111DECF40E061E081E0E5CF8E
:103CD00080919D038111D6CF41E061E0DECF00E409
:103CE00020E841E75CE070E060E090E080E00E9466
:103CF0009C0D25E230E03093AF032093AE03909209
:103D0000B1038092B00385E093E00E94F7127092B5
:103D1000AF036092AE0388E390E09093B103809389
:103D2000B0038FE093E00E94F71284E00E946E12CD
:103D3000882309F4CDCA81E097CC00E420E841E76C
:103D400058E070E060E090E080E00E949C0D3092CE
:103D5000AF032092AE035092B1034092B00380E2D1
:103D600093E00E94F712A5E0B0E0B093AF03A093F8
:103D7000AE03E5E2F0E0F093B103E093B00380E33B
:103D800093E00E94F71205E010E01093AF03009358
:103D9000AE032DE230E03093B1032093B00381E411
:103DA00093E0C1CF00E420E241E757E070E060E03B
:103DB00090E080E00E949C0D20E241E756E070E038
:103DC00060E080E690E00E949C0D89E190E0909395
:103DD000AF038093AE0383E593E00E94F7126091F6
:103DE000A5037091A60386E06A30710550F08CE05F
:103DF0006436710530F080E0683E93E0790708F49E
:103E000082E18695A0E4B0E0A81BB109B093AF03AE
:103E1000A093AE03EFE0F0E0F093B103E093B003C2
:103E200090E080E04AE00E94A91222E040E468E1CC
:103E300070E080E290E00E94D311B092AF03A092B4
:103E4000AE0308E310E01093B1030093B00381E6E2
:103E500093E00E94F71280919F030E940413B09296
:103E6000AF03A092AE039092B1038092B00385E6B7
:103E700093E00E94F7128091A1030E940413B09274
:103E8000AF03A092AE033092B1032092B00389E653
:103E900093E00E94F7128091A2030E940413B09253
:103EA000AF03A092AE0380E290E09093B1038093C1
:103EB000B0038DE693E00E94F7128091A4030E9464
:103EC000041384E00E946E12811135CF88E02ECF5A
:103ED00084E2DECA913031F4809112018927809307
:103EE0001201D8CA8091130191E0892780931301B0
:103EF000D1CA84E1DECA913031F480911201892760
:103F000080931201D8CA8091130191E08927809390
:103F10001301D1CA833009F0F4CBF701808100E1AD
:103F200020E141E950E1833009F0E5CB41E750E180
:103F3000E2CB8F929F92AF92BF92CF92DF92EF929D
:103F4000FF92CF93DF93EC01688179818A819B8115
:103F5000611571058105910521F464E279ED8BE528
:103F600097E02DE133EF41E050E00E9453204901FA
:103F70005A019B01AC01A7EAB1E40E9472206B01D7
:103F80007C01ACEEB4EFA50194010E948020C60E26
:103F9000D71EE81EF91EF7FE06C081E0C81AD10838
:103FA000E10880E8F80AC882D982EA82FB82C70168
:103FB000B6019F77DF91CF91FF90EF90DF90CF9088
:103FC000BF90AF909F908F9008958F929F92AF92E5
:103FD000BF92CF92DF92EF92FF9260912501709194
:103FE00026018091270190912801611571058105B5
:103FF000910521F464E279ED8BE597E02DE133EF53
:1040000041E050E00E94532049015A019B01AC015C
:10401000A7EAB1E40E9472206B017C01ACEEB4EF20
:10402000A50194010E948020C60ED71EE81EF91E2D
:10403000F7FE06C081E0C81AD108E10880E8F80A56
:10404000C0922501D0922601E0922701F09228012A
:10405000C701B6019F77FF90EF90DF90CF90BF90A0
:10406000AF909F908F9008956093250170932601E3
:1040700080932701909328010895F999FECF92BD6E
:1040800081BDF89A992780B50895262FF999FECF1A
:104090001FBA92BD81BD20BD0FB6F894FA9AF99A65
:1040A0000FBE01960895052E97FB1EF400940E9402
:1040B0006A2057FD07D00E94852007FC03D04EF4EC
:1040C0000C946A2050954095309521953F4F4F4F65
:1040D0005F4F089590958095709561957F4F8F4FB4
:1040E0009F4F08950E94A720A59F900DB49F900D0B
:1040F000A49F800D911D11240895B7FF0C94722088
:104100000E947220821B930B0895A1E21A2EAA1B13
:10411000BB1BFD010DC0AA1FBB1FEE1FFF1FA21777
:10412000B307E407F50720F0A21BB30BE40BF50B74
:10413000661F771F881F991F1A9469F760957095FD
:10414000809590959B01AC01BD01CF010895A29F80
:10415000B001B39FC001A39F700D811D1124911D5B
:10416000B29F700D811D1124911D089597FB072E9C
:1041700016F4009407D077FD09D00E94CA2007FCEE
:1041800005D03EF4909581959F4F08957095619567
:104190007F4F0895AA1BBB1B51E107C0AA1FBB1F7D
:1041A000A617B70710F0A61BB70B881F991F5A95C3
:1041B000A9F780959095BC01CD010895EE0FFF1FE2
:0C41C0000590F491E02D0994F894FFCFD5
:1041CC000505050505050505050505050505050593
:1041DC0001180101102EFF0101FFFFFFFF00E1009C
:1041EC00000000000001000000410049005200578F
:1041FC000062006E007B0083009300A500AF00C43A
:10420C0000DC00F700060126014A015D018801B8B7
:10421C0001EE010B02100F0E0D0C0B0C0D0E0F0E00
:10422C000D0E090B0C0B0A090C0B0A0B0A090807DB
:10423C0006050607060506070605070908121011EC
:10424C00121011120D0E0F10110F11100E0F10096C
:10425C000A0B0C0B0A0B0E0D0E0C0E0D0C0B0A0B95
:10426C000A090A0B0E0D0E0C0E0D0C0D0E0D0C0D7D
:10427C000E0F0E0D0E0E0B0C090A070A0B1512135E
:10428C0010110E1112150E0016001E0026002E0025
:10429C0036003E0046004A004C004E0050005200D2
:1042AC005400560058005A005C005E00600062002A
:1042BC006400660068006A006C006E00700072009A
:1042CC007400760078007A007C007E00800082000A
:1042DC00840086008A008E00900091009200940069
:1042EC00950096009700980099009A009B009C00FE
:1042FC009D009E00A000A100A200A400A500A600A5
:10430C00A700A800A900AA00AB00AC00AD00AE004D
:10431C00B000B100B200B400B500B600B700B800F0
:10432C00B900BA00BB00BC00BD00BE00C000C1009B
:10433C00C200C400C500C600C700C800C900CA003E
:10434C00CB00CC00CD00CE00D600DE00E600EE00A7
:10435C00F600FE0006010E0116011E0126012E01BB
:10436C0036013E0146014E01000000C18081000073
:10437C000000000000C30E2E10E40ED90E2A0FE828
:10438C000E060F000000000412B310A612A5122096
:10439C004F6E004F66660020506C617900204865B6
:1043AC006C700020437265646974005065726665B8
:1043BC0063742100476F6F64210042616421004DDA
:1043CC006973732100446576656C6F706572005675
:1043DC00696E63656E74697573204D6164796100F3
:1043EC005479706520746865206172726F77210052
:1043FC005072657373202841292F284229206F6E33
:10440C000074686520636F72726563742062656105
:10441C007421005B46494E414C2053434F52455D3D
:10442C00004D3A2000423A2000473A2000503A20F2
:10443C0000537065656400536F756E6400204C45C5
:02444C0044002A
:00000001FF
