:100000000C9446070C946E070C946E070C946E07C4
:100010000C946E070C946E070C946E070C946E078C
:100020000C946E070C946E070C94471F0C94B61F2B
:100030000C946E070C946E070C946E070C946E076C
:100040000C946E070C948A220C946E070C946E0725
:100050000C946E070C946E070C946E070C94E821B8
:100060000C946E070C946E070C946E070C946E073C
:100070000C946E070C946E070C946E070C946E072C
:100080000C9432220C946E070C946E070C946E073D
:100090000C946E070C946E070C946E070C946E070C
:1000A0000C946E070C946E070C946E070010F1E42C
:1000B000FF0020E3D3E3D3C585FF00000000003E2E
:1000C0005B4F5B3E3E6B4F6B3E1C3E7C3E1C183CC8
:1000D0007E3C181C577D571C1C5E7F5E1C00183C24
:1000E0001800FFE7C3E7FF0018241800FFE7DBE76D
:1000F000FF30483A060E2629792926407F05050754
:10010000407F05253F5A3CE73C5A7F3E1C1C0808AF
:100110001C1C3E7F14227F22145F5F005F5F060974
:100120007F017F006689956A606060606094A2FFCD
:10013000A29408047E040810207E201008082A1CBF
:1001400008081C2A08081E101010100C1E0C1E0C8B
:1001500030383E3830060E3E0E060000000000002B
:10016000005F00000007000700147F147F14242A9A
:100170007F2A12231308646236495620500008076C
:100180000300001C2241000041221C002A1C7F1C8D
:100190002A08083E0808008070300008080808088F
:1001A000000060600020100804023E5149453E00F6
:1001B000427F400072494949462141494D33181454
:1001C000127F1027454545393C4A494931412111A3
:1001D00009073649494936464949291E0000140095
:1001E00000004034000000081422411414141414B8
:1001F000004122140802015909063E415D594E7C16
:100200001211127C7F494949363E414141227F41CA
:1002100041413E7F494949417F090909013E414128
:1002200051737F0808087F00417F41002040413F13
:10023000017F081422417F404040407F021C027F22
:100240007F0408107F3E4141413E7F090909063E77
:100250004151215E7F091929462649494932030146
:100260007F01033F4040403F1F2040201F3F403858
:10027000403F631408146303047804036159494D33
:1002800043007F4141410204081020004141417F69
:1002900004020102044040404040000307080020DF
:1002A000545478407F2844443838444444283844DF
:1002B00044287F385454541800087E090218A4A416
:1002C0009C787F0804047800447D40002040403D35
:1002D000007F1028440000417F40007C04780478AF
:1002E0007C080404783844444438FC182424181842
:1002F000242418FC7C08040408485454542404049E
:100300003F44243C4040207C1C2040201C3C40308A
:10031000403C44281028444C9090907C4464544CB9
:100320004400083641000000770000004136080014
:1003300002010204023C2623263C1EA1A161123ABE
:100340004040207A3854545559215555794121540B
:10035000547841215554784020545579400C1E5210
:1003600072123955555559395454545939555454B4
:10037000580000457C410002457D420001457C401B
:10038000F0292429F0F0282528F07C545545002038
:1003900054547C547C0A097F4932494949323248D5
:1003A000484832324A4848303A4141217A3A42403C
:1003B0002078009DA0A07D39444444393D40404010
:1003C0003D3C24FF2424487E4943662B2FFC2F2BE1
:1003D000FF0929F620C0887E090320545479410082
:1003E00000447D413048484A32384040227A007A01
:1003F0000A0A727D0D19317D2629292F28262929DF
:10040000292630484D402038080808080808080800
:10041000382F10C8ACBA2F102834FA00007B000027
:1004200008142A142222142A14089500220095AADE
:10043000005500AAAA55AA55AA000000FF001010F6
:1004400010FF00141414FF001010FF00FF1010F034
:1004500010F0141414FC001414F700FF0000FF0047
:10046000FF1414F404FC141417101F10101F101F95
:100470001414141F00101010F0000000001F1010C2
:1004800010101F10101010F010000000FF101010BE
:10049000101010101010FF10000000FF140000FFDB
:1004A00000FF00001F10170000FC04F414141710C4
:1004B000171414F404F40000FF00F71414141414B7
:1004C0001414F700F7141414171410101F101F142D
:1004D0001414F4141010F010F000001F101F00008E
:1004E000001F14000000FC140000F010F01010FFBA
:1004F00010FF141414FF141010101F00000000F05F
:1005000010FFFFFFFFFFF0F0F0F0F0FFFFFF000033
:10051000000000FFFF0F0F0F0F0F38444438447CDA
:100520002A2A3E147E02020606027E027E026355DD
:100530004941633844443C04407E201E2006027E2C
:10054000020299A5E7A5991C2A492A1C4C7201723E
:100550004C304A4D4D303048784830BC625A463DA8
:100560003E494949007E0101017E2A2A2A2A2A445D
:10057000445F444440514A444040444A5140000092
:10058000FF0103E080FF000008086B6B083612369D
:100590002436060F090F060000181800000010107E
:1005A000003040FF0101001F01011E00191D17123C
:1005B000003C3C3C3C000000000006011501260107
:1005C00037014A015D01720188019F01B801D20122
:1005D000EE010B022A024B026E029302BA02E402FF
:1005E00010033F037003A403DC03170455049704AE
:1005F000DD0427057505C80520067D06E0064907C8
:10060000B8072D08A9082D09B9094D0AEA0A900B67
:10061000400CFA0CC00D910E6F0F5A1053115B1263
:1006200072139A14D41520178018F519801B231DF6
:10063000DE1EB420A622B524E4263429A72B402EA2
:100640000031EA330037453ABC3D68414C456B49BF
:10065000C84D68524F57805C006210111213151676
:1006600017181A1C1D1F21232527292C2E3134373A
:100670003A3E4145494E52575C62686E757B838BAA
:10068000939CA5AFB9C4D0DCE9F7F0F89C8E8783C2
:10069000878E9CF8F00000FEFF0303030303070EA0
:1006A000FCF80000FEFF0303030303070EFCF80041
:1006B00000FFFF00000000000000FFFF0000FEFF41
:1006C0008383838383C7EE7C380000F8FC0E070326
:1006D0000303070EFCF800003F7FE0C08080C0E00D
:1006E0007F3FFFFF01010101010101FFFF0000FF4A
:1006F000FF0C0C0C0C1C3E77E3C100007FFFC0C058
:10070000C0C0C0E0703F1F00001F3F70E0C0C0C00D
:10071000E0703F1F00007FFFC1C1C1C1C1E3773E50
:100720001C00001F3F70E0C0C0C0E0703F1F000011
:1007300000000001FFFF01000000D5F08D14A1C8EA
:1007400081CFD9F1AF200014021302120215020763
:1007500002080204010C010601004F6666004F6E9C
:1007600000536F756E643A2000536565643A20202B
:100770000000808040404080802040F84020000001
:10078000000000000000000000C080F080C00000F9
:10079000C23E02020282020202030181010101FF44
:1007A0000000000000C00E312045444524310E03F6
:1007B0000000008000C00080000000000000000079
:1007C00003060818107FC000000000404040404071
:1007D00000000000877810101C070000000000F8DF
:1007E0008C868B838B868CF809090F010100000031
:1007F00000000000000000000000000FF08080807A
:10080000808080000000000000FF00000000000069
:1008100000000000000003000000030000000000D2
:1008200000000000000000000000000000000000C8
:100830000000001E0100000001011F010101010074
:100840000000000000806010080C06020381416176
:1008500021E10101010F060E0830C0602020202098
:10086000202020206040C08080C0202020C00000C8
:10087000000000C06020C0800080C0404040404078
:10088000C080C04040C00000000080808080800E9A
:100890001A32E2C65C700000000000000000000098
:1008A0000000000000030C102060C0800F1D3820E5
:1008B0007867C0C08080808080C0611F0000806039
:1008C000202020E00000000107FC00000007FC8061
:1008D0000080C07F000000FF0F1910180C040CF8F6
:1008E000000103FF60010306F213111010302123F1
:1008F000FEA30101071CFC860283C1414141C306DE
:100900000C1830C0000000F01808040F0A1E346CE8
:10091000683800000000000103060C18E000030620
:100920000404060300008080E03F60404080808136
:1009300081818000000000FF03017949494949395C
:10094000000000FF70C000040FF80000000000006D
:100950000007F8800080F8CF8083060C08080D0798
:1009600000000001FF0000010306040C081810102D
:10097000101010101010101010180C0307040C08A1
:100980000808080C0C181010111E000000000000D0
:1009900000000102040C0C07010202020202010124
:1009A000030E08090F0707040701000000000000FC
:1009B0000000000302030000000101010103020224
:1009C00002030101017B009300AF00DC002601B8A7
:1009D000014B02170455049704DD0427052E084E29
:1009E0000AB707904000E38000E3904000E38000F6
:1009F000E3903E038D80903E00E38000E3903E0054
:100A0000E38000E3903D038D80903E00E38000E3AF
:100A1000903E00E38000E3903D038D80903D00E335
:100A20008000E3903D00E38000E3903B038D80F085
:100A3000902F0055800055902D00AA8000AA902F7D
:100A400000AA800154903D00AA8000AA903D00AA0F
:100A500080903D00AA80903D00AA80903D00AA8031
:100A6000903E00AA80903B015480F0902F00AA8015
:100A700000AA902F00AA80903600AA8000AA903683
:100A800000AA80903200AA8000AA903200AA80902A
:100A90003400AA8000AA903400AA80903400AA8072
:100AA00000AA903400AA8000AAF0546F74616C0010
:100AB0002B446973742E0053636F726500FF8000CE
:100AC0003FC3FC07F80080FFFFE04207FC0FF08007
:100AD00083002042044C08108083002442044C8888
:100AE000108FF3002442644C881089032320426451
:100AF0004C09908903232042644C099089032320E8
:100B000042644C09F089132321C2644C39008913D3
:100B10002327C2040CF9008103232042040C09009E
:100B20008103232042060C0900FFFFFFFFC3FDF7EE
:100B3000FF000000000000000000000020D1C1B153
:100B4000A3D1C1B1A1FF001021113121FF0010C1BB
:100B5000B1A191FF0810010100000001FE02020294
:100B6000020202FE1F10F010F010101FFEFEFEFE2B
:100B7000FEFEFEFE9F1FFF1FFF1F1F9F08080101B3
:100B800000000001003EE222E2223E0000BEFE3EE6
:100B9000FE3EBE0000404141515161617171FF084C
:100BA000080101020101011824EAA1A9F224181880
:100BB0003CFEFFFFFE3C18484947482053434F5234
:100BC0004500484947482053434F524553000000D1
:100BD0000000240027002A002D0030000000000241
:100BE00000090F0000030401000C000000000000D9
:100BF0000000000000000000000000080B000202DE
:100C00000200000904000001020200000524001097
:100C10000105240101010424020605240600010740
:100C200005810310004009040100020A00000007CA
:100C3000050202400000070583024000000403098A
:100C40000412010002EF020140412337800001013C
:100C500002030141726475696E6F204C4C43004180
:100C6000726475696E6F204D6963726F00101001B8
:100C7000010302000100000000008050280601412D
:100C8000E222140C08804070282512080E0601018B
:100C90000000000000000000000080D0E8FEFF7FA0
:100CA000FE3E1C0C08804070383D1F0F0F070101ED
:100CB00000000000000808010102020F0184EC7C22
:100CC0003F3F7CEC8484EC7C3F3F7CEC8408080153
:100CD00001020201013C4281A9A1A9423C3C7EFFE4
:100CE000FFFFFF7E3C08080101020103014070CCB8
:100CF00043C24C70400038FE3FFF3E38000000FF0A
:100D000000FF00000081818181818181FFFF81815D
:100D1000BF8181818181818181818181FFFF818189
:100D2000FD81818181FF81A58181A581FFFF818571
:100D3000B5959D81FF0000000000FF0000FFA9A9FC
:100D4000B9A9EFA9FFFFFFFFFFFFFFFFFF0014009E
:100D500014001400144000400040005480448044BB
:100D6000804480440044004400540040004000405F
:100D7000004050A050A055A051A0552000200020B8
:100D80005502410241024102550210021002950033
:100D900090009000100015150010001000100015B4
:100DA00000100010001500100010001000150000C9
:100DB000000000AA008000AA00000000040404044F
:100DC000040404FC20202020F80808080808E8286B
:100DD0003820203E2222E20202FE2020202020E0B5
:100DE000000000C0404040784FC90909090F0808B9
:100DF0000808F820202020F808080CFC000000005B
:100E00000000001F000000001F00000000000F0095
:100E10000000000000000F0000000000000000FFC4
:100E200001010101FF000000003F00000000000080
:100E3000000007000000003F0000001F040802013E
:100E40001040804010204080408008020401804013
:100E500020100201108010204040200000000025DA
:100E60000028002B002E00310004040404040304B5
:100E70000502020202040302020202060606060638
:100E800006040402020204040301F52211241FBE19
:100E9000CFEFDAE0DEBFCDBF11E0A0E0B1E0E6E1E8
:100EA000F7E602C005900D92AE34B107D9F728E0FD
:100EB000AEE4B1E001C01D92A631B207E1F717E040
:100EC000C6E4D7E004C02197FE010E949230C534E9
:100ED000D107C9F70E9484230C9489330C94000035
:100EE0004F925F926F927F928F929F92AF92BF923A
:100EF000CF92DF92EF92FF92CF93DF93EC014A0102
:100F00005B0181E08093B001712C612C60E072E1A3
:100F10008AE790E0A3019E010E941B3069017A01DB
:100F200081E0C81AD108E108F10891E0C114D104A8
:100F300081E0E806F10484F068E478EE81E090E076
:100F4000A3019E010E941B3069017A0181E0C81A49
:100F5000D108E108F10893E080918100887F892B16
:100F6000809381002FEF3FEFA90181149104A10428
:100F7000B10469F0DE01AA0FBB1FA50194010E9414
:100F80003A3028EE33E040E050E00E944D30D092FD
:100F90008900C09288002093AC013093AD0140934A
:100FA000AE015093AF0180916F00826080936F001B
:100FB000DF91CF91FF90EF90DF90CF90BF90AF90F7
:100FC0009F908F907F906F905F904F90089580E1F9
:100FD00094E020E0B22FB111BFEFFC010024B193E7
:100FE000B193B193B1930394D1F708952FB7F894C7
:100FF0008091A1019091A201A091A301B091A401BF
:101000002FBF8093F8039093F903A093FA03B09352
:10101000FB0308950F931F938FB7F8940091A101DC
:101020001091A2012091A3013091A4018FBF4091A2
:10103000F8035091F9036091FA037091FB03485350
:101040005F4F6F4F7F4F81E0401751076207730773
:1010500008F080E01F910F910895CF93DF9357FD23
:1010600019C0EAE3F3E030E020E0A081B1816A1723
:101070007B07A9F5A281B3814A175B0781F595E04B
:10108000929FF001939FF00D1124E25CFC4F908140
:10109000911122C02091D0033091D10395E0929F0D
:1010A000F001939FF00D1124DF01AF5FBD4FED0103
:1010B000C75CDE4F79836883A55CBE4F4D935C931C
:1010C000E25CFC4F80832F5F3F4F2E31310579F07A
:1010D0003093D1032093D003DF91CF9108952F5FF8
:1010E0003F4F35962E31310509F0BFCFD3CF109247
:1010F000D1031092D003F0CFEF92FF920F931F9382
:10110000CF93DF938C01EB01AB01BC018BE00E941C
:101110002D0878018FEFE81AF80AAE01B7018CE0CC
:101120000E942D08CF5FD0E0C03160F4AE01B8015D
:101130008FE00E942D08AE01B70180E10E942D08CA
:101140002196F2CFDF91CF911F910F91FF90EF90F9
:101150000895CF92DF92EF92FF920F931F93CF9358
:10116000DF938C01EB016B018FEFC81AD80AA6013F
:10117000B8018DE00E942D0878018FEFE81AF80A77
:10118000A601B7018EE00E942D08AE01B8018FE0E4
:101190000E942D08AE01B70180E1DF91CF911F9130
:1011A0000F91FF90EF90DF90CF900C942D08FC01F1
:1011B00080919001882311F13FB7F89482E08093E9
:1011C000E9002091F200822F90E01816190614F41D
:1011D00081E090E0882339F0289A44E640938F011B
:1011E0004091F1004083222339F02091F200211137
:1011F00003C02BE62093E8003FBF08958FEF9FEFD9
:1012000008952FB7F89483E08093E9009091E80067
:10121000892F807295FF04C09091F20080E4891BB1
:101220002FBF08958091870181110DC082E08093C6
:10123000830184E0809384011092860110928501DD
:1012400081E08093870183E891E00895CF93DF9355
:101250001F92CDB7DEB76983DC01ED91FC9102806E
:10126000F381E02D41E050E0BE016F5F7F4F0995B3
:101270000F90DF91CF91089583E08093E9008091F2
:10128000F200882319F08AE38093E80008950E9411
:10129000010990E00895CF93DF931F92CDB7DEB799
:1012A000FC018485958597FD08C02FEF3FEF3587BA
:1012B00024870F90DF91CF910895CE0101960E946F
:1012C000D708019719F4898190E0F3CF8FEF9FEF52
:1012D000F0CF0F931F93CF93DF931F92CDB7DEB75D
:1012E0008C01FC018485958597FF0BC0CE0101968A
:1012F0000E94D708019771F4898190E0F8019587E1
:101300008487F801848595850F90DF91CF911F9197
:101310000F9108958FEF9FEFF1CFFC0184859585A4
:1013200097FD0BC09FB7F89482E08093E90080910D
:10133000F2009FBF90E0019608959FB7F89482E075
:101340008093E9008091F2009FBF90E00895409162
:101350007D0150917E0120917B0130917C014217EB
:101360005307B4F49091E8009570E1F39091E80090
:1013700092FD19C08093F10080917D0190917E01D2
:1013800001968F739927892B19F48EEF8093E800CB
:1013900080917D0190917E01019690937E018093D2
:1013A0007D0181E0089580E00895EF92FF920F9310
:1013B0001F93CF93DF93F82E192FE62E042F81E091
:1013C000860F880F0E94A70983E00E94A709CF2DEE
:1013D000D12FEC0EFD2EF11CCE15DF05B9F007FF65
:1013E00013C0FE0184910E94A709182F80E00E947B
:1013F000A709812321968111EFCFDF91CF911F9112
:101400000F91FF90EF9008958881EDCF81E0F5CFA7
:10141000DF92EF92FF920F931F93CF93DF93D82E1B
:101420008A01EB017B01E40EF51ECE15DF0559F0B4
:10143000D7FE12C0FE0184910E94A7092196811156
:10144000F4CF0FEF1FEFC801DF91CF911F910F91E4
:10145000FF90EF90DF9008958881EECF0F931F9358
:10146000CF93DF931F92CDB7DEB782E0898342E44A
:1014700050E06BEF7BE080E80E94080A0E941209AE
:10148000DC0112960D911C910115110589F0D8010E
:10149000ED91FC910280F381E02DBE016F5F7F4FE3
:1014A000C801099597FD04C0F80100851185ECCFAE
:1014B00089810F90DF91CF911F910F910895615015
:1014C00030F02091F100FC0120830196F8CF289A9A
:1014D00084E680938F010895282F30E0F901E452CB
:1014E000F44F9491F901E45CF14F84912759314F05
:1014F000F9012491222309F430C09923E9F0915095
:101500009F30D0F4E92FF0E0E857F54F0C9492307B
:10151000B60ABA0A970AAE0AB20A9C0A9C0A9C0A40
:10152000BD0AC30AC70ACB0AD10A9C0AD50A909100
:1015300080009F7790938000E22FF0E0EE0FFF1F76
:10154000E55AF14FA591B4919FB7F894EC916111D0
:1015500032C080958E238C939FBF08959091800018
:101560009F7DE8CF90918000977FE4CF94B59F77DF
:1015700094BDE2CF94B59F7DFBCF909190009F7773
:1015800090939000D9CF909190009F7DF9CF90914A
:101590009000977FF5CF9091C0009F779093C00007
:1015A000CBCF9091C0009F7DF9CF9091C200977FE3
:1015B0009093C200C1CF8E2BCECFCF93DF9390E01C
:1015C000FC01E45CF14F24918759914FFC01849117
:1015D0008823C9F090E0880F991FFC01E253F44F73
:1015E000A591B491FC01E55AF14FC591D4916111D7
:1015F0000DC09FB7F8948C91209582238C9388819D
:10160000282328839FBFDF91CF910895623051F442
:101610009FB7F8943C91822F809583238C93E88127
:101620002E2BEFCF8FB7F894EC912E2B2C938FBFEE
:10163000EACF1F93CF93DF93182FEB0161E00E9455
:10164000DD0A209739F460E0812FDF91CF911F915F
:101650000C946C0ACF3FD10511F461E0F5CFE12F76
:10166000F0E0E452F44FE491E150EF3008F07FC035
:10167000F0E0E35CF44F0C9492304C0B540B590B9C
:10168000630B6D0BB70BB70BB70B770B810B8B0B8A
:10169000950BA20BB70BAA0B84B5806884BDC7BDA0
:1016A000DF91CF911F91089584B5806284BDC8BD3C
:1016B000F7CF80918000806880938000D09389006C
:1016C000C0938800EDCF809180008062809380007D
:1016D000D0938B00C0938A00E3CF80918000886014
:1016E00080938000D0938D00C0938C00D9CF8091DF
:1016F0009000806880939000D0939900C0939800E8
:10170000CFCF80919000806280939000D0939B0017
:10171000C0939A00C5CF809190008860809390001C
:10172000D0939D00C0939C00BBCF8091C000806887
:101730008093C0008091C0008F7B8093C000C093D5
:10174000CF00AECF8091C00080628093C000C09374
:10175000D000A6CF8091C20088608093C2008091A3
:10176000C2008B7F8093C200C093D20099CFC03853
:10177000D1050CF072CF67CF3FB7F8948091770115
:1017800090917801A0917901B0917A0126B5A89B3A
:1017900005C02F3F19F00196A11DB11D3FBFBA2F03
:1017A000A92F982F8827BC01CD01620F711D811DC3
:1017B000911D42E0660F771F881F991F4A95D1F748
:1017C00008958F929F92AF92BF92CF92DF92EF9245
:1017D000FF924B015C010E94BC0B6B017C010E94DB
:1017E000BC0B6C197D098E099F09683E7340810509
:1017F0009105A8F321E0821A9108A108B10888EEAA
:10180000C80E83E0D81EE11CF11C81149104A104D0
:10181000B10429F7FF90EF90DF90CF90BF90AF9089
:101820009F908F9008958F929F92AF92BF92CF9288
:10183000DF92EF92FF920F931F93CF93DF936C0190
:101840007B018A0180910F01882309F45CC080919B
:101850009001882309F457C08091820180FF05C060
:101860008091E00082608093E000E801B12C8AEF73
:10187000A82E93E0892E2AE3922E209711F4BB2004
:10188000D9F10E94010981110AC0AA94AA20D9F1B4
:1018900061E070E080E090E00E94E10BEECF8C17F9
:1018A0001D0611F00CF08C2F9FB7F8948092E90080
:1018B0002091E80025FD02C09FBFDFCF282F30E038
:1018C000C21BD30BF701815020F041914093F100EE
:1018D000FACFE20EF31EBB2021F09092E800B12C6B
:1018E000EBCF8091E80085FDE7CF9092E800BB2424
:1018F000B394209709F3F3CF5D9A84E68093810136
:10190000101611063CF081E090E0F601938382838B
:1019100010E000E0C801DF91CF911F910F91FF907F
:10192000EF90DF90CF90BF90AF909F908F900895F1
:10193000EF92FF920F931F93CF93DF938C017B0164
:10194000D0E0C0E0F701EC0FFD1F6491662361F069
:10195000D801ED91FC910190F081E02DC80109952D
:10196000892B11F02196EECFCE01DF91CF911F91FF
:101970000F91FF90EF900895AF92BF92CF92DF92B8
:10198000EF92FF920F931F93CF93DF936C017B0134
:101990008B01040F151FEB015E01AE18BF08C017C5
:1019A000D10759F06991D601ED91FC910190F08138
:1019B000E02DC6010995892B79F7C501DF91CF91FB
:1019C0001F910F91FF90EF90DF90CF90BF90AF905D
:1019D00008954FB18CB123B190E08095909533E09C
:1019E000959587953A95E1F7887030E02095309588
:1019F00035952795359527952470822B942F9095B2
:101A0000907F892B0895FC0121912EBD9C5F21912F
:101A10000DB407FEFDCF2EBDE817F907C1F70DB4D1
:101A200007FEFDCF0895CF92DF92EF92FF920F93C2
:101A30001F93CF93E82FF0E0E857F14FC491E62FC2
:101A4000F0E0603398F5E65AF94FE4910E2F10E07C
:101A5000F12CE12C60E074E284EF90E0A7019801A2
:101A60000E941B30215031094109510991E0211593
:101A7000310581E0480751056CF060E970ED83E0C5
:101A800090E0A70198010E941B30215031094109C3
:101A9000510993E0C13089F0C330F9F0CF911F9123
:101AA0000F91FF90EF90DF90CF900895EE0FFF1F02
:101AB000E65AFA4F05911491CBCF80918100887F2F
:101AC000892B809381003093890020938800809136
:101AD0006F00826080936F00E1CF80919100887FDA
:101AE000892B809391003093990020939800109354
:101AF00054010093530181E0809352018091710061
:101B0000826080937100CACFE82FF0E0E857F14F70
:101B1000E491E13019F0E33089F0089580916F008D
:101B20008D7F80936F008091A801E091A901F091D1
:101B3000AA01908180958923808308951092520193
:101B40008091A501E091A601F091A701F2CFCF937A
:101B5000DF939091AB01923081F0C82FE92FF0E034
:101B6000E857F14FD4919F5F9093AB0161E00E94E1
:101B7000DD0AD13029F0D33049F1DF91CF910895BA
:101B80001092800010928100809181008860809383
:101B90008100809181008160809381008C2F90E092
:101BA000FC01E759F14FE491F0E0EE0FFF1FE55A19
:101BB000F14F259134913093AA012093A901845CBF
:101BC000914FFC0184918093A801D7CF109290008F
:101BD0001092910080919100886080939100809193
:101BE00091008160809391008C2F90E0FC01E75977
:101BF000F14FE491F0E0EE0FFF1FE55AF14F259110
:101C000034913093A7012093A601845C914FFC018D
:101C100084918093A5018091AB01882321F06CE32E
:101C200080E00E94130D80E0DF91CF910C94840D31
:101C3000E0915C01F0915D01BF016F5F7F4F709398
:101C40005D0160935C012491922F907F822F8F70B1
:101C5000903819F40E94840DEBCF903981F43296BC
:101C6000F0935D01E0935C01FB0164919091AB0105
:101C70008917F0F667FDDCCF0E94130DD9CF903E97
:101C800049F480915E0190915F0190935D01809392
:101C90005C01CECF903F19F410926C01089597FD2E
:101CA000C7CF3296F0935D01E0935C01FB01649134
:101CB000A0915301B0915401322F262F0E946F3012
:101CC0006C507E4F8F4F9F4F28EE33E040E050E046
:101CD0000E944D3020934E0130934F0140935001AC
:101CE0005093510180914E0190914F01A09150016C
:101CF000B0915101892B8A2B8B2B61F481E090E00C
:101D0000A0E0B0E080934E0190934F01A09350016A
:101D1000B093510108955F926F927F928F929F923C
:101D2000AF92BF92CF92DF92EF92FF920F931F93E9
:101D3000CF93DF9310E0F801E60FF71FF7FDBFC068
:101D4000603871050CF0BBC0FA01EE0DF11DF7FD16
:101D5000B6C0403451050CF0B2C0DA0157FF04C0E0
:101D6000AA27BB27A41BB50BA770BB27FA0157FDF9
:101D70003796D3E0F595E795DA95E1F757FF07C079
:101D8000319748E050E0EA01CA1BDB0BDE016E2C04
:101D9000669466946694712CDE2DD77019F04FEF1F
:101DA000641A740AAF01F695FE2FEE27F795E795B2
:101DB000E60FF71F8E0F9F1FE901640E751E28E0C6
:101DC00030E07901EA1AFB0A4615570509F477C095
:101DD0004830510509F473C04F3FEFEF5E070CF434
:101DE00063C030E020E04C01F0E88F0E911C20171A
:101DF00031070CF059C0F901E60FF71FE038F10583
:101E00000CF052C0F7FD35C04F3F540709F453C0E2
:101E10005C01A20EB31EF501D488F901EC0FFD1F81
:101E200055245394C51028C0E4910A2E01C0EE0F2A
:101E30000A94EAF7DE2AF501D48A1097D1F04730E8
:101E40005105B9F05401A20EB31EF501D488F90171
:101E5000EC0FFD1F55245394C5101AC0E491F0E017
:101E60000E2C02C0F595E7950A94E2F7DE2AF501FB
:101E7000D48A2F5F3F4FBBCFE491F0E00A2E02C01F
:101E8000EE0FFF1F0A94E2F7E095F095DE22D3CF24
:101E9000E491F0E00E2C02C0F595E7950A94E2F784
:101EA000E095F095DE22E3CF4F5F5F4F80589F4F64
:101EB000C00FD11F89CF109709F0C4CFDACFDF91BF
:101EC000CF911F910F91FF90EF90DF90CF90BF9037
:101ED000AF909F908F907F906F905F9008952F921A
:101EE0003F924F925F926F927F928F929F92AF92AA
:101EF000BF92CF92EF920F931F93CF93DF93CDB703
:101F0000DEB728970FB6F894DEBF0FBECDBF809125
:101F1000ED039091EE036CE070E00E947E307A83D6
:101F200069838091E80380FF0EC18091EB0390915B
:101F3000EC0397FD0396959587959595879530E4E5
:101F4000A32EB12CB5010E947E304C0129813A812B
:101F5000245031093A83298366277727681B790B38
:101F6000CC24C39440E1E42E00E42CEB3DE0498115
:101F70005A8180910702909108020E948B0EB50150
:101F8000681979092CEB3DE049815A81809107025B
:101F9000909108020E948B0E60E870E06819790940
:101FA0002CEB3DE049815A81809107029091080213
:101FB0000E948B0EA090EB03B090EC03B7FE03C021
:101FC00057E0A50EB11CE3E0B594A794EA95E1F7BC
:101FD0003501F3E0660C771CFA95E1F78091EB038D
:101FE0009091EC0397FD079673E0959587957A9508
:101FF000E1F740968A159B050CF480C16091ED03D2
:102000007091EE037A83698377FF04C0695F7F4F25
:102010007A83698389819A8163E0959587956A952A
:10202000E1F798878F83C501B7FC0F9614E095956B
:1020300087951A95E1F763E070E00E947E309C017D
:10204000C50160E170E00E947E30880F991FEF812A
:10205000F88543E0EE0FFF1F4A95E1F7FA83E98325
:10206000512C412C55E0220F331F5A95E1F728528D
:102070003D4FA901480F591FBA016D5F7F4F7C8307
:102080006B83CA0102969E838D838091ED039091AC
:10209000EE039C0197FF02C0295F3F4FB3E03595E7
:1020A0002795BA95E1F7285F3F4FEF81F8852E1706
:1020B0003F070CF41CC1E131F1050CF087C03897E3
:1020C0000CF070C041E050E00F8002C0440F551F7B
:1020D0000A94E2F7ED81FE812081242309F472C085
:1020E00089809A80840C951CA401481B590B80910F
:1020F000EB039091EC03B301681B790BC12CA8E0B2
:10210000EA2E08E025E43DE0809107029091080264
:102110000E948B0E8091ED039091EE03A401481B69
:10212000590B8091EB039091EC03B301681B790B81
:10213000CC24C3942DE33DE08091070290910802E6
:102140000E948B0EA8C010E049815A81405F5F4F0A
:102150005A83498300E6A02EB12C212F30E08091D4
:10216000EB039091EC0397FD0396959587959595D4
:102170008795B5010E947E30B901681B790BCC248C
:10218000C394B8E1EB2E05E22DE43DE049815A818C
:1021900080910702909108020E948B0E105A103E07
:1021A000E1F608CF4F8158854850510921E030E0D1
:1021B000B90102C0660F771F4A95E2F7AB01EB81C8
:1021C000FC818ACF2F81388537FD65C0EAE3F3E0D3
:1021D00030E020E040815181A416B50609F054C0DA
:1021E000428153816F8178856417750709F04CC06F
:1021F00045E0429FF001439FF00D1124E25CFC4F4B
:10220000E081E750EA3008F046C0F0E0E65FFE4EBD
:102210000C9492301411721114114B115411591164
:102220005E11631168116D11FDE28F2EFDE09F2E8E
:1022300029803A80240C351CA101481B590B809140
:10224000EB039091EC03B301681B790BC12C88E080
:10225000E82E08E025E43DE0809107029091080215
:102260000E948B0E8091ED039091EE03A101481B1B
:10227000590B8091EB039091EC03B301681B790B30
:10228000CC24C394940158CF2F5F3F4F35962E3105
:10229000310509F09FCF8F819885019698878F83AC
:1022A00098E0490E511CF1CEEDE18E2EEDE09E2E10
:1022B000BFCF75E1872E7DE0972EBACF6DE0862ED9
:1022C0006DE0962EB5CF55E0852E5DE0952EB0CF12
:1022D0004DEF842E4CE0942EABCF35E3832E3DE0C2
:1022E000932EA6CF25E2822E2DE0922EA1CFEFEFE6
:1022F000AE1ABE0AF8E06F0E711C70CE28960FB6AB
:10230000F894DEBF0FBECDBFDF91CF911F910F912B
:10231000EF90CF90BF90AF909F908F907F906F90F5
:102320005F904F903F902F90089560387105E8F4CA
:1023300040345105D0F4342F369536953695A0E8C3
:102340003A9FF0011124E60FF71FE80FF91F3489B7
:10235000CA018770992741E050E001C0440F8A9577
:10236000EAF7222319F0432B448B08954095432329
:10237000FBCF2F923F924F925F926F927F928F92FC
:102380009F92AF92BF92CF92DF92EF92FF920F9304
:102390001F93CF93DF9300D01F92CDB7DEB79B83FF
:1023A0008A837B016A0109838901061B170B17FFCA
:1023B00003C011950195110956018A819B81A81AC4
:1023C000B90AB7FE03C0B194A194B108A016B10632
:1023D0005CF49C2D8D2D6901292F382F9A818B81DA
:1023E000FB82EA82E92EF82E8A819B81C816D906E3
:1023F0005CF49E2D8F2D7901292F382F9A818B81A6
:10240000DB82CA82C92ED82E16018A819B81281AA6
:10241000390A29014E185F0857FE03C051944194B0
:102420005108310137FE03C09FEF691A790A75948C
:1024300067948FEFE216F3060CF481E0882E880F84
:1024400099088A819B81C816D906DCF02981AC01E4
:10245000B701A016B1061CF0A7016A817B818CEF41
:1024600093E00E9495116418750877FE04C0E80C8B
:10247000F91C620C731C8A819B8101969B838A8361
:10248000E0CF0F900F900F90DF91CF911F910F91A0
:10249000FF90EF90DF90CF90BF90AF909F908F9084
:1024A0007F906F905F904F903F902F9008958F9204
:1024B0009F92AF92BF92DF92EF92FF920F931F9382
:1024C000CF93DF93D12CAD2CB12C8091DE03909172
:1024D000DF03A816B9060CF072C080900702909036
:1024E0000802AA0CBB1C0091110210911202055F98
:1024F0001F4F0A191B098091ED039091EE03081BF1
:10250000190BC0910F02D091100221968091EB031C
:102510009091EC03C81BD90B7E0126E0E20EF11C62
:10252000D7FF02C0D0E0C0E0C70121E8E216F10405
:1025300014F080E890E0C817D90744F421E0A8011E
:10254000BE01C4010E9495112196EECFE0900702D2
:10255000F09008020091110210911202065F1F4FC5
:102560000A191B098091ED039091EE03081B190BCA
:10257000C0910F02D091100221968091EB039091AF
:10258000EC03C81BD90B5E0186E0A80EB11CD7FF77
:1025900002C0D0E0C0E0C50121E8A216B10414F0E9
:1025A00080E890E0C817D90744F421E0A801BE01F3
:1025B000C7010E9495112196EECFD39484CFDF916D
:1025C000CF911F910F91FF90EF90DF90BF90AF9050
:1025D0009F908F9008952F923F924F925F926F92AB
:1025E0007F928F929F92AF92BF92CF92DF92EF92A3
:1025F000FF920F931F93CF93DF93CDB7DEB72D9745
:102600000FB6F894DEBF0FBECDBF6A3069F5FC018E
:10261000EA5EFB4FDC01A85EBB4F2C9148E0249F93
:102620009001112440815181240F351F3183208373
:1026300014971D921C922D960FB6F894DEBF0FBE14
:10264000CDBFDF91CF911F910F91FF90EF90DF9061
:10265000CF90BF90AF909F908F907F906F905F9042
:102660004F903F902F9008956D3029F39D878C8770
:102670008C5E9B4F9A838983FC01808091802C859E
:102680003D85285E3B4F3C832B8330E883169104C5
:102690000CF071C0EC85FD85EA5EFB4F60807180B7
:1026A00040E4641671040CF066C0AB81BC814C90B0
:1026B00045E09401449E200D311D1124121613068D
:1026C0000CF059C0242C312C910153E0220F331F00
:1026D0005A95E1F7260D371D121613060CF04BC064
:1026E000649FB001112410E000E0FB01E654FF4FAD
:1026F000FB87EA87E0E0053029F0EA85FB85E00FFB
:10270000F11FE491530198E0592E2E2F30E03E83C3
:102710002D83E170EF83F12CE12CE414D8F4C40193
:102720008E0D9F1D99878887D12CC12CC41470F4FD
:10273000A6014A0D5B1D2F81688579858C859D8555
:102740000E9495119FEFC91AD90AF0CFAFEFEA1A8C
:10275000FA0AE3CFED81FE81F595E7955A94A20C34
:10276000B31C5110D2CF0F5F1F4F820C931C063049
:10277000110509F0BFCFEB81FC812081422F50E091
:10278000A981BA818D919C91B6E02B9F800D911DFE
:102790001124E981FA8191838083EC85FD85E75ED0
:1027A000FB4F2081222309F446CF6AEF6403900196
:1027B000659F300D112420583F4F281739070CF022
:1027C0003ACFAC85BD85ED91FC9111970190F081D8
:1027D000E02D6AE0CD012D960FB6F894DEBF0FBE56
:1027E000CDBFDF91CF911F910F91FF90EF90DF90C0
:1027F000CF90BF90AF909F908F907F906F905F90A1
:102800004F903F902F900994089590E080E00895B4
:10281000DC011496ED91FC911597E49116968D913B
:102820009C918E0F911D01970895EF92FF920F9347
:102830001F93CF93DF93EB0177FD2796F3E0D595B8
:10284000C795FA95E1F79A0157FF02C0295F3F4FFC
:10285000E3E035952795EA95E1F7FC0102811381C4
:10286000213131058CF577FF02C061587F4FCB01D4
:10287000880F892F881F990B63E070E00E947E30DB
:102880007C01CE0160E170E00E947E30880F991FCC
:10289000F801E952FF4FA70165E0440F551F6A9503
:1028A000E1F7283031058CF561E070E0022E01C0BF
:1028B000660F0A94EAF7E40FF51FE80FF91F82810B
:1028C0008623C1F537FD34C0F801E75CFE4F90E088
:1028D00080E040815181C417D50729F54281538199
:1028E0002417350701F525E0289FF001299FF00DF9
:1028F0001124E00FF11FE35CFE4F8081DF91CF9147
:102900001F910F91FF90EF900895D901189761E002
:1029100070E001C0660FAA95EAF7E40FF51FE80F13
:10292000F91F8381CDCF019635968E31910589F6B9
:1029300080E0E4CF8FEFE2CFDC011496ED91FC91C3
:10294000319684910895CF93DF93FC01C085D185A2
:102950000E949C148C0F9D2F911D0197DF91CF91A8
:1029600008950F931F93CF93DF9320910F0230911F
:1029700010028217930714F420E018C0EB018C01B9
:1029800089E092E00E94081480179107ACF38091CF
:10299000110290911202C817D90774F389E092E0EE
:1029A0000E94A31421E08C179D0734F3822FDF913E
:1029B000CF911F910F910895AF92BF92CF92DF9266
:1029C000EF92FF920F931F93CF93DF93EC01A62E0C
:1029D000F12CE12CB12CEC81FD81E491E695E6959A
:1029E000E695BE1608F04CC00885198581E0A8164A
:1029F00049F101501109CE80DF80B6016E0D7F1DB7
:102A0000A801CE010E941514882361F081E0DF91B6
:102A1000CF911F910F91FF90EF90DF90CF90BF90DB
:102A2000AF900895B6016E0D7F1D695F7F4FA801BD
:102A3000CE010E9415148111E9CFB39488E0E80E0D
:102A4000F11CC9CFCE010E949C14A801480F511D52
:102A50006E817F816E0D7F1DCE010E941514811144
:102A6000D5CF08851985CE010E949C14A801480F76
:102A7000511D6E817F816E0D7F1D695F7F4FD8CFA5
:102A800080E0C5CFCF93DF93EC0161E00E94DC14BE
:102A9000882321F028EF3FEF3D872C87DF91CF91EE
:102AA00008958F929F92AF92BF92CF92DF92EF9252
:102AB000FF920F931F93CF93DF93EC01862E08E0D4
:102AC00010E0912CCE010E949C14869586958695E7
:102AD000981608F049C082E0881639F0E3E08E16B7
:102AE00019F19394085F1F4FEDCFE884F984CE80ED
:102AF000DF80F1E0CF1AD108A801485051094E0DEE
:102B00005F1DB601CE010E94151481110BC0A801F2
:102B10004E0D5F1D41505109B601CE010E941514A2
:102B20008823F9F281E021C0C884D984AE80BF80B7
:102B3000EC80FD80F7016491A801485051094C0DCB
:102B40005D1D6A0D7B2D711DCE010E941514811132
:102B5000E9CFF7016491A8014C0D5D1D4150510969
:102B60006A0D7B2D711DD9CF80E0DF91CF911F9130
:102B70000F91FF90EF90DF90CF90BF90AF909F901C
:102B80008F900895EF92FF920F931F93CF93DF934F
:102B9000EC01EC81FD813496E4914C855D85E0FF8C
:102BA00015C02E813F818A859B85280F391F3F8361
:102BB0002E8388859985840F951F99878887DF9153
:102BC000CF911F910F91FF90EF900895452B69F4DD
:102BD00061E00E94DC14811108C08C859D858630DF
:102BE00091051CF401969D878C878C859D85181610
:102BF0001906FCF410E000E08C859D850817190784
:102C000084F461E0CE010E94DC14811108C0888543
:102C100099850196998788870F5F1F4FEDCF1D8695
:102C20001C868C859D85863091051CF401969D87B8
:102C30008C878C859D8597FFABC001969D878C877F
:102C400010E000E08C859D85801791070CF0A0C0F6
:102C500060E0CE010E94DC14882309F4C6C0EC8138
:102C6000FD813496E491E1FD91C0088519850150FC
:102C700011096E817F81A801CE010E9415148D304B
:102C800021F5CE010E940814A801BC01CE010E94CA
:102C900015148E30D1F48E819F81803491050CF40F
:102CA00075C0EA81FB81EF50FE4F8BE39BE091837F
:102CB0008083EA81FB81E251FE4F84E08083EA81D8
:102CC000FB81E151FE4F1182108208851985015068
:102CD00011096E817F81A801CE010E941514F82E82
:102CE000CE010E940814A801BC01CE010E94151457
:102CF000182F27E0F21619F089E0F8121FC0888516
:102D00009985AC014150510957FF02C0495F5F4F9F
:102D1000F3E055954795FA95E1F76E817F8177FF4E
:102D200002C0695F7F4FE3E075956795EA95E1F72B
:102D30008A819B8189529F4F0E94EE18173011F0B3
:102D4000193021F50A811B8109521F4F8885998509
:102D50007C0121E0E21AF108F7FE04C07C0126E0C4
:102D6000E20EF11C63E0F594E7946A95E1F7CE0179
:102D70000E94081497FD0796BC0153E0759567956E
:102D80005A95E1F7A701C8010E94EE181D861C861E
:102D90008A859B851816190684F510E000E08A855F
:102DA0009B85081719074CF5CE010E940814EA818B
:102DB000FB81EB52FE4F208131812F5F3F4F3695D3
:102DC000322F22273795279582179307B4F463E0B3
:102DD000CE010E945115811110C08E819F810196F4
:102DE0009F838E830F5F1F4FDACF88859985019768
:102DF000998788870150110925CF8A859B8597FF80
:102E0000DECE10E000E08A859B85801791070CF0EC
:102E1000D6CEEA81FB81ED52FE4F8081918196955D
:102E2000982F8827979587952E813F818217930742
:102E30000CF0C5CE62E0CE010E9451158111BFCECB
:102E40008E819F8101979F838E8301501109DBCF73
:102E50000F931F93CF93DF93EC018C819D819C0195
:102E60002A5F3F4FF901449142FF67C0AA81BB81AD
:102E70001C96ED91FC911D97E4914E815F811E9609
:102E80006D917C911F97E60FF72FF11DE417F50761
:102E90005CF462E06A8BFC013596E491F0E0F19518
:102EA000E195F109FB87EA87FC016491460F511D0A
:102EB0001E966D917C91461757073CF443E04A8B70
:102EC0003596E491F0E0FB87EA87F901249123FF2E
:102ED0002DC06A89CE010E945115882319F0CE01B8
:102EE0000E9442158A89823071F46E817F8161501F
:102EF00071094FE750E0CE010E941514811103C003
:102F0000CE010E9442158A89833081F4CE010E944D
:102F10000814BC016F5F7F4F4FE750E0CE010E9465
:102F20001514811103C0CE010E944215CE01DF911C
:102F3000CF911F910F910C94C215249120FF0DC0C9
:102F40008A89823091F562E0CE010E945115882372
:102F500011F183E08A8B1B861A86EC81FD813696FF
:102F6000E491E1FFE3CF8A89823009F03BC0CE01D2
:102F70000E94A314AC014F5F5F4F6E817F8161504F
:102F80007109CE010E941514811122C083E08A8B41
:102F90001B861A86CBCFEC81FD813596E491F0E05B
:102FA000F195E195F109FB87EA878A898330A9F6D3
:102FB00063E0CE010E945115882311F082E0CACF50
:102FC000EC81FD813596E491F0E0FB87EA87C5CF7F
:102FD000EC81FD813596E491F0E0F195E195F10900
:102FE000FB87EA878A89833009F0A0CFCE010E944F
:102FF000A3148C01CE010E940814A8014F5F5F4FFB
:10300000BC016F5F7F4FCE010E941514811102C079
:1030100082E0BDCFEC81FD813596E491F0E0FB8745
:10302000EA8784CFAF92BF92CF92DF92EF92FF9266
:103030000F931F93CF93DF93CDB7DEB764970FB68F
:10304000F894DEBF0FBECDBFFC017C01CE0101961E
:1030500010E000E0D7019A96DC909A97D11051C009
:10306000A3E1A09FC001A19F900D1124DC015996FE
:10307000AE0FBF1FE80FF91F768F658F81E082A723
:1030800082E083A703E0440F551F0A95E1F71796E6
:103090005C934E93169783E0220F331F8A95E1F7D6
:1030A00019963C932E9318971B961C921E921A9772
:1030B0001D961C921E921C9750961C9250971F961C
:1030C0001C921E921E976D567C4041F48CEF9FEF30
:1030D00094A383A382E090E096A385A3CD01649698
:1030E0000FB6F894DEBF0FBECDBFDF91CF911F9119
:1030F0000F91FF90EF90DF90CF90BF90AF900C9426
:103100002817A684B7845F96CD90DC90D501AC19C2
:10311000BD096D01B7FD5EC0DC01CD92DC920F5F91
:103120001F4FB3E1EB0EF11C02960A30110509F0B6
:1031300091CF99818E010D5F1F4F81E0D12CD80175
:10314000ED90FD908D019E151F0414F49E2DD82E38
:103150008F5F8A30A1F783E1D89ED0011124CD0181
:1031600049968E0F9F1FEA0FFB1F768F658FA1E098
:10317000A2A7A2E0A3A7A3E0440F551FAA95E1F7D9
:10318000DC0117965C934E93169713E0220F331FC2
:103190001A95E1F719963C932E9318971B961C925B
:1031A0001E921A971D961C921E921C9750961C9266
:1031B00050971F961C921E921E976D567C4009F0E8
:1031C0008ECF2CEF3FEF34A323A322E030E036A3D1
:1031D00025A385CFD194C194D1089ECF2F923F9241
:1031E0004F925F926F927F928F929F92AF92BF9217
:1031F000CF92DF92EF92FF920F931F93CF93DF93C3
:103200008C017B016A01EC01CE59DF4F1C0188EF74
:10321000280E311C84E1482E512C9CEA692E90E046
:10322000792E21EBA22E20E0B22E4A01A1E08A1ACB
:103230009108888199818E159F0559F48A819B8117
:103240008C159D0531F48C818730D1F0893009F4DB
:1032500044C02596C215D30561F7DF91CF911F9128
:103260000F91FF90EF90DF90CF90BF90AF909F9025
:103270008F907F906F905F904F903F902F90089528
:10328000D801ED91FC911197ED51FE4F8081918114
:103290000196918380832D913C91F901ED51FE4F70
:1032A00080819181B2010E947E30892B81F4329617
:1032B00080819181019691838083D801ED91FC9169
:1032C000EF50FE4FB182A082F8E0FC83C2CF2F50B6
:1032D0003E4FF90171826082F7CF9401A7016FE937
:1032E0007BE0D8018D919C910E941218B8E0BC83BC
:1032F000B0CF0F931F93CF93DF938C010E949C1448
:10330000F801C481D581FE012491829F900111248E
:1033100083E0359527958A95E1F732964491319669
:10332000649170E0F801868597850E947E30629FE7
:10333000C001639F900D729F900D1124429FB001B8
:10334000439F700D1124860F971F08968C0F9D1FA9
:10335000DF91CF911F910F9108958F929F92AF921D
:10336000BF92CF92DF92EF920F93CF93DF93EC0156
:10337000EC81FD813796E491EE2329F1EA81FB810E
:10338000A680B7800E949C14E82EEC81FD810491F8
:10339000CE010E947919AA81BB81FD01E451FE4F43
:1033A0004885598520813181421B530BA651BE4F60
:1033B0006E817F812D913C91621B730BC12C9C010E
:1033C000C5010E948B0EEA81FB81A680B780CE01E9
:1033D0000E949C14E82EEC81FD810491CE010E9494
:1033E0009C148C809D80F401949133966491CA80E2
:1033F000DB80899FF001112483E0F595E7958A959C
:10340000E1F770E08E859F850E947E30E69F9001F7
:10341000E79F300DF69F300D1124285F3F4F280D98
:10342000391DF601E451FE4F48855985808191810F
:10343000481B590B32976E817F8180819181681B77
:10344000790BCC24C394C5010E948B0E4E855F85F9
:103450004F5F5F4F8C819D81FC01329624910396D2
:10346000FC018491289FC0011124481759076CF46E
:103470005F874E87DF91CF910F91EF90DF90CF90D4
:10348000BF90AF909F908F9008951F861E86F2CFB9
:103490000F931F93CF93DF93C1E0D2E08AA58823D7
:1034A000C9F08E01075E1F4FC8010E9408142091C9
:1034B000EB033091EC03821B930B1816190654F49E
:1034C0008F8D98A1821B930B803891051CF4C80145
:1034D0000E94AD19639682E0CF3BD807F9F6DF91E1
:1034E000CF911F910F9108958091EF03813048F1A2
:1034F000833018F08530A8F008950E946F0F0E9465
:10350000481A8091F00380FD1CC089E092E00E947F
:10351000AD198091DE039091DF03892B91F00C941B
:10352000571289E092E00E94AD198091DE039091DC
:10353000DF03892B11F00E9457120E946F0F0C9429
:10354000481A0895EF92FF920F931F93CF93DF9342
:10355000DC0116962D913C9117977B01E21AF30A34
:10356000F7FE08C080E0DF91CF911F910F91FF908F
:10357000EF90089518968D919C911997EA01C81BB8
:10358000D90BD7FDEFCF1496ED91FC911597E491EF
:10359000EE151F043CF38D01CD010E949C148C1785
:1035A0001D0604F3C8010E947919D8011496ED9103
:1035B000FC912491AE0133E0559547953A95E1F79A
:1035C000249FF001259FF00D1124EE0EFF1E8E0D9D
:1035D0009F1DFC01849190E0C770DD2702C0959586
:1035E0008795CA95E2F78170BECF8F929F92AF9276
:1035F000BF92EF92FF920F931F93CF93DF93CDB7BC
:10360000DEB7A1970FB6F894DEBF0FBECDBF7C0129
:10361000FA01CB0119A2223008F42AE08E010F5DD5
:103620001F4F822E912CB12CA12CBF01A50194011A
:103630000E944D30F901CA016A3074F5605DD8010D
:103640006E938D01232B242B252B79F790E080E0BE
:10365000109789F0FD0101900020E9F73197AF0143
:103660004A1B5B0BD701ED91FC910280F381E02DA9
:10367000B801C7010995A1960FB6F894DEBF0FBE39
:10368000CDBFDF91CF911F910F91FF90EF90BF9031
:10369000AF909F908F900895695CD1CF41E951E040
:1036A000FA0101900020E9F7AF014259514061E968
:1036B00071E08CEF93E00C94BC0C2F923F924F92F0
:1036C0005F926F927F928F929F92AF92BF92CF92B2
:1036D000DF92EF92FF920F931F93CF93DF93CDB7BB
:1036E000DEB72B970FB6F894DEBF0FBECDBF7C01BF
:1036F0002091D8023091D902F901E951FE4F608141
:1037000071817A836983CB018E0D9F1D64E070E027
:103710000E947E30280F391FF901ED50FE4F808145
:1037200029813A81829FB001839F700D11246E0D13
:103730007F1D072E000C880B990B61157105810503
:10374000910511F00E94FC2FC70163E070E00E9418
:103750007E3055E0880F991F5A95E1F7BC016F5FE5
:103760007D4F7C836B8390E080E0FC01E752FF4F4C
:103770002B813C81E20FF31F10820196803291056C
:10378000A1F70E94AD2F23E030E040E050E00E941E
:103790001B30635F7F4F8F4F9F4F6A87E091D80246
:1037A000F091D902E951FE4F208120FD5DC138E042
:1037B0003B87670144E0CC0CDD1C4A95E1F73B8573
:1037C000232F30E03A832983E114F10461F42B853F
:1037D000222309F44BC169817A816F5F7F4F81E0B9
:1037E00090E00E94A90881E0098001C0880F0A9436
:1037F000EAF78F83312C212C10E000E069817A8177
:103800006B5F7F4F7987688789819A8102969E8353
:103810008D839B85992399F0F801EE0FFF1F298175
:103820003A812830310509F428C1E752FF4F6B81F6
:103830007C81E60FF71F80817F81872B8083211495
:10384000310409F068C12A85822F90E0F801EE0F5B
:10385000FF1FE652FF4F6B817C81E60FF71F40810F
:103860009C012850310961E070E002C0660F771FAB
:103870002A95E2F7462B01968031910589F740831E
:10388000E114F10409F44BC18091D6039091D70360
:10389000E816F9060CF0ABC00E94AD2F2AE030E02C
:1038A00040E050E00E941B30672B682B692B09F029
:1038B000EDC00E94AD2F23E030E040E050E00E94D8
:1038C0001B30DC01CB010296A11DB11D1C017B85C3
:1038D000772319F021E0221A31088091DC039091BE
:1038E000DD038C159D050CF082C00E94AD2F28E0F1
:1038F00030E040E050E00E941B30672B682B692BC2
:10390000D1F40E94AD2F24E130E040E050E00E946D
:103910001B306A3008F0D2C08A858250990B9C0116
:10392000A601400F511F65EE7CE08091D802909176
:10393000D9020E9412180E94AD2F20E130E040E031
:1039400050E00E941B30672B682B692B09F04FC099
:103950002114310409F04BC02A85822F90E068853C
:103960007985681779070CF042C00F30110509F40A
:103970003EC04C0173E0871A9108092C000CAA087C
:10398000BB0807974D805E80481659060CF42C0141
:10399000052C000C66087708481459046A047B0457
:1039A0008CF484189508A608B70841F00E94AD2F42
:1039B000A50194010E941B304B015C01480C591C6D
:1039C0006A1C7B1C0E94AD2F5601A00EB11E24E084
:1039D00030E040E050E00E941B30A201672B682BD2
:1039E000692B09F095C0B50189E00E942D080F5F91
:1039F0001F4F0031110509F00CCF8091D603909133
:103A0000D703E816F90661F4C6010D962B8522232B
:103A100009F488C069817A816F5F7F4F0E94A9088D
:103A20008091DC039091DD038C159D0524F4D092E8
:103A3000DD03C092DC032B960FB6F894DEBF0FBEF9
:103A4000CDBFDF91CF911F910F91FF90EF90DF904D
:103A5000CF90BF90AF909F908F907F906F905F902E
:103A60004F903F902F9008951B86A3CE625071090E
:103A700081E090E00E947C08B6CEE652FF4F8B8139
:103A80009C81E80FF91F80818160D8CE0E94AD2F04
:103A900025E030E040E050E00E941B30672B682BAF
:103AA000692B09F01ACF0E94AD2F3A853F3019F0EB
:103AB0003F5F3A8712CF6EE06A870FCF603150F4D4
:103AC0006A856250770B9B01A601400F511F6DEC78
:103AD0007CE02BCF633178F479E0E716F1040CF445
:103AE0002ACF8A858250990B9C01A601400F511F55
:103AF00065EB7CE01ACF99E0E916F1040CF41BCFDA
:103B000022E030E0A601400F511F6DE67CE00DCFB2
:103B1000B50187E06ACF81E0281A310868CF312CDF
:103B2000212C65CF2A852250330BB9010E947C08D5
:103B300077CF8091D6039091D7039695982F8827B9
:103B40009795879501972091D8033091D9033695A1
:103B5000322F222737952795215C3F4FE091D403E0
:103B6000F091D503DF01B695BA2FAA27B795A7958F
:103B700040910F0250911002405451095093EC03B0
:103B80004093EB0360911102709112026850710929
:103B900026173707A4F17093EE036093ED038417A3
:103BA000950724F49093EC038093EB038091EB034F
:103BB0009091EC038A179B0724F4B093EC03A09335
:103BC000EB03A091D802B091D9021E968D919C91E1
:103BD00097FF02C081589F4F880F892F881F990B2C
:103BE000019797FF02C090E080E0E817F90764F4BE
:103BF0009093D5038093D40302960C945D1B30936D
:103C0000EE032093ED03CBCF08958F929F92AF9256
:103C1000BF92CF92DF92EF92FF9281E08093EF0309
:103C20001092F3031092F2031092D1031092D0037A
:103C30001092DB031092DA031092D5031092D40392
:103C40001092DD031092DC03ECE3F3E082ED93E0ED
:103C50002FEF3FEF3183208335968E179F07D1F7E3
:103C600090E080E063E12FEF3FEFE091D802F09128
:103C7000D902689FA001699F500D1124E40FF51F20
:103C800012A613A6168E158E30A3278F32A321A35A
:103C900014A213A216A215A210A617A211A601968D
:103CA0008A30910511F72091D8023091D902F9019B
:103CB000E951FE4FE080F180C70164E070E00E94AE
:103CC0007E30280F391FF901ED50FE4F80818E9D07
:103CD000B0018F9D700D1124072E000C880B990BDD
:103CE000611571058105910511F00E94FC2FE0918D
:103CF000D802F091D902E951FE4FC080D1800D2C3D
:103D0000000CEE08FF08C114D104E104F10439F0FD
:103D10000E94AD2FA70196010E941B306B01C601C6
:103D20000C96E091D802F091D902E951FE4FC08083
:103D3000D1804C01092E000CAA08BB089C012C0D57
:103D40003D1D821793070CF04BC00D2C000CEE08A4
:103D5000FF08C114D104E104F10441F00E94AD2F29
:103D6000A70196010E941B306B017C01C80CD91C75
:103D7000EA1CFB1C0D2C000CEE08FF088C149D04A3
:103D8000AE04BF048CF4C818D908EA08FB0841F057
:103D90000E94AD2FA70196010E941B306B017C0190
:103DA0008C0C9D1CAE1CBF1C9092D7038092D60336
:103DB00090E080E00E945D1B81E090E00E945D1B2E
:103DC00082E090E00E945D1B61E089E092E00E9449
:103DD000DC14811107C089E092E00E94C215F4CF83
:103DE0006401C8CFFF90EF90DF90CF90BF90AF906D
:103DF0009F908F900C94991DE0910702F09108021A
:103E000090E0603127E272078CF4683E23E072078D
:103E1000ACF52AE030E06436710554F430E020E07F
:103E20006A3071052CF025E030E002C024E130E07A
:103E3000DF01AC5EBB4F40E650E0421B530B1196D6
:103E40005C934E9312968D939C93AB0170E060E06F
:103E50002AE0CF010E94F51A809107029091080292
:103E600044960E94030D6AEF70E080E090E00E94AB
:103E7000E10B0E94E90C8823E1F308952FE030E084
:103E8000D7CF0E94AC300C9405300C940D301F92AB
:103E90000F920FB60F9211248F939F938091E100A0
:103EA0009091E100937F9093E10083FF0FC0109207
:103EB000E90091E09093EB001092EC0092E3909374
:103EC000ED001092900198E09093F00082FF22C0E4
:103ED00093E09093E9009091F200992319F09AE30E
:103EE0009093E80090918101992341F09091810194
:103EF000915090938101911101C05D9890918F0133
:103F0000992341F090918F01915090938F019111DD
:103F100001C0289884FF18C08091E2008E7E8160E5
:103F20008093E2008091E1008F7E8093E100809198
:103F300082018E7E8061809382019F918F910F908C
:103F40000FBE0F901F90189580FFF7CF8091E20071
:103F50008E7E80618093E2008091E1008E7E80936E
:103F6000E100809182018E7E8160E5CF1F920F92E9
:103F70000FB60F921124CF92DF92EF92FF920F9320
:103F80001F932F933F934F935F936F937F938F93E1
:103F90009F93AF93BF93EF93FF93CF93DF93CDB7EF
:103FA000DEB76C97DEBFCDBF1092E9008091E800CC
:103FB00083FF25C068E0CE0145960E945F0A82EF2C
:103FC0008093E8008D8987FF39C09091E80090FFC9
:103FD000FCCF982F907609F034C19E894F89588D77
:103FE0002F89F88C911131C0803861F58091800162
:103FF0008093F1001092F1008EEF8093E8006C96B0
:104000000FB6F894DEBF0FBECDBFDF91CF91FF9109
:10401000EF91BF91AF919F918F917F916F915F9140
:104020004F913F912F911F910F91FF90EF90DF9053
:10403000CF900F900FBE0F901F9018959EEF90930A
:10404000E800C7CF1092F100D5CF913059F481111B
:10405000D3CF4130510581F6809180018D7F8093CF
:104060008001CACF933049F48111C6CF4130510548
:1040700019F6809180018260F2CF953041F48091F1
:10408000E80080FFFCCF20682093E300B5CF963096
:1040900009F0A9C00B8D1C8D22E01092E90010924E
:1040A0007E0110927D01F2122EC010927C011092BE
:1040B0007B010E942E0A1F8299E09983FA8291E087
:1040C0009E8390EA98879AEF998720917D0130919D
:1040D0007E01275F3F4F3C832B838D831092E90045
:1040E00010927E0110927D0110937C0100937B0160
:1040F00049E050E0BE016F5F7F4F80E00E94080AF8
:104100000E942E0A79CF10937C0100937B010E94BC
:104110001209DC0112960D911C910115110509F48B
:1041200051C1D801ED91FC910480F581E02DBE01D3
:104130006B5E7F4FC8010995009709F03EC1F801F9
:1041400000851185EACFF3E0FF120EC08F89882326
:1041500009F440C0823061F440E86DE08FE59CE0F6
:104160000E94D509811148CF81E28093EB0047CFAF
:10417000813029F440E86BE083E59CE0F1CF8330A7
:1041800099F70E941209DC011296ED90FC908E01C5
:104190000F5F1F4F6801E114F10479F0D701ED9131
:1041A000FC910680F781E02DB801C7010995080F41
:1041B000111DF701E084F184EECFD8011C92F601C5
:1041C00001900020E9F73197BF016C197D0940E0AB
:1041D000C601C6CF6DE37CE0FB01449150E080E86E
:1041E0000E94080A09CF973009F4BECF983021F415
:1041F00081E08093F10000CF993009F0FDCE83700B
:1042000009F0B2CFE5E1F1E081E031E096E3219100
:10421000222371F08093E9003093EB00DF011197C6
:104220002C912093EC009093ED008F5F873079F70D
:104230008EE78093EA001092EA008F8980939001C4
:10424000DBCE8B8D9C8D1092E90010927E01109236
:104250007D0190937C0180937B01898D811192C0B7
:104260008E899D89913A49F4813209F07DCF47E0EA
:1042700050E068E071E080E0B3CF913209F074CF94
:10428000833269F48F89988DB0E0A0E080930401B7
:1042900090930501A0930601B0930701ADCE803243
:1042A00069F48091E80082FFFCCF67E088E091E04C
:1042B0000E945F0A8BEF8093E8009ECE823209F065
:1042C0009BCE8F8980930F01EEEFFFE7859194914C
:1042D0008B3F9C4D51F1E0E0F8E080910801909116
:1042E0000901A0910A01B0910B01803B9440A10506
:1042F000B105F1F480910F0180FD1AC0EE3F8AE014
:10430000F80789F587E797E79183808380916000BC
:1043100080937F0188E19BE00FB6F894A895809385
:1043200060000FBE9093600067CEEEEFFAE0D5CF4D
:10433000808191818737974709F05ECEA89580915B
:10434000600088618093600080917F0180936000AD
:10435000EE3F2AE0F20789F08091FE0A9091FF0A71
:104360009183808349CE808191818737980751F26C
:104370009093FF0A8093FE0AC5CF1092FF0A109215
:10438000FE0A3ACE0E941209DC0112960D911C9190
:104390000115110509F4E8CED801ED91FC910190C9
:1043A000F081E02DBE016B5E7F4FC8010995811140
:1043B00023CEF80100851185EBCF181619060CF4F1
:1043C0001BCED2CEF1E0FF12BECE61E47CE004CF82
:1043D0001F920F920FB60F9211242F933F938F933A
:1043E0009F93AF93BF938091A1019091A201A0915F
:1043F000A301B091A4013091760123E0230F2D3762
:1044000058F50196A11DB11D209376018093A1015D
:104410009093A201A093A301B093A401809177018E
:1044200090917801A0917901B0917A010196A11D36
:10443000B11D8093770190937801A0937901B09397
:104440007A01BF91AF919F918F913F912F910F90E2
:104450000FBE0F901F90189526E8230F0296A11DFE
:10446000B11DD2CF1F920F920FB60F9211242F932E
:104470003F934F935F936F937F938F939F93AF93EC
:10448000BF93EF93FF9380915201882349F080916D
:10449000A501E091A601F091A70190818927808371
:1044A00080916C01882329F180914E0190914F01F8
:1044B000A0915001B0915101892B8A2B8B2BC9F00F
:1044C00080914E0190914F01A0915001B091510106
:1044D0000197A109B10980934E0190934F01A093D8
:1044E0005001B0935101892B8A2B8B2B11F40E9420
:1044F000180EFF91EF91BF91AF919F918F917F9196
:104500006F915F914F913F912F910F900FBE0F9040
:104510001F9018951F920F920FB60F9211248F9330
:104520009F93AF93BF93EF93FF938091B001882344
:1045300009F452C08091AC019091AD01A091AE01FF
:10454000B091AF01892B8A2B8B2BA1F19091A801FF
:10455000E091A901F091AA0180818927808380914F
:10456000AC019091AD01A091AE01B091AF011816D0
:1045700019061A061B069CF48091AC019091AD01BE
:10458000A091AE01B091AF010197A109B10980934B
:10459000AC019093AD01A093AE01B093AF01FF9138
:1045A000EF91BF91AF919F918F910F900FBE0F90A0
:1045B0001F9018951092B00180916F008D7F8093AD
:1045C0006F008091A801E091A901F091AA0190816A
:1045D000809589238083E3CF9091A801E091A90180
:1045E000F091AA0180818927F5CF1092B401109231
:1045F000B30188EE93E0A0E0B0E08093B501909322
:10460000B601A093B701B093B8018FE191E0909308
:10461000B2018093B1018FEF9FEF9093BE01809321
:10462000BD011092FF031092FE0387E391E0909387
:10463000FD038093FC038CE38093020480E180936C
:104640000504109204041092030410920A041092BC
:104650000B0410920C0410920D0410920E04109290
:10466000110810921008109213081092120881E09D
:104670008093140821E032E081E391E090930A02F4
:104680008093090281E391E090931B0280931A02C8
:1046900090932E0280932D029093410280934002CA
:1046A0009093540280935302909367028093660222
:1046B00090937A028093790290938D0280938C027A
:1046C0009093A00280939F029093B3028093B202D2
:1046D0009093C6028093C5028CEF93E090930802FA
:1046E0008093070230930C0220930B023093D9027F
:1046F0002093D802F901C901948F838F739622E029
:10470000EF3BF207C9F70895CF93DF9300D01F92D4
:10471000CDB7DEB7789484B5826084BD84B58160FE
:1047200084BD85B5826085BD85B5816085BD80917C
:104730006E00816080936E001092810080918100F4
:1047400082608093810080918100816080938100EC
:1047500080918000816080938000809191008260D0
:10476000809391008091910081608093910080916D
:1047700090008160809390008091C100846080935C
:10478000C1008091C10082608093C1008091C1000E
:1047900081608093C1008091C30081608093C300D9
:1047A0008091C00082608093C0008091C2008160CF
:1047B0008093C20080917A00846080937A00809117
:1047C0007A00826080937A0080917A008160809381
:1047D0007A0080917A00806880937A00109290012C
:1047E00010928001109282018091D70081608093A5
:1047F000D70080EA8093D80089B5806189BD89B5EA
:10480000826089BD09B400FEFDCF61E070E080E008
:1048100090E00E94E10B8091D8008F7C80618093B2
:10482000D8008091E000807F8093E0008091E100DB
:104830008E7E8093E1008DE08093E200559A209A6D
:104840005D9828981FB7F89480915501811127C071
:10485000EAE7FEE08491EDE4FEE09491E82FF0E0D9
:10486000EE0FFF1FE253F44FA591B491EC91E923B1
:1048700021F461E081E10E946C0A61E081E10E9423
:10488000DD0A8CB580618CBD8CB580648CBD61E027
:104890008FE00E94DD0A61E080E10E94DD0A8091E4
:1048A00055018F5F809355011FBF07E417E0B801E2
:1048B000F80184916F5F7F4F0E5F1F4FFB01649182
:1048C000882319F00E94DD0AF2CF61E086E00E94A1
:1048D0006C0A61E070E080E090E00E94E10B60E033
:1048E00086E00E946C0A6AE070E080E090E00E943E
:1048F000E10B61E086E00E946C0AE5E7FEE0E491EE
:10490000F0E0EE0FFF1FE55AF14F859194919093DF
:104910005B0180935A01E8E4FEE0E491E0935901E1
:10492000EDE6FEE0E491F0E0EE0FFF1FE55AF14FF7
:10493000859194919093580180935701E0E4FEE0B3
:10494000E491E09356018CB58C7F8CBD8DB5816070
:104950008DBDE0915A01F0915B01908180915901E8
:10496000982B9083A0915701B09158012C91909170
:104970005601909592239C93908180958923808302
:10498000EAE3F7E087E497E08E179F0749F0249168
:104990002EBD00000DB407FEFDCF2EB53196F4CF2D
:1049A000E0915701F0915801808190915601892B37
:1049B0008083E0915A01F0915B01908180915901CF
:1049C0008095892380838091640081608093640056
:1049D00080916400826080936400809164008068AC
:1049E000809364008091640080648093640080916F
:1049F00065008160809365000E94E90C87FF1AC002
:104A000080E094E01EBC00000DB407FEFDCF2EB583
:104A10000197C1F770E060E08AE00E94190B70E036
:104A200060E08BE00E94190B70E060E089E00E947A
:104A3000190BFFCF3EEEA32EBB24BA94B5016951EA
:104A40007F4F8AE00E94190B6FEF70E08BE00E94AD
:104A5000190B6FEF70E089E00E94190B0E94E707C5
:104A6000CC24C39420E1E22E08E52AE836E0A50133
:104A700064E170E08CEF93E00E948B0E80E194E0A3
:104A80000E94030D6BE170E080E090E00E94E10B7A
:104A9000F0EFAF1206C06AEF70E080E090E00E9495
:104AA000E10B2FEFA21AB20A39E1A316B10431F6D5
:104AB0006EEE72E080E090E00E94E10B6FEF70E03C
:104AC0008AE00E94190B6FEF70E08BE00E94190BD7
:104AD0006FEF70E089E00E94190B85E00E94A70D3E
:104AE0008DE00E94A70D10926C0182E090E00E9480
:104AF000431F882351F080916400877F8093640076
:104B000080916500877F80936500109275010E94F7
:104B1000F607FF24FA9411E080E3A82EB12C98E365
:104B2000892E912C0E940A08882359F10E94E90CD1
:104B3000982F9C7009F078C0982F907629F090916A
:104B4000030191279093030187FF06C09091000114
:104B50009F3F69F41093000184FF11C08091000110
:104B6000813049F4F09200010E94F6070AC09F5F6D
:104B700090930001F1CF815080930001F5CF811116
:104B8000F3CF0E94E707CC24C39400E2E02E00E6B6
:104B900025E438E050E040E06EE070E08CEF93E018
:104BA0000E948B0E05E321E737E04DE150E062E41F
:104BB00070E08CEF93E00E948B0E1092110810921F
:104BC0001008B0921308A092120869E677E08CEF03
:104BD00093E00E94980C4091000150E070E060E08A
:104BE0002AE08CEF93E00E94F51A109211081092BF
:104BF0001008909213088092120861E677E08CEF1B
:104C000093E00E94980C809103016EE577E081119A
:104C100002C06AE577E08CEF93E00E94980C80E197
:104C200094E00E94030D7ECF6091000170E090E05F
:104C300080E0611571058105910511F00E94FC2F3E
:104C400004EF13E00E94AD2F2FEF30E040E050E082
:104C50000E941B30D8016D938D01B3E0083F1B0704
:104C600089F71092DF031092DE031092E103109295
:104C7000E0031092E3031092E2031092E503109216
:104C8000E40381E090E09093E7038093E603909340
:104C9000E9038093E8038CE79BE090930E028093F6
:104CA0000D028AE090E09093100280930F02109220
:104CB000120210921102109214021092130210921A
:104CC00016021092150210921902109218021092F8
:104CD00017020E94051E11E05090EF03552009F4C1
:104CE00010C68FB7F894C090A101D090A201E090B7
:104CF000A301F090A4018FBFC0927101D092720104
:104D0000E0927301F092740180910301882309F409
:104D100079C080916C01811119C000917501083032
:104D200008F0A0C1EBE6FAE0F0935F01E0935E01CA
:104D3000F0935D01E0935C010E94180E10936C01EA
:104D40000F5F003109F4A9C1009375018091F2034E
:104D50009091F3030097E1F0A5ECB9E0B0936B01FB
:104D6000A0936A0190936901809368011092F30304
:104D70001092F203E2E0F0E0F0930201E09301010F
:104D80001092640110926501109266011092670101
:104D900020916801309169012115310599F18091C7
:104DA000640190916501A0916601B0916701409105
:104DB0006001509161016091620170916301840F03
:104DC000951FA61FB71FC816D906EA06FB06D0F026
:104DD000E0910101F0910201CF010196909302014F
:104DE00080930101E20FF31F84918F3F09F058C1B6
:104DF00010926901109268012FEF3FEF309302018A
:104E00002093010180916D0190916E01A0916F013D
:104E1000B09170018196A11DB11D8C159D05AE0547
:104E2000BF0508F059CFC0926D01D0926E01E0929B
:104E30006F01F09270010E94E7070E94E90C9091C7
:104E4000050282FF61C1911103C091E090930502B8
:104E50009091060283FF5EC1911103C091E090938F
:104E600006029091020287FF5BC1911103C091E09D
:104E7000909302029091040284FF58C1911103C0E3
:104E800091E0909304029091010285FF55C1911128
:104E900003C091E0909301029091030286FF52C1FA
:104EA000911103C081E0809303026090D803709059
:104EB000D9037694762C66247794679493012158CD
:104EC0003F4F39018091060224E0811101C023E0A7
:104ED00030910302409101028091130290911402DB
:104EE0004111E0C731113BC1181619062CF4019786
:104EF00090931402809313028091130290911402F4
:104F000097FF05C00196909314028093130280913D
:104F10000502882361F089E092E00E94421588230F
:104F200031F086E49BE09093F3038093F203809149
:104F30000402882309F44CC080910F029091100262
:104F4000803491050CF444C00091110210911202BA
:104F500089E092E00E949C14800F912F911DAC017A
:104F60004F5F5F4F60910F027091100289E092E0F5
:104F70000E9415148B3061F50091110210911202FC
:104F800089E092E00E949C14F82E89E092E00E9451
:104F900008140F0D111DA8014F5F5F4FBC0189E080
:104FA00092E00E9415148C3099F480910B0290913C
:104FB0000C02FC01EF50FE4F2BE33BE031832083DA
:104FC000339723E0208381519E4FDC011D921C9278
:104FD0008091EF038330F1F40091F0031091F1031D
:104FE00089E092E00E949C148017110699F094F0D9
:104FF0008091110290911202019690931202809377
:1050000011028091F0039091F10301969093F103C6
:105010008093F0038091EF03843009F4AFC0809156
:10502000EF03823009F0DDC12091F0033091F103EC
:1050300080911102909112022A3131050CF4C8C1FD
:105040000197909312028093110280911102909126
:105050001202681679060CF0BDC11092F10310928D
:10506000F003ABC00C3058F420E33AE030935F011A
:1050700020935E0130935D0120935C015DCE003191
:1050800008F05ECE83EE99E090935F0180935E011D
:1050900090935D0180935C014FCE1092750156CEC6
:1050A000F90144913196E491982F9F7050E09E9FB2
:1050B000400D511D1124052E000C660B770B4093FB
:1050C0006001509361016093620170936301829566
:1050D0008F70E82FF0E0E150F048EE0FFF1F809155
:1050E0006A0190916B01E80FF91F85919491969553
:1050F00087950E947007C0926401D0926501E0928A
:105100006601F09267017ECE992309F4A1CE109238
:1051100005029ECE992309F4A4CE10920602A1CED8
:10512000992309F4A7CE10920202A4CE992309F480
:10513000AACE10920402A7CE992309F4ADCE109204
:105140000102AACE992309F4B0CE10920302ADCE8B
:105150005093140240931302332309F4D8CE809164
:10516000130290911402019630E0281739070CF0D1
:10517000CACE3093140220931302C9CE0091F003DB
:105180001091F10389E092E00E949C1480171106AF
:1051900009F00CF444CF8091110290911202019712
:1051A00090931202809311028091F0039091F10389
:1051B00001969093F1038093F0033FEB432E32E08E
:1051C000532E01E012E04DE4242E4BE0342EF80182
:1051D00082A5882391F17801F9E1EF0EF11CC70156
:1051E0000E942817D80191966D917C91929766162E
:1051F00077060CF000C15E961C921E925D979A96FF
:105200001C929A979B961C929B97EFEFFFEF9096BC
:10521000FC93EE935F979296FC93EE9391979496FE
:105220001C921E92939796961C921E929597989612
:105230001C921E92979799961C920D5E1F4F4016D6
:10524000510629F68091EF03813081F4809111029B
:1052500090911202681679064CF482E08093EF0375
:1052600089E190E09093F1038093F0038091EF0344
:10527000823009F04AC00091F0031091F10301154A
:10528000110509F042C08091E6039091E703019770
:105290009093E7038093E6030E94741A8091E603DB
:1052A0009091E703892B09F422C21092DF03109238
:1052B000DE038091E80380FD02C008E510E08CE782
:1052C0009BE090930E0280930D028AE090E0909311
:1052D000100280930F021093120200931102109299
:1052E00014021092130210921602109215021092DC
:1052F000190210921802109217020E94051E68EC03
:1053000070E080E090E00E94E10B8091EF0381303B
:1053100069F42091F0033091F1032115310531F04A
:10532000215031093093F1032093F00383508230F0
:10533000E8F50091F0031091F10389E092E00E94FA
:105340009C148017110691F51092F1031092F0034E
:1053500080910F029091100297FD0796A3E095951A
:105360008795AA95E1F72091E2033091E303820F3C
:10537000931F9093E3038093E2038091E80390915D
:10538000E90301969093E9038093E8032AE030E073
:105390003093100220930F0280FFB0C290E080E0B3
:1053A00090931202809311020E94051E8091EF03D8
:1053B00081110E94741A1092110810921008109214
:1053C00013081092120880E194E00E94030D83CC30
:1053D000029637CE215031093093F1032093F00328
:1053E000ECCE813009F0E9CE89E092E00E94C2154E
:1053F0000E94991DE2CE5F968D919C910E94B114FE
:10540000882309F44AC0F801878D90A1C0900F024B
:10541000D0901002C816D9060CF46C0189E092E015
:105420000E9408145C01C7010E940814A816B9065E
:105430000CF057C089E092E00E9408148C159D057D
:105440000CF4FBCED80191968D919C91A090110205
:10545000B0901202A816B9060CF45C0189E092E043
:105460000E94A3144C01C7010E94A3148816990638
:10547000D4F589E092E00E94A3148A159B050CF4F0
:1054800090C0A501B60189E092E00E94A21A8111A4
:105490002CC0BFEFAB1ABB0AE1CFD8019196CD90DB
:1054A000DC90C7010E940814B6010E94B11481115A
:1054B000AACFC7010E94A314BC01F801878D90A157
:1054C0000E94B11481119FCFC7010E94A3146C01E7
:1054D000C7010E940814B6010E94B114811193CF34
:1054E000ACCEC701A9CFC701C6CFD8015996ED915F
:1054F000FC910190F081E02DA501B601C70109954D
:10550000882339F2D8015D968D919C918F599B40EB
:1055100009F059C0F801168E158E12A613A62FEFAA
:105520003FEF30A3278F32A321A314A213A216A208
:1055300015A210A617A211A68091E0039091E10395
:105540008C599F4F9093E1038093E00384E99BE0A3
:105550009093F3038093F20380910D0290910E02D9
:105560008C579B4011F5809111029091120208977F
:10557000E4E5FBE0F0930E02E0930D02909312023B
:1055800080931102109214021092130210921602CC
:10559000109215021092190210921802109217021E
:1055A0004CCEBFEFCB1ADB0A39CF8091DE0390914E
:1055B000DF03853091050CF040CE01969093DF0318
:1055C0008093DE033ACE61E089E092E00E94DC1431
:1055D000811142C0D8015E961C921E925D979A96E8
:1055E0001C929A979B961C929B97EFEFFFEF9096D9
:1055F000FC93EE935F979296FC93EE93919794961B
:105600001C921E92939796961C921E92959798962E
:105610001C921E92979799961C928091E00390910C
:10562000E10344969093E1038093E0033092F30307
:105630002092F20380910502882339F026EF3FEF94
:105640003093160220931502F8CD8CEF9FEF9093C4
:10565000160280931502F1CD8091F0039091F10331
:10566000892B09F0EACD8091DE039091DF031816B3
:10567000190664F401979093DF038093DE03EEE153
:10568000F0E0F093F103E093F003D7CD89E092E0EE
:105690000E949C14883019F492E09093EF0389E003
:1056A00092E00E949C14893050F3809111029091F5
:1056B00012020896ACE7BBE0B0930E02A0930D0275
:1056C000909312028093110210921402109213020E
:1056D00010921602109215021092190210921802DE
:1056E000109217023092F3032092F203C8CF8091F8
:1056F0000F029091100297FD079623E095958795EC
:105700002A95E1F72091E2033091E303820F931F82
:105710009093E3038093E2031092EF03E09007027B
:10572000F090080200E110E021E048E050E0B8010C
:10573000C7010E9495110F5F1F4F00371105A1F798
:1057400000E110E021E047E350E0B801C7010E940A
:1057500095110F5F1F4F00371105A1F708E010E00A
:1057600021E0A80160E170E0C7010E9495110F5F80
:105770001F4F08331105A1F708E010E021E0A80150
:105780006FE670E0C7010E9495110F5F1F4F08334D
:105790001105A1F7C0900702D090080201E110E0C6
:1057A00089E0E82EF12C20E0A701B801C6010E9493
:1057B0009511FFEFEF1AFF0A27E3E216F10499F7BC
:1057C0000F5F1F4F0F36110559F7A0900702B090D9
:1057D00008021CE0C12ED12CF12CE12C00E8802E17
:1057E000912C10E000E0F801B3E0F595E795BA954B
:1057F000E1F7EE0DFF1DE354F54FE491C80187700A
:105800009927D40102C0B595A7958A95E2F7CD01F5
:10581000F0E0EA23F923EF2B41F021E0A601B801E3
:10582000625E7F4FC5010E9495110F5F1F4F0834C4
:105830001105C9F6B9E0EB0EF11CEFEFCE1ADE0A46
:10584000FEE7EF16F10469F68091070290910802D5
:10585000FC01EC5EFB4F0AE110E0118300833296FD
:105860002DE130E03183208367EB7AE00E94980CD1
:105870008091070290910802FC01EC5EFB4F24E14D
:1058800030E031832083329625E230E0318320837B
:1058900060EB7AE00E94980C8091070290910802D8
:1058A000FC01EC5EFB4F1183008332962DE230E069
:1058B000318320836AEA7AE00E94980C6091E003C9
:1058C0007091E1038DE10E94FC1E6091E2037091F2
:1058D000E30385E20E94FC1E6091E0037091E10306
:1058E0008091E2039091E303680F791F7093E103C5
:1058F0006093E0038DE20E94FC1E07CD88E590E0F6
:105900004FCD10E08091AB01181728F4812F0E9431
:10591000840D1F5FF7CF10926C01E090E003F090D0
:10592000E103E114F10409F400C202E310E0C8014C
:105930000E94431FD82EC80101960E94431F2FEFDB
:10594000D21203C08F3F09F48BC19D2D21E0250D9C
:105950008E159F0508F09FC280E289838A838B831E
:105960000E94F60710E050E1652E712C6AE4A62E25
:1059700061E0B62E74E1C72ED12CE8E42E2E312C36
:10598000F1E24F2EE12E012E000CFF0837E0E30E6E
:10599000F11C43E0EE0CFF1C4A95E1F7470186E05D
:1059A000880E911C0E94E7077092110860921008FF
:1059B000109213081092120867EB7BE08CEF93E0D3
:1059C0000E94980C8091E1038F938091E0038F9364
:1059D000BF92AF92A1E9B1E0BF93AF930E94B13003
:1059E00028E530E030931108209310081092130836
:1059F000109212080E944E1B88E390E090931108C9
:105A000080931008D0921308C092120869818CEF1D
:105A100093E00E94EB12A0E4B0E0B0931108A093D1
:105A20001008D0921308C09212086A818CEF93E09C
:105A30000E94EB123092110820921008D0921308A5
:105A4000C09212086B818CEF93E00E94EB1201E090
:105A50002BE130E04EE350E06BE170E088E390E052
:105A60000E94B9112BE130E046E450E06BE170E0B8
:105A700080E490E00E94B9112BE130E04EE450E068
:105A80006BE170E088E490E00E94B91100E02CE145
:105A900030E048E550E06CE170E088E390E00E947F
:105AA000B91101E02CE130E0A4016CE170E0C70124
:105AB0000E94B91180E194E00E94030D0E940A083F
:105AC0000F900F900F900F900F900F90882309F474
:105AD00069CF0E94E90C082F847279F0115008F404
