:100000000C94C8170C94F0170C94F0170C94F0177C
:100010000C94F0170C94F0170C94F0170C94F01744
:100020000C94F0170C94F0170C9475210C94E421A7
:100030000C94F0170C94F0170C94F0170C94F01724
:100040000C94F0170C94F0170C94F0170C94F01714
:100050000C94F0170C94F0170C94F0170C941624D1
:100060000C94F0170C94F0170C94F0170C94F017F4
:100070000C94F0170C94F0170C94F0170C94F017E4
:100080000C9460240C94F0170C94F0170C94F01757
:100090000C94F0170C94F0170C94F0170C94F017C4
:1000A0000C94F0170C94F0170C94F017000000005B
:1000B000003E5B4F5B3E3E6B4F6B3E1C3E7C3E1CEE
:1000C000183C7E3C181C577D571C1C5E7F5E1C0034
:1000D000183C1800FFE7C3E7FF0018241800FFE7EB
:1000E000DBE7FF30483A060E2629792926407F05AE
:1000F0000507407F05253F5A3CE73C5A7F3E1C1CC4
:1001000008081C1C3E7F14227F22145F5F005F5F83
:1001100006097F017F006689956A6060606060946F
:10012000A2FFA29408047E040810207E2010080874
:100130002A1C08081C2A08081E101010100C1E0C7F
:100140001E0C30383E3830060E3E0E060000000011
:100150000000005F00000007000700147F147F14F8
:10016000242A7F2A1223130864623649562050003D
:1001700008070300001C2241000041221C002A1C29
:100180007F1C2A08083E0808008070300008080814
:100190000808000060600020100804023E51494534
:1001A0003E00427F400072494949462141494D3352
:1001B0001814127F1027454545393C4A49493141B9
:1001C000211109073649494936464949291E000087
:1001D00014000000403400000008142241141414DC
:1001E0001414004122140802015909063E415D59C8
:1001F0004E7C1211127C7F494949363E41414122D1
:100200007F4141413E7F494949417F090909013EFA
:10021000414151737F0808087F00417F4100204021
:10022000413F017F081422417F404040407F021C33
:10023000027F7F0408107F3E4141413E7F0909094A
:10024000063E4151215E7F09192946264949493216
:1002500003017F01033F4040403F1F2040201F3FDC
:100260004038403F63140814630304780403615961
:10027000494D43007F4141410204081020004141A3
:10028000417F04020102044040404040000307084F
:100290000020545478407F2844443838444444284B
:1002A000384444287F385454541800087E090218F2
:1002B000A4A49C787F0804047800447D400020407A
:1002C000403D007F1028440000417F40007C0478BE
:1002D00004787C080404783844444438FC18242406
:1002E0001818242418FC7C08040408485454542486
:1002F00004043F44243C4040207C1C2040201C3C03
:100300004030403C44281028444C9090907C4464F9
:10031000544C44000836410000007700000041368C
:10032000080002010204023C2623263C1EA1A16112
:10033000123A4040207A3854545559215555794144
:100340002154547841215554784020545579400C1B
:100350001E527212395555555939545454593955FC
:100360005454580000457C410002457D420001453F
:100370007C40F0292429F0F0282528F07C545545AC
:10038000002054547C547C0A097F4932494949323F
:100390003248484832324A4848303A4141217A3A54
:1003A00042402078009DA0A07D39444444393D401E
:1003B00040403D3C24FF2424487E4943662B2FFCCB
:1003C0002F2BFF0929F620C0887E09032054547979
:1003D000410000447D413048484A32384040227A4A
:1003E000007A0A0A727D0D19317D2629292F2826C7
:1003F0002929292630484D402038080808080808CF
:100400000808382F10C8ACBA2F102834FA00007B27
:10041000000008142A142222142A1408950022002D
:1004200095AA005500AAAA55AA55AA000000FF00E7
:10043000101010FF00141414FF001010FF00FF1024
:1004400010F010F0141414FC001414F700FF000056
:10045000FF00FF1414F404FC141417101F10101FD5
:10046000101F1414141F00101010F0000000001FC3
:10047000101010101F10101010F010000000FF10CE
:100480001010101010101010FF10000000FF1400CA
:1004900000FF00FF00001F10170000FC04F41414FC
:1004A0001710171414F404F40000FF00F7141414C8
:1004B00014141414F700F7141414171410101F1048
:1004C0001F141414F4141010F010F000001F101F6B
:1004D0000000001F14000000FC140000F010F010D9
:1004E00010FF10FF141414FF141010101F00000050
:1004F00000F010FFFFFFFFFFF0F0F0F0F0FFFFFF54
:100500000000000000FFFF0F0F0F0F0F38444438AA
:10051000447C2A2A3E147E02020606027E027E02E5
:1005200063554941633844443C04407E201E200604
:10053000027E020299A5E7A5991C2A492A1C4C7241
:1005400001724C304A4D4D303048784830BC625AC8
:10055000463D3E494949007E0101017E2A2A2A2A58
:100560002A44445F444440514A444040444A514034
:100570000000FF0103E080FF000008086B6B0836F5
:1005800012362436060F090F060000181800000066
:100590001010003040FF0101001F01011E00191D55
:1005A0001712003C3C3C3C0000000000F0F89C8E20
:1005B0008783878E9CF8F00000FEFF03030303038C
:1005C000070EFCF80000FEFF0303030303070EFC05
:1005D000F80000FFFF00000000000000FFFF000027
:1005E000FEFF8383838383C7EE7C380000F8FC0E14
:1005F00007030303070EFCF800003F7FE0C0808084
:10060000C0E07F3FFFFF01010101010101FFFF0089
:1006100000FFFF0C0C0C0C1C3E77E3C100007FFFB9
:10062000C0C0C0C0C0E0703F1F00001F3F70E0C0EE
:10063000C0C0E0703F1F00007FFFC1C1C1C1C1E366
:10064000773E1C00001F3F70E0C0C0C0E0703F1F3D
:10065000000000000001FFFF01000000D5F08D1434
:10066000A1C881CFD9F1AF2000000080C0C0E0E078
:10067000F0F0F8F8FCFCFEFEFFFFFFFFFFFFFEFEC0
:10068000FCF8E0FCFFFFFFFFFFFFFFFFFFFFFFFFA6
:10069000FFFFFFFFFFFFFFFF7F7F3F1F07000307F5
:1006A0000F0F1F1F1F1F1F1F0F0F0707030301013E
:1006B000000000000000001A15000000000080800B
:1006C000C0C0E0E0F0F0F8F8FCFCF4F4DC8CD8F00A
:1006D000E000000000FCBE3FFFFFFF7F7F7F3F3F49
:1006E0009F9FCFCF67673333181F070000000000BC
:1006F00003030706070606070303010100000000C5
:10070000000000000000003C7EFFFFFFFF7E3C0871
:1007100008003C725A3E160C000080C0C0E0E07039
:100720007038383C3E3E1E1E0000000101000000F3
:10073000000000000000000000100A00008080405F
:10074000402020101018141E18080000000000009F
:100750000000000000000000000000000080C0C099
:10076000E07070787C3C3E3F3F1E0C0001010101AF
:100770000000000000000000000000100A0000005F
:1007800080804020202010180C1E1E0C000000004D
:10079000000000000000000000000000008080C099
:1007A000E0E0F0F078787C7E7F7F7F3F1E030301DE
:1007B00001010000000000000000000000100A001D
:1007C0000080C0C060603030383C2C3F3F0C0C00D3
:1007D0000100000000000000000000000000000414
:1007E0000E1E3E7EFEFEFEFEFEFEFEFEFF3F0F00E4
:1007F000000000000103070F0F0F0F07010000109A
:100800000C0000020812044AD40A04020402010285
:1008100001000000000000000002040000000000D1
:10082000000C1E3E7EFEFEFEFEFEFEFEFEFFFF1FD5
:1008300003000000000001030707070F0F0300007B
:1008400000100C040616260E4EDE1E7EBE5EAE574F
:100850002F170100000000000000000102050A013E
:10086000000000000F1F3F7FFFFFFFFFFFFFFFFFA4
:10087000FFFF1F0000000000000103070F0F0F0F14
:10088000030000100C00020A12064ECE1E3E1E0E81
:100890000E0A060200000000000000000002040032
:1008A0000000000000F0F8FCFEFFFFFFFFFFFFFF6D
:1008B000FFFFFFFFFFFFFFFFFFFFFFFFFFFFFFFF48
:1008C000FFFF3F3F3F3F3F3F3F3F3F3F3F3F3F3FB8
:1008D0003F3F3F3F3F3F3F3F3F3F3F3F3F3F3F1D4A
:1008E0000EB0D86CF6DB0301010101010101030028
:1008F0000101010101010101010300010303172CA2
:10090000361B3E2A08000002000000000200000022
:100910000202000000000000020000FFFFFFFFFFD6
:10092000FFFFFFFFFFFFFFFFFFFFFFFFFFFFFFFFD7
:10093000FFFFFFFFFFFF1F1F1F1F1F1F1F1F1F1F87
:100940001F1F1F1F1F1F1F1F1F1F1F1F1F1F0F07DF
:10095000031B0D000000000000000000000000006C
:100960000000000000000000000000EF00FF1D1D5F
:10097000141D1D0D150B151B0D1D151D15141C1516
:100980001D0D150B151B0D04030C0C00F0FCFCFEDB
:10099000FEFEFEFCFCF00000000303070707070350
:1009A0000300000C0C000090089460609408900014
:1009B00000000000010200000201000000F0FCFE47
:1009C000FEFFFFFFFFFEFEFCF0000307070F0F0F07
:1009D0000F070703000C0C00F06CF46A9E9E6AF48B
:1009E0006CF0000000030205070705020300003C4D
:1009F0007EFFFFFFFF7E3C080800040E44004028F5
:100A000000000A152A55AA55AA55AA55AA55AA554D
:100A10000A0000000000000102050A050A050200A4
:100A200000100C00000000000000000000000000AA
:100A300000000000000000000000000000000000B6
:100A40000000001413E010B038787CFCFEFEFFFFBD
:100A5000FEFEFC7CF8387000003F4011A0214044AD
:100A600080A901FFFF005500AA005500000000000A
:100A7000000001000200000303000100000000006C
:100A800000F0F0F8F8FCFCFEFEFFFFFFFFFEFEFCAE
:100A9000FCF8F8F0F07F7FFFFFFFFFFFFFFFFFFF95
:100AA000FFFFFFFFFFFFFF7F7F000000000101034A
:100AB000030707070703030101000000001413E008
:100AC000103038787CFCFEFEFFFFFEFEFC7CF83820
:100AD0007000003F400080000000000101FFFF00A7
:100AE0005500AA00550000000000000001000200AF
:100AF0000003030001000000000000F0F0F8F8FC23
:100B0000FCFEFEFFFFFFFFFEFEFCFCF8F8F0F03FEE
:100B10003F7F7FFFFFFFFFFFFFFFFFFFFFFFFF7F25
:100B20007F3F3F00000000000001010303030301B9
:100B3000010000000000001412E0103038787CFC46
:100B4000FEFEFFFFFEFEFC7C7838B000001F200098
:100B500040008000000101FFFF00AA0055002A00AC
:100B60000000000000000000010000010100000082
:100B70000000000000F0F0F8F8FCFCFEFEFFFFFFB4
:100B8000FFFEFEFCFCF8F8F0F01F1F3F3F7F7FFFE9
:100B9000FFFFFFFFFFFFFF7F7F3F3F1F1F000000A2
:100BA0000000000000010101010000000000000041
:100BB000001411E0103038787CFCFEFEFFFFFEFED2
:100BC000FC7CF8387000000F10002000400080010D
:100BD00001FFFF0055002A00150000000000000082
:100BE000000000000000000000000000000000F015
:100BF000F0F8F8FCFCFEFEFFFFFFFFFEFEFCFCF839
:100C0000F8F0F00F0F1F1F3F3F7F7FFFFFFFFF7FB9
:100C10007F3F3F1F1F0F0F1410E0103038787CFC0F
:100C2000FEFEFFFFFEFEFC7C7838B00000070800E7
:100C3000100020004001017F7F002A0015000A00FB
:100C400000F0F0F8F8FCFCFEFEFFFFFFFFFEFEFCEC
:100C5000FCF8F8F0F007070F0F1F1F3F3F7F7F7F63
:100C60007F3F3F1F1F0F0F0707140FE0103038782A
:100C70007CFCFEFEFFFFFEFEFC7CF83870000003EB
:100C80000400080010002001013F3F0015000A0089
:100C9000050000F0F0F8F8FCFCFEFEFFFFFFFFFE91
:100CA000FEFCFCF8F8F0F0030307070F0F1F1F3FCF
:100CB0003F3F3F1F1F0F0F07070303140EE01030C5
:100CC00038787CFCFEFEFFFFFEFEFC7C7838B0002E
:100CD00000010200040008001001011F1F000A00AB
:100CE0000500020000F0F0F8F8FCFCFEFEFFFFFF3C
:100CF000FFFEFEFCFCF8F8F0F00101030307070F0C
:100D00000F1F1F1F1F0F0F070703030101140DE023
:100D1000103038787CFCFEFEFFFFFEFEFC7C78384D
:100D2000B00000000100020004000801010F0F00E4
:100D300006000300010000F0F0F8F8FCFCFEFEFFE6
:100D4000FFFFFFFEFEFCFCF8F8F0F00000010103DD
:100D50000307070F0F0F0F0707030301010000141C
:100D60000C60903038787CFCFEFEFFFFFFFEFCFC40
:100D70007878B000000000000100020004010107C3
:100D80000701020001000000007070F8F8FCFCFE92
:100D9000FEFFFFFFFFFEFEFCFCF8F8707000000095
:100DA0000001010303070707070303010100000017
:100DB00000140B205030B8787CFCFEFEFFFFFEFED6
:100DC000FC7CF83870000000000000000100020107
:100DD0000103030001000000000000140A0030308D
:100DE0007868FCF4BEFAFEFE7EFEB4FC5878303023
:100DF00000000000000000000101010101010000ED
:100E0000000000000030307878FCFCFEFEFFFFFFA1
:100E1000FFFEFEFCFC78783030000000000000018E
:100E200001030303030101000000000000140A0095
:100E300030307878FCFCFEFEFEFEFEFEFCFC78788E
:100E4000303000000000000000000101010101013C
:100E50000000000000000040400000000000000012
:100E6000000000000000800000A000002840801466
:100E70002A50021D40150B44118D2211550A136290
:100E80008A76820C7488209820A020C08000000000
:100E900000000000000000000000000000008000D2
:100EA00020008820020840001A4480112482002873
:100EB0004500944100540108A250044190258A2025
:100EC0004992254A291604A956004A5411A74C30C4
:100ED000CC9020400000000000000050A40A104206
:100EE000000842001041041041348A00204A954015
:100EF00015AA50144A2198422408228928024A152A
:100F000002504510408550080250050051AE541162
:100F1000EE12B54D32D4A0000000AD50002DD0002F
:100F20000A40015084002900400A902114820821BF
:100F30005284290450A54018E20055AA00EB9C6198
:100F4000947845926A04815001441100A40148003C
:100F50008B5628D7004803942000AA258A3842954A
:100F60002851A60002A90005500842102E40001585
:100F7000401205A0489225EA114DB249AA966A95F9
:100F8000AA55758A7DD2469420518CB244AA10820B
:100F9000280281500F50025500000002144922948B
:100FA0004115AA0052AC4015E20950A5559864B508
:100FB00040ECB960DAAE71CABD52A55AA857AA541E
:100FC0004BB4658B75AE491261448AB00BAA4812C6
:100FD0004094224C11240100000000000000000297
:100FE00005100429D422815CA2096A9552AD55AA44
:100FF00057B8679D6A6B965A55A65995669955AA32
:1010000095629D42B54C91AB542B54BA45142A05B8
:10101000000A0100000000000000000000000000C5
:1010200000000000000002010205080B12041B155D
:101030002659255A55251A65152A49328E215A24D2
:101040000B22080B0208020401040100000000004A
:101050000000000000000000000000000000000090
:101060000000000000000000000000000000000080
:101070000000000000000000000000000000000070
:101080000000000000000080C0E0F0F0F8F8FCFC78
:10109000FEFEFEFEFFFFFFFFFFFFFFFFFFFFFFFE65
:1010A000FEFEFEFCFCF8F8F0F0E0C080000000005E
:1010B0000000000000000000000000000000000030
:1010C0000000000000000000000000000000000020
:1010D0000000000000000000000000000000000010
:1010E0000000000000000000000000000000000000
:1010F000000000000000000000000000C0E0F8FC5C
:10110000FFFFFFFFFFFFFFFFFFFFFFFFFFFFFFFFEF
:10111000FFFFFFFFFFFFFFFFFFFFFFFFFFFFFFFFDF
:10112000FFFFFFFFFFFFFFFFFEFCF8E0C000000035
:1011300000000000000000000000000000000000AF
:10114000000000000000000000000000000000009F
:1011500080C0C0C0C0C0E0E0E0F0F0F0F0F0F0709F
:101160007070707070707078787878783C3C3C3C27
:101170003C3C3C3C3CFCFEFFFFFFFFFFFFFFFFFF52
:10118000FFFFFFFFFFFFFFFFFFFFFFFFFFFFFFFF6F
:10119000FFFFFFFFFFFFFFFFFFFFFFFFFFFFFFFF5F
:1011A000FFFFFFFFFFFFFFFFFEF878787878787089
:1011B000707070707070707070707070707070702F
:1011C00070E0C0C0C0C0C0C0808001010307070735
:1011D0000707070707070F0F1F1F1F1F1F1F1F3FAF
:1011E0003F3E3E3E3E3E3E3E3E3E3E3E3E3E3E3F1D
:1011F0007FFFFFFFFFFFFFFFFFFFFFFFFFFFFFFF7F
:10120000FFFFFFFFFFFFFFFFFFFFFFFFFFFFFFFFEE
:10121000FFFFFFFFFFFFFFFFFFFFFFFFFFFFFFFFDE
:10122000FFFFFFFF3F3C3C3C3C3C3C1E1E1E1E1F84
:101230001F1F1F1F1F1F1F0F0F0F0F0F0F0F0F0756
:10124000030303030300000000000000000000008F
:10125000000000000000000000000000000000008E
:10126000000000000000000000000000010F1F7FD0
:10127000FFFFFFFFFFFFFFFFFFFFFFFFFFFFFFFF7E
:10128000FFFFFFFFFFFFFFFFFFFFFFFFFFFFFFFF6E
:10129000FFFFFFFFFFFFFFFFFFFFFF7F1F0F0100AB
:1012A000000000000000000000000000000000003E
:1012B000000000000000000000000000000000002E
:1012C000000000000000000000000000000000001E
:1012D000000000000000000000000000000000000E
:1012E0000000000000000000000000010107071FCF
:1012F0001F3F7F7F7FFFFFFFFFFFFFFFFFFFFFFF1E
:10130000FFFFFFFFFFFFFFFFFFFFFFFF7F7F3F3F6D
:101310001F0F070301000000000000000000000094
:1013200000000000000000000000000000000000BD
:1013300000000000000000000000000000000000AD
:10134000000000000000000000000000000000009D
:10135000000000000000000000000000000000008D
:10136000000000000000000000000000000000007D
:10137000000001010101010101010101010101015F
:101380000101010101000000000000000000000058
:10139000000000000000000000000000000000004D
:1013A000000000000000000000000000000000003D
:1013B0000000000000007B31000000000000000081
:1013C000000000000000000000000000000000001D
:1013D000000000000000000000000000000000000D
:1013E0000000000000000040005080504094504435
:1013F00058AAAA6A94E9ACEA94D5A876AAEA9AE42B
:10140000B8A4D8C8B0A050C0808000000000000080
:1014100000000000000000000000000000000000CC
:1014200000000000000000000000000000000000BC
:1014300000000000000000000000000000000000AC
:10144000000000000000000000000000000000009C
:1014500000000000000000000000004000500451A7
:1014600084512455A85554A5D4B5E9AEB9ECADFACC
:10147000AEEABEE9BEEBBAEFBAEEABFEA9FEAAFF3A
:10148000AAFBAED9D6D5B4E8A8A080000000000021
:10149000000000000000000000000000000000004C
:1014A000000000000000000000000000000000003C
:1014B00040004080402020401040904050805040EC
:1014C000106010501040184808085004100810040C
:1014D000081004104410450855046924554155A2CC
:1014E000B56156D1A4F5A2F5A2F5A2F5A2EBEAAB3F
:1014F000EAABEAABEAABEAABEAABEAABEAABEAAB44
:10150000CACBCA4BCA85D004100808084808104046
:10151000104010401040104010402000500040008B
:1015200040004000004000000001000104010200F2
:10153000050005010504011405040514090C021435
:101540000004000000000000000000000000015442
:1015500001540155295595D5A5DDAA6DBDABBE6BCE
:10156000BEABFEABFEABFEAFFAAFFEABFFAEFBAF6A
:10157000FEBBEFBEFBAFFEBBEFBEEBBEEFBAEFBBF9
:10158000EE1B4A1000101000100810041000140088
:1015900014011401041104010401040104000401F4
:1015A0000001000100000000000000000000000039
:1015B000000000000000000000000000000000002B
:1015C00000000000000000000000000104114411B0
:1015D000451A4A4A166AABB6A9EE9BEAAFBAE6BB11
:1015E0006EAABFEABBAEFBAEEBBEEBBEEBBEEBBE84
:1015F000EBBEEBBEABFEABAEBB261205000000009F
:1016000000000000000000000000000000000000DA
:1016100000000000000000000000000000000000CA
:1016200000000000000000000000000000000000BA
:1016300000000000000000000000000000000000AA
:10164000000000000000000000000100050015017E
:10165000144116421A4A1649166A2B1A671A6D2A3D
:101660002D5AAEABB6AA5B2E2A5B2E0A1B060906C4
:101670000201000000000000000000000000000067
:10168000000000000000000000000000000000005A
:10169000000000000000000000000000000000004A
:1016A000000000000000000000000000000000003A
:1016B000000000000000000000000000000000002A
:1016C000000000000000000000000000000000001A
:1016D0000001000100010001000100010000000004
:1016E00000000100000000000000000000000000F9
:1016F00000000000000000000000000000000000EA
:1017000000000000000000000000000000000000D9
:1017100000000000000000000000000000000000C9
:1017200080C0E0E0F0F0F8F8FCFCFCFEFEFEFEFFFE
:10173000FFFFFFFFFFFFFFFFFFFFFFFEFEFEFEFCC0
:10174000FCFCF8F8F0F0E0C0C080000000000000F1
:10175000000000000000000000C0E0F0F8FCFEFF08
:10176000FFFFFFFFFFFFFFFFFFFFFFFFFFFFFFFF89
:10177000FFFFFFFFFFFFFFFFFFFFFFFFFFFFFFFF79
:10178000FFFFFFFFFFFFFFFFFFFFFFFEFCF8F0E0A2
:10179000800000000080F0FEFFFFFFFFFFFFFFFF63
:1017A000FFFFFFFFFFFFFFFFFFFFFFFFFFFFFFFF49
:1017B000FFFFFFFFFFFFFFFFFFFFFFFFFFFFFFFF39
:1017C000FFFFFFFFFFFFFFFFFFFFFFFFFFFFFFFF29
:1017D000FFFEF8E000FFFFFFFFFFFFFFFFFFFFFF3F
:1017E000FFFFFFFFFFFFFFFFFFFFFFFFFFFFFFFF09
:1017F000FFFFFFFFFFFFFFFFFFFFFFFFFFFFFFFFF9
:10180000FFFFFFFFFFFFFFFFFFFFFFFFFFFFFFFFE8
:10181000FFFFFFFFFE3FFFFFFFFFFFFFFFFFFFFF99
:10182000FFFFFFFFFFFFFFFFFFFFFFFFFFFFFFFFC8
:10183000FFFFFFFFFFFFFFFFFFFFFFFFFFFFFFFFB8
:10184000FFFFFFFFFFFFFFFFFFFFFFFFFFFFFFFFA8
:10185000FFFFFFFF0F0001071F7FFFFFFFFFFFFFDD
:10186000FFFFFFFFFFFFFFFFFFFFFFFFFFFFFFFF88
:10187000FFFFFFFFFFFFFFFFFFFFFFFFFFFFFFFF78
:10188000FFFFFFFFFFFFFFFFFFFFFFFFFFFFFFFF68
:101890003F0F0300000000000000000103070F1FBE
:1018A0003F7F7FFFFFFFFFFFFFFFFFFFFFFFFFFF08
:1018B000FFFFFFFFFFFFFFFFFFFFFFFFFFFFFFFF38
:1018C000FFFFFFFFFFFFFF7F7F3F1F0F07030100A9
:1018D0000000000000000000000000000000000008
:1018E00000000000010103030707070F0F0F0F1F80
:1018F0001F1F1F1F1F1F1F1F1F1F1F0F0F0F0F0750
:1019000007070303010100000000000000000000C1
:101910000000000000403D0000000000000000004A
:101920000000000000004000400050005080504483
:10193000904054409460945044905440548054409B
:1019400050805040104000400000000000000000A7
:101950000000000000000000000000000000401037
:101960004094405590655845545569B6EBAAFDAA78
:10197000EDBAF5ADFAAFEAB5F5BAE5B5FAEBAEF901
:10198000ADF4B5E9B6E9B5D4D5A8D5D4A0B44050E6
:101990008080000000000000000040144114491441
:1019A000651455A55AAD6D9D6D5D4FDEABFEAFFA6A
:1019B000AFFEAFFEAFBBEE9FEFAEFFABFEAFEEBF35
:1019C000ABFEAFAEFFAAFFAABFAADFAAAEDBAAB7E3
:1019D000AAAAAAA8A00000000051045184515524CD
:1019E00059ADAAD554D5B4EDBAEDBDEEBBEEBAEF04
:1019F000BAEFBAEEFFAAFFFAEEFBBEFAEDFEBAEFBF
:101A0000FEBBEEBBFEAAFEB5EEBBEEBAAEFAA6BAC0
:101A1000AAEA9A6A0A5200800005500548154559FD
:101A2000ADAAB7AADBAFBA6F3BEEBBEFBB7F6BBF14
:101A3000FBBFEFBBFFBFFB6FBFEBBFEFBBEFDFAB8E
:101A4000BFEFBBAFFFAB7FABFEAF6BBEAB6EBBA65A
:101A50005BAA265905480000000001041104550244
:101A6000550A56ABAEABDEAB6FAFBAEFAFFBAFFF15
:101A7000AEEFBEEFBFEEBBFEBAFABADEDAFEAFFFE4
:101A8000AFFEAFFFAEFFABFEAFBA6FBBAE5B265B88
:101A90002A05140100000000000000000000000101
:101AA000000500150016422A2B0A552A2AAD2A5E87
:101AB000292C5D2A2F5AABAE5B4A9F4A5B2E2B5ACC
:101AC0002FAAAEA9AE2A152A0A1504110401000195
:101AD0000000000000000000000000000000000006
:101AE00000000000000000000001000001000401EF
:101AF00000050005010402000500040104010401C1
:101B000004000000000001000000000000000000D0
:101B100000000000000000000000000000000000C5
:101B200000000000000000000000000000000000B5
:101B30000000000000000000008080C0C0E0E0F075
:101B4000F0F0F8F8F8FCFCFCFCFEFEFEFEFEFFFEEA
:101B5000FFFFFFFFFFFFFFFFFFFFFFFFFFFFFFFE96
:101B6000FEFEFEFEFEFCFCFCFCF8F8F8F0F0F0E0F7
:101B7000E0C0C08080000000000000000000000005
:101B80000000000000000000000000000000000055
:101B90000000000000000000000000000000000045
:101BA0000000000000000000000000000080C0C035
:101BB000E0F0F8F8FCFEFEFFFFFFFFFFFFFFFFFF76
:101BC000FFFFFFFFFFFFFFFFFFFFFFFFFFFFFFFF25
:101BD000FFFFFFFFFFFFFFFFFFFFFFFFFFFFFFFF15
:101BE000FFFFFFFFFFFFFFFFFFFFFFFFFFFFFFFF05
:101BF000FFFFFFFFFFFFFFFEFEFCF8F8F0E0E0C094
:101C00008000000000000000000000000000000054
:101C100000000000000000000000000000000000C4
:101C200000000000008080E0F0F8FCFEFFFFFFFFF6
:101C3000FFFFFFFFFFFFFFFFFFFFFFFFFFFFFFFFB4
:101C4000FFFFFFFFFFFFFFFFFFFFFFFFFFFFFFFFA4
:101C5000FFFFFFFFFFFFFFFFFFFFFFFFFFFFFFFF94
:101C6000FFFFFFFFFFFFFFFFFFFFFFFFFFFFFFFF84
:101C7000FFFFFFFFFFFFFFFFFFFFFFFFFFFFFFFF74
:101C8000FFFFFEFCF8F0E0C0800000000000000054
:101C90000000000000000000000000000000000044
:101CA000C0D0F0FCFEFFFFFFFFFFFFFFFFFFFFFFC5
:101CB000FFFFFFFFFFFFFFFFFFFFFFFFFFFFFFFF34
:101CC000FFFFFFFFFFFFFFFFFFFFFFFFFFFFFFFF24
:101CD000FFFFFFFFFFFFFFFFFFFFFFFFFFFFFFFF14
:101CE000FFFFFFFFFFFFFFFFFFFFFFFFFFFFFFFF04
:101CF000FFFFFFFFFFFFFFFFFFFFFFFFFFFFFFFFF4
:101D0000FFFFFFFFFFFFFFFFFFFEFCF8E0C000004A
:101D100000000000000000000000000080F0FCFE59
:101D2000FFFFFFFFFFFFFFFFFFFFFFFFFFFFFFFFC3
:101D3000FFFFFFFFFFFFFFFFFFFFFFFFFFFFFFFFB3
:101D4000FFFFFFFFFFFFFFFFFFFFFFFFFFFFFFFFA3
:101D5000FFFFFFFFFFFFFFFFFFFFFFFFFFFFFFFF93
:101D6000FFFFFFFFFFFFFFFFFFFFFFFFFFFFFFFF83
:101D7000FFFFFFFFFFFFFFFFFFFFFFFFFFFFFFFF73
:101D8000FFFFFFFFFFFFFFFFFFFFFFFFFFFFFFFC66
:101D9000F0C00000000000000040E8FDFFFFFFFF72
:101DA000FFFFFFFFFFFFFFFFFFFFFFFFFFFFFFFF43
:101DB000FFFFFFFFFFFFFFFFFFFFFFFFFFFFFFFF33
:101DC000FFFFFFFFFFFFFFFFFFFFFFFFFFFFFFFF23
:101DD000FFFFFFFFFFFFFFFFFFFFFFFFFFFFFFFF13
:101DE000FFFFFFFFFFFFFFFFFFFFFFFFFFFFFFFF03
:101DF000FFFFFFFFFFFFFFFFFFFFFFFFFFFFFFFFF3
:101E0000FFFFFFFFFFFFFFFFFFFFFFFFFFFFFFFFE2
:101E1000FFFFFFF8C0000000E8FFFFFFFFFFFFFF2C
:101E2000FFFFFFFFFFFFFFFFFFFFFFFFFFFFFFFFC2
:101E3000FFFFFFFFFFFFFFFFFFFFFFFFFFFFFFFFB2
:101E4000FFFFFFFFFFFFFFFFFFFFFFFFFFFFFFFFA2
:101E5000FFFFFFFFFFFFFFFFFFFFFFFFFFFFFFFF92
:101E6000FFFFFFFFFFFFFFFFFFFFFFFFFFFFFFFF82
:101E7000FFFFFFFFFFFFFFFFFFFFFFFFFFFFFFFF72
:101E8000FFFFFFFFFFFFFFFFFFFFFFFFFFFFFFFF62
:101E9000FFFFFFFFFFFC0011FFFFFFFFFFFFFFFF42
:101EA000FFFFFFFFFFFFFFFFFFFFFFFFFFFFFFFF42
:101EB000FFFFFFFFFFFFFFFFFFFFFFFFFFFFFFFF32
:101EC000FFFFFFFFFFFFFFFFFFFFFFFFFFFFFFFF22
:101ED000FFFFFFFFFFFFFFFFFFFFFFFFFFFFFFFF12
:101EE000FFFFFFFFFFFFFFFFFFFFFFFFFFFFFFFF02
:101EF000FFFFFFFFFFFFFFFFFFFFFFFFFFFFFFFFF2
:101F0000FFFFFFFFFFFFFFFFFFFFFFFFFFFFFFFFE1
:101F1000FFFFFFFFFFFFFF02FFFFFFFFFFFFFFFFCE
:101F2000FFFFFFFFFFFFFFFFFFFFFFFFFFFFFFFFC1
:101F3000FFFFFFFFFFFFFFFFFFFFFFFFFFFFFFFFB1
:101F4000FFFFFFFFFFFFFFFFFFFFFFFFFFFFFFFFA1
:101F5000FFFFFFFFFFFFFFFFFFFFFFFFFFFFFFFF91
:101F6000FFFFFFFFFFFFFFFFFFFFFFFFFFFFFFFF81
:101F7000FFFFFFFFFFFFFFFFFFFFFFFFFFFFFFFF71
:101F8000FFFFFFFFFFFFFFFFFFFFFFFFFFFFFFFF61
:101F9000FFFFFFFFFFFFFF00257FFFFFFFFFFFFFAA
:101FA000FFFFFFFFFFFFFFFFFFFFFFFFFFFFFFFF41
:101FB000FFFFFFFFFFFFFFFFFFFFFFFFFFFFFFFF31
:101FC000FFFFFFFFFFFFFFFFFFFFFFFFFFFFFFFF21
:101FD000FFFFFFFFFFFFFFFFFFFFFFFFFFFFFFFF11
:101FE000FFFFFFFFFFFFFFFFFFFFFFFFFFFFFFFF01
:101FF000FFFFFFFFFFFFFFFFFFFFFFFFFFFFFFFFF1
:10200000FFFFFFFFFFFFFFFFFFFFFFFFFFFFFFFFE0
:10201000FFFFFFFFFF3F00000001073FFFFFFFFF43
:10202000FFFFFFFFFFFFFFFFFFFFFFFFFFFFFFFFC0
:10203000FFFFFFFFFFFFFFFFFFFFFFFFFFFFFFFFB0
:10204000FFFFFFFFFFFFFFFFFFFFFFFFFFFFFFFFA0
:10205000FFFFFFFFFFFFFFFFFFFFFFFFFFFFFFFF90
:10206000FFFFFFFFFFFFFFFFFFFFFFFFFFFFFFFF80
:10207000FFFFFFFFFFFFFFFFFFFFFFFFFFFFFFFF70
:10208000FFFFFFFFFFFFFFFFFFFFFFFFFFFFFFFF60
:10209000FFFFFF1F030000000000000001070F3FCB
:1020A000FFFFFFFFFFFFFFFFFFFFFFFFFFFFFFFF40
:1020B000FFFFFFFFFFFFFFFFFFFFFFFFFFFFFFFF30
:1020C000FFFFFFFFFFFFFFFFFFFFFFFFFFFFFFFF20
:1020D000FFFFFFFFFFFFFFFFFFFFFFFFFFFFFFFF10
:1020E000FFFFFFFFFFFFFFFFFFFFFFFFFFFFFFFF00
:1020F000FFFFFFFFFFFFFFFFFFFFFFFFFFFFFFFFF0
:10210000FFFFFFFFFFFFFFFFFFFFFFFFFFFFFF3F9F
:102110000F030000000000000000000000000000AD
:102120000007071F7F7FFFFFFFFFFFFFFFFFFFFF8E
:10213000FFFFFFFFFFFFFFFFFFFFFFFFFFFFFFFFAF
:10214000FFFFFFFFFFFFFFFFFFFFFFFFFFFFFFFF9F
:10215000FFFFFFFFFFFFFFFFFFFFFFFFFFFFFFFF8F
:10216000FFFFFFFFFFFFFFFFFFFFFFFFFFFFFFFF7F
:10217000FFFFFFFFFFFFFFFFFFFFFFFFFFFFFFFF6F
:10218000FFFFFFFFFFFFFFFFFF7F3F1F0703000071
:10219000000000000000000000000000000000003F
:1021A00000000000000003030F0F1F7F7FFFFFFFF1
:1021B000FFFFFFFFFFFFFFFFFFFFFFFFFFFFFFFF2F
:1021C000FFFFFFFFFFFFFFFFFFFFFFFFFFFFFFFF1F
:1021D000FFFFFFFFFFFFFFFFFFFFFFFFFFFFFFFF0F
:1021E000FFFFFFFFFFFFFFFFFFFFFFFFFFFFFFFFFF
:1021F000FFFFFFFFFFFFFFFFFFFFFFFFFFFFFFFFEF
:10220000FFFF7F3F1F0F07030100000000000000D9
:1022100000000000000000000000000000000000BE
:1022200000000000000000000000000000000103AA
:1022300007070F1F1F3F7F7FFFFFFFFFFFFFFFFF0E
:10224000FFFFFFFFFFFFFFFFFFFFFFFFFFFFFFFF9E
:10225000FFFFFFFFFFFFFFFFFFFFFFFFFFFFFFFF8E
:10226000FFFFFFFFFFFFFFFFFFFFFFFFFFFFFFFF7E
:10227000FFFFFFFFFFFFFF7F7F3F1F1F0F070703CA
:10228000010000000000000000000000000000004D
:10229000000000000000000000000000000000003E
:1022A000000000000000000000000000000000002E
:1022B0000000000000000000000001010303070708
:1022C0000F0F0F1F1F1F3F3F3F3F7F7F7F7F7F7F8E
:1022D000FFFFFFFFFFFFFFFFFFFFFFFFFFFFFF7F8E
:1022E0007F7F7F7F7F3F3F3F3F1F1F1F0F0F0F07E6
:1022F00007030301010000000000000000000000CF
:1023000000000000000000000000000000000000CD
:1023100000000000000000808000000000000000BD
:1023200000000000000000000000000000000000AD
:1023300000000000000000000000008000C0C0603D
:1023400060D0B0E058F028ECB04CA05E40DA26E84F
:102350009768D3AC51E4936C92699670CD12642A5D
:10236000548238825408A448A008500090400020AD
:10237000800000800000000000000000000000005D
:10238000000000000000000000000000000000004D
:10239000000000000000000000000000000000003D
:1023A00000000000000000000000000000000080AD
:1023B0004080609068904CB24CB346BBC5A9D6C96A
:1023C00055EAD6BB669DEB32EDB36E51BB56F54D6B
:1023D000B9665D13DF126DA7DE75DFB5AA574855E4
:1023E00048D2A05AA0CA00FE41B441821440055010
:1023F0008A40144088220088004400000040000009
:1024000000000000000000000000000000000000CC
:1024100000000000000000000000000000000000BC
:10242000000000000000008000E01028D41A659A27
:102430002DD26D937C4B2CD33EC13F41ED3255BA2A
:10244000491F60B74A33CCB34CA35DA04EB14A9547
:10245000E815628934C22B518550A54A21DD21D669
:10246000916EC956ED936E81AB24C912A15245906D
:102470004214A10A508A24224802540022082080D3
:10248000090020004400200000008000000000003F
:10249000000000000000000000000000000000003C
:1024A0000000C0D0B0EC620932441146902D12E514
:1024B0001BE4AB704D907A589A62D926C932C9563E
:1024C00021094007FD56BBFE45BF6AD5BED52BFC92
:1024D000855BAA05FA85DBB5D6A93EE5BDFEABF660
:1024E0005DF62BD72AD525DA25C812ED006D914A65
:1024F000112A44A9224895208522490025801042AE
:10250000009042002000024000000800002000006F
:10251000000000000000000000000000000080F04B
:10252000DCF65FFFB6FCC1F4F9F4E1C8C2D480A9BF
:10253000C460DDFAADFFBBEEEBBEF5CB76897EA8BD
:10254000D5BAA8769DF3ACDB25DDB36C9B6C936E9E
:1025500089768C638CF32DFAA67FFFD5FFB75D36A5
:10256000DB24DB649B645BD425BAC53AE58A5087DB
:1025700050852882488128C214C03DC03E80354A1B
:102580001108228009200004000000012000000042
:10259000040080000000000000000040E87DF7FE1D
:1025A000BBFDDFFFBDFFEFBFFDDFFFFE6EBB051F05
:1025B000D2BFDDAFFEDB77FFD67FFEE301831E25B2
:1025C0003A770C3BE59A6ED9A75ABF65BB6D9B76EF
:1025D000A95FD4BB65DB72DDF295EF52B7EC917F5A
:1025E000D8F5DAEDD2BD62ADF28CFAA55AE4BB564D
:1025F000ED5BB6699629CA354A15EA0550AA44101A
:10260000A1008410400210000240000000080000F9
:1026100080040000002000000000E8FFEF7DFFFFC5
:102620007FFAAFFEF7FF7DFFDFFBBFFAD77F8000A9
:102630001FF4AFFAAFFD6FFDBFFBDFFFFE7DECDCEB
:10264000F6DEF9B46830010101D1A18065418453FF
:10265000871AAF5DF72DFFB56FBA6FD33F5AAD53F1
:102660005F966D967D8B778F7C0B3E051F251B65D6
:102670008823DC279C730C73AD52AC538826110859
:1026800002802400020001008010440120000400A8
:1026900000001000800022000011FFFEDBAFFFD71A
:1026A000ADB7FF5BFEAFFBD7FEEBFDEEFBFFF6B871
:1026B000FB98FFCFFA5F6F7F2B1F2D9F0F0B0F0E25
:1026C0000B030001100000100004104411B3481364
:1026D000F48D72DEFBAF5A7FB6EDDB75DDABBF4428
:1026E0001F2C1704030241002000000021001040AD
:1026F0000764924A4489A4518429822984118A2436
:1027000090002000000008200420040010000800B1
:10271000000000080000800400027DE7DA2DF6FFCB
:10272000EAFFF6ADFBA47FE79B7FB7EDFFFFBFF2AB
:10273000FDBFFE7FBBFCAE7EF41C0C00800342009C
:102740000120000004A1001005000900040825C0B4
:1027500037C5ADB5C4B2E0BD52FD976F916E022989
:102760000000004080400250404000805080440003
:10277000FA01FC8232C43A44920084000608040242
:102780002090000210008900040040110000011098
:1027900000000800040000000000254B1CE30DFAB7
:1027A0000FABBF5FFF685FEB7EC5BFE4D7BFFDAF78
:1027B000FA5F739F6A150A43100004004000280066
:1027C00020800801A08050408090249910D02EAD28
:1027D0009B56EDD824D50A762BFCE2AAC1FAA0ECD0
:1027E000B5A04A9020D641D053A0012824C910C1D9
:1027F00034E18A74834C318E301C400920800440BF
:1028000002001000924000240001480000009100E6
:10281000000000200400400200000001052A55AA23
:1028200055AA542BD42749B54B9456BF7BDFAA0F2A
:1028300022C8120824015000228029500420030AD3
:102840008F087F2DF18054C1E0C2A8C01600230C70
:102850001A09882B14610751452A1726232B127554
:102860000F39E51E722D4B9E61876CD10EB10EF4AF
:102870000BB44B242B0429021400018822000A10F7
:102880008008020080001104000200000000100017
:1028900000800200001000000000000000000105A0
:1028A0000A35EA15EA11EE11E41BD4E35DE22CD9F6
:1028B0006E4CB548459002C8A40012C0098420009F
:1028C000084080080063810B01234D42578267A2B4
:1028D00005502484690244305424801290285120E9
:1028E0001168089A00A5925193D40142882041A40E
:1028F000412288200000220004210000000800047A
:1029000000008100000000004000200001001000D5
:1029100008000400000000000000000000000000AB
:1029200000000005030E5936E9D6AAD5FE51EF8501
:10293000530D4318B20850AD50FFAA0450A01D50CB
:102940000A100149048420461AA42225C006214801
:10295000A40348A410852040094804482089082180
:10296000248128A1052A540B542D831EA05A245AD1
:10297000042B5422992840A440020040012000006A
:1029800001008000400020000800840000010000D9
:102990000000000000000000000000000000000037
:1029A000000000000000000002000B021F571F750E
:1029B000AF50B56A6648555E99364D9366C8A0C457
:1029C000914085105304AA01244A31D620ABA88532
:1029D0003AA04C10AA9420C5104BA011A44AA912E9
:1029E0006508D6208A6504218C2208421004A00ABA
:1029F000009001104001100002004500040040005A
:102A00000420000800040000020000000000000094
:102A100000000000000000000000000000000000B6
:102A200000000000000000000000000000000000A6
:102A300000020003040B0A1E2837C9A4A15A220968
:102A400052254195274A8E28549930B4304470421B
:102A500060C49180A6009249000A2085002A0008DF
:102A6000A11440148A4001500482104104200A003D
:102A70000820020800840100100004000200000089
:102A80000002000000000000000000000000000044
:102A90000000000000000000000000000000000036
:102AA0000000000000000000000000000000000026
:102AB0000000000000000000000000000001000312
:102AC000000106000A0508051A00152A200E112229
:102AD0001540280112238205130648060C100D220A
:102AE0001044100208000402100004000008010055
:102AF00000040001000000000000000000000000D1
:102B000000000000000000000000000000000000C5
:102B1000000000000000000000804055ABFF06FCF4
:102B20000000200055ABFF06FC55AAFD07F717D79C
:102B300097F706FC55AAFD07F71797E604F8A0C01B
:102B40006060606060C000000800000000000000DD
:102B5000000010200000000200000000000400003F
:102B60001000012A258F1A7D36ACA5AC9AD8D0C0AA
:102B7000C0C0C2C0C0C0808080828480800000103D
:102B8000000002000810004080000000000020004B
:102B90000004080000000000001000050A1F608FFC
:102BA000903830383D9A8F601F55AAFF00FB0A5BB2
:102BB000AAFB00FF55AAFF00FB0A0B090807AACFD2
:102BC00050262D0D19F10000000000000000010446
:102BD000082040800000000400000001000080C0C8
:102BE000C0E07070F8FCFEFEDFFF5FFF5FFF7FFF5D
:102BF000FFFFFFFFFFFAFFEBFFEBFFEF7F7D7B7334
:102C000067CBD6AAFEFEFEFCCCFCFC000000000058
:102C1000000000000020400000000000A8FC0C089C
:102C200030C1E171310C0CF800A8FC0DF901000075
:102C3000A8FD0DF90028719D8D2C2C48B000143989
:102C4000ADED0DED2D3800000001000000004080CA
:102C5000000000010208181C1C1C1E3E3F3F3F7F65
:102C60007F7FFDFBF4EAF4F9F3CFFFFFFDFFF5FFF3
:102C70007FBFDFEFF7FB7BFDFDFEFE1E1F0F2777FB
:102C80002707064E9F3D7DFF9B3FFFC000000100D0
:102C90000000000000000000004000000A1F101F9C
:102CA000020404021F10101F00020B04081112136B
:102CB00011080423000A1E141613100C0300000050
:102CC0000A1F101F000000000000000102000000A9
:102CD00000020C0C000000000000102000000000AA
:102CE000000000000001018103030307070F0F1C10
:102CF0001F1F1F3F3F3E7F7F7F7FEFCFDEFEFCF831
:102D0000FAF0B060C0C498838FFFFFFFFC000000A2
:102D1000000000008408000000000055AA55FB0FC9
:102D2000EF2F2F2F2F2F2F2F2F2F2F2EAD6ADCB805
:102D300070E50B55AB7FEE0DEA3C55AA55FB0FEF46
:102D40002F2F2F2F2F2F2F2F2F2E2D2A2C3800559E
:102D5000AB57FE0CF800000000000000000000006F
:102D60000000204000000000010000000000000002
:102D70000010000000000000000000000000010141
:102D800001030303030707070F0F0F1C1F1F00009A
:102D9000000000000000606000000055AA55FF0020
:102DA000FF0000000000408000000000AA55AAFFBC
:102DB00000FF0055AA55FF00FF0055AA55FF007FF0
:102DC000407878787878787060C00002000000550C
:102DD000AA55FF00FF0000000400000000000000F2
:102DE00000000000000000000008000000000000DB
:102DF00000000000000000000102000000000000D0
:102E000000020000000000000000000000000000C0
:102E1000000000000000008000000055AA55FF00DF
:102E2000FF0000004000000000000000AA55AAFFBB
:102E300000FF0055AA55FF00FF0055AA55FF00FFEF
:102E40000101010101210101010100000000005503
:102E5000AA55FF00FF000000000000000002000073
:102E6000000000004000000000000810000000000A
:102E7000000000000000000000000000040000004E
:102E8000000000000000000000000000040000003E
:102E90000000000000000000010000152A55FF801E
:102EA000BFA0BCBCBCBCBCBCBCBCBCBCBAB5DAEF33
:102EB000703F2855AAF5BF80BFE0152A55FF80BF97
:102EC000A0BCBCBCBCBCBCBCBCBCBCB8B0E00014AE
:102ED0002855EBB2E30000000000040800000000E9
:102EE00000000000000001020C0C000000000000C7
:102EF00000000000000000080000000000000000CA
:102F000000000000081000000000000000000000A9
:102F10000000000200083030000000080B00020230
:102F20000200000904000001020200000524001054
:102F300001052401010104240206052406000107FD
:102F400005810310004009040100020A0000000787
:102F50000502024000000705830240000004030947
:102F60000412010002EF02014041233780000101F9
:102F700002030141726475696E6F204C4C4300413D
:102F8000726475696E6F204D6963726F0000F4247E
:102F900011241FBECFEFDAE0DEBFCDBF11E0A0E00D
:102FA000B1E0E6E3FFE602C005900D92A639B10755
:102FB000D9F729E0A6E9B1E001C01D92A437B20714
:102FC000E1F717E1C8ECD7E104C02197FE010E94A8
:102FD0009337C73CD107C9F70E9421250C94993734
:102FE0000C9400008091A4010895E0E1F5E0A0E0D8
:102FF000B8E000800EBC8111012C1197A0FDFDCF1F
:103000000192B9F70DB40895FC0180910F05882352
:1030100011F13FB7F89482E08093E9002091F2002B
:10302000822F90E01816190614F481E090E08823AE
:1030300039F0289A44E640930E054091F100408310
:10304000222339F02091F200211103C02BE62093B6
:10305000E8003FBF08958FEF9FEF08952FB7F894D2
:1030600083E08093E9009091E800892F807295FFBA
:1030700004C09091F20080E4891B2FBF08958091D5
:10308000060581110DC082E08093020584E08093E3
:103090000305109205051092040581E08093060552
:1030A00082E095E00895CF93DF931F92CDB7DEB70E
:1030B0006983DC01ED91FC910280F381E02D41E018
:1030C00050E0BE016F5F7F4F09950F90DF91CF9168
:1030D000089583E08093E9008091F200882319F03D
:1030E0008AE38093E80008950E942E1890E00895E6
:1030F000CF93DF931F92CDB7DEB7FC018485958512
:1031000097FD08C02FEF3FEF358724870F90DF91A1
:10311000CF910895CE0101960E940418019719F4E9
:10312000898190E0F3CF8FEF9FEFF0CF0F931F9344
:10313000CF93DF931F92CDB7DEB78C01FC0184855E
:10314000958597FF0BC0CE0101960E940418019748
:1031500071F4898190E0F80195878487F80184856E
:1031600095850F90DF91CF911F910F9108958FEF6B
:103170009FEFF1CFFC018485958597FD0BC09FB72C
:10318000F89482E08093E9008091F2009FBF90E084
:10319000019608959FB7F89482E08093E9008091AA
:1031A000F2009FBF90E008954091FC045091FD040F
:1031B0002091FA043091FB0442175307B4F4909124
:1031C000E8009570E1F39091E80092FD19C08093BA
:1031D000F1008091FC049091FD0401968F73992772
:1031E000892B19F48EEF8093E8008091FC04909174
:1031F000FD0401969093FD048093FC0481E0089502
:1032000080E00895DF92EF92FF920F931F93CF9388
:10321000DF93D82E8A01EB017B01E40EF51ECE155B
:10322000DF0559F0D7FE12C0FE0184910E94D41828
:1032300021968111F4CF0FEF1FEFC801DF91CF91DD
:103240001F910F91FF90EF90DF9008958881EECF4E
:103250000F931F93CF93DF931F92CDB7DEB782E01A
:10326000898342E450E06BE17FE280E80E9402192A
:103270000E943F18DC0112960D911C910115110559
:1032800089F0D801ED91FC910280F381E02DBE011F
:103290006F5F7F4FC801099597FD04C0F801008555
:1032A0001185ECCF89810F90DF91CF911F910F9104
:1032B0000895615030F02091F100FC0120830196C7
:1032C000F8CF289A84E680930E0508953FB7F894C6
:1032D0008091F6049091F704A091F804B091F9045C
:1032E00026B5A89B05C02F3F19F00196A11DB11D61
:1032F0003FBFBA2FA92F982F8827BC01CD01620F9D
:10330000711D811D911D42E0660F771F881F991F57
:103310004A95D1F708958F929F92AF92BF92CF9224
:10332000DF92EF92FF926B017C010E9466194B01C4
:103330005C01C114D104E104F104B9F00E946619E2
:10334000681979098A099B09683E734081059105CE
:1033500080F321E0C21AD108E108F10888EE880E56
:1033600083E0981EA11CB11CE4CFFF90EF90DF908A
:10337000CF90BF90AF909F908F9008958F929F9223
:10338000AF92BF92CF92DF92EF92FF920F931F9373
:10339000CF93DF936C017B018A0180911401882314
:1033A00009F45CC080910F05882309F457C080910F
:1033B000010580FF05C08091E00082608093E000FD
:1033C000E801B12C8AEFA82E93E0892E2AE3922EF1
:1033D000209711F4BB20D9F10E942E1881110AC048
:1033E000AA94AA20D9F161E070E080E090E00E9408
:1033F0008B19EECF8C171D0611F00CF08C2F9FB798
:10340000F8948092E9002091E80025FD02C09FBF5A
:10341000DFCF282F30E0C21BD30BF701815020F003
:1034200041914093F100FACFE20EF31EBB2021F050
:103430009092E800B12CEBCF8091E80085FDE7CFBA
:103440009092E800BB24B394209709F3F3CF5D9AE0
:1034500084E680930005101611063CF081E090E0B0
:10346000F6019383828310E000E0C801DF91CF91E1
:103470001F910F91FF90EF90DF90CF90BF90AF9092
:103480009F908F900895AF92BF92CF92DF92EF926C
:10349000FF920F931F93CF93DF936C017B018B01FE
:1034A000040F151FEB015E01AE18BF08C017D1074E
:1034B00059F06991D601ED91FC910190F081E02DD8
:1034C000C6010995892B79F7C501DF91CF911F912D
:1034D0000F91FF90EF90DF90CF90BF90AF90089545
:1034E00020919D01E0919B01F0919C01CF010296FA
:1034F00090939C0180939B01222319F085919491D4
:103500000895808191810895CF92DF92EF92FF928A
:10351000CF93DF930E94701A811520E8920791F4EF
:10352000809171008D7F8093710010929100469878
:10353000479810929A01DF91CF91FF90EF90DF9022
:10354000CF90089521E020939A01813020E89207DE
:1035500051F4809198019091990190939C018093EE
:103560009B010E94701A97FD05C0209197012223AC
:1035700009F454C020919601211150C021E02093FC
:103580009E01EC01DF77209709F04BC081E080932A
:103590009F0146983FE9C32E3FE0D32EE12CF12C4A
:1035A000CAEFD0E0E0916E09F0916F0909958111A1
:1035B00003C081E080939F0180919E01882329F0C0
:1035C00080919F01882309F43FC047980E94701A98
:1035D0000097F1F19C01DE010E945C37DC01CB0118
:1035E00029E0B595A795979587952A95D1F71092DB
:1035F00090002AE020939100D0929900C092980008
:103600008093A0019093A101A093A201B093A30184
:10361000809171008260809371008DCF10929E0125
:10362000B0CF9E0150E040E060E472E48FE090E0B3
:103630000E94083769017A0181E0C81AD108E108BF
:10364000F10810929F01AECF4699BFCF479ABECFE7
:103650008FEF9FEFDC01CBCF9C01E1E7F0E09081A1
:103660009D7F908310929D01E0E6F9E0F0939C012C
:10367000E0939B01F0939901E093980131832083BB
:103680007383628380E090E8958384830C94841A2A
:103690004F925F926F927F928F929F92AF92BF9262
:1036A000CF92DF92EF92FF920F931F93CF93DF930E
:1036B0004C015901FC2DC02FD0E0CE01880D991D81
:1036C000181619060CF06CC020E8821691040CF054
:1036D00067C09B012E0D311D121613060CF060C041
:1036E000603471050CF05CC04115510509F458C0F7
:1036F000E62FE770FE2EDB0177FD179633E0B595D8
:10370000A7953A95E1F73A2F77FF04C0FF2011F013
:103710003FEF3A0F662777276819790997FC02C0AF
:1037200070E060E0803891050CF44BC090E8981987
:10373000961BA32F032E000CBB0B1A2F10953F3F97
:103740000CF010E021E08E2D877009F420E0E69463
:10375000E694E694E20EAE0DB11D19971CF028E038
:10376000E22EE31AE11A310F20E83203D0011124CE
:10377000A80DB91DA60FB71F019F600D711D112463
:10378000460F571F0F2D0F2C000C110BF33009F4AF
:103790001CC1C8F4F13009F4D0C0F23009F47CC087
:1037A000DF91CF911F910F91FF90EF90DF90CF901D
:1037B000BF90AF909F908F907F906F905F904F9051
:1037C0000895902FB5CFFA3FB1F1232F2E0DFB3F77
:1037D00039F7321729F3BD01605F7A4FD12CC12C24
:1037E000C91608F0A4C0FA01EC0DFD1DE491F0E04B
:1037F0004F01002E02C0880C991C0A94E2F737FD95
:1038000006C0FB018081E82CE0948E218083FF209C
:1038100061F0373054F45B01F0E8AF0EB11CE92CD5
:10382000E094F50180818E218083FFEFCF1ADF0ABB
:103830006F5F7F4FD5CF232F2E0D321709F4B0CFF6
:10384000BD01605F7A4FD12CC12CC91608F069C048
:10385000FA01EC0DFD1DE491F0E04F01002E02C0D5
:10386000880C991C0A94E2F737FD04C0FB018081A3
:1038700088298083FF2051F0373044F45B01F0E861
:10388000AF0EB11CF501808189298083FFEFCF1A2B
:10389000DF0A6F5F7F4FD9CF6FEF70E00F2C02C050
:1038A000660F771F0A94E2F760957095772E232FA5
:1038B0002E0D321709F474CFFD01E05FFA4F6F014E
:1038C000B12CA12CA91638F5FA01EA0DFB1DE491E3
:1038D000F0E02F01002E02C0440C551C0A94E2F7C0
:1038E00037FD05C0F6018081862384298083FF206F
:1038F00059F037304CF44601F0E88F0E911CF4017A
:103900008081872185298083FFEFAF1ABF0A8FEF5F
:10391000C81AD80AD7CF3F5F4C0F5D1FA058BF4FC2
:10392000C8CF3F5F4C0F5D1FA058BF4F86CF3F5F92
:103930004C0F5D1FA058BF4F4CCF6A0D7B1D232F2E
:103940002E0D321709F42CCFFD01E05FFA4F6F0105
:10395000B12CA12CA91688F5FB01EA0DFB1D849062
:10396000912C002E02C0880C991C0A94E2F78094D6
:103970009094FA01EA0DFB1D6490712C002E02C098
:10398000660C771C0A94E2F737FD05C0F6018081CA
:10399000882186298083FF2049F037303CF4F601E6
:1039A000E058FF4F8081892187298083FFEFAF1A7C
:1039B000BF0A8FEFC81AD80ACDCF3F5F4C0F5D1FEB
:1039C0006C0F7D1FA058BF4FBCCFC92ED12CFA0160
:1039D000E60FF71FA05FBA4F00E810E00C191D09B1
:1039E000CC19DD09BE01660F771F41E050E06A0186
:1039F0000F2C01C0CC0C0A94EAF7592F2E2D792EEA
:103A0000CF93DF93ED01EF96EF9622968590A590E8
:103A1000FF2059F08C9C4001AC9C500137302CF4B5
:103A2000E880B094EB20E928E99233233AF0EC9057
:103A3000A094EA20E828ED920C941F1D11965A9547
:103A400029F72A9551F0572D33951124E60FF11DD2
:103A5000A00FB11DC00FD11DD9CFDF91CF9111247F
:103A60009FCECF92EF920F93FA0104913196E4909A
:103A70004E5F5F4FCC24C3940E94481B0F91EF9080
:103A8000CF9008952D9A0895BC0190E080E00C94A9
:103A90008B198FB18095807F669B88601C9B8460AA
:103AA000089580E0E0E1F5E081118FEF002481933B
:103AB0008193819381930394D1F71092D70110924F
:103AC000D6011092D9011092D8010895EF92FF9279
:103AD0000F931F93CF93DF93CDB7DEB72C970FB61D
:103AE000F894DEBF0FBECDBF49835A836B837C83BE
:103AF0009E83EF82F88609871A872B873C87298166
:103B00003A814F815885820F932F911D481759078D
:103B1000D4F48B85840F952F911D281739079CF4B9
:103B20004B815C8169857A858E81840F952F911DEB
:103B30006817790744F42C85260F372F311D81E053
:103B4000421753070CF080E02C960FB6F894DEBFB6
:103B50000FBECDBFDF91CF911F910F91FF90EF90DE
:103B60000895CF93C82F0E94491D982F9C2381E070
:103B70009C1380E0CF91089580E00C94F517803875
:103B80009105B8F460347105A0F420E191E061FD85
:103B900094E060FD990F62FD9295687F269FD001A9
:103BA0001124A80FA05FBA4F8C9140FF03C0892B4E
:103BB0008C93089590958923FBCF8F929F92AF921B
:103BC000BF92CF92DF92EF92FF920F931F93CF930A
:103BD000DF936D3089F0C090D601D090D7016A3064
:103BE000D1F41092D9011092D80188E0C80ED11CEE
:103BF000D092D701C092D60181E090E0DF91CF91C1
:103C00001F910F91FF90EF90DF90CF90BF90AF90FA
:103C10009F908F9008950091D8011091D901E5E00F
:103C20006E9FE0011124C455DF4F4801F12CF5E0EF
:103C3000E12CFF1629F0CE010196FE01E490EC0183
:103C4000B12CA12C4E2D4170B6016A0D7B1DC40113
:103C50000E94BF1DE694FFEFAF1ABF0A88E0A816C6
:103C6000B10481F7F394EFEF8E1A9E0AF6E0FF128B
:103C7000DECF0A5F1F4F1093D9010093D801BCCF4C
:103C800024E132E04FE454E081E090E0F901E80FF4
:103C9000F91F1082FA01E80FF91F1082019688308F
:103CA0009105A1F7275F3F4F475F5F4F82E02B39B8
:103CB000380751F7109200021092E3041092E401C9
:103CC0001092C402109201021092E4041092E501D5
:103CD0001092C502109202021092E5041092E601C1
:103CE0001092C6021092F00408958091E3048111AD
:103CF00016C081E08093E30480910501885F809382
:103D000008028091060180930402809108018823B3
:103D100031F067E070E083E992E00E942C1B809113
:103D2000E40481111AC08091E1048330B1F481E090
:103D30008093E40480910501885F8093090280915B
:103D400006018093050280910801882331F067E025
:103D500070E08AEB92E00E942C1B8091E5048111B7
:103D60001AC08091E1048630B0F081E08093E504D0
:103D700080910501885F80930A02809106018093FB
:103D8000060280910801882331F067E070E080E14D
:103D900093E00C942C1B089580910801882331F046
:103DA0006EE170E08DE299E00E942C1B8091EC04A2
:103DB0009091ED0401979093ED048093EC04892B8E
:103DC00051F480910801882331F06CE271E085E2C2
:103DD00090E00E942C1B2091050130E080910601AB
:103DE00090E0E4ECF1E0A0EBB1E0219331938D930E
:103DF0009D9341E0E63DF407C1F708952091F50158
:103E00003091F6018091FD019091FE013093D10136
:103E10002093D0019093BD018093BC013093D301D6
:103E20002093D2019093BF018093BE013093D501BE
:103E30002093D4019093C1018093C0018091080127
:103E4000882331F062E370E081E290E00E942C1B55
:103E50001092020208952091F3013091F4018091B3
:103E6000FB019091FC013093CB012093CA01909308
:103E7000B7018093B6013093CD012093CC0190938C
:103E8000B9018093B8013093CF012093CE01909374
:103E9000BB018093BA0180910801882331F062E36D
:103EA00070E081E290E00E942C1B109201020895C4
:103EB0002091F1013091F2018091F9019091FA0184
:103EC0003093C5012093C4019093B1018093B00158
:103ED0003093C7012093C6019093B3018093B20140
:103EE0003093C9012093C8019093B5018093B40128
:103EF00080910801882331F062E370E081E290E074
:103F00000E942C1B109200020895809100028130C3
:103F1000B1F48091AA01843091F48091F1019091E3
:103F2000F20102979093F2018093F1018091F901DF
:103F30009091FA0102979093FA018093F901809190
:103F400001028130B1F48091AB01843091F4809111
:103F5000F3019091F40102979093F4018093F3019F
:103F60008091FB019091FC0102979093FC0180935A
:103F7000FB01809102028130B1F48091AC01843068
:103F800091F48091F5019091F60102979093F601DA
:103F90008093F5018091FD019091FE01029790932D
:103FA000FE018093FD010895809100028130B1F4FB
:103FB0008091AA01833091F48091F1019091F201F6
:103FC00002979093F2018093F1018091F901909111
:103FD000FA0101969093FA018093F9018091010210
:103FE0008130B1F48091AB01833091F48091F30181
:103FF0009091F40102979093F4018093F3018091E2
:10400000FB019091FC0101969093FC018093FB01D0
:10401000809102028130B1F48091AC01833091F43F
:104020008091F5019091F60102979093F6018093AB
:10403000F5018091FD019091FE0101969093FE01A2
:104040008093FD010895809100028130B1F4809148
:10405000AA01823091F48091F1019091F2010197CF
:104060009093F2018093F1018091F9019091FA010E
:1040700001969093FA018093F901809101028130B9
:10408000B1F48091AB01823091F48091F301909171
:10409000F40101979093F4018093F3018091FB0167
:1040A0009091FC0101969093FC018093FB0180911B
:1040B00002028130B1F48091AC01823091F48091A0
:1040C000F5019091F60101979093F6018093F50127
:1040D0008091FD019091FE0101969093FE018093E5
:1040E000FD01089580910002813019F58091AA01A7
:1040F0008130F9F48091C202813099F48091F1010C
:104100009091F20102979093F2018093F1018091D6
:10411000F9019091FA0101969093FA018093F901C7
:1041200008C0833059F3853049F3873039F389303B
:1041300029F380910102813019F58091AB01813022
:10414000F9F48091C202813099F48091F301909149
:10415000F40102979093F4018093F3018091FB01A5
:104160009091FC0101969093FC018093FB0108C0A3
:10417000833059F3853049F3873039F3893029F397
:1041800080910202813019F58091AC018130F9F4FF
:104190008091C202813099F48091F5019091F601ED
:1041A00002979093F6018093F5018091FD01909123
:1041B000FE0101969093FE018093FD0108C08330BB
:1041C00059F3853049F3873039F3893029F308955D
:1041D000089590E080E008958F929F92AF92BF92F1
:1041E0000F931F93CF93DF93CDB7DEB7A1970FB691
:1041F000F894DEBF0FBECDBF19A2423008F44AE0EA
:104200008E010F5D1F4F842E912CB12CA12CA50186
:1042100094010E943A37E62FB901CA01EA3044F509
:10422000E05DD801EE938D01232B242B252B79F70C
:1042300090E080E0109769F0FD0101900020E9F71F
:104240003197AF014A1B5B0BBD0180E799E00E94EB
:10425000431AA1960FB6F894DEBF0FBECDBFDF9113
:10426000CF911F910F91BF90AF909F908F90089525
:10427000E95CD7CFFC0101900020E9F73197AF014D
:10428000481B590BBC0180E799E00C94431ACF926C
:10429000DF92EF92FF92CF93DF9397FF1BC06B01EA
:1042A0007C016DE280E799E00E94DD1DEC0166274C
:1042B0007727CB016C197D098E099F094AE00E947E
:1042C000EC208C0F9D1FDF91CF91FF90EF90DF903E
:1042D000CF9008954AE0DF91CF91FF90EF90DF906B
:1042E000CF900C94EC200C94F2361F920F920FB6E4
:1042F0000F9211248F939F938091E1009091E100A0
:10430000937F9093E10083FF0FC01092E90091E04A
:104310009093EB001092EC0092E39093ED001092DA
:104320000F0598E09093F00082FF22C093E09093F5
:10433000E9009091F200992319F09AE39093E80034
:1043400090910005992341F0909100059150909330
:104350000005911101C05D9890910E05992341F0DF
:1043600090910E05915090930E05911101C02898DF
:1043700084FF18C08091E2008E7E81608093E2000D
:104380008091E1008F7E8093E100809101058E7E17
:104390008061809301059F918F910F900FBE0F90C8
:1043A0001F90189580FFF7CF8091E2008E7E80618C
:1043B0008093E2008091E1008E7E8093E100809105
:1043C00001058E7E8160E5CF1F920F920FB60F928E
:1043D0001124CF92DF92EF92FF920F931F932F93AE
:1043E0003F934F935F936F937F938F939F93AF937D
:1043F000BF93EF93FF93CF93DF93CDB7DEB76C9767
:10440000DEBFCDBF1092E9008091E80083FF25C098
:1044100068E0CE0145960E94591982EF8093E8002A
:104420008D8987FF39C09091E80090FFFCCF982FCD
:10443000907609F034C19E894F89588D2F89F88C68
:10444000911131C0803861F58091FF048093F100B3
:104450001092F1008EEF8093E8006C960FB6F894FE
:10446000DEBF0FBECDBFDF91CF91FF91EF91BF9126
:10447000AF919F918F917F916F915F914F913F91FC
:104480002F911F910F91FF90EF90DF90CF900F90A1
:104490000FBE0F901F9018959EEF9093E800C7CF26
:1044A0001092F100D5CF913059F48111D3CF413022
:1044B000510581F68091FF048D7F8093FF04CACF60
:1044C000933049F48111C6CF4130510519F68091DE
:1044D000FF048260F2CF953041F48091E80080FFC4
:1044E000FCCF20682093E300B5CF963009F0A9C037
:1044F0000B8D1C8D22E01092E9001092FD041092A9
:10450000FC04F2122EC01092FB041092FA040E94D6
:1045100028191F8299E09983FA8291E09E8390EA9C
:1045200098879AEF99872091FC043091FD04275FCA
:104530003F4F3C832B838D831092E9001092FD0442
:104540001092FC041093FB040093FA0449E050E03D
:10455000BE016F5F7F4F80E00E9402190E94281900
:1045600079CF1093FB040093FA040E943F18DC01FA
:1045700012960D911C910115110509F451C1D80134
:10458000ED91FC910480F581E02DBE016B5E7F4FC3
:10459000C8010995009709F03EC1F8010085118511
:1045A000EACFF3E0FF120EC08F89882309F440C0E0
:1045B000823061F440E86DE08FE79FE20E94C12401
:1045C000811148CF81E28093EB0047CF813029F4FD
:1045D00040E86BE083E79FE2F1CF833099F70E94D8
:1045E0003F18DC011296ED90FC908E010F5F1F4F7B
:1045F0006801E114F10479F0D701ED91FC91068096
:10460000F781E02DB801C7010995080F111DF701C9
:10461000E084F184EECFD8011C92F60101900020D5
:10462000E9F73197BF016C197D0940E0C601C6CF9B
:104630006DE57FE2FB01449150E080E80E940219A1
:1046400009CF973009F4BECF983021F481E08093F0
:10465000F10000CF993009F0FDCE837009F0B2CFA0
:10466000EAE1F1E081E031E096E32191222371F06B
:104670008093E9003093EB00DF0111972C91209398
:10468000EC009093ED008F5F873079F78EE7809391
:10469000EA001092EA008F8980930F05DBCE8B8DA4
:1046A0009C8D1092E9001092FD041092FC049093EE
:1046B000FB048093FA04898D811192C08E899D89B3
:1046C000913A49F4813209F07DCF47E050E06DE046
:1046D00071E080E0B3CF913209F074CF833269F496
:1046E0008F89988DB0E0A0E08093090190930A0132
:1046F000A0930B01B0930C01ADCE803269F4809190
:10470000E80082FFFCCF67E08DE091E00E9459193C
:104710008BEF8093E8009ECE823209F09BCE8F898A
:1047200080931401EEEFFFE7859194918B3F9C4DB0
:1047300051F1E0E0F8E080910D0190910E01A0911F
:104740000F01B0911001803B9440A105B105F1F437
:104750008091140180FD1AC0EE3F8AE0F80789F5C8
:1047600087E797E791838083809160008093FE04C0
:1047700088E19BE00FB6F894A895809360000FBE87
:104780009093600067CEEEEFFAE0D5CF8081918103
:104790008737974709F05ECEA895809160008861C1
:1047A000809360008091FE0480936000EE3F2AE0D9
:1047B000F20789F08091FE0A9091FF0A918380832D
:1047C00049CE808191818737980751F29093FF0AF3
:1047D0008093FE0AC5CF1092FF0A1092FE0A3ACECD
:1047E0000E943F18DC0112960D911C9101151105D4
:1047F00009F4E8CED801ED91FC910190F081E02D13
:10480000BE016B5E7F4FC8010995811123CEF8016F
:1048100000851185EBCF181619060CF41BCED2CEED
:10482000F1E0FF12BECE61E67FE204CF1F920F924D
:104830000FB60F9211242F933F938F939F93AF93B3
:10484000BF938091F2049091F304A091F404B0918D
:10485000F5043091F10423E0230F2D3758F501962C
:10486000A11DB11D2093F1048093F2049093F304F1
:10487000A093F404B093F5048091F6049091F704AA
:10488000A091F804B091F9040196A11DB11D809387
:10489000F6049093F704A093F804B093F904BF9141
:1048A000AF919F918F913F912F910F900FBE0F90DD
:1048B0001F90189526E8230F0296A11DB11DD2CF97
:1048C0001F920F920FB60F9211242F933F934F9385
:1048D0005F936F937F938F939F93AF93BF93EF9368
:1048E000FF938091A0019091A101A091A201B091AC
:1048F000A301892B8A2B8B2B09F440C080919F0147
:1049000081110BC088B190E4892788B980919E01FC
:10491000882319F088B1805888B98091A0019091BE
:10492000A101A091A201B091A301181619061A06BF
:104930001B069CF48091A0019091A101A091A2017D
:10494000B091A3010197A109B1098093A0019093AF
:10495000A101A093A201B093A301FF91EF91BF9198
:10496000AF919F918F917F916F915F914F913F9107
:104970002F910F900FBE0F901F9018950E94841AD0
:10498000ECCFEF92FF920F931F93CF93DF93F82E0C
:10499000192FE62E042F81E0860F880F0E94D4186D
:1049A00083E00E94D418CF2DD12FEC0EFD2EF11CE8
:1049B000CE15DF05B9F007FF13C0FE0184910E94F8
:1049C000D418182F80E00E94D418812321968111D9
:1049D000EFCFDF91CF911F910F91FF90EF9008954E
:1049E0008881EDCF81E0F5CFE0E1F9E0138212821A
:1049F00088EE93E0A0E0B0E084839583A683B7833C
:104A000084E291E0918380838FEF9FEF9587848785
:104A1000E0E7F9E01382128286E391E091838083DC
:104A200082EF97E190936F0980936E0980E090E8A0
:104A300090936D0980936C0946983E9A47983F9AE7
:104A40000895CF93DF93CDB7DEB72E970FB6F894C6
:104A5000DEBF0FBECDBF789484B5826084BD84B5BF
:104A6000816084BD85B5826085BD85B5816085BD69
:104A700080916E00816080936E0010928100809121
:104A800081008260809381008091810081608093A9
:104A900081008091800081608093800080919100EE
:104AA0008260809391008091910081608093910059
:104AB000809190008160809390008091C10084601B
:104AC0008093C1008091C10082608093C100809179
:104AD000C10081608093C1008091C3008160809398
:104AE000C3008091C00082608093C0008091C200AA
:104AF00081608093C20080917A00846080937A0004
:104B000080917A00826080937A0080917A0081603F
:104B100080937A0080917A00806880937A00109266
:104B20000F051092FF04109201058091D70081605B
:104B30008093D70080EA8093D80089B5806189BDD1
:104B400089B5826089BD09B400FEFDCF61E070E0E7
:104B500080E090E00E948B198091D8008F7C80616A
:104B60008093D8008091E000807F8093E000809166
:104B7000E1008E7E8093E1008DE08093E200559A03
:104B8000209A5D98289881EC80937C0085B1806F95
:104B900085B984B1877E84B984B1876E84B95E9A01
:104BA0005F988AB1806D8AB9769A6E9881B3806F6A
:104BB00081BB899880B38D7080BB80E58CBD81E01E
:104BC0008DBD85E090E00E94441D5F9A85E090E0F5
:104BD0000E94441D5E985C98ECE5F6E084918EBDE1
:104BE00000000DB407FEFDCF319626E0E936F2074E
:104BF000A9F75C9A81E880936400809165008160E8
:104C0000809365000E94BC1D80E80E94B11D88232E
:104C1000A9F05C9885EA8EBD00000DB407FEFDCFBB
:104C20005C9A2E982F982D988091640080628093D2
:104C3000640081E083BF889513BEFCCF84E00E94AE
:104C4000B11D882309F448C02D9884E80E94B11D45
:104C50008823E1F00E94421D88EC90E00E94441DF0
:104C60002F9882E090E00E94F2368F3F29F06FEF9C
:104C700082E090E00E94FA3684EF91E00E94441DA9
:104C80002F9A84E80E94B11D8111FBCF84E10E941C
:104C9000B11D8823E1F00E94421D88EC90E00E9443
:104CA000441D2E9882E090E00E94F236882329F07D
:104CB00060E082E090E00E94FA3684EF91E00E948A
:104CC000441D2E9A84E10E94B11D8111FBCF88EC16
:104CD00090E00E94441DB2CF0E94421D82E090E00D
:104CE0000E947321882309F495C03E9A3F9A81E07F
:104CF0008093A40181E090E00E947321382F3470EA
:104D0000732E81FF11C031112E9801EF1FEF88E043
:104D1000A82EB12C80E40E94B11D882309F47FC025
:104D20002E9A2F9A0E94421D82E390E00E94441D19
:104D30000E94491D8111F8CF6091070170E088EE53
:104D400093E00E946B37609300010E94BC1D8BEBC7
:104D500094E0E6E4F4E0128613861486158616863F
:104D600039968E179F07B9F757EF652E53E0752ECA
:104D70000AEF13E06BECE62E62E0F62E23E633E05A
:104D80003E872D877FE7C72ED12CEFE3AE2EB12CC7
:104D9000F2E08F2E912C0E94E236B6010E946B3712
:104DA000ED85FE8581939193FE87ED870E94E23623
:104DB000B5010E946B37F701819391937F010E94A7
:104DC000E236B4010E946B379C0191E0232B09F479
:104DD00090E0F80191938F012D853E856216730650
:104DE000D1F68FB7F8944091F2045091F30460919A
:104DF000F4047091F5048FBF8091A701882309F412
:104E0000CEC01092A70180E090E0892B51F30E9460
:104E10000000E7CF1092A4013E983F986BCF772017
:104E200029F00430110511F42E9A2F9881E00E9488
:104E3000F517980117FF04C022273327201B310BD9
:104E400027703327C80117FD0796B3E0959587951E
:104E5000BA95E1F717FF05C00197A501421B530B57
:104E60009A01AC015695542F442757954795405FBA
:104E70005A4FD12CC12C2501421A530A8E3F6FEF95
:104E8000960709F43AC07A01E4E9EE0EF11CDA0162
:104E900070E060E0F601E455FA4F4F018F3F98074C
:104EA00081F0F401E60FF71FE491022E01C0EE0F2E
:104EB0000A94EAF75496FC915497EF2B5496EC938E
:104EC00054972115310581F0F401E60FF71FE491A5
:104ED000F0E01F01042C02C0359427940A94E2F7F5
:104EE000F7016080262820826F5F7F4FFFEFEF1A67
:104EF000FF0A11966835710589F6019668E5C60EB8
:104F0000D11C40585F4FE0EBCE16D10409F0B6CF6C
:104F10000E94BC1D8FE090E00E94441D0F5F1F4F58
:104F20000931110509F0F6CE772011F02F9A2D984E
:104F300080E991E00E94441D0E94421D81E090E0C2
:104F40000E94732180FFF0CE8AE090E00E947321DE
:104F50009FEF980F9E3F08F0E7CE22E330E03093BA
:104F6000D9012093D80128E330E03093D701209372
:104F7000D6010BE010E0682F80E799E00E94DD1D6C
:104F8000C8010E9473210F5F1F4F0131110599F76E
:104F90000E94BC1D88EE93E00E94441DC5CE809106
:104FA000A801342F381B832F90910001391748F442
:104FB0008F5F891708F027CF81E083BF889513BEE4
:104FC00022CF81E08093A7014093A8018091A501A1
:104FD0009091A60101969093A6018093A5018091DE
:104FE000F0048111FBC08091EF04811126C00FEC09
:104FF00017E00E94E23669E570E00E946B378F5F30
:105000008093EE040E94E23661E170E00E946B370B
:105010008F5F682F70E06A5E7F4F8091EE0490E0B2
:1050200040E042960E94BF1D0E94BC1D0150110924
:1050300001F70E94511D0E94BC1D81E08093EF0486
:1050400044E650E05093ED044093EC041092EB04DE
:105050001092EA041092E9041092E8041092E70416
:105060001092E604B12CA12C11E09AE5892E912C26
:1050700025E2222E312C34E4432E512C4BE2642EB7
:10508000712C0E94511DE9E1FBE20491EAE1FBE28F
:10509000E49082E0C82E30E020E04BE15BE270E07B
:1050A00060E090E080E00E94481BFFE0AF16B10492
:1050B00084F42CE330E03093D9012093D80149E304
:1050C00050E05093D7014093D6018EE391E00E94C7
:1050D0003A2188E00E94B11D81111093F00484E010
:1050E0000E94B11D81111093F00480E80E94B11D4F
:1050F00081111093080180E10E94B11D811110926D
:10510000080180E20E94B11D882319F089E1809393
:10511000070180E40E94B11D882319F082E3809387
:1051200007019092D9018092D8013092D701209244
:10513000D6018AE491E00E943A21809108018823F7
:1051400081F08EE590E09093D9018093D801EFE251
:10515000F0E0F093D701E093D6018EE491E00E9455
:105160003A218091080181110EC09092D90180925C
:10517000D8012FE230E03093D7012093D60181E5AA
:1051800091E00E943A2141E450E05093D9014093CC
:10519000D80181E290E09093D7018093D60185E514
:1051A00091E00E943A215092D9014092D801709228
:1051B000D7016092D6016091070170E090E080E035
:1051C0004AE00E94EC200E94BC1D9FEFA91AB90A78
:1051D000EEE1AE16B10409F054CF01CF60910701A2
:1051E00070E088EE93E00E946B376093000180913D
:1051F000EC049091ED04181619060CF073C0809120
:10520000E304882311F40C9498348091E1048F5FB7
:105210008093E10488E00E94B11D81110E94751EF7
:1052200084E00E94B11D81110E94751E1092E0045D
:105230001092DF0480E80E94B11D882379F08091EC
:1052400006018F3158F0909105019450909305011B
:1052500082508093060181E08093DF0480E40E9405
:10526000B11D882379F080910601833358F4909121
:1052700005019C5F909305018E5F8093060181E09C
:105280008093E00480E20E94B11D882399F0809110
:10529000DF0481110FC0809106018F3158F0909189
:1052A000050194509093050182508093060181E09E
:1052B0008093DF0480E10E94B11D882399F08091E2
:1052C000E00481110FC080910601833358F490915E
:1052D00005019C5F909305018E5F8093060181E03C
:1052E0008093E00480910501883110F00C949C3487
:1052F00081E080930401E0910401F0E0E755FB4F69
:1053000080818093450469ECE62E62E0F62E01E68A
:1053100013E07AEF472E73E0572ECC24C394D12CA0
:10532000F0E86F2E712CAFE3AA2EB12C88248A945A
:10533000982CF20141912F01F80122813381F7016C
:105340008281938141114DC024503109F80133838A
:1053500022830296F70193838283F80182819381ED
:1053600097FF11C0F1E2CF16D1040CF041C00E94AA
:10537000E2366FE770E00E946B37F8019383828317
:10538000F70193828282F7016281738141E0F80123
:10539000828193810E94BF1DFFEFCF1ADF0A0E5F4B
:1053A0001F4F22E0E20EF11C3BE4C316D10409F0CA
:1053B000C0CF8091C502813009F053C08091AE0208
:1053C0009091AF022091C20221111EC06091BA02D9
:1053D0007091BB022AC082E08CCF83E08ACF84E048
:1053E00088CF26503109F801338322830396B2CF48
:1053F000F801738262820E94E236B5010E946B3727
:10540000F70193838283BFCF2130B1F40297909349
:10541000AF028093AE026091BA027091BB026F5FDF
:105420007F4F7093BB026093BA0227E13BE147E1F3
:1054300053E20E94311D15C0223041F2233031F376
:10544000243021F2253011F3263009F4BFCF273064
:10545000E9F2283009F4BACF2930C1F22A3009F430
:10546000B5CF8091AE029091AF0288389F4F14F46F
:105470001092C5028091C6028130B9F58091B002C8
:105480009091B1022091C202211105C06091BC022D
:105490007091BD0211C02130B1F402979093B10216
:1054A0008093B0026091BC027091BD026F5F7F4F2C
:1054B0007093BD026093BC0225E137E145E159E1FB
:1054C0000E94311D12C0223009F3233031F3243001
:1054D000E9F2253011F32630C9F22730F1F22830F5
:1054E000A9F22930D1F22A3089F28091B00290914C
:1054F000B10288389F4F14F41092C6028091C702FF
:105500008130B9F58091B2029091B3022091C2022C
:10551000211105C06091BE027091BF0211C02130FF
:10552000B1F402979093B3028093B2026091BE02ED
:105530007091BF026F5F7F4F7093BF026093BE0296
:1055400029E530E146EB53E10E94311D12C02230C3
:1055500009F3233031F32430E9F2253011F32630FA
:10556000C9F22730F1F22830A9F22930D1F22A30DD
:1055700089F28091B2029091B30288389F4F14F45F
:105580001092C7028091C4028130C9F48091AC02AC
:105590009091AD0204979093AD028093AC0260911C
:1055A000B8027091B9026E5F7F4F7093B902609339
:1055B000B80225E137E147E55EE00E94311D8091A8
:1055C000AC029091AD02843C9F4F14F41092C4023F
:1055D0000EE710E04EE0A42E58E0552E8091A9026F
:1055E0008F5F8093A902D12CC12CF9E0F89FC001F4
:1055F00011249C012A5B3B4F390196E0492E24E09F
:10560000322E32E0232EB090A802F301EB0DF11DF3
:1056100020818091C202813009F05BC52092A702EF
:105620008093A602E0900201F09003018090A40212
:105630009090A5022223E1F03091A702C601800FCD
:10564000911F831B91090A976091A602A701480D3B
:10565000591D640F752F711DFB013597213009F01D
:1056600065C525E03EE04DE25EE0BF010E94311DD0
:1056700085E0880E911C9092A5028092A402B394BA
:10568000B092A8029AE0C90ED11CE2E3CE16D10472
:1056900009F0B9CF1092A5021092A40281E0809384
:1056A000A802F5E0EF0EF11CF0920301E092020176
:1056B0000A501109083E2FEF120709F08FCF809191
:1056C000EC049091ED04181619060CF4C8C1009171
:1056D000E6041091E7040F5F1F4F1093E704009357
:1056E000E6048091C4019091C50106969093C5018E
:1056F0008093C4016091B0017091B101655071094E
:105700007093B1016093B00127E037E04FE057E0BC
:105710000E94311D8091C6019091C701019690931E
:10572000C7018093C6016091B2017091B3016150CD
:1057300071097093B3016093B20127E037E04FE045
:1057400057E00E94311D8091C8019091C9010197D5
:105750009093C9018093C8016091B4017091B50123
:105760006F5F7F4F7093B5016093B40127E037E01E
:105770004FE057E00E94311D8091CA019091CB010A
:1057800004969093CB018093CA016091B601709109
:10579000B701645071097093B7016093B60127E0B7
:1057A00037E04FE057E00E94311D6091B8017091E1
:1057B000B9016E5F7F4F7093B9016093B80127E024
:1057C00037E04FE057E08091CC019091CD010E94ED
:1057D000311D6091BA017091BB01625071097093E3
:1057E000BB016093BA0127E037E04FE057E08091BA
:1057F000CE019091CF010E94311D8091D0019091F6
:10580000D10102969093D1018093D0016091BC01A7
:105810007091BD01615071097093BD016093BC012D
:1058200027E037E04FE057E00E94311D8091D20120
:105830009091D30105969093D3018093D20160910A
:10584000BE017091BF01635071097093BF016093F5
:10585000BE0127E037E04FE057E00E94311D809104
:10586000D4019091D50104969093D5018093D401F1
:105870006091C0017091C101625071097093C101C2
:105880006093C00127E037E04FE057E00E94311DF0
:105890000E94BC1D0C3411050CF4F3C00E94511D74
:1058A0000E94BC1D84EF91E00E94441DBBECEB2ED6
:1058B000B2E0FB2E03E613E08FE3C82ED12C0E944A
:1058C000E2366FE770E00E946B37F80181939193A5
:1058D0008F010E94E236B6010E946B37F701819377
:1058E00091937F012D853E850217130741F78EECBA
:1058F0009FEF9093AF028093AE0284EC9FEF909362
:10590000AD028093AC0263EBE62EF12C74E2672EBD
:10591000712CEEE14E2E512CF6E22F2E312CADE201
:10592000AA2EB12C0E94511D4BECC42E42E0D42E65
:1059300001E613E05AEF852E53E0952EF4012191F4
:105940004F01F80182819381211152C40196938302
:105950008283F801828193818138910564F00E94ED
:10596000E236F8011382128260E470E00E946B3725
:10597000F60191838083F601619171916F0141E09D
:10598000F801828193810E94BF1D0E5F1F4FF3E0DB
:10599000053F1F0799F68091B0029091B1020196E0
:1059A0009093B1028093B0020091B2021091B302C1
:1059B0000E5F1F4F1093B3020093B20225E137E14F
:1059C00045E159E170E060E00E94311D29E530E1D8
:1059D00046EB53E170E060E0C8010E94311D709217
:1059E000D9016092D8015092D7014092D60189E541
:1059F00091E00E943A213092D9012092D801B092D0
:105A0000D701A092D60185E691E00E943A2120E5D7
:105A100030E03093D9012093D801B092D701A09201
:105A2000D6016091E8047091E904072E000C880B00
:105A3000990B0E9447210E94BC1D84E690E00E94C1
:105A4000441D31E0E31AF10809F06CCF0E94401EBA
:105A50008091EC049091ED041816190694F460916D
:105A6000060170E0635F7F4F80914504681B7109F8
:105A70008091050121E03AE041E25AE090E00E9485
:105A8000311D8091C2028F5F8093C2028A3099F5E6
:105A90004FE454E090E080E0DC01AB5EBD4F21E0DC
:105AA00030E0BA01620F731FFB01108119961C933D
:105AB0001997FD0110811196FB0110832F5F3F4F55
:105AC0002830310571F7475F5F4F09968738910598
:105AD00019F700E514E00E94E2366091010170E0E0
