:100000000C946F050C9497050C9497050C94970528
:100010000C9497050C9497050C9497050C949705F0
:100020000C9497050C9497050C94EB0C0C945A0DBA
:100030000C9497050C9497050C9497050C949705D0
:100040000C9497050C9497050C9497050C949705C0
:100050000C9497050C9497050C9497050C94A10C9F
:100060000C9497050C9497050C9497050C949705A0
:100070000C9497050C9497050C9497050C94970590
:100080000C9497050C9497050C9497050C94970580
:100090000C9497050C9497050C9497050C94970570
:1000A0000C9497050C9497050C949705000000009C
:1000B000003E5B4F5B3E3E6B4F6B3E1C3E7C3E1CEE
:1000C000183C7E3C181C577D571C1C5E7F5E1C0034
:1000D000183C1800FFE7C3E7FF0018241800FFE7EB
:1000E000DBE7FF30483A060E2629792926407F05AE
:1000F0000507407F05253F5A3CE73C5A7F3E1C1CC4
:1001000008081C1C3E7F14227F22145F5F005F5F83
:1001100006097F017F006689956A6060606060946F
:10012000A2FFA29408047E040810207E2010080874
:100130002A1C08081C2A08081E101010100C1E0C7F
:100140001E0C30383E3830060E3E0E060000000011
:100150000000005F00000007000700147F147F14F8
:10016000242A7F2A1223130864623649562050003D
:1001700008070300001C2241000041221C002A1C29
:100180007F1C2A08083E0808008070300008080814
:100190000808000060600020100804023E51494534
:1001A0003E00427F400072494949462141494D3352
:1001B0001814127F1027454545393C4A49493141B9
:1001C000211109073649494936464949291E000087
:1001D00014000000403400000008142241141414DC
:1001E0001414004122140802015909063E415D59C8
:1001F0004E7C1211127C7F494949363E41414122D1
:100200007F4141413E7F494949417F090909013EFA
:10021000414151737F0808087F00417F4100204021
:10022000413F017F081422417F404040407F021C33
:10023000027F7F0408107F3E4141413E7F0909094A
:10024000063E4151215E7F09192946264949493216
:1002500003017F01033F4040403F1F2040201F3FDC
:100260004038403F63140814630304780403615961
:10027000494D43007F4141410204081020004141A3
:10028000417F04020102044040404040000307084F
:100290000020545478407F2844443838444444284B
:1002A000384444287F385454541800087E090218F2
:1002B000A4A49C787F0804047800447D400020407A
:1002C000403D007F1028440000417F40007C0478BE
:1002D00004787C080404783844444438FC18242406
:1002E0001818242418FC7C08040408485454542486
:1002F00004043F44243C4040207C1C2040201C3C03
:100300004030403C44281028444C9090907C4464F9
:10031000544C44000836410000007700000041368C
:10032000080002010204023C2623263C1EA1A16112
:10033000123A4040207A3854545559215555794144
:100340002154547841215554784020545579400C1B
:100350001E527212395555555939545454593955FC
:100360005454580000457C410002457D420001453F
:100370007C40F0292429F0F0282528F07C545545AC
:10038000002054547C547C0A097F4932494949323F
:100390003248484832324A4848303A4141217A3A54
:1003A00042402078009DA0A07D39444444393D401E
:1003B00040403D3C24FF2424487E4943662B2FFCCB
:1003C0002F2BFF0929F620C0887E09032054547979
:1003D000410000447D413048484A32384040227A4A
:1003E000007A0A0A727D0D19317D2629292F2826C7
:1003F0002929292630484D402038080808080808CF
:100400000808382F10C8ACBA2F102834FA00007B27
:10041000000008142A142222142A1408950022002D
:1004200095AA005500AAAA55AA55AA000000FF00E7
:10043000101010FF00141414FF001010FF00FF1024
:1004400010F010F0141414FC001414F700FF000056
:10045000FF00FF1414F404FC141417101F10101FD5
:10046000101F1414141F00101010F0000000001FC3
:10047000101010101F10101010F010000000FF10CE
:100480001010101010101010FF10000000FF1400CA
:1004900000FF00FF00001F10170000FC04F41414FC
:1004A0001710171414F404F40000FF00F7141414C8
:1004B00014141414F700F7141414171410101F1048
:1004C0001F141414F4141010F010F000001F101F6B
:1004D0000000001F14000000FC140000F010F010D9
:1004E00010FF10FF141414FF141010101F00000050
:1004F00000F010FFFFFFFFFFF0F0F0F0F0FFFFFF54
:100500000000000000FFFF0F0F0F0F0F38444438AA
:10051000447C2A2A3E147E02020606027E027E02E5
:1005200063554941633844443C04407E201E200604
:10053000027E020299A5E7A5991C2A492A1C4C7241
:1005400001724C304A4D4D303048784830BC625AC8
:10055000463D3E494949007E0101017E2A2A2A2A58
:100560002A44445F444440514A444040444A514034
:100570000000FF0103E080FF000008086B6B0836F5
:1005800012362436060F090F060000181800000066
:100590001010003040FF0101001F01011E00191D55
:1005A0001712003C3C3C3C0000000000080B00021D
:1005B00002020000090400000102020000052400FC
:1005C000100105240101010424020605240600018E
:1005D0000705810310004009040100020A00000021
:1005E00007050202400000070583024000000403E3
:1005F000090412010002EF0201404123378000018B
:100600000102030141726475696E6F204C4C430016
:1006100041726475696E6F204D6963726F00F0F806
:100620009C8E8783878E9CF8F00000FEFF030303F7
:100630000303070EFCF80000FEFF03030303030798
:100640000EFCF80000FFFF00000000000000FFFFAC
:100650000000FEFF8383838383C7EE7C380000F8AD
:10066000FC0E07030303070EFCF800003F7FE0C009
:100670008080C0E07F3FFFFF01010101010101FF18
:10068000FF0000FFFF0C0C0C0C1C3E77E3C10000C8
:100690007FFFC0C0C0C0C0E0703F1F00001F3F70A0
:1006A000E0C0C0C0E0703F1F00007FFFC1C1C1C1FA
:1006B000C1E3773E1C00001F3F70E0C0C0C0E07087
:1006C0003F1F000000000001FFFF01000000D5F007
:1006D0008D14A1C881CFD9F1AF2000000000000027
:1006E000000000000000000000000000000000000A
:1006F00000000000000000000000000000000000FA
:1007000000000000000000000000000000000000E9
:1007100000000000000000000000000000000000D9
:1007200000000000000000000000000000000000C9
:1007300000000000000000000000000000000000B9
:1007400000000000000000000000000000000000A9
:100750000000000000000000000000000000000099
:100760000000000000000000000000000000000089
:1007700000000000000000000000000000000080F9
:100780008080808080C0C0C0C0C0C0C0C0E0E0E049
:10079000E0E0E0E0E0E0E0E0E0E0E0E0E0E0E0E059
:1007A000E0E0E0E0C0C0C0C0C0C0C0C080808080C9
:1007B0008080000000000000000000000000000039
:1007C0000000000000000000000000000000000029
:1007D0000000000000000000000000000000000019
:1007E000000000000000000000000080C0C0E0E049
:1007F000F0F0F8F8F8FCFCFEFEFEFEFFFFFFFF7FC6
:100800003F3F3F3F3F3F7FFFFFFFFF7F3F3F3F3F78
:100810003F3F3F3F3F7FFFFFFFFF7F3F3F3F3F3F68
:100820003F3F3F3F7FFFFFFFFFFFFFFF7F3F3F3F18
:100830003F3F3F3F3F3F7EFEFEFFFFFCF8F8F8F0F2
:10084000F0E0E0C0C08000000000000000000000F8
:100850000000000000000000000000000000000098
:1008600000000000000000F0FCFEFFFFFFFFFFFFA4
:10087000FFFFFFFFFFFFFFFFFFFFFFFF030101007F
:1008800000F8F8F8F80000010103FF000000000084
:10089000080808080000C1C1E3FF000000000008CC
:1008A00008080800004141E3FFE3C1C10000080857
:1008B000080808187878FCFFFFFFFFFFFFFFFFFF25
:1008C000FFFFFFFFFFFFFFFEFCF000000000000045
:1008D0000000000000000000000000000000000018
:1008E0000000000000000001070F1F3F7F7FFFFF97
:1008F000FFFFFFFFFFFFFFFFFFFFFFFFF8F0F0C06C
:10090000808383838380C0F0F0F8FFC0808080C044
:10091000FEF8F0F0C0808383C7FFC08080808082B3
:1009200082828280C0F0F0F8FFC783838382828254
:10093000828280C0F0F0F8FFFFFFFFFFFFFFFFFFA4
:10094000FFFFFF7F7F3F1F0F070100000000000037
:100950000000000000000000000000000000000097
:100960000000000000000000000000000000000087
:10097000010103030307070F0F0F0F1F1F1F1F3F67
:100980003F3F3F3F3F7F7F7F7F7F7F7F7FFFFFFF37
:10099000FFFFFFFFFFFFFFFFFFFFFFFFFFFFFFFF67
:1009A000FFFFFFFF7F7F7F7F7F7F7F7F3F3F3F3F57
:1009B0003F3F1F1F1F1F0F0F0F0F070703030301E9
:1009C0000100000000000000000000000000000026
:1009D0000000000000000000000000000000000017
:1009E0000000000000000000000000000000000007
:1009F00000000000000000000000000000000000F7
:100A000000000000000000000000000000000000E6
:100A100000000000000000000000000000000000D6
:100A200000000000000000000000000000000000C6
:100A300000000000000000000000000000000000B6
:100A400000000000000000000000000000000000A6
:100A50000000000000000000000000000000000096
:100A60000000000000000000000000000000000086
:100A70000000000000000000000000000000000076
:100A80000000000000000000000000000000000066
:100A90000000000000000000000000000000000056
:100AA0000000000000000000000000000000000046
:100AB0000000000000000000000000000000000036
:100AC0000000000000000000000000000000000026
:100AD000000000000000000000000000BF0F112413
:100AE0001FBECFEFDAE0DEBFCDBF11E0A0E0B1E086
:100AF000E6E0F6E402C005900D92A436B107D9F7FE
:100B000027E0A4E6B1E001C01D92A130B207E1F7F1
:100B100015E0CFE6D5E004C02197FE010E940F202A
:100B2000CE36D107C9F70E94DC0F0C9401230C9438
:100B30000000EDEAF2E0A0E0B8E000800EBC811118
:100B4000012C1197A0FDFDCF0192B9F70DB40895C6
:100B5000FC018091AC02882311F13FB7F89482E048
:100B60008093E9002091F200822F90E01816190678
:100B700014F481E090E0882339F0289A44E6409309
:100B8000AB024091F1004083222339F02091F20022
:100B9000211103C02BE62093E8003FBF08958FEF9B
:100BA0009FEF08952FB7F89483E08093E900909128
:100BB000E800892F807295FF04C09091F20080E4D4
:100BC000891B2FBF08958091A30281110DC082E07F
:100BD00080939F0284E08093A0021092A202109260
:100BE000A10281E08093A3028FE992E008953FB7CC
:100BF000F89480919B0290919C02A0919D02B091EB
:100C00009E0226B5A89B05C02F3F19F00196A11D95
:100C1000B11D3FBFBA2FA92F982F8827BC01CD0146
:100C2000620F711D811D911D42E0660F771F881FA5
:100C3000991F4A95D1F708958F929F92AF92BF92D4
:100C4000CF92DF92EF92FF926B017C010E94F70539
:100C50004B015C01C114D104E104F104B9F00E941C
:100C6000F705681979098A099B09683E734081056F
:100C7000910580F321E0C21AD108E108F10888EE5D
:100C8000880E83E0981EA11CB11CE4CFFF90EF906A
:100C9000DF90CF90BF90AF909F908F90089540913C
:100CA00066015091670120916401309165014217FE
:100CB0005307B4F49091E8009570E1F39091E80047
:100CC00092FD19C08093F1008091660190916701B7
:100CD00001968F739927892B19F48EEF8093E80082
:100CE00080916601909167010196909367018093CE
:100CF000660181E0089580E00895DF92EF92FF920F
:100D00000F931F93CF93DF93D82E8A01EB017B01C2
:100D1000E40EF51ECE15DF0559F0D7FE12C0FE0118
:100D200084910E944F0621968111F4CF0FEF1FEF9F
:100D3000C801DF91CF911F910F91FF90EF90DF904D
:100D400008958881EECF0F931F93CF93DF931F9267
:100D5000CDB7DEB782E0898342E450E06CEA75E00B
:100D600080E80E947D060E94E305DC0112960D9149
:100D70001C910115110589F0D801ED91FC910280BB
:100D8000F381E02DBE016F5F7F4FC801099597FD8C
:100D900004C0F80100851185ECCF89810F90DF91A7
:100DA000CF911F910F910895615030F02091F10083
:100DB000FC0120830196F8CF289A84E68093AB0249
:100DC0000895AF92BF92CF92DF92EF92FF920F936E
:100DD0001F93CF93DF936C017B018B01040F151FD1
:100DE000EB015E01AE18BF08C017D10759F0699139
:100DF000D601ED91FC910190F081E02DC60109959D
:100E0000892B79F7C501DF91CF911F910F91FF9049
:100E1000EF90DF90CF90BF90AF9008958F929F9208
:100E2000AF92BF92CF92DF92EF92FF920F931F93F8
:100E3000CF93DF936C017B018A0180910B018823A2
:100E400009F45CC08091AC02882309F457C08091FA
:100E50006A0180FF05C08091E00082608093E0001D
:100E6000E801B12C8AEFA82E93E0892E2AE3922E76
:100E7000209711F4BB20D9F10E94D20581110AC03C
:100E8000AA94AA20D9F161E070E080E090E00E948D
:100E90001C06EECF8C171D0611F00CF08C2F9FB79F
:100EA000F8948092E9002091E80025FD02C09FBFE0
:100EB000DFCF282F30E0C21BD30BF701815020F089
:100EC00041914093F100FACFE20EF31EBB2021F0D6
:100ED0009092E800B12CEBCF8091E80085FDE7CF40
:100EE0009092E800BB24B394209709F3F3CF5D9A66
:100EF00084E680936901101611063CF081E090E0D1
:100F0000F6019383828310E000E0C801DF91CF9166
:100F10001F910F91FF90EF90DF90CF90BF90AF9017
:100F20009F908F900895CF93DF931F92CDB7DEB738
:100F30006983DC01ED91FC910280F381E02D41E0B9
:100F400050E0BE016F5F7F4F09950F90DF91CF9109
:100F5000089583E08093E9008091F200882319F0DE
:100F60008AE38093E80008950E94D20590E00895F6
:100F7000CF93DF931F92CDB7DEB7FC0184859585B3
:100F800097FD08C02FEF3FEF358724870F90DF9143
:100F9000CF910895CE0101960E94A805019719F4FA
:100FA000898190E0F3CF8FEF9FEFF0CF0F931F93E6
:100FB000CF93DF931F92CDB7DEB78C01FC01848500
:100FC000958597FF0BC0CE0101960E94A805019759
:100FD00071F4898190E0F80195878487F801848510
:100FE00095850F90DF91CF911F910F9108958FEF0D
:100FF0009FEFF1CFFC018485958597FD0BC09FB7CE
:10100000F89482E08093E9008091F2009FBF90E025
:10101000019608959FB7F89482E08093E90080914B
:10102000F2009FBF90E008952D9A0895BC0190E0D2
:1010300080E00C941C068FB18095807F669B886051
:101040001C9B8460089580E0EDEAF2E081118FEF4F
:10105000002481938193819381930394D1F710921B
:101060007101109270011092730110927201089533
:10107000CF93C82F0E941B08982F9C2381E09C13BC
:1010800080E0CF91089580E00C9499058038910517
:10109000B8F460347105A0F420E191E061FD94E0C2
:1010A00060FD990F62FD9295687F269FD001112403
:1010B000A80FA355BD4F8C9140FF03C0892B8C9383
:1010C000089590958923FBCF2F923F924F925F9284
:1010D0006F927F928F929F92AF92BF92CF92DF9248
:1010E000EF92FF920F931F93CF93DF9300D000D026
:1010F000CDB7DEB77C018B01242F30E03C832B83FE
:1011000081E090E05C01A21AB30A190131942194A4
:101110003108220C331CB901600F711F41E0C70177
:101120000E944608B8018B819C81681B790B41E0C5
:10113000C7010E94460841E0B8018B819C818E0D59
:101140009F1D0E94460841E0B801C7012B813C81E8
:10115000821B930B0E944608D12CC12C81E090E0A9
:101160009A8389832B813C81C216D3060CF05DC023
:10117000B7FC09C0215031093C832B8332E0230E98
:10118000311CA20CB31C8FEFC81AD80A29813A81EE
:101190002E5F3F4F3A832983A20EB31E37016C0C9A
:1011A0007D1C41E08B809C80800E911EB401C301A8
:1011B0000E94460827014C185D0841E0B401C201B5
:1011C0000E94460841E048018B819C81881A990A57
:1011D000B401C3010E94460841E0B401C2010E946B
:1011E00046084601800E911E41E0B4016B807C8070
:1011F0006E0C7F1CC3010E94460841E0B401270128
:101200002B813C81421A530AC2010E9446084801C0
:101210008C189D0841E0B401C3010E94460841E0DA
:10122000B401C2010E9446089DCF0F900F900F900D
:101230000F90DF91CF911F910F91FF90EF90DF9072
:10124000CF90BF90AF909F908F907F906F905F9066
:101250004F903F902F900895EF92FF920F931F931E
:10126000CF93DF937C018B01040F111DEB0177FFFE
:1012700002C0D0E0C0E0C8010134110514F080E4E0
:1012800090E0C817D9073CF441E0BE01C7010E94B5
:1012900046082196F0CFDF91CF911F910F91FF90DB
:1012A000EF9008952F923F924F925F926F927F92AC
:1012B0008F929F92AF92BF92CF92DF92EF92FF9266
:1012C0000F931F93CF93DF9300D000D000D0CDB702
:1012D000DEB76B837C83298325E0429FA001112424
:1012E000FA01E455FF4F2F01F12C3C0110E0312CA5
:1012F000153029F0C2010196F20134902C01FB81D6
:10130000FD832C812E8388E0282E30FE1DC039817C
:101310003A8301C00A83D12CC12CEC14FD04B9F02E
:101320004601860C971CB12CA12CAE14BF04C1F150
:101330006D817E816A0D7B1D4A81C4010E94460831
:101340009FEFA91AB90AF1CF89810813E3CF369428
:101350002A942D813E812E0D3F1D3E832D83211029
:10136000D4CF1F5F6E0C7F1C163009F0C0CF2696BD
:101370000FB6F894DEBF0FBECDBFDF91CF911F91A6
:101380000F91FF90EF90DF90CF90BF90AF909F9024
:101390008F907F906F905F904F903F902F90089527
:1013A000EFEFCE1ADE0AB9CFEF920F93CF93DF9310
:1013B000462F6D3081F060917001709171014A305B
:1013C00089F41092730110927201685F7F4F7093DD
:1013D00071016093700181E090E0DF91CF910F91F6
:1013E000EF900895C0917201D0917301EE24E394BF
:1013F00000E021E0CE010E9452092696D0937301AD
:10140000C0937201E8CFCF93DF932BE0289FF001C8
:10141000299FF00D1124E955FE4F468157814A302E
:101420005105A4F4269FD001279FB00D1124A95582
:10143000BE4F16962D913C9137FF02C02F5F3F4F54
:1014400035952795240F351F378326832BE0289F5A
:10145000F001299FF00D1124E955FE4F26813781B7
:101460002B30310524F02AE030E0378326832BE04F
:10147000289FF001299FF00D1124E955FE4F268188
:10148000378142815381421B530B57FF05C0A9018D
:10149000440F551F538342834BE0489FF001499FFF
:1014A000F00D1124E955FE4F44815581DA01A21B4C
:1014B000B30BB7FF05C0D901AA0FBB1FB383A2832B
:1014C000ABE0A89FF001A99FF00D1124E955FE4F54
:1014D000A281B381E901CA0FDB1FC038D1053CF0FE
:1014E000E901CC0FDD1FAC1BBD0BB383A283420F00
:1014F000531F4034510574F04BE0489FF001499F61
:10150000F00D1124E955FE4F42815381421B530BCC
:10151000538342832BE0289FF001299FF00D112473
:10152000E955FE4F82858F5F8B308CF48287643162
:10153000710591F4E091A201F091A3018681978158
:10154000019739F097838683DF91CF9108958AE0E0
:10155000EDCF85E090E0F6CF8BE0869FF001879F8E
:10156000F00D1124E955FE4F1082EECF089590E062
:1015700080E008950C94511ECF92DF92EF92FF927B
:101580006B017C01C114D104E104F10441F00E941B
:10159000F91DA70196010E94671E6B017C01C7011E
:1015A000B601FF90EF90DF90CF900895FB0101907E
:1015B0000020E9F73197AF01461B570BDC01ED9195
:1015C000FC910280F381E02D09948F929F92AF925B
:1015D000BF920F931F93CF93DF93CDB7DEB7A19741
:1015E0000FB6F894DEBF0FBECDBF19A2423008F48B
:1015F0004AE08E010F5D1F4F842E912CB12CA12C3F
:10160000A50194010E94991EE62FB901CA01EA3092
:1016100004F5E05DD801EE938D01232B242B252BBF
:1016200079F790E080E0109729F0BD018DEA96E00F
:101630000E94D60AA1960FB6F894DEBF0FBECDBFAA
:10164000DF91CF911F910F91BF90AF909F908F909E
:101650000895E95CDFCFCF92DF92EF92FF92CF93B4
:10166000DF936B017C016DE28DEA96E00E949307A7
:10167000EC0166277727CB016C197D098E099F093C
:101680004AE00E94E50A8C0F9D1FDF91CF91FF90E9
:10169000EF90DF90CF900895BC01990F880B990BC4
:1016A00097FD0C942B0B4AE00C94E50AAF92BF9285
:1016B000CF92DF92EF92FF920F931F93CF93DF931E
:1016C00065E471E08DEA96E00E94D60A61E571E07A
:1016D0008DEA96E00E94D60AE7EAF1E022E0E338DC
:1016E000F20719F010823B96F9CF10928F021092F8
:1016F0008E025BE0B52EAA24A394CFE7D0E00FE3DF
:1017000010E080918E0290918F02863091050CF04E
:101710009DC0B89EF001B99EF00D1124E955FE4F11
:10172000A08263E070E080E090E00E94BC0A6B0160
:101730007C01E2E0CE0ED11CE11CF11CD0927B01B9
:10174000C0927A0180918E0290918F02B89EF00132
:10175000B99EF00D1124E955FE4FD782C682CE0105
:101760008C199D09092E000CAA0BBB0B0D2C000C2B
:10177000EE08FF08C816D906EA06FB0664F4BC01A9
:10178000CD016C197D098E099F090E94BC0AC60E05
:10179000D71EE81EF91E80918E0290918F02B89E8E
:1017A000F001B99EF00D1124E955FE4FD382C2829B
:1017B00086819781B801681B790B072E000C880B76
:1017C000990BC0907A01D0907B010D2C000CEE0893
:1017D000FF08C616D706E806F90654F46C197D0909
:1017E0008E099F090E94BC0AC60ED71EE81EF91E6C
:1017F00080918E0290918F02B89EF001B99EF00DFB
:101800001124E955FE4FD582C482A08669E070E0BC
:1018100080E090E00E94BC0A20918E0230918F02FD
:10182000AB01BC014F5F5F4F6F4F7F4FB29EF00126
:10183000B39EF00D1124E955FE4F41874287C9013F
:10184000019690938F0280938E025BCF83E892E0A3
:101850009093A3018093A2018FE390E0909386027E
:10186000809385028FE190E09093880280938702B5
:1018700010928B0285E090E090938A028093890217
:101880001092810181E090E090938801809387011C
:1018900082E0809389018DE091E0FC0101900020BD
:1018A000E9F7CF018E5091409C01220F331F280F82
:1018B000391F80E490E0821B930B90937901809311
:1018C000780110928E0110928C0181E08093910139
:1018D0001092A6011092A00180919601909197011B
:1018E000A0919801B09199018093920190939301F6
:1018F000A0939401B09395012FB7F894809197022B
:1019000090919802A0919902B0919A022FBF809372
:101910009A0190939B01A0939C01B0939D018091AB
:101920009001882319F085E080938F01DF91CF919A
:101930001F910F91FF90EF90DF90CF90BF90AF90ED
:1019400008951F920F920FB60F9211242F933F9379
:101950008F939F93AF93BF9380919702909198023A
:10196000A0919902B0919A023091960223E0230F40
:101970002D3758F50196A11DB11D20939602809335
:10198000970290939802A0939902B0939A02809143
:101990009B0290919C02A0919D02B0919E020196A3
:1019A000A11DB11D80939B0290939C02A0939D0268
:1019B000B0939E02BF91AF919F918F913F912F91D4
:1019C0000F900FBE0F901F90189526E8230F0296D8
:1019D000A11DB11DD2CF1F920F920FB60F921124ED
:1019E0008F939F938091E1009091E100937F90937A
:1019F000E10083FF0FC01092E90091E09093EB00AB
:101A00001092EC0092E39093ED001092AC0298E0FB
:101A10009093F00082FF22C093E09093E9009091B0
:101A2000F200992319F09AE39093E80090916901EC
:101A3000992341F09091690191509093690191111E
:101A400001C05D989091AB02992341F09091AB0257
:101A500091509093AB02911101C0289884FF18C057
:101A60008091E2008E7E81608093E2008091E100AF
:101A70008F7E8093E10080916A018E7E80618093E9
:101A80006A019F918F910F900FBE0F901F90189534
:101A900080FFF7CF8091E2008E7E80618093E2002C
:101AA0008091E1008E7E8093E10080916A018E7EBC
:101AB0008160E5CF1F920F920FB60F921124CF9243
:101AC000DF92EF92FF920F931F932F933F934F93C9
:101AD0005F936F937F938F939F93AF93BF93EF9396
:101AE000FF93CF93DF93CDB7DEB76C97DEBFCDBF4B
:101AF0001092E9008091E80083FF25C068E0CE01E4
:101B000045960E94D40682EF8093E8008D8987FF76
:101B100039C09091E80090FFFCCF982F907609F0A3
:101B200034C19E894F89588D2F89F88C911131C00D
:101B3000803861F580916B018093F1001092F10083
:101B40008EEF8093E8006C960FB6F894DEBF0FBE60
:101B5000CDBFDF91CF91FF91EF91BF91AF919F9159
:101B60008F917F916F915F914F913F912F911F9135
:101B70000F91FF90EF90DF90CF900F900FBE0F90DE
:101B80001F9018959EEF9093E800C7CF1092F10038
:101B9000D5CF913059F48111D3CF4130510581F621
:101BA00080916B018D7F80936B01CACF933049F494
:101BB0008111C6CF4130510519F680916B018260C9
:101BC000F2CF953041F48091E80080FFFCCF20688F
:101BD0002093E300B5CF963009F0A9C00B8D1C8D82
:101BE00022E01092E9001092670110926601F21251
:101BF0002EC010926501109264010E94A3061F82FC
:101C000099E09983FA8291E09E8390EA98879AEF0F
:101C100099872091660130916701275F3F4F3C8390
:101C20002B838D831092E900109267011092660158
:101C3000109365010093640149E050E0BE016F5FBD
:101C40007F4F80E00E947D060E94A30679CF10930B
:101C50006501009364010E94E305DC0112960D9179
:101C60001C910115110509F451C1D801ED91FC91A8
:101C70000480F581E02DBE016B5E7F4FC8010995A0
:101C8000009709F03EC1F80100851185EACFF3E025
:101C9000FF120EC08F89882309F440C0823061F49E
:101CA00040E86DE080E196E00E948C0F811148CF02
:101CB00081E28093EB0047CF813029F440E86BE06C
:101CC00084E096E0F1CF833099F70E94E305DC01D0
:101CD0001296ED90FC908E010F5F1F4F6801E1148A
:101CE000F10479F0D701ED91FC910680F781E02DA8
:101CF000B801C7010995080F111DF701E084F184AF
:101D0000EECFD8011C92F60101900020E9F731973F
:101D1000BF016C197D0940E0C601C6CF6EEE75E0CB
:101D2000FB01449150E080E80E947D0609CF973086
:101D300009F4BECF983021F481E08093F10000CF08
:101D4000993009F0FDCE837009F0B2CFE1E2F1E005
:101D500081E031E096E32191222371F08093E90044
:101D60003093EB00DF0111972C912093EC009093BE
:101D7000ED008F5F873079F78EE78093EA0010924D
:101D8000EA008F898093AC02DBCE8B8D9C8D109204
:101D9000E9001092670110926601909365018093AB
:101DA0006401898D811192C08E899D89913A49F48F
:101DB000813209F07DCF47E050E064E071E080E0DF
:101DC000B3CF913209F074CF833269F48F89988D43
:101DD000B0E0A0E08093000190930101A093020184
:101DE000B0930301ADCE803269F48091E80082FFA8
:101DF000FCCF67E084E091E00E94D4068BEF8093F3
:101E0000E8009ECE823209F09BCE8F8980930B0131
:101E1000EEEFFFE7859194918B3F9C4D51F1E0E00F
:101E2000F8E08091040190910501A0910601B09124
:101E30000701803B9440A105B105F1F480910B01AD
:101E400080FD1AC0EE3F8AE0F80789F587E797E73B
:101E500091838083809160008093680188E19BE09A
:101E60000FB6F894A895809360000FBE9093600021
:101E700067CEEEEFFAE0D5CF808191818737974723
:101E800009F05ECEA8958091600088618093600023
:101E90008091680180936000EE3F2AE0F20789F0AC
:101EA0008091FE0A9091FF0A9183808349CE8081C0
:101EB00091818737980751F29093FF0A8093FE0A29
:101EC000C5CF1092FF0A1092FE0A3ACE0E94E30597
:101ED000DC0112960D911C910115110509F4E8CE53
:101EE000D801ED91FC910190F081E02DBE016B5E77
:101EF0007F4FC8010995811123CEF8010085118516
:101F0000EBCF181619060CF41BCED2CEF1E0FF125F
:101F1000BECE62EF75E004CFEF92FF920F931F9356
:101F2000CF93DF93F82E192FE62E042F81E0860F32
:101F3000880F0E944F0683E00E944F06CF2DD12FBD
:101F4000EC0EFD2EF11CCE15DF05B9F007FF13C016
:101F5000FE0184910E944F06182F80E00E944F06D8
:101F6000812321968111EFCFDF91CF911F910F91A6
:101F7000FF90EF9008958881EDCF81E0F5CFEDEAF5
:101F8000F6E01382128288EE93E0A0E0B0E0848352
:101F90009583A683B7838BE291E0918380838FEF53
:101FA0009FEF95878487EDEFF6E0138212828DE331
:101FB00091E0918380830895CF93DF93CDB7DEB70F
:101FC00062970FB6F894DEBF0FBECDBF789484B58C
:101FD000826084BD84B5816084BD85B5826085BD25
:101FE00085B5816085BD80916E00816080936E00B3
:101FF00010928100809181008260809381008091A5
:102000008100816080938100809180008160809355
:102010008000809191008260809391008091910076
:102020008160809391008091900081608093900006
:102030008091C10084608093C1008091C100826062
:102040008093C1008091C10081608093C100809124
:10205000C30081608093C3008091C0008260809340
:10206000C0008091C20081608093C20080917A009C
:10207000846080937A0080917A00826080937A00F5
:1020800080917A00816080937A0080917A008068E4
:1020900080937A001092AC0210926B0110926A0148
:1020A0008091D70081608093D70080EA8093D80028
:1020B00089B5806189BD89B5826089BD09B400FE9A
:1020C000FDCF61E070E080E090E00E941C0680910E
:1020D000D8008F7C80618093D8008091E000807F61
:1020E0008093E0008091E1008E7E8093E1008DE09E
:1020F0008093E200559A209A5D98289881EC80930D
:102100007C0085B1806F85B984B1877E84B984B144
:10211000876E84B95E9A5F988AB1806D8AB9769A23
:102120006E9881B3806F81BB899880B38D7080BBBE
:1021300080E58CBD81E08DBD85E090E00E941608B1
:102140005F9A85E090E00E9416085E985C98EEEC3D
:10215000F6E08BED96E024912EBD00000DB407FE55
:10216000FDCF31968E179F07B1F75C9A81E8809377
:102170006400809165008160809365000E9443083F
:1021800080E80E9438088823A9F05C9885EA8EBD13
:1021900000000DB407FEFDCF5C9A2E982F982D9865
:1021A0008091640080628093640081E083BF8895A1
:1021B00013BEFCCF84E00E943808882309F448C08D
:1021C0002D9884E80E9438088823E1F00E941408C2
:1021D00088EC90E00E9416082F9882E090E00E9420
:1021E000511E8F3F29F06FEF82E090E00E94591E50
:1021F00084EF91E00E9416082F9A84E80E94380824
:102200008111FBCF84E10E9438088823E1F00E940D
:10221000140888EC90E00E9416082E9882E090E066
:102220000E94511E882329F060E082E090E00E9425
:10223000591E84EF91E00E9416082E9A84E10E94B4
:1022400038088111FBCF88EC90E00E941608B2CFCD
:102250000E94140882E090E00E94BA0A882309F4E0
:10226000C5C03E9A3F9A81E090E00E94BA0A082FCA
:102270000470502E81FF14C001112E9801EF1FEF42
:10228000B8E0AB2EB12C8CE6E82EF12C80E40E9455
:102290003808882309F4ADC02E9A2F9A0E9414089A
:1022A00082E390E00E9416080E941B088111F8CF7B
:1022B0008FEF9FEF9093BA068093B90680E18093E9
:1022C0000C01809164008E7F8093640080917A007D
:1022D000806480937A0080917A0086FDFCCF009123
:1022E0007800109179000E94F705AB01BC01C8018C
:1022F000B0E0A0E0DC01992788278C019D01040F44
:10230000151F261F371FC901B801209164002160E5
:1023100020936400611571058105910511F00E94FB
:10232000481E0E9423081092960110929701109265
:1023300098011092990190E080E0DC01A355BD4F17
:1023400030E020E0BC016552794FFB01E20FF31F42
:102350004491EC91E427ED932F5F3F4F20383105F6
:10236000A1F780589F4F811514E0910731F70E9423
:10237000430868EB7BE080E090E00E941C0681E06F
:10238000809390010E94560B38E0232E312C412C73
:10239000512C1BE08FB7F89440919702509198020E
:1023A0006091990270919A028FBF80916E0188238B
:1023B00009F4E9C010926E0180919202909193020B
:1023C000A0919402B09195020196A11DB11D809338
:1023D000920290939302A0939402B093950280E0AE
:1023E00090E0892BB9F20E940000D3CF3E983F982D
:1023F0003ACF552029F00430110511F42E9A2F9868
:1024000081E00E949905980117FF04C02227332715
:10241000201B310B27703327C80117FD0796A3E057
:1024200095958795AA95E1F717FF05C00197A50136
:10243000421B530B9A01BC017695762F6627779540
:10244000679563557D4FB0E0A0E01501221A330A6D
:102450008E3F5FEF950709F446C048E550E0FD0167
:10246000EA58F94F4F013B01F0E86F0E711C8F3FA6
:102470009807C9F0F401E41BF50B44906701C41AF6
:10248000D50AC60ED71EE42DF0E0022E02C0EE0FD4
:10249000FF1F0A94E2F7FE83ED83F6014080FD8181
:1024A0004F2AF601408221153105C9F0F401E41BE1
:1024B000F50B44906701C41AD50AC60CD71CE42D4D
:1024C000F0E0022C02C0F595E7950A94E2F7FE834E
:1024D000ED83F6014080FD814F2AF6014082415094
:1024E000510909F0C4CF0196A85ABF4F60587F4FD9
:1024F000A03BB10509F0ACCF0E9443088FE090E00B
:102500000E9416080F5F1F4F0931110509F0BECE5A
:10251000552011F02F9A2D9880E991E00E9416081D
:102520000E94140881E090E00E94BA0A80FFB8CEB1
:102530008AE090E00E94BA0A9FEF980F9E3F08F051
:10254000AFCE22E330E0309373012093720128E391
:1025500030E030937101209370010BE010E0682FA0
:102560008DEF96E00E94D409C8010E94BA0A0F5F5D
:102570001F4F0131110599F70E94430888EE93E03F
:102580000E9416088DCE80916F01242F281B822F68
:1025900090910C01291748F48F5F891708F00CCF30
:1025A00081E083BF889513BE07CF81E080936E01E1
:1025B00040936F0180916C0190916D010196909311
:1025C0006D0180936C010E94230847EA51E0588B0B
:1025D0004F8723E832E05E834D8390E080E0AD8159
:1025E000BE812A173B0749F04C9141110196ED81BC
:1025F000FE813B96FE83ED83F2CF24E130E0309301
:102600008F0220938E0290939102809390029F9369
:102610008F9324E5E22E21E0F22EFF92EF9221E04B
:1026200030E02C0F3D1F3F932F930E94292089817A
:10263000809319018A8180931A018091A40190915D
:10264000A5010F900F900F900F900F900F90843670
:1026500091050CF0F1C09F938F93FF92EF9241E0B0
:1026600050E04C0F5D1F5F934F930E9429200F9005
:102670000F900F900F900F900F90898180930F0112
:102680008A81809310012091A4013091A501243604
:10269000310514F08093110180919E0190919F016A
:1026A000843691050CF0D5C09F938F9384E591E01B
:1026B0009F938F93A1E0B0E0AC0FBD1FBF93AF938A
:1026C0000E9429200F900F900F900F900F900F9065
:1026D0008981809314018A818093150180919E01E4
:1026E00090919F01843691051CF08B818093160197
:1026F0008091780190917901909373018093720198
:1027000088E390E090937101809370016DE071E037
:102710008DEF96E00E94D60A10928F0210928E02E0
:1027200020918E0230918F023C872B87E090A2018E
:10273000F090A301D70116968D919C91243131051B
:102740000CF0A0C0129FF001139FF00D1124E95569
:10275000FE4F2081222309F48DC046815781648079
:10276000758082809380841795070CF07FC05A0192
:10277000BB24440F4F5FB3016A197B09C4010E9457
:102780002C09EE24E394F12CEA18FB0890E080E099
:102790008A199B09FC01EE0FFF1FFE87ED87D12CE4
:1027A000C12C21E030E038872F83CA14DB040CF001
:1027B00061C0F7FC0BC031E0A31AB1084D855E85FE
:1027C0004E5F5F4F5E874D87E40EF51E5FEFC51AC3
:1027D000D50A8F819885029698878F83E80EF91E17
:1027E0000A2D000F0F5F402FD301AA19BB09BA872A
:1027F000A987BD01C601880D991D0E942C09F3010E
:10280000EC19FD09FA8BE98B4F81BF01C4018A0DD8
:102810009B1D0E942C09402F69857A85C4018C1963
:102820009D090E942C094F8169897A89C4018A19FE
:102830009B090E942C09B9CF9F938F9389E591E062
:102840009F938F9381E090E08C0F9D1F9F938F93B8
:102850000CCF9F938F9389E591E09F938F93E1E055
:10286000F0E0EC0FFD1FFF93EF932ACFB301C401FB
:102870000E9464088B859C85019690938F028093BB
:102880008E024ECF20919101211104C020918E0122
:10289000222361F041E0480FD70114966D917C919D
:1028A000159712968D919C910E946408F70164819E
:1028B00075814681828193810E94640810928F0203
:1028C00010928E02C090A201D090A30180918E023E
:1028D00090918F0205970CF091C0D60116966D91DC
:1028E0007C9161507109072E000C880B990B6230A6
:1028F0007105810591050CF477C06150710981095A
:1029000091090E94BC0ADC01CB010196A11DB11DF9
:102910009093770180937601E091A201F091A30159
:102920006681778161507109072E000C880B990B25
:1029300062307105810591050CF45BC0615071092D
:10294000810991090E94BC0ADC01CB010196A11DFD
:10295000B11D909375018093740163E670E080E08F
:1029600090E00E94BC0A60FF0BC0809176019091BC
:1029700077019195819591099093770180937601E4
:1029800063E670E080E090E00E94BC0A60FF0BC04C
:102990008091740190917501919581959109909321
:1029A000750180937401E091A201F091A30164810B
:1029B00075818091740190917501680F791F228152
:1029C0003381809176019091770141E0820F931FCE
:1029D0000E94460880918E0290918F0201969093FA
:1029E0008F0280938E026ECF81E090E0A0E0B0E095
:1029F0008FCF81E090E0A0E0B0E0ABCF809181018B
:102A0000882361F060918501709186014091870172
:102A100080918301909184010E94640880919001CB
:102A2000882369F040918F01405D02E0E02E00E0D4
:102A300021E070E060E090E080E00E9452090E9496
:102A40004308E7EAF1E090E080E02D813E812E1717
:102A50003F0729F02081211101963B96F6CF24E112
:102A600030E030938F0220938E02909391028093F6
:102A70009002892B09F58091A60181111DC08091DA
:102A8000A4019091A5010196883E33E093070CF0D4
:102A900096C19093A5018093A4018AE08093A6013A
:102AA000D60116968C9116978093A10184E190E04F
:102AB00017969C938E9316978091A6018823F1F028
:102AC000F6012681378121503109378326834091D1
:102AD000A101042E000C550B241735077CF424E1CA
:102AE00030E03783268381508093A601E091A201D4
:102AF000F091A301811123C00E94560BE091A20125
:102B0000F091A301868197810197C9F48091A0017A
:102B1000811115C080919E0190919F010196883E80
:102B200003E090070CF04EC190939F0180939E01AB
:102B30008AE08093A00184E190E09783868380916E
:102B4000A001882341F0268137812150310909F401
:102B50003CC1378326838FB7F894409197025091F8
:102B600098026091990270919A028FBF80919A01A8
:102B700090919B01A0919C01B0919D0188519C4F27
:102B8000AF4FBF4F481759076A077B0708F46FC05C
:102B90002FB7F8948091970290919802A091990292
:102BA000B0919A022FBF80939A0190939B01A093BA
:102BB0009C01B0939D011092920210929302109288
:102BC0009402109295028091960190919701A091A4
:102BD0009801B09199010196A11DB11D80939601B4
:102BE00090939701A0939801B0939901409192011D
:102BF000509193016091940170919501841B950B04
:102C0000A60BB70B0697A105B10514F01092910120
:102C10002F9A80919001882349F080918F018150F3
:102C200080938F01811102C0109290016DE571E0D7
:102C30008DEA96E00E94D60A80918F01082E000C42
:102C4000990B0E944C0B61E671E08DEA96E00E94C0
:102C5000D60A6091900170E090E080E04AE00E9426
:102C6000E50A61E571E08DEA96E00E94D60A80915E
:102C7000A6018111B4CB8091A0018111B0CB8091CC
:102C800090018111ACCB80918E01882341F080911D
:102C90008D01882309F4A5C0815080938D01109285
:102CA0008F0210928E0280918E0290918F02843159
:102CB00091050CF0B1C0189FF001199FF00D11247F
:102CC000E955FE4F2081222309F49CC00196909380
:102CD00091028093900280919002909191028431B0
:102CE00091050CF08FC0189FF001199FF00D112471
:102CF000E955FE4F8081882309F45CC080918E02E3
:102D000090918F02189FD001199FB00D1124A955E1
:102D1000BE4F2281338112968D919C911397281B6F
:102D2000390B8481958114964D915C911597841B84
:102D3000950B4681578116966D917C91460F571FD2
:102D4000229FB001239F700D700D1124889F900168
:102D5000899F300D300D1124620F731F449F900125
:102D6000459F300D300D1124261737071CF12F9881
:102D700020918E0230918F02809190029091910269
:102D8000129FD001139FB00D1124A955BE4F189F5B
:102D9000F001199FF00D1124E955FE4F16964D9143
:102DA0005C91668177816417750754F5BC01C90190
:102DB0000E94030A809190029091910287CF87EE42
:102DC00093E067CE87EE93E0AFCE24E130E0378327
:102DD000268381508093A0018111BDCE0E94560BA5
:102DE000BACE80918C01882331F010928C010E9420
:102DF00014088EE152CF81E080938C012D98F9CF99
:102E0000B901D6CF80918E0290918F020196909356
:102E10008F0280938E0247CF8091910181118CC0E7
:102E200080918E01811188C010928F0210928E02C3
:102E300001E080918E0290918F02843191050CF017
:102E40007BC0189FF001199FF00D1124E955FE4F2A
:102E50008081882309F460C0A091A201B091A301F0
:102E600012962D913C91139782819381281B390BE7
:102E700014968D919C91159744815581841B950BD7
:102E800016964D915C9166817781460F571F229F60
:102E9000B001239F700D700D1124889F9001899FB0
:102EA000300D300D1124620F731F449F9001459F18
:102EB000300D300D11242617370774F12F988091AB
:102EC0008E0290918F02189FF001199FF00D11242E
:102ED000E955FE4FA091A201B091A301468157810F
:102EE00016962D913C912417350704F564E170E0A6
:102EF0000E94030A0093910180919601909197019D
:102F0000A0919801B09199018093920190939301BF
:102F1000A0939401B093950180918E0290918F02BD
:102F2000019690938F0280938E0283CFBC0184E13F
:102F300090E00E94030AF0CF80918101882309F478
:102F4000FCC020918701309188013E832D836090E1
:102F50008501709086018090830190908401E7EA5A
:102F6000F1E090E080E08431910509F457C22081BE
:102F7000222309F450C266817781448155812281E0
:102F80003381D401A21BB30B6301C41AD50AED80AF
:102F9000FE80E60EF71EAA9F5001AB9FB00CB00C4E
:102FA0001124CC9CD001CD9CB00DB00D1124AA0DE4
:102FB000BB1DEE9C6001EF9CD00CD00C1124CA16F6
:102FC000DB060CF428C290938F0280938E0210923D
:102FD0008101633071055CF0189FF001199FF00DBD
:102FE0001124E955FE4F7595679577836683189F81
:102FF000F001199FF00D1124E955FE4F668177818C
:103000006230710524F462E070E077836683189F74
:10301000F001199FF00D1124E955FE4F62856230D1
:1030200014F061506287189FF001199FF00D112470
:10303000E955FE4F66817781A0918901A4300CF09B
:10304000BBC0A1300CF0C9C0AA2309F4D0C0189F9E
:10305000F001199FF00D1124E955FE4F22813381B3
:10306000261B370B37FF02C073836283189FF00162
:10307000199FF00D1124E955FE4F24813581261B3F
:10308000370B37FF02C075836483189FF001199FC7
:10309000F00D1124E955FE4F22813381260F371F91
:1030A0002038310534F02FE730E0261B370B33830F
:1030B0002283189FF001199FF00D1124E955FE4F4E
:1030C00084819581860F971F8034910534F08FE3BA
:1030D00090E0861B970B9583848363E070E080E02B
:1030E00090E00E94BC0AE0908E02F0908F021E9D3C
:1030F00090011F9D300D1124A90149555E4F6A01B1
:10310000DA0118962C91822E220F9908AA08BB0882
:10311000680D791D8A1D9B1DA20191010E94671EE9
:10312000F601608750E040E09A014431510509F012
:1031300074C0509391024093900288E00E94380836
:10314000882331F010928E01109281010E941408A0
:1031500084E00E943808882359F080918E01811103
:1031600007C081E080938E0110928C0110928D0136
:1031700040918E01E0918901442309F445C2809178
:103180008101811141C281E080938101E83008F022
:10319000D1C20E2E000CFF0BEC52F74EE090A201B4
:1031A000F090A3010C940F20131A7A1A7A1A8D1A30
:1031B000B01ABE1ADF1AEB1AA43039F1A8300CF09D
:1031C00046CFDB01AA0FBB1FAA0FBB1F2A0F3B1F55
:1031D000338322834A1B5B0B15C0AB01440F551F81
:1031E000440F551F240F351F3383228330CFDB015B
:1031F000AA0FBB1FAA0FBB1F2A1B3B0B33832283C3
:103200004A0F5B1F5583448322CFDB01AA0FBB1FEC
:10321000AA0FBB1F2A1B3B0BDBCFAF85B889EC91F4
:103220004F5F5F4F1B96B88BAF87E1117DCF309317
:10323000910220939002129FF001139FF00D112430
:10324000E955FE4F41E04083CB01049668E070E011
:103250000E94FB1F80871E9DD0011F9DB00D112471
:10326000A955BE4F16968D919C911797978386838B
:1032700012968D919C9113979383828314968D91CE
:103280009C911597958384838091890184300CF0FB
:1032900060C081300CF081C0882309F49CC01E9D61
:1032A000F0011F9DF00D1124E955FE4F8681978195
:1032B00042815381481B590B57FF02C0938382837D
:1032C0001E9DF0011F9DF00D1124E955FE4F448114
:1032D0005581481B590B57FF02C0958384831E9D5F
:1032E000F0011F9DF00D1124E955FE4F42815381DD
:1032F000480F591F4038510534F04FE750E0481B44
:10330000590B538342831E9DF0011F9DF00D112424
:10331000E955FE4F44815581480F591F40345105EE
:1033200034F04FE350E0481B590B558344831E9DF6
:10333000F0011F9DF00D1124E955FE4F8285129F6B
:10334000F001139FF00D1124E955FE4F818782870C
:10335000F4CE843009F44FC088300CF0A0CF16961C
:103360008D919C911797E3E0880F991FEA95E1F7FB
:1033700012964D915C911397481B590B13965C93D1
:103380004E93129714964D915C911597840F951F4B
:1033900015969C938E93149782CF16968D919C913F
:1033A0001797F3E0880F991FFA95E1F712964D9160
:1033B0005C911397481B590B13965C934E9312978D
:1033C00014964D915C911597481B590B15965C937B
:1033D0004E93149764CF16968D919C91179773E036
:1033E000880F991F7A95E1F712964D915C9113978A
:1033F000480F591FE1CF16968D919C91179763E066
:10340000880F991F6A95E1F712964D915C91139779
:10341000480F591FB3CF01963B96A5CD90938F02CD
:1034200080938E028ACEF7018281938190938401EA
:10343000809383018481958126813781821B930B40
:10344000909386018093850110928F0210928E02D4
:1034500080E80E943808882331F081E090E0909362
:103460008F0280938E0280E10E943808882349F001
:1034700080918E0290918F02826090938F02809350
:103480008E0280E20E943808882349F080918E02E3
:1034900090918F02846090938F0280938E0280E4DB
:1034A0000E943808882349F080918E0290918F0203
:1034B000886090938F0280938E0280918E0290910B
:1034C0008F02FC013197EF30F10508F010C2E55989
:1034D000F54E0C940F20601C671C671C6B1C6D1C48
:1034E0006F1C6F1C711C731C751C751C711C731C6C
:1034F000751C751CD70112968D919C911397169689
:103500002D913C911797820F931F90938401809384
:10351000830114968D919C9193CFF70166817781F9
:10352000072E000C880B990B0E94021F21E834E043
:1035300045E35FE30E94661F0E94CA1ED7011296F0
:103540002D913C911397260F371F309384012093C0
:10355000830114962D913C91C901861B970B70CF66
:10356000F701828193819093840180938301848108
:10357000958126813781820F931F62CFD7011696DE
:103580006D917C91072E000C880B990B0E94021FF5
:1035900021E834E045E35FE30E94661F0E94CA1EF3
:1035A000F70122813381261B370B3093840120934E
:1035B000830124813581C901860F971F41CFD7012F
:1035C00012968D919C91139716962D913C91179779
:1035D000821B930B9ACFF70166817781072E000C2F
:1035E000880B990B0E94021F21E834E045E35FE35A
:1035F0000E94661F0E94CA1ED70112962D913C910F
:103600001397261B370BA1CFE83008F093C00E2E7E
:10361000000CFF0BEE5EF44E8091870190918801C3
:103620000C940F20891B1A1B2D1B3E1B5F1B501B6C
:103630006E1B791B20918301309184012F5F3F4FD6
:103640003093840120938301280F391F2F373105D0
:103650000CF45FC0109281015CC020918301309115
:1036600084012F5F3F4F3093840120938301820FA9
:10367000931F8F3791050CF05BC05CC020918301D4
:10368000309184012F5F3F4F309384012093830159
:10369000280F391F2F37310594F0109281010FC088
:1036A00020918301309184012150310930938401AC
:1036B00020938301280F391F1216130674F72091E7
:1036C0008501309186012F5F3F4F30938601209313
:1036D0008501820F931FCF975CF52CC02091830149
:1036E000309184012150310930938401209383016A
:1036F0001AC0209183013091840121503109309307
:10370000840120938301280F391F121613060CF031
:10371000A1CF20918501309186012150310930934C
:10372000860120938501820F931F1816190614F045
:1037300010928101411188CE80E80E9438088823C8
:1037400089F0E091A201F091A30184819581019714
:103750009583848326813781821B930B97FF02C058
:103760003583248380E10E9438088823B1F0E091FA
:10377000A201F091A30184819581019695838483B0
:1037800026813781820F931F8034910534F08FE3B7
:1037900090E0821B930B9583848380E20E9438081B
:1037A000882389F0E091A201F091A30182819381A5
:1037B00001979383828326813781821B930B97FF26
:1037C00002C03383228380E40E9438088823B1F04A
:1037D000E091A201F091A3018281938101969383EC
:1037E000828326813781820F931F8038910534F0C0
:1037F0008FE790E0821B930B9383828310928F025A
:1038000010928E0201E085E0B82E92E0892E23E02E
:10381000A22E37E0932E46E0742E54E0652E809160
:103820008E0290918F028431910514F00C94EF1167
:10383000189FD001199FB00D1124A955BE4F8C912E
:10384000882309F4D4C019968C9119978150199640
:103850008C9319978111CBC01A968C911A9719964F
:103860008C9319971896EC911897E0938001129613
:103870002D913C91139730937F0120937E011496F4
:103880004D915C91159750937D0140937C01169664
:103890008D919C9190937B0180937A01E83008F0A0
:1038A0008CC00E2E000CFF0BE85AF34E0C940F2028
:1038B0007B1CB11C011D151D401D541D7A1D891D49
:1038C000109289010E944C0B1092810197CF24E045
:1038D00020938901F7CF26E0FBCF27E0F9CF25E041
:1038E000F7CF22E0F5CF21E0F3CF23E0F1CF00972F
:1038F00009F484CFE7CF415051099A01281B390BB5
:1039000037FD05C050937D0140937C0156C09093D4
:103910007D0180937C016092800169E070E080E02D
:1039200090E00E94BC0A60FF48C0C09080010C2C4F
:10393000000CDD08EE08FF0866E070E080E090E033
:103940000E94BC0A6F5F7F4F8F4F9F4F6C0D7D1D94
:103950008E1D9F1DA20191010E94671E6093800130
:103960002CC041505109BA01681B790B77FD11C079
:1039700050937D0140937C012F5F3F4FAC01420F7C
:10398000531F403851057CF430937F0120937E0112
:1039900014C0AC014F5F5F4F50937D0140937C0199
:1039A000A0928001E9CFEEE7F0E0E81BF90BF0937D
:1039B0007F01E0937E019092800180918E02909130
:1039C0008F02189FF001199FF00D1124E955FE4F49
:1039D00080918001808780917E0190917F01938307
:1039E000828380917C0190917D0195838483809175
:1039F0008E0290918F02019690938F0280938E0297
:103A00000ECF2F5F3F4FAC01420F531F403851057F
:103A10000CF4BACF2EE730E0281B390B30937F012E
:103A200020937E017092800178CF4F5F5F4FBC0181
:103A3000640F751F60347105C4F450937D01409389
:103A40007C012F5F3F4FAC01420F531F403851059F
:103A50000CF49ACF4EE750E0481B590B50937F016E
:103A600040937E01B0928001A8CF4EE350E0481B06
:103A7000590B50937D0140937C0100938001E1CF6D
:103A80004F5F5F4F9C01240F351F203431050CF42C
:103A900039CFAEE3B0E0A81BB90BB0937D01A09382
:103AA0007C011092800139CF4F5F5F4FBC01640FE2
:103AB000751F603471059CF450937D0140937C0127
:103AC00021503109A901481B590B57FF5DCF0196C1
:103AD00090937F0180937E01A09280016ECF4EE390
:103AE00050E0481B590B50937D0140937C0190920C
:103AF0008001E6CF21503109A901481B590B57FF1E
:103B000043CF019690937F0180937E018092800144
:103B100004CF41505109BA01681B790B77FD13C0DE
:103B200050937D0140937C0121503109A901481B2C
:103B3000590B57FF29CF019690937F0180937E0107
:103B4000009380013ACFAC014F5F5F4F50937D01EE
:103B500040937C01B0928001E7CF8F929F92AF9209
:103B6000BF92CF92DF92EF92FF92CF93DF93EC015F
:103B7000688179818A819B81611571058105910533
:103B800021F464E279ED8BE597E02DE133EF41E03C
:103B900050E00E94671E49015A019B01AC01A7EA4F
:103BA000B1E40E94861E6B017C01ACEEB4EFA5016E
:103BB00094010E94941EC60ED71EE81EF91EF7FE41
:103BC00006C081E0C81AD108E10880E8F80AC88276
:103BD000D982EA82FB82C701B6019F77DF91CF913C
:103BE000FF90EF90DF90CF90BF90AF909F908F901D
:103BF00008958F929F92AF92BF92CF92DF92EF92F1
:103C0000FF9260911C0170911D0180911E019091A5
:103C10001F01611571058105910521F464E279EDBB
:103C20008BE597E02DE133EF41E050E00E94671E05
:103C300049015A019B01AC01A7EAB1E40E94861E2A
:103C40006B017C01ACEEB4EFA50194010E94941EBF
:103C5000C60ED71EE81EF91EF7FE06C081E0C81A80
:103C6000D108E10880E8F80AC0921C01D0921D0139
:103C7000E0921E01F0921F01C701B6019F77FF90ED
:103C8000EF90DF90CF90BF90AF909F908F9008956E
:103C900060931C0170931D0180931E0190931F017E
:103CA0000895F999FECF92BD81BDF89A992780B504
:103CB0000895262FF999FECF1FBA92BD81BD20BD70
:103CC0000FB6F894FA9AF99A0FBE01960895052E48
:103CD00097FB1EF400940E947E1E57FD07D00E94A1
:103CE000991E07FC03D04EF40C947E1E509540950F
:103CF000309521953F4F4F4F5F4F08959095809598
:103D0000709561957F4F8F4F9F4F08950E94BB1E06
:103D1000A59F900DB49F900DA49F800D911D11241F
:103D20000895B7FF0C94861E0E94861E821B930B7B
:103D30000895A1E21A2EAA1BBB1BFD010DC0AA1FEC
:103D4000BB1FEE1FFF1FA217B307E407F50720F004
:103D5000A21BB30BE40BF50B661F771F881F991F7F
:103D60001A9469F760957095809590959B01AC01C8
:103D7000BD01CF010895A29FB001B39FC001A39FD1
:103D8000700D811D1124911DB29F700D811D112494
:103D9000911D08950E94D11E6894B1110C94601F6A
:103DA00008950E94451F88F09F5798F0B92F9927D2
:103DB000B751B0F0E1F0660F771F881F991F1AF016
:103DC000BA95C9F714C0B13091F00E945F1FB1E0FD
:103DD00008950C945F1F672F782F8827B85F39F0FC
:103DE000B93FCCF3869577956795B395D9F73EF4AF
:103DF00090958095709561957F4F8F4F9F4F089557
:103E0000E89409C097FB3EF4909580957095619574
:103E10007F4F8F4F9F4F9923A9F0F92F96E9BB272A
:103E20009395F695879577956795B795F111F8CFA6
:103E3000FAF4BB0F11F460FF1BC06F5F7F4F8F4F11
:103E40009F4F16C0882311F096E911C0772321F007
:103E50009EE8872F762F05C0662371F096E8862F9F
:103E600070E060E02AF09A95660F771F881FDAF7F6
:103E7000880F9695879597F9089557FD9058440FA8
:103E8000551F59F05F3F71F04795880F97FB991FB9
:103E900061F09F3F79F08795089512161306140676
:103EA000551FF2CF4695F1DF08C016161706180603
:103EB000991FF1CF86957105610508940895E894DE
:103EC000BB2766277727CB0197F908950E94791FB2
:103ED0000C94EA1F0E94DC1F38F00E94E31F20F0C0
:103EE000952311F00C94D31F0C94D91F11240C941A
:103EF000601F0E943D1F70F3959FC1F3950F50E026
:103F0000551F629FF001729FBB27F00DB11D639F8B
:103F1000AA27F00DB11DAA1F649F6627B00DA11D31
:103F2000661F829F2227B00DA11D621F739FB00DD7
:103F3000A11D621F839FA00D611D221F749F332747
:103F4000A00D611D231F849F600D211D822F762FE0
:103F50006A2F11249F5750409AF0F1F088234AF0BD
:103F6000EE0FFF1FBB1F661F771F881F9150504029
:103F7000A9F79E3F510580F00C94D31F0C94601F4D
:103F80005F3FE4F3983ED4F3869577956795B795B0
:103F9000F795E7959F5FC1F7FE2B880F911D9695CA
:103FA000879597F9089597F99F6780E870E060E03A
:103FB00008959FEF80EC089500240A9416161706C2
:103FC00018060906089500240A941216130614060A
:103FD00005060895092E0394000C11F4882352F06D
:103FE000BB0F40F4BF2B11F460FF04C06F5F7F4F25
:103FF0008F4F9F4F089597FB072E16F4009407D01C
:1040000077FD09D00E94152007FC05D03EF490955D
:1040100081959F4F0895709561957F4F0895EE0F9C
:10402000FF1F0590F491E02D0994AA1BBB1B51E1E1
:1040300007C0AA1FBB1FA617B70710F0A61BB70B18
:10404000881F991F5A95A9F780959095BC01CD01BD
:104050000895AEE0B0E0EFE2F0E20C94D8220D89D2
:104060001E8986E08C831A8309838FEF9FE79E83E6
:104070008D83AE01475E5F4F6F89788DCE010196CB
:104080000E944C202F813885020F131FF8011082E7
:104090002E96E4E00C94F422ABE0B0E0E2E5F0E22E
:1040A0000C94CA227C013B018A01FC011782168212
:1040B000838181FFC8C1CE0101965C01F701938124
:1040C000F30193FD859193FF81913F01882309F4CA
:1040D00053C1853239F493FD859193FF81913F015E
:1040E000853229F4B70190E00E943C22E7CF912C61
:1040F000212C312CFFE1F31538F08B3211F190F4C3
:10410000803209F1833229F137FC3CC020ED280FC1
:104110002A3050F536FE20C08AE0989E200D1124EA
:10412000922E06C08D3291F0803371F7689430F88A
:10413000F30193FD859193FF81913F018111DACFC6
:1041400021C0689431F8689432F8F2CF689433F85B
:10415000EFCF689434F8ECCFEAE02E9E200D1124C6
:10416000222E689435F8E4CF8E3229F436FC04C14F
:10417000689436F8DDCF8C3619F4689437F8D8CFC8
:104180008836B1F2982F9F7D95549330E0F08336B6
:10419000A1F18337C1F1833509F063C02801F2E052
:1041A0004F0E511CF801C080D180692D70E036FCA3
:1041B00002C06FEF7FEFC6010E9426224C01689477
:1041C00037F882010AC00C5F1F4FFFE3F983882490
:1041D0008394912C6501E89437F833FE2DC0522C5E
:1041E0008114910471F5552009F468CFB70180E27C
:1041F00090E00E943C225A94F6CFF8018081898396
:104200000E5F1F4FE4CF2801F2E04F0E511CF80162
:10421000C080D180692D70E036FC02C06FEF7FEF67
:10422000C6010E9431224C018201D5CFB70180E244
:1042300090E00E943C222A942814190409F0B0F757
:10424000CECFF60137FC859137FE81916F01B70122
:1042500090E00E943C2251105A94F1E08F1A91088C
:10426000BFCF843619F0893609F077C0F80137FEE0
:104270006BC060817181828193810C5F1F4FF32D30
:10428000FF763F2E97FF09C09095809570956195B8
:104290007F4F8F4F9F4F689437F82AE030E0A50199
:1042A0000E946C22C82ECA188C2C432C36FE0CC0DF
:1042B000E89440F8C91440F434FE05C032FC03C051
:1042C000F32DFE7E4F2E892C44FE95C0FE01EC0D91
:1042D000F11D8081803309F087C0242D297E422E74
:1042E000842D8870582E43FC95C040FE8FC09C2CB6
:1042F000821418F42C0C922C981844FE91C0B7012B
:1043000080E390E00E943C2242FE09C088E790E0F2
:1043100041FE02C088E590E0B7010E943C22C9142A
:1043200008F48AC0CA94D12C9FEFC91AD90ACA0CC2
:10433000DB1CF60182916F01B70190E00E943C22E4
:10434000AC14BD04B1F74FCF60817181072E000C12
:10435000880B990B0E5F1F4F92CFD32CE894D4F8A3
:104360002AE030E0853739F1232D297FD22E8F3690
:1043700001F148F48835A9F0F701868197812B96E1
:10438000E2E10C94E622803749F08837A9F7D4FEA1
:1043900002C06894D2F820E130E00DC06894D4F8EF
:1043A000F6CF34FE03C0822F8660D82E20E132E0A3
:1043B00002C028E030E0F801D7FE0FC060817181B3
:1043C000828193810C5F1F4FA5010E946C22C82E31
:1043D000CA183D2CE89437F867CF6081718190E06E
:1043E00080E00E5F1F4FF0CF42FC02C0839478CF75
:1043F0008394839475CF842D867809F471CFF6CF9A
:10440000B70180E290E00E943C2283948214C0F3C2
:10441000512C73CF522C5818821408F46ECFF8CF59
:10442000842D867809F47BCF8BE241FE80E247FC45
:104430008DE2B70190E071CFB70180E390E00E9478
:104440003C229A946CCF8FEF9FEF99CFFC0105909F
:10445000615070400110D8F7809590958E0F9F1F86
:104460000895FC016150704001900110D8F78095CB
:1044700090958E0F9F1F08950F931F93CF93DF93F7
:10448000182F092FEB018B8181FD09C01FEF0FEF62
:10449000812F902FDF91CF911F910F91089582FF6F
:1044A00014C02E813F818C819D81281739073CF4EF
:1044B000E881F981CF0101969983888310838E81E9
:1044C0009F8101969F838E83E3CFE885F985812FB5
:1044D0000995892BA1F3DACFFA01AA27283051F1E7
:1044E000203181F1E8946F936E7F6E5F7F4F8F4F25
:1044F0009F4FAF4FB1E03ED0B4E03CD0670F781F84
:10450000891F9A1FA11D680F791F8A1F911DA11D68
:104510006A0F711D811D911DA11D20D009F46894A1
:104520003F912AE0269F11243019305D3193DEF649
:10453000CF010895462F4770405D4193B3E00FD0FF
:10454000C9F7F6CF462F4F70405D4A3318F0495DEA
:1045500031FD4052419302D0A9F7EACFB4E0A695CD
:104560009795879577956795BA95C9F700976105EF
:10457000710508959B01AC010A2E06945795479545
:1045800037952795BA95C9F7620F731F841F951F3A
:10459000A01D08952F923F924F925F926F927F924B
:1045A0008F929F92AF92BF92CF92DF92EF92FF9243
:1045B0000F931F93CF93DF93CDB7DEB7CA1BDB0BEF
:1045C0000FB6F894DEBF0FBECDBF09942A88398894
:1045D00048885F846E847D848C849B84AA84B9849B
:1045E000C884DF80EE80FD800C811B81AA81B981A7
:1045F000CE0FD11D0FB6F894DEBF0FBECDBFED01BB
:064600000895F894FFCFBD
:10460600FFFFFFFF00E100000000000010573A30F6
:1046160030204C3A3030204F3A3030000100000054
:1046260000C180810000000000000093070E07B45F
:1046360007A907FA07B807D60700000000D409E162
:1046460006B70AB60A5374617274204F736D6F739E
:10465600000D0A002530326400253364002D2D3EFE
:04466600002C000024
:00000001FF
