:100000000C940D0E0C94350E0C94350E0C94350E8C
:100010000C94350E0C94350E0C94350E0C94350E54
:100020000C94350E0C94350E0C94A0180C940F19EA
:100030000C94350E0C94350E0C94350E0C94350E34
:100040000C94350E0C94350E0C94350E0C94350E24
:100050000C94350E0C94350E0C94350E0C94411BFB
:100060000C94350E0C94350E0C94350E0C94350E04
:100070000C94350E0C94350E0C94350E0C94350EF4
:100080000C948B1B0C94350E0C94350E0C94350E81
:100090000C94350E0C94350E0C94350E0C94350ED4
:1000A0000C94350E0C94350E0C94350E01020102A1
:1000B0000102010201020102010201020102010228
:1000C0000102010201020102010201020102010218
:1000D0000102010201020102010201020102010208
:1000E00001020102010201020102010201020102F8
:1000F00001020102010201020102010201020102E8
:1001000001020102010201020102010201020102D7
:1001100001020102010201020102010201020102C7
:1001200001020102010201020102010255AA55AABF
:1001300055AA55AA55AA55AA55AA55AA010307FFBB
:10014000CFE7E7CFFFC7C7C7C3E12030383F3C390F
:10015000393C3F3838383021FFFEFC980868F8F801
:10016000680898FCFEFF3F1F0F0101213F3F21015E
:10017000010F1F3FE1C3C7C7C7FFCFE7E7CFFF07A7
:10018000030121303838383F3C39393C3F38302082
:10019000FF2DEB2D0BED4B8DEB0D2BED2BFF3F2CA6
:1001A000352C342D342C352C342D343F00000000F8
:1001B00000000000E0F0600000000000000000000F
:1001C000000000000000000080E0E080000000006F
:1001D0000007FEFEFCFCF8F8F0F0E0C0C0808000F4
:1001E0000000000000000000000000000070F0604F
:1001F00040000000000000000000000080E0F8FE69
:10020000FFF80000000000000000000000000000F7
:10021000000000000000000000000000008080C01E
:10022000E06030B03878FC7C0E0000000000000078
:1002300000000000000000000000000000000000BE
:1002400000000000000000000101010000000000AB
:100250000000003FFFFFFFFFE7070F0F1F1F07F71B
:10026000CF1EFEFCF8F8F0F0E0E0C0C08000000017
:100270000000000000000000C0F0F8FEFFFFFFFFDC
:10028000FFFFFFC000000000000000000000868E9D
:10029000C6C2E0E0F0F0F8FCFCFEFEFF7FFFFFFFCF
:1002A000F0F6F7F3F81E0300000000000000000065
:1002B00000070707000001071F7EFEFEFCFCFCF89C
:1002C000F8F8F0F0F0E0E08CBCB880C0808000006E
:1002D0000000000007FFFFFFFFE000000000030335
:1002E000030000000101030307070F0F1F1F3F3E1C
:1002F0007E7CFCF8F8F0FCFF7F3F1F0703010F3FF7
:10030000FFFFFFFFF8F0F0F8F8FC7C7E3E3F1F1F78
:100310001F0F0F0707030303010100C0FEFFFFFFCC
:10032000FFFF3F070000000000000000000030E079
:10033000E0C0000000000000000000030F3F7FFF4E
:10034000FFFFFFFFE78F0F0F0F0F1F1F1F1F3F3F05
:100350003F3E3E7E7C7C7F7FFFFFF0000000000080
:10036000001C1C0C04000000000000000000000045
:1003700000000000010103010040F07000000000D7
:10038000010707030301010000000E1E0E0E060008
:1003900000000000000000000000F8FFFFFFFF7FEA
:1003A0000F01000000000707068080C0002060E009
:1003B000C0C0C0C0C080808080000000000000017C
:1003C000070F3FFFFFFFFEFCF0C0800000000000B1
:1003D00000F0F0F0000000C0C0C0C0000000F0F06D
:1003E000F0000080C0E0E0301030E0E0C0800000AD
:1003F000F0F0F0F0F0707070700000F0F0F0F0F0DD
:10040000F0F0F0F0F0F00000F0F0F070707000002C
:10041000F0F0F0E0C0000000C0FEFFFFFFFF7378C7
:10042000787C3C3C3E3E1FDFFFFFFFFF00000000EA
:100430000103070F1F3F7FFFFFFFFFFFDF9F1E1E10
:100440001E1E1ECEEFEF0F3F3F3F3F3E3820000005
:10045000003FFFFFF0E0E0FFFFFFFFE0E0F0FFFF05
:100460003F0000FFFFFFFF060206FFFFFFFF000047
:10047000F7F7F7F7F7FFFFFFFF000000000000FFAE
:10048000FFFF000000000000FFFFFFF7F7F0000093
:10049000FFFFF0F0F13F06000101000000C070F026
:1004A000000000C0F0FCFFFFFFFF3F0F8080808056
:1004B00080808080808080808183878F9FBFFFFEC7
:1004C000FCF8F0E1C0808080808080808080808027
:1004D0008080808080808080E0E0F0D0808080809C
:1004E000808080808080808080808080808080800C
:1004F0008080808080808080C0E0F0F0F0F0B0806C
:1005000080808080808080808080808080808080EB
:1005100080808080808080808080808080808080DB
:10052000808C8F9F9FBFBFFFFFFEFEFE000000007C
:1005300000000000000000000000000000000000BB
:1005400000000000000000000000000000000000AB
:10055000000000000000000000000000000000009B
:10056000000000000000000000000000000000008B
:10057000000000000000000000000000000000007B
:10058000000000000000000000000000000000006B
:10059000000000000000000000000000000000005B
:1005A000000000000000000000000000000000004B
:1005B000000000000000000000000000000000003B
:1005C000000000000000000000000000000000002B
:1005D000000000000000000000000000000000001B
:1005E0008080C0C06020303090909090909090902B
:1005F00010103060C080800000000000000000008B
:1006000000000000000000000000000000000000EA
:1006100000000000000000000000000000000000DA
:1006200000000000000000000000000000000000CA
:1006300000000000000000000000000000000000BA
:1006400000000000000000000000000000000000AA
:10065000000000000000000000000000F01C064345
:10066000A15000F80C062311C9C8C8000000C8C971
:10067000C913260CF800030EF00000000000000073
:10068000000000000000000000000000000000006A
:10069000000000000000000000000000000000005A
:1006A000000000000000000000000000000000004A
:1006B000000000000000000000000000000000003A
:1006C000000000000000000000000000000000002A
:1006D000000000000000000000000000011FF08189
:1006E0000221F02366CC98F00101E1080CE0010141
:1006F000F198CC466330180C0700000000000000A1
:1007000000000000000000000000000000000000E9
:1007100000000000000000000000000000000000D9
:1007200000000000000000000000000000000000C9
:1007300000000000000000000000000000000000B9
:1007400000000000000000000000000000000000A9
:100750000000000000000000000000000000000198
:100760000301010000000007040407040407040457
:100770000700000000000000000000000000000072
:100780000000000000000000000000000000000069
:100790000000000000000000000000000000000059
:1007A0000000000000000000000000000000000049
:1007B0000000000000000000000000000000000039
:1007C00000000000FF010179490909FF0000FF0155
:1007D00001951111FF0000CF497901017949CF003E
:1007E00000FF0103E644E60301FF00000000FF01F3
:1007F00001C14941417F0000FF0101951111FF0036
:1008000000FF010179790101FF0000FF4141490921
:1008100009FF0000000000000000000000000000D0
:1008200000000000000000000000000000000000C8
:1008300000000000000000000000000000000000B8
:100840000000000003020202020202030000030291
:10085000020302020300000302020202020203007A
:10086000000302020300030202030000000003026F
:100870000203000000000000030202030202030062
:10088000000302020202020203000003020202024B
:100890000203000000000000000000000000000053
:1008A0000000000000000000000000000000000048
:1008B0000000000000000000000000000000000038
:1008C0000000000000000000000000000000000028
:1008D0000000000000000000000000000000000018
:1008E0000000000000000000000000000000000008
:1008F00000000000000000000000000000000000F8
:1009000000000000000000000000000000000000E7
:1009100000000000000000000000000000000000D7
:1009200000000000000000000000000000000000C7
:1009300000000000000000000000000000000000B7
:1009400000000000000000000000000000000000A7
:100950000000000000000000000000000000000097
:100960000000000000000000000000000000000087
:100970000000000000000000000000000000000077
:100980000000000000000000000000000000000067
:100990000000000000000000000000000000000057
:1009A0000000000000000000000000000000000047
:1009B0000000000000000000000000000000000037
:1009C0000000000000000000000000000000000027
:1009D0000000000000000000000000000000000017
:1009E0000000FC24241800F80404F800FC00F000C7
:1009F000FC00FC24242400FC2464A41800FC24240F
:100A00002400FC0404F8000000FC2424D8000C108E
:100A1000E0100C00009898000000000000000000AA
:100A200000000000000000000000000000000000C6
:100A3000000000000000000000000000000000FFB7
:100A4000FFFFFFFFFFFFFFFFFFFFFFFFFFFFFF00B5
:100A50000000000000000000000000000000000096
:100A60000000F1F030303030313130303031F0F1E1
:100A7000000001F1F131303130303031303131F1BD
:100A8000F1000101F1F0303030313131303030607F
:100A9000C180000000F1F13030F0F00000F0F030E3
:100AA00030F0F00000000000000000000000000036
:100AB000000000000000000000000000000000FF37
:100AC000FFFFFFFFFFFFFFFFFFFFFFFFFFFFFF0035
:100AD0000000000000000000000000000000000016
:100AE0000000FFFF0000CFCFCFCFCFCF0000FFFF30
:100AF000000000FFFF0000CF8F0F0F0F4FC0C0FF9F
:100B00007F000000FFFF0000FFFF0387FFFE0000E3
:100B1000FFFF000000FFFF0000FFFF8080FFFF00DD
:100B200000FFFF0000000000000000000000FFFFC9
:100B3000FFFFFFFFFFFFFFFFFFFFFFFFFFFFFEFCC9
:100B4000F9F3E7CF9F3F7F7F3F9FCFE7F3F9FCFEAD
:100B5000FFFFFFFFFFFFFFFFFFFFFFFFFFFFFFFFA5
:100B600000003F3F30303F3F00003F3F30303F3FCD
:100B70000000003F3F30303F3F03060C1830313F4C
:100B80003F0000003F3F30303333333333313018D0
:100B90000F07000000070F1C383031333331303875
:100BA0001C0F0700000000000000000000007F7F15
:100BB0007F7F7F7F7F7F7F7F7F7F7F7F7F7F3F9F65
:100BC000CFE7F3F9FCFEFFFFFEFCF9F3E7CF9F3F11
:100BD0007F7F7F7F7F7F7F7F7F7F7F7F7F7F7F7F25
:100BE0000000FEFE1E1E1E1E1E78E080000000009B
:100BF00000FEFE0606FEFE0000003EFEE686060E35
:100C00001E78E08000000080E0781E0606C6E6FE42
:100C10003E00000000000000000000000000000096
:100C200000000000000000000000000000000000C4
:100C3000000000000000000000000000000000FFB5
:100C4000FFFFFFFFFFFFFFFFFFFFFFFFFFFFFF00B3
:100C50000000000000000000000000000000000094
:100C60000000FFFF0000FEFEF8E081071E78E08034
:100C700080FFFF0000FFFF0000000000030F3FFCAB
:100C8000F0C001071E181E0701C0F0FC3F0F030053
:100C90000000000000000000000000000000000054
:100CA0000000000000000000000000000000000044
:100CB0000000000000000000000000000000007FB5
:100CC0007F7F7F7F7F7F7F7F7F7F7F7F7F7F7F00B3
:100CD0000000000000000000000000000000000014
:100CE0000000FFFF0000FFFF0101071E78E0810701
:100CF0001F7F7F0000FFFF00000000C0F07C1F0787
:100D00000180E0781E061E78E081071F7EF8E080F3
:100D100000000000000000000000000000000000D3
:100D200000000000000000000000000000000000C3
:100D300000000000000000000000000000000000B3
:100D400000000000000000000000000000000000A3
:100D50000000000000000000000000000000000093
:100D600000001F1F18181F1F000000000001071EB1
:100D70001C1C1C1C1C1F1F0000001F1F1D1C1C1CFA
:100D80001E0701000000000001071E1C1C1D1F1F84
:100D90001E00000000000000000000000000000035
:100DA00000000000000000000000000000000060E3
:100DB000E0A0200000000000F01050D0D05090F0D3
:100DC000800000000000000000001C000000000087
:100DD0000000000040424604000000F8F800000156
:100DE00000000000F8F80001F919181818180000A0
:100DF000F8F80101010000F8F800000000020D0001
:100E000000F838383060C0800000F819191818F858
:100E10000001F830181818F80000FB999898181875
:100E200000010100FCFC0000FCFD010000000006C8
:100E30000203000080E030000101FFFEFEFF01FF21
:100E4000FF03A9FDFEFEFEFC0CA4F8F8F8F0F0F09C
:100E5000E0E0E0C0C0D08C848000C00F1F1C181CD4
:100E60008E1C18181F0F00801F9191911090000088
:100E70001F1F18181800001F1F1818180000000066
:100E8000001F18080406030100001F101010101F97
:100E900000001F000000001F00001F1010101010A5
:100EA000000000001B1B00001B1B00800000000056
:100EB000C0000000010000000000FFFFFFFF00FF76
:100EC000FF00A5FFFFFFFFFF8094BF7F7F3F1F1F35
:100ED0000F0F0707030301010003000000000000DB
:100EE000030000E0F8F83A0B080F0707C4F5FD7C93
:100EF000181030212624404080800000070080C068
:100F000040404041474C48484040404040404040BD
:100F1000464C4040404040C0C34E4040404040C02E
:100F2000818306040400000183C2C0C000000000E9
:100F300001030000000000000000FFFFFFFF101F82
:100F40001F080E0707030301010000000030E8003E
:100F500000000000000000000000021C3000000043
:100F600000000003070F1C1C1C1C0E0F07070408C1
:100F700008081010102020C04040818183830304A2
:100F800004040C0C141424E404040404C4241C04F9
:100F9000000000C0701C0603C0F03C0C06060206F0
:100FA0000C18113163C6841873C3070E000000C00B
:100FB00070000000000000000000FFFFFFFF0000C5
:100FC000000000000030180C0000000000000000CD
:100FD0000000000000000000000000000000000011
:100FE000000000000000000080E020301010101011
:100FF000101010101C9691D070504846414141414C
:10100000424242424242434060D8C44360301010E2
:10101000101C171110101C1F1310109090D050307E
:10102000202020404040C386BCE1071C0000000097
:1010300000000000000000000000FFFFFFFF0000B4
:1010400000000000000000000000000000000000A0
:101050000000000000010604040000000000000081
:10106000000000207078FCF6F1F0F0F0F0F0F0F8FD
:10107000CC444243414140404040404040404040D9
:1010800040404040587C74F27371707070707070A2
:10109000707070F0301090DCEC3637353434343406
:1010A00034E4840808080888D1D1D3D280C0A0A035
:1010B000F0B89C8CECFCFCBC8C8CFFFFFFFF8884A0
:1010C0008EBEBEBE9E9C9C9CBCACACA4B4B4B4B65C
:1010D000F2E2E6E6EEFCFC8890B0A0E0C080808002
:1010E000808080869EB7E58484848484848484841C
:1010F000879CB0E0C08080808080808080808080FD
:101100008080808080809FB1D191919191919191C7
:10111000919DE38080809FFFF1C0808080808080EF
:1011200080F88F80F8FE838180808080000000003E
:1011300000000000000000000000000000000000AF
:10114000000000000000000000000000000000009F
:10115000000000000000000000000000000000008F
:10116000000000000000000000000000000000007F
:10117000000000000000000000000000000000006F
:10118000000000000000000000000000000000005F
:10119000000000000000000000000000000000004F
:1011A000000000000000000000000000000000003F
:1011B000003E5B4F5B3E3E6B4F6B3E1C3E7C3E1CDD
:1011C000183C7E3C181C577D571C1C5E7F5E1C0023
:1011D000183C1800FFE7C3E7FF0018241800FFE7DA
:1011E000DBE7FF30483A060E2629792926407F059D
:1011F0000507407F05253F5A3CE73C5A7F3E1C1CB3
:1012000008081C1C3E7F14227F22145F5F005F5F72
:1012100006097F017F006689956A6060606060945E
:10122000A2FFA29408047E040810207E2010080863
:101230002A1C08081C2A08081E101010100C1E0C6E
:101240001E0C30383E3830060E3E0E060000000000
:101250000000005F00000007000700147F147F14E7
:10126000242A7F2A1223130864623649562050002C
:1012700008070300001C2241000041221C002A1C18
:101280007F1C2A08083E0808008070300008080803
:101290000808000060600020100804023E51494523
:1012A0003E00427F400072494949462141494D3341
:1012B0001814127F1027454545393C4A49493141A8
:1012C000211109073649494936464949291E000076
:1012D00014000000403400000008142241141414CB
:1012E0001414004122140802015909063E415D59B7
:1012F0004E7C1211127C7F494949363E41414122C0
:101300007F4141413E7F494949417F090909013EE9
:10131000414151737F0808087F00417F4100204010
:10132000413F017F081422417F404040407F021C22
:10133000027F7F0408107F3E4141413E7F09090939
:10134000063E4151215E7F09192946264949493205
:1013500003017F01033F4040403F1F2040201F3FCB
:101360004038403F63140814630304780403615950
:10137000494D43007F414141020408102000414192
:10138000417F04020102044040404040000307083E
:101390000020545478407F2844443838444444283A
:1013A000384444287F385454541800087E090218E1
:1013B000A4A49C787F0804047800447D4000204069
:1013C000403D007F1028440000417F40007C0478AD
:1013D00004787C080404783844444438FC182424F5
:1013E0001818242418FC7C08040408485454542475
:1013F00004043F44243C4040207C1C2040201C3CF2
:101400004030403C44281028444C9090907C4464E8
:10141000544C44000836410000007700000041367B
:10142000080002010204023C2623263C1EA1A16101
:10143000123A4040207A3854545559215555794133
:101440002154547841215554784020545579400C0A
:101450001E527212395555555939545454593955EB
:101460005454580000457C410002457D420001452E
:101470007C40F0292429F0F0282528F07C5455459B
:10148000002054547C547C0A097F4932494949322E
:101490003248484832324A4848303A4141217A3A43
:1014A00042402078009DA0A07D39444444393D400D
:1014B00040403D3C24FF2424487E4943662B2FFCBA
:1014C0002F2BFF0929F620C0887E09032054547968
:1014D000410000447D413048484A32384040227A39
:1014E000007A0A0A727D0D19317D2629292F2826B6
:1014F0002929292630484D402038080808080808BE
:101500000808382F10C8ACBA2F102834FA00007B16
:10151000000008142A142222142A1408950022001C
:1015200095AA005500AAAA55AA55AA000000FF00D6
:10153000101010FF00141414FF001010FF00FF1013
:1015400010F010F0141414FC001414F700FF000045
:10155000FF00FF1414F404FC141417101F10101FC4
:10156000101F1414141F00101010F0000000001FB2
:10157000101010101F10101010F010000000FF10BD
:101580001010101010101010FF10000000FF1400B9
:1015900000FF00FF00001F10170000FC04F41414EB
:1015A0001710171414F404F40000FF00F7141414B7
:1015B00014141414F700F7141414171410101F1037
:1015C0001F141414F4141010F010F000001F101F5A
:1015D0000000001F14000000FC140000F010F010C8
:1015E00010FF10FF141414FF141010101F0000003F
:1015F00000F010FFFFFFFFFFF0F0F0F0F0FFFFFF43
:101600000000000000FFFF0F0F0F0F0F3844443899
:10161000447C2A2A3E147E02020606027E027E02D4
:1016200063554941633844443C04407E201E2006F3
:10163000027E020299A5E7A5991C2A492A1C4C7230
:1016400001724C304A4D4D303048784830BC625AB7
:10165000463D3E494949007E0101017E2A2A2A2A47
:101660002A44445F444440514A444040444A514023
:101670000000FF0103E080FF000008086B6B0836E4
:1016800012362436060F090F060000181800000055
:101690001010003040FF0101001F01011E00191D44
:1016A0001712003C3C3C3C0000000000F0F89C8E0F
:1016B0008783878E9CF8F00000FEFF03030303037B
:1016C000070EFCF80000FEFF0303030303070EFCF4
:1016D000F80000FFFF00000000000000FFFF000016
:1016E000FEFF8383838383C7EE7C380000F8FC0E03
:1016F00007030303070EFCF800003F7FE0C0808073
:10170000C0E07F3FFFFF01010101010101FFFF0078
:1017100000FFFF0C0C0C0C1C3E77E3C100007FFFA8
:10172000C0C0C0C0C0E0703F1F00001F3F70E0C0DD
:10173000C0C0E0703F1F00007FFFC1C1C1C1C1E355
:10174000773E1C00001F3F70E0C0C0C0E0703F1F2C
:10175000000000000001FFFF01000000D5F08D1423
:10176000A1C881CFD9F1AF2000080B00020202000E
:101770000009040000010202000005240010010518
:101780002401010104240206052406000107058145
:101790000310004009040100020A000000070502CE
:1017A0000240000007058302400000040309041200
:1017B000010002EF020140412337800001010203D2
:1017C0000141726475696E6F204C4C430041726434
:1017D00075696E6F204D6963726F00FFFEFC6020BB
:1017E000A1FFFFA12060FCFEFF3F1F0F06040507BD
:1017F000070504060F1F3F00000000000000FF2146
:1018000022141408000000183828744C66D69F96DD
:10181000CE544C782838180000FCFC8C8C8C8C8CB6
:101820008C8C8C8C0C0C0C8C8C8C8C8C8C8C8C8C78
:10183000FCFC0000000000000000000000000000B0
:101840000000000000000000000000000000000098
:1018500000000000000000000000F8F0E0C0800080
:101860000000000000000000000000000000000078
:1018700000000000000000000000000000000080E8
:10188000E0F0FCFE0000000000000000000000008E
:101890000000000000000000000101010101010141
:1018A0000101FFFF000000FFFF01018181818181B3
:1018B00001018080BEA2222626E6060EFEFE3E3EE6
:1018C0003E3E3E000000000000000000000000005E
:1018D00000000000000000000000017F7F7F7FFF0C
:1018E000FE7C7870604080800000000000000000F6
:1018F00000000000000000000080C0E0F8FC3F1F76
:10190000FFFFFFFFF80000000000000000000000E3
:1019100000000000000000000000000000000000C7
:101920000000FFFF000000FFFF0000FFFF0101F3C8
:1019300026CC0F0101FF000000FF0000FFFF0000A8
:1019400000C0380701FDC3C3FFFCE0000000FF0139
:1019500001FFFEF8FFFFFFFFFF00FF0101FFF8FDA1
:10196000FE3F1F1F0F007FFFFFFEFCF8F0E0C0806E
:1019700000000080C0E0F0FC7E1F0F0301000000AB
:1019800000FFFFFFFFE0000000000000000080807B
:1019900080C0E0E0F0F878000000000000000000E7
:1019A00000000F0F0C0C0C0F0F00000F0F08080F9A
:1019B000000F0808080F0000000F08080F0F0000B4
:1019C0000E09080C06010000031F5FDFD8001F107E
:1019D000109FC043070F1F9FDFC05F10101F434FB2
:1019E0005F9F9C181000000001018387878F9FBFB5
:1019F000BF9E9F8F87838180808080808080808051
:101A0000808FBFBFBFBFBEBCBEBEBE1E1F1F0F0F9D
:101A10000703030181F0FC0000000000000000004B
:101A200000000000000000000000000000000000B6
:101A300000000000000000000000000000000000A6
:101A40000000000000000000000000010F3060CF27
:101A50009F99B8B818180E0F0B08101010202020EE
:101A600040408081810202060607090808181828EC
:101A70002848C8080808088848380800000080E09E
:101A8000380C0781E078180C0C040D19312262C65D
:101A90008C0830E7870F1D000000000000000000E8
:101AA0000000000000000000000000000000000036
:101AB00010103030307070F0F8F8F8F8F8F8F8F8E6
:101AC000F8F8F878787838383C3C3C3C3C3C1E1EB2
:101AD0001F1F1F0FCF4660202020202020202038ED
:101AE0002C22A1E0A0918D838382828484848484CB
:101AF000848681C0B08886C160202020382E2320B3
:101B000020383E2721202020A0A060404040808037
:101B100081870C78C30E3800000000000000000030
:101B200000000000000000000000000000008080B5
:101B30008080808080C0C0C0C0C0C1C1E1E3E3E359
:101B4000E7E7EFFFFF7E7E7E7C3C3C38380040E0DC
:101B5000F0F8ECE3E1E0E0E0E0E0F09888848682F1
:101B6000838181808080808080808080808080B040
:101B7000F8E8E4E6E3E1E0E0E0E0E0E0E0E0E060B7
:101B80002020B8D86C6E6B6969686868C808101046
:101B9000101111A3A3A6A400000000000000000083
:101BA0000000000000000000000001010303030723
:101BB00007070F0F0F1F1F3F3F3B7B7373F1E1E1DF
:101BC000C1C08080000000000000000000000C3C4C
:101BD0006ECB0909090909090909090F3860C08094
:101BE00000000000000000000000000000000000F5
:101BF000003E63A222222222222222223AC6010091
:101C0000003FFFE38000000000000000F11F00F033
:101C1000FC06030101010100511D11241FBECFEF7D
:101C2000DAE0DEBFCDBF11E0A0E0B1E0EAEBFDE419
:101C300002C005900D92A03BB107D9F726E0A0EBBA
:101C4000B1E001C01D92A035B207E1F71EE0CDE082
:101C5000DEE004C02197FE010E94D122CC30D107E2
:101C6000C9F70E94051F0C94DB260C94000080919C
:101C7000BC010895E6EEF1E0A0E0B8E000800EBC03
:101C80008111012C1197A0FDFDCF0192B9F70DB480
:101C90000895FC018091E501882311F13FB7F89484
:101CA00082E08093E9002091F200822F90E01816E4
:101CB000190614F481E090E0882339F0289A44E66C
:101CC0004093E4014091F1004083222339F02091B8
:101CD000F200211103C02BE62093E8003FBF0895D6
:101CE0008FEF9FEF08952FB7F89483E08093E9007A
:101CF0009091E800892F807295FF04C09091F200C6
:101D000080E4891B2FBF08958091DC0181110DC0F3
:101D100082E08093D80184E08093D9011092DB01A6
:101D20001092DA0181E08093DC0188ED91E0089562
:101D3000CF93DF931F92CDB7DEB76983DC01ED91BE
:101D4000FC910280F381E02D41E050E0BE016F5F25
:101D50007F4F09950F90DF91CF91089583E0809395
:101D6000E9008091F200882319F08AE38093E8006B
:101D700008950E94730E90E00895CF93DF931F9211
:101D8000CDB7DEB7FC018485958597FD08C02FEFA0
:101D90003FEF358724870F90DF91CF910895CE01D3
:101DA00001960E94490E019719F4898190E0F3CFC2
:101DB0008FEF9FEFF0CF0F931F93CF93DF931F927F
:101DC000CDB7DEB78C01FC018485958597FF0BC0EC
:101DD000CE0101960E94490E019771F4898190E02D
:101DE000F80195878487F801848595850F90DF91A8
:101DF000CF911F910F9108958FEF9FEFF1CFFC01CD
:101E00008485958597FD0BC09FB7F89482E08093F9
:101E1000E9008091F2009FBF90E0019608959FB77E
:101E2000F89482E08093E9008091F2009FBF90E0F7
:101E300008954091D2015091D3012091D001309169
:101E4000D10142175307B4F49091E8009570E1F383
:101E50009091E80092FD19C08093F1008091D20129
:101E60009091D30101968F739927892B19F48EEFE6
:101E70008093E8008091D2019091D30101969093D4
:101E8000D3018093D20181E0089580E00895DF922C
:101E9000EF92FF920F931F93CF93DF93D82E8A0177
:101EA000EB017B01E40EF51ECE15DF0559F0D7FEE0
:101EB00012C0FE0184910E94190F21968111F4CF66
:101EC0000FEF1FEFC801DF91CF911F910F91FF908E
:101ED000EF90DF9008958881EECF0F931F93CF93FB
:101EE000DF931F92CDB7DEB782E0898342E450E0F2
:101EF00069E677E180E80E94470F0E94840EDC01CA
:101F000012960D911C910115110589F0D801ED91E2
:101F1000FC910280F381E02DBE016F5F7F4FC8010D
:101F2000099597FD04C0F80100851185ECCF8981E2
:101F30000F90DF91CF911F910F910895615030F074
:101F40002091F100FC0120830196F8CF289A84E6C5
:101F50008093E40108953FB7F8948091CC0190916B
:101F6000CD01A091CE01B091CF0126B5A89B05C0AF
:101F70002F3F19F00196A11DB11D3FBFBA2FA92F08
:101F8000982F8827BC01CD01620F711D811D911D05
:101F900042E0660F771F881F991F4A95D1F7089571
:101FA0008F929F92AF92BF92CF92DF92EF92FF9269
:101FB0006B017C010E94AB0F4B015C01C114D10489
:101FC000E104F104B9F00E94AB0F681979098A099C
:101FD0009B09683E73408105910580F321E0C21A98
:101FE000D108E108F10888EE880E83E0981EA11C54
:101FF000B11CE4CFFF90EF90DF90CF90BF90AF90F7
:102000009F908F9008958F929F92AF92BF92CF92A0
:10201000DF92EF92FF920F931F93CF93DF936C01A8
:102020007B018A0180910D01882309F45CC08091B5
:10203000E501882309F457C08091D70180FF05C0CE
:102040008091E00082608093E000E801B12C8AEF8B
:10205000A82E93E0892E2AE3922E209711F4BB201C
:10206000D9F10E94730E81110AC0AA94AA20D9F155
:1020700061E070E080E090E00E94D00FEECF8C171E
:102080001D0611F00CF08C2F9FB7F8948092E90098
:102090002091E80025FD02C09FBFDFCF282F30E050
:1020A000C21BD30BF701815020F041914093F10006
:1020B000FACFE20EF31EBB2021F09092E800B12C83
:1020C000EBCF8091E80085FDE7CF9092E800BB243C
:1020D000B394209709F3F3CF5D9A84E68093D601F9
:1020E000101611063CF081E090E0F60193838283A4
:1020F00010E000E0C801DF91CF911F910F91FF9098
:10210000EF90DF90CF90BF90AF909F908F90089509
:10211000AF92BF92CF92DF92EF92FF920F931F93F5
:10212000CF93DF936C017B018B01040F151FEB0133
:102130005E01AE18BF08C017D10759F06991D601EA
:10214000ED91FC910190F081E02DC6010995892B5C
:1021500079F7C501DF91CF911F910F91FF90EF901B
:10216000DF90CF90BF90AF9008952091B001E091A3
:10217000B301F091B401CF0102969093B401809322
:10218000B301222319F08591949108958081918162
:1021900008952D9A0895BC0190E080E00C94D00F32
:1021A0008FB18095807F669B88601C9B84600895BA
:1021B00020E191E061FD94E060FD990F62FD929550
:1021C000687F269FD0011124A80FAA51BE4F8C9181
:1021D00040FF03C0892B8C93089590958923FBCFF2
:1021E0002F923F924F925F926F927F928F929F9227
:1021F000AF92BF92CF92DF92EF92FF920F931F9315
:10220000CF93DF9300D000D01F92CDB7DEB76D30F3
:10221000C9F0409000016090C3017090C401042D8A
:1022200010E06A3049F51092C2011092C10183E0BA
:10223000000F111F8A95E1F7600E711E7092C401A4
:102240006092C30181E090E00F900F900F900F908B
:102250000F90DF91CF911F910F91FF90EF90DF9042
:10226000CF90BF90AF909F908F907F906F905F9036
:102270004F903F902F9008952090C1013090C2015F
:10228000E5E06E9FC001112484559E4E9D838C8392
:102290006101512CF5E05F1651F18C819D81019611
:1022A000EC81FD81F491F9839D838C83430128E0C7
:1022B0002A83898181708B8376018E2D8C198415F8
:1022C000E0F4B12CA12CA414A0F490E8E916F104D8
:1022D00050F4B4016A0D7B1D6034710520F44B810C
:1022E000C7010E94D810EFEFAE1ABE0AECCF1982D8
:1022F000DDCFFFEFEF1AFF0AE0CF29812695298372
:102300008A8181508A83800E911E8111D2CF53948D
:10231000C00ED11E96E05912BDCFC101459C800D63
:10232000911D11249093C2018093C1018BCF909194
:10233000C501982329F49091C601982381E009F4FE
:1023400080E0089580E00C943A0E5F926F927F9245
:102350008F929F92AF92BF92CF92DF92EF92FF92B5
:102360000F931F93CF93DF9330E0F901E80FF91F2C
:102370001E161F060CF0D7C0803891050CF0D3C094
:10238000FB01E00FF11D1E161F060CF0CCC06034DF
:1023900071050CF0C8C0DB0177FF04C0AA27BB277A
:1023A000A61BB70BA770BB27FB0177FD3796C3E0D1
:1023B000F595E795CA95E1F777FF07C0319768E093
:1023C00070E0EB01CA1BDB0BDE01602E66946694A5
:1023D0006694712C077019F0DFEF6D1A7D0ABF014A
:1023E000EF01D695DC2FCC27D795C795C80FD91FFD
:1023F000CA51DE4F8A01660E771E48E050E06A013E
:10240000CA1ADB0A6615770509F48DC068307105B4
:1024100009F489C06F3FEFEF7E070CF479C050E0FC
:1024200040E04E01F0E88F0E911C421753070CF06C
:102430006FC0FA01E80FF91FE038F1050CF068C031
:10244000F7FD35C06F3F760709F469C05E01A40E41
:10245000B51EF501F080FA01E00FF11F55245394E9
:10246000E51028C0E4910A2E01C0EE0F0A94EAF7A5
:10247000FE2AF501F0821097D1F067307105B9F0AE
:102480005401A40EB51EF501F080FA01E00FF11F12
:1024900055245394E51024C0E491F0E00C2C02C0C4
:1024A000F595E7950A94E2F7FE2AF501F0824F5F71
:1024B0005F4FBBCFE1100CC0E491F0E00A2E02C0E8
:1024C000EE0FFF1F0A94E2F7E095F095FE22D1CFC0
:1024D000E4910A2E01C0EE0F0A94EAF7FE26C9CF56
:1024E000E1100CC0E491F0E00C2C02C0F595E795EA
:1024F0000A94E2F7E095F095FE22D7CFE491F0E060
:102500000C2C02C0F595E7950A94E2F7FE26CDCF94
:102510006F5F7F4FC058DF4F020F131F73CF1097AD
:1025200009F0AECFC4CFDF91CF911F910F91FF90F3
:10253000EF90DF90CF90BF90AF909F908F907F9063
:102540006F905F9008958F929F92AF92BF92CF92BB
:10255000DF92EF92FF920F93CF93DF934B01EC0149
:102560005C01A40EB11C7B01E20EF11CCA15DB0557
:10257000CCF46401C70121E4E216F10414F080E414
:1025800090E0C816D90664F4C038D1052CF4402F69
:10259000B601CE010E94D8108FEFC81AD80AEACF30
:1025A0002196E4CFDF91CF910F91FF90EF90DF90D4
:1025B000CF90BF90AF909F908F9008950895FC01A9
:1025C000148213820895DC011396ED91FC9112821E
:1025D0000895FC01A381B48181E012968C9398E266
:1025E000958386830895FC01A381B4811D961C9276
:1025F0001D971B960D90BC91A02D12961C92A58143
:10260000B68112961C9205A4F6A5E02D12820895BB
:10261000FC018585882391F1838194812781308510
:10262000821793071CF4019694838383838194819A
:10263000281739071CF40197948383838581968139
:1026400021853285821793071CF401969683858332
:1026500085819681281739071CF401979683858315
:10266000A385B4858381948114969C938E9313974C
:102670008581968116969C938E93159708951F9346
:10268000CF93DF93EC01162F8A859B85009741F04D
:10269000DC01ED91FC910480F581E02DBE010995EE
:1026A0004B8190E080E0841780F49C01220F331F5F
:1026B000EE81FF81E20FF31F0190F081E02D019682
:1026C00022812113F0CFFB87EA878A859B850097BB
:1026D00059F0DC01ED91FC910190F081E02DBE01FB
:1026E000DF91CF911F910994DF91CF911F910895B0
:1026F000CF92DF92EF920F93CF93DF93EC016B01B8
:10270000EE24E39400E420E84CEA5DE070E060E051
:1027100090E080E00E94A5114B815C814F5F5F4F8C
:102720005C834B8301E028E068E370E090E080E0A8
:102730000E94A3128B819C818038910551F460E046
:10274000C601DF91CF910F91EF90DF90CF900C9465
:102750003F13DF91CF910F91EF90DF90CF900895CD
:10276000EF920F93FC01CB01238134812F5F3F4F08
:10277000348323832E37310578F4EE24E39400E488
:1027800020E84CEA59E070E060E090E080E00E94D0
:10279000A5110F91EF90089527393105D0F32D320F
:1027A000314038F4EE24E39400E420E84CEA55E0AC
:1027B000EACF62E00F91EF900C943F13CF92DF923B
:1027C000EF920F93CF93DF93EC016B01EE24E39430
:1027D00000E420E84CEA51E070E060E090E080E046
:1027E0000E94A5114B815C814F5F5F4F5C834B83DF
:1027F00001E028E068E370E090E080E00E94A3122E
:102800008B819C818038910551F462E0C601DF9193
:10281000CF910F91EF90DF90CF900C943F13DF9109
:10282000CF910F91EF90DF90CF900895EF920F939B
:10283000FC012281222359F04585568565817681E8
:10284000E38401852781838194810E94A5110F91E2
:10285000EF900895089590E080E008956115710566
:1028600079F0FB0101900020E9F73197AF01461B99
:10287000570BDC01ED91FC910280F381E02D09946E
:1028800090E080E00895EF92FF920F93CF93DF9353
:10289000EC017B0188E00E949711882321F060E021
:1028A000C7010E943F1301E02CE04EE266E270E0B7
:1028B00082E190E00E94A31200E02AE04CE267E28D
:1028C00070E083E190E00E94A3128E818823B1F032
:1028D00084E190E09093C2018093C10188E290E08E
:1028E0009093C4018093C30181E08093000165EA65
:1028F00071E0F701808191810E942E148D818150B9
:102900008D83811106C08E8191E089278E8388E2B4
:102910008D83DF91CF910F91FF90EF900895FC018F
:10292000DB0182818823C9F08581968123813481EE
:102930003093C2012093C1019093C4018093C301DD
:102940008781811101C081E080930001BF01685F30
:102950007F4F8D919C910C942E1408950C943022ED
:102960002F923F924F925F926F927F928F929F929F
:10297000AF92BF92CF92DF92EF92FF920F931F938D
:10298000CF93DF9300D000D01F92CDB7DEB7643075
:1029900008F092C0483008F08FC0242E6D838C015F
:1029A00078E06702F0011124E80FF91FE40FF11D30
:1029B00047FDFA9517828091180190911901A09115
:1029C0001A01B0911B0189839A83AB83BC8324E0F5
:1029D000322E34E0832E912CA12CB12C0E94D821D0
:1029E0006B017C010E94D8212B013C01C701B6017B
:1029F000A50194010E944622EE24E394F12CEC0EF2
:102A0000FD1EE60EF71ED701DC90C301B201A50141
:102A100094010E944622E1E0F0E0EC0FFD1FE60F7A
:102A2000F71F8081D7018C93D0823A943110D6CF92
:102A3000FE0131967F016E01F5E0CF0ED11C84E2DC
:102A4000A82E81E0B82ED7018D917D01880F990BBA
:102A5000FC01EC5DFE4F4081420D845E9E4FFC0107
:102A60006081FD816F0FACE1B1E084E291E050E064
:102A70002C911296260F243098F4FC013081E32F1C
:102A8000E40FE83068F4F8E02F9F90011124200F44
:102A9000311FE20FF32FF11D2781211101C05F5F6C
:102AA0000296AA16BB0621F7513019F4C8010E94FC
:102AB000B014CE14DF0439F60F900F900F900F90E2
:102AC0000F90DF91CF911F910F91FF90EF90DF90CA
:102AD000CF90BF90AF909F908F907F906F905F90BE
:102AE0004F903F902F900895CF92DF92EF92FF92F8
:102AF0000F931F93CF93DF93EC01EDA5FEA51282F8
:102B00001FA618AA1BAA8C019C01205E3F4FFC0146
:102B10008FEF8783808781878287838784878587F4
:102B200086873896E217F307A1F740E060E0CE0110
:102B30000E94B014AE0194E080E030E020E061E05B
:102B4000FA01E20FF31F7781711160E0860F2F5FAA
:102B50003F4F2830310599F79150485F5F4F9111F1
:102B6000ECCF90E001966C01092E000CEE08FF08F6
:102B7000019709F4BCC00E94D821A70196012150F9
:102B80003109410951090E9446226F5F7F4F8F4FE3
:102B90009F4FAE0190E080E070E0B82F30E020E081
:102BA000F22EA1E0FA01E20FF31FE781E111A0E0AC
:102BB0007A0F6713A1C0BFA3F8A6FC01A3E0EE0F34
:102BC000FF1FAA95E1F7EC0FFD1FE20FF31F81E055
:102BD0008783EB81FC818FA120E18202C001112457
:102BE000019628A540E12402900111242F5F3F4F58
:102BF00034832383968385833087278392878187D5
:102C00000384F485E02D3483238396838583AE018A
:102C100094E080E030E020E061E0FA01E20FF31F91
:102C20007781711160E0860F2F5F3F4F28303105AB
:102C300099F79150485F5F4F9111ECCF90E001966A
:102C40006C01092E000CEE08FF08019709F462C020
:102C50000E94D821A701960121503109410951094B
:102C60000E9446226F5F7F4F8F4F9F4F90E080E022
:102C700040E0782F30E020E0A22F51E0F801E20F91
:102C8000F31FE781E11150E0450F641348C079A7B5
:102C9000AAA7ED81FE81A90164E0440F551F6A9542
:102CA000E1F754834383ED81FE8149A560E146024B
:102CB000A001112456834583FC0173E0EE0FFF1F32
:102CC0007A95E1F7EC0FFD1FE20FF31F82E0878397
:102CD00087E791E09CA78BA78CE38CABDF91CF912A
:102CE0001F910F91FF90EF90DF90CF90089561E0DA
:102CF00070E080E090E04DCF2F5F3F4F28303105EE
:102D000009F04ECF0196485F5F4F8430910509F07E
:102D100044CF5FCF61E070E080E090E0A7CF2F5F0D
:102D20003F4F2830310509F0A7CF0196085F1F4FAC
:102D30008430910509F09DCFCBCF4F925F926F9277
:102D40007F928F929F92AF92BF92CF92DF92EF923B
:102D5000FF920F931F93CF93DF93EC016B01AA2493
:102D6000AA94BA2CEE24E39400E422E04CE251E071
:102D700070E060E0C5010E94A51120E1A20EB11C27
:102D80004FE8A416B10471F7AA24AA94BA2CEE2431
:102D9000E39402E020E84CEA50E0B50190E080E0E6
:102DA0000E94A51180E1A80EB11CEFE4AE16B1049B
:102DB00071F78BA59CA5181619060CF073C04E016F
:102DC000F7E08F0E911CCC24C394D12C3401AA249B
:102DD000A394B12CF30181913F018F3F51F4EE2474
:102DE000E3940EE02EE040E951E0B601C5010E94F7
:102DF000A511F0E1AF0EB11C21E8A216B10451F704
:102E000048E0840E911C80E1C80ED11CE1E4CE168E
:102E1000D104E1F68BA59CA501979CA78BA7EDA5F6
:102E2000FEA581E08283EDA5FEA58FA120E18202AF
:102E3000C0011124019628A540E12402900111242B
:102E40002D5F3F4F34832383968385838BA59CA579
:102E50006BE470E00E94A9226F5F7F4F7F936F93B6
:102E60008DEA91E09F938F938DA59EA508969F93E1
:102E70008F930E9403240F900F900F900F900F904C
:102E80000F90DF91CF911F910F91FF90EF90DF9006
:102E9000CF90BF90AF909F908F907F906F905F90FA
:102EA0004F900895892B91F4EB81FC8181E0858717
:102EB0000384F485E02D8283EDA5FEA51282ED81C9
:102EC000FE8182838FEF9FEF9CA78BA729A580E1CE
:102ED0002802900111242F5F3F4FEB81FC818185F7
:102EE000928528173907D9F48AA540E18402C001E8
:102EF00011240196478150858417950781F441E09C
:102F00004FA7458156812417350749F42381348121
:102F10008217930721F464E0C6010E943F138BA936
:102F200081114EC0AB81BC8119968D919C911A97ED
:102F30009C012150310937FF02C0215F3F4FE4E07F
:102F400035952795EA95E1F717964D915C9118977D
:102F5000CA01019797FD0F9664E0959587956A954C
:102F6000E1F7F90173E0EE0FFF1F7A95E1F7EC0F3F
:102F7000FD1FE80FF91F47814F3F09F065C041E091
:102F800048AB29AB8AAB54E0220F331F5A95E1F7C7
:102F90002F5F3F4F15966D917C9116972617370737
:102FA00009F052C024E0880F991F2A95E1F7019695
:102FB00013962D913C918217930709F045C04BABB6
:102FC000FAA859A88CA981508CAB811104C061E08A
:102FD000C6010E943F134E0187E0880E911CAA246F
:102FE000A394B12C10E03401CC24C394D12C482CF0
:102FF0004094F30181913F018F3FB1F451129DC084
:10300000842D8E0FF81299C001E02EE04EE0B5013C
:10301000C6010E94A312E12C0EE02EE040E951E02F
:10302000B501C6010E94A511F0E1CF0ED11C21E827
:10303000C216D104F1F648E0840E911C80E1A80E7E
:10304000B11C1F5F143079F68FA581111ACF88A9A2
:10305000811117CF80E80E9497118823B9F0EB8186
:10306000FC81818592858130910581F027813085B1
:103070003483238396838583409792878187038453
:10308000F485E02D8BED97E19687858780E40E949B
:1030900097118823B9F0EB81FC8187819085813776
:1030A000910581F02185328594838383368325833E
:1030B0004096908787830384F485E02D8CE391E02C
:1030C0009687858780E10E9497118823B9F0EB816C
:1030D000FC81818592858133910581F0278130853E
:1030E00034832383968385834096928781870384E4
:1030F000F485E02D88E591E09687858780E20E943F
:103100009711882309F4BDCEEB81FC8187819085DE
:103110008130910509F4B5CE21853285948383836E
:10312000368325834097908787830384F485E02D39
:1031300084E791E096878587A4CEEE24E3946CCF54
:103140001F920F920FB60F9211248F939F9380912D
:10315000E1009091E100937F9093E10083FF0FC025
:103160001092E90091E09093EB001092EC0092E352
:103170009093ED001092E50198E09093F00082FFAB
:1031800022C093E09093E9009091F200992319F006
:103190009AE39093E8009091D601992341F09091A1
:1031A000D60191509093D601911101C05D989091F4
:1031B000E401992341F09091E40191509093E4014E
:1031C000911101C0289884FF18C08091E2008E7E82
:1031D00081608093E2008091E1008F7E8093E10026
:1031E0008091D7018E7E80618093D7019F918F91CE
:1031F0000F900FBE0F901F90189580FFF7CF809112
:10320000E2008E7E80618093E2008091E1008E7EFC
:103210008093E1008091D7018E7E8160E5CF1F927F
:103220000F920FB60F921124CF92DF92EF92FF927E
:103230000F931F932F933F934F935F936F937F93BE
:103240008F939F93AF93BF93EF93FF93CF93DF93AE
:10325000CDB7DEB76C97DEBFCDBF1092E90080918D
:10326000E80083FF25C068E0CE0145960E949E0FCE
:1032700082EF8093E8008D8987FF39C09091E80044
:1032800090FFFCCF982F907609F034C19E894F892A
:10329000588D2F89F88C911131C0803861F580915B
:1032A000D5018093F1001092F1008EEF8093E80039
:1032B0006C960FB6F894DEBF0FBECDBFDF91CF91F5
:1032C000FF91EF91BF91AF919F918F917F916F91FE
:1032D0005F914F913F912F911F910F91FF90EF9030
:1032E000DF90CF900F900FBE0F901F9018959EEF1C
:1032F0009093E800C7CF1092F100D5CF913059F4E8
:103300008111D3CF4130510581F68091D5018D7F58
:103310008093D501CACF933049F48111C6CF413093
:10332000510519F68091D5018260F2CF953041F4B4
:103330008091E80080FFFCCF20682093E300B5CFA8
:10334000963009F0A9C00B8D1C8D22E01092E90087
:103350001092D3011092D201F2122EC01092D1011C
:103360001092D0010E946D0F1F8299E09983FA821A
:1033700091E09E8390EA98879AEF99872091D201F5
:103380003091D301275F3F4F3C832B838D83109275
:10339000E9001092D3011092D2011093D101009351
:1033A000D00149E050E0BE016F5F7F4F80E00E9496
:1033B000470F0E946D0F79CF1093D1010093D00178
:1033C0000E94840EDC0112960D911C9101151105CD
:1033D00009F451C1D801ED91FC910480F581E02DF3
:1033E000BE016B5E7F4FC8010995009709F03EC191
:1033F000F80100851185EACFF3E0FF120EC08F8936
:10340000882309F440C0823061F440E86DE08DEC1F
:1034100097E10E948D1C811148CF81E28093EB00DF
:1034200047CF813029F440E86BE081EC97E1F1CFA0
:10343000833099F70E94840EDC011296ED90FC9087
:103440008E010F5F1F4F6801E114F10479F0D7017D
:10345000ED91FC910680F781E02DB801C701099537
:10346000080F111DF701E084F184EECFD8011C9202
:10347000F60101900020E9F73197BF016C197D0931
:1034800040E0C601C6CF6BEA77E1FB01449150E012
:1034900080E80E94470F09CF973009F4BECF9830DB
:1034A00021F481E08093F10000CF993009F0FDCE46
:1034B000837009F0B2CFEDE2F1E081E031E096E314
:1034C0002191222371F08093E9003093EB00DF011A
:1034D00011972C912093EC009093ED008F5F873033
:1034E00079F78EE78093EA001092EA008F89809343
:1034F000E501DBCE8B8D9C8D1092E9001092D301FB
:103500001092D2019093D1018093D001898D8111C5
:1035100092C08E899D89913A49F4813209F07DCF1C
:1035200047E050E066E071E080E0B3CF913209F00F
:1035300074CF833269F48F89988DB0E0A0E08093D6
:10354000020190930301A0930401B0930501ADCE55
:10355000803269F48091E80082FFFCCF67E086E06A
:1035600091E00E949E0F8BEF8093E8009ECE823206
:1035700009F09BCE8F8980930D01EEEFFFE78591D7
:1035800094918B3F9C4D51F1E0E0F8E08091060171
:1035900090910701A0910801B0910901803B9440EE
:1035A000A105B105F1F480910D0180FD1AC0EE3F37
:1035B0008AE0F80789F587E797E791838083809110
:1035C00060008093D40188E19BE00FB6F894A89541
:1035D000809360000FBE9093600067CEEEEFFAE03C
:1035E000D5CF808191818737974709F05ECEA89526
:1035F000809160008861809360008091D401809305
:103600006000EE3F2AE0F20789F08091FE0A909177
:10361000FF0A9183808349CE808191818737980703
:1036200051F29093FF0A8093FE0AC5CF1092FF0AD1
:103630001092FE0A3ACE0E94840EDC0112960D9181
:103640001C910115110509F4E8CED801ED91FC910A
:103650000190F081E02DBE016B5E7F4FC80109959E
:10366000811123CEF80100851185EBCF18161906BC
:103670000CF41BCED2CEF1E0FF12BECE6FEA77E1A2
:1036800004CF1F920F920FB60F9211242F933F93E6
:103690008F939F93AF93BF938091C8019091C9017D
:1036A000A091CA01B091CB013091C70123E0230F53
:1036B0002D3758F50196A11DB11D2093C7018093A8
:1036C000C8019093C901A093CA01B093CB01809126
:1036D000CC019091CD01A091CE01B091CF01019686
:1036E000A11DB11D8093CC019093CD01A093CE017B
:1036F000B093CF01BF91AF919F918F913F912F9147
:103700000F900FBE0F901F90189526E8230F02967A
:10371000A11DB11DD2CF1F920F920FB60F9211248F
:10372000CF92DF92EF92FF922F933F934F935F934D
:103730006F937F938F939F93AF93BF93CF93DF93B9
:10374000EF93FF938091B8019091B901A091BA01D4
:10375000B091BB01892B8A2B8B2B09F446C0809139
:10376000B70181110BC088B190E4892788B9809195
:10377000B601882319F088B1805888B98091B801C2
:103780009091B901A091BA01B091BB011816190628
:103790001A061B069CF48091B8019091B901A09182
:1037A000BA01B091BB010197A109B1098093B80199
:1037B0009093B901A093BA01B093BB01FF91EF912F
:1037C000DF91CF91BF91AF919F918F917F916F9139
:1037D0005F914F913F912F91FF90EF90DF90CF90AD
:1037E0000F900FBE0F901F9018950E94B510811575
:1037F00020E8920761F4809171008D7F80937100C1
:1038000010929100469847981092B501D7CF21E0C9
:103810002093B501813020E8920731F41092B40171
:103820001092B3010E94B51097FD05C02091B2011E
:10383000222309F454C02091B101211150C021E08C
:103840002093B601EC01DF77209709F04BC081E0AF
:103850008093B70146983FE9C32E3FE0D32EE12C79
:10386000F12CCAEFD0E0E0914406F09145060995AD
:10387000811103C081E08093B7018091B601882354
:1038800029F08091B701882309F43FC047980E942E
:10389000B5100097F1F19C01DE010E949A22DC0133
:1038A000CB0129E0B595A795979587952A95D1F7EE
:1038B000109290002AE020939100D0929900C0923B
:1038C00098008093B8019093B901A093BA01B09386
:1038D000BB01809171008260809371006FCF109264
:1038E000B601B0CF9E0150E040E060E472E48FE0AA
:1038F00090E00E94462269017A0181E0C81AD1084D
:10390000E108F1081092B701AECF4699BFCF479AB0
:10391000BECF8FEF9FEFDC01CBCFEF92FF920F93E3
:103920001F93CF93DF93F82E192FE62E042F81E0FB
:10393000860F880F0E94190F83E00E94190FCF2D68
:10394000D12FEC0EFD2EF11CCE15DF05B9F007FFCF
:1039500013C0FE0184910E94190F182F80E00E946D
:10396000190F812321968111EFCFDF91CF911F9104
:103970000F91FF90EF9008958881EDCF81E0F5CF12
:10398000DF92EF92FF920F931F93CF93DF93EC019F
:103990008B01DB808985D81226C08D2D90E005969D
:1039A000880F991F009711F481E090E00E94D722C0
:1039B0007C018E819F81F70120E0D21659F0DF0152
:1039C000AE19BF09A80FB91F4D915C914193519356
:1039D0002F5FF3CF009711F00E947323FF82EE82D6
:1039E00089858B5F89878B8190E0880F991F2E8155
:1039F0003F81820F931FFC01118300838B818F5FB6
:103A00008B83DF91CF911F910F91FF90EF90DF900B
:103A10000895DF92EF92FF920F931F93CF93DF935E
:103A2000EC018B01DA808885D81226C08D2D90E0BC
:103A30000596880F991F009711F481E090E00E948D
:103A4000D7227C018C819D81F70120E0D21659F0AC
:103A5000DF01AE19BF09A80FB91F4D915C914193C9
:103A600051932F5FF3CF009711F00E947323FD82D3
:103A7000EC8288858B5F88878A81282F30E0220F2F
:103A8000331FEC81FD81E20FF31F118300838F5FF1
:103A90008A83DF91CF911F910F91FF90EF90DF907C
:103AA00008952F923F925F926F927F928F929F9292
:103AB000AF92BF92CF92DF92EF92FF920F931F933C
:103AC000CF93DF93E6EEF5E01382128288EE93E067
:103AD000A0E0B0E084839583A683B78387E391E079
:103AE000918380838FEF9FEF9587848708E416E0AA
:103AF000F801138212828DE991E09183808387E33C
:103B00009EE0909345068093440680E090E8909371
:103B100043068093420646983E9A47983F9A8EE025
:103B200090E00E94D722EC011A821B828AE090E08A
:103B30000E94D7227C018AE090E00E94D722FD8279
:103B4000EC829F838E8385E0888789871983088329
:103B50001B861A8684E090E00E94D722FC01118225
:103B60001082138212829D878C87D0934706C09360
:103B7000460685E390E00E94D7227C0183E9682E07
:103B800081E0782EF701718260821282B701CE0146
:103B90000E94C01C85E591E0F701918380838EE04F
:103BA00090E00E94D7226C0199E6A92E91E0B92EEF
:103BB000F601B182A082552453945282B601CE01FF
:103BC0000E94091D8FE491E0F601918380838FE0CC
:103BD00090E00E94D7228C01FC01B182A082528227
:103BE000BC01CE010E94091D88248394912CF80108
:103BF00094828382968285828EE090E0908787838C
:103C000092878187538614863FE6232E31E0332E38
:103C1000318220828BED97E196878587F6011487A4
:103C20000387948283829682858290868782928699
:103C30008186F701D482C382F6011586F8011282CB
:103C40008FE090E00E94D7228C01FC01B182A0821B
:103C50005282BC01CE010E94091D80E590E0F8016E
:103C60009483838380E390E09683858380E190E072
:103C7000908787839287818753861486318220823A
:103C800087EF97E196878587F70116830583F8010B
:103C9000128288E490E00E94D7228C01FC01B1825C
:103CA000A0825282BC01CE010E94091D89E491E0EC
:103CB000F8019183808383E090E0948383839682EC
:103CC00085826CEA71E0C80108960E94FC23F70126
:103CD00016A705A742E0D42EF801D78287E791E026
:103CE000F70194A783A717A610AA13AA8CE384ABA5
:103CF00085E090E00E94D7228C01FC0171826082F5
:103D00005282BC01CE010E94C01C8FE591E0F801F7
:103D1000918380831482138287E090E00E94D722EF
:103D20007C01FC0171826082D282BC01CE010E94C2
:103D3000C01C85E791E0F701918380838FE090E0DC
:103D40000E94D7228C01FC01B182A0825282BC0168
:103D5000CE010E94091DF801148213821682158279
:103D600080E890E09087878380E490E09287818765
:103D7000538614863182208287E198E19687858771
:103D8000F70114830383F801128288E2F701858327
:103D9000568285E090E00E94D7228C01FC0171825E
:103DA000608283E08283B801CE010E94C01C8FE74D
:103DB00091E0F801918380831482138285E090E082
:103DC0000E94D7228C01FC017182608284E0828390
:103DD000B801CE010E94C01C89E891E0F8019183EE
:103DE000808314821382DF91CF911F910F91FF90F6
:103DF000EF90DF90CF90BF90AF909F908F907F908B
:103E00006F905F903F902F900895789484B5826072
:103E100084BD84B5816084BD85B5826085BD85B56E
:103E2000816085BD80916E00816080936E001092EC
:103E30008100809181008260809381008091810067
:103E400081608093810080918000816080938000F8
:103E500080919100826080939100809191008160B7
:103E60008093910080919000816080939000809178
:103E7000C10084608093C1008091C1008260809302
:103E8000C1008091C10081608093C1008091C30016
:103E900081608093C3008091C00082608093C000E5
:103EA0008091C20081608093C20080917A0084601A
:103EB00080937A0080917A00826080937A0080916A
:103EC0007A00816080937A0080917A008068809384
:103ED0007A001092E5011092D5011092D7018091DD
:103EE000D70081608093D70080EA8093D80089B59D
:103EF000806189BD89B5826089BD09B400FEFDCFAE
:103F000061E070E080E090E00E94D00F8091D800E6
:103F10008F7C80618093D8008091E000807F8093C7
:103F2000E0008091E1008E7E8093E1008DE080933F
:103F3000E200559A209A5D98289881EC80937C0045
:103F400085B1806F85B984B1877E84B984B1876E6D
:103F500084B95E9A5F988AB1806D8AB9769A6E98B4
:103F600081B3806F81BB899880B38D7080BB80E501
:103F70008CBD81E08DBD85E090E00E94CB105F9A02
:103F800085E090E00E94CB105E985C98ECE5F7E14C
:103F900084918EBD00000DB407FEFDCF319607E180
:103FA000E936F007A9F75C9A81E880936400809174
:103FB00065008160809365000E94A2110E94D0106C
:103FC00087FF15C05C9885EA8EBD00000DB407FE22
:103FD000FDCF5C9A2E982F982D9880916400806276
:103FE0008093640081E083BF889513BEFCCF0E945C
:103FF000D01082FF48C02D980E94D0108478843859
:10400000E1F40E94C91088EC90E00E94CB102F9838
:1040100082E090E00E9430228F3F29F06FEF82E033
:1040200090E00E94382284EF91E00E94CB102F9AFA
:104030000E94D01084788438D9F30E94D010847103
:104040008431E1F40E94C91088EC90E00E94CB100A
:104050002E9882E090E00E943022882329F060E0D0
:1040600082E090E00E94382284EF91E00E94CB1021
:104070002E9A0E94D01084718431D9F388EC90E09C
:104080000E94CB10B4CF0E94C91082E090E00E9441
:10409000AE14882309F47EC03E9A3F9A81E0809353
:1040A000BC0181E090E00E94AE14182F147081FFD3
:1040B0000CC011112E98C1EFDFEF0E94D01086FFC7
:1040C0006EC02E9A2F9A0E94C91082E390E00E943F
:1040D000CB100E94D0108111F8CF80E180930101B4
:1040E000809164008E7F8093640080917A00806468
:1040F00080937A0080917A0086FDFCCFC091780091
:10410000D09179000E94AB0FAB01BC01CE01B0E0B1
:10411000A0E0DC01992788278C019D01040F151F61
:10412000261F371FC901B801209164002160209328
:104130006400611571058105910511F00E94272227
:1041400063E080914606909147060E943F1301E08C
:1041500036EEC32E31E0D32E40E0E42E40E0F42EC4
:10416000BB24B3948FB7F8944091C8015091C90112
:104170006091CA017091CB018FBFC091BF01CC2368
:1041800009F467C01092BF01E114F10459F30E94D1
:104190000000E8CF1092BC013E983F9882CF1123D7
:1041A00029F0C430D10511F42E9A2F9881E00E9495
:1041B0003A0EEE24E39400E128E54CEA56E1BE0114
:1041C00084E190E00E94A5110E94A2118FE090E08E
:1041D0000E94CB102196C931D10509F06ECF112371
:1041E00011F02F9A2D9880E991E00E94CB100E9447
:1041F000C91081E090E00E94AE1480FF66CF8AE093
:1042000090E00E94AE149FEF980F9E3F08F05DCFA4
:1042100022E330E03093C2012093C10128E330E073
:104220003093C4012093C301CBE0D0E0682F88E431
:1042300096E00E94F010CE010E94AE142196C1318A
:10424000D105A1F70E94A21188EE93E00E94CB1045
:104250003CCF8091C001142F181B812F9091010138
:10426000191740F48F5F891708F08ECF03BF889528
:1042700013BE8ACFB092BF014093C0018091BD01AF
:104280009091BE0101969093BE018093BD018091F3
:10429000C6018093C5010E94D0108093C601F6012B
:1042A000C111CFEF0024C193C193C193C193039473
:1042B000D1F71092C4011092C3011092C201109262
:1042C000C101C0914606D091470610E08A811817B7
:1042D000A0F4812F90E0880F991FEC81FD81E80FF9
:1042E000F91F80819181DC01ED91FC910190F081B9
:1042F000E02DBE0109951F5FE9CF8A859B85009758
:1043000041F0DC01ED91FC910280F381E02DBE01D2
:1043100009950E94A21138CF8F929F92AF92BF92BF
:10432000CF92DF92EF92FF92CF93DF93EC016881FF
:1043300079818A819B81611571058105910521F43F
:1043400064E279ED8BE597E02DE133EF41E050E059
:104350000E94462249015A019B01AC01A7EAB1E43F
:104360000E9465226B017C01ACEEB4EFA5019401C3
:104370000E947322C60ED71EE81EF91EF7FE06C065
:1043800081E0C81AD108E10880E8F80AC882D98219
:10439000EA82FB82C701B6019F77DF91CF91FF9040
:1043A000EF90DF90CF90BF90AF909F908F90089547
:1043B0008F929F92AF92BF92CF92DF92EF92FF9235
:1043C00060910E0170910F01809110019091110187
:1043D000611571058105910521F464E279ED8BE5A4
:1043E00097E02DE133EF41E050E00E944622490181
:1043F0005A019B01AC01A7EAB1E40E9465226B015E
:104400007C01ACEEB4EFA50194010E947322C60EAC
:10441000D71EE81EF91EF7FE06C081E0C81AD108B3
:10442000E10880E8F80AC0920E01D0920F01E092F4
:104430001001F0921101C701B6019F77FF90EF9034
:10444000DF90CF90BF90AF909F908F900895609332
:104450000E0170930F018093100190931101089544
:10446000F999FECF92BD81BDF89A992780B508953C
:10447000262FF999FECF1FBA92BD81BD20BD0FB680
:10448000F894FA9AF99A0FBE01960895052E97FBB3
:104490001EF400940E945D2257FD07D00E947822EE
:1044A00007FC03D04EF40C945D2250954095309556
:1044B00021953F4F4F4F5F4F089590958095709590
:1044C00061957F4F8F4F9F4F08950E949A22A59F1D
:1044D000900DB49F900DA49F800D911D11240895FF
:1044E000B7FF0C9465220E946522821B930B0895EE
:1044F000A1E21A2EAA1BBB1BFD010DC0AA1FBB1FE8
:10450000EE1FFF1FA217B307E407F50720F0A21B59
:10451000B30BE40BF50B661F771F881F991F1A94C6
:1045200069F760957095809590959B01AC01BD01F0
:10453000CF010895A29FB001B39FC001A39F700D4A
:10454000811D1124911DB29F700D811D1124911D9B
:10455000089597FB072E16F4009407D077FD09D035
:104560000E94BD2207FC05D03EF4909581959F4F97
:104570000895709561957F4F0895AA1BBB1B51E16B
:1045800007C0AA1FBB1FA617B70710F0A61BB70BC3
:10459000881F991F5A95A9F780959095BC01CD0168
:1045A0000895EE0FFF1F0590F491E02D09940F93ED
:1045B0001F93CF93DF938230910510F482E090E057
:1045C000E0914E06F0914F0630E020E0B0E0A0E030
:1045D000309799F42115310509F44AC0281B390B8D
:1045E00024303105D8F58A819B816115710589F1E7
:1045F000FB0193838283FE0111C0408151810281BE
:10460000138148175907E0F04817590799F4109794
:1046100061F012960C93129713961C933296CF0169
:10462000DF91CF911F910F91089500934E06109343
:104630004F06F4CF2115310551F04217530738F0DA
:10464000A901DB019A01BD01DF01F801C1CFEF0132
:10465000F9CF90934F0680934E06CDCFFE01E20F27
:10466000F31F819391932250310939832883D7CF47
:1046700020914C0630914D06232B41F420911401DA
:104680003091150130934D0620934C062091120174
:10469000309113012115310541F42DB73EB74091FA
:1046A000160150911701241B350BE0914C06F09137
:1046B0004D06E217F307A0F42E1B3F0B281739070E
:1046C00078F0AC014E5F5F4F2417350748F04E0F6E
:1046D0005F1F50934D0640934C06819391939FCF5B
:1046E000F0E0E0E09CCFCF93DF930097E9F0FC018E
:1046F000329713821282A0914E06B0914F06ED01BF
:1047000030E020E01097A1F420813181820F931FC7
:1047100020914C0630914D062817390709F061C0E9
:10472000F0934D06E0934C06DF91CF910895EA0196
:10473000CE17DF07E8F54A815B819E0141155105DF
:10474000B1F7E901FB83EA8349915991C40FD51F61
:10475000EC17FD0761F4808191810296840F951F0B
:10476000E90199838883828193819B838A83F0E026
:10477000E0E012968D919C9113970097B9F52D91D9
:104780003C911197CD010296820F931F20914C0608
:1047900030914D062817390739F6309751F51092A8
:1047A0004F0610924E06B0934D06A0934C06BCCF18
:1047B000D383C28340815181840F951FC817D907C5
:1047C00061F44E5F5F4F88819981480F591F518373
:1047D00040838A819B81938382832115310509F06F
:1047E000B0CFF0934F06E0934E069ECFFD01DC0163
:1047F000C0CF13821282D7CFFB01DC0101900D9252
:104800000020E1F70895AEE0B0E0E9E0F4E20C94B6
:10481000B2260D891E8986E08C831A8309838FEF67
:104820009FE79E838D83AE01475E5F4F6F89788DD2
:10483000CE0101960E9426242F813885020F131F76
:10484000F80110822E96E4E00C94CE26ABE0B0E0A6
:10485000ECE2F4E20C94A4267C013B018A01FC0109
:1048600017821682838181FFC8C1CE0101965C0147
:10487000F7019381F30193FD859193FF81913F01AE
:10488000882309F453C1853239F493FD859193FF50
:1048900081913F01853229F4B70190E00E941626EC
:1048A000E7CF912C212C312CFFE1F31538F08B321E
:1048B00011F190F4803209F1833229F137FC3CC0C8
:1048C00020ED280F2A3050F536FE20C08AE0989E51
:1048D000200D1124922E06C08D3291F0803371F795
:1048E000689430F8F30193FD859193FF81913F0126
:1048F0008111DACF21C0689431F8689432F8F2CF90
:10490000689433F8EFCF689434F8ECCFEAE02E9E49
:10491000200D1124222E689435F8E4CF8E3229F42C
:1049200036FC04C1689436F8DDCF8C3619F46894EF
:1049300037F8D8CF8836B1F2982F9F7D95549330B1
:10494000E0F08336A1F18337C1F1833509F063C00C
:104950002801F2E04F0E511CF801C080D180692D72
:1049600070E036FC02C06FEF7FEFC6010E940026A8
:104970004C01689437F882010AC00C5F1F4FFFE3B7
:10498000F98388248394912C6501E89437F833FEE9
:104990002DC0522C8114910471F5552009F468CF73
:1049A000B70180E290E00E9416265A94F6CFF801F3
:1049B000808189830E5F1F4FE4CF2801F2E04F0E04
:1049C000511CF801C080D180692D70E036FC02C016
:1049D0006FEF7FEFC6010E940B264C018201D5CFFD
:1049E000B70180E290E00E9416262A942814190448
:1049F00009F0B0F7CECFF60137FC859137FE8191F3
:104A00006F01B70190E00E94162651105A94F1E010
:104A10008F1A9108BFCF843619F0893609F077C014
:104A2000F80137FE6BC060817181828193810C5FD8
:104A30001F4FF32DFF763F2E97FF09C0909580956D
:104A4000709561957F4F8F4F9F4F689437F82AE09C
:104A500030E0A5010E944626C82ECA188C2C432C93
:104A600036FE0CC0E89440F8C91440F434FE05C08A
:104A700032FC03C0F32DFE7E4F2E892C44FE95C0E0
:104A8000FE01EC0DF11D8081803309F087C0242DDB
:104A9000297E422E842D8870582E43FC95C040FEFE
:104AA0008FC09C2C821418F42C0C922C981844FE65
:104AB00091C0B70180E390E00E94162642FE09C033
:104AC00088E790E041FE02C088E590E0B7010E94CF
:104AD0001626C91408F48AC0CA94D12C9FEFC91AAB
:104AE000D90ACA0CDB1CF60182916F01B70190E074
:104AF0000E941626AC14BD04B1F74FCF60817181BE
:104B0000072E000C880B990B0E5F1F4F92CFD32CF2
:104B1000E894D4F82AE030E0853739F1232D297F55
:104B2000D22E8F3601F148F48835A9F0F70186813D
:104B300097812B96E2E10C94C026803749F08837A4
:104B4000A9F7D4FE02C06894D2F820E130E00DC08D
:104B50006894D4F8F6CF34FE03C0822F8660D82E36
:104B600020E132E002C028E030E0F801D7FE0FC0BB
:104B700060817181828193810C5F1F4FA5010E942A
:104B80004626C82ECA183D2CE89437F867CF6081B6
:104B9000718190E080E00E5F1F4FF0CF42FC02C0B9
:104BA000839478CF8394839475CF842D867809F489
:104BB00071CFF6CFB70180E290E00E941626839471
:104BC0008214C0F3512C73CF522C5818821408F45D
:104BD0006ECFF8CF842D867809F47BCF8BE241FE2F
:104BE00080E247FC8DE2B70190E071CFB70180E32E
:104BF00090E00E9416269A946CCF8FEF9FEF99CF8A
:104C0000FC010590615070400110D8F78095909597
:104C10008E0F9F1F0895FC0161507040019001109C
:104C2000D8F7809590958E0F9F1F08950F931F932F
:104C3000CF93DF93182F092FEB018B8181FD09C0E2
:104C40001FEF0FEF812F902FDF91CF911F910F91C9
:104C5000089582FF14C02E813F818C819D81281789
:104C600039073CF4E881F981CF0101969983888363
:104C700010838E819F8101969F838E83E3CFE88589
:104C8000F985812F0995892BA1F3DACFFA01AA279B
:104C9000283051F1203181F1E8946F936E7F6E5F7F
:104CA0007F4F8F4F9F4FAF4FB1E03ED0B4E03CD02D
:104CB000670F781F891F9A1FA11D680F791F8A1F10
:104CC000911DA11D6A0F711D811D911DA11D20D077
:104CD00009F468943F912AE0269F11243019305D31
:104CE0003193DEF6CF010895462F4770405D419322
:104CF000B3E00FD0C9F7F6CF462F4F70405D4A336F
:104D000018F0495D31FD4052419302D0A9F7EACF36
:104D1000B4E0A6959795879577956795BA95C9F765
:104D200000976105710508959B01AC010A2E069458
:104D30005795479537952795BA95C9F7620F731F11
:104D4000841F951FA01D08952F923F924F925F924E
:104D50006F927F928F929F92AF92BF92CF92DF928B
:104D6000EF92FF920F931F93CF93DF93CDB7DEB7F0
:104D7000CA1BDB0B0FB6F894DEBF0FBECDBF099484
:104D80002A88398848885F846E847D848C849B84DB
:104D9000AA84B984C884DF80EE80FD800C811B81E9
:104DA000AA81B981CE0FD11D0FB6F894DEBF0FBE18
:0A4DB000CDBFED010895F894FFCF88
:104DBA000110FFFFFFFF00E10000000000000100FA
:104DCA0000000000500680000001020300000100FC
:104DDA000000FFFF01000000FFFF000000C180810A
:104DEA0000000000000000980E0310B90EAE0EFF7E
:104DFA000EBD0EDB0E000000008F1400000000083C
:104E0A00130000000074159D16F31200000000DF65
:104E1A0012DE13DE1200000000DE1200000000168F
:104E2A001400000000E9124314E31200000000DF3E
:104E3A0012B013DE1200000000DF127813DE120037
:104E4A00000000DE12DE12DE1200000000F0108800
:104E5A00102B142A145072657373204100256400C4
:00000001FF
