:100000000C943A0B0C94620B0C94620B0C94620BE4
:100010000C94620B0C94620B0C94620B0C94620BAC
:100020000C94620B0C94620B0C94E51B0C94541C06
:100030000C94620B0C94620B0C94620B0C94620B8C
:100040000C94620B0C94620B0C94620B0C94620B7C
:100050000C94620B0C94620B0C94620B0C949B1B23
:100060000C94620B0C94620B0C94620B0C94620B5C
:100070000C94620B0C94620B0C94620B0C94620B4C
:100080000C94861E0C94620B0C94620B0C94620B05
:100090000C94620B0C94620B0C94620B0C94620B2C
:1000A0000C94620B0C94620B0C94620B3E437575BE
:1000B000433E7C7E13137E7C7F7F49497F363E7FA3
:1000C000414163227F7F41417F3E7F7F49494941D2
:1000D0007F7F090909013E7F41415B3A7F7F080824
:1000E0007F7F00417F7F4100307040407F3F7F7FB6
:1000F000081C77637F7F404040407F7E0C0C7E7FF2
:100100007F7F0C187F7F3E7F41417F3E7F7F1111B3
:100110001F0E3E7F41513F6E7F7F11117F6E266F14
:1001200049497B3201017F7F01013F7F40407F3F92
:100130001F3F60603F1F7F3F18183F7F63771C1C85
:100140007763070F78780F076171594D47430C1E8D
:100150003F0C0C0C08183F3F18080C0C0C3F1E0CF1
:1001600004063F3F06043E415555633E0000000033
:10017000000000006F6F0000030300000303123F44
:1001800012123F122E2A7F7F2A3A333B1C0E37333E
:10019000367F497F3650000003030000003E7F4158
:1001A00041000041417F3E0022361C1C36220808D7
:1001B0003E08080000007030000008080808080029
:1001C0000000606000006030180C06033E7F414173
:1001D0007F3E00427F7F4000717949494F46414947
:1001E00049497F360F0F08087F7F4F4F49497931C2
:1001F0003E7F494979300171790D0703367F4949BE
:100200007F36064F49497F3E0000666600000000C9
:1002100076360000081C36634100121212121200DA
:100220004163361C080002016D6D07063000300086
:1002300000000000003E5B4F5B3E3E6B4F6B3E1C80
:100240003E7C3E1C183C7E3C181C577D571C1C5E97
:100250007F5E1C00183C1800FFE7C3E7FF0018246E
:100260001800FFE7DBE7FF30483A060E2629792918
:1002700026407F050507407F05253F5A3CE73C5A4D
:100280007F3E1C1C08081C1C3E7F14227F22145F2A
:100290005F005F5F06097F017F006689956A606085
:1002A00060606094A2FFA29408047E040810207E7F
:1002B000201008082A1C08081C2A08081E10101004
:1002C000100C1E0C1E0C30383E3830060E3E0E064A
:1002D000000000000000005F00000007000700149D
:1002E0007F147F14242A7F2A12231308646236495C
:1002F0005620500008070300001C22410000412244
:100300001C002A1C7F1C2A08083E08080080703048
:1003100000080808080800006060002010080402B7
:100320003E5149453E00427F4000724949494621BD
:1003300041494D331814127F1027454545393C4A31
:100340004949314121110907364949493646494948
:10035000291E000014000000403400000008142290
:1003600041141414141400412214080201590906FE
:100370003E415D594E7C1211127C7F494949363EFF
:10038000414141227F4141413E7F494949417F09E5
:100390000909013E414151737F0808087F00417FF0
:1003A00041002040413F017F081422417F404040EE
:1003B000407F021C027F7F0408107F3E4141413E86
:1003C0007F090909063E4151215E7F091929462608
:1003D0004949493203017F01033F4040403F1F200C
:1003E00040201F3F4038403F6314081463030478E3
:1003F00004036159494D43007F4141410204081003
:1004000020004141417F040201020440404040403D
:10041000000307080020545478407F2844443838AB
:1004200044444428384444287F385454541800081D
:100430007E090218A4A49C787F0804047800447DF7
:1004400040002040403D007F1028440000417F4094
:10045000007C047804787C080404783844444438E8
:10046000FC1824241818242418FC7C0804040848C8
:100470005454542404043F44243C4040207C1C2019
:1004800040201C3C4030403C44281028444C909074
:10049000907C4464544C44000836410000007700CE
:1004A00000004136080002010204023C2623263CDB
:1004B0001EA1A161123A4040207A38545455592166
:1004C0005555794121545478412155547840205450
:1004D0005579400C1E52721239555555593954549C
:1004E000545939555454580000457C410002457D0B
:1004F000420001457C40F0292429F0F0282528F00D
:100500007C545545002054547C547C0A097F493260
:10051000494949323248484832324A4848303A41DB
:1005200041217A3A42402078009DA0A07D39444480
:1005300044393D4040403D3C24FF2424487E49430B
:10054000662B2FFC2F2BFF0929F620C0887E09037C
:1005500020545479410000447D413048484A3238A3
:100560004040227A007A0A0A727D0D19317D2629CF
:10057000292F28262929292630484D4020380808C7
:10058000080808080808382F10C8ACBA2F102834FB
:10059000FA00007B000008142A142222142A1408EE
:1005A0009500220095AA005500AAAA55AA55AA00AE
:1005B0000000FF00101010FF00141414FF001010B2
:1005C000FF00FF1010F010F0141414FC001414F7C6
:1005D00000FF0000FF00FF1414F404FC14141710B3
:1005E0001F10101F101F1414141F00101010F00003
:1005F0000000001F101010101F10101010F010003D
:100600000000FF101010101010101010FF1000004C
:1006100000FF140000FF00FF00001F10170000FC87
:1006200004F414141710171414F404F40000FF0059
:10063000F714141414141414F700F71414141714E2
:1006400010101F101F141414F4141010F010F000E8
:10065000001F101F0000001F14000000FC14000009
:10066000F010F01010FF10FF141414FF14101010ED
:100670001F00000000F010FFFFFFFFFFF0F0F0F0A0
:10068000F0FFFFFF0000000000FFFF0F0F0F0F0F34
:1006900038444438447C2A2A3E147E02020606026C
:1006A0007E027E0263554941633844443C04407EE7
:1006B000201E2006027E020299A5E7A5991C2A4960
:1006C0002A1C4C7201724C304A4D4D3030487848EB
:1006D00030BC625A463D3E494949007E0101017ED7
:1006E0002A2A2A2A2A44445F444440514A4440402A
:1006F000444A51400000FF0103E080FF0000080869
:100700006B6B083612362436060F090F06000018E8
:10071000180000001010003040FF0101001F01010F
:100720001E00191D1712003C3C3C3C00000000005C
:10073000080B00020202000009040000010202008E
:10074000000524001001052401010104240206050E
:10075000240600010705810310004009040100027E
:100760000A0000000705020240000007058302405E
:1007700000000403090412010002EF0201404123BA
:10078000378000010102030141726475696E6F20B8
:100790004C4C430041726475696E6F204D69637201
:1007A0006F00F0F89C8E8783878E9CF8F00000FE27
:1007B000FF0303030303070EFCF80000FEFF03031F
:1007C000030303070EFCF80000FFFF000000000019
:1007D0000000FFFF0000FEFF8383838383C7EE7C5E
:1007E000380000F8FC0E07030303070EFCF80000B6
:1007F0003F7FE0C08080C0E07F3FFFFF010101013B
:10080000010101FFFF0000FFFF0C0C0C0C1C3E77E8
:10081000E3C100007FFFC0C0C0C0C0E0703F1F0048
:10082000001F3F70E0C0C0C0E0703F1F00007FFFAE
:10083000C1C1C1C1C1E3773E1C00001F3F70E0C0D1
:10084000C0C0E0703F1F000000000001FFFF01007A
:100850000000D5F08D14A1C881CFD9F1AF20008060
:100860004000E0F8FC3C1E06060202060E1E7EFE5C
:10087000FEFEFEFEFEFE3E0E0602061EFEFEFEFE14
:10088000FEFE0E020000020E7EFE060202020202C0
:10089000FE020202020206060E1E7EFEFEFEFEFEA4
:1008A0007E1E0E0606020206060E1E7EFEFEFEFEE0
:1008B000FE7E1E0E06060202060E1E3E7E0202028C
:1008C0000202FE0602020202020202020202020604
:1008D0000602020202FEFEFE060202000000F00016
:1008E0000000FFFF0100000000C0C0000000000188
:1008F000FFFFFFFF1F01000000000000037FFFFF5C
:10090000FFFF0000000000000007000000000000E2
:10091000FF0000000000C000000000011FFF3F01B9
:1009200000000000C0E0E0C000000000010FFF1F59
:100930000100000080C0E0C08080C0F0FC0000002A
:100940000000FFE0E0E0C00000000000E0E0E0E0C8
:1009500000000000001F3F3F000000000000FF00FB
:100960000000FFFF0000000000070000000000C0C2
:10097000FFFFFF07000000000000000000000FFF65
:10098000FFFF000000000000000000000000000069
:10099000FF0000000000FFFE0000000000FF00005C
:1009A000000000FFFFFFFFFFFE0000000000FF004F
:1009B00000000000FFFFFFFFFFFFFFFFFF00000040
:1009C0000000FFFFFFFFFF0000000000FFFFFFFF30
:1009D000FEE0800000000000000000000000FF00BA
:1009E0000000FFFF000000000000000000000E0FEC
:1009F000FFFF0700000000E00F0F000000000001F3
:100A00007FFF0000000000F08000000000000000F8
:100A1000FF0000000080C3E0F0783898580F0C0CFD
:100A20000C0C0C0D1F1F3F7FF0F0E0C0C0F0FFF07A
:100A30000000000001070F070303071F3F0000002D
:100A40000000FFFFFFFFFF0000000000FFFFFFFFAF
:100A50000F0F0F0F0E0E0E060000000000C0FF006B
:100A600000007FFF8080808080FEF0E0C08080807A
:100A70009F8180808080F8FF80808080808080805F
:100A8000809F80808080C0FFFFF8C0808080C0F0A1
:100A9000FFC0E0FC3F0F03E1000002000040400007
:100AA000000040400000000000E1030F3FFFFFFF97
:100AB000FFFCF0E0C0808080C0E0F0F8FC80808027
:100AC0008080FFFFFFFFFFC080808080FFFFFFFF6F
:100AD000C08080808080808080C0C0F0FCFFFF00EC
:100AE00000000001030307070707070707070707B9
:100AF0000707070707070707070707070707070786
:100B00000707070707070707070707070707070775
:100B100007FFFF01000000FECFF3FFFEFEFEFEFE1A
:100B2000FEFEFEFEFEFEFFF3CFFE00000001FFFF13
:100B30000707070707070707070707070707070745
:100B40000707070707070707070707070707070735
:100B5000070707070707070707070707030300003B
:100B60000000000000000000000000000000000085
:100B70000000000000000000000000000000000075
:100B80000000000000000000000000000000000065
:100B900000031FFCE00000030F1F3F3F3F3F3F3FAC
:100BA0003F3F3F3F3F3F3F1F0F030000E0FC1F035D
:100BB0000000000000000000000000000000000035
:100BC0000000000000000000000000000000000025
:100BD0000000000000000000000000000000000015
:100BE0000000000000000000000000000000000005
:100BF00000000000000000000000000000000000F5
:100C000000000000000000000000000000000000E4
:100C10000000000003071C386142C08080000A2ADF
:100C20002A2A0A008080C24160381C0703000000A5
:100C300000000000000000000000000000000000B4
:100C400000000000000000000000000000000000A4
:100C50000000000000000000000000000000000094
:100C60000080180F0F0F0F0F0F0F0F0F0F0F0F0F29
:100C70000F0F0F0F0F0F0F0F0F0F0F0F0F0F0F0F84
:100C80000F0F0F0F0F0F0F0F0F0F0F0F0F0F0F0F74
:100C90000F0FFFFFFFFFFFFFFFFFFFFFFFFFFFFF44
:100CA000FFFFFFFFFFFFFFFFFFFFFFFFFFFFFFFF54
:100CB000FFFFFF0F0F0F0F0F0F0F0F0F0F0F0F0F74
:100CC0000F0F0F0F0F0F0F0F0F0F0F0F0F0F0F0F34
:100CD0000F0F0F0F0F0F0F0F0F0F0F0F0F0F0F0F24
:100CE0000F0F0F00000000000000000000000000D7
:100CF00000000000000000000000000000000000F4
:100D000000000000000000000000000000000000E3
:100D10000000031FFFFFFFFFFFFFFFFFFFFFFFFFBD
:100D2000FFFFFFFFFFFFFFFFFFFFFFFFFFFFFFFFD3
:100D3000FF1F030000000000000000000000000092
:100D400000000000000000000000000000000000A3
:100D50000000000000000000000000000000000093
:100D60000000000000000000000000000000000083
:100D70000000000000000000000000000000000073
:100D80000000000000000000000000000000000063
:100D9000000000000003071F3F7FFFFFFFFFFFFF72
:100DA000FFFFFFFFFFFFFFFFFFFFFF7F3F1F070367
:100DB0000000000000000000000000000000000033
:100DC0000000000000000000000000000000000023
:100DD0000000000000000000000000000000000013
:100DE000000000402045584954004E4557205245C8
:100DF000434F52442100290A002028004352415AFF
:100E00005920434F55524945523A0A202000290A99
:100E10000020280030003A00300052414345205461
:100E20004F2054484520454447453A0A2020004772
:100E3000414D45204F564552005E5C20504147458C
:100E40002C20402045584954004352415A592043D0
:100E50004F55524945523A0A5049434B205550206C
:100E60005041434B414745530A4641535420464F56
:100E70005220504F494E54530A414E44204D4F5238
:100E8000452054494D4521005241434520544F20AF
:100E900054484520454447453A0A54525920544F36
:100EA00020474554204F5554204F460A544845206A
:100EB0004349545920415320464153540A41532039
:100EC000504F535349424C4521004652454520500E
:100ED0004C41593A0A4558504C4F524520544845C8
:100EE00020434954590A415420594F5552204F57D5
:100EF0004E20504143452E0054484520534545441B
:100F00002053455453205448450A4D4150205553D1
:100F100045442E20454143480A53454544204D4110
:100F20004B455320410A444946464552454E5420BC
:100F30004D41502E00494620594F5520474F204FD4
:100F400046460A524F41442C205052455353205F8D
:100F50000A52455045415445444C5920544F20476E
:100F600045540A4241434B204F4E2E004D4F5645AB
:100F70004D454E543A0A205B205D205455524E0A8E
:100F80002020205F20414343454C45524154450AAF
:100F900020402020204252414B450A205C2B5F20FC
:100FA0004D454E55002F0048454C50205041474577
:100FB00020005E005D005D000A0A0A402052455490
:100FC00055524E2C205F2053454C454354000A2077
:100FD00020454E5445523A2020000A202043432009
:100FE0005245434F52443A20000A20204552205295
:100FF00045434F52443A20000A202052414E444F6C
:101000004D3A2000534545443A0040204D454E5549
:101010002C205F204E45572053454544002C00208E
:1010200000534545443A00402045584954002900A2
:101030002028004352415A5920434F5552494552A6
:101040003A0A202000290A0020280030003A003007
:10105000005241434520544F2054484520454447C1
:10106000453A0A2020005245434F524453005D0048
:1010700050415553453A0A202052455455524E206E
:10108000544F2047414D450A20204558495420548B
:101090004F204D454E550A0A0A0A0A5052455353ED
:1010A000205F20544F2053454C454354000A0A50BA
:1010B00052455353205F20544F2053454C454354D1
:1010C000004E45572047414D453A0A2020524143A2
:1010D0004520544F2054484520454447450A202088
:1010E0004352415A5920434F55524945520A2020F4
:1010F0004348414E474520534545440A202020207F
:1011000053454544203D20004D454E553A0A202088
:101110004652454520504C41590A20204E45572003
:1011200047414D450A20205245434F5244530A201F
:101130002056494557204D41500A202048454C50E3
:101140000A0A5052455353205F20544F2053454CB8
:1011500045435400600E4A2AC00D4585900B1A8AFB
:1011600030071525F00F50A04080102000080855CA
:10117000AA55AA55AA55AA000000000000000001C7
:101180000101010101010100000000000000FF80D9
:1011900080808080808080FF0000000000000000D0
:1011A000060E1C38706000006070381C0E060001CE
:1011B00002050A152A55AA80C060B058AC56AB5536
:1011C000AA54A850A04080D56A351A0D06030155CF
:1011D00000AA005500AA0020203A20200030003A42
:1011E000003000474F21005C2B4020464F52204DDD
:1011F000454E550008083C3C424281BD99BD99BD11
:1012000081BD42423C3C00E766FF7EFF3C7E3C7E67
:101210007EFF66FF00E7000C0C1E0EFFA2FFB2FF70
:101220001EFF1C3E001C101000000000000000000B
:1012300000F8F8FCC0FFDEFFDEFFC0FFF8FC00F89E
:10124000000000000000000000000000000000009E
:10125000001F1F3F03FF73FF73FF03FF1F3F001FAC
:10126000000000000000000000000000000000007E
:1012700000F8F8FCC0FFDAFFDAFFC0FFF8FC00F866
:10128000000000000000000000000000000000005E
:10129000001F1F3F03FF5BFF5BFF03FF1F3F001F9C
:1012A000000000000000000000000000000000003E
:1012B00000F8F8FCC0FFCEFFCEFFC0FFF8FC00F83E
:1012C000000000000000000000000000000000001E
:1012D000001F1F3F03FF7BFF7BFF03FF1F3F001F1C
:1012E000000000000000000000C080C080F0A0F0FE
:1012F000A0F020F0E0F0E0F0E0F0E0F020F020F0EE
:10130000A0F080F080C000C000030103010F050FB2
:10131000050F040F070F070F070F070F040F040F28
:10132000050F010F0103000300C080C000F0A0F012
:10133000A0F020F0E0F0E0F0E0F0E0F020F0A0F02D
:10134000A0F000F080C000C000030103000F050FF3
:10135000050F040F070F070F070F070F040F050FE7
:10136000050F000F0103000300C080C080F0A0F053
:1013700020F020F0E0F0E0F0E0F0E0F020F0A0F06D
:10138000A0F080F080C000C000030103010F050F32
:10139000040F040F070F070F070F070F040F050FA8
:1013A000050F010F01030003000000000000008092
:1013B00080C0C0E0E0F0F0F8E8FCC4FEB0FE38FE0B
:1013C00090FE44FE007E00000000007E327F397FE8
:1013D0001C7F0D7F237F173F0F1F070F030701039C
:1013E000000100000000000000000000000000807C
:1013F00080C0C0E0E0F0F0F8E8FCC4FEA0FE08FE0B
:101400009CFE4CFE007E00000000007E327F397F93
:10141000107F057F237F173F0F1F070F030701036F
:10142000000100000000000000000000000000803B
:1014300080C0C0E0E0F0F0F8E8FCC4FEB0FE38FE8A
:101440009CFE4CFE007E00000000007E227F097F93
:101450001C7F0D7F237F173F0F1F070F030701031B
:1014600000010000000000000000007E44FE90FE2D
:1014700038FEB0FEC4FEE8FCF0F8E0F0C0E080C04A
:1014800000800000000000000000000000000001DB
:1014900001030307070F0F1F173F237F0D7F1C7FDB
:1014A000397F327F007E00000000007E4CFE9CFEF3
:1014B00008FEA0FEC4FEE8FCF0F8E0F0C0E080C04A
:1014C000008000000000000000000000000000019B
:1014D00001030307070F0F1F173F237F057F107FAF
:1014E000397F327F007E00000000007E4CFE9CFEB3
:1014F00038FEB0FEC4FEE8FCF0F8E0F0C0E080C0CA
:10150000008000000000000000000000000000015A
:1015100001030307070F0F1F173F237F0D7F1C7F5A
:10152000097F227F007E00000000000000F0F0F83C
:10153000A8FC64FEDAFFDAFFB4FEB4FEC8FCE8FCE7
:10154000F0F800F00000000000000000000F0F1F86
:101550001D3F1B3F3A7F367F7FFF40FF3F7F1F3F8E
:101560000F1F000F0000000000000000000000003E
:1015700000C6C4EE66FF7EFF3CFE7EFF66FFC6EF40
:1015800080C6008000000000000000000000001E77
:101590001E3F3F7F347F357F207F357F317F3F7F08
:1015A0001F3F001F0000000008083870E0C0C0E0C6
:1015B0007038181818F8F81818183878F8D89818D3
:1015C000181818181898D8F878383C7EE7C38100A6
:1015D0000000181818FFFF0000003870E0FFFF003F
:1015E00000001C0E07FFFF0000001C0E070303078E
:1015F0000E1C1818181F1F181818181818191B1F58
:101600001E1C1C1E1F1B1918181800000081C3E7A0
:101610007E3C000000FFFF181818000000FFFF07C5
:101620000E1C000000FFFFE070383C7EE7C3C3E7FC
:101630007E3C181818FFFF1818183870E0C183078F
:101640000E1C1C0E0783C1E070383870E0C08000AB
:1016500000001C0E0703010000000000000103074A
:101660000E1C00000080C0E070385500AA00550034
:10167000AA001A1F11241FBECFEFDAE0DEBFCDBFD4
:1016800011E0A0E0B1E0EEEFF3E602C005900D92AC
:10169000AA34B107D9F726E0AAE4B1E001C01D924F
:1016A000A134B207E1F71BE0CAE3DBE004C02197F5
:1016B000FE010E94F731C933D107C9F70E946F1F9D
:1016C0000C94FD310C94000080915E010895CF923E
:1016D000DF92EF92FF92CF93DF939B016F3F7105F3
:1016E00011F008F0C1C18F3F910511F008F0BCC1A5
:1016F0004091290650912A0660912B0670912C0684
:10170000E0912D06F0912E06E817F9070CF048C07D
:10171000C4E0D0E06A017B01A1E0CA22DD24EE240E
:10172000FF24F094E094D094C094C11CD11CE11C1F
:10173000F11CA4E0CA22DD24A8E0EA22FF24769569
:101740006795579547954C255D256E257F252197F3
:1017500009F73196D9CFC4E0D0E06A017B01A3E15B
:10176000F694E794D794C794AA95D1F7A1E0CA223A
:10177000DD24D194C194D108A9E0CA22DD240D2C26
:10178000000CEE08FF08440F551F661F771F4C25FD
:101790005D256E257F256F7077272197F1F63197AC
:1017A0008E179F07C4F2F0932E06E0932D06E0916A
:1017B0002F06F0913006E217F3070CF0A5C081EF79
:1017C0009CE4A9E0B0E040FD03C080E090E0DC01D3
:1017D00041FF06C0CBEE8C27C9E99C27C2E0AC27AD
:1017E00042FF06C0C6ED8C27C3E39C27C5E0AC27AB
:1017F00043FF06C0CCEA8C27C7E69C27CAE0AC278B
:1018000044FF06C0C1E58C27CFEC9C27C4E0AC2781
:1018100045FF06C0C2EA8C27CEE99C27C9E0AC2769
:1018200046FF06C0CDE48C27CDE39C27C3E0AC2760
:1018300047FF06C0CAE98C27CAE79C27C6E0AC2749
:1018400050FF06C0C4E38C27C5EF9C27CCE0AC2733
:1018500051FF06C0C1E68C27CAEE9C27C9E0AC2721
:1018600052FF06C0CBEC8C27C4ED9C27C3E0AC270D
:1018700053FF06C0C6E98C27C9EA9C27C7E0AC27FE
:1018800054FF06C0CCE28C27C3E59C27CFE0AC27F1
:1018900055FF06C0C1E58C27C6EA9C27CEE0AC27E1
:1018A00056FF06C0CBEA8C27CCE49C27CDE0AC27C2
:1018B00057FF06C0CFE58C27C9E99C27CAE0AC27B3
:1018C00060FF06C0C7EB8C27C2E39C27C5E0AC27AE
:1018D00061FF06C0CEE68C27C5E69C27CAE0AC2790
:1018E00062FF06C0C5ED8C27CAEC9C27C4E0AC277C
:1018F00063FF06C04AEA842745E9942749E0A42704
:101900003196AC01BD0157CF2E173F070CF097C0A1
:1019100083E091E6A4E0B0E040FD03C080E090E009
:10192000DC0141FF06C0C6E08C27C2EC9C27C8E062
:10193000AC2742FF06C0C5E08C27C4E89C27C1E065
:10194000AC2743FF06C0CAE08C27C8E09C27C3E051
:10195000AC2744FF06C0C4E18C27C0E19C27C6E049
:10196000AC2745FF06C0C8E28C27C0E29C27CCE02C
:10197000AC2746FF06C0C9E58C27C0E49C27C8E019
:10198000AC2747FF03C0CBEB8C27905850FF05C016
:10199000C6E78C27C1E09C27AC2751FF05C0CCEEE1
:1019A0008C27C2E09C27AC2752FF06C0C8ED8C27CD
:1019B000C5E09C27C4E0AC2753FF06C0C0EB8C27D2
:1019C000CBE09C27C8E0AC2754FF04C0C9E68C27B5
:1019D000C7E19C2755FF04C0C2ED8C27CEE29C27AF
:1019E00056FF04C0C4EA8C27CDE59C2757FF04C0EE
:1019F000C8E48C27CBEB9C2760FF06C0C0E98C278E
:101A0000C6E79C27C1E0AC2761FF06C0C0E28C2777
:101A1000CDEE9C27C2E0AC2762FF06C0C0E48C2755
:101A2000CAED9C27C5E0AC2763FF05C0805844EB96
:101A300094274BE0A4273197AC01BD0165CFF0930B
:101A40003006E0932F064093290650932A066093B0
:101A50002B0670932C06842F8F70DF91CF91FF900F
:101A6000EF90DF90CF9008958FEFF7CF4F925F9276
:101A70006F927F92AF92BF92CF92DF92EF92FF92DE
:101A80000F931F93CF93DF938C017B010E94670B11
:101A9000D82F87FF53C08FEFE816F80699F40F3F51
:101AA0008FEF180784F1013081E0180764F5C4E175
:101AB000011581E0180791F1C1E00F3F1F4F71F54B
:101AC000C7E12CC0E11481E0F80699F40F3F8FEFD5
:101AD0001807CCF0013081E01807ACF4C5E101151E
:101AE00081E01807D9F0C9E00F3F1F4FB9F4C6E1F4
:101AF00015C0011581E0180741F4C5E08FEFE81625
:101B0000F10461F058F0C8E109C00F3F1F4FD9F749
:101B1000CDE08FEFE816F10409F0A8F78C2FDF91E4
:101B2000CF911F910F91FF90EF90DF90CF90BF90DA
:101B3000AF907F906F905F904F900895C82FC370C3
:101B4000C05F082E000C990B959587959595879504
:101B5000813009F465C024F48823A1F1CD2FDECFB4
:101B6000823009F48AC08330C9F74090290650902A
:101B70002A0660902B0670902C06C0902D06D090FF
:101B80002E06A0902F06B0903006B701C80101972D
:101B90000E94670B4092290650922A0660922B06FB
:101BA00070922C06D0922E06C0922D06B09230066E
:101BB000A0922F0687FDB2CF85958595813009F0DB
:101BC000ADCFCCCF4090290650902A0660902B06CE
:101BD00070902C06A0902D06B0902E06C0902F0677
:101BE000D0903006B70161507109C8010E94670B9F
:101BF0004092290650922A0660922B0670922C067B
:101C0000B0922E06A0922D06D0923006C0922F06DA
:101C100087FD84CF85958595823009F49FCF7ECF4F
:101C20004090290650902A0660902B0670902C0652
:101C3000C0902D06D0902E06A0902F06B0903006B2
:101C4000B701C80101960E94670B40922906509285
:101C50002A0660922B0670922C06D0922E06C09215
:101C60002D06B0923006A0922F0687FD57CF85959E
:101C70008595833009F472CF51CF4090290650905A
:101C80002A0660902B0670902C06C0902D06D090EE
:101C90002E06A0902F06B0903006B7016F5F7F4FE1
:101CA000C8010E94670B4092290650922A06609252
:101CB0002B0670922C06D0922E06C0922D06B09262
:101CC0003006A0922F0687FD29CF8595859509F4CA
:101CD00045CF24CFECEAF1E0928163815481A68163
:101CE00047817085818532852081E1812E27E8E555
:101CF0002E2792279A279727962795279427892773
:101D000083270895E9E0F2E0A0E0B8E000800EBC8F
:101D10008111012C1197A0FDFDCF0192B9F70DB4EF
:101D20000895E9E0F2E089E096E0108211821282E3
:101D3000138234968E179F07C1F708952F923F9212
:101D40004F925F926F927F928F929F92AF92BF92CB
:101D5000CF92DF92EF92FF920F931F93CF93DF9377
:101D600000D000D000D0CDB7DEB710E0442E512C0B
:101D7000322F3770A32FB0E0BE83AD83EFEFF0E0DA
:101D8000DF0102C0AA0FBB1F3A95E2F7BA83A9830D
:101D9000F12CAD81BE81AE19BF091F0101C0220C1B
:101DA000AA95EAF7B22CA22FA695A695A695E0E8EB
:101DB000AE9FD0011124A40DB51DA75FBD4F38E023
:101DC000639FF00111243296E00FF11F8E0F9F1FC9
:101DD000B201685F7F4F601B710BD12C4D805E801C
:101DE000E8E04E0E511C4E185F08622E712CF8E090
:101DF0006F0E711C8A2C912C28E030E08901ED8156
:101E0000FE810E1B1F0B1C830B83522D5095E42F5C
:101E1000F0E09B01C616D7060CF49601E217F30713
:101E20009CF5FC012491AD9030E00E2C02C035955C
:101E300027950A94E2F733278D0101501109F90122
:101E40000D8002C0EE0FFF1F0A94E2F7EA25F98128
:101E5000EF23AE26F801A082F9E04F1651048CF072
:101E60006814790474F4FD01E158FF4F0B8002C03F
:101E7000359527950A94E2F7252330813B21232BC2
:101E800020834F5F0196C3CF26960FB6F894DEBF2E
:101E90000FBECDBFDF91CF911F910F91FF90EF90BB
:101EA000DF90CF90BF90AF909F908F907F906F907A
:101EB0005F904F903F902F9008952F923F924F92B6
:101EC0005F926F927F928F929F92AF92BF92CF92CA
:101ED000DF92EF92FF920F931F93CF93DF93CDB7D3
:101EE000DEB72B970FB6F894DEBF0FBECDBFF091D3
:101EF0002206E0912106AF2FAE1BBB0BFD01B7FD03
:101F00003196F595E7954B018E1A9F0AB0912306FD
:101F1000BA87809124068B1B990B97FD01969595A6
:101F200087951901281A390A282D2770B22EC40165
:101F300053E0959587955A95E1F79C838B83122DF5
:101F4000177088E0982F921B9987F82EF11A8091CC
:101F50002406AA85A81708F086C08091230661018F
:101F6000CA0ED11CB601681B710933E075956795DF
:101F70003A95E1F78B819C810E94360D40902906AD
:101F800050902A0660902B0670902C0620912D060A
:101F900030912E063A83298380912F069091300646
:101FA0009E838D83909121069B870B2DD601A11BCB
:101FB000B109B887AF838091230690912206BB8533
:101FC000B91790F56F817885681B710983E0759565
:101FD00067958A95E1F7C4018B0F911D801B9109CC
:101FE00020912106821B910923E0959587952A95DA
:101FF000E1F70E94360DA0902406C0902206E12E43
:102000002A854B85682F88EA95E10E949E0E809173
:1020100021063B85381306C089856B85680F6B8761
:1020200000E0C9CF88E0F9CF4092290650922A06F5
:1020300060922B0670922C06A981BA81B0932E066D
:10204000A0932D062D813E813093300620932F06DC
:102050003A85381306C08F2D6A85680F6A8710E0AD
:1020600076CF88E0F9CF2B960FB6F894DEBF0FBE7F
:10207000CDBFDF91CF911F910F91FF90EF90DF9037
:10208000CF90BF90AF909F908F907F906F905F9018
:102090004F903F902F9008959C01480F592F511D4C
:1020A0004115510561F1803891054CF541385105D4
:1020B00014F040E850E0421BCB018770992791E073
:1020C00001C0990F8A95EAF777FF02C0695F7F4FD9
:1020D000FB0183E0F595E7958A95E1F7F695FE2FEC
:1020E000EE27F795E795E20FF31FE75FFD4F4150AD
:1020F00030F08191DF011197892B8C93F8CF0895EF
:10210000FC018091AB01882311F13FB7F89482E084
:102110008093E9002091F200822F90E018161906B2
:1021200014F481E090E0882339F0289A44E6409343
:10213000AA014091F1004083222339F02091F2005E
:10214000211103C02BE62093E8003FBF08958FEFD5
:102150009FEF08952FB7F89483E08093E900909162
:10216000E800892F807295FF04C09091F20080E40E
:10217000891B2FBF08958091A20181110DC082E0BB
:1021800080939E0184E080939F011092A1011092A0
:10219000A00181E08093A2018EE991E008953FB70C
:1021A000F89480919A0190919B01A0919C01B0912B
:1021B0009D0126B5A89B05C02F3F19F00196A11DD2
:1021C000B11D3FBFBA2FA92F982F8827BC01CD0181
:1021D000620F711D811D911D42E0660F771F881FE0
:1021E000991F4A95D1F708958F929F92AF92BF920F
:1021F000CF92DF92EF92FF926B017C010E94CF1091
:102200004B015C01C114D104E104F104B9F00E9456
:10221000CF10681979098A099B09683E73408105C6
:10222000910580F321E0C21AD108E108F10888EE97
:10223000880E83E0981EA11CB11CE4CFFF90EF90A4
:10224000DF90CF90BF90AF909F908F900895409176
:102250005401509155012091520130915301421780
:102260005307B4F49091E8009570E1F39091E80081
:1022700092FD19C08093F100809154019091550115
:1022800001968F739927892B19F48EEF8093E800BC
:10229000809154019091550101969093550180933E
:1022A000540181E0089580E00895DF92EF92FF925B
:1022B0000F931F93CF93DF93D82E8A01EB017B01FD
:1022C000E40EF51ECE15DF0559F0D7FE12C0FE0153
:1022D00084910E94271121968111F4CF0FEF1FEFF7
:1022E000C801DF91CF911F910F91FF90EF90DF9088
:1022F00008958881EECF0F931F93CF93DF931F92A2
:10230000CDB7DEB782E0898342E450E060E377E056
:1023100080E80E9455110E94BB10DC0112960D91BD
:102320001C910115110589F0D801ED91FC910280F5
:10233000F381E02DBE016F5F7F4FC801099597FDC6
:1023400004C0F80100851185ECCF89810F90DF91E1
:10235000CF911F910F910895615030F02091F100BD
:10236000FC0120830196F8CF289A84E68093AA0185
:102370000895AF92BF92CF92DF92EF92FF920F93A8
:102380001F93CF93DF936C017B018B01040F151F0B
:10239000EB015E01AE18BF08C017D10759F0699173
:1023A000D601ED91FC910190F081E02DC6010995D7
:1023B000892B79F7C501DF91CF911F910F91FF9084
:1023C000EF90DF90CF90BF90AF9008958F929F9243
:1023D000AF92BF92CF92DF92EF92FF920F931F9333
:1023E000CF93DF936C017B018A0180910B018823DD
:1023F00009F45CC08091AB01882309F457C0809137
:10240000580180FF05C08091E00082608093E00069
:10241000E801B12C8AEFA82E93E0892E2AE3922EB0
:10242000209711F4BB20D9F10E94AA1081110AC093
:10243000AA94AA20D9F161E070E080E090E00E94C7
:10244000F410EECF8C171D0611F00CF08C2F9FB7F7
:10245000F8948092E9002091E80025FD02C09FBF1A
:10246000DFCF282F30E0C21BD30BF701815020F0C3
:1024700041914093F100FACFE20EF31EBB2021F010
:102480009092E800B12CEBCF8091E80085FDE7CF7A
:102490009092E800BB24B394209709F3F3CF5D9AA0
:1024A00084E680935701101611063CF081E090E01D
:1024B000F6019383828310E000E0C801DF91CF91A1
:1024C0001F910F91FF90EF90DF90CF90BF90AF9052
:1024D0009F908F900895CF93DF931F92CDB7DEB773
:1024E0006983DC01ED91FC910280F381E02D41E0F4
:1024F00050E0BE016F5F7F4F09950F90DF91CF9144
:10250000089583E08093E9008091F200882319F018
:102510008AE38093E80008950E94AA1090E008954D
:10252000CF93DF931F92CDB7DEB7FC0184859585ED
:1025300097FD08C02FEF3FEF358724870F90DF917D
:10254000CF910895CE0101960E948010019719F451
:10255000898190E0F3CF8FEF9FEFF0CF0F931F9320
:10256000CF93DF931F92CDB7DEB78C01FC0184853A
:10257000958597FF0BC0CE0101960E9480100197B0
:1025800071F4898190E0F80195878487F80184854A
:1025900095850F90DF91CF911F910F9108958FEF47
:1025A0009FEFF1CFFC018485958597FD0BC09FB708
:1025B000F89482E08093E9008091F2009FBF90E060
:1025C000019608959FB7F89482E08093E900809186
:1025D000F2009FBF90E0089520917701E09175018E
:1025E000F0917601CF010296909376018093750168
:1025F000222319F085919491089580819181089505
:10260000CF92DF92EF92FF92CF93DF930E94EC1272
:10261000811520E8920791F4809171008D7F80935D
:102620007100109291004698479810927201DF91C4
:10263000CF91FF90EF90DF90CF90089521E020930D
:102640007201813020E8920751F4809173019091DA
:10265000740190937601809375010E94EC1297FDAE
:1026600005C020914B01222309F454C020914A0156
:10267000211150C021E020934C01EC01DF7720971D
:1026800009F04BC081E080934D0146983FE9C32E8D
:102690003FE0D32EE12CF12CCAEFD0E0E0911706F9
:1026A000F09118060995811103C081E080934D01D6
:1026B00080914C01882329F080914D01882309F4F1
:1026C0003FC047980E94EC120097F1F19C01DE0197
:1026D0000E94C831DC01CB0129E0B595A7959795FB
:1026E00087952A95D1F7109290002AE020939100C7
:1026F000D0929900C092980080934E0190934F0120
:10270000A0935001B0935101809171008260809339
:1027100071008DCF10924C01B0CF9E0150E040E08F
:1027200060E472E48FE090E00E94743169017A0104
:1027300081E0C81AD108E108F10810924D01AECF2E
:102740004699BFCF479ABECF8FEF9FEFDC01CBCF2B
:102750009C01E1E7F0E090819D7F908310927701EA
:10276000E9E0F6E0F0937601E0937501F0937401EF
:10277000E0937301318320837383628380E090E868
:10278000958384830C9400134F925F926F927F9293
:102790008F929F92AF92BF92CF92DF92EF92FF9271
:1027A0000F931F93CF93DF934C015901FC2DC02F42
:1027B000D0E0CE01880D991D181619060CF06CC0DA
:1027C00020E8821691040CF067C09B012E0D311D8C
:1027D000121613060CF060C0603471050CF05CC07A
:1027E0004115510509F458C0E62FE770FE2EDB01B4
:1027F00077FD179633E0B595A7953A95E1F73A2F0F
:1028000077FF04C0FF2011F03FEF3A0F66277727CC
:102810006819790997FC02C070E060E08038910582
:102820000CF44BC090E89819961BA32F032E000CB4
:10283000BB0B1A2F10953F3F0CF010E021E08E2DBE
:10284000877009F420E0E694E694E694E20EAE0D7B
:10285000B11D19971CF028E0E22EE31AE11A310F9E
:1028600020E83203D0011124A80DB91DA60FB71F0F
:10287000019F600D711D1124460F571F0F2D0F2C46
:10288000000C110BF33009F41CC1C8F4F13009F449
:10289000D0C0F23009F47CC0DF91CF911F910F912D
:1028A000FF90EF90DF90CF90BF90AF909F908F9070
:1028B0007F906F905F904F900895902FB5CFFA3F23
:1028C000B1F1232F2E0DFB3F39F7321729F3BD014C
:1028D000675F7D4FD12CC12CC91608F0A4C0FA0146
:1028E000EC0DFD1DE491F0E04F01002E02C0880CBC
:1028F000991C0A94E2F737FD06C0FB018081E82CA1
:10290000E0948E218083FF2061F0373054F45B0126
:10291000F0E8AF0EB11CE92CE094F50180818E2126
:102920008083FFEFCF1ADF0A6F5F7F4FD5CF232F52
:102930002E0D321709F4B0CFBD01675F7D4FD12C4A
:10294000C12CC91608F069C0FA01EC0DFD1DE49117
:10295000F0E04F01002E02C0880C991C0A94E2F7A7
:1029600037FD04C0FB01808188298083FF2051F05E
:10297000373044F45B01F0E8AF0EB11CF501808103
:1029800089298083FFEFCF1ADF0A6F5F7F4FD9CF8E
:102990006FEF70E00F2C02C0660F771F0A94E2F70A
:1029A00060957095772E232F2E0D321709F474CF72
:1029B000FD01E75FFD4F6F01B12CA12CA91638F581
:1029C000FA01EA0DFB1DE491F0E02F01002E02C098
:1029D000440C551C0A94E2F737FD05C0F6018081CE
:1029E000862384298083FF2059F037304CF4460138
:1029F000F0E88F0E911CF401808187218529808366
:102A0000FFEFAF1ABF0A8FEFC81AD80AD7CF3F5FC0
:102A10004C0F5D1FA058BF4FC8CF3F5F4C0F5D1FCD
:102A2000A058BF4F86CF3F5F4C0F5D1FA058BF4FD0
:102A30004CCF6A0D7B1D232F2E0D321709F42CCF9E
:102A4000FD01E75FFD4F6F01B12CA12CA91688F5A0
:102A5000FB01EA0DFB1D8490912C002E02C0880C16
:102A6000991C0A94E2F780949094FA01EA0DFB1DF8
:102A70006490712C002E02C0660C771C0A94E2F759
:102A800037FD05C0F6018081882186298083FF20DB
:102A900049F037303CF4F601E058FF4F808189213E
:102AA00087298083FFEFAF1ABF0A8FEFC81AD80AB1
:102AB000CDCF3F5F4C0F5D1F6C0F7D1FA058BF4FE8
:102AC000BCCFC92ED12CFA01E60FF71FA75FBD4F6F
:102AD00000E810E00C191D09CC19DD09BE01660FD4
:102AE000771F41E050E06A010F2C01C0CC0C0A9422
:102AF000EAF7592F2E2D792ECF93DF93ED01EF9624
:102B0000EF9622968590A590FF2059F08C9C40016D
:102B1000AC9C500137302CF4E880B094EB20E928CD
:102B2000E99233233AF0EC90A094EA20E828ED9261
:102B30000C949B1511965A9529F72A9551F0572D0B
:102B400033951124E60FF11DA00FB11DC00FD11D4B
:102B5000D9CFDF91CF9111249FCECF92EF920F93D7
:102B6000FA0104913196E4904E5F5F4F2223F9F011
:102B7000A1E0B0E03E2D377011F4B0E0A0E0EE2D02
:102B8000E695E695E695EA0FFB2FF11D0E9FD00125
:102B90000F9FB00D112430E0220F331FA29FF001D0
:102BA000A39FF00DB29FF00D11244E0F5F1F23E085
:102BB000C22E30E020E00E94C4130F91EF90CF901E
:102BC00008952D9A0895BC0190E080E00C94F410D3
:102BD0008FB18095807F669B88601C9B8460089580
:102BE00020E191E061FD94E060FD990F62FD929516
:102BF000687F269FD0011124A80FA75FBD4F8C913D
:102C000040FF03C0892B8C93089590958923FBCFB7
:102C10008F929F92AF92BF92CF92DF92EF92FF92EC
:102C20000F931F93CF93DF936D3089F0C0905A01BB
:102C3000D0905B016A30D1F410925D0110925C017A
:102C400088E0C80ED11CD0925B01C0925A0181E08D
:102C500090E0DF91CF911F910F91FF90EF90DF9067
:102C6000CF90BF90AF909F908F90089500915C019E
:102C700010915D01E5E06E9FE0011124C05DDD4F24
:102C80005801F12CF5E0E12CFF1629F0CE01019658
:102C9000FE01E490EC01912C812CF0E8AF16B10418
:102CA00058F4B601680D791D6034710528F44E2D75
:102CB0004170C5010E94F015E6948FEF881A980ABA
:102CC000E8E08E16910449F7F394FFEFAF1ABF0ABC
:102CD00086E0F812D7CF0A5F1F4F10935D01009373
:102CE0005C01B5CF90919201982329F490919301C2
:102CF000982381E009F480E00895CF93C82F0E94C3
:102D0000E815982F9C2381E09C1380E0CF910895D3
:102D100080E00C94820EDF92EF92FF920F931F934C
:102D2000CF93DF937C01D22E8B01040F111DEB0199
:102D300077FF02C0D0E0C0E0C8010134110514F0F3
:102D400080E490E0C817D9075CF480E8E816F10445
:102D500028F44D2DBE01C7010E94F0152196ECCF3D
:102D6000DF91CF911F910F91FF90EF90DF90089529
:102D7000EF92FF920F931F93CF93DF937C018B0110
:102D8000C42FD22F6034710510F40E944C10B8018A
:102D90006D0F711D615071096034710520F44C2F65
:102DA000C7010E944C1021E04D2FB801C7010E94BD
:102DB0008B16C7018C0F911D21E04D2FB801019793
:102DC000DF91CF911F910F91FF90EF900C948B1694
:102DD000EF92FF920F931F93CF93DF93982FB82F0B
:102DE000B17080FF03C0413251052CF092FF1FC02B
:102DF0004F315105E4F09B012D5131092630310549
:102E0000B0F46F31710521F440FF0AC083E010C0B7
:102E100062327105D9F36032710521F440FD05C0BD
:102E200081E006C06D317105D9F785E001C080E011
:102E3000C92FC87093FF03C0613271052CF091FF58
:102E40000FC06F31710564F09A012D5131092630A0
:102E5000310530F44F315105C1F460FF0AC184E0FF
:102E6000A92FA072D92FD07194FF39C09B01241BC8
:102E7000350BF9017D97379790F520323105B1F484
:102E800086E040FD2CC081E02AC08111D1C04232D1
:102E9000510529F34032510521F460FD05C081E060
:102EA000DFCF4D315105D9F782E0DACF2D31310531
:102EB00009F0C3C0882371F181E06F33710529F4F3
:102EC00091FF03C0AA2309F4A3C04115510519F0CD
:102ED0004330510521F4BB2311F097FF1DC09A0127
:102EE000260F371F192F107496FF1EC0FB01FF9687
:102EF000E41BF50B7F010CE1E01AF10807E0E01696
:102F0000F10490F4EF31F10549F486E040FD0CC086
:102F100081E00AC08AE0D1CF85E0E1CFEC31F10554
:102F200089F48111F5CF8AE097FF29C0F9017C97D8
:102F3000379728F52F313105E1F487E040FD1FC0B8
:102F400081E01DC0B29721F7882389F081E06115E7
:102F5000710521F06330710509F05CC0CC2309F4E0
:102F600059C097FF80C04F33510501F757C088E023
:102F7000EECF2C313105B1F48111E2CF8BE0AA23E1
:102F800009F46AC0F901EC55F109379708F064C0FB
:102F90002F5331092032310519F587E040FD5CC01F
:102FA00081E05AC02232310559F68823B9F081E018
:102FB0006115710519F06330710521F4CC2311F00E
:102FC000112391F14115510519F043305105B9F61E
:102FD000BB23A9F2D111D3CF83E0D1CF89E0E8CFD1
:102FE0002D31310591F5882389F081E06F3371052A
:102FF00021F491FF02C0DD23C9F04F33510561F583
:1030000092FF2AC0111128C085E026C08BE0EECFC8
:1030100084E05BCF4F33510509F086CF92FF84CF18
:10302000A11182CF83E080CF84E0CCCF82E0E5CFD6
:103030004032510509F033CF30CF2332310509F04A
:1030400022CF811120CF88E04ACF2332310509F009
:10305000A7CF8111A5CF89E0DF91CF911F910F916B
:10306000FF90EF90089582E04F33510509F087CF2C
:10307000D5CF882309F40ECF12CFFC0182818111B4
:1030800010C0808181110BC08181811103C082E059
:1030900082830895815081838BE3808308958150DA
:1030A000FCCF813051F480818F5F8C33B0F310827C
:1030B00081818F5F8183833651F30895E1E7F0E0EA
:1030C00080818D7F808310927701E9E0F6E0F093B4
:1030D0007601E0937501F0937401E09373018AEE39
:1030E0009AE09183808384E190E0938382832DE44E
:1030F0003AE035832483978386832DE239E0318754
:103100002087938782870C94001380E090E0A4E0EE
:10311000B0E080938A0190938B01A0938C01B093CF
:103120008D0180938E0190938F01A0939001B093B5
:10313000910160E870E080E890E00E94360DE0E0E8
:1031400087FD06C0E82F880FFF0BEC5AFE4EE49176
:10315000E17980E094E0A4E0B0E049F080938A0156
:1031600090938B01A0938C01B0938D01089580936F
:103170008E0190938F01A0939001B09391010895D7
:103180006F927F928F929F92AF92BF92CF92DF9277
:10319000EF92FF920F931F93CF93DF93DC016A307E
:1031A00001F518968C91189717968C931797199686
:1031B0008C91199714969C911497890F19968C935A
:1031C00081E090E0DF91CF911F910F91FF90EF9000
:1031D000DF90CF90BF90AF909F908F907F906F9037
:1031E0000895603268F319968C91199717964C914F
:1031F0001797262F062E000C330B60360CF48FC069
:103200006FE170E02623372315969C911597929FC6
:103210007001939FF00C1124982F9770A92E042E03
:10322000000C550B082E000C990B23E09595879503
:103230002A95E1F79695982F882797958795840F7B
:10324000951F9C010A2D10E0EFEFF0E0BF010A2C62
:1032500001C0660F0A94EAF7962E909468E070E039
:10326000601B710B062E02C0F595E7950A94E2F7F4
:10327000BE2EB094822E881AC82DD0E01596DC9010
:1032800015971696CC9016976D2C6C0C7724771C9E
:10329000C615D7050CF046C0E0E08D1430F4FE01F1
:1032A000EE0DFF1DE455FF4FE4912115F4E03F07BB
:1032B00098F5C40FD51FC038D10574F51A96CD9175
:1032C000DC911B97C20FD31FF0E0C880892C8C20A3
:1032D0006F01002E01C0CC0C0A94EAF7C828C882FE
:1032E000662463946A14C0F46901C0E8CC0ED11C52
:1032F000C114C4E0DC0680F41A96CD91DC911B97D2
:10330000CC0DDD1DD880DB20062E02C0F595E7959B
:103310000A94E2F7ED29E8832F5F3F4FABCF6FE3CD
:1033200070E070CFDC0C17968C911797D80E17961B
:10333000DC9246CF0F931F93CF93DF938C01D0E0A5
:10334000C0E0F801EC0FFD1F6491662341F081E3BA
:1033500096E00E94C018892B11F02196F2CFCE0181
:10336000DF91CF911F910F910895089590E080E033
:103370000895FF920F931F93CF93DF930CEA11E010
:10338000C0EED1E0F801F1908F01CE010E945E31D4
:10339000F81621F06F2DCE010E9466312196CD3EA8
:1033A000F1E0DF0779F78CEA91E0DF91CF911F918F
:1033B0000F91FF9008950C945E31FC010190002064
:1033C000E9F73197AF01481B590BBC0181E396E047
:1033D0000C94B9118F929F92AF92BF920F931F934B
:1033E000CF93DF93CDB7DEB7A1970FB6F894DEBFCA
:1033F0000FBECDBF19A2423008F44AE08E010F5D26
:103400001F4F842E912CB12CA12CA50194010E9458
:10341000A631E62FB901CA01EA30F4F4E05DD80123
:10342000EE938D01232B242B252B79F790E080E060
:10343000109719F0CD010E94DD19A1960FB6F894EE
:10344000DEBF0FBECDBFDF91CF911F910F91BF9017
:10345000AF909F908F900895E95CE1CFCF93DF9379
:103460000E949A19EC0184E491E00E94DD198C0F0E
:103470009D1FDF91CF9108958F929F92AF92BF923F
:10348000CF92DF92EF92FF924B015C017C016B01C6
:103490006894C0F88FEFC816D806E104F10460F410
:1034A0008CE292E00E949A1984E0CC0CDD1CEE1CA8
:1034B000FF1C8A95D1F7EECF40E1C501B401FF9022
:1034C000EF90DF90CF90BF90AF909F908F900C9433
:1034D000EA19682F70E090E080E04AE00C94EA1965
:1034E000CF92DF92EF92FF92CF93DF9397FF1BC0B3
:1034F0006B017C016DE281E396E00E94C018EC0153
:1035000066277727CB016C197D098E099F094AE050
:103510000E94EA198C0F9D1FDF91CF91FF90EF90D1
:10352000DF90CF9008954AE0DF91CF91FF90EF9028
:10353000DF90CF900C94EA19FF920F931F93CF93D3
:10354000DF93EC018C0101608AE0F82E083E83E0F5
:10355000180758F48EE292E00E949A19C801F89E6A
:103560008001F99E100D1124F1CFBE0190E080E0A2
:103570004AE00E94EA1987E491E0DF91CF911F9120
:103580000F91FF900C94DD194F925F926F927F9292
:103590008F929F92AF92BF92CF92DF92EF92FF9263
:1035A000C0908A01D0908B01E0908C01F0908D0149
:1035B0008BE0F594E794D794C7948A95D1F70E944D
:1035C00006312AE0822E912CA12CB12CA501940168
:1035D0000E947431DC01CB010597A109B1098C0D62
:1035E0009D1DAE1DBF1D3BE0880F991FAA1FBB1F6D
:1035F0003A95D1F78093810190938201A093830142
:10360000B093840140908E0150908F0160909001A2
:10361000709091014BE075946794579447944A9544
:10362000D1F70E940631A50194010E9474316B010B
:103630007C0125E0C21AD108E108F108C40CD51CB0
:10364000E61CF71C5BE0CC0CDD1CEE1CFF1C5A9545
:10365000D1F7C0927D01D0927E01E0927F01F0927D
:1036600080018090810190908201A0908301B090B0
:103670008401B701A601EBE07595679557954795CD
:10368000EA95D1F7D501C401FBE0B595A7959795CB
:103690008795FA95D1F7BA010E94360DE0E087FDD3
:1036A00006C0E82F880FFF0BEC5AFE4EE491E1793B
:1036B000C9F084E0980EA11CB11C80928101909207
:1036C0008201A0928301B0928401FF90EF90DF907D
:1036D000CF90BF90AF909F908F907F906F905F90B2
:1036E0004F90089524E0D20EE11CF11CC0927D01A0
:1036F000D0927E01E0927F01F0928001E6CF0E949D
:1037000006312EEF3FEF4FE050E00E947431DC01B4
:10371000CB010196A11DB11DE1E2F6E08483958302
:10372000A683B78380879187A287B387158614867F
:103730001786168608951F920F920FB60F921124C6
:103740002F933F938F939F93AF93BF938091960155
:1037500090919701A0919801B091990130919501B4
:1037600023E0230F2D3758F50196A11DB11D20939D
:1037700095018093960190939701A0939801B0933F
:10378000990180919A0190919B01A0919C01B09127
:103790009D010196A11DB11D80939A0190939B01FB
:1037A000A0939C01B0939D01BF91AF919F918F9188
:1037B0003F912F910F900FBE0F901F90189526E804
:1037C000230F0296A11DB11DD2CF1F920F920FB6EB
:1037D0000F9211248F939F938091E1009091E100CB
:1037E000937F9093E10083FF0FC01092E90091E076
:1037F0009093EB001092EC0092E39093ED00109206
:10380000AB0198E09093F00082FF22C093E0909388
:10381000E9009091F200992319F09AE39093E8005F
:1038200090915701992341F09091570191509093B5
:103830005701911101C05D989091AA01992341F01F
:103840009091AA0191509093AA01911101C02898DA
:1038500084FF18C08091E2008E7E81608093E20038
:103860008091E1008F7E8093E100809158018E7EEF
:103870008061809358019F918F910F900FBE0F90A0
:103880001F90189580FFF7CF8091E2008E7E8061B7
:103890008093E2008091E1008E7E8093E100809130
:1038A00058018E7E8160E5CF1F920F920FB60F9266
:1038B0001124CF92DF92EF92FF920F931F932F93D9
:1038C0003F934F935F936F937F938F939F93AF93A8
:1038D000BF93EF93FF93CF93DF93CDB7DEB76C9792
:1038E000DEBFCDBF1092E9008091E80083FF25C0C4
:1038F00068E0CE0145960E94AC1182EF8093E8000B
:103900008D8987FF39C09091E80090FFFCCF982FF8
:10391000907609F034C19E894F89588D2F89F88C93
:10392000911131C0803861F5809159018093F10087
:103930001092F1008EEF8093E8006C960FB6F89429
:10394000DEBF0FBECDBFDF91CF91FF91EF91BF9151
:10395000AF919F918F917F916F915F914F913F9127
:103960002F911F910F91FF90EF90DF90CF900F90CC
:103970000FBE0F901F9018959EEF9093E800C7CF51
:103980001092F100D5CF913059F48111D3CF41304D
:10399000510581F6809159018D7F80935901CACFDD
:1039A000933049F48111C6CF4130510519F6809109
:1039B00059018260F2CF953041F48091E80080FF98
:1039C000FCCF20682093E300B5CF963009F0A9C062
:1039D0000B8D1C8D22E01092E9001092550110927F
:1039E0005401F2122EC010925301109252010E9403
:1039F0007B111F8299E09983FA8291E09E8390EA7D
:103A000098879AEF99872091540130915501275F4B
:103A10003F4F3C832B838D831092E9001092550118
:103A200010925401109353010093520149E050E069
:103A3000BE016F5F7F4F80E00E9455110E947B1195
:103A400079CF10935301009352010E94BB10DC0107
:103A500012960D911C910115110509F451C1D8015F
:103A6000ED91FC910480F581E02DBE016B5E7F4FEE
:103A7000C8010995009709F03EC1F801008511853C
:103A8000EACFF3E0FF120EC08F89882309F440C00B
:103A9000823061F440E86DE084E997E00E94E71E1F
:103AA000811148CF81E28093EB0047CF813029F428
:103AB00040E86BE088E897E0F1CF833099F70E9407
:103AC000BB10DC011296ED90FC908E010F5F1F4F32
:103AD0006801E114F10479F0D701ED91FC910680C1
:103AE000F781E02DB801C7010995080F111DF701F5
:103AF000E084F184EECFD8011C92F6010190002001
:103B0000E9F73197BF016C197D0940E0C601C6CFC6
:103B100062E777E0FB01449150E080E80E94551194
:103B200009CF973009F4BECF983021F481E080931B
:103B3000F10000CF993009F0FDCE837009F0B2CFCB
:103B4000E4E1F1E081E031E096E32191222371F09C
:103B50008093E9003093EB00DF0111972C912093C3
:103B6000EC009093ED008F5F873079F78EE78093BC
:103B7000EA001092EA008F898093AB01DBCE8B8D37
:103B80009C8D1092E900109255011092540190936F
:103B9000530180935201898D811192C08E899D8934
:103BA000913A49F4813209F07DCF47E050E064E07A
:103BB00071E080E0B3CF913209F074CF833269F4C1
:103BC0008F89988DB0E0A0E080930001909301016F
:103BD000A0930201B0930301ADCE803269F48091CD
:103BE000E80082FFFCCF67E084E091E00E94AC1126
:103BF0008BEF8093E8009ECE823209F09BCE8F89B6
:103C000080930B01EEEFFFE7859194918B3F9C4DE4
:103C100051F1E0E0F8E08091040190910501A0915C
:103C20000601B0910701803B9440A105B105F1F474
:103C300080910B0180FD1AC0EE3F8AE0F80789F5FC
:103C400087E797E791838083809160008093560196
:103C500088E19BE00FB6F894A895809360000FBEB2
:103C60009093600067CEEEEFFAE0D5CF808191812E
:103C70008737974709F05ECEA895809160008861EC
:103C8000809360008091560180936000EE3F2AE0AF
:103C9000F20789F08091FE0A9091FF0A9183808358
:103CA00049CE808191818737980751F29093FF0A1E
:103CB0008093FE0AC5CF1092FF0A1092FE0A3ACEF8
:103CC0000E94BB10DC0112960D911C91011511058B
:103CD00009F4E8CED801ED91FC910190F081E02D3E
:103CE000BE016B5E7F4FC8010995811123CEF8019B
:103CF00000851185EBCF181619060CF41BCED2CE19
:103D0000F1E0FF12BECE66E777E004CF1F920F927C
:103D10000FB60F9211242F933F934F935F936F939E
:103D20007F938F939F93AF93BF93EF93FF93809174
:103D30004E0190914F01A0915001B0915101892BFA
:103D40008A2B8B2B09F440C080914D0181110BC04F
:103D500088B190E4892788B980914C01882319F0B3
:103D600088B1805888B980914E0190914F01A091FF
:103D70005001B0915101181619061A061B069CF441
:103D800080914E0190914F01A0915001B09151014D
:103D90000197A109B10980934E0190934F01A0931F
:103DA0005001B0935101FF91EF91BF91AF919F915D
:103DB0008F917F916F915F914F913F912F910F90D4
:103DC0000FBE0F901F9018950E940013ECCFEF923A
:103DD000FF920F931F93CF93DF93F82E192FE62EA8
:103DE000042F81E0860F880F0E94271183E00E9434
:103DF0002711CF2DD12FEC0EFD2EF11CCE15DF0596
:103E0000B9F007FF13C0FE0184910E942711182FFB
:103E100080E00E942711812321968111EFCFDF914D
:103E2000CF911F910F91FF90EF9008958881EDCF72
:103E300081E0F5CFE9EBF1E01382128288EE93E0A6
:103E4000A0E0B0E084839583A683B7838EE191E000
:103E5000918380838FEF9FEF95878487EDE3F6E072
:103E6000138212828CE391E09183808384E69BE04D
:103E7000909318068093170680E090E890931606BA
:103E80008093150646983E9A47983F9AE1E3F6E0FC
:103E90001382128280E391E09183808388E084839F
:103EA00086E0858381E0868389E092E0938782873C
:103EB000E1E2F6E080E5808380E88183128280E49D
:103EC000838382E08093200680931D0680910E01FB
:103ED00080931A0680910D01809319060895CF935F
:103EE000DF93CDB7DEB765970FB6F894DEBF0FBE90
:103EF000CDBF789484B5826084BD84B5816084BD73
:103F000085B5826085BD85B5816085BD80916E0077
:103F1000816080936E0010928100809181008260A8
:103F200080938100809181008160809381008091E5
:103F300080008160809380008091910082608093F6
:103F40009100809191008160809391008091900018
:103F50008160809390008091C10084608093C10053
:103F60008091C10082608093C1008091C100816016
:103F70008093C1008091C30081608093C3008091D1
:103F8000C00082608093C0008091C20081608093F5
:103F9000C20080917A00846080937A0080917A00D8
:103FA000826080937A0080917A00816080937A00A9
:103FB00080917A00806880937A001092AB01109211
:103FC0005901109258018091D70081608093D700E9
:103FD00080EA8093D80089B5806189BD89B5826007
:103FE00089BD09B400FEFDCF61E070E080E090E0A3
:103FF0000E94F4108091D8008F7C80618093D8005B
:104000008091E000807F8093E0008091E1008E7ECF
:104010008093E1008DE08093E200559A209A5D98AC
:10402000289881EC80937C0085B1806F85B984B13C
:10403000877E84B984B1876E84B95E9A5F988AB1AD
:10404000806D8AB9769A6E9881B3806F81BB8998AA
:1040500080B38D7080BB80E58CBD81E08DBD85E037
:1040600090E00E94E3155F9A85E090E00E94E315DE
:104070005E985C98E2E5F8E08FE598E024912EBD2B
:1040800000000DB407FEFDCF31968E179F07B1F7E4
:104090005C9A81E8809364008091650081608093E0
:1040A00065000E94881680E80E947D168823A9F08A
:1040B0005C9885EA8EBD00000DB407FEFDCF5C9ACA
:1040C0002E982F982D9880916400806280936400D0
:1040D00081E083BF889513BEFCCF84E00E947D16EB
:1040E000882309F448C02D9884E80E947D1688230F
:1040F000E1F00E94E11588EC90E00E94E3152F9812
:1041000082E090E00E945E318F3F29F06FEF82E005
:1041100090E00E94663184EF91E00E94E3152F9AAF
:1041200084E80E947D168111FBCF84E10E947D16F8
:104130008823E1F00E94E11588EC90E00E94E315ED
:104140002E9882E090E00E945E31882329F060E0A2
:1041500082E090E00E94663184EF91E00E94E315D6
:104160002E9A84E10E947D168111FBCF88EC90E0AD
:104170000E94E315B2CF0E94E11582E090E00E9418
:10418000DB19882309F49AC03E9A3F9A81E0809314
:104190005E0181E090E00E94DB19082F0470702E10
:1041A00081FF12C001112E9871EF272E33243A940B
:1041B00008E010E080E40E947D16882309F483C0A3
:1041C0002E9A2F9A0E94E11582E390E00E94E31557
:1041D0000E94E8158111F8CF81E280930C018FEFE6
:1041E0009FEF9093C6018093C5010CEA11E020EE89
:1041F00031E03A83298389819A810E945E31D80116
:104200008D938D01E981FA813196FA83E983ED3E40
:10421000F14089F76090B8010E946A0E681621F19A
:1042200083E68093AC011092AD018DEE9DEAAFE084
:10423000B0E08093AE019093AF01A093B001B09332
:10424000B1011092B3011092B2018FEA9CEEADE081
:10425000B0E08093B4019093B501A093B601B09300
:10426000B7018AE38093B8010E947F1B1092210658
:1042700080E88093220688E28093230680E480937E
:1042800024060E948518222423942FB7F894809145
:10429000960190919701A0919801B09199012FBF3B
:1042A00020915F01222309F4E3C010925F0180E0B6
:1042B00090E0892B51F30E940000E5CF10925E013F
:1042C0003E983F9866CF772031F024E022163104E3
:1042D00011F42E9A2F9881E00E94820E910137FEF0
:1042E00004C0222733272219330927703327C1013D
:1042F00037FC079663E0959587956A95E1F737FE59
:1043000005C00197A801421B530B9A01BC01769589
:10431000762F662777956795F12CE12C2801421AB4
:10432000530A8E3F5FEF950709F447C0A8E5AE9D9D
:104330005001AF9DB00C1124DB01A75FBD4F50E0D1
:1043400040E0F501EE55F84F5F01FB01E757FD4FE7
:104350004F018F3F980781F0F501E40FF51FE491BD
:10436000022E01C0EE0F0A94EAF75496FC9154977E
:10437000EF2B5496EC93549721153105C1F0F501BC
:10438000E40FF51F64906401C40ED51EE62DF0E025
:10439000042C02C0F595E7950A94E2F7FE83ED83BD
:1043A000F601F489F9876D806F2AF601648A4F5F00
:1043B0005F4F11964835510561F6019660587F4F61
:1043C000EA94EF2809F050C00E9488168FE090E030
:1043D0000E94E3152FEF221A320A39E12316310425
:1043E00009F0E8CE772011F02F9A2D9880E991E01E
:1043F0000E94E3150E94E11581E090E00E94DB1924
:1044000080FFE2CE8AE090E00E94DB199FEF980FD8
:104410009E3F08F0D9CE22E330E030935D01209337
:104420005C0128E330E030935B0120935A010BE0FC
:1044300010E01A830983682F8DE396E00E94081626
:1044400089819A810E94DB1909811A810F5F1F4FB0
:104450001A8309830131110571F70E94881688EECD
:1044600093E00E94E315B0CEEE24E394F12C59CFF3
:1044700020916001A82EA21A2A2D30910C01A316BA
:1044800050F42F5F231708F012CFBB24B394B3BEB0
:10449000889513BE0CCF20925F0180936001C0907D
:1044A0007B01D0907C0186010F5F1F4F1A83098327
:1044B00010937C0100937B01809193018093920182
:1044C0000E94E8158093930110919401EFEFE10FA2
:1044D000EC3010F00C94F82FF0E0EF58FD4D0C94F8
:1044E000F7317D227D227D22C529C5292A2DC529A6
:1044F0004A2BCB2B2A2DEA2E6E2F80908E01909086
:104500008F01A0909001B0909101C0908A01D0904D
:104510008B01E0908C01F0908D01B501A4012BE09E
:1045200075956795579547952A95D1F7D701C60197
:104530003BE0B595A795979587953A95D1F7BA0140
:104540000E94360D87FDDAC0082E000C990B8C5A9C
:104550009E4EFC018491882309F4D0C0A2E0B5945A
:10456000A79497948794AA95D1F7F4E08F0E911CA5
:10457000A11CB11CB501A401B3E0759567955795D1
:104580004795BA95D1F74F7350E002E0F594E79460
:10459000D794C7940A95D1F704E0C00ED11CE11C52
:1045A000F11C93E0F594E794D794C7949A95D1F7CA
:1045B0006C2D6F7370E00E94E816082F209189011E
:1045C00012168CF465E1621B70E089819A810E9469
:1045D000E331892B41F480918801823009F490C045
:1045E0008F5F80938801011106C022300CF48AC0CD
:1045F00021502093890180911D06823019F01130DD
:1046000009F055C088E00E947216882381F080E18D
:104610000E947D16882309F477C0109387011092B9
:10462000860184E0113009F087E08093940184E0F2
:104630000E9472168823E9F080918901082E000CEF
:10464000990B029621E030E0002311F030E020E0E9
:10465000820F931F8531910514F084E190E08093DF
:104660008901843131F068E270E081E290E00E94DB
:10467000A81380E40E947216882351F0809185016E
:10468000873009F452C08F5F809385010E945E18C5
:1046900080E20E947216882351F080918501882360
:1046A00009F445C08150809385010E945E184091B5
:1046B0008E0150918F016091900170919101009154
:1046C0008A0110918B0120918C0130918D01E09134
:1046D0008501E83008F0D6C3F0E0EA58FC4D80913F
:1046E0008901909188019D8B0C94F7319923B62311
:1046F000DA23F623C826E12604271E270CE05ECF26
:1047000080E06FCF20E075CF8091890183301CF469
:10471000109289018CCF8250809389016EE170E004
:104720008BE092E00E94A81382CF80E0ADCF87E0BB
:10473000BACF92E0AD899A1B9D8BB3E08B02C0018A
:104740001124092E000CAA0BBB0B481B590B6A0B3A
:104750007B0B40938E0150938F0160939001709377
:10476000910180E280931A068CE264C098E06D8823
:1047700096199D8B880F990B092E000CAA0BBB0B69
:10478000481B590B6A0B7B0B40938E0150938F0192
:104790006093900170939101800F911FA21FB31F2E
:1047A00080938A0190938B01A0938C01B0938D012B
:1047B00084E0D8CF4D894D5F4D8B53E08502C00119
:1047C0001124092E000CAA0BBB0B800F911FA21FF6
:1047D000B31F80938A0190938B01A0938C01B093B7
:1047E0008D0184E080931A0688E124C09D89975F3B
:1047F0009D8B880F990B092E000CAA0BBB0B480F41
:10480000591F6A1F7B1F40938E0150938F01609345
:10481000900170939101800F911FA21FB31F80938D
:104820008A0190938B01A0938C01B0938D0184E059
:1048300080931A068093190680910E0190911A06B2
:10484000891708F021C38F5F80930E0180910D01BD
:1048500090911906891708F01CC38F5F80930D0192
:10486000A0908E01B0908F01C0909001D0909101E6
:10487000A982BA82CB82DC82B0900D01BE8689818A
:104880009A81AB81BC8142E0B595A79597958795B4
:104890004A95D1F76C017D01CB18D108E108F108E8
:1048A000CD82DE82EF82F88620918A0130918B01E1
:1048B00040918C0150918D0129873A874B875C8705
:1048C00060900E016F8629013A0152E07594679459
:1048D000579447945A95D1F7BF844B1851086108F3
:1048E0007108142D17701D870D8107707301620107
:1048F00069E0F594E794D794C7946A95D1F78D80D1
:104900009E80AF80B88479E0B594A79497948794FB
:104910007A95D1F78D819E81AF81B885801B9109F1
:10492000A109B109E3E0B595A79597958795EA9513
:10493000D1F7182F1F73188BD301C2011D85811B5E
:104940009109A109B109F3E0B595A79597958795C8
:10495000FA95D1F7182F1F73B401C6010E94360DC6
:1049600087FD9CC2E82F880FFF0BEC5AFE4E249166
:10497000298B103108F094C2C6010197B4010E943E
:10498000360D87FF99C21C8AF02ED12C88E0B82EF4
:10499000ED84BE18882E801A8D819E81AF81B885E6
:1049A0008D0D911DA11DB11D8F199109A109B1098D
:1049B00033E0B595A795979587953A95D1F78F737D
:1049C000332433940889801708F0312C0D85912CFD
:1049D000282F30E03B8B2A8BD301C201890D911D1A
:1049E000A11DB11D801B9109A109B10923E0B59555
:1049F000A795979587952A95D1F78F7391E08117A1
:104A000008F090E0392A9C89311001C099899923D6
:104A100009F469C2682F70E04A895B89892F0E9476
:104A2000E816A0E4AA2EB0E5CB2EEF2C2D2D492DB3
:104A3000682F8DE691E10E949E0E8B2D911088E0EB
:104A4000980E00E03FE4391538F6882DD11088E043
:104A5000D80EF12C4FE34D1508F09ECF60909401D5
:104A60006D82BF840B2D10E0DE84ED2CF12C262D01
:104A7000233009F045C08091810190918201A0917D
:104A80008301B0918401A984BA84CB84DC848A191F
:104A90009B09AC09BD09F2E0B595A7959795879557
:104AA000FA95D1F7800F911F9C01205F3F4F203670
:104AB000310530F540917D0150917E0160917F017B
:104AC00070918001A980BA80CB80DC804A195B0993
:104AD0006C097D09E2E07595679557954795EA95CC
:104AE000D1F7B701640F751F603F2FEF720744F0D5
:104AF000603471052CF42DE046E252E10E94AD15C0
:104B00002D8946E252E1B701C8010E94AD158981A5
:104B10009A81AB81BC81292F3A2F4B2F552747FD16
:104B20005A95A984BA84CB84DC849927D7FC9A95BA
:104B30008D2D7C2D6B2D0E945D0F0D81033009F0B2
:104B4000B6C08091220690E04090210640918101FC
:104B50005091820160918301709184014A195B092F
:104B60006C097D0940585F4F6F4F7F4FC52ED62E81
:104B7000E72EFF24E7FCFA94BC01640D711D9B0134
:104B80002850310937FF02C02F5F3F4F35952795D9
:104B9000A901330F660B770B4C0D5D1D6E1D7F1D3C
:104BA0002091240630E0C090230680907D019090F3
:104BB0007E01A0907F01B0908001E980FA800B8196
:104BC0001C818E189F08A00AB10A00E8800E911C73
:104BD000A11CB11C892C9A2CAB2CBB24A7FCBA9429
:104BE000D901AC0DB11DFD013897F7FD3196F59552
:104BF000E7957F01FF0F000B110B8E0C9F1CA01E71
:104C0000B11E512C712C612C0897092E000CAA0B97
:104C1000BB0BD12CF12CE12C285031098901330F29
:104C2000220B330B44155505660577050CF460C15E
:104C300084179507A607B7070CF457C18C149D0479
:104C4000AE04BF040CF454C1E1E0E9830815190572
:104C50002A053B050CF01982E0917B01F0917C0163
:104C6000EF71FF27709718F5C814D904EA04FB0404
:104C700014F475016401441555056605770514F4AF
:104C8000B301A201E981EF5FE9830C151D052E0533
:104C90003F050CF46801481759076A077B070CF4B5
:104CA000CA01298144EF51E1B6010E94AD1500917E
:104CB0007B0110917C01C8018F7099270897D0F46F
:104CC0006091230680912406680F7727771F7595DA
:104CD0006795645071098091220690912106890F91
:104CE0009927991F9595879520E044EF51E1049706
:104CF0000E94AD1560912306809121062091240623
:104D0000261B40912206481B70E090E00E94B816D6
:104D100080911D06823009F408C1C8016EE170E07F
:104D20000E94E331892BA1F48BE196E00E943D18AB
:104D30000D81013069F080911B069FEF980F933031
:104D400008F0D9C06AEF70E08BE092E80E94A813E7
:104D5000109194011983113009F4D9C080911B0678
:104D6000823008F0D4C080911B069FEF980F9330DB
:104D700008F414C18111D9C08CE180933806809366
:104D8000390680933A0683EE91E10E949A19CDC0CC
:104D9000A3E08A02C0011124092E000CAA0BBB0B50
:104DA000840F951FA61FB71F80938E0190938F01CC
:104DB000A0939001B093910180E280931A0684E061
:104DC00039CDBD89BA5FBD8B880F990B092E000CB8
:104DD000AA0BBB0B480F591F6A1F7B1F40938E0104
:104DE00050938F016093900170939101081B190BF0
:104DF0002A0B3B0B00938A0110938B0120938C01AB
:104E000030938D018CE3D9CF95E06D8896199D8BF9
:104E100043E08402C0011124092E000CAA0BBB0B35
:104E2000081B190B2A0B3B0B00938A0110938B0173
:104E300020938C0130938D018CE3D4CC9BE0AD8921
:104E40009A1B9D8B880F990B092E000CAA0BBB0B8C
:104E5000481B590B6A0B7B0B40938E0150938F01BB
:104E60006093900170939101081B190B2A0B3B0B67
:104E700000938A0110938B0120938C0130938D0154
:104E80008CE370CC1D8AD8CC981708F0DFCC815009
:104E9000DBCC981708F0E4CC8150E0CC198A69CDBE
:104EA000C6010196B401113390F42889203160F4D1
:104EB00061507109C60163CDE82F880FFF0BEC5AD2
:104EC000FE4EB490BC8A60CD6F5F7F4FC6010E94DA
:104ED000360D87FD58CDE82F880FFF0BEC5AFE4E9C
:104EE000D490DC8A51CD8CE09CCDE1E0E983B4CE56
:104EF000F1E0F983B1CE90911D06923009F428CFEC
:104F0000811126CF64EF71E08AEB92E81FCF1092F7
:104F100038061092390610923A0687EE91E10E9407
:104F20009A190981013009F01ECFC090940111E057
:104F3000C11609F48FC180911D06823071F48091F1
:104F40007B0190917C016EE170E00E94E331892B3E
:104F500021F48EE196E00E943D180091240680E441
:104F6000D82ED01AE0902106209122062E1910E0AA
:104F7000F12CA22EAE0CBF2CB11CBA82A982A98042
:104F8000BA80EA14FB04ACF420E04D2DB801C7014F
:104F90000E948B162FEFE21AF20AF1CF94E290935F
:104FA0003806909339069CE190933A060E94691A5C
:104FB000BCCF609124068091210621E4261B4091FC
:104FC0002206481B6150770B90E00E94B816809132
:104FD0002106885F809338068093390689E38093A1
:104FE0003A0680911F06811114C080911E068B30F5
:104FF00090F433E0C3120FC080917B0190917C014B
:105000008F719927409738F087ED91E10E949A19A6
:105010001AC08A3020F481EE91E10E949A198091A1
:105020001F060E94691A8FED91E10E949A198091E2
:105030001E068A3020F48DED91E10E949A1980912C
:105040001E060E94691A80918A0190918B01A0919D
:105050008C01B0918D010097A840B10560F480915A
:105060008E0190918F01A0919001B09191010097D4
:10507000A840B10518F082E0809320068091940149
:10508000833009F0E7C0F09023066091210600917B
:105090002206061BA62EB12CBA82A982A00EB11C34
:1050A0008501C980DA80C016D1066CF420E04F2D4E
:1050B00070E060E0C6010E948B1696012F5F3F4FA3
:1050C0003A832983EECF80912106209123062F5F1A
:1050D00040912206481B70E060E090E00E94B81604
:1050E00080912106885F809338068093390610925C
:1050F0003A068091790190917A010E949C1A409120
:105100008A0150918B0160918C0170918D01405FFB
:105110005F4F6F4F7F4F85E0759567955795479522
:105120008A95D1F78091810190918201A0918301AC
:10513000B09184014096A11DB11D25E0B595A795BC
:10514000979587952A95D1F7481759076A077B07DE
:1051500009F080C040918E0150918F0160919001C3
:1051600070919101405F5F4F6F4F7F4F15E07595D4
:105170006795579547951A95D1F780917D01909144
:105180007E01A0917F01B09180014096A11DB11DCB
:1051900005E0B595A795979587950A95D1F7481796
:1051A00059076A077B0709F055C030911F062AE0AE
:1051B00080911E06622F0E94D73190E0329F800DB1
:1051C000911D11242091790130917A01820F931F52
:1051D00090937A018093790182E080931F06109268
:1051E0001E06109220060E94C41A809171008D7FC5
:1051F000809371001092770149E056E05093760158
:1052000040937501509374014093730186E091E8D7
:1052100090930A068093090682E390E090930C062F
:1052200080930B0626E231E830930E0620930D069C
:105230009093100680930F068DE591E890931206E7
:10524000809311068BE490E09093140680931306EC
:105250000E940013809194019EEF980F9230C8F540
:10526000909120069230A9F5809387019CE090935D
:105270009401409125065091260660912706709171
:105280002806823009F068C090911E0680911F06A2
:105290002091AC01821730F0821319C02091AD012A
:1052A0009217A8F48093AC019093AD014093AE01A6
:1052B0005093AF016093B0017093B1010E946A0EE8
:1052C0008093B801209278010E94B91902C010920F
:1052D0007801809189011816DCF590917201911185
:1052E00037C05DEF850290011124205B3F4F62E3E0
:1052F0008602C00111248F5B9F47409171004D7F52
:105300004093710010927701A9E0B6E0B093760166
:10531000A0937501B0937401A093730190930A0652
:10532000809309068AE090E090930C0680930B0628
:1053300010920E0610920D063093100620930F0661
:1053400080E090E890931206809311060E9400136B
:105350000E9488160C9457218091790190917A01CE
:105360002091B2013091B3012817390708F0AFCF6F
:105370009093B3018093B2014093B4015093B5016F
:105380006093B6017093B70199CF0E94910E10926D
:1053900038061092390610923A06153069F0173027
:1053A00009F45EC0143009F061C088E091E10E9408
:1053B0009A1905E0098314C081EC90E10E949A19C2
:1053C0006091250670912606809127069091280607
:1053D0000E943C1A8DEA90E10E942E1A13E0198374
:1053E000109186011D831092380610923906812F84
:1053F000880F880F880F885F80933A068EE690E1C9
:105400000E949A190E94881680E80E9472168823CA
:1054100031F011501D8317FD2BC01093860180E1E0
:105420000E947216882371F0209186012F5F822FCF
:10543000022E000C990B698068161906F1F0ECF049
:105440002093860188E00E9472168823C9F080911B
:1054500094018430A9F08730B1F58091870188C02C
:1054600080E790E10E949A1902E0A4CF1982B8CF98
:105470008981815080938601D2CF10928601E2CF3C
:1054800084E00E947216882311F40C9457218091B5
:105490009401853009F472C0873009F4F0C084307B
:1054A00011F00C94572180918601813009F45DC080
:1054B0008CF4882309F443C08BE0809394012092FC
:1054C00069010C94572184E0809394012092860115
:1054D0000C945721823009F44FC0833069F789E07A
:1054E000809394011092210680E88093220688E040
:1054F0008093230688E38093240680918A0190910B
:105500008B01A0918C01B0918D0180936E019093DD
:105510006F01A0937001B093710180918E01909101
:105520008F01A0919001B091910180936A019093B5
:105530006B01A0936C01B0936D010C9457212092E4
:10554000940180E58093210680E8809322061092E2
:10555000230680E48093240610921C0682E0809348
:105560001B0610921D060C9457211092860185E0AF
:10557000809394010C94572188E0FACF80918601A2
:10558000813019F1823009F452C0811178C082E073
:105590008093940110928501109289010E948518D0
:1055A00080E58093210680E88093220610922306EE
:1055B00088E38093240610921F0610921E06209204
:1055C000200610921C0684E0CACF83E080939401E9
:1055D00060912506709126068091270690912806F5
:1055E000611571058105910511F00E9455311092E8
:1055F0008501109289010E94851880E5809321061B
:1056000080E88093220688E08093230688E38093D5
:1056100024060E94C41A10927A011092790182E045
:1056200080931F0610921E0610922006CACF80910A
:10563000250690912606A0912706B0912806809312
:10564000650190936601A0936701B09368010E9481
:1056500006312EEF3FEF4FE050E00E9474316F5F54
:105660007F4F8F4F9F4F60936101709362018093D2
:105670006301909364011092860186E079CF809156
:105680008601882309F4E9CE813011F00C9457216A
:1056900084E06ECF0E94910EB3E0AB2EA09238064C
:1056A000A092390610923A0686E690E10E949A1975
:1056B0002FE24FE768E070E090E080E00E94B816CB
:1056C000A0923806A09239068BE080933A0681E5D5
:1056D00090E10E949A198091AC018A3020F48FE405
:1056E00090E10E949A198091AC010E94691A8DE4A0
:1056F00090E10E949A198091AD018A3020F48BE4E8
:1057000090E10E949A198091AD010E94691A88E483
:1057100090E10E949A196091AE017091AF01809161
:10572000B0019091B1010E943C1A85E490E10E9481
:105730002E1A83E390E10E949A198091B201909110
:10574000B3010E949C1A80E390E10E949A19609133
:10575000B4017091B5018091B6019091B7010E949A
:105760003C1A8EE290E10E949A1983E080933806F9
:105770008093390689E380933A0687E290E10E949C
:105780009A1988E00E947216882309F4E1CD84E01A
:1057900080939401DDCD0E94910E20918E01309175
:1057A0008F014091900150919101232F342F452F6B
:1057B000552747FD5A9560918A0170918B01809120
:1057C0008C0190918D01672F782F892F992787FD64
:1057D0009A950E945D0F6091230680912106209189
:1057E0002406261B40912206481B70E090E00E9490
:1057F000B816109238061092390610923A0681E2D5
:1058000090E10E949A196091250670912606809178
:105810002706909128060E943C1A8FE190E10E9491
:105820009A1960918A0170918B0180918C019091FD
:105830008D017C5F8F4F9F4FFBE095958795779506
:105840006795FA95D1F70E94701A8DE190E10E9458
:105850009A1960918E0170918F01809190019091C1
:1058600091017C5F8F4F9F4FABE095958795779522
:105870006795AA95D1F70E94701A10923806109277
:10588000390689E380933A068AE090E10E949A19EA
:1058900080917B0190917C018F709927089710F57A
:1058A0008091240690912306890F9927991FBC01A6
:1058B0006850710977FF02C06F5F7F4F75956795DC
:1058C0002091220680912106280F3327331FC9011A
:1058D000089797FD019621E044EF51E19595879552
:1058E0000E94AD150E94881680E20E947D168823D2
:1058F00099F080918A0190918B01A0918C01B091D7
:105900008D019250A109B10980938A0190938B0176
:10591000A0938C01B0938D0180E40E947D168823B2
:1059200099F080918A0190918B01A0918C01B091A6
:105930008D019E5FAF4FBF4F80938A0190938B0183
:10594000A0938C01B0938D0180E80E947D1688237E
:1059500099F080918E0190918F01A0919001B0916A
:1059600091019250A109B10980938E0190938F010A
:10597000A0939001B093910180E10E947D1688234D
:1059800099F080918E0190918F01A0919001B0913A
:1059900091019E5FAF4FBF4F80938E0190938F0117
:1059A000A0939001B093910184E00E947216882325
:1059B00049F18091250690912606A0912706B09185
:1059C00028068093650190936601A0936701B093C8
:1059D00068010E9406312EEF3FEF4FE050E00E9439
:1059E00074316F5F7F4F8F4F9F4F60936101709352
:1059F00062018093630190936401109286018AE0B2
:105A00008093940188E00E947216882311F40C940C
:105A1000572180916E0190916F01A0917001B0911A
:105A2000710180938A0190938B01A0938C01B093B4
:105A30008D0180916A0190916B01A0916C01B091F0
:105A40006D0180938E0190938F01A0939001B0938C
:105A500091011ECE0E94910E1092380610923906C6
:105A600010923A0684E090E10E949A19609125060E
:105A70007091260680912706909128060E943C1A74
:105A800088EF9FE00E949A19609161017091620114
:105A900080916301909164010E943C1A89EE9FE01D
:105AA0000E949A196091AE017091AF018091B0018E
:105AB0009091B1010E943C1A8AED9FE00E949A19D0
:105AC0006091B4017091B5018091B6019091B701D8
:105AD0000E943C1A8EEC9FE00E949A196091650129
