:100000000C947B0B0C94A30B0C94A30B0C94A30BE0
:100010000C94A30B0C94A30B0C94A30B0C94A30BA8
:100020000C94A30B0C94A30B0C943A120C94A912ED
:100030000C94A30B0C94A30B0C94A30B0C94A30B88
:100040000C94A30B0C94A30B0C94A30B0C94A30B78
:100050000C94A30B0C94A30B0C94A30B0C94DB1427
:100060000C94A30B0C94A30B0C94A30B0C94A30B58
:100070000C94A30B0C94A30B0C94A30B0C94A30B48
:100080000C9425150C94A30B0C94A30B0C94A30BAC
:100090000C94A30B0C94A30B0C94A30B0C94A30B28
:1000A0000C94A30B0C94A30B0C94A30BFFFFFF7FEA
:1000B0003F1F8FC7C78F1F3F7FFFFFFFE3F1F8FC94
:1000C000FEFFFFFFFFFFFFFEFCF8F1E3FFFFFF7FF6
:1000D0003F1F8FC7E3F1F8FCFEFFFFFFFFFFFFFEAE
:1000E000FCF8F1E3C78F1F3F7FFFFFFF0000000018
:1000F000003E5B4F5B3E3E6B4F6B3E1C3E7C3E1CAE
:10010000183C7E3C181C577D571C1C5E7F5E1C00F3
:10011000183C1800FFE7C3E7FF0018241800FFE7AA
:10012000DBE7FF30483A060E2629792926407F056D
:100130000507407F05253F5A3CE73C5A7F3E1C1C83
:1001400008081C1C3E7F14227F22145F5F005F5F43
:1001500006097F017F006689956A6060606060942F
:10016000A2FFA29408047E040810207E2010080834
:100170002A1C08081C2A08081E101010100C1E0C3F
:100180001E0C30383E3830060E3E0E0600000000D1
:100190000000005F00000007000700147F147F14B8
:1001A000242A7F2A122313086462364956205000FD
:1001B00008070300001C2241000041221C002A1CE9
:1001C0007F1C2A08083E08080080703000080808D4
:1001D0000808000060600020100804023E514945F4
:1001E0003E00427F400072494949462141494D3312
:1001F0001814127F1027454545393C4A4949314179
:10020000211109073649494936464949291E000046
:10021000140000004034000000081422411414149B
:100220001414004122140802015909063E415D5987
:100230004E7C1211127C7F494949363E4141412290
:100240007F4141413E7F494949417F090909013EBA
:10025000414151737F0808087F00417F41002040E1
:10026000413F017F081422417F404040407F021CF3
:10027000027F7F0408107F3E4141413E7F0909090A
:10028000063E4151215E7F091929462649494932D6
:1002900003017F01033F4040403F1F2040201F3F9C
:1002A0004038403F63140814630304780403615921
:1002B000494D43007F414141020408102000414163
:1002C000417F04020102044040404040000307080F
:1002D0000020545478407F2844443838444444280B
:1002E000384444287F385454541800087E090218B2
:1002F000A4A49C787F0804047800447D400020403A
:10030000403D007F1028440000417F40007C04787D
:1003100004787C080404783844444438FC182424C5
:100320001818242418FC7C08040408485454542445
:1003300004043F44243C4040207C1C2040201C3CC2
:100340004030403C44281028444C9090907C4464B9
:10035000544C44000836410000007700000041364C
:10036000080002010204023C2623263C1EA1A161D2
:10037000123A4040207A3854545559215555794104
:100380002154547841215554784020545579400CDB
:100390001E527212395555555939545454593955BC
:1003A0005454580000457C410002457D42000145FF
:1003B0007C40F0292429F0F0282528F07C5455456C
:1003C000002054547C547C0A097F493249494932FF
:1003D0003248484832324A4848303A4141217A3A14
:1003E00042402078009DA0A07D39444444393D40DE
:1003F00040403D3C24FF2424487E4943662B2FFC8B
:100400002F2BFF0929F620C0887E09032054547938
:10041000410000447D413048484A32384040227A09
:10042000007A0A0A727D0D19317D2629292F282686
:100430002929292630484D4020380808080808088E
:100440000808382F10C8ACBA2F102834FA00007BE7
:10045000000008142A142222142A140895002200ED
:1004600095AA005500AAAA55AA55AA000000FF00A7
:10047000101010FF00141414FF001010FF00FF10E4
:1004800010F010F0141414FC001414F700FF000016
:10049000FF00FF1414F404FC141417101F10101F95
:1004A000101F1414141F00101010F0000000001F83
:1004B000101010101F10101010F010000000FF108E
:1004C0001010101010101010FF10000000FF14008A
:1004D00000FF00FF00001F10170000FC04F41414BC
:1004E0001710171414F404F40000FF00F714141488
:1004F00014141414F700F7141414171410101F1008
:100500001F141414F4141010F010F000001F101F2A
:100510000000001F14000000FC140000F010F01098
:1005200010FF10FF141414FF141010101F0000000F
:1005300000F010FFFFFFFFFFF0F0F0F0F0FFFFFF13
:100540000000000000FFFF0F0F0F0F0F384444386A
:10055000447C2A2A3E147E02020606027E027E02A5
:1005600063554941633844443C04407E201E2006C4
:10057000027E020299A5E7A5991C2A492A1C4C7201
:1005800001724C304A4D4D303048784830BC625A88
:10059000463D3E494949007E0101017E2A2A2A2A18
:1005A0002A44445F444440514A444040444A5140F4
:1005B0000000FF0103E080FF000008086B6B0836B5
:1005C00012362436060F090F060000181800000026
:1005D0001010003040FF0101001F01011E00191D15
:1005E0001712003C3C3C3C0000000000F0F89C8EE0
:1005F0008783878E9CF8F00000FEFF03030303034C
:10060000070EFCF80000FEFF0303030303070EFCC4
:10061000F80000FFFF00000000000000FFFF0000E6
:10062000FEFF8383838383C7EE7C380000F8FC0ED3
:1006300007030303070EFCF800003F7FE0C0808043
:10064000C0E07F3FFFFF01010101010101FFFF0049
:1006500000FFFF0C0C0C0C1C3E77E3C100007FFF79
:10066000C0C0C0C0C0E0703F1F00001F3F70E0C0AE
:10067000C0C0E0703F1F00007FFFC1C1C1C1C1E326
:10068000773E1C00001F3F70E0C0C0C0E0703F1FFD
:10069000000000000001FFFF01000000D5F08D14F4
:1006A000A1C881CFD9F1AF20000000FCFC0C0C0CDC
:1006B0000C0C0CFCFC0000FFFFFFC3C33333F0F055
:1006C000FFFF3F3FF3F33030F3F3FFFFC0C03F3F86
:1006D0003C3CCFCFFFFFFF0000FCFC0C0C0C0C0CD3
:1006E0000CFCFC0000C0C0CFCFCCCCCCCCCCCCCF51
:1006F000CFC0C0FFFFFF0000FCFC00003F3FC0C0B8
:10070000F0F00000F0F003033F3F0C0CF3F3CFCF09
:10071000FFFFFFC0C0CFCFCCCCCCCCCCCCCFCFC098
:10072000C079798181FFFFE1E11F1F87879999795E
:100730007979FEFE67677E7E00000101616198980D
:100740007F7F0606E6E600001F1FE7E79F9F9FE109
:10075000E1F9F91919878719191919E7E7808087CD
:10076000879999E7E71E1E81819999E0E0E00101F0
:10077000FEFE18180000FEFE787887877878E0E0A3
:1007800061618080E0E0010161616119199F9F9EB4
:100790009E19199E9E181899999F9FE1E19F9FF9B4
:1007A000F9FEFE999999990707071818F9F99E9E7D
:1007B0009E9E01019E9E67677E7E878778780101F5
:1007C000FFFF6060060606E6E601011F1FE6E6FF82
:1007D000FF1818070739393F3F39393F3F39393F4B
:1007E0003F3939F8F8F8060639390707C7C7FEFE5A
:1007F000C1C10000FEFEC7C73E3EF8F8C1C10000FF
:10080000F8F8F83939F8F80000FFFFC1C10606C64C
:10081000C60000FFFF030303030303FFFF0000FF05
:10082000FFFFCFCFC0C0FCFCCFCF0303C0C0CCCCF8
:10083000F3F3F0F0CFCF0C0C0F0F0000F3F3F3C382
:10084000C3C3C300000C0C0C0CCFCF3C3C00000316
:1008500003030303030303030300000F0F0F000050
:100860000F0F030303030000000000000C0C0F0F28
:1008700000000C0C0C0C000000000003030303003C
:100880000003030F0F00000F0F0000FCFC0C0C0C0A
:100890000C0C0C0C0C0C0C8C0C0C0C0C0C0C0C0C18
:1008A0000C0C0C0C0C2C4C0C0C0C0C0C0C0C0C0C28
:1008B0002C0C0C0C0C0C0C0C0C0C0C4C2C0C0C0CF8
:1008C0000C0C0C0C0C8C0C0C0C0C0C0C0C0C0C0CE8
:1008D0000C0C0C0C0C0C0C0C0C0C0C8C4C4C2C1C28
:1008E0000CCC4C4C4C6C2C2C2C0C0C0C0C0C0C0C08
:1008F0000C0C6CCC8C0CCC0C0C0C0C1C6C8C0C0CE8
:100900000C0C0C0C0CFCFC00000000FFFF000000B5
:1009100000000000000000000102040800000000C8
:1009200000000000001E1EF0F01E1E00FEFEC6FEAF
:10093000FE007EFEC0FE7E00000000000000000001
:100940000008040201000000000000000000000098
:10095000000000000000000000E0FF7E0606868622
:100960004666060606060606266646C68686060607
:1009700006060606060686FFFE70C0C0C0C1F6F871
:10098000C000000000FFFF00000000FFFF000000AB
:100990000200020002000200000000FC0C183018E7
:1009A0000CFC00FC242404003C2424E4003C24240B
:1009B000E400FC24240400FC040404F8000000FC0F
:1009C000000000FC00FC24243C00000002000200A7
:1009D000020002000000C0F0FEFF1F0001818383BF
:1009E00080C8D8DCC0C0C0C08080808087870101FB
:1009F0000101000080F0FFFFFFF803030303030180
:100A00000000000000FFFF00000000FFFFC0C0C0AA
:100A1000C0C0C0C0C0C0C0D0C8C4C0C1C0C0C0C0B9
:100A2000C0C1C0C1D1C9C1C0C1C1C1C1C0C1C1C1A2
:100A3000D9C0C1C1C1C1C0C1C1C1C1C0C0C8D0C07D
:100A4000C1C1C1C0C0C1C0C0C0C0C2C4C8D0C0C084
:100A5000C0C0C0C0C0C0C0C38F7FFFFFFFFFFF3F4B
:100A60009FCFEFEFEFEFCF9FBF3F7FFFFFFFFFFF76
:100A7000FEFEFCFEFFFF7F8FC7C1C0C0C0C0C0C06C
:100A8000C0C0C0C0C0FFFF000000000000000000A8
:100A90000000000000000000000000000000000056
:100AA0000000000000000000000000000000000046
:100AB0000000000000000000000000000000000036
:100AC0000000000000000000000000000000000026
:100AD0000000000000000000000000030F3FFFFFC7
:100AE000FFFFFFFFFFFFFFFFFFFF7F3F3F1F1F0FC6
:100AF0000F070703010000000000000000000000D5
:100B000000000000000000000000000000000000E5
:100B100000000000000000000000000000000000D5
:100B200000000000000000000000000000000000C5
:100B300000000000000000000000000000000000B5
:100B400000000000000000000000000000000000A5
:100B50000000000000000000000000000000000194
:100B60000303070703030101000000000000000069
:100B70000000000000000000000000000000000075
:100B80000000000000000000000000000000000065
:100B90000000000000000000000000000000000055
:100BA0000000000000000000000000000000000045
:100BB0000000000000000000000000000000000035
:100BC0000000000000000000000000000000000025
:100BD0000000000000000000000000000000000015
:100BE0000000000000000000000000000000000005
:100BF00000000000000000000000000000000000F5
:100C000000000000000000000000000000000000E4
:100C100000000000000000000000000000000000D4
:100C200000000000000000000000000000000000C4
:100C300000000000000000000000000000000000B4
:100C400000000000000000000000000000000000A4
:100C50000000000000000000000000000000000094
:100C60000000000000000000000000000000000084
:100C70000000000000000000000000000000000074
:100C80000000000000000000000000FF7E3C180093
:100C9000000000183C7EFF00000000000000000083
:100CA0000000000000000000000000000000000044
:100CB000000000000080C0E0F0F8FCF8F0F0FEFE5C
:100CC000FEFEFEFEFEF0F0F8FCF8F0E0C080000052
:100CD0000000000000000000000000000000000014
:100CE0000000000000000000000000000000000004
:100CF00000000000000000000000000000000000F4
:100D000000000000000000000000000000000000E3
:100D100000000000000000000000C0C0C0C0C0C053
:100D2000C0C0C0C0C0C0F8FCFCF8DEDEFEDEDEF8ED
:100D3000FCFCF8C0F8F8F9FFFFFFFFFFFFCFE7D397
:100D4000CBCBCBD3E7CFFFFFFFFFFFFFF9F8F8C016
:100D5000C0C0C0C0C0C00000000000000000000013
:100D60000000000000000000000000000000000083
:100D70000000000000000000000000000000000073
:100D80000000000000000000000000000000000063
:100D900000000000000000000000033FFCC0000055
:100DA0003078484848D89000F0F8888888F8F000F3
:100DB000F8F83060F8F8001818F8F8181800F0F88B
:100DC000888888F8F0000E0E003078484848D8909F
:100DD0000000C0FC9F838080808080808080808035
:100DE0008080808080800000000000000000000003
:100DF000000000000000804030300C221D0D0D0D61
:100E0000110D0D0D0D1121212F2F122CD01010209E
:100E1000C00000000000000000000000033F3C3064
:100E200031B3F272120381E07B5B5858181BC3F098
:100E30007B4B48C8FB3300C0701B0B08080803033A
:100E400088E8781B0B0880E078190B8AEA7A1B8106
:100E5000E078D949496919016179D9C141713909E4
:100E6000C1E1311D0F030000000000000000000080
:100E700000000000000087FEFEFE7E060676760675
:100E800086060606767606063E3EFEFEC782827C13
:100E9000497E000000000000000000000030383EE5
:100EA000373130303032333030303030303333302F
:100EB000303033333030303332323232303030321F
:100EC0003331303030323333323232333130323307
:100ED000313030313230303030333330303C0E034B
:100EE0000100000000000000000000000000000001
:100EF0000000000000000FFFFFFFF0F8FC9C3C7DAD
:100F00007D7C3C9CFCF8F8F8F8F8FFFFFF1F1F0001
:100F100000000000000000000000000000000000D1
:100F200000000000000000000000000000000000C1
:100F300000000000000000000000000000000000B1
:100F400000000000000000000000000000000000A1
:100F50000000000000000000000000000000000091
:100F60000000000000000000000000000000000081
:100F700000000000000000F81D1D0587030707E7BB
:100F80001FBFBFBF1F1FE70703030505041C1C3855
:100F90006080000000000000000000000000000071
:100FA0000000000000000000000000000000000041
:100FB0000000000000000000000000000000000031
:100FC0000000000000000000000000000000000021
:100FD0000000000000000000000000000000000011
:100FE0000000000000000000000000000000000001
:100FF000000000000000E07F00001E03000000FF72
:1010000000BBBBBB0000FF00000000030F7070E0DE
:1010100000077C7CE00000000000000000000000F1
:1010200000000000000000000000000000000000C0
:1010300000000000000000000000000000000000B0
:1010400000000000000000000000000000000000A0
:101050000000000000000000000000000000000090
:101060000000000000000000000000000000000080
:1010700000000000009C7F3E3E3E7C7C7C7CFC4768
:1010800044454545FC7E7F7C7C7C3E3E1E1E1EFF0B
:101090001E3030305F4C300000F8A9ABFEFEAAAB2A
:1010A000F903FFFF0F1B3363C38303030303FFFF36
:1010B0000300FFFFC0800000000103060C18FFFFC3
:1010C0000000FFFF000103060C183060C080FFFF26
:1010D0000000FFFF0C183060C08000000001FFFF1F
:1010E0000000FFFFC0800000000103060C18FFFF96
:1010F0000000FFFF000103060C183060C080FFFFF6
:101100000000FFFF0C183060C08000000001FFFFEE
:101110000000FFFF00000000000103060C18FFFFA5
:1011200000FFFF83114084F0FAF004002103FFFF69
:10113000FFFFFFFFFFFFFFFFFFFF00410800FFFF72
:10114000FFFFFF0301E4C48E1E1E8EC4E40103FFF3
:10115000FFFFFFC0801C3871000071381C80C0FF89
:10116000FF072371F8FCF8F1E3F3F9FCFCF87123B5
:1011700007FEFCF8F0E1C3870F0F87C3E1F0F8FC2E
:10118000FE000E0EFE3E7EFEFEFEEECE8EFE0E0E2D
:1011900000000000FFFCF8F0E1C3870F1FFF000014
:1011A00000000000FFF0E1C3870F1F3F7EFF00003B
:1011B00000000000FFC3870F1F3F7EFCF8FF000008
:1011C00000FFFF83114084F0FAF004002103FFFFC9
:1011D000FFFFFFFFFFFFFFFFFFFF00410800FFFFD2
:1011E000FFFFFF0301E4C48E1E1E8EC4E40103FF53
:1011F000FFFFFFC0801C3871000071381C80C0FFE9
:10120000FF072371F8FCF8F1E3F3F9FCFCF8712314
:1012100007FEFCF8F0E1C3870F0F87C3E1F0F8FC8D
:10122000FEFFFF83114084F0FAF004002103FFFF6A
:10123000FFFFFFFFFFFFFFFFFFFF00410800FFFF71
:10124000FFFFFF0301E4C48E1E1E8EC4E40103FFF2
:10125000FFFFFFC0801C3871000071381C80C0FF88
:10126000FF072371F8FCF8F1E3F3F9FCFCF87123B4
:1012700007FEFCF8F0E1C3870F0F87C3E1F0F8FC2D
:10128000FE00000000000000000000000000000060
:10129000000000000000000000000000000000004E
:1012A000000000000000000000000000000000003E
:1012B00000000000008080C0C0602030309090901E
:1012C000909090909010103060C0808000000000DE
:1012D000000000000000000000000000000000000E
:1012E00000000000000000000000000000000000FE
:1012F00000000000000000000000000000000000EE
:1013000000000000000000000000000000000000DD
:1013100000000000000000000000000000000000CD
:1013200000000000000000000000000000000000BD
:1013300000F01C0643A15000F80C062311C9C8C8D0
:10134000000000C8C9C913260CF800030EF0000005
:10135000000000000000000000000000000000008D
:10136000000000000000000000000000000000007D
:10137000000000000000000000000000000000006D
:10138000000000000000000000000000000000005D
:10139000000000000000000000000000000000004D
:1013A000000000000000000000000000000000003D
:1013B00000011FF0810221F02366CC98F00101E1C9
:1013C000080CE00101F198CC466330180C070000CE
:1013D000000000000000000000000000000000000D
:1013E00000000000000000000000000000000000FD
:1013F00000000000000000000000000000000000ED
:1014000000000000000000000000000000000000DC
:1014100000000000000000000000000000000000CC
:1014200000000000000000000000000000000000BC
:101430000000000001030101000000000704040790
:10144000040407040407000000000000000000007E
:10145000000000000000000000000000000000008C
:10146000000000000000000000000000000000007C
:10147000000000000000000000000000000000006C
:10148000000000000000000000000000000000005C
:10149000000000000000000000FF01017949090977
:1014A000FF0000FF0101951111FF0000CF497901F4
:1014B000017949CF0000FF0103E644E60301FF0084
:1014C000000000FF0101C14941417F0000FF01010F
:1014D000951111FF0000FF010179790101FF000062
:1014E000FF4141490909FF00000000000000000021
:1014F00000000000000000000000000000000000EC
:1015000000000000000000000000000000000000DB
:1015100000000000000000000003020202020202BC
:10152000030000030202030202030000030202029E
:10153000020202030000030202030003020203008E
:10154000000000030202030000000000000302028A
:10155000030202030000030202020202020300006F
:10156000030202020202030000000000000000006B
:10157000000000000000000000000000000000006B
:10158000000000000000000000000000000000005B
:10159000000000000000000000000000000000004B
:1015A000000000000000000000000000000000003B
:1015B000000000000000000000000000000000002B
:1015C000000000000000000000000000000000001B
:1015D000000000000000000000000000000000000B
:1015E00000000000000000000000000000000000FB
:1015F00000000000000000000000000000000000EB
:1016000000000000000000000000000000000000DA
:1016100000000000000000000000000000000000CA
:1016200000000000000000000000000000000000BA
:1016300000000000000000000000000000000000AA
:10164000000000000000000000000000000000009A
:10165000000000000000000000000000000000008A
:10166000000000000000000000000000000000007A
:10167000000000000000000000000000000000006A
:1016800000080B000202020000090400000102022F
:1016900000000524001001052401010104240206B4
:1016A000052406000107058103100040090401001C
:1016B000020A00000007050202400000070583023D
:1016C0004000000403090412010002EF020140413E
:1016D00023378000010102030141726475696E6F56
:1016E000204C4C430041726475696E6F204D6963F4
:1016F000726F00005A1611241FBECFEFDAE0DEBF72
:10170000CDBF11E0A0E0B1E0E2E8FFE302C0059048
:101710000D92AC36B107D9F726E0ACE6B1E001C0D6
:101720001D92AC33B207E1F71BE0CBE7DBE004C06E
:101730002197FE010E94801ECA37D107C9F70E9477
:1017400087160C94BF1F0C940000809178010895B7
:101750002F923F924F925F926F927F928F929F92C1
:10176000AF92BF92CF92DF92EF92FF920F931F93AF
:10177000CF93DF93A22EB12C9501280F391F12169B
:1017800013060CF09DC0803891050CF099C09B01A8
:10179000200F311D121613060CF092C06034710533
:1017A0000CF08EC09B0177FF04C022273327261B35
:1017B000370B27703327DB0177FD1796E3E0B595EC
:1017C000A795EA95E1F777FF07C0119768E070E009
:1017D000FB01E21BF30B9F01E02EE694E694E694F6
:1017E000F12C077019F0FFEFEF1AFF0A8A01AD0123
:1017F0005695542F442757954795480F591F4C52DB
:101800005E4FBD01E8E0F0E02F01421A530A6F3F3E
:10181000EFEF7E070CF444C06C01D0E0C0E03A0169
:10182000E0E86E0E711CD7FC2FC06F3F760709F4FD
:101830005AC0F801EC0FFD1FE4914A018C0E9D1E69
:10184000F0E01F01022E01C0220C0A94EAF7F40115
:1018500030802328208221153105B1F067307105D1
:1018600099F0F801EC0FFD1FE49143018C0E9D1ED1
:10187000F0E01F01042C02C0359427940A94E2F78B
:10188000F4013080232820822196FFEFCF1ADF0A4F
:10189000CA15DB052CF4F0E8CF16D10409F0C3CF4C
:1018A0006F5F7F4F0A0D1B1D40585F4FFB01EA1B06
:1018B000FB0BEE15FF0524F46830710509F0A7CF86
:1018C000DF91CF911F910F91FF90EF90DF90CF901C
:1018D000BF90AF909F908F907F906F905F904F9050
:1018E0003F902F9008952115310509F0BACFCCCF44
:1018F000E4EDF1E0A0E0B8E000800EBC8111012C25
:101900001197A0FDFDCF0192B9F70DB40895FC0128
:101910008091D301882311F13FB7F89482E080933E
:10192000E9002091F200822F90E01816190614F4B5
:1019300081E090E0882339F0289A44E64093D20170
:101940004091F1004083222339F02091F2002111CF
:1019500003C02BE62093E8003FBF08958FEF9FEF71
:1019600008952FB7F89483E08093E9009091E80000
:10197000892F807295FF04C09091F20080E4891B4A
:101980002FBF08958091CA0181110DC082E080931C
:10199000C60184E08093C7011092C9011092C8016A
:1019A00081E08093CA0186EC91E00895CF93DF93A4
:1019B0001F92CDB7DEB76983DC01ED91FC91028007
:1019C000F381E02D41E050E0BE016F5F7F4F09954C
:1019D0000F90DF91CF91089583E08093E90080918B
:1019E000F200882319F08AE38093E80008950E94AA
:1019F000B10C90E00895CF93DF931F92CDB7DEB77F
:101A0000FC018485958597FD08C02FEF3FEF358752
:101A100024870F90DF91CF910895CE0101960E9407
:101A2000870C019719F4898190E0F3CF8FEF9FEF36
:101A3000F0CF0F931F93CF93DF931F92CDB7DEB7F5
:101A40008C01FC018485958597FF0BC0CE01019622
:101A50000E94870C019771F4898190E0F8019587C5
:101A60008487F801848595850F90DF91CF911F9130
:101A70000F9108958FEF9FEFF1CFFC01848595853D
:101A800097FD0BC09FB7F89482E08093E9008091A6
:101A9000F2009FBF90E0019608959FB7F89482E00E
:101AA0008093E9008091F2009FBF90E008954091FB
:101AB000C0015091C1012091BE013091BF01421778
:101AC0005307B4F49091E8009570E1F39091E80029
:101AD00092FD19C08093F1008091C0019091C101E5
:101AE00001968F739927892B19F48EEF8093E80064
:101AF0008091C0019091C10101969093C1018093A2
:101B0000C00181E0089580E00895DF92EF92FF9296
:101B10000F931F93CF93DF93D82E8A01EB017B01A4
:101B2000E40EF51ECE15DF0559F0D7FE12C0FE01FA
:101B300084910E94570D21968111F4CF0FEF1FEF72
:101B4000C801DF91CF911F910F91FF90EF90DF902F
:101B500008958881EECF0F931F93CF93DF931F9249
:101B6000CDB7DEB782E0898342E450E061E876E1F8
:101B700080E80E94850D0E94C20CDC0112960D9136
:101B80001C910115110589F0D801ED91FC9102809D
:101B9000F381E02DBE016F5F7F4FC801099597FD6E
:101BA00004C0F80100851185ECCF89810F90DF9189
:101BB000CF911F910F910895615030F02091F10065
:101BC000FC0120830196F8CF289A84E68093D20105
:101BD00008953FB7F8948091BA019091BB01A0910C
:101BE000BC01B091BD0126B5A89B05C02F3F19F0DF
:101BF0000196A11DB11D3FBFBA2FA92F982F88278D
:101C0000BC01CD01620F711D811D911D42E0660F67
:101C1000771F881F991F4A95D1F708958F929F9239
:101C2000AF92BF92CF92DF92EF92FF926B017C0155
:101C30000E94E90D4B015C01C114D104E104F104DF
:101C4000B9F00E94E90D681979098A099B09683E73
:101C500073408105910580F321E0C21AD108E108A3
:101C6000F10888EE880E83E0981EA11CB11CE4CF19
:101C7000FF90EF90DF90CF90BF90AF909F908F90AC
:101C800008958F929F92AF92BF92CF92DF92EF9280
:101C9000FF920F931F93CF93DF936C017B018A0117
:101CA00080911001882309F45CC08091D3018823BE
:101CB00009F457C08091C50180FF05C08091E00004
:101CC00082608093E000E801B12C8AEFA82E93E0B7
:101CD000892E2AE3922E209711F4BB20D9F10E947D
:101CE000B10C81110AC0AA94AA20D9F161E070E078
:101CF00080E090E00E940E0EEECF8C171D0611F0D2
:101D00000CF08C2F9FB7F8948092E9002091E800A6
:101D100025FD02C09FBFDFCF282F30E0C21BD30BB1
:101D2000F701815020F041914093F100FACFE20E8B
:101D3000F31EBB2021F09092E800B12CEBCF8091F4
:101D4000E80085FDE7CF9092E800BB24B39420978C
:101D500009F3F3CF5D9A84E68093C401101611064F
:101D60003CF081E090E0F6019383828310E000E094
:101D7000C801DF91CF911F910F91FF90EF90DF90FD
:101D8000CF90BF90AF909F908F900895AF92BF92E9
:101D9000CF92DF92EF92FF920F931F93CF93DF9337
:101DA0006C017B018B01040F151FEB015E01AE1866
:101DB000BF08C017D10759F06991D601ED91FC9188
:101DC0000190F081E02DC6010995892B79F7C501B5
:101DD000DF91CF911F910F91FF90EF90DF90CF9007
:101DE000BF90AF90089520916C01E0916F01F09148
:101DF0007001CF0102969093700180936F012223AE
:101E000019F08591949108958081918108952D9A7A
:101E10000895BC0190E080E00C940E0E8FB1809587
:101E2000807F669B88601C9B8460089520E191E020
:101E300061FD94E060FD990F62FD9295687F269F99
:101E4000D0011124A80FAC52BE4F8C9140FF03C0AB
:101E5000892B8C93089590958923FBCF8F929F9225
:101E6000AF92BF92CF92DF92EF92FF920F931F93A8
:101E7000CF93DF936D3089F0C090B101D090B20163
:101E80006A30D1F41092B0011092AF0188E0C80E10
:101E9000D11CD092B201C092B10181E090E0DF91FB
:101EA000CF911F910F91FF90EF90DF90CF90BF9057
:101EB000AF909F908F9008950091AF011091B00165
:101EC000E5E06E9FE0011124C451DF4F5801F12C71
:101ED000F5E0E12CFF1629F0CE010196FE01E49019
:101EE000EC01912C812CF0E8AF16B10458F4B60146
:101EF000680D791D6034710528F44E2D4170C501BF
:101F00000E94160FE6948FEF881A980AE8E08E1662
:101F1000910449F7F394FFEFAF1ABF0A86E0F81275
:101F2000D7CF0A5F1F4F1093B0010093AF01B5CF19
:101F30009091AD01982329F49091AE01982381E00E
:101F400009F480E0089580E00C94780C8F929F92C1
:101F5000AF92BF92CF92DF92EF92FF920F93CF9307
:101F6000DF935B01EC014C01840E911C6B01C20EEE
:101F7000D11CC815D905ECF47501B7FE02C0F12CCF
:101F8000E12CC60121E4C216D10414F080E490E0F3
:101F9000E816F90664F4C038D10528F4402FB701DB
:101FA000CE010E94160F8FEFE81AF80AEACF2196A9
:101FB000E0CFDF91CF910F91FF90EF90DF90CF9026
:101FC000BF90AF909F908F900895089590E080E02B
:101FD00008950F93CF93DF93EC016C817D818C8505
:101FE0009D85680F791FEA81FB818A859B8500E0CA
:101FF00020E140E18E0F9F1F0E94A60F488959895A
:102000006C817D818C859D85680F791FEA81FB81BC
:102010008A859B8500E120E18E0F9F1F0E94A80BFF
:102020008A859B852E813F81820F931F9B878A879C
:102030002C853D8548855985240F351F3D872C8784
:10204000820F931F97FF03C09195819591092E856B
:102050003F858217930724F01B861A861D861C86EF
:10206000DF91CF910F9108958F929F92AF92BF927F
:102070000F931F93CF93DF93CDB7DEB7A1970FB622
:10208000F894DEBF0FBECDBF19A2423008F44AE07B
:102090008E010F5D1F4F842E912CB12CA12CA50118
:1020A00094010E943B1EE62FB901CA01EA3044F5B3
:1020B000E05DD801EE938D01232B242B252B79F79E
:1020C00090E080E0109769F0FD0101900020E9F7B1
:1020D0003197AF014A1B5B0BBD0184E396E00E9480
:1020E000C60EA1960FB6F894DEBF0FBECDBFDF912E
:1020F000CF911F910F91BF90AF909F908F900895B7
:10210000E95CD7CFFC0101900020E9F73197AF01DE
:10211000481B590BBC0184E396E00C94C60ECF9289
:10212000DF92EF92FF92CF93DF936C01990FEE084D
:10213000FF08F7FE19C06DE284E396E00E942E0FBF
:10214000EC0166277727CB016C197D098E099F0961
:102150004AE00E9434108C0F9D1FDF91CF91FF90B9
:10216000EF90DF90CF9008954AE0C701B601DF916C
:10217000CF91FF90EF90DF90CF900C9434102F927E
:102180003F924F925F926F927F928F929F92AF9207
:10219000BF92CF92DF92EF92FF920F931F93CF9354
:1021A000DF932C01A1EAEA2EA1E0FA2E00E810E06C
:1021B000B4E3CB2EB6E0DB2ECAE26C2E712C2224C7
:1021C0002A94322C83E0882E912CA12CB12C8FE004
:1021D00090E00E949A1EEC011C861B86D886CF8256
:1021E0005E864D861A8309837C826B823A862986B5
:1021F00018820E949B1DA50194010E94091E7E83E6
:102200006D83D701CD93DD937D01085E1F4F0031B3
:10221000B1E01B07E1F659E9A52E51E0B52E04E126
:1022200010E0C4E3D6E06AE2C62ED12CEE24EA9494
:10223000FE2CE8E28E2E912CFCEC6F2EF0E07F2E2F
:1022400082E190E00E949A1EFC011186108613869E
:10225000128615861486D183C08313830283D582A8
:10226000C482F782E68297868686718A608AD50163
:102270008D939D935D01085D1F4F043B110501F790
:1022800082E190E00E949A1EFC011782168213865A
:10229000128615861486D183C08387E0882E912C00
:1022A0009382828295E0A92EB12CB582A482F18618
:1022B000E08600E210E0178706872CEAC22E20E0B5
:1022C000D22ED18AC08AF0939601E093950182E1E3
:1022D00090E00E949A1EFC011782168213861286D5
:1022E00015861486D183C0839382828235E2832E41
:1022F000912C95828482F186E08617870687D18AA1
:10230000C08A909398018093970182E190E00E94A7
:102310009A1EFC0117821682138612861586148671
:10232000D183C08313830283B582A482F186E086C1
:1023300017870687D18AC08A909392018093910172
:1023400082E190E00E949A1EFC0117821682138699
:10235000128615861486D183C083138302839582E7
:102360008482F186E08617870687D18AC08A909397
:1023700094018093930182E190E00E949A1EFC01F7
:10238000178216821386128615861486D183C0831F
:1023900049E3642E712C73826282B582A482F18635
:1023A000E08617870687D18AC08A90938E01809332
:1023B0008D0182E190E00E949A1EFC011782168234
:1023C0001386128615861486D183C0837382628237
:1023D00095828482F186E08617870687D18AC08A33
:1023E0009093900180938F0186E090E00E949A1E66
:1023F000FC01D383C2837582648211821082909320
:102400008C0180938B01C1E8D1E004E316E08DE0FC
:1024100090E00E949A1EFC01128611861486138693
:102420001283018354824382108289939993B1E08D
:10243000CB38DB0761F71092800110927F0182E0B8
:1024400090E09093020180930101DF91CF911F9161
:102450000F91FF90EF90DF90CF90BF90AF909F9043
:102460008F907F906F905F904F903F902F90089546
:102470000C94F31D1F920F920FB60F9211248F939D
:102480009F938091E1009091E100937F9093E10010
:1024900083FF0FC01092E90091E09093EB0010923F
:1024A000EC0092E39093ED001092D30198E09093AA
:1024B000F00082FF22C093E09093E9009091F20037
:1024C000992319F09AE39093E8009091C40199231D
:1024D00041F09091C40191509093C401911101C0B9
:1024E0005D989091D201992341F09091D201915041
:1024F0009093D201911101C0289884FF18C0809157
:10250000E2008E7E81608093E2008091E1008F7E08
:102510008093E1008091C5018E7E80618093C5012A
:102520009F918F910F900FBE0F901F90189580FF75
:10253000F7CF8091E2008E7E80618093E2008091EF
:10254000E1008E7E8093E1008091C5018E7E8160E6
:10255000E5CF1F920F920FB60F921124CF92DF9208
:10256000EF92FF920F931F932F933F934F935F939D
:102570006F937F938F939F93AF93BF93EF93FF934B
:10258000CF93DF93CDB7DEB76C97DEBFCDBF109290
:10259000E9008091E80083FF25C068E0CE01459600
:1025A0000E94DC0D82EF8093E8008D8987FF39C09F
:1025B0009091E80090FFFCCF982F907609F034C1FD
:1025C0009E894F89588D2F89F88C911131C08038A0
:1025D00061F58091C3018093F1001092F1008EEFBC
:1025E0008093E8006C960FB6F894DEBF0FBECDBFA7
:1025F000DF91CF91FF91EF91BF91AF919F918F911B
:102600007F916F915F914F913F912F911F910F910A
:10261000FF90EF90DF90CF900F900FBE0F901F9024
:1026200018959EEF9093E800C7CF1092F100D5CF98
:10263000913059F48111D3CF4130510581F6809109
:10264000C3018D7F8093C301CACF933049F48111B8
:10265000C6CF4130510519F68091C3018260F2CF97
:10266000953041F48091E80080FFFCCF20682093F2
:10267000E300B5CF963009F0A9C00B8D1C8D22E088
:102680001092E9001092C1011092C001F2122EC006
:102690001092BF011092BE010E94AB0D1F8299E003
:1026A0009983FA8291E09E8390EA98879AEF9987BE
:1026B0002091C0013091C101275F3F4F3C832B83A4
:1026C0008D831092E9001092C1011092C001109305
:1026D000BF010093BE0149E050E0BE016F5F7F4F34
:1026E00080E00E94850D0E94AB0D79CF1093BF0151
:1026F0000093BE010E94C20CDC0112960D911C9148
:102700000115110509F451C1D801ED91FC91048026
:10271000F581E02DBE016B5E7F4FC80109950097E2
:1027200009F03EC1F80100851185EACFF3E0FF1200
:102730000EC08F89882309F440C0823061F440E8DC
:102740006DE085EE96E10E942716811148CF81E267
:102750008093EB0047CF813029F440E86BE089EDAE
:1027600096E1F1CF833099F70E94C20CDC011296FA
:10277000ED90FC908E010F5F1F4F6801E114F10492
:1027800079F0D701ED91FC910680F781E02DB80139
:10279000C7010995080F111DF701E084F184EECF00
:1027A000D8011C92F60101900020E9F73197BF0192
:1027B0006C197D0940E0C601C6CF63EC76E1FB01F0
:1027C000449150E080E80E94850D09CF973009F4CC
:1027D000BECF983021F481E08093F10000CF993092
:1027E00009F0FDCE837009F0B2CFE2E2F1E081E0C2
:1027F00031E096E32191222371F08093E900309338
:10280000EB00DF0111972C912093EC009093ED00E9
:102810008F5F873079F78EE78093EA001092EA00A5
:102820008F898093D301DBCE8B8D9C8D1092E90034
:102830001092C1011092C0019093BF018093BE011C
:10284000898D811192C08E899D89913A49F4813296
:1028500009F07DCF47E050E069E071E080E0B3CF60
:10286000913209F074CF833269F48F89988DB0E08A
:10287000A0E08093050190930601A0930701B09317
:102880000801ADCE803269F48091E80082FFFCCF70
:1028900067E089E091E00E94DC0D8BEF8093E80017
:1028A0009ECE823209F09BCE8F8980931001EEEF8D
:1028B000FFE7859194918B3F9C4D51F1E0E0F8E06A
:1028C0008091090190910A01A0910B01B0910C0136
:1028D000803B9440A105B105F1F48091100180FD89
:1028E0001AC0EE3F8AE0F80789F587E797E79183FA
:1028F0008083809160008093C20188E19BE00FB6E5
:10290000F894A895809360000FBE9093600067CE06
:10291000EEEFFAE0D5CF808191818737974709F0B4
:102920005ECEA89580916000886180936000809160
:10293000C20180936000EE3F2AE0F20789F08091A7
:10294000FE0A9091FF0A9183808349CE8081918114
:102950008737980751F29093FF0A8093FE0AC5CFFC
:102960001092FF0A1092FE0A3ACE0E94C20CDC01BD
:1029700012960D911C910115110509F4E8CED801AC
:10298000ED91FC910190F081E02DBE016B5E7F4FD7
:10299000C8010995811123CEF80100851185EBCF7F
:1029A000181619060CF41BCED2CEF1E0FF12BECEE3
:1029B00067EC76E104CF1F920F920FB60F921124AD
:1029C0002F933F938F939F93AF93BF938091B601C3
:1029D0009091B701A091B801B091B9013091B501C2
:1029E00023E0230F2D3758F50196A11DB11D20932B
:1029F000B5018093B6019093B701A093B801B0934D
:102A0000B9018091BA019091BB01A091BC01B09134
:102A1000BD010196A11DB11D8093BA019093BB0128
:102A2000A093BC01B093BD01BF91AF919F918F91D5
:102A30003F912F910F900FBE0F901F90189526E891
:102A4000230F0296A11DB11DD2CF1F920F920FB678
:102A50000F921124CF92DF92EF92FF922F933F9328
:102A60004F935F936F937F938F939F93AF93BF9396
:102A7000CF93DF93EF93FF93809174019091750151
:102A8000A0917601B0917701892B8A2B8B2B09F4C9
:102A900046C08091730181110BC088B190E48927F1
:102AA00088B980917201882319F088B1805888B95B
:102AB0008091740190917501A0917601B091770198
:102AC000181619061A061B069CF480917401909141
:102AD0007501A0917601B09177010197A109B10923
:102AE0008093740190937501A0937601B093770160
:102AF000FF91EF91DF91CF91BF91AF919F918F9116
:102B00007F916F915F914F913F912F91FF90EF9047
:102B1000DF90CF900F900FBE0F901F9018950E94DE
:102B2000F30E811520E8920761F4809171008D7F8A
:102B3000809371001092910046984798109271010D
:102B4000D7CF21E020937101813020E8920731F442
:102B50001092700110926F010E94F30E97FD05C054
:102B600020916E01222309F454C020916D0121119E
:102B700050C021E020937201EC01DF77209709F02B
:102B80004BC081E08093730146983FE9C32E3FE03C
:102B9000D32EE12CF12CCAEFD0E0E0913206F09177
:102BA00033060995811103C081E080937301809100
:102BB0007201882329F080917301882309F43FC0B2
:102BC00047980E94F30E0097F1F19C01DE010E94EC
:102BD0005D1EDC01CB0129E0B595A79597958795FA
:102BE0002A95D1F7109290002AE020939100D0927C
:102BF0009900C09298008093740190937501A093FE
:102C00007601B093770180917100826080937100AA
:102C10006FCF10927201B0CF9E0150E040E060E4AF
:102C200072E48FE090E00E94091E69017A0181E060
:102C3000C81AD108E108F10810927301AECF469985
:102C4000BFCF479ABECF8FEF9FEFDC01CBCFEF9284
:102C5000FF920F931F93CF93DF93F82E192FE62E39
:102C6000042F81E0860F880F0E94570D83E00E9499
:102C7000570DCF2DD12FEC0EFD2EF11CCE15DF05FB
:102C8000B9F007FF13C0FE0184910E94570D182F61
:102C900080E00E94570D812321968111EFCFDF91B3
:102CA000CF911F910F91FF90EF9008958881EDCF04
:102CB00081E0F5CFE4EDF5E01382128288EE93E037
:102CC000A0E0B0E084839583A683B7838CE291E093
:102CD000918380838FEF9FEF95878487E4E3F6E00D
:102CE000138212828EE391E09183808385EA9BE0D8
:102CF000909333068093320680E090E890933106FB
:102D00008093300646983E9A47983F9A0895789463
:102D100084B5826084BD84B5816084BD85B58260E0
:102D200085BD85B5816085BD80916E008160809391
:102D30006E001092810080918100826080938100FA
:102D4000809181008160809381008091800081600A
:102D500080938000809191008260809391008091A7
:102D600091008160809391008091900081608093B8
:102D700090008091C10084608093C1008091C10067
:102D800082608093C1008091C10081608093C10006
:102D90008091C30081608093C3008091C0008260F5
:102DA0008093C0008091C20081608093C2008091B6
:102DB0007A00846080937A0080917A0082608093A8
:102DC0007A0080917A00816080937A0080917A0005
:102DD000806880937A001092D3011092C301109200
:102DE000C5018091D70081608093D70080EA8093ED
:102DF000D80089B5806189BD89B5826089BD09B473
:102E000000FEFDCF61E070E080E090E00E940E0ED9
:102E10008091D8008F7C80618093D8008091E00001
:102E2000807F8093E0008091E1008E7E8093E100BE
:102E30008DE08093E200559A209A5D98289881EC65
:102E400080937C0085B1806F85B984B1877E84B919
:102E500084B1876E84B95E9A5F988AB1806D8AB9B1
:102E6000769A6E9881B3806F81BB899880B38D709C
:102E700080BB80E58CBD81E08DBD85E090E00E9447
:102E8000090F5F9A85E090E00E94090F5E985C98B8
:102E9000ECE9F6E089EA96E024912EBD00000DB43D
:102EA00007FEFDCF31968E179F07B1F75C9A81E838
:102EB00080936400809165008160809365000E942A
:102EC000A30F0E940E0F87FF15C05C9885EA8EBD88
:102ED00000000DB407FEFDCF5C9A2E982F982D9818
:102EE0008091640080628093640081E083BF889554
:102EF00013BEFCCF0E940E0F82FF48C02D980E9487
:102F00000E0F84788438E1F40E94070F88EC90E07B
:102F10000E94090F2F9882E090E00E94F31D8F3FDE
:102F200029F06FEF82E090E00E94FB1D84EF91E0BA
:102F30000E94090F2F9A0E940E0F84788438D9F3CB
:102F40000E940E0F84718431E1F40E94070F88EC17
:102F500090E00E94090F2E9882E090E00E94F31DFD
:102F6000882329F060E082E090E00E94FB1D84EF5E
:102F700091E00E94090F2E9A0E940E0F84718431F5
:102F8000D9F388EC90E00E94090FB4CF0E94070F9C
:102F900082E090E00E943812882309F484C03E9AAF
:102FA0003F9A81E08093780181E090E00E9438129E
:102FB000182F147081FF0CC011112E98C1EFDFEF94
:102FC0000E940E0F86FF74C02E9A2F9A0E94070F40
:102FD00082E390E00E94090F0E940E0F8111F8CF4A
:102FE0008BE180930001809164008E7F8093640068
:102FF00080917A00806480937A0080917A0086FDC7
:10300000FCCFC0917800D09179000E94E90DAB010E
:10301000BC01CE01B0E0A0E0DC01992788278C013B
:103020009D01040F151F261F371FC901B8012091EC
:10303000640021602093640061157105810591058C
:1030400011F00E94EA1D82E090E00E949A1E22E0A8
:1030500030E0FC01318320839093B4018093B3016D
:103060000E94BF10C2E02C2E312CD3E04D2E512CEB
:10307000612C712C8FB7F8944091B6015091B70133
:103080006091B8017091B9018FBF80917B01882355
:1030900009F466C010927B0180E090E0892B51F327
:1030A0000E940000E7CF109278013E983F987CCFB5
:1030B000112329F0C430D10511F42E9A2F9881E004
:1030C0000E94780C00E128E54CEE55E0BE0184E159
:1030D00090E00E94A80B0E94A30F8FE090E00E9456
:1030E000090F2196C931D10509F06ACF112311F0DA
:1030F0002F9A2D9880E991E00E94090F0E94070FF6
:1031000081E090E00E94381280FF62CF8AE090E078
:103110000E9438129FEF980F9E3F08F059CF22E38C
:1031200030E03093B0012093AF0128E330E03093DA
:10313000B2012093B101CBE0D0E0682F84E396E0A8
:103140000E942E0FCE010E9438122196C131D10566
:10315000A1F70E94A30F88EE93E00E94090F38CFD9
:1031600090917C01F42FF91B9F2F20910001F21701
:1031700048F49F5F921708F08FCF81E083BF889556
:1031800013BE8ACF91E090937B0140937C01209104
:10319000790130917A012F5F3F4F30937A0120936C
:1031A0007901E4EDF1E081118FEF002481938193A7
:1031B000819381930394D1F71092B2011092B101DF
:1031C0001092B0011092AF018091AE018093AD01D9
:1031D0000E940E0F8093AE01C091B301D091B40153
:1031E000E880F98007E0E016F10408F083C0F701F9
:1031F000E450F74E0C94801E7D19BA1C231C211933
:103200001519C31C0319E5EFF1E09FE3915009F094
:103210001DC4E5E7F5E09FE3915009F41DC48191D9
:10322000DF01119780648C93F7CF00E420E841E838
:1032300052E16AE070E090E080E00E94A80B84E038
:10324000FDC301EA11E0F801819191918F010E9483
:10325000361FF1E00D3A1F07B1F709E911E0A1EAC5
:10326000EA2EA1E0FA2EF801819191918F010E943E
:10327000361FE016F106B9F78091950190919601FD
:103280000E94361F80919701909198010E94361FED
:1032900080919101909192010E94361F809193013B
:1032A000909194010E94361F80918D0190918E0122
:1032B0000E94361F80918F01909190010E94361FCD
:1032C00080918B0190918C010E94361F01E811E0E2
:1032D000BBE8EB2EB1E0FB2EF801819191918F01BB
:1032E0000E94361FE016F106B9F7CE010E94BF100A
:1032F000198218820E94A30FCFCE88E00E94980FF7
:10330000882309F443C0E0918B01F0918C01408146
:103310005181A1EAB1E09A01220F331FE901C55E94
:10332000DE4FED91FD918081882309F445C28181B2
:10333000928168817981861B970B0996439708F0E3
:103340003BC21082C1E8D1E08BE891E0A991B9912C
:103350006C9161112CC28581968116969C938E93F7
:10336000159718965C934E931797255E3E4FF9017B
:10337000808191811A969C938E9319978EE190E0AB
:103380001C969C938E931B9781E08C9300E420E124
:1033900041EA50E164E170E08EE690E00E94A80B03
:1033A00020E141EA50E16EE170E085E590E00E94A5
:1033B000A80B01E024E144E165E070E085E090E0E5
:1033C0000E94A60F24E144E165E070E08EE190E008
:1033D0000E94A60F24E144E165E070E087E390E0FD
:1033E0000E94A60F21E144E168E170E085E090E0F1
:1033F0000E94A60F21E144E168E170E08EE190E0D7
:103400000E94A60F21E144E168E170E087E390E0CB
:103410000E94A60F80919501909196010E94E90F5C
:1034200080919701909198010E94E90F80919101FC
:10343000909192010E94E90F8091930190919401E3
:103440000E94E90F80918D0190918E010E94E90FF9
:1034500080918F01909190010E94E90F00E026E198
:1034600045E367E270E08BE490E00E94A60F01E084
:1034700024E142E868E270E08FEF9FEF0E94A60F20
:10348000C9E9D1E0899199910E94E90F01E0C13A1F
:10349000D007C1F700E025E040E870E060E090E090
:1034A00080E00E94A60F08E028E049E950E167E0CB
:1034B00070E080E590E00E94A80B2AE530E03093B0
:1034C000B0012093AF0187E090E09093B201809328
:1034D000B10186E491E00E94821080917F01909179
:1034E00080010E948F10E1EACE2EE1E0DE2E11E095
:1034F000F601C191D1916F0189819A81813F9F4FDE
:1035000024F58881882331F0ED85FE8521E030E0C7
:10351000318320838090010190900201092C000CDE
:10352000AA08BB08181419041A041B040CF44AC195
:10353000188380E890E09A8389830E949B1DA301F1
:1035400092010E94091E7E836D8329813A818985BB
:103550009A85820F931F9A8389836B817C812B8547
:103560003C85620F731F7C836B8328812223F1F0DB
:103570006150710900E022E142E101970E94A60F2B
:103580008D819E818130910509F428C18230910599
:1035900009F42BC1892B51F46B817C8100E120E17E
:1035A00041E651E189819A810E94A80BEDEAF1E0A0
:1035B000EC15FD0509F09CCFC0918B01D0918C01D9
:1035C0008C819D81893391051CF402969D838C83A7
:1035D0008C819D81CA9724F089E390E09D838C8340
:1035E00080E40E94980F882349F088819981019690
:1035F00063E070E00E946C1E9983888380E20E94E1
:10360000980F882349F088819981029663E070E0E1
:103610000E946C1E998388838C819D81C99749F48F
:1036200088E00E94980F882321F08DE290E09D832E
:103630008C836C817D81E881F981EE0FFF1FE55E4F
:10364000FE4F00E025E040E1808191810E94A60FBD
:103650006C817D816C5F7F4FE881F981EE0FFF1FE8
:10366000E55EFE4F808191812CE14CE002960E9444
:10367000A60F6C817D81E881F981EE0FFF1FE55E69
:10368000FE4F00E220E141E851E1808191810E94FA
:10369000A80B61E8C62E61E0D62E7BE8A72E71E06C
:1036A000B72EF601C191D1916F018881882359F11C
:1036B0008B859C85883091050CF49EC001979C8772
:1036C0008B876B857C856150710989859A8500E0BF
:1036D00022E142E101970E94A60F8D819E818130F7
:1036E000910509F4A2C08230910509F4A5C0892B87
:1036F00051F46B857C8500E120E141E052E1898550
:103700009A850E94A80BAC14BD0459F600E022E192
:1037100042E166E070E086E090E00E94A60F00E1E2
:1037200020E141E652E167E070E087E090E00E942E
:10373000A80B00E022E142E166E070E08FE190E05A
:103740000E94A60F00E120E141E452E167E070E051
:1037500080E290E00E94A80B00E022E142E166E0F6
:1037600070E088E390E00E94A60F00E120E141E2D2
:1037700052E167E070E089E390E00E94A80B80913D
:103780007F0190918001181619060CF0B3CD8E318F
:10379000910544F461EF7FEF0E946C1E7B0112E003
:1037A000E10EF11CF0920201E0920101A3CD8C1711
:1037B0009D0709F0CBCDEACDF1E0AD3ABF0709F0A6
:1037C000B0CDE4CD0E949B1DA50194010E94091E6D
:1037D000672B682B692B09F0ACCEAACE6B817C815C
:1037E00000E120E141E451E1DDCE6B817C8100E12B
:1037F00020E141E251E1D6CE2D813E818F81988535
:103800002817390741F0EB81FC8101E010E01183BA
:103810000083188256CF80917F019091800101969C
:103820009093800180937F01F4CF6B857C8500E1CC
:1038300020E141EE51E163CF6B857C8500E120E121
:1038400041EC51E15CCF00E420E849E95CE070E044
:1038500060E090E080E00E94A80B80E20E94980F58
:10386000882369F080917D0190917E01029663E04A
:1038700070E00E946C1E90937E0180937D0180E435
:103880000E94980F882369F080917D0190917E01BC
:10389000019663E070E00E946C1E90937E0180931D
:1038A0007D0108E028E041E95CE06FE270E08AE039
:1038B00090E00E94A80B28E049E85CE06FE270E02D
:1038C00088E390E00E94A80B80917D0190917E0199
:1038D000009709F587E190E09093B0018093AF01E4
:1038E0008FE290E09093B2018093B10188E491E07F
:1038F0000E94821088E00E94980F882309F4FACC75
:1039000080917D0190917E01009741F583E090E0E8
:1039100099838883EFCC8130910579F484E190E03C
:103920009093B0018093AF018FE290E09093B20149
:103930008093B1018EE491E0DBCF0297D9F684E168
:1039400090E09093B0018093AF018FE290E090936C
:10395000B2018093B10184E591E0CACF8130910535
:1039600019F486E090E0D4CF029709F0C3CC84E04C
:1039700090E0CECF8EE190E090930401809303011C
:1039800085E090E0C5CF8091030190910401181665
:10399000190624F42E982F9A0E94070F00E420E8BD
:1039A00049E858E070E060E090E080E00E94A80BF9
:1039B00080917F019091800130E58A3091054CF033
:1039C00035E5843691052CF03AE5883E93400CF0BD
:1039D0003FE520E0832F922F9595879591958195CE
:1039E0009109C7969093B0018093AF0182E390E074
:1039F0009093B2018093B1018BE591E00E94821017
:103A000080917F01909180010E948F1085E691E066
:103A10000E94821080910301909104019C01215029
:103A200031093093040120930301181619060CF490
:103A300061CC2E9A2F9A0E94070F88E00E94980F5F
:103A4000882309F457CC3982288254CC8191DF0134
:103A5000119782608C93DACB01E010E041E0B8016D
:103A600081E290E00E94160F0F5F1F4F0F33110588
:103A7000A9F701E010E041E0B8018EE590E00E9476
:103A8000160F0F5F1F4F0F331105A9F70CE32CE33F
:103A900049EA56E062E070E082E290E0CECB8F929D
:103AA0009F92AF92BF92CF92DF92EF92FF92CF930D
:103AB000DF93EC01688179818A819B8161157105B1
:103AC0008105910521F464E279ED8BE597E02DE124
:103AD00033EF41E050E00E94091E49015A019B0169
:103AE000AC01A7EAB1E40E94281E6B017C01ACEE98
:103AF000B4EFA50194010E94361EC60ED71EE81E23
:103B0000F91EF7FE06C081E0C81AD108E10880E876
:103B1000F80AC882D982EA82FB82C701B6019F7780
:103B2000DF91CF91FF90EF90DF90CF90BF90AF905B
:103B30009F908F9008958F929F92AF92BF92CF9255
:103B4000DF92EF92FF9260911101709112018091CA
:103B5000130190911401611571058105910521F4FE
:103B600064E279ED8BE597E02DE133EF41E050E041
:103B70000E94091E49015A019B01AC01A7EAB1E468
:103B80000E94281E6B017C01ACEEB4EFA5019401EC
:103B90000E94361EC60ED71EE81EF91EF7FE06C08E
:103BA00081E0C81AD108E10880E8F80AC092110142
:103BB000D0921201E0921301F0921401C701B601F4
:103BC0009F77FF90EF90DF90CF90BF90AF909F9046
:103BD0008F900895609311017093120180931301E7
:103BE000909314010895F999FECF92BD81BDF89A82
:103BF000992780B50895262FF999FECF1FBA92BD57
:103C000081BD20BD0FB6F894FA9AF99A0FBE0196BD
:103C10000895052E97FB1EF400940E94201E57FD68
:103C200007D00E943B1E07FC03D04EF40C94201ECC
:103C300050954095309521953F4F4F4F5F4F0895D8
:103C400090958095709561957F4F8F4F9F4F089508
:103C50000E945D1EA59F900DB49F900DA49F800DA6
:103C6000911D11240895B7FF0C94281E0E94281E50
:103C7000821B930B0895A1E21A2EAA1BBB1BFD0108
:103C80000DC0AA1FBB1FEE1FFF1FA217B307E4073B
:103C9000F50720F0A21BB30BE40BF50B661F771F93
:103CA000881F991F1A9469F7609570958095909573
:103CB0009B01AC01BD01CF010895A29FB001B39F4C
:103CC000C001A39F700D811D1124911DB29F700D25
:103CD000811D1124911D089597FB072E16F4009461
:103CE00007D077FD09D00E94861E07FC05D03EF460
:103CF000909581959F4F0895709561957F4F089598
:103D0000EE0FFF1F0590F491E02D0994AA1BBB1B39
:103D100051E107C0AA1FBB1FA617B70710F0A61BCB
:103D2000B70B881F991F5A95A9F780959095BC01EC
:103D3000CD0108950F931F93CF93DF9382309105A8
:103D400010F482E090E0E0913A06F0913B0630E01A
:103D500020E0B0E0A0E0309799F42115310509F496
:103D60004AC0281B390B24303105D8F58A819B8144
:103D70006115710589F1FB0193838283FE0111C0F6
:103D8000408151810281138148175907E0F048179B
:103D9000590799F4109761F012960C9312971396A5
:103DA0001C933296CF01DF91CF911F910F9108950F
:103DB00000933A0610933B06F4CF2115310551F0DC
:103DC0004217530738F0A901DB019A01BD01DF0159
:103DD000F801C1CFEF01F9CF90933B0680933A06EB
:103DE000CDCFFE01E20FF31F819391932250310951
:103DF00039832883D7CF2091380630913906232B79
:103E000041F4209117013091180130933906209325
:103E1000380620911501309116012115310541F424
:103E20002DB73EB74091190150911A01241B350B53
:103E3000E0913806F0913906E217F307A0F42E1B43
:103E40003F0B2817390778F0AC014E5F5F4F2417FE
:103E5000350748F04E0F5F1F5093390640933806E0
:103E6000819391939FCFF0E0E0E09CCFCF93DF93DD
:103E70000097E9F0FC01329713821282A0913A0672
:103E8000B0913B06ED0130E020E01097A1F42081D5
:103E90003181820F931F20913806309139062817FF
:103EA000390709F061C0F0933906E0933806DF91D5
:103EB000CF910895EA01CE17DF07E8F54A815B81CB
:103EC0009E0141155105B1F7E901FB83EA83499150
:103ED0005991C40FD51FEC17FD0761F480819181C2
:103EE0000296840F951FE9019983888382819381CB
:103EF0009B838A83F0E0E0E012968D919C9113976A
:103F00000097B9F52D913C911197CD010296820F42
:103F1000931F20913806309139062817390739F652
:103F2000309751F510923B0610923A06B09339063D
:103F3000A0933806BCCFD383C28340815181840FC4
:103F4000951FC817D90761F44E5F5F4F888199812B
:103F5000480F591F518340838A819B8193838283B9
:103F60002115310509F0B0CFF0933B06E0933A06F6
:103F70009ECFFD01DC01C0CF13821282D7CFF8940F
:023F8000FFCF71
:103F82001003001E00FFFFFFFF00E1000000000021
:103F9200000100000000003C0680000700200039FC
:103FA2000000C1808100000000000000D60C410E1C
:103FB200F70CEC0C3D0DFB0C190D000000002E0F50
:103FC200C60EE60FE50F3A00535441525400204802
:103FD200454C500043524544495400594F552057CF
:0C3FE20052415020002047494654530033
:00000001FF
