:100000000C9408060C9430060C9430060C943006C0
:100010000C9430060C9430060C9430060C94300688
:100020000C9430060C9430060C949E0D0C940D0E1E
:100030000C9430060C9430060C9430060C94300668
:100040000C9430060C9430060C9430060C94300658
:100050000C9430060C9430060C9430060C943F102F
:100060000C9430060C9430060C9430060C94300638
:100070000C9430060C9430060C9430060C94300628
:100080000C9489100C9430060C9430060C943006B5
:100090000C9430060C9430060C9430060C94300608
:1000A0000C9430060C9430060C943006506F696E38
:1000B00074733A004C6576656C3A000000000000ED
:1000C0003E5B4F5B3E3E6B4F6B3E1C3E7C3E1C18C6
:1000D0003C7E3C181C577D571C1C5E7F5E1C001824
:1000E0003C1800FFE7C3E7FF0018241800FFE7DB18
:1000F000E7FF30483A060E2629792926407F050574
:1001000007407F05253F5A3CE73C5A7F3E1C1C08B0
:10011000081C1C3E7F14227F22145F5F005F5F0675
:10012000097F017F006689956A606060606094A2C3
:10013000FFA29408047E040810207E201008082ADC
:100140001C08081C2A08081E101010100C1E0C1E7B
:100150000C30383E3830060E3E0E0600000000001F
:1001600000005F00000007000700147F147F1424C4
:100170002A7F2A1223130864623649562050000849
:10018000070300001C2241000041221C002A1C7FA2
:100190001C2A08083E08080080703000080808087B
:1001A00008000060600020100804023E5149453EEE
:1001B00000427F400072494949462141494D331868
:1001C00014127F1027454545393C4A4949314121A0
:1001D0001109073649494936464949291E00001484
:1001E00000000040340000000814224114141414CC
:1001F00014004122140802015909063E415D594E7E
:100200007C1211127C7F494949363E414141227F8F
:100210004141413E7F494949417F090909013E4128
:100220004151737F0808087F00417F410020404111
:100230003F017F081422417F404040407F021C0262
:100240007F7F0408107F3E4141413E7F0909090636
:100250003E4151215E7F0919294626494949320309
:10026000017F01033F4040403F1F2040201F3F408F
:1002700038403F6314081463030478040361594948
:100280004D43007F4141410204081020004141419B
:100290007F04020102044040404040000307080080
:1002A00020545478407F2844443838444444283803
:1002B0004444287F385454541800087E090218A476
:1002C000A49C787F0804047800447D4000204040CE
:1002D0003D007F1028440000417F40007C047804EA
:1002E000787C080404783844444438FC18242418E2
:1002F00018242418FC7C080404084854545424048A
:10030000043F44243C4040207C1C2040201C3C40B6
:1003100030403C44281028444C9090907C446454D5
:100320004C440008364100000077000000413608C8
:100330000002010204023C2623263C1EA1A16112F8
:100340003A4040207A385454555921555579412125
:1003500054547841215554784020545579400C1E0E
:1003600052721239555555593954545459395554B6
:1003700054580000457C410002457D420001457C07
:1003800040F0292429F0F0282528F07C5455450018
:100390002054547C547C0A097F49324949493232FD
:1003A00048484832324A4848303A4141217A3A4234
:1003B000402078009DA0A07D39444444393D404010
:1003C000403D3C24FF2424487E4943662B2FFC2FCC
:1003D0002BFF0929F620C0887E0903205454794157
:1003E0000000447D413048484A32384040227A007B
:1003F0007A0A0A727D0D19317D2629292F2826298E
:1004000029292630484D40203808080808080808DF
:1004100008382F10C8ACBA2F102834FA00007B001F
:100420000008142A142222142A1408950022009588
:10043000AA005500AAAA55AA55AA000000FF00105C
:100440001010FF00141414FF001010FF00FF101014
:10045000F010F0141414FC001414F700FF0000FF57
:1004600000FF1414F404FC141417101F10101F10B4
:100470001F1414141F00101010F0000000001F10B3
:100480001010101F10101010F010000000FF1010BE
:1004900010101010101010FF10000000FF140000CA
:1004A000FF00FF00001F10170000FC04F4141417D5
:1004B00010171414F404F40000FF00F714141414BB
:1004C000141414F700F7141414171410101F101F2D
:1004D000141414F4141010F010F000001F101F007A
:1004E00000001F14000000FC140000F010F01010B9
:1004F000FF10FF141414FF141010101F0000000050
:10050000F010FFFFFFFFFFF0F0F0F0F0FFFFFF0043
:1005100000000000FFFF0F0F0F0F0F384444384456
:100520007C2A2A3E147E02020606027E027E0263B6
:10053000554941633844443C04407E201E20060255
:100540007E020299A5E7A5991C2A492A1C4C720132
:10055000724C304A4D4D303048784830BC625A4673
:100560003D3E494949007E0101017E2A2A2A2A2A64
:1005700044445F444440514A444040444A5140004E
:1005800000FF0103E080FF000008086B6B083612D3
:10059000362436060F090F06000018180000001058
:1005A00010003040FF0101001F01011E00191D173E
:1005B00012003C3C3C3C0000000000D5F08D14A132
:1005C000C881CFD9F1AF2000352270548A748B894D
:1005D0008B748A5470000000FEFE000000000000D2
:1005E000E0F0101010F0E000F0F01010F0E000006B
:1005F000E0F0909090F0E0000000000000000000AB
:100600000102010604060102010000000003C3E22A
:10061000222222220001030202020301000303003E
:1006200000030300000103020202020200000000B6
:1006300000000000000000000000000000000000BA
:100640000000071F3820202020001E3F2121213FCD
:100650001E009EBFA1A1A1FF7F00000000000000BE
:10066000000000000000000000000000000000008A
:100670000000000000000070FC8E0202020200E098
:10068000F0101010F0E000E0F0101010FCFC00E0A2
:10069000F0909090F0F000F0F0601010302000002A
:1006A0000000000000000000000000000001030244
:1006B000020202000103020202030100010302021E
:1006C000020303000103020202020200030300000E
:1006D00000000008083C7E7E0070A8A8703C7E7E6A
:1006E000003C007E0004051F1F0E04804000002017
:1006F000000048005000C0104000200000009000A2
:1007000000004000000000000000000000000000A9
:1007100000000000FF00FF00552A4020402040203C
:100720004000FF00FF00000000000000000000008B
:1007300000000000000000000000000000000000B9
:1007400000000000000000000000000000000000A9
:10075000000000000000E0100810E00000000000B1
:100760000000000000000000000000000044001530
:1007700020254204A88148A3440049442221A01412
:100780001002004000000800000000000018244291
:1007900042243848CB9434D5151515151515151563
:1007A00015D53494CB483824424224180000000068
:1007B00000000000C0209010101010109090909039
:1007C0009010101010109020C000000000000000D9
:1007D0000000800030C8073D7D3D07C830000000A4
:1007E00000000000000000000000000000080250AF
:1007F00001580403601C02801425080932420A02D1
:10080000455404000000000000000000000000004B
:10081000000000805F20040E0C81028000800281B5
:100820000C0E04205F8000000000000000000000AB
:10083000000000007F803F1F0000001F3F3F3F3F40
:100840003F1F0000001F3F807F00000000000000ED
:10085000000000000020030C100C030000800400C6
:100860000000000000000000000000000000000286
:100870000000000100010000000000010000000075
:100880000000000000000000000000000000000068
:100890000000000F10204C32010001000100010097
:1008A00001324C20100F000000000000000000008A
:1008B00000000000000001392525252525252525D6
:1008C0002525252525390100000000000000000035
:1008D000000000000400000000000800000000000C
:1008E0000000000000000000000000000000000008
:1008F00000000000000000000000FE010101F909F5
:1009000009F9010101F90909F9010101FE000609CE
:1009100009090909F9010101F9090909090906008B
:10092000FE010101FE000000000000FE010101FEC9
:100930000000000000060909090909F9010101F98F
:1009400009090909090600FE0101718989897101F6
:1009500001FE00FE01010101F191919191910E00C2
:100960000000000000000000000000000000000087
:1009700000000000000000000000FF000000FF0079
:1009800000FF000000FF0000FF000000FF0000006B
:1009900000000000FF000000FF0000000000000059
:1009A000FF000000FF808080800000FF000000FF4B
:1009B0008080800000000000000000FF000000FFB9
:1009C00000000000000000FF000000F80404040420
:1009D000040300FF000000007848484848488700AA
:1009E0000000000000000000000000000000000007
:1009F00000000000000000000000070808080700D1
:100A0000000708080807000007080808070006098B
:100A1000090909090908088849498909C949468015
:100A200007C8484848088848484700874848480851
:100A300008080807804649890909090908080809BA
:100A4000090909090906000708080807000000004D
:100A50000000000708080808080808080808070038
:100A60000000000000000000000000000000000086
:100A70000000000000000000000000000000000076
:100A80000000000000000000000000000000000066
:100A9000000000000000001F020201001F02021DF2
:100AA000001F121210001112120C001112120C0071
:100AB000020202001F02021F0000000000000000EE
:100AC0000000000000000000000000000000000026
:100AD0000000000000000000000000000000000016
:100AE00000000000000000000000000000080800F6
:100AF0003C007E7E7E3C00003C007E7E00000000CC
:100B00003C000000000000007E6642663C000000E1
:100B1000244242243C3C00003C425A5A423C0000E1
:100B2000001800181800000808003C007E7E7E3C7B
:100B300000003C007E7E000000003C000000000041
:100B400000007E6642663C000000244242243C3C99
:100B500000003C425A5A423C00000018001818009D
:100B6000000808003C007E7E7E3C00003C007E7E4B
:100B7000000000003C000000000000007E664266AD
:100B80003C000000244242243C3C00003C425A5AB3
:100B9000423C000000180018180000080B00020278
:100BA00002000009040000010202000005240010F8
:100BB00001052401010104240206052406000107A1
:100BC00005810310004009040100020A000000072B
:100BD00005020240000007058302400000040309EB
:100BE0000412010002EF020140412337800001019D
:100BF00002030141726475696E6F204C4C430041E1
:100C0000726475696E6F204D6963726F0000EA103F
:100C100011241FBECFEFDAE0DEBFCDBF11E0A0E0B0
:100C2000B1E0ECEAFEE202C005900D92AA33B107F2
:100C3000D9F727E0AAE3B1E001C01D92AC33B207B7
:100C4000E1F716E0C8E0D6E004C02197FE010E945B
:100C50004E17C730D107C9F70E9439110C945417A9
:100C60000C94000080914501089580E0E6E7F1E0F2
:100C700081118FEF00248193819381938193039459
:100C8000D1F70895E6E7F1E080E0A0E0B8E0008069
:100C90000EBC8111012C1197A0FDFDCF0192B9F777
:100CA0000DB40895FC0180917501882311F13FB7BF
:100CB000F89482E08093E9002091F200822F90E086
:100CC0001816190614F481E090E0882339F0289A68
:100CD00044E6409374014091F1004083222339F0AF
:100CE0002091F200211103C02BE62093E8003FBFC2
:100CF00008958FEF9FEF08952FB7F89483E08093C6
:100D0000E9009091E800892F807295FF04C09091CE
:100D1000F20080E4891B2FBF089580916C0181113E
:100D20000DC082E08093680184E080936901109295
:100D30006B0110926A0181E080936C0188E691E07A
:100D40000895CF93DF931F92CDB7DEB76983DC019F
:100D5000ED91FC910280F381E02D41E050E0BE0175
:100D60006F5F7F4F09950F90DF91CF91089583E0DA
:100D70008093E9008091F200882319F08AE3809340
:100D8000E80008950E947C0690E00895CF93DF93D9
:100D90001F92CDB7DEB7FC018485958597FD08C00D
:100DA0002FEF3FEF358724870F90DF91CF91089584
:100DB000CE0101960E945206019719F4898190E0B4
:100DC000F3CF8FEF9FEFF0CF0F931F93CF93DF936E
:100DD0001F92CDB7DEB78C01FC018485958597FF06
:100DE0000BC0CE0101960E945206019771F48981D1
:100DF00090E0F80195878487F801848595850F90A8
:100E0000DF91CF911F910F9108958FEF9FEFF1CF59
:100E1000FC018485958597FD0BC09FB7F89482E00F
:100E20008093E9008091F2009FBF90E001960895C1
:100E30009FB7F89482E08093E9008091F2009FBF11
:100E400090E008954091620150916301209160010A
:100E50003091610142175307B4F49091E800957006
:100E6000E1F39091E80092FD19C08093F100809128
:100E700062019091630101968F739927892B19F470
:100E80008EEF8093E800809162019091630101965A
:100E9000909363018093620181E0089580E008955A
:100EA000EF92FF920F931F93CF93DF93F82E192F9A
:100EB000E62E042F81E0860F880F0E94220783E030
:100EC0000E942207CF2DD12FEC0EFD2EF11CCE1546
:100ED000DF05B9F007FF13C0FE0184910E942207CD
:100EE000182F80E00E942207812321968111EFCFE5
:100EF000DF91CF911F910F91FF90EF90089588811E
:100F0000EDCF81E0F5CFDF92EF92FF920F931F9329
:100F1000CF93DF93D82E8A01EB017B01E40EF51EFF
:100F2000CE15DF0559F0D7FE12C0FE0184910E9454
:100F3000220721968111F4CF0FEF1FEFC801DF9137
:100F4000CF911F910F91FF90EF90DF9008958881CE
:100F5000EECF0F931F93CF93DF931F92CDB7DEB7E2
:100F600082E0898342E450E06BE97BE080E80E9404
:100F700083070E948D06DC0112960D911C910115CC
:100F8000110589F0D801ED91FC910280F381E02DEB
:100F9000BE016F5F7F4FC801099597FD04C0F8013E
:100FA00000851185ECCF89810F90DF91CF911F9142
:100FB0000F910895615030F02091F100FC012083E1
:100FC0000196F8CF289A84E68093740108953FB77C
:100FD000F89480915C0190915D01A0915E01B091C7
:100FE0005F0126B5A89B05C02F3F19F00196A11DF2
:100FF000B11D3FBFBA2FA92F982F8827BC01CD0163
:10100000620F711D811D911D42E0660F771F881FC1
:10101000991F4A95D1F708958F929F92AF92BF92F0
:10102000CF92DF92EF92FF926B017C010E94E70763
:101030004B015C01C114D104E104F104B9F00E9438
:10104000E707681979098A099B09683E7340810599
:10105000910580F321E0C21AD108E108F10888EE79
:10106000880E83E0981EA11CB11CE4CFFF90EF9086
:10107000DF90CF90BF90AF909F908F90089565E0E4
:1010800070E080E090E00C940C088F929F92AF92F9
:10109000BF92CF92DF92EF92FF920F931F93CF9365
:1010A000DF936C017B018A0180910C01882309F494
:1010B0005CC080917501882309F457C08091670155
:1010C00080FF05C08091E00082608093E000E8012D
:1010D000B12C8AEFA82E93E0892E2AE3922E209736
:1010E00011F4BB20D9F10E947C0681110AC0AA9498
:1010F000AA20D9F161E070E080E090E00E940C0845
:10110000EECF8C171D0611F00CF08C2F9FB7F894C2
:101110008092E9002091E80025FD02C09FBFDFCF4B
:10112000282F30E0C21BD30BF701815020F04191F2
:101130004093F100FACFE20EF31EBB2021F0909213
:10114000E800B12CEBCF8091E80085FDE7CF9092CD
:10115000E800BB24B394209709F3F3CF5D9A84E6AB
:1011600080936601101611063CF081E090E0F601D4
:101170009383828310E000E0C801DF91CF911F913B
:101180000F91FF90EF90DF90CF90BF90AF909F9026
:101190008F900895AF92BF92CF92DF92EF92FF921D
:1011A0000F931F93CF93DF936C017B018B01040F8F
:1011B000151FEB015E01AE18BF08C017D10759F02B
:1011C0006991D601ED91FC910190F081E02DC6016D
:1011D0000995892B79F7C501DF91CF911F910F9167
:1011E000FF90EF90DF90CF90BF90AF900895209147
:1011F0007A05E0917805F0917905CF0102969093F8
:10120000790580937805222319F0859194910895AA
:10121000808191810895E1E7F0E080818D7F808376
:10122000109291004698479810923C010895CF92F1
:10123000DF92EF92FF92CF93DF930E94F708811520
:1012400020E8920741F4DF91CF91FF90EF90DF907B
:10125000CF900C940B0921E020933C01813020E8D1
:10126000920751F4809176059091770590937905D6
:10127000809378050E94F70897FD05C020913B01F7
:10128000222309F45BC020913A01211157C021E0CB
:1012900020933D01EC01DF77209709F052C081E0F7
:1012A00080933E0146983FE9C32E3FE0D32EE12CC8
:1012B000F12CCAEFD0E0E091D905F091DA0509955B
:1012C000811103C081E080933E0180913D0188231C
:1012D00029F080913E01882309F446C047980E9476
:1012E000F708009709F444C09C01DE010E942B1707
:1012F000DC01CB0129E0B595A795979587952A95AF
:10130000D1F7109290002AE020939100D09299009A
:10131000C092980080933F0190934001A0934101B7
:10132000B093420180917100826080937100DF91DF
:10133000CF91FF90EF90DF90CF90089510923D01F4
:10134000A9CF9E0150E040E060E472E48FE090E0BD
:101350000E94D71669017A0181E0C81AD108E10814
:10136000F10810923E01A7CF4699B8CF479AB7CF60
:101370008FEF9FEFDC01C5CF9C01E1E7F0E09081AA
:101380009D7F908310927A05EBECF5E0F093790560
:10139000E0937805F0937705E09376053183208319
:1013A00082E390E09383828380E090E89583848356
:1013B0000C9417094F925F926F927F928F929F9237
:1013C000AF92BF92CF92DF92EF92FF920F931F9353
:1013D000CF93DF934C015901FC2DC02FD0E0CE01FB
:1013E000880D991D181619060CF06CC020E882169D
:1013F00091040CF067C09B012E0D311D12161306CF
:101400000CF060C0603471050CF05CC041155105F2
:1014100009F458C0E62FE770FE2EDB0177FD179622
:1014200033E0B595A7953A95E1F73A2F77FF04C0D9
:10143000FF2011F03FEF3A0F6627772768197909E7
:1014400097FC02C070E060E0803891050CF44BC05E
:1014500090E89819961BA32F032E000CBB0B1A2F94
:1014600010953F3F0CF010E021E08E2D877009F4BD
:1014700020E0E694E694E694E20EAE0DB11D1997D5
:101480001CF028E0E22EE31AE11A310F20E83203C3
:10149000D0011124A80DB91DA60FB71F019F600D23
:1014A000711D1124460F571F0F2D0F2C000C110B0F
:1014B000F33009F41CC1C8F4F13009F4D0C0F230A3
:1014C00009F47CC0DF91CF911F910F91FF90EF90B5
:1014D000DF90CF90BF90AF909F908F907F906F9054
:1014E0005F904F900895902FB5CFFA3FB1F1232F21
:1014F0002E0DFB3F39F7321729F3BD016A587E4F95
:10150000D12CC12CC91608F0A4C0FA01EC0DFD1DA8
:10151000E491F0E04F01002E02C0880C991C0A945F
:10152000E2F737FD06C0FB018081E82CE0948E21B4
:101530008083FF2061F0373054F45B01F0E8AF0E98
:10154000B11CE92CE094F50180818E218083FFEFAE
:10155000CF1ADF0A6F5F7F4FD5CF232F2E0D3217A3
:1015600009F4B0CFBD016A587E4FD12CC12CC916E9
:1015700008F069C0FA01EC0DFD1DE491F0E04F01A7
:10158000002E02C0880C991C0A94E2F737FD04C0B3
:10159000FB01808188298083FF2051F0373044F49B
:1015A0005B01F0E8AF0EB11CF501808189298083D1
:1015B000FFEFCF1ADF0A6F5F7F4FD9CF6FEF70E079
:1015C0000F2C02C0660F771F0A94E2F760957095A2
:1015D000772E232F2E0D321709F474CFFD01EA5810
:1015E000FE4F6F01B12CA12CA91638F5FA01EA0DB6
:1015F000FB1DE491F0E02F01002E02C0440C551CAD
:101600000A94E2F737FD05C0F6018081862384291C
:101610008083FF2059F037304CF44601F0E88F0EFC
:10162000911CF4018081872185298083FFEFAF1A07
:10163000BF0A8FEFC81AD80AD7CF3F5F4C0F5D1F84
:10164000A058BF4FC8CF3F5F4C0F5D1FA058BF4F82
:1016500086CF3F5F4C0F5D1FA058BF4F4CCF6A0D28
:101660007B1D232F2E0D321709F42CCFFD01EA58D4
:10167000FE4F6F01B12CA12CA91688F5FB01EA0DD4
:10168000FB1D8490912C002E02C0880C991C0A949A
:10169000E2F780949094FA01EA0DFB1D6490712C9E
:1016A000002E02C0660C771C0A94E2F737FD05C0D5
:1016B000F6018081882186298083FF2049F0373018
:1016C0003CF4F601E058FF4F80818921872980830F
:1016D000FFEFAF1ABF0A8FEFC81AD80ACDCF3F5F0E
:1016E0004C0F5D1F6C0F7D1FA058BF4FBCCFC92E84
:1016F000D12CFA01E60FF71FAA58BE4F00E810E000
:101700000C191D09CC19DD09BE01660F771F41E0D8
:1017100050E06A010F2C01C0CC0C0A94EAF7592F53
:101720002E2D792ECF93DF93ED01EF96EF96229633
:101730008590A590FF2059F08C9C4001AC9C5001F5
:1017400037302CF4E880B094EB20E928E992332379
:101750003AF0EC90A094EA20E828ED920C94B10BBA
:1017600011965A9529F72A9551F0572D3395112442
:10177000E60FF11DA00FB11DC00FD11DD9CFDF9114
:10178000CF9111249FCECF92EF920F93CF93DF93FF
:10179000DC01FA0104913196E4904E5F5F4F222301
:1017A000D1F0C1E0D0E09E2D977011F4D0E0C0E000
:1017B000EE2DE695E695E695EC0FFD2FF11D0E9FBB
:1017C000E0010F9FD00D11242C9FC0012D9F900D83
:1017D0001124480F591F8AEFC82E30E020E0CD01B8
:1017E0000E94DA09DF91CF910F91EF90CF90089589
:1017F0008FB18095807F669B88601C9B8460089574
:10180000109245013E983F9808953E9A3F9A81E094
:10181000809345010895AF92BF92CF92DF92EF92ED
:10182000FF920F931F93CF93DF936D3079F0C091A8
:101830005201D09153016A30B1F4109251011092CB
:1018400050012896D0935301C093520181E090E05B
:10185000DF91CF911F910F91FF90EF90DF90CF908C
:10186000BF90AF900895409150015091510185E093
:10187000689FF0011124E554FF4F9A01C12C80E1CB
:10188000E82EA5E070E0CA1621F0CF010196749110
:10189000FC0110E000E0B72FB170DB2E20383105DD
:1018A000D0F4CE01800F911F80349105A0F461E047
:1018B00081FD64E080FD660F82FD6295887FE89E71
:1018C000D0011124A20FF62EAA58BE4F8C91DD2014
:1018D000A9F0862B8C9376950F5F1F4F083011056A
:1018E000D1F6C3942F5F3F4F86E0C812CACF4A5F3C
:1018F0005F4F5093510140935001A8CFF0948F2136
:10190000E9CF0F931F93CF93DF938C01D0E0C0E01A
:10191000F801EC0FFD1F6491662341F088E397E026
:101920000E940B0C892B11F02196F2CFCE01DF9192
:10193000CF911F910F91089590915401982329F40C
:1019400090915501982381E009F480E0089508956D
:1019500090E080E00895FC0137964E175F0780F411
:10196000495F5F4F8417950758F4CB0107962817F6
:10197000390730F4295F3F4F81E06217730708F0A1
:1019800080E00895EF92FF920F931F93CF93DF9320
:10199000693310F5882301F1C8E9D6E0062F10E07D
:1019A000E82EF12C8B81882351F0698170E08881C9
:1019B0009801A70190E00E94AB0C81110DC0249604
:1019C00087E0C833D80771F781E0DF91CF911F918D
:1019D0000F91FF90EF90089580E0F7CF8F929F9244
:1019E000AF92BF920F931F93CF93DF93CDB7DEB724
:1019F000A1970FB6F894DEBF0FBECDBF19A242303B
:101A000008F44AE08E010F5D1F4F842E912CB12CFB
:101A1000A12CA50194010E940917E62FB901CA0162
:101A2000EA3044F5E05DD801EE938D01232B242BA1
:101A3000252B79F790E080E0109769F0FD01019087
:101A40000020E9F73197AF014A1B5B0BBD0188E32A
:101A500097E00E94CA08A1960FB6F894DEBF0FBEA9
:101A6000CDBFDF91CF911F910F91BF90AF909F900D
:101A70008F900895E95CD7CF42E050E066E371E0D3
:101A800088E397E00C94CA081F93CF93DF93CBEDC4
:101A9000D5E0FE011482369686E0EF38F807D1F7DC
:101AA0001091000180914701180F1F3108F01EE1CD
:101AB0000E94771628E030E040E050E00E94D71600
:101AC000660F660F660F80E037E791E0181771F038
:101AD000388369832FEF280F2A8321E0811120E0CA
:101AE0002B839C839D838F5F2696F0CF8091470147
:101AF0008F5F80934701DF91CF911F91089584EB11
:101B000090E00E94810C6091470170E090E080E0DD
:101B10004AE00E94EE0C0E943C0D8CEA90E00E948C
:101B2000810C609148017091490180914A01909126
:101B30004B014AE00E94EE0C0C943C0D1F920F9258
:101B40000FB60F9211248F939F938091E100909193
:101B5000E100937F9093E10083FF0FC01092E900B2
:101B600091E09093EB001092EC0092E39093ED00E3
:101B70001092750198E09093F00082FF22C093E0EC
:101B80009093E9009091F200992319F09AE39093D1
:101B9000E80090916601992341F09091660191507F
:101BA00090936601911101C05D9890917401992301
:101BB00041F090917401915090937401911101C082
:101BC000289884FF18C08091E2008E7E8160809307
:101BD000E2008091E1008F7E8093E10080916701B7
:101BE0008E7E8061809367019F918F910F900FBED1
:101BF0000F901F90189580FFF7CF8091E2008E7EA6
:101C000080618093E2008091E1008E7E8093E1000C
:101C1000809167018E7E8160E5CF1F920F920FB693
:101C20000F921124CF92DF92EF92FF920F931F93A6
:101C30002F933F934F935F936F937F938F939F93D4
:101C4000AF93BF93EF93FF93CF93DF93CDB7DEB7FF
:101C50006C97DEBFCDBF1092E9008091E80083FF52
:101C600025C068E0CE0145960E94DA0782EF809396
:101C7000E8008D8987FF39C09091E80090FFFCCF84
:101C8000982F907609F034C19E894F89588D2F89FD
:101C9000F88C911131C0803861F580916501809395
:101CA000F1001092F1008EEF8093E8006C960FB671
:101CB000F894DEBF0FBECDBFDF91CF91FF91EF91C2
:101CC000BF91AF919F918F917F916F915F914F9154
:101CD0003F912F911F910F91FF90EF90DF90CF9048
:101CE0000F900FBE0F901F9018959EEF9093E800F5
:101CF000C7CF1092F100D5CF913059F48111D3CFD5
:101D00004130510581F6809165018D7F8093650199
:101D1000CACF933049F48111C6CF4130510519F62D
:101D2000809165018260F2CF953041F48091E800A6
:101D300080FFFCCF20682093E300B5CF963009F0F8
:101D4000A9C00B8D1C8D22E01092E9001092630156
:101D500010926201F2122EC0109261011092600185
:101D60000E94A9071F8299E09983FA8291E09E83DD
:101D700090EA98879AEF99872091620130916301E8
:101D8000275F3F4F3C832B838D831092E900109295
:101D9000630110926201109361010093600149E0B8
:101DA00050E0BE016F5F7F4F80E00E9483070E947A
:101DB000A90779CF10936101009360010E948D06FD
:101DC000DC0112960D911C910115110509F451C108
:101DD000D801ED91FC910480F581E02DBE016B5E90
:101DE0007F4FC8010995009709F03EC1F8010085B1
:101DF0001185EACFF3E0FF120EC08F89882309F422
:101E000040C0823061F440E86DE08FEF9BE00E94BB
:101E10005007811148CF81E28093EB0047CF81309A
:101E200029F440E86BE083EF9BE0F1CF833099F732
:101E30000E948D06DC011296ED90FC908E010F5FE2
:101E40001F4F6801E114F10479F0D701ED91FC9185
:101E50000680F781E02DB801C7010995080F111D13
:101E6000F701E084F184EECFD8011C92F6010190D5
:101E70000020E9F73197BF016C197D0940E0C601E8
:101E8000C6CF6DED7BE0FB01449150E080E80E94FD
:101E9000830709CF973009F4BECF983021F481E051
:101EA0008093F10000CF993009F0FDCE837009F0E6
:101EB000B2CFE2E1F1E081E031E096E3219122232B
:101EC00071F08093E9003093EB00DF0111972C91C2
:101ED0002093EC009093ED008F5F873079F78EE7C9
:101EE0008093EA001092EA008F8980937501DBCE1F
:101EF0008B8D9C8D1092E90010926301109262010B
:101F00009093610180936001898D811192C08E89C7
:101F10009D89913A49F4813209F07DCF47E050E044
:101F200065E071E080E0B3CF913209F074CF833285
:101F300069F48F89988DB0E0A0E0809301019093BF
:101F40000201A0930301B0930401ADCE803269F485
:101F50008091E80082FFFCCF67E085E091E00E947D
:101F6000DA078BEF8093E8009ECE823209F09BCE99
:101F70008F8980930C01EEEFFFE7859194918B3F61
:101F80009C4D51F1E0E0F8E080910501909106014F
:101F9000A0910701B0910801803B9440A105B105D3
:101FA000F1F480910C0180FD1AC0EE3F8AE0F80741
:101FB00089F587E797E7918380838091600080931C
:101FC000640188E19BE00FB6F894A89580936000C7
:101FD0000FBE9093600067CEEEEFFAE0D5CF808120
:101FE00091818737974709F05ECEA8958091600070
:101FF0008861809360008091640180936000EE3F6F
:102000002AE0F20789F08091FE0A9091FF0A9183FD
:10201000808349CE808191818737980751F29093D0
:10202000FF0A8093FE0AC5CF1092FF0A1092FE0AA3
:102030003ACE0E948D06DC0112960D911C9101157D
:10204000110509F4E8CED801ED91FC910190F081E1
:10205000E02DBE016B5E7F4FC8010995811123CE33
:10206000F80100851185EBCF181619060CF41BCE6C
:10207000D2CEF1E0FF12BECE61EE7BE004CF1F9224
:102080000F920FB60F9211242F933F938F939F932C
:10209000AF93BF938091580190915901A0915A013B
:1020A000B0915B013091570123E0230F2D3758F594
:1020B0000196A11DB11D2093570180935801909363
:1020C0005901A0935A01B0935B0180915C019091FA
:1020D0005D01A0915E01B0915F010196A11DB11D4E
:1020E00080935C0190935D01A0935E01B0935F01CA
:1020F000BF91AF919F918F913F912F910F900FBE04
:102100000F901F90189526E8230F0296A11DB11D70
:10211000D2CF1F920F920FB60F9211242F933F939D
:102120004F935F936F937F938F939F93AF93BF93DF
:10213000EF93FF9380913F0190914001A091410165
:10214000B0914201892B8A2B8B2B09F440C08091DE
:102150003E0181110BC088B190E4892788B9809134
:102160003D01882319F088B1805888B980913F01DA
:1021700090914001A0914101B091420118161906B9
:102180001A061B069CF480913F0190914001A0919A
:102190004101B09142010197A109B10980933F012A
:1021A00090934001A0934101B0934201FF91EF91C0
:1021B000BF91AF919F918F917F916F915F914F915F
:1021C0003F912F910F900FBE0F901F9018950E9476
:1021D0001709ECCF10927E0510927D0588EE93E0F2
:1021E000A0E0B0E080937F0590938005A0938105E7
:1021F000B09382058CE191E090937C0580937B0500
:102200008FEF9FEF909388058093870510923B078F
:1022100010923A078EE291E0909339078093380745
:1022200082E396E09093DA058093D90580E090E808
:102230009093D8058093D70546983E9A47983F9A41
:10224000E8E9F6E082E082831382349697E0E8338F
:10225000F907C9F710928F06109292061092950610
:10226000EBEDF5E01282369686E0EF38F807D1F70D
:102270000895789484B5826084BD84B5816084BDFE
:1022800085B5826085BD85B5816085BD80916E0014
:10229000816080936E001092810080918100826045
:1022A0008093810080918100816080938100809182
:1022B0008000816080938000809191008260809393
:1022C00091008091910081608093910080919000B5
:1022D0008160809390008091C10084608093C100F0
:1022E0008091C10082608093C1008091C1008160B3
:1022F0008093C1008091C30081608093C30080916E
:10230000C00082608093C0008091C2008160809391
:10231000C20080917A00846080937A0080917A0074
:10232000826080937A0080917A00816080937A0045
:1023300080917A00806880937A00109275011092E3
:102340006501109267018091D70081608093D7006A
:1023500080EA8093D80089B5806189BD89B58260A3
:1023600089BD09B400FEFDCF61E070E080E090E03F
:102370000E940C088091D8008F7C80618093D800E7
:102380008091E000807F8093E0008091E1008E7E6C
:102390008093E1008DE08093E200559A209A5D9849
:1023A000289881EC80937C0085B1806F85B984B1D9
:1023B000877E84B984B1876E84B95E9A5F988AB14A
:1023C000806D8AB9769A6E9881B3806F81BB899847
:1023D00080B38D7080BB80E58CBD81E08DBD0E9497
:1023E0003F085F9A0E943F085E985C98EBEBF5E02F
:1023F00084918EBD00000DB407FEFDCF319605E03F
:10240000E83CF007A9F75C9A81E88093640080912A
:1024100065008160809365000E94F80B87FF15C0FE
:102420005C9885EA8EBD00000DB407FEFDCF5C9A76
:102430002E982F982D98809164008062809364007C
:1024400081E083BF889513BEFCCF82E090E00E94BC
:10245000CF16882309F46DC00E94050C0E94350632
:10246000109253011092520110925101109250019A
:10247000809164008E7F8093640080917A008064F4
:1024800080937A0080917A0086FDFCCFC09178001D
:10249000D09179000E94E707AB01BC01CE01B0E00A
:1024A000A0E0DC01992788278C019D01040F151FEE
:1024B000261F371FC901B8012091640021602093B5
:1024C0006400611571058105910511F00E94C61621
:1024D00020E048EC55E06FE070E086E290E00E947A
:1024E000C30B0E94420668EE73E080E090E00E9419
:1024F0000C081BE0412E512C612C712CDFE02D2E9D
:10250000312C2FB7F8948091580190915901A091E6
:102510005A01B0915B012FBF20914301222361F04A
:102520001092430180E090E0892B59F30E94000053
:10253000E5CF0E94000C92CF20914401182F121B6E
:10254000103138F41F3071F381E083BF889513BEDA
:10255000E9CF21E0209343018093440180914C0115
:1025600090914D01019690934D0180934C01809183
:102570005501809354010E94F80B809355010E94ED
:10258000350610925301109252011092510110928F
:10259000500180915601823009F47FC240F48823B3
:1025A00009F4D9C2813091F00E944206BBCF83303A
:1025B00009F4BBC28430C1F70E947F0D88E00E94FD
:1025C0009C0C882389F310925601EECF0E94F80BE1
:1025D00087FF07C080914E01882319F081508093B6
:1025E0004E010E94F80B84FF07C080914E01883392
:1025F00018F48F5F80934E0180E40E949C0C81113F
:1026000005C088E00E949C0C882389F080918F0689
:10261000882309F413C180919206882309F425C107
:102620008091950622E030E0882309F409C1BFE8D3
:10263000EB2EB6E0FB2EF7018081882331F08181FB
:10264000873708F015C18F5F8183339626E0E8391C
:10265000F20791F70FE816E0F8018081882371F105
:10266000A8E9CA2EA6E0DA2ED0E0C0E0F601838108
:10267000882309F41AC1F801228130E0418150E039
:10268000F601618170E0808190E00E94AB0C8823AC
:1026900009F40BC1F8011082CC0FDD1FCC0FDD1F38
:1026A000C856D94F8A81882309F4E4C081508A83AF
:1026B0000E940B0982E690E00E94BC090D5F1F4F4B
:1026C00026E00839120741F60FE816E0D6E0992413
:1026D0009394E2E08E2EF8018081882319F17BED3E
:1026E000A72E75E0B72ED12CC12CCC2DF5018481FD
:1026F000882371F0F801228130E0418150E0F5013A
:10270000618170E0808190E00E94AB0C8111D6C0A5
:10271000FFEFCF1ADF0A26E0A20EB11C3EE1C3167E
:10272000D10419F70D5F1F4FF6E008391F0799F61E
:1027300080914C0190914D01B1010E943A17892B73
:10274000D9F4C9E8D6E017E706E08C81882379F050
:102750008B8181110BC1EA81E09FF0011124E552C8
:10276000FA4F808188838181898385818D83269733
:1027700085E0C53DD80749F7C8E9D6E012E08B816E
:10278000882359F08A81212F281B698170E0888174
:102790004DEE5AE090E00E94C30B2496E8E3F7E088
:1027A000EC17FD0761F760914E0170E023E041E610
:1027B0005BE090E080E00E94C30BF70180818823FA
:1027C00049F0628170E0818126E041E65BE090E0C3
:1027D0000E94C30BF3E0EF0EF11C08E9E01606E0DF
:1027E000F00659F70BED15E0E8018C81882369F0BC
:1027F0008B8124E0811101C025E0698170E088812E
:1028000047E25BE090E00E94C30B26962FE836E09B
:102810002C173D0751F7F12C80914F01F81608F065
:10282000F1C038E0F39EB001112423E041E65BE003
:1028300087E790E00E94C30BF394EECF30E020E0F6
:1028400040914E01C901880F991F820F931FFC010F
:10285000E157F94F1182428381E080830E940B0986
:1028600089E490E00E94BC09E2CE21E030E0E8CFAC
:102870001082EBCE0E940B0984EC90E00E94BC0910
:102880001B828091480190914901A0914A01B09129
:102890004B010596A11DB11D8093480190934901FC
:1028A000A0934A01B0934B0109CF2196F4E0CF0EDB
:1028B000D11CC832D10509F0D9CE00CFF801108261
:1028C000DC9DF001DD9DF00D1124E552FA4F1482DC
:1028D0000E940B0985EA90E80E94BC09E8E9F6E04D
:1028E00090E080E0238121113AC0DC9DD001DD9D84
:1028F000B00D1124A552BA4F11962C911197880F43
:10290000991F880F991FFC01E856F94F8C918F5F32
:102910008083218382829382809148019091490132
:10292000A0914A01B0914B014E96A11DB11D80931B
:10293000480190934901A0934A01B0934B01CF5FA6
:10294000CE3109F4EFCECD9FF0011124E552FA4FBC
:10295000938281E09581911180E08583E3CE019699
:1029600034968832910509F0BDCFD6CFC980D88082
:102970008D8158EFB52E882311F048E0B42EBC0CA1
:102980006B2D8D2D0E94C20C882371F1B982888134
:102990008150873758F0188380914F018150809380
:1029A0004F0181E09D81911180E08D83C9808881F4
:1029B0006C2D88500E94C20C8111D9CE38EFB32EF5
:1029C000BC0C38E0C30ED8806C2D8D2D0E94C20C3B
:1029D0008111CDCE6B2D8D2D0E94C20C8111C7CEE1
:1029E00088E08D0D8883EFCF28EFD20E6C2D8D2DD2
:1029F0000E94C20C8111D88281E09D81911180E0FA
:102A00008D83C5CFF801848181113DC00A5F1F4FBE
:102A1000C017D107B9F70E940B09809171008D7F13
:102A20008093710010927A058BEC95E09093790574
:102A30008093780590937705809376058BE092E0FC
:102A40009093CC058093CB0582E390E09093CE05E4
:102A50008093CD0523E932E03093D0052093CF0554
:102A60009093D2058093D10520E133E03093D405D3
:102A70002093D3059093D6058093D5050E9417091E
:102A800083E08093560180914F018150853008F496
:102A90008BCD84E08093560187CD85E08093000143
:102AA00080934F01109248011092490110924A01FF
:102AB00010924B0110924701C8E9D6E022E0F22EB5
:102AC00001E00E94771628E030E040E050E00E94EC
:102AD000D716162F110F110F110F0E947716A30191
:102AE00092010E94D7166D5F7F4F8F4F9F4F660FE9
:102AF000660F660FE8E9F6E08381882331F0808174
:102B0000681303C081811817E1F2349626E0E43D92
:102B1000F20791F768831983FA820B83249624EDD8
:102B200036E02C173D0769F612C00E947F0D809198
:102B30004C0190914D0168E770E00E943A17892B93
:102B400031F088E00E949C0C882309F42DCD0E946E
:102B5000440D81E09FCF20E04BEE56E070E060E056
:102B600090E080E00E94C30B80914601882391F0A1
:102B7000E5EEF6E00491E6EEF6E0E49092E0C92E90
:102B800030E020E047EE56E067E370E084E290E05A
:102B90000E94DA09E3EDF6E00491E4EDF6E0E4905A
:102BA0008091450145ED56E08823A1F081E090E059
:102BB0002E2D277011F490E080E02E2D269526957D
:102BC0002695820F911D089FA001099F500D112489
:102BD0004B52594F82E0C82E30E020E062E070E0B6
:102BE00084E690E00E94DA0988E00E949C0C882329
:102BF00049F00E940B098BE092E00E94BC0982E040
:102C00008093560184E00E949C0C882381F0C0913F
:102C100045010E94050C0E940B0986E091E00E948C
:102C2000BC090E94000CC11113C00E94050C8091C8
:102C30004C0190914D01B1010E943A17892B09F086
:102C4000B3CC8091460191E0892780934601ACCCBA
:102C50000E94000CECCF8F929F92AF92BF92CF92C6
:102C6000DF92EF92FF92CF93DF93EC01688179813D
:102C70008A819B81611571058105910521F464E2CA
:102C800079ED8BE597E02DE133EF41E050E00E94D4
:102C9000D71649015A019B01AC01A7EAB1E40E9491
:102CA000F6166B017C01ACEEB4EFA50194010E9415
:102CB0000417C60ED71EE81EF91EF7FE06C081E0F7
:102CC000C81AD108E10880E8F80AC882D982EA82E5
:102CD000FB82C701B6019F77DF91CF91FF90EF9004
:102CE000DF90CF90BF90AF909F908F9008958F927C
:102CF0009F92AF92BF92CF92DF92EF92FF9260913C
:102D00000D0170910E0180910F01909110016115DC
:102D100071058105910521F464E279ED8BE597E079
:102D20002DE133EF41E050E00E94D71649015A01EE
:102D30009B01AC01A7EAB1E40E94F6166B017C018D
:102D4000ACEEB4EFA50194010E940417C60ED71E85
:102D5000E81EF91EF7FE06C081E0C81AD108E10896
:102D600080E8F80AC0920D01D0920E01E0920F01A6
:102D7000F0921001C701B6019F77FF90EF90DF90AE
:102D8000CF90BF90AF909F908F90089560930D016A
:102D900070930E0180930F01909310010895F9999B
:102DA000FECF92BD81BDF89A992780B50895052E72
:102DB00097FB1EF400940E94EE1657FD07D00E9468
:102DC000091707FC03D04EF40C94EE16509540956D
:102DD000309521953F4F4F4F5F4F089590958095C7
:102DE000709561957F4F8F4F9F4F08950E942B17CD
:102DF000A59F900DB49F900DA49F800D911D11244F
:102E00000895B7FF0C94F6160E94F616821B930BDA
:102E10000895A1E21A2EAA1BBB1BFD010DC0AA1F1B
:102E2000BB1FEE1FFF1FA217B307E407F50720F033
:102E3000A21BB30BE40BF50B661F771F881F991FAE
:102E40001A9469F760957095809590959B01AC01F7
:102E5000BD01CF010895A29FB001B39FC001A39F00
:102E6000700D811D1124911DB29F700D811D1124C3
:102E7000911D0895AA1BBB1B51E107C0AA1FBB1FD0
:102E8000A617B70710F0A61BB70B881F991F5A95F6
:102E9000A9F780959095BC01CD010895EE0FFF1F15
:0C2EA0000590F491E02D0994F894FFCF08
:102EAC0005FFFFFFFF00E100000000000001000033
:102EBC000000C1808100000000000000A106450850
:102ECC00C206B7060807C606E406000000000B0C95
:0A2EDC00CA08A80CA70C0D0A00009C
:00000001FF
