:100000000C9424090C944C090C944C090C944C0944
:100010000C944C090C944C090C944C090C944C090C
:100020000C944C090C944C090C944C090C944C09FC
:100030000C944C090C944C090C944C090C944C09EC
:100040000C944C090C944C090C944C090C944C09DC
:100050000C944C090C944C090C944C090C949B2264
:100060000C944C090C944C090C944C090C944C09BC
:100070000C944C090C944C090C944C090C944C09AC
:100080000C94E5220C944C090C944C090C944C09EA
:100090000C944C090C944C090C944C090C944C098C
:1000A0000C944C090C944C090C944C09D5F08D140B
:1000B000A1C881CFD9F1AF20000B0BF8FCFE03DB08
:1000C000DBDB27FEFCF8000103060606060703013A
:1000D000007E436F6E6669726D007E4162616E6480
:1000E0006F6E7E67616D650A7E616E647E72657497
:1000F00075726E3F0020596F757E63616E7E6E6F04
:10010000740A20706C61797E617E626F6E650A2070
:10011000616E647E706173732E007E497E63616ED2
:1001200027747E676F2E7E490A7E77696C6C7E68C5
:100130006176657E746F0A7E706173732E007E49EE
:100140007E63616E27747E676F2E7E490A7E7769B3
:100150006C6C7E647261777E616E0A7E6578747203
:10016000617E626F6E652E00506C61796572200051
:100170003E0B01FFFFFF21233F3E1C03FFFFFF015A
:100180000080400080E07E4F7FFCF0C0010387FFCD
:10019000FFFC0703010001FFFFFF113983C201FFCC
:1001A000FFFF117FFFEEC080C49E3F3FF9FBF3626B
:1001B0000103050505060400000103050505050505
:1001C00006050305050605030505070403050505E2
:1001D00007000004070505050503010605050503DD
:1001E00001060505030204050505030100000503DA
:1001F000010307030105030406070604320031006A
:100200004E756D6265727E6F667E706C6179657227
:10021000737E3F00210BFE12120C00F00808100044
:1002200070A8A8300090A8A8480090A8A84800008E
:100230007CFE87DB87FE7C000000000000000000E1
:1002400000000000000000000000000000000000AE
:10025000000102050505020105050E191D1F0E5BB3
:100260002F0000000000000000000000000000005F
:10027000000000000000000000000000000000007E
:100280000000F80402E191D1F1E101010101010155
:1002900001E191D1F1E10204F8D0A0C0000000001A
:1002A000000000000000000000000000000000004E
:1002B000000000000000000000000000000000003E
:1002C00000000000000000E01008844444C48404DE
:1002D000040404040404844444C4840810FF00009B
:1002E0000001010100003864747C38000001010144
:1002F000000000EF170B874444C484040404040482
:100300000404844444C4840810E0408000000000D9
:1003100000000000000000C0C0C0C0C0C0C0C0C01D
:1003200080800F00000386C7C7C3C0C080000000E4
:10033000C0C3C6C7C70300008FC0C0CEC90DCFCE93
:10034000C0C0C0C000C0C0CEC98D0F0E00C0CFC09D
:10035000C003060787C3C0C0C0C080000003C6C773
:10036000C7C3C0C0CFCFCE0F000080C0C0C0C0C0C8
:10037000C08080FFFFFFFF8080C1FFFFFF3E003E87
:100380007FFFFFE08083FFFF7F3E0080FFFF0F7F46
:10039000FEF81FFFFFFFFF800080FFFFFFFF8000D0
:1003A00080FFFF8F0F1F3E7CF8FFFF00003E7FFFA6
:1003B000FFE08083FFFF7FBE0080FFFFFFFF8CBE5A
:1003C000BEC1E000E7CF9F9FBEFCFDFB73010305AC
:1003D0000909090909090A040201000000010305CD
:1003E00009090A04020081C345CA8401C2C509097A
:1003F00009C9C90A05090909C9C94A4D01C9C90A72
:10040000CDC204C8C907C0C142440A89C949C985C7
:100410000201040A09090909090909050302040A74
:1004200009090905030100000000000000000000A8
:1004300000000000000000000000000000000000BC
:10044000007F7F107F7F007F7F4040007F7F4040A4
:100450000000007F7F0404007F7F001F7F607F1FFC
:10046000007F7F4444003377447D3D00000000005E
:10047000000000000000000000000000000000007C
:100480000000004120FE0105F1F1F111D1B1D111BF
:10049000F1515151515151515151515151515100FD
:1004A00000FF00007F7F09090F06007F7F19396F69
:1004B00046007F7F4949414100266F49497B320010
:1004C000266F49497B32FF0000FFFFFFFEFFFEFF62
:1004D0000279CD95A5CD790111111101F9F901012B
:1004E0000000FF00007F7F09090F06007F7F40406A
:1004F0004040007C7E0B0B7E7C00070F78780F0756
:10050000007F7F3E1C0800FF00001F3F3F33333356
:1005100033333E36363E363E363E36363E36363E51
:10052000360000FF00003E7F41417F3E007F7F0E8E
:100530001C7F7F00000000000000000000000000A1
:1005400000000000000000003F405040404078465E
:10055000414159594141414159594141414141412B
:10056000414100007F000001017F7F0101007C7E8E
:100570000B0B7E7C007F7F09090F06007F7F4949B6
:100580004141000000000000004974737E796F75DE
:10059000727E7475726E00596F757E63616E7E73C4
:1005A000746172740A7468657E6E65777E67616DCA
:1005B000652C001A40FF00808E93979F8E8080806C
:1005C0008080808080808080800000FFAA55FFFFAF
:1005D00000007098B8F870000000000000007098EB
:1005E000B8F8700000FFAA55FFFF0000008080806F
:1005F00000001C262E3E1C0000808080000000FFB2
:10060000AA55FF1F204087898B8F8780808080803C
:10061000808087898B8F8740201F2A4583FC0201B9
:10062000384C5C7C3800000000000000384C5C7CDA
:10063000380102FCAA55FFFF000080C0C0C0800046
:1006400000000000000080C0C0C0800000FFAA556C
:10065000FFFF004043444547434040404040404046
:1006600043444547430000FFAA55FFFF0000000038
:10067000000000000080808000001C262E3E1C0030
:1006800000FFAA55FF1A40FF00000E13171F0E00AF
:100690000000000000000E13171F0E0000FFAA55F7
:1006A000FFFF00010101010101010101010101013F
:1006B0007199B9F9710000FFAA55FFFF0000008091
:1006C000808000001C262E3E1C0000000000000060
:1006D00000FFAA55FF1F204087898B8F878080806D
:1006E00080808080808080808040201F2A4583FC1D
:1006F0000201384C5C7C3800000000000000384CDF
:100700005C7C380102FCAA55FFFF000080C0C0C01D
:1007100080000E13171F0E0080C0C0C0800000FFB5
:10072000AA55FFFF00202324252723202020202056
:10073000202023242527230000FFAA55FFFF0000C7
:100740001C262E3E1C000080808000001C262E3EB1
:100750001C0000FFAA55FF420B030F3FFFF87B1F51
:100760007FFFF0790FC301FFFFFF010003FFFF1EB2
:100770003C78F9FFFF0103FFFF1E3C78F9FFFF0102
:100780000001FFFFFF113983C201FFFFFF117FFF4F
:10079000EEC080C49E3F3FF9FBF3620000000103FE
:1007A000040300010304030001030505070401031A
:1007B00005050604000305060505050700020405F6
:1007C00007000205050505050503060505050305E2
:1007D000040503010204050505030100004618F89D
:1007E00004FAFDFDFDFDFDFDFDFDFDFDFDFDFDFD35
:1007F000FDFDFDFDFDFDFDFDFDFDFDFDFDFDFDFD29
:10080000FDFDFDFDFDFDFDFDFDFDFDFDFDFDFDFD18
:10081000FDFDFDFDFDFDFDFDFDFDFDFDFDFDFDFD08
:10082000FDFDFA04F8FF00FFFFFFFFFFFFFFFFFFE2
:10083000FFFFFFFFFFFFFFFFFFFFFFFFFFFFFFFFC8
:10084000FFFFFFFFFFFFFFFFFFFFFFFFFFFFFFFFB8
:10085000FFFFFFFFFFFFFFFFFFFFFFFFFFFFFFFFA8
:10086000FFFFFFFFFFFFFFFFFF00FFFF00FFFFFF96
:10087000FFFFFFFFFFFFFFFFFFFFFFFFFFFFFFFF88
:10088000FFFFFFFFFFFFFFFFFFFFFFFFFFFFFFFF78
:10089000FFFFFFFFFFFFFFFFFFFFFFFFFFFFFFFF68
:1008A000FFFFFFFFFFFFFFFFFFFFFFFFFFFFFF0057
:1008B000FFFF00FFFFFFFFFFFFFFFFFFFFFFFFFF47
:1008C000FFFFFFFFFFFFFFFFFFFFFFFFFFFFFFFF38
:1008D000FFFFFFFFFFFFFFFFFFFFFFFFFFFFFFFF28
:1008E000FFFFFFFFFFFFFFFFFFFFFFFFFFFFFFFF18
:1008F000FFFFFFFFFF00FF3F40BF7F7F7F7F7F7FC6
:100900007F7F7F7F7F7F7F7F7F7F7F7F7F7F7F7FF7
:100910007F7F7F7F7F7F7F7F7F7F7F7F7F7F7F7FE7
:100920007F7F7F7F7F7F7F3FDFDFDFDFDF3F7F7F77
:100930007F7F7F7F7F7F7F7F7F7FBF403F00000083
:100940000101010101010101010101010101010197
:100950000101010101010101010101010101010187
:1009600001010101010101010101010103040B0B5E
:100970000B0B0B043349B5B54931010101010101EC
:10098000000000492077696C6C20706C61790A74F2
:100990006865202020207E626F6E652E001A200080
:1009A000000000000FF909498949894989498949A5
:1009B00009F90F000000000000000000000000071F
:1009C0000C1932E5CA15CAE532190C0700000000FF
:1009D000000000000000000000F80C060301000009
:1009E000000103060CF800000000000000000000F9
:1009F00000003C27242424242424242424242427E1
:100A00003C00000000000000000000000FF9090990
:100A1000890989098909890909F90F00000000007D
:100A200000000000000000070C1932E5CA55CAE5B5
:100A300032190C0700000000000000000000000058
:100A400000F80C0603010055000103060CF8000035
:100A5000000000000000000000003C2724242424A3
:100A600024242424242424273C0000000000000027
:100A7000000000000FF90909090909090909090914
:100A800009F90F000000000000000000000000074E
:100A90000C1932E5CA95CAE532190C0700000000AE
:100AA000000000000000000000F80C06030100AA8E
:100AB000000103060CF80000000000000000000028
:100AC00000003C272424242624262426242424270A
:100AD0003C00000000000000000000000FF90909C0
:100AE000090909090909090909F90F0000000000AD
:100AF00000000000000000070C1832E4CA54CAE4E9
:100B000032180C0700000000000000000000000088
:100B100000F80C0603810095008103060CF8000024
:100B2000000000000000000000003C2724262526CD
:100B300025262526252624273C000000000000004D
:100B4000000000000FF90909090909090909090943
:100B500009F90F000000000000000000000000077D
:100B60000C1830E4C894C8E430180C0700000000EA
:100B7000000000000000000000F80C060381408A1D
:100B8000408103060CF80000000000000000000097
:100B900000003C2724262526252625262526242731
:100BA0003C00000000000000000000000FF90909EF
:100BB000090909090909090909F90F0000000000DC
:100BC00000000000000000070C1830E0C850C8E02A
:100BD00030180C07000000000000000000000000BA
:100BE00000F80C8643814085408143860CF8000064
:100BF000000000000000000000003C2724262526FD
:100C000025262526252624273C000000000000007C
:100C1000000000000FF90909090909090909090972
:100C200009F90F00000000000000000000000007AC
:100C30000C1830E0C090C0E030180C070000000035
:100C4000000000000000000000F80C8643A140AA4C
:100C500040A143860CF800000000000000000000E6
:100C600000003C2724262526252625262526242760
:100C70003C00000000000000000000000FF909091E
:100C8000090909090909090909F90F00000000000B
:100C900000000000000000070C1830E0C040C0E079
:100CA00030180C07000000000000000000000000E9
:100CB00000F80C8643A150A150A143860CF8000017
:100CC000000000000000000000003C27242625262C
:100CD00025262526252624273C00000000000000AC
:100CE000000000000FF909090909090909090909A2
:100CF00009F90F00000000000000000000000007DC
:100D00000C1830E0C000C0E030180C0700000000F4
:100D1000000000000000000000F80C8643A150A86D
:100D200050A143860CF80000000000000000000005
:100D300000003C272426252625262526252624278F
:100D40003C000000000000000000008040A050288F
:100D50001C2840800000000000000000000000008F
:100D600000081C0A152241808080808000003F60BE
:100D700040404040800000000000000000000000F3
:100D80000000000000013F40942854289448A451DA
:100D90002A140E0400000000000000000000000003
:100DA000000000050E0502010000000000000080A8
:100DB00080808000000000000000000000000000B3
:100DC000000000000080808080FF0000FF01010122
:100DD0000103060C18B0B0180C8643A151A151FFB5
:100DE0000000FF3F20203F10101010180C060301D8
:100DF0000103060C19121512153F20203F000000B8
:100E000000000000000000000000000000000000E2
:100E100000000000000000000000000000000000D2
:100E20000000008040281C2850A0408000000000E6
:100E30000000000000008040404040603F002894D7
:100E4000A894A8944922150A1C0800040E142A51DB
:100E5000A0408000000080403F0100000000000032
:100E600000000000000000000000000102050E0567
:100E7000000000000000000000000000000000046E
:100E8000041C22221C00243E2024322A2414222A5C
:100E9000140C0A3E082E2A2A121C2A2A1002320A90
:100EA00006142A2A14242A120C0509FF8244A85089
:100EB0000100010000FFFE7CB850010001000005A8
:100EC0000950A84482FF000001000150B87CFEFFD9
:100ED00000000100011109FE01552955295529017C
:100EE00029552955295501FE000101010101010182
:100EF0000101010101010101000911FE01FDFDFDDA
:100F0000FDFD01FEFF007E7E7E7E7E00FF00010172
:100F10000101010101000911FE0155A955A9550161
:100F2000FEFF002A542A542A00FF0001010101019A
:100F30000101000911FEFFFFFFFFFFFFFFFEFFFFA2
:100F4000FEFEFEFEFEFFFF000101010101010100A6
:100F50000911FE01010101010101FEFF0001010172
:100F6000010100FF0001010101010101000505006F
:100F7000000000000000040000010000001001005B
:100F800004001011000000111100040011150000F0
:100F900000151109FEFFFFFFFFFFFFFF01FFFFFF2D
:100FA000FFFFFFFFFE00010101010101010101013D
:100FB000010101010100050740404040404040441C
:100FC00040404140404050414044405051404040EA
:100FD00051514044405155404040551109FE0101D6
:100FE00001010101017D01010101010101FE000179
:100FF000010101010101010101010101010100479C
:10100000726561747E776F726B000A2020492077C9
:101010006F6E202100596F757E686176657E7573ED
:1010200065640A75707E616C6C7E6F667E796F7523
:10103000720A626F6E65732100596F757E68617602
:10104000657E757365640A75707E616C6C7E6F6613
:101050007E796F75720A626F6E657321007E497EBC
:10106000686176657E757365640A7E75707E616CF5
:101070006C7E6F667E6D790A7E626F6E657321008D
:1010800004083E09093E3F25251A1E2121123F2151
:10109000211E3F2525213F0505011E21293A3F0438
:1010A000043F213F21001021211F3F040A313F202E
:1010B00020203F02023F3F02043F1E21211E3F0924
:1010C00009061E21112E3F09093622252519013F47
:1010D00001011F20201F0F10201F3F10103F3B0455
:1010E000043B03043807312D2321102A2A3C3F24D6
:1010F00024181C2222141824243F1C2A2A2C043EC3
:1011000005014C52523E3F040438243D200040402B
:10111000443D3F081422213F20003E04043E3E048B
:10112000023C1C22221C7E22221C1C22227E3E0407
:101130000204242A2A12021F22201E20201E0E1022
:10114000201E3E10103E360808364E50503E322AC1
:1011500026221E29251E223F20003229292612215F
:10116000251A0C0A3F08172525191E2525180139AF
:1011700005031A25251A0629291E002F0000002024
:1011800000000229050200040400000201000040E2
:10119000200009061A202020202020201A060900FD
:1011A00001000101FE0001000101000609FE01012C
:1011B0000001000001010001000906160101010102
:1011C000010101161109AA01542954295429005575
:1011D000285528552801AA0001000100010001003E
:1011E00001000100010001001109AA010001000134
:1011F00000010001000100010001AA00010001003E
:101200000100010001000100010001000911AA0113
:1012100054A954A95401AAAA002A542A542A00AA5B
:101220000001000100010001000911AA01000100F4
:10123000010001AAAA00000000000000AA000100AD
:10124000010001000100462311241FBECFEFDAE0A8
:10125000DEBFCDBF12E0A0E0B1E0EAEBF9E602C0EC
:1012600005900D92AC30B107D9F727E0ACE0B2E0C1
:1012700001C01D92A833B207E1F719E0C4E2D9E03A
:1012800004C02197FE010E94E332C332D107C9F79F
:101290000E9494230C94DB340C9400006F927F9294
:1012A0008F929F92AF92BF92CF92DF92EF92FF9276
:1012B0000F931F93CF93DF93DC01FA0114913196C2
:1012C00054913196C12FD0E0222309F1CC24C3944C
:1012D000D12C852F877011F4D12CC12CE52EE694EA
:1012E000E694E694EC0CFD2CF11CEC9EC001ED9E06
:1012F000900DFC9E900D1124033011F4880F991F5E
:10130000289F7001299FF00C1124EE0DFF1D7D0117
:10131000EC0EFD1E1E141F040CF06BC0A038B105AE
:101320000CF067C0CB01850F911D181619060CF043
:1013300060C0603471050CF05CC0309709F459C08E
:10134000362F3770CB0177FD079623E0959587956B
:101350002A95E1F7282F77FF04C0332311F02FEFF0
:10136000280F662777276A1B7B0BB7FD02C070E04A
:1013700060E090E89A1B40E8E416F1040CF4912F29
:10138000961BE22E022E000CFF08DE2CD0942F3F7D
:101390000CF0D12C41E0852F877009F440E0B52E88
:1013A000B694B694B6944B0DE40EF11C89E0E816A1
:1013B000F10414F048E0421BB42EBD182D0D40E896
:1013C000240370011124AE0DBF1DA60FB71F1D9D74
:1013D000600D711D1124AF01460F571FC32E032E40
:1013E000000CDD08033009F4C7C090F4023009F4A2
:1013F00074C0DF91CF911F910F91FF90EF90DF901C
:10140000CF90BF90AF909F908F907F906F900895F6
:101410000A3FA1F1B20E0B3F61F72B1551F3BD014D
:101420006C5C7C4F10E000E0091708F09FC0FA01E7
:10143000E00FF11FE491F0E04F010C2C02C0880C8A
:10144000991C0A94E2F727FD06C0FB018081F82C65
:10145000F0948F218083332361F0273054F47B0193
:10146000F0E8EF0EF11CA92CA094F70180818A21ED
:1014700080830F5F1F4F6F5F7F4FD6CFB20E2B154C
:1014800009F4B7CFBD016C5C7C4F10E000E0091798
:1014900008F066C0FA01E00FF11FE491F0E04F019F
:1014A0000C2C02C0880C991C0A94E2F727FD04C09A
:1014B000FB01808188298083332351F0273044F455
:1014C0007B01F0E8EF0EF11CF70180818929808310
:1014D0000F5F1F4F6F5F7F4FDACF6FEF70E0032E0C
:1014E00002C0660F771F0A94E2F760957095972EF9
:1014F0008B2C820E281509F47CCF8D010C5C1C4FBF
:10150000F12CE12CE91630F5FA01EE0DFF1DE49106
:10151000F0E03F010C2C02C0660C771C0A94E2F745
:1015200027FD05C0F8018081862386298083332327
:1015300059F027304CF45801F0E8AF0EB11CF5011A
:101540008081892187298083FFEFEF1AFF0A0F5FCF
:101550001F4FD8CF2F5F4C0F5D1FA058BF4FCACF72
:101560002F5F4C0F5D1FA058BF4F89CF2F5F4C0FCF
:101570005D1FA058BF4F51CFE92EF12CFA01E60FA5
:10158000F71FAC5CBC4F60E870E06E197F09CE19A4
:10159000DF098E01000F111F41E050E07A01032E98
:1015A00001C0EE0C0A94EAF7592F4B2D892E932E89
:1015B000CF93DF93ED01EF96EF962296A590C5901D
:1015C000992059F0AE9C5001CE9C600127302CF43C
:1015D000F880D094FD20FB28F99222233AF0FC9069
:1015E000C094FC20FA28FD920C94F70A11965A95A3
:1015F00029F74A9551F0582D23951124E00FF11D3C
:10160000A60FB11DC60FD11DD9CFDF91CF911124E7
:10161000F0CEE4E3F3E0A0E0B8E000800EBC81117E
:10162000012C1197A0FDFDCF0192B9F70DB40895DB
:1016300080E0E4E3F3E081118FEF00248193819354
:10164000819381930394D1F70895CF93DF93A82FCB
:10165000FB01E9013091110180910901380F80915E
:101660000E018F3FA9F080910C013150380F832F6C
:1016700065E00E94C332911108C08081831728F46D
:10168000308382E08883FA01A083DF91CF910895AF
:1016900080E0EBCFCF93DF93A82FFB01E9013091DE
:1016A000110180910901380F809107018F3FE1F00E
:1016B00080910601315090910E019F3FB9F09091B9
:1016C0000C01380F390F832F65E00E94C33291114E
:1016D00008C08081831728F4308381E08883FA0171
:1016E000A083DF91CF91089580E0E4CF90E0E9CF2F
:1016F0001F93CF93DF93182FFB01DA01E90180914B
:101700001603823009F148F43091100132508130D3
:10171000F1F0DF91CF911F910895833031F1843042
:10172000C1F780910E0190910C018F3F09F490E078
:10173000809107018F3FE1F080910601309109010E
:101740003150390F380F03C0309110013150832FC1
:1017500065E00E94C3329111DCCF80818317C8F607
:10176000308384E088831C93D4CF30910901EECF7D
:1017700080E0E4CF1F93CF93DF93182FFB01DA01B2
:10178000E90150911603533059F05430C9F03091AB
:101790000F013250513031F1DF91CF911F910895F7
:1017A000309111013150832F65E00E94C3329111B5
:1017B000F3CF8081831780F7308358831C93ECCF5D
:1017C00080910E0190910C018F3F09F490E080917F
:1017D00007018F3FA1F08091060130911101315036
:1017E000390F380F832F65E00E94C3329111D4CF97
:1017F0008081831788F6308383E08883DFCF80E0A1
:10180000ECCFCF93DF93A82FFB01E90130911001BA
:1018100080910F01380F3150832F65E00E94C33251
:10182000911108C08081831728F4308384E0888375
:10183000FA01A083DF91CF9108953FB7F89480918A
:10184000110390911203A0911303B091140326B5D4
:10185000A89B05C02F3F19F00196A11DB11D3FBFE8
:10186000BA2FA92F982F8827BC01CD01620F711DB7
:10187000811D911D42E0660F771F881F991F4A95B1
:10188000D1F708958F929F92AF92BF92CF92DF923D
:10189000EF92FF926B017C010E941D0C4B015C01D9
:1018A000C114D104E104F104B9F00E941D0C6819BF
:1018B00079098A099B09683E73408105910580F387
:1018C00021E0C21AD108E108F10888EE880E83E011
:1018D000981EA11CB11CE4CFFF90EF90DF90CF9039
:1018E000BF90AF909F908F900895AF92BF92CF928C
:1018F000DF92EF92FF920F931F93CF93DF936C01D0
:101900007B018B01040F151FEB015E01AE18BF08B0
:10191000C017D10759F06991D601ED91FC91019062
:10192000F081E02DC6010995892B79F7C501DF917A
:10193000CF911F910F91FF90EF90DF90CF90BF90CC
:10194000AF90089520913303E0913103F091320379
:10195000CF0102969093320380933103222319F032
:10196000859194910895808191810895CF92DF921D
:10197000EF92FF92CF93DF930E94A20C811520E893
:10198000920791F4809171008D7F80937100109285
:1019900091004698479810920503DF91CF91FF90F0
:1019A000EF90DF90CF90089521E0209305038130E0
:1019B00020E8920751F480912103909122039093A3
:1019C0003203809331030E94A20C97FD05C0209141
:1019D0000403222309F454C020910303211150C0B1
:1019E00021E020930603EC01DF77209709F04BC03C
:1019F00081E08093070346983FE9C32E3FE0D32E52
:101A0000E12CF12CCAEFD0E0E0910103F091020348
:101A10000995811103C081E080930703809106033B
:101A2000882329F080910703882309F43FC0479851
:101A30000E94A20C0097F1F19C01DE010E94B432D9
:101A4000DC01CB0129E0B595A795979587952A9557
:101A5000D1F7109290002AE020939100D092990043
:101A6000C09298008093080390930903A0930A03FF
:101A7000B0930B03809171008260809371008DCFD1
:101A800010920603B0CF9E0150E040E060E472E4A3
:101A90008FE090E00E94293269017A0181E0C81A42
:101AA000D108E108F10810920703AECF4699BFCFE5
:101AB000479ABECF8FEF9FEFDC01CBCF9C01E1E7D0
:101AC000F0E090819D7F908310923303E3E2F3E096
:101AD000F0933203E0933103F0932203E093210368
:101AE000318320838EE190E09383828380E090E8CD
:101AF000958384830C94B60C0F930AEF0E944E09D1
:101B00000F9108950F930BEF0E944E090F910895C6
:101B10000F9302E00E944E090F910895962F682FAF
:101B200070E020E04CE052E1911102C049E252E144
:101B300087E190E00C94880D90E020E044EC51E1C6
:101B4000611102C048EE51E167E170E00C94880D2C
:101B5000BC0190E080E00C94420C8FB18095807FB6
:101B6000669B88601C9B84600895809100030895A3
:101B70008091FF028093FE020E94AD0D8093FF02D0
:101B80000895CF93C82F0E94AD0D982F9C2381E01C
:101B90009C1380E0CF91089580E00C94090B80386D
:101BA0009105B8F460347105A0F420E191E061FD85
:101BB00094E060FD990F62FD9295687F269FD001A9
:101BC0001124A80FAC5CBC4F8C9140FF03C0892B43
:101BD0008C93089590958923FBCF8F929F92AF921B
:101BE000BF92CF92DF92EF92FF920F93CF93DF934A
:101BF0004B01EC015C01A40EB11C7B01E20EF11C57
:101C0000CA15DB05B4F46401C70121E4E216F1044E
:101C100014F080E490E0C816D9064CF4402FB601C9
:101C2000CE010E94CF0D8FEFC81AD80AEDCF2196B2
:101C3000E7CFDF91CF910F91FF90EF90DF90CF90A2
:101C4000BF90AF909F908F9008958FB7F894409178
:101C50000D0350910E0360910F03709110038FBF1D
:101C60008091FC02882321F01092FC0280E008950C
:101C70009091FD02242F291B203138F42F30A1F040
:101C800091E093BF889513BE089581E08093FC0294
:101C90004093FD028091FA029091FB02019690938D
:101CA000FB028093FA0281E00895DC011196FC01A9
:101CB0009C01265F3F4F4D9119964C931997A2179F
:101CC000B307C9F79C01285031094389403229F4F0
:101CD000138A3197E217F307C1F70B960895CF9354
:101CE000DF93EC016A3059F48D818C838E81998564
:101CF000890F8E8381E090E0DF91CF9108958C81F0
:101D00006E3719F48D5F8C83F5CF262F6E816F5F50
:101D10002A33A0F4203388F52C3259F148F42132CB
:101D200081F1273281F198859C5F8C81890FEBCFFF
:101D30002D3229F12E32B9F72FE30DC02B3530F4B7
:101D40002134C8F42F3379F720E405C09FE9920FBE
:101D500027549A3140F7062E000C770B082E000C02
:101D6000990B3F8140E850E1313079F40E947C0DBD
:101D7000DACF23E4F0CF2154EECF2C5FECCF21E477
:101D8000EACF2EE3E8CF22E4E6CF0E94820DCBCF4C
:101D90000F931F93CF93DF938C01D0E0C0E0F80145
:101DA000EC0FFD1F6491662341F087E193E00E94F0
:101DB0006F0E892B11F02196F2CFCE01DF91CF91DA
:101DC0001F910F910895089590E080E0089530915B
:101DD0000F0120911001321701F1409112019091F1
:101DE000110180910B0149131AC090910A019F3F84
:101DF000B1F45091040150930A01309308012093EB
:101E000009018093040140930F01409310019093C6
:101E10000B01909312019093110181E0089590912C
:101E2000080140910901941319C08F3F79F5409141
:101E3000040140930B012093120130931101209172
:101E40000A012093040190930F0190931001809355
:101E50000A018093080180930901DFCF8F3FB1F41D
:101E60005091040150930B01309311012093120102
:101E700020910A012093040190930F0140931001D7
:101E800080930A01809308018093090180E00895FE
:101E90000E94B80D88E00E94C10D81110AC084E043
:101EA0000E94C10D811107C084E690E00E94A80D38
:101EB000F1CF88E0089584E00895CF93DF93D82F81
:101EC000C0E088E00E94C10D81110CC084E00E9436
:101ED000C10D811107C084E690E00E94A80DCF5F7C
:101EE000DC13EFCFDF91CF910895CF92DF92EF9285
:101EF000FF920F931F93CF93DF9383E8C82EC4BC48
:101F000086EE87BD90E8E92EF12C21EFD22EF70165
:101F1000D08208E810E0F8011082CAE8D0E0188208
:101F200084E690E00E94A80DC4BC8FEF87BDF70146
:101F3000D082F80110821882DF91CF911F910F910A
:101F4000FF90EF90DF90CF900895BF92CF92DF92F5
:101F5000EF92FF920F931F93CF93DF9383E8B82EF6
:101F6000B4BCCC24CA94C7BC90E8E92EF12C21EF74
:101F7000D22EF701D08208E810E0F8011082CAE8FA
:101F8000D0E089E1888384E690E00E94A80DB4BC8B
:101F9000C7BCF701D082F80110821882DF91CF917F
:101FA0001F910F91FF90EF90DF90CF90BF90089519
:101FB00050911603552359F1E82FF0E0E45AFE4FF3
:101FC0009081892F82958F709F70209110013091A0
:101FD0000F0123131EC0281711F0291310C04091C0
:101FE00009014F3FA1F0409111014F3F81F0409115
:101FF0000C014F3F61F0409106014F3F41F040918D
:1020000009014F3FA9F4281711F0291315C081E0E9
:102010003FC0381711F0391304C0409111014F3FF0
:10202000B1F3281711F02913EACF40910901E5CF48
:10203000481769F3491759F3409111014F3FC9F40B
:10204000381729F3391719F3543089F430910C01FA
:102050003F3FA1F42817D9F22917C9F230910601A0
:102060003F3F89F4281799F281E0291789F080E031
:102070000895481761F24913E7CFC9CF381739F2ED
:102080003913ECCFC4CF381711F281E03913EFCFF9
:102090000895FF920F931F93CF93DF9390E0FC017D
:1020A000EE54FD4FF0802CE1289F8001299F100DF8
:1020B0001124D0E0C0E0CF1588F4FE01E00FF11F3D
:1020C000E75AFD4F80810E94D80F2196882399F30B
:1020D000DF91CF911F910F91FF90089580E0F8CF8D
:1020E00090E0FC01EE54FD4F70812CE1289FA0018F
:1020F000299F500D112430E020E080E0271798F44C
:10210000F901E40FF51FE75AFD4FE081F0E0E45AD2
:10211000FE4F9081692F6F7092959F70960F890F77
:102120002F5F3F4FEBCF65E00E94C332933028F41E
:10213000982F990F990F890F089591E0980F892F83
:10214000880F880FF8CF90E0FC01EE5AFD4F2081F8
:10215000855B9D4FFC018081280F3327331F81E071
:102160002730310509F080E00895E62FF0E0E45AC9
:10217000FE4F2081922F9F70981303C0922F92954B
:102180009F70892F0895E62FF0E0E45AFE4F90816A
:10219000292F2F7092959F70921719F090E0890F58
:1021A0000895982FFCCF0F931F93CF93DF93109137
:1021B0000E01D0910A0160910B01809104018F3FC3
:1021C00081F41F3FF1F4809107018F3FD1F4DF3F8D
:1021D000D1F46F3FD9F5862FDF91CF911F910F91E9
:1021E00008951F3F71F4809107018F3F51F4DF3F45
:1021F00051F46F3F59F560910F0180911001680F04
:10220000EACFDF3FC9F16F3F41F1809111010E9498
:10221000C310C82F6D2F809109010E94C310082F91
:10222000D0E01F3F31F0612F80910C010E94C3105C
:10223000D82F6091070180E06F3F21F08091060167
:102240000E94C3106C2F600F6D0FD9CF80911101C8
:102250000E94C310C82F80E006C0C0E06D2F80919F
:1022600009010E94C31090910F0160911001961313
:1022700001C0660F8C0FC3CF6F3F41F7C0E0EBCFBB
:10228000BF92CF92DF92EF92FF920F931F93CF9363
:10229000DF93B82E162F622F70E0842F90E0EB01B1
:1022A00022966C0122E0C20ED11C7C012AE0E20ED3
:1022B000F11C20E00023D9F042E95FE00E947C0D90
:1022C0002B2D4DE65FE0BE01C6010E94820D212F3D
:1022D0004DE65FE0BE01C701DF91CF911F910F91E5
:1022E000FF90EF90DF90CF90BF900C94820D4BED5C
:1022F0005FE00E947C0D2B2D46EB5FE0BE01C60126
:102300000E94880D212F46EB5FE0BE01C701DF91DF
:10231000CF911F910F91FF90EF90DF90CF90BF90E2
:102320000C94880DBF92CF92DF92EF92FF920F93A1
:102330001F93CF93DF93B82E162F622F70E0842F58
:1023400090E06B0122E0C20ED11CEC0122967B01D1
:102350002AE0E20EF11C20E00023D9F043E35FE025
:102360000E947C0D2B2D4DE65FE0B601CE010E9450
:10237000820D212F4DE65FE0B701CE01DF91CF91B5
:102380001F910F91FF90EF90DF90CF90BF900C9432
:10239000820D40E55FE00E947C0D2B2D46EB5FE057
:1023A000B601CE010E94880D212F46EB5FE0B701F8
:1023B000CE01DF91CF911F910F91FF90EF90DF90B1
:1023C000CF90BF900C94880D6F927F928F929F92C6
:1023D000AF92BF92CF92DF92EF92FF920F931F9333
:1023E000CF93DF93C82F762E642E811105C0809184
:1023F0002D02C1E08111C2E000E020E440E867E383
:1024000070E090E080E00E94ED0D10912C02D0E091
:102410008C2F90E09C012E543D4F5901E12EF12C60
:10242000C2E14CE1489F9001499F300D1124C90140
:10243000875A9D4F4C019D2F910FF5018081981770
:1024400008F5C92ED12C61104AC0F401EC0DFD1D18
:10245000E081F0E0E45AFE4F808101E0971100E056
:10246000DC9F402D1124465F682F6F7027E3829513
:102470008F700E944011DF5FCE18DF08F5E0CF16A5
:10248000D104CCF221E0111101C020E04FEB5EE05D
:1024900067E370E090E080E00E94880D8091B302D5
:1024A00090E08E199F0921E007970CF420E049EA9B
:1024B0005EE067E370E08AE790E00E94880DDF91BC
:1024C000CF911F910F91FF90EF90DF90CF90BF9031
:1024D000AF909F908F907F906F900C94CC0DDC9F6D
:1024E000C001112420E045ED5EE067E370E00A964C
:1024F0000E94880DC0CFBF92CF92DF92EF92FF92E1
:102500000F931F93CF93DF93E82EB62ED42EC22EB7
:1025100000E025E34FE770E060E08AE390E00E948E
:10252000ED0DF12C11E0D0E0CAE38091AD02F81678
:10253000A8F46D2F70E08C2F90E020E049EF5EE072
:10254000FB1411F046E15FE00E94880DC65FC737BB
:1025500018F0DE5E1F5FCAE3F394E7CFF12C8091A1
:102560004A02F816E0F4EF2DF0E0E25DFD4FE08165
:10257000F0E0E45AFE4F8081682F6F7000E02D2F4D
:102580004C2F82958F700E949211C65FC73718F04A
:10259000DE5E1F5FCAE3143010F4F394E0CF4C2DDD
:1025A0006D2D8E2D0E94E411DF91CF911F910F911F
:1025B000FF90EF90DF90CF90BF900C94CC0DEF92F6
:1025C000FF920F931F93CF93DF93E82F262F30E0D6
:1025D000D901A155BD4F5C91852F64E60E94C3329D
:1025E000C82F852F9CE9C99F800D11249AE0F92EF0
:1025F0006F2D0E94C332D82F192FE111F5C0411160
:1026000047C02E543D4FF901E08000E02FE040E14B
:1026100070E060E090E080E00E94ED0D2C2F4FE72D
:102620005EE070E060E081E090E00E94880D2D2F78
:102630004FE75EE070E060E086E090E00E94880D89
:10264000212F4FE75EE070E060E08BE090E00E94B9
:10265000880D8E2D6F2D0E94C332C92F282F4FE772
:102660005EE068E070E081E090E00E94880D2C2F31
:102670004FE75EE068E070E086E090E00E94880D41
:10268000DF91CF911F910F91FF90EF900C94CC0DA3
:10269000809171008D7F809371001092330383E2EB
:1026A00093E09093320380933103909322038093BD
:1026B000210383E890E0909324038093230382E333
:1026C00090E0909326038093250323E930E0309334
:1026D00028032093270390932A038093290325EA54
:1026E00030E030932C0320932B0390932E038093A0
:1026F0002D030E94B60C01E027E040E170E060E0AD
:1027000090E080E00E94ED0D2C2F4FE75EE070E03E
:1027100060E081E090E00E94820D2D2F4FE75EE0A7
:1027200070E060E086E090E00E94820D212F4FE78C
:102730005EE070E060E08BE090E00E94820DA0CF50
:10274000809171008D7F809371001092330383E23A
:1027500093E090933203809331039093220380930C
:10276000210386E091E090932403809323038EE17C
:1027700090E0909326038093250326E231E0309386
:1027800028032093270390932A03809329032AE4A4
:1027900031E030932C0320932B0390932E038093EE
:1027A0002D030E94B60C01E027E040E16CE270E0EE
:1027B00090E080E00E94ED0D2C2F4FE75EE06CE290
:1027C00070E081E090E00E94820D2D2F4FE75EE0E7
:1027D0006CE270E086E090E00E94820D212F4FE7CE
:1027E0005EE06CE270E0A7CF4111AACF00E027E0E5
:1027F00040E16CE270E090E080E00E94ED0D2C2F53
:102800004FE75EE06CE270E081E090E00E94880DAE
:102810002D2F4FE75EE06CE270E086E090E00E94D2
:10282000880D212F4FE75EE06CE270E08BE090E0D6
:1028300025CFCF92DF92EF92FF920F931F93CF930A
:10284000DF93182FC62FD42F00E022E347E370E078
:1028500060E090E080E00E94ED0DC11128C040E0F2
:1028600060E080E00E94DF1261E0111162E040E070
:1028700081E00E94DF1210911603EE24E394D1113F
:10288000E12C111122C06E2D83E10E949C0D40E0CD
:10289000609115038C2F0E94E411DF91CF911F915D
:1028A0000F91FF90EF90DF90CF900C94CC0D60E0F3
:1028B000112321F061E0C23009F062E040E080E0E5
:1028C0000E94DF1240E06C2FD3CFC0901001D09057
:1028D0000F01FF24F394D43009F0F12C123089F465
:1028E0000F2D27E149E060911201809111010E94B2
:1028F00040110E2D27E14CE16C2D8D2D0E944011D1
:10290000C6CF143069F4E0910E0101E0D13009F036
:1029100000E0EF3F09F062C0602F85E00E948E0D5D
:10292000E0910B01EF3F09F06CC06F2D81E00E9438
:102930009C0D0E2D27E143E16C2D8D2D0E94401141
:10294000E0910A0101E0D33009F000E0EF3F09F027
:102950006DC0602F85E20E949C0D143009F097CF66
:10296000E091070101E0D23009F000E0EF3F09F00B
:1029700071C0602F81E20E948E0D89CF26E043E175
:102980000E94401120E049EB51E160E170E087E1F5
:1029900090E00E947C0DC4CF0F2D23E141E00E9406
:1029A000921120E04BEA51E167E170E08BE090E0AA
:1029B0000E947C0DBECF23E14CE20E94921120E0E8
:1029C0004DE951E167E170E085E290E00E947C0D05
:1029D000C4CF21E247E10E94921159CFF0E0E45ABE
:1029E000FE4F908160910D0180910C01292F22955D
:1029F0002F709F70291711F225E047E10E94921174
:102A00008FCFF0E0E45AFE4F9081609112018091E7
:102A10001101292F22952F709F70291709F4BCCF1F
:102A20000F2D27E141E00E94401183CFF0E0E45AEE
:102A3000FE4F90816091090180910801292F229514
:102A40002F709F70291709F4B6CF27E145E20E9445
:102A5000401183CFF0E0E45AFE4F9081609106016F
:102A600080910501292F22952F709F702913B1CFD6
:102A700028E243E10E94401120E042E951E161E295
:102A800070E087E190E00E947C0D01CF1F93CF930F
:102A9000DF93D62F811123C060E0D11127C0C1E0A0
:102AA00040E060E080E00E94DF1240E06C2F81E0B7
:102AB0000E94DF12C1E0D0E04C2F417060E080E066
:102AC0000E94DF128AEF90E00E94A80DDF5FCF5FC7
:102AD000C170D63089F7DF91CF911F91089561E0E1
:102AE000D23021F0C2E0DD23D9F262E040E080E0A4
:102AF0000E94DF1240E06D2F81E00E94DF12C1E0F2
:102B000010E04C2F41706D2F81E00E94DF128AEFA0
:102B100090E00E94A80D1F5FCF5FC170163089F74B
:102B2000DACFFF920F931F93CF93DF93082F162FC7
:102B3000F42EC62FD0E0842F90E0223009F4A8C0F4
:102B400028F5222309F445C0213009F478C09E01FC
:102B50002E543D4FF9018081682F6150770BAB01F6
:102B60009CE19C9FB0019D9F700D1124675A7D4F81
:102B7000AF2DB0E0A417B5070CF0F7C0A60FB71F34
:102B800011969C9111979C93F394F2CF233009F402
:102B9000A8C02430E1F620910B013CE13C9FF001FC
:102BA0003D9FF00D1124E75AFD4FE80FF91F60819A
:102BB0002F3F09F0CBC060930B01809104018F3F40
:102BC00009F0BFC0809112010E94B51080931101DD
:102BD000BECF209104013CE13C9FF0013D9FF00DF0
:102BE0001124E75AFD4FE80FF91F60812F3FA1F430
:102BF00060930401E62FF0E0E45AFE4F8081282F15
:102C000030E094E0359527959A95E1F720930F01F0
:102C10008F70809310019BCF80914A02E82FF0E0E3
:102C2000E25DFD4F20838F5F80934A026093040131
:102C30008091100180930F010E94B510EACF20917E
:102C40000E013CE13C9FF0013D9FF00D1124E75A3D
:102C5000FD4FE80FF91F60812F3F59F460930E017B
:102C60008091100180930D010E94B51080930C019A
:102C70006ECF80914A02E82FF0E0E25DFD4F2083A5
:102C80008F5F80934A0260930E0180910C01EACF1E
:102C9000209107013CE13C9FF0013D9FF00D112484
:102CA000E75AFD4FE80FF91F60812F3F59F46093F9
:102CB000070180911001809305010E94B510809357
:102CC000060145CF80914A02E82FF0E0E25DFD4F1A
:102CD00020838F5F80934A026093070180910601F1
:102CE000EACF20910A013CE13C9FF0013D9FF00DAD
:102CF0001124E75AFD4FE80FF91F60812F3F91F42F
:102D000060930A01809104018F3F39F4809108019A
:102D10000E94B510809309011ACF80911001809311
:102D20000801F6CF80914A02E82FF0E0E25DFD4F06
:102D300020838F5F80934A0260930A01809109018A
:102D4000EECF80910F01809312013ECF80914A0215
:102D5000E82FF0E0E25DFD4F20838F5F80934A0211
:102D600060930B0180911101EECF9CE19C9FF001DB
:102D70009D9FF00D1124E75AFD4FE40FF51F1082BF
:102D80008150F901808380911603813009F43EC09F
:102D900088F18230D9F1833009F43EC04FEF612FC2
:102DA000802F0E9419140E94D310282F65E00E94E2
:102DB000C33291113FC02223E9F120E04091150375
:102DC0006FEF812F0E947B120E94D310C155DD4FFF
:102DD0009881890F8883612F802F0E94461540E0DB
:102DE00060911503812FDF91CF911F910F91FF907B
:102DF0000C94E41190910F0180911001981302C07E
:102E000083E001C081E080931603C8CF0E94E70EE3
:102E10008111F6CF82E0F7CF80910B018F3F81F3D4
:102E2000809104018F3F61F380910A018F3F41F34C
:102E300084E0E9CF20E0409115036FEF812FDF910F
:102E4000CF911F910F91FF900C947B12BF92CF9264
:102E5000DF92EF92FF920F931F93CF93DF93B82EE1
:102E6000D62FC42F690180911603833041F184303D
:102E700009F43DC08130B9F4842F0E94A310811160
:102E80001CC091E0B11092E080910F019C9F800DD9
:102E90001124F6019081891730F4808383E0F701D3
:102EA0008083F801D083DF91CF911F910F91FF9024
:102EB000EF90DF90CF90BF90089580E0EACF842F0D
:102EC0000E94A31081112CC080910B018F3F61F4EF
:102ED0008091100190910F01890FC80FF601808138
:102EE000C81708F7C083DACF80911101F6CF842F7D
:102EF0000E94A310811114C080910E0190910C01C9
:102F00008F3F09F490E0809107018F3F39F0809165
:102F1000060120911101C20FC90FDFCF80E0F9CF68
:102F2000C0E0DCCFBF92CF92DF92EF92FF920F937F
:102F30001F93CF93DF93B82ED62FC42F69018091B2
:102F40001603823051F160F48130A9F1DF91CF9105
:102F50001F910F91FF90EF90DF90CF90BF90089559
:102F6000833009F443C0843089F7842F0E94A31072
:102F7000811150C080910E0190910C018F3F09F496
:102F800090E0809107018F3F09F442C080910601D3
:102F900020910901C20FC90F07C0842F0E94A310FE
:102FA000811138C080911001C80FF6018081C817C7
:102FB00068F6C08313C0842F0E94A310811114C02F
:102FC00091E0B11092E0809110019C9F800D11243E
:102FD000F6019081891708F0B9CF808384E0F7016A
:102FE0008083F801D083B2CF80E0F2CF842F0E949B
:102FF000A31081110FC080910A018F3F31F480919D
:10300000100190910F01890FCFCF80910901CCCF92
:1030100080E0BECFC0E0C9CFCF92DF92EF92FF92A7
:103020000F931F93CF93DF93D82FC62F7A01690197
:10303000862F0E94A31060E081110DC060911101E4
:1030400080910901680F80910E018F3FB9F0809146
:103050000C016C0F680FF7018081681730F46083F2
:1030600082E0F8018083F601D083DF91CF911F9138
:103070000F91FF90EF90DF90CF90089580E0E9CF1F
:10308000CF92DF92EF92FF920F931F93CF93DF9334
:10309000D82FC62F7A016901862F0E94A31060E005
:1030A00081110DC06091110180910901680F80911B
:1030B00007018F3FB9F0809106016C0F680FF7018F
:1030C0008081681730F4608381E0F8018083F60125
:1030D000D083DF91CF911F910F91FF90EF90DF9000
:1030E000CF90089580E0E9CF0F93CF93C82F00E0F1
:1030F00025E34FE770E060E08AE390E00E94ED0D89
:10310000C230A9F463E0C7E170E020E04DED57E084
:103110008AE390E00E947C0D6C2F70E021E04DED81
:1031200057E08AE390E0CF910F910C947C0D62E020
:10313000CAE1EACF1F93CF93DF93EC01162F862FBE
:103140000E94741810921E0387E0123009F48AE07E
:103150009EE390931C0390931B0380931D034C816B
:103160005D816881798187E193E00E94750C81E03F
:1031700080931E03DF91CF911F910895FF920F93CB
:103180001F93CF93DF938C01F62EC42FD22F84EFA1
:1031900091E00E94A80D8F2D0E94741810921E03BA
:1031A00082E0F81639F187E09EE390931C03909338
:1031B0001B0380931D03F801448155816081718157
:1031C00087E193E00E94750C81E080931E030E94CA
:1031D000CC0DD33089F06D2F80912D020E944615C1
:1031E00085E0CC2361F0DF91CF911F910F91FF908B
:1031F0000C94480F8AE0D8CF84E1C111F4CFDF915D
:10320000CF911F910F91FF900C945D0FEF92FF9261
:103210000F931F93CF93DF93C82F00E025E34FE771
:1032200070E060E08AE390E00E94ED0DD2E093E070
:10323000E92EF12C0E94250E882341F183E00E94A3
:10324000741810912B02212F4DE959E067E070E0CE
:1032500081E590E00E94820D8091FA029091FB023C
:10326000B7010E94CF32892B19F41F5F10932B02F4
:1032700080912B028C3028F4D13009F05BC089306A
:1032800019F4D15010922B020E94CC0D88E00E94BC
:10329000C10D811107C084E00E94C10D811102C0DF
:1032A000D111C8CF10922B0283E00E9474181092A3
:1032B0001E038EE380931C0380931B038AE080939C
:1032C0001D0383E899E00E94C80EEC2FF0E0E45A59
:1032D000FE4FC08120E04BED5FE065E170E080E5EE
:1032E00090E00E94820D2C2F30E084E035952795E8
:1032F0008A95E1F746EB5FE067E170E082E590E0F8
:103300000E94820D2C2F2F7046EB5FE067E170E08A
:103310008AE590E00E94820D81E080931E030E9466
:10332000CC0D84E1DF91CF911F910F91FF90EF9031
:103330000C945D0FD2E0A8CF20E045E856E070E0A5
:1033400060E081E090E00E94880D20E043EB55E0D2
:1033500070E060E085E690E00C94880D8F929F927B
:10336000AF92BF920F931F93CF93DF93CDB7DEB78A
:10337000A1970FB6F894DEBF0FBECDBF19A24230A1
:1033800008F44AE08E010F5D1F4F842E912CB12C62
:10339000A12CA50194010E949232E62FB901CA0125
:1033A000EA3044F5E05DD801EE938D01232B242B08
:1033B000252B79F790E080E0109769F0FD010190EE
:1033C0000020E9F73197AF014A1B5B0BBD0187E194
:1033D00093E00E94750CA1960FB6F894DEBF0FBE65
:1033E000CDBFDF91CF911F910F91BF90AF909F9074
:1033F0008F900895E95CD7CF009769F0FC010190A8
:103400000020E9F73197AF01481B590BBC0187E158
:1034100093E00C94750C90E080E00895EF92FF9299
:103420000F931F93CF93DF9300D01F92CDB7DEB7DA
:10343000062F9C0197FF03C0319521953109EAE0E1
:10344000F0E0C901BF010E94CF328983CB01BF01E7
:103450000E94CF328A83C90164E670E00E94CF32B5
:10346000CB01BF010E94CF328B837E0184E0E80E46
:10347000F11C12E510931C0310931B0300931D0312
:10348000F70162917F0170E090E080E04AE00E94E5
:10349000AE191B5F113671F70F900F900F90DF91EF
:1034A000CF911F910F91FF90EF9008951F93CF93AD
:1034B000DF93182F40E0682F81E00E94DF12C1E007
:1034C000D0E04C2F4170612F81E00E94DF128AEF23
:1034D00090E00E94A80DDF5FCF5FC170D63089F702
:1034E000DF91CF911F9108950F931F93CF93DF9397
:1034F000EC0188819981009759F02A813B81261738
:10350000370730F081E0DF91CF911F910F9108953F
:103510008B016F5F7F4F0E940E34009759F09983A3
:1035200088831B830A832C813D81232B59F7FC015F
:103530001082E8CF80E0E7CFCF93DF93EC01888162
:103540009981009711F00E948533198218821D829B
:103550001C821B821A82DF91CF910895FC01808129
:103560009181009711F00C9485330895EF92FF92AA
:103570000F931F93CF93DF93EC018B011982188275
:103580001B821A821D821C82CB010E940A327C019E
:10359000BC01CE010E94741A811109C0CE01DF91D5
:1035A000CF911F910F91FF90EF900C949C1AFD8288
:1035B000EC82B80188819981DF91CF911F910F91A1
:1035C000FF90EF900C9403321F93CF93DF9300D0C2
:1035D00000D000D0CDB7DEB7182F80910301813025
:1035E00009F460C081E08093030190912D0260E0B6
:1035F000992321F062E0823009F461E040E080E04C
:103600000E94DF1240E06091030181E00E94DF121E
:1036100041E06FEF809103010E94E411112309F44E
:1036200043C067E975E0CE0101960E94B61A63E0D7
:10363000CE0101960E949A18CE0101960E94AE1A00
:103640008FE380931C0380931B038FE180931D0302
:1036500010921E03E0910301F0E0EE0FFF1FEE5DFC
:10366000FE4F808191810E94550E0E94FC1980ECD2
:1036700091E00E94FC1981E080931E030E94CC0D12
:103680000E94B80D88EC0E945D0F88E08093AE0226
:1036900026960FB6F894DEBF0FBECDBFDF91CF9157
:1036A0001F91089582E09FCF69E875E0CE010196F1
:1036B0000E94B61A62E0CE0101960E949A18CE01CD
:1036C00001960E94AE1A8FE380931C0380931B0324
:1036D00087E1BCCFCF92DF92EF92FF920F931F93BF
:1036E000CF93DF9300D000D000D0CDB7DEB7D62E79
:1036F000C42E1A8219821C821B821E821D82FC012A
:10370000008111810115110569F0E480F580B70190
:10371000CE0101960E94741A81111EC0CE0101963D
:103720000E949C1A23E04C2D6D2DCE0101960E9423
:10373000BE18CE0101960E94AE1A26960FB6F894D6
:10374000DEBF0FBECDBFDF91CF911F910F91FF90D4
:10375000EF90DF90CF900895FE82ED82B8018981CD
:103760009A810E94D434DECFCF93DF9300D000D073
:1037700000D0CDB7DEB7E1E0882311F081E0E2E0D0
:10378000A82FB0E0A155BD4F9C91953680F4F0E094
:10379000E155FD4F8081853618F580E026960FB6FD
:1037A000F894DEBF0FBECDBFDF91CF910895811198
:1037B00017C06AE070E1CE0101960E94B61A41E09E
:1037C00063E0CE0101960E946A1BCE0101960E9421
:1037D000AE1A0E94B80D88EC0E945D0F81E0DECF2A
:1037E0006FEF7FE0CE0101960E94B61A63E0CE0132
:1037F00001960E949A18CE0101960E94AE1A8FE39C
:1038000080931C0380931B0384E180931D0310921B
:103810001E03E0910301F0E0EE0FFF1FEE5DFE4F8F
:10382000808191810E94550E0E94FC1988E791E0E9
:103830000E94FC1981E080931E030E94CC0DC9CF29
:10384000EF92FF920F931F93CF93DF93EC017B01D5
:10385000198218821B821A821D821C82FB01019030
:103860000020E9F731978F01061B170BB8010E9462
:10387000741A811109C0CE01DF91CF911F910F9170
:10388000FF90EF900C949C1A1D830C83B7018881E4
:103890009981DF91CF911F910F91FF90EF900C9440
:1038A000D434EF92FF920F931F93CF93DF93CDB752
:1038B000DEB7A9970FB6F894DEBF0FBECDBFF12CCF
:1038C000EE24E394882321F0FF24F39482E0E82E91
:1038D0000F2D10E0F801EE54FD4F8F2D91919111B5
:1038E000C7C093E2E4E8F1E0DE01119601900D9289
:1038F0009A95E1F781112BC08E2D0E947010F8016E
:10390000E155FD4F9081890F80836DE570E1CE0117
:1039100084960E94B61A20E041E063E0CE018496CE
:103920000E94BE18CE0184960E94AE1A84E0809355
:10393000AE0281E0A9960FB6F894DEBF0FBECDBFF0
:10394000DF91CF911F910F91FF90EF9008958130FB
:1039500009F04BC0E816C1F182E00E947010082FF8
:1039600010E069E370E1CE0184960E94B61A41E04E
:1039700063E0CE0184960E946A1BCE0184960E9469
:10398000AE1AC8010436110508F56AE070E00E941D
:10399000CF32605D688F805D898F80E28A8F81E0A1
:1039A000F81202C0EE24E394EE2DF0E0E155FD4F55
:1039B0008081080F0083BE016F5F7F4FCE01849628
:1039C0000E94201C21E0A8CF8F2DC7CF64E670E0B5
:1039D0000E94CF32605D688F8C016AE070E00E94C7
:1039E000CF32605D698F805DD9CF8F2D0E947010BE
:1039F000082F10E065E170E1CE0184960E94B61AAE
:103A000022E041E063E0CE0184960E94BE18CE0120
:103A100084960E94AE1AC80104361105D0F46AE0FB
:103A200070E00E94CF32605D6A8F805D8B8F80E294
:103A30008C8FEE2DF0E0E155FD4F8081080F008363
:103A4000BE016F5F7F4FCE0184960E94201C22E052
:103A500063CF64E670E00E94CF32605D6A8F8C01B4
:103A60006AE070E00E94CF32605D6B8F805DE0CFD6
:103A70008F5FE81608F032CF80E05CCFEF92FF92C4
:103A80000F931F93CF93DF93CDB7DEB7A1970FB6F8
:103A9000F894DEBF0FBECDBF00E0EE24E394882390
:103AA00019F001E082E0E82E8091AD02811169C039
:103AB000802F0E944910182F811129C08E2D0E943D
:103AC0004910182F811123C0802F0E947010F82EEA
:103AD0008E2D0E9470109BE1E7EAF1E0DE01119665
:103AE00001900D929A95E1F7F8121FC0BE016F5F29
:103AF0007F4FCE014C960E94201C41E062E0CE0137
:103B00004C960E946A1BCE014C960E94AE1A812FE1
:103B1000A1960FB6F894DEBF0FBECDBFDF91CF9157
:103B20001F910F91FF90EF9008958F15B8F4EE2D2F
:103B3000F0E0E155FD4F9081F90EF81AF082BE01D8
:103B40006F5F7F4FCE014C960E94201C2E2D41E0CE
:103B500062E0CE014C960E94BE18D5CFF81688F4CC
:103B6000E02FF0E0E155FD4F9081890F8F198083A0
:103B7000BE016F5F7F4FCE014C960E94201C202F0C
:103B8000E6CF11E0C4CF0C9413328F929F92AF9284
:103B9000BF92CF92DF92EF92FF920F931F93CF933A
:103BA000DF93CDB7DEB72A970FB6F894DEBF0FBE0E
:103BB000CDBF5C01CE0101967C014E019AE0890ED9
:103BC000911C87016B01CE18DF08C601800F911F81
:103BD0000E94C31DF80181938F01E815F905A9F72B
:103BE0001A868AE0F701D50101900D928A95E1F7D6
:103BF0002A960FB6F894DEBF0FBECDBFDF91CF91EE
:103C00001F910F91FF90EF90DF90CF90BF90AF90FA
:103C10009F908F9008950F931F93CF93DF938C0104
:103C2000EB010E9413328883C80101960E9413326F
:103C30008983CE01DF91CF911F910F910895CF938A
:103C4000DF9300D0CDB7DEB71A821982BE016F5F55
:103C50007F4F0E940B1E89819A810F900F90DF91F8
:103C6000CF9108951F93CF93DF93EC01162F0E94FD
:103C70001332181739F0612FCE01DF91CF911F91C8
:103C80000C941B32DF91CF911F910895EF92FF9218
:103C90000F931F93CF93DF937C0129E0E20EF11C79
:103CA000EC018B01081B190B6981C8018C0F9D1F4A
:103CB0000E94321E2196CE15DF05B1F7DF91CF911C
:103CC0001F910F91FF90EF900895AF92BF92CF9206
:103CD000DF92EF92FF920F931F93CF93DF93EC014C
:103CE0007B017E8B6D8B18826C0189E0C80ED11C24
:103CF0008E015B01AC1ABD0AC501800F911F0E94A5
:103D0000C31DF80181830F5F1F4F0C151D05A1F71F
:103D10008A818032D9F08F7D81548A31B8F0FE01DA
:103D20003196CE010A9620E221938E179F07E1F784
:103D3000B701CE01DF91CF911F910F91FF90EF90CE
:103D4000DF90CF90BF90AF900C94461EDF91CF9143
:103D50001F910F91FF90EF90DF90CF90BF90AF90A9
:103D60000895FF920F931F93CF93DF93EC018B0184
:103D7000FB01F0800E941332F81621F06F2DCE0166
:103D80000E941B32F801F1802196CE010E9413326D
:103D9000F81621F06F2DCE010E941B32C801DF9171
:103DA000CF911F910F91FF9008954F925F926F9264
:103DB0007F928F929F92AF92BF92CF92DF92EF92BB
:103DC000FF920F931F93CF93DF9300D000D000D0CA
:103DD0001F92CDB7DEB7082F81E991E00E94C31D85
:103DE000182F82E991E00E94C31D011105C014340F
:103DF00019F4813409F46AC064E481E991E00E9415
:103E0000321E61E482E991E00E94321E03E911E072
:103E100060E0C8010E94321E0F5F1F4F083F81E023
:103E20001807B1F794E5892E91E0992E2CE4A22E83
:103E300021E0B22E34E4C32E31E0D32E4CE3E42E45
:103E400041E0F42E54E5652E51E0752E64E3462ED4
:103E500061E0562E0EE911E060E2C8010E94321EB8
:103E600060E2C8010A960E94321EF40161914F017E
:103E7000C8010B970E94321EF50161915F01C801D4
:103E80004D960E94321EF60161916F01C80187961E
:103E90000E94321EF70161917F01C801C1960E9404
:103EA000321EF30161913F01C801CB960E94321E80
:103EB000F20161912F01C8018B5B9F4F0E94321E5E
:103EC0000F5F1F4F063AF1E01F0731F685E0EDE185
:103ED000F1E0DE01119601900D928A95E1F78E01D5
:103EE0000F5F1F4F8DEEE82EFF24F394F8018191B0
:103EF0008F0190E09F838E83BE016A5F7F4FC70171
:103F00000E94B11EF2E0EF0EF11C87EFE81681E08F
:103F1000F80661F727960FB6F894DEBF0FBECDBF47
:103F2000DF91CF911F910F91FF90EF90DF90CF9095
:103F3000BF90AF909F908F907F906F905F904F90C9
:103F400008952F923F924F925F926F927F928F923D
:103F50009F92AF92BF92CF92DF92EF92FF920F9318
:103F60001F93CF93DF93CDB7DEB7E4970FB6F894E6
:103F7000DEBF0FBECDBF23E824BD2FEF27BD21EF4D
:103F8000209380001092880010928A0022242A94A4
:103F9000009709F416C10E94550E5C0118A21F8EED
:103FA0000DEE11E07BEBE72EFF24F39422242A94FC
:103FB000312C6C018AE0C80ED11CB701CE010196EC
:103FC0000E94C51DC8010E941F1E98A38F8FDE018D
:103FD00011962501F50121E04D913191431320E027
:103FE000EC15FD05C9F7222309F470C0019698A3CA
:103FF0008F8FBE01615E7F4FC8010E94B11E032DED
:1040000010E0000F111F03511E4FEAE03E9E3001E9
:104010001124232C332009F4D4C0C8010E941F1E90
:104020007C016801F2E0CF1AD108C6010E941F1E70
:10403000E816F90608F444C0730185E4E81A8EEF27
:10404000F80A4301EBE38E1AEEEF9E0AC7010E94C5
:10405000C31D582E5701FAE0AF1AB108C5010E94DE
:10406000C31D682FC7010E94321E652DC5010E9425
:10407000321E8FEFE81AF80A8E149F0439F71E8A51
:104080001D8A1C861B86BE016B5E7F4FC8010E9485
:104090000B1EBE01655F7F4FC6010E940B1EBE0155
:1040A000655F7F4FC8010E94B11EBE016B5E7F4FEE
:1040B000C6010E94B11E321003C022242A94230C90
:1040C0003A948601EAE06E1A7108A4CF029720F4B0
:1040D000FFEF2F1201C0232C33948AE0E80EF11C6D
:1040E0000E5F1F4FE5E03E1268CFFFEF2F1609F479
:1040F00068C03EE1A32EB12C08E210E043EFC42ECD
:10410000DD24D39454E0352E2314A8F578018FE4F0
:10411000E81A8EEFF80A3801E5E46E1AEEEF7E0A2F
:1041200048018A189B08C7010E94C31D682FC4015B
:104130008E0D9F1D0E94321EFFEFEF1AFF0AE6143C
:10414000F70489F71C861B86BE01655F7F4FC60199
:104150000E940B1EBE01655F7F4FC60102960E9442
:10416000B11E3A9482E0C81AD1080A501109EAE057
:10417000AE1AB108C9CFFAE02F9E80011124780150
:1041800085E4E81A8EEFF80A0C531E4FF201619194
:104190002F01C7010E94321EFFEFEF1AFF0AE0163F
:1041A000F106A1F781E090E098A38F8F822D90E037
:1041B000880F991FBE01615E7F4F83519E4F0E9401
:1041C000B11E6BEB71E0CE0101960E94C51D65EC3E
:1041D00071E0CE010B960E94C51D6FEC71E0CE011F
:1041E00045960E94C51D69ED71E0CE014F960E9473
:1041F000C51D63EE71E0CE0189960E94C51D8DEE4E
:1042000091E00E941F1E9CAB8BAB8FEE91E00E9451
:104210001F1E7C0181EF91E00E941F1E6C0183EF45
:1042200091E00E941F1E5C0185EF91E00E941F1E1D
:104230004C0166246A9400E083E8582E44244A9492
:1042400091EF392E10E28091AE02873009F01DC146
:104250000E94250E811106C064E170E080E090E0CC
:104260000E94420C0E94B80D8091FF027090FE02E5
:10427000709478228076803609F0D2C00F5F0531C5
:1042800030F00D3308F477C00D3309F482C073FEAB
:1042900003C081E08093AE028091FA029091FB020C
:1042A00068E370E00E94CF32782E662029F08823E0
:1042B00029F06A94611002C022242A940E949C1959
:1042C00020E047E557E063E070E08FE190E00E9476
:1042D000880D8CE1871508F4B0C02110AEC0109392
:1042E0001C0310931B03EDE1E0931D03CE010B961D
:1042F0000E94FC196DE1C7010E940E1AFCE1F7153E
:1043000008F0B4C010931C0310931B0386E2809343
:104310001D03CE0145960E94FC1966E2C6010E946B
:104320000E1AECE1E71508F0A6C010931C031093D9
:104330001B038FE280931D03CE014F960E94FC1950
:104340006FE2C5010E940E1AECE1E71508F098C073
:1043500010931C0310931B0388E380931D03CE016D
:1043600089960E94FC1968E3C4010E940E1A81E03C
:104370000E94090B68CF80E490E0801B9109880FB0
:1043800054BC47BC309280001092880080938A0011
:104390007ECF54BC47BC30928000109288001092AF
:1043A0008A0081E00E94D51E6BEB71E0CE01019680
:1043B0000E94C51D65EC71E0CE010B960E94C51DE3
:1043C0006FEC71E0CE0145960E94C51D69ED71E06C
:1043D000CE014F960E94C51D63EE71E0CE01899615
:1043E0000E94C51D8DEE91E00E941F1E9CAB8BAB01
:1043F0008FEE91E00E941F1E7C0181EF91E00E94F0
:104400001F1E6C0183EF91E00E941F1E5C0185EF6F
:1044100091E00E941F1E4C0100E022242A9437CF15
:10442000002309F434CF54BC47BC30928000109272
:10443000880010928A0000E02ACF10931C0310938A
:104440001B0384E180931D03CE0101960E94FC1999
:1044500064E18BA99CA90E940E1AECE1E71508F40F
:104460003ECFF1E02F1609F44DCF39CFF2E02F16F1
:1044700009F45BCF47CFF3E02F1609F469CF55CF8E
:10448000E4E02E1609F473CF63CFE4960FB6F894E8
:10449000DEBF0FBECDBFDF91CF911F910F91FF9077
:1044A000EF90DF90CF90BF90AF909F908F907F90D4
:1044B0006F905F904F903F902F9008950F931F93B0
:1044C000CF93DF93809164008E7F8093640080910E
:1044D0007A00806480937A0080917A0086FDFCCF18
:1044E000C0917800D09179000E941D0CAB01BC01F5
:1044F000CE01B0E0A0E0DC01992788278C019D0166
:10450000040F151F261F371FC901B8012091640031
:10451000216020936400611571058105910531F0DA
:10452000DF91CF911F910F910C94FA31DF91CF91D0
:104530001F910F9108951F920F920FB60F921124A1
:104540002F933F938F939F93AF93BF9380910D03CE
:1045500090910E03A0910F03B091100330910C03C2
:1045600023E0230F2D3758F50196A11DB11D20938F
:104570000C0380930D0390930E03A0930F03B0934D
:1045800010038091110390911203A0911303B09135
:1045900014030196A11DB11D809311039093120382
:1045A000A0931303B0931403BF91AF919F918F9188
:1045B0003F912F910F900FBE0F901F90189526E8F6
:1045C000230F0296A11DB11DD2CF1F920F920FB6DD
:1045D0000F9211242F933F934F935F936F937F9389
:1045E0008F939F93AF93BF93EF93FF9380910803B3
:1045F00090910903A0910A03B0910B03892B8A2B98
:104600008B2B09F440C08091070381110BC088B146
:1046100090E4892788B980910603882319F088B12E
:10462000805888B98091080390910903A0910A03EA
:10463000B0910B03181619061A061B069CF48091FC
:10464000080390910903A0910A03B0910B0301970D
:10465000A109B1098093080390930903A0930A0369
:10466000B0930B03FF91EF91BF91AF919F918F9109
:104670007F916F915F914F913F912F910F900FBE5E
:104680000F901F9018950E94B60CECCF10921A0351
:10469000109219038CE291E0909318038093170312
:1046A0008BE08093200381E080931F0310921C0312
:1046B00010921D0310921B0380931E031092E302BD
:1046C0001092ED02E4EEF2E080E2819392E0ED3EA2
:1046D000F907D9F71092CC021092D602EDECF2E075
:1046E00080E2819392E0E63DF907D9F71092B50296
:1046F0001092BF02E6EBF2E08FEB92E020E2219312
:104700008E179F07E1F785EB9DE09093020380935E
:10471000010380E090E89093300380932F03469844
:104720003E9A47983F9A0895CDB7DEB7E097DEBF2F
:10473000CDBF11E01093E0001092E2001092E10072
:1047400080E28093D8001092D70080916500806845
:1047500080936500789484B5826084BD84B581605F
:1047600084BD85B5826085BD85B5816085BD80913C
:104770006E00816080936E001092810080918100B4
:1047800082608093810080918100816080938100AC
:104790008091800081608093800080919100826090
:1047A000809391008091910081608093910080912D
:1047B00090008160809390008091C100846080931C
:1047C000C1008091C10082608093C1008091C100CE
:1047D00081608093C1008091C30081608093C30099
:1047E0008091C00082608093C0008091C20081608F
:1047F0008093C20080917A00846080937A008091D7
:104800007A00826080937A0080917A008160809340
:104810007A0080917A00806880937A00559A209A75
:104820005D9828985D9828988C9A84988AE090E002
:104830000E94A80D7C990EC0F89487E78093000829
:1048400080930108A89588E18093600088E08093B8
:104850006000FFCF81EC80937C0085B1806F85B9CB
:1048600084B1877E84B984B1876E84B95E9A5F987B
:104870008AB1806D8AB9769A6E9881B3806F81BB58
:10488000899880B38D7080BB80E58CBD1DBD85E0AF
:1048900090E00E94A80D5F9A85E090E00E94A80D2C
:1048A0005E985C98ECEAF0E089EB90E024912EBDF4
:1048B00000000DB407FEFDCF31968E179F07B1F7AC
:1048C0005C9A81E8809364008091650081608093A8
:1048D000650080E80E94C10D8823A9F05C9885EAF4
:1048E0008EBD00000DB407FEFDCF5C9A2E982F9868
:1048F0002D988091640080628093640081E083BF82
:10490000889513BEFCCF84E00E94C10D8823D1F1AD
:104910002D9884E80E94C10D8823A9F02D9A88EC77
:1049200090E00E94A80D2F986FEF82E090E00E9427
:10493000321E84EF91E00E94A80D2F9A84E80E9415
:10494000C10D8111FBCF84E10E94C10D8823A9F024
:104950002D9A88EC90E00E94A80D2E9860E082E0ED
:1049600090E00E94321E84EF91E00E94A80D2E9AE2
:1049700084E10E94C10D8111FBCF88EC90E00E9480
:10498000A80DC1CF2D9A0E945E2280E00E94D51E04
:1049900083E48093E4028FE68093E5028DE68093C2
:1049A000E60280E78093E70285E78093E80284E7E8
:1049B0008093E90285E68093EA0282E78093EB0226
:1049C0001092EC0282E090E00E94C31D8823F9F06F
:1049D0003E9A3F9A81E0809300030E94250E582E54
:1049E0008823D9F30E94B80DE091AE02E83010F0B0
:1049F0000C94992DF0E0E150FB4D0C94E332EA2544
:104A00004D267C2D4C270C259828772D4727109272
:104A100000033E983F98E1CF0CE119E5E12E12E04A
:104A2000F12E82EBC82E82E0D82E93E0B92E1FEF34
:104A30008091AE02843089F6ECE0F2E0202F1192F2
:104A40002A95E9F7AEE2B2E0E02F1D92EA95E9F788
:104A5000109216031092AD0210924A0210922C028C
:104A6000D701E02F1D92EA95E9F7D601EB2D1D92B3
:104A7000EA95E9F7109215031093010110930E01C6
:104A80001093070110930A0110930B011093040176
:104A900010930D011093050110930801109312015A
:104AA00010930C011093060110930901109311014A
:104AB00010930F01109310010E945E222CE0822EB1
:104AC00022E0922EEEE2F2E0D40180E08D9311928A
:104AD0008F5F8C31D9F79CE1492E512C612C712CC0
:104AE0000E94AB31A30192010E942932E62FF0E02F
:104AF000E45FFD4F8081D4015B969C915B9790832E
:104B00005B968C93B1E04B1A510861087108E1E0A3
:104B10008E1A9108F1E04F1651046104710401F7F7
:104B200010924A02A0902D0261E082E0882EA1102E
:104B300003C060E088248394D701E02F1D92EA959A
:104B4000E9F7D601EB2D1D92EA95E9F7262F30E023
:104B5000D901AE54BD4F029FC001039F900D112497
:104B6000875A9D4F7BE19D9030E020E0AC01420FE1
:104B7000531FE72FE21BF0E0E45FFD4F7080FA0166
:104B800070822F5F3F4F2730310581F77750FD014D
:104B9000319727E0290D20836F5F4C96861618F712
:104BA0007093AD020E94180B9090030121E0409198
:104BB00015036FEF892D0E947B1285E0911088E02C
:104BC0008093AE02A110B0C24FEF692D80E00E9429
:104BD00019142ECF10E001E0F0E6EF2EF12CA5EA3B
:104BE000DA2EB5E9CB2E8091AE028111F6CE0E946D
:104BF000250E811106C065E070E080E090E00E9423
:104C0000420C0E94B80D8091FE0280959091FF02A7
:104C1000892311F40C943231112311F40C942731AF
:104C200014E18091FA0280FD05C01F5F153111F477
:104C30000093AE0220E043E854E060E170E080E2DF
:104C400090E00E94880D8091FA029091FB02B701DA
:104C50000E94CF32803320F4883188F081E310C085
:104C60008834C8F481E58093E804807A21F4D092F6
:104C7000E104C092E20481E00E94090BB4CF81E11B
:104C800010920F0510921005109211051092120546
:104C900010921305E8CF81E9E6CFEFEAF2E083E076
:104CA000DF011D928A95E9F7F12CC12CD12C00E08F
:104CB00047E0742E9924939450E1852E64E3B62E38
:104CC00073E0672EECE6EE2E8091AE02813009F0A3
:104CD00084CE0E94250E811106C064E170E080E060
:104CE00090E00E94420C0E94B80D1091FE021095B7
:104CF0008091FF0218230E94180B20E04FE552E03C
:104D000062E070E083E190E00E947C0D80912A02D5
:104D1000882369F0813009F45CC00E94CC0DFF202B
:104D200099F2FA94F110D0CFC12CD12CCDCF07330A
:104D300008F44DC020E048E552E06AE270E083E20A
:104D400090E00E947C0D20E048E552E06AE270E0CD
:104D50008AE590E00E947C0D0E36C8F120E048E51F
:104D600052E06AE270E08BE190E00E947C0D20E06E
:104D700048E552E06AE270E082E690E00E947C0D35
:104D8000053A28F120E048E552E06AE270E083E16C
:104D900090E00E947C0D20E048E552E06AE270E07D
:104DA0008AE690E00E947C0D0F3A89F420E044E10D
:104DB00052E064E370E081E390E00E947C0D13FD1B
:104DC00090922A0212FFA9CF7092AE02A6CF0F5F77
:104DD000F6CF80921C0380921B03B0921D0380E0EB
:104DE00092E00E94C80EA0902D02AA20E1F1B1E04D
:104DF000AB1609F443C061E370E06D19710920E05E
:104E000045EF51E08BE690E00E947C0D6C2D70E048
:104E1000645C7F4F20E04EEE51E08BE690E00E9414
:104E20007C0D13FD6092AE0212FD10922A0217FF54
:104E300008C0A11006C090922D022AE0F22E32E0A6
:104E4000D32E14FF6ACF80912D02813009F065CFF7
:104E500010922D021092FE021092FF028AE0F82EAC
:104E600092E0C92E5ACFE0921C03E0921B03B0924D
:104E70001D038EEF91E00E94C80EBDCFE0921C038F
:104E8000E0921B03B0921D038CEF91E0F4CF90E011
:104E900080E00E94A11FA1CD80912D02811163C0ED
:104EA00081E08093030181E0809302016DE971E06C
:104EB0008CEC92E00E94651E67EA71E085EB92E05F
:104EC0000E94651E8CEC92E0909329028093280248
:104ED0006AE5962E70E2E72EE1E68E2EF1E47F2E53
:104EE00066246394A5EBCA2EA2E0DA2EB8E3AB2EBB
:104EF000B12C15E0412E8091AE02833009F06DCDCA
:104F00000E94250E811106C065E070E080E090E00F
:104F10000E94420C0E94B80D1091FE0210958091E3
:104F2000FF021823A0912802B0912902EC9115FFED
:104F300005C0EE2319F08FEF8E0F8C9316FF05C07E
:104F40008C91883010F48F5F8C9317FFB7C0EA0FF5
:104F5000FB2FF11D81818A3589F03CF4813464F0A6
:104F60008F5F81830CC082E09CCF81362CF08A3722
:104F7000BCF38A3709F4B8C0718201C081825596AA
:104F80006D917C915697CD010E94461E12FF13C071
:104F9000E0910201E23008F4ABC0E150E09302017D
:104FA000F0E0EE0FFF1FEE5DFE4F80819181909348
:104FB00029028093280213FF22C080912802909139
:104FC0002902FC0131960A96352D21912F7D09F099
:104FD00030E0E817F907C9F7311111C080910201DB
:104FE000813009F088C080912D02813009F083C0A2
:104FF00082E080930201D0922902C092280280911F
:10500000FA029091FB02B5010E94CF32F82E0E9465
:105010009C1920E040E751E065E070E081E290E01B
:105020000E94880D8DE280931C0380931B038EE108
:1050300080931D0388E691E00E94C80E60910201F2
:1050400070E090E080E04AE00E94AE190AE210E0D1
:1050500041E066E370E0C8010E94CF0D0E5F1F4F74
:1050600006351105A9F73AE2332E10E000E04EE2D2
:10507000242E30921C0330921B0320921D0340917A
:105080002802509129023CE13F15C8F5DA019C91B4
:10509000901335C0409EF001419EF00D1124CF01C8
:1050A0008E968319E25AF94F815048F191919F01F0
:1050B000215031099064D9019C93F6CF14FF66CF3B
:1050C000EA0FFB2FF11D81818B353CF4823454F4BF
:1050D000813451F02AE7218352CF813639F0D4F35D
:1050E0008B37C4F781503DCFE18249CF918247CFC2
:1050F0006092AE0260CF84E08093AE0280CFDA018E
:10510000A00FB11F11966C9187E193E00E946F0E82
:105110000F5F1F4FB5E03B0E0930110509F0A9CF15
:1051200081E00E94090BE7CE81E00E94E41A80CC66
:105130008FEF8FA78EA71092150310922C028093E9
:105140000101A5E06A2EB2E52B2EB2E03B2E1BE456
:10515000412E12E0512E8091AE02853009F0C2C47A
:10516000198210E08091B202181708F046C1309100
:105170001603323009F4C1C028F4313009F483C079
:105180001F5FF0CF333009F4D7C03430C9F78091B6
:1051900009018F3FC1F49E01225D3F4FAE01415D89
:1051A0005F4FBE016F5F7F4F812F0E94BA0B9E0140
:1051B000225D3F4FAE01415D5F4FBE016F5F7F4F8C
:1051C000812F0E94BA0B809111018F3FC1F49E0183
:1051D000225D3F4FAE01415D5F4FBE016F5F7F4F6C
:1051E000812F0E94780B9E01225D3F4FAE01415DF1
:1051F0005F4FBE016F5F7F4F812F0E94780B8091C0
:105200000E018F3F09F4F3C080910C018F3FC1F470
:105210009E01225D3F4FAE01415D5F4FBE016F5F5A
:105220007F4F812F0E944A0B9E01225D3F4FAE01AE
:10523000415D5F4FBE016F5F7F4F812F0E944A0B20
:10524000809107018F3F09F4D5C0809106018F3FFF
:1052500009F096CF9E01225D3F4FAE01415D5F4F49
:10526000BE016F5F7F4F812F0E94250B9E01225D43
:105270003F4FAE01415D5F4FBE016F5F7F4F812F9A
:105280000E94250B7DCF809110018F3FC1F49E01BC
:10529000225D3F4FAE01415D5F4FBE016F5F7F4FAB
:1052A000812F0E94BA0B9E01225D3F4FAE01415DEE
:1052B0005F4FBE016F5F7F4F812F0E94BA0B8091BD
:1052C0000F018F3F09F05CCF9E01225D3F4FAE0181
:1052D000415D5F4FBE016F5F7F4F812F0E94780B52
:1052E0009E01225D3F4FAE01415D5F4FBE016F5F8A
:1052F0007F4F812F0E94780B43CF809110018F3F09
:10530000C1F49E01225D3F4FAE01415D5F4FBE0182
:105310006F5F7F4F812F0E94250B9E01225D3F4FC3
:10532000AE01415D5F4FBE016F5F7F4F812F0E94D5
:10533000250B80911101C5CF00910A0180910B01CD
:105340000F3FA9F48F3F91F50F3F09F019CF8091DE
:1053500010018F3F09F014CF9E01225D3F4FAE0137
:10536000415D5F4FBE016F5F7F4F812F31C09091D4
:1053700009019F3F39F78F3F09F47AC79E01225DEB
:105380003F4FAE01415D5F4FBE016F5F7F4F812F89
:105390000E94BA0B9E01225D3F4FAE01415D5F4FFF
:1053A000BE016F5F7F4F812F0E94BA0B8091110168
:1053B0008F3F09F0E5CE9E01225D3F4FAE01415D7A
:1053C0005F4FBE016F5F7F4F812F0F3F09F086CF88
:1053D0000E94010C9E01225D3F4FAE01415D5F4F77
:1053E000BE016F5F7F4F812F0E94010CC9CE80915B
:1053F00010010CCF809110012ACFEFA5EF3F81F073
:10540000F0E0E75AFD4F80810E9406192EA54FA5B6
:1054100060E080912D020E9491158FEF8FA7F9C255
:10542000E98397E0D101E92F1D92EA95E9F7D201CE
:105430001D929A95E9F7A9E5B2E090E0891326C09C
:1054400030914A02AEE2B2E020E03217F1F1ED9184
:10545000F0E0E45AFE4F6081862F90E0E4E09595FD
:105460008795EA95E1F7AC014E5A5D4FFA019081BC
:105470009F5F9083E62FEF70E81731F0F0E0EE5A6F
:10548000FD4F80818F5F80832F5FDFCFED91F0E054
:10549000E45AFE4F6081262F30E0F4E035952795E1
:1054A000FA95E1F7A901455B5D4FFA0130813F5F55
:1054B0003083E62FEF70E21731F0F0E0E55BFD4F4F
:1054C00020812F5F20839F5FB9CF809104018F3FA0
:1054D00099F090910F01E92FF0E0EE5AFD4F808195
:1054E0008F5F8083E09110019E1731F0F0E0EE5A5B
:1054F000FD4F80818F5F808380910E018F3F99F0F7
:1055000090910D01E92FF0E0EE5AFD4F80818F5F01
:105510008083E0910C019E1731F0F0E0EE5AFD4FD0
:1055200080818F5F8083809107018F3F99F09091F8
:105530000501E92FF0E0EE5AFD4F80818F5F8083F7
:10554000E09106019E1731F0F0E0EE5AFD4F8081A8
:105550008F5F808380910A018F3F99F090910801BD
:10556000E92FF0E0EE5AFD4F80818F5F8083E0915C
:1055700009019E1731F0F0E0EE5AFD4F80818F5FF8
:10558000808380910B018F3F99F090911201E92F58
:10559000F0E0EE5AFD4F80818F5F8083E091110132
:1055A0009E1731F0F0E0EE5AFD4F80818F5F8083CF
:1055B000C12CE091B202CE1608F0D6C1EC2DF0E07D
:1055C000E75AFD4FE081F0E0E45AFE4F8081A82EBB
:1055D000B12C74E0B594A7947A95E1F78A2C8F707A
:1055E000D82E99249394A812912C8091160382307E
:1055F00009F4E1C040F4882309F49AC0813009F429
:10560000A0C0C394D6CF833009F41CC18430C9F73D
:105610007090090187100EC09E01225D3F4F7901F5
:105620008E01015D1F4F2D5231094D2D6C2D892D9D
:105630000E942617D7100EC0CE018E967C018E01D7
:10564000015D1F4F9E012F5F3F4F4A2D6C2D892D0D
:105650000E9426177090110187100EC0DE019E96E1
:105660007D018E01015D1F4F9E012F5F3F4F4D2D2C
:105670006C2D892D0E949217D7100EC0FE01BE9688
:105680007F018E01015D1F4F9E012F5F3F4F4A2D0D
:105690006C2D892D0E94921780910E01F0900C01C3
:1056A0008F3F11F4F09010018F100DC08E01025D3C
:1056B0001F4F9E01215D3F4FAE014F5F5F4F6D2D2C
:1056C0008C2D0E944018DF100DC08E01025D1F4F0F
:1056D0009E01215D3F4FAE014F5F5F4F6A2D8C2DC4
:1056E0000E944018809107018F3F09F41CC1F0907F
:1056F00006018F100DC08E01025D1F4F9E01215DBE
:105700003F4FAE014F5F5F4F6D2D8C2D0E940C18E7
:10571000DF1077CF8E01025D1F4F9E01215D3F4F4D
:10572000AE014F5F5F4F6A2D8C2D0E940C1869CF20
:10573000DA0C8981D81608F064CFD9821EA6CFA6CC
:1057400060CF7090100187100EC09E01225D3F4F08
:1057500079018E01015D1F4F2D5231094D2D6C2DA8
:10576000892D0E942617D7100EC0CE018E967C017F
:105770008E01015D1F4F9E012F5F3F4F4A2D6C2D03
:10578000892D0E94261770900F0187100EC0DE0130
:105790009E967D018E01015D1F4F9E012F5F3F4F41
:1057A0004D2D6C2D892D0E949217D7102ACFFE0106
:1057B000BE967F0137C010911001709011018112C7
:1057C0000DC08D2D0E94A310811138C08D2D870D25
:1057D0009981891718F489831EA6CFA6D1120DC00E
:1057E0008A2D0E94A31081112BC0872D8A0D9981CB
:1057F000891718F489831EA6CFA687100EC09E01B4
:10580000225D3F4F79018E01015D1F4F2D523109FD
:105810004D2D6C2D892D0E949217CE018E967C0104
:10582000D710EFCE8E01015D1F4F9E012F5F3F4FBE
:105830004A2D6C2D892D0E949217E3CE80E0C8CFAF
:1058400080E0D5CF80910A018F3F09F449C0709064
:10585000090187100EC0DE019E967D018E01015D5B
:105860001F4F9E012F5F3F4F4D2D6C2D892D0E94A4
:105870002617FE01BE967F01D71409F448C0809117
:105880000B01709011018F3F09F07FCF70901001D4
:1058900087100EC09E01225D3F4F79018E01015D90
:1058A0001F4F2D5231094D2D6C2D892D0E949217BD
:1058B000D7100EC0CE018E967C018E01015D1F4F68
:1058C0009E012F5F3F4F4A2D6C2D892D0E9492170C
:1058D00080910A018F3F09F094CE7090100155CF4E
:1058E0007090100187100EC09E01225D3F4F79011C
:1058F0008E01015D1F4F2D5231094D2D6C2D892DCB
:105900000E942617D710BBCFCE018E967C018E0148
:10591000015D1F4F9E012F5F3F4F4A2D6C2D892D3A
:105920000E942617ACCFF09010018F100DC08E0191
:10593000025D1F4F9E01215D3F4FAE014F5F5F4FE4
:105940006D2D8C2D0E944018DF105BCE8E01025D04
:105950001F4F9E01215D3F4FAE014F5F5F4F6A2D8C
:105960008C2D0E9440184DCE1FA51F3F11F0E12F36
:1059700047CDA091AD02AA2399F1F0E0E75AFD4F7F
:10598000B0E0A45FBD4F8C9180836EE371E0CE01E7
:1059900001960E94B61A40E063E0CE0101960E9493
:1059A0006A1BCE0101960E94AE1A8091B2028F5FEF
:1059B0008093B2028091AD0281508093AD0240E0AD
:1059C00060E080E00E94DF1220E04FEF6FEF80E0A8
:1059D0000E947B121FA784E690E00E94A80DBBCB1B
:1059E00081E00E944910882349F1F5E0F093AE026E
:1059F0006AE171E0CE0101960E94B61A41E063E0CF
:105A0000CE0101960E946A1BCE0101960E94AE1A39
:105A10001FA780912D020E94511C811153C08091BB
:105A2000AE028093AE0280912D020E94B41B8823A7
:105A300009F44AC082E08093AE02CDCF84E0809327
:105A4000AE0287E2E2ECF1E0DE01119601900D92E8
:105A50008A95E1F781E00E947010182F80E00E9483
:105A600070101817E8F49091B002890F811B809391
:105A7000B002BE016F5F7F4FCE0188960E94201C4E
:105A800040E063E0CE0188960E946A1BCE018896B2
:105A90000E94AE1A81E00E94561A0E94480FBDCCA7
:105AA000BE016F5F7F4FCE0188960E94201C41E0AF
:105AB00063E0CE0188960E946A1BCE0188960E9400
:105AC000AE1AABCC84E0ADCF1091AE02153009F028
:105AD00082CF80912D020E943E1D811118E010930B
