:100000000C941D080C9445080C9445080C94450864
:100010000C9445080C9445080C9445080C9445082C
:100020000C9445080C9445080C94201D0C948F1DCD
:100030000C9445080C9445080C9445080C9445080C
:100040000C9445080C9445080C9445080C944508FC
:100050000C9445080C9445080C9445080C94D61C47
:100060000C9445080C9445080C9445080C944508DC
:100070000C9445080C9445080C9445080C944508CC
:100080000C9445080C9445080C9445080C944508BC
:100090000C9445080C9445080C9445080C944508AC
:1000A0000C9445080C9445080C94450800000E0A71
:1000B0000A3E0000142A2A2A14000002023A06020C
:1000C00000001C2A2A2A1000002E2A2A2A120000C8
:1000D0001814123E10000000222A2A1400002422C4
:1000E000322A24000000043E00000000000000004E
:1000F0000000536F6C766500526573746F72650013
:1001000053617665004E6F7465730048696E7400C4
:100110004E65772047616D650050757A7A6C652071
:1001200023000000000080F0F8FCFC9E8E8E0E1E66
:100130003E0C0080E0E0E06000000080E0E0E06075
:100140000080E0E0E0E0E0E0E0E0C0C000000000AF
:1001500080C0C0E0E0E0E0E0E0C000000080E0E05F
:10016000E06080C0E0E0E060202080E0E0E060004F
:10017000000080E0E0E060000000E0E0E0C3C3C712
:10018000C7EFFF7F3F0E0060FCFFFFFFC3C0C0F062
:10019000FC7F3F1F03E0FCFFFFDFC3C0E0F0FF7FF9
:1001A0003F0F0000FCFFFFFFC3C1E0F0FF7F3F0FE8
:1001B00000E0FCFFFF1F7FFFFFFFE301000060FC8A
:1001C000FFFFFFC3C0C0F0FC7F3F1F0300000C0C0B
:1001D0000C0D0D0D0D0D0D0C0C0C0C0C0C0C0C0D58
:1001E0000D0D0D0D0D0C0C0C0C0C0D0D0D0D0D0D44
:1001F0000D0D0C0C0C0C0C0C0C0C0C0D8D8D8D0DB8
:100200000D0C0C8C8C0C0D8D8D8D8C8C8C8D0D0DA6
:100210000D8D8C8C8C8C8D8D0D0D0D0D0C0C0C0C96
:1002200000000000000000000000000000000000CE
:1002300000000000000000000000000000000000BE
:1002400000000000000000000000000000000000AE
:1002500000007F7F03070E1C787F7F00007F7F44B4
:100260004444447F3B00007F7F080808080F0700D4
:1002700000000000000000000000BD3A9C1C407817
:100280007D01E0E976370030F62978D1E21490015B
:10029000000044091A003E9E4533C93A00007A4BDB
:1002A000132C8C63CF0460182300A041E6001010CB
:1002B000A535BF203D009AE45904E226000660F10E
:1002C000D7177E1B000052C3000088823B0089FBC9
:1002D000FB05C82F8D2537641132406D830110391D
:1002E0007A0000A00F00409C00008B1C3D0060F0D5
:1002F0005E05A4A48900BC7FD31DC9EDD224BA2514
:1003000059081EBE0A00889DE404000A5A00C0C0B5
:10031000031C04470A000008AF2F846BB30C581B62
:1003200000002875491EF0985D058E3031010008E7
:10033000AF2F00B6272CE17E1F00B06820058A9EF3
:10034000F40B5CE061053C000000D086CA01499DC9
:10035000090000A3E111C18F44245401EC1D9AAFA0
:10036000A5354CE6D81720FB210E9EC338008071BE
:10037000162F3200000028E95C0008D0D72C1700A7
:100380000000CC69060066E4F505F02D5A00E86A25
:100390005B04D4A11000E2257A008090DF1E18A330
:1003A000AF3550340300C0C62D00843B9C1C6373E2
:1003B0005E057A303101BC0AAF2F80794912A8E47A
:1003C0009800405489008541DC29708D0403845ACB
:1003D0005D05006DC103B0590F00ED1AD2239001E5
:1003E00000008138010000F36A00A82B0900E03505
:1003F0000A03086B00001BF7D81785BD512A60DA85
:100400008E3300366E011400000006000000B6278F
:1004100069043B000000B8319F1C06BA790C80BC0F
:10042000103051400100A0F956004053FB2FDCCFA3
:100430006A00BCFA240183DE800200FB1E363624EB
:100440000000EC126505C2A70E00776BC923BD0240
:100450000000FCCBE12355417A12D199570048ADF9
:10046000930374A6CA01D0394B00C4EF2D000035A8
:100470000C0000000000F9A8D01D409D0810803835
:1004800001009C951301245F4D00E07509006C325A
:10049000BB0AE70A6505C0CF6A00C5B4E211406235
:1004A000B007B1DBDA1704D2CA0425DFEB0B080072
:1004B00000009DBA6C0204E9A4350479D7055225E1
:1004C000F70504915B002CBD3224A05FC300805F60
:1004D0003900DFA30700687EFE15C0320A03B4941A
:1004E0008900E0065A003CBEBD29EA94D61D948DD1
:1004F0005B00B8024000931BFC2402E1F50522BA20
:100500000A00C065520005AF270000A3E111F40105
:100510000000C9BB0D00623391261C62480C9A5F33
:1005200001008088A6058400A535B0994C00C188DB
:100530000000809D8200D20F0000E085950412CF5C
:100540000000C4ED700048C4C901580200004846CC
:10055000990058913603684E5D05BD1AE403F6C054
:10056000C10ACC997B009C13D81DD046EC0BDC86CD
:10057000010044F967052CAD0D002E00000062EF6C
:10058000362400000000C0E38800809F8D0C40D816
:100590006018BC020000000000002103CA0155944D
:1005A0004733A04A370140C6E61738995B00A0914F
:1005B0007F032C2AC435FE5C1D0071E5E111004962
:1005C0001510E44A5D0500000000C0FDFD02431F58
:1005D0000000000000001C3CB42F3A020000D2F5DD
:1005E000402AA0E34E00C2A3E11174A13D00D84C03
:1005F0005D05B2F83830B86ACE1D20030000C8C8C7
:100600000000C04FEF1E0000000098242E24262971
:10061000FD0400000000BE10700C377B6202D85A47
:100620004F00F10BAF2F70579C001023CB0180B40B
:10063000142A88157A000EE2F50570190800F0D426
:10064000A5354168311C14AF480C801600000365C5
:10065000CD1D00A02526D2B70F00A0557D05C838B6
:10066000010068BD0D00A07F3839836532014ECB93
:100670006202B0590F008A26FE0508C2EB0B629E8B
:100680005402A0BB0D001C60B929F5770000905FF3
:10069000010040FDEB26030000003E85CC01B8F5CB
:1006A000F505D5BFB9295E15AC229E3F7002808446
:1006B0001E00C025D004282D31019E180000E57CC5
:1006C000A935008EAB25E080990009000000600587
:1006D0002903D8EFF505F8367B0051A6E1117C859A
:1006E000A53580B2E60EE03B660060EA00007F635D
:1006F0000100F640C7004C498828E8366639C08EAC
:100700009A204B00000088B20006102700005A050E
:100710001F13E8087D05401804032EF3260230AFAE
:1007200007001C220D0010337B008673C5045AA3FA
:10073000D71788584F00A3F4CE1D00093D00E135BE
:10074000060046699803A0A1031C32BC0D000051AD
:100750005A0EC9127A00D0E8F50500CB2500764E76
:1007600011298038010060930C00A6DFE0180373A4
:10077000F4248A584F00EE5C620298C19303A8FAF1
:10078000FA0200E1F50538750000E774FA0500C3C8
:10079000821900A3E111108DD61DAEEE0905349E1D
:1007A00000000C5B0700864B4C00AEC07B24214E42
:1007B0000000F5B69800A88D5B00F886422A8AC32F
:1007C000C9015CB00A00BC5C62029C44270C70F258
:1007D000F60560900F004098E81180E1452B50F637
:1007E00023184AD2DC2F173A010070010000CC1AFE
:1007F000040094750000E45EBC0000000000659CED
:10080000DB1AC0887A0044316C00A8744C0079B7B8
:100810002A230000000084C7D001CBA7FE27FB9548
:10082000621DFC6D021146C56700707E103620887F
:10083000DC0268F52900974E333388B8892DCBFA4E
:100840000000CA7C620267525C00A944FD232DAB04
:10085000DB1ADF3F0800EC95010C92CBF729000072
:1008600000007AF9650890AE7A2D7DFB1E00809914
:1008700034020CF1FA023A430F00443E4830D8AC3F
:100880009D13DE4A690402262600A51C351DA8AA70
:100890003B12B75D843384C52A09AFE34A374F1B47
:1008A000FB0B7677000024369A1F030000008C357E
:1008B0000C00584C6221F4991638409C00002B4FD4
:1008C0002F0002456B00F0EC43020084D7170000B4
:1008D0000000003E5B4F5B3E3E6B4F6B3E1C3E7C20
:1008E0003E1C183C7E3C181C577D571C1C5E7F5ECE
:1008F0001C00183C1800FFE7C3E7FF00182418008D
:10090000FFE7DBE7FF30483A060E26297929264023
:100910007F050507407F05253F5A3CE73C5A7F3E4F
:100920001C1C08081C1C3E7F14227F22145F5F00E1
:100930005F5F06097F017F006689956A606060607D
:100940006094A2FFA29408047E040810207E201068
:1009500008082A1C08081C2A08081E101010100C71
:100960001E0C1E0C30383E3830060E3E0E060000BF
:1009700000000000005F00000007000700147F1463
:100980007F14242A7F2A12231308646236495620D2
:10099000500008070300001C2241000041221C00F7
:1009A0002A1C7F1C2A08083E0808008070300008B6
:1009B00008080808000060600020100804023E518A
:1009C00049453E00427F400072494949462141491C
:1009D0004D331814127F1027454545393C4A494983
:1009E0003141211109073649494936464949291EED
:1009F00000001400000040340000000814224114DC
:100A000014141414004122140802015909063E412D
:100A10005D594E7C1211127C7F494949363E414155
:100A200041227F4141413E7F494949417F090909AE
:100A3000013E414151737F0808087F00417F41001A
:100A40002040413F017F081422417F404040407FC9
:100A5000021C027F7F0408107F3E4141413E7F0916
:100A60000909063E4151215E7F0919294626494957
:100A7000493203017F01033F4040403F1F20402097
:100A80001F3F4038403F6314081463030478040395
:100A90006159494D43007F41414102040810200043
:100AA0004141417F040201020440404040400003B4
:100AB00007080020545478407F2844443838444480
:100AC0004428384444287F385454541800087E0978
:100AD0000218A4A49C787F0804047800447D400098
:100AE0002040403D007F1028440000417F40007CB2
:100AF000047804787C080404783844444438FC18AA
:100B000024241818242418FC7C080404084854548D
:100B1000542404043F44243C4040207C1C204020BA
:100B20001C3C4030403C44281028444C9090907C21
:100B30004464544C44000836410000007700000033
:100B40004136080002010204023C2623263C1EA175
:100B5000A161123A4040207A3854545559215555D4
:100B60007941215454784121555478402054557985
:100B7000400C1E5272123955555559395454545916
:100B800039555454580000457C410002457D4200CF
:100B900001457C40F0292429F0F0282528F07C54D8
:100BA0005545002054547C547C0A097F49324949F8
:100BB00049323248484832324A4848303A41412165
:100BC0007A3A42402078009DA0A07D3944444439BF
:100BD0003D4040403D3C24FF2424487E4943662B51
:100BE0002FFC2F2BFF0929F620C0887E09032054F3
:100BF0005479410000447D413048484A32384040F1
:100C0000227A007A0A0A727D0D19317D2629292F50
:100C100028262929292630484D4020380808080868
:100C200008080808382F10C8ACBA2F102834FA006A
:100C3000007B000008142A142222142A14089500AC
:100C4000220095AA005500AAAA55AA55AA0000009C
:100C5000FF00101010FF00141414FF001010FF000C
:100C6000FF1010F010F0141414FC001414F700FF1F
:100C70000000FF00FF1414F404FC141417101F10DC
:100C8000101F101F1414141F00101010F00000008B
:100C9000001F101010101F10101010F01000000096
:100CA000FF101010101010101010FF10000000FFA7
:100CB000140000FF00FF00001F10170000FC04F4E8
:100CC00014141710171414F404F40000FF00F714A0
:100CD000141414141414F700F71414141714101027
:100CE0001F101F141414F4141010F010F000001F43
:100CF000101F0000001F14000000FC140000F01082
:100D0000F01010FF10FF141414FF141010101F0027
:100D1000000000F010FFFFFFFFFFF0F0F0F0F0FF29
:100D2000FFFF0000000000FFFF0F0F0F0F0F384400
:100D30004438447C2A2A3E147E02020606027E02C1
:100D40007E0263554941633844443C04407E201E82
:100D50002006027E020299A5E7A5991C2A492A1CB1
:100D60004C7201724C304A4D4D303048784830BC9E
:100D7000625A463D3E494949007E0101017E2A2AC8
:100D80002A2A2A44445F444440514A444040444A49
:100D900051400000FF0103E080FF000008086B6B7A
:100DA000083612362436060F090F06000018180000
:100DB00000001010003040FF0101001F01011E0063
:100DC000191D1712003C3C3C3C0000000000080BC1
:100DD00000020202000009040000010202000005F6
:100DE0002400100105240101010424020605240643
:100DF00000010705810310004009040100020A00F8
:100E000000000705020240000007058302400000C1
:100E10000403090412010002EF020140412337805C
:100E200000010102030141726475696E6F204C4C30
:100E3000430041726475696E6F204D6963726F0083
:100E4000D5F08D14A1C881CFD9F1AF20000A3D3D66
:100E5000207375646F6B755F41425F7631312E6927
:100E60006E6F205B6279204E65696C2050696572F7
:100E7000736F6E2C203131204A756E20323031363E
:100E80005D0A002C20002020200048617264004D83
:100E900065642E004561737900444F4E45007370C0
:100EA0006F7400626164002D2D004572726F723A9A
:100EB00020756E6B6E6F776E206D6F64653A2000E3
:100EC0002C20756E65787065637465642E004572BC
:100ED000726F723A20656D707479203D2000202079
:100EE0004E6567617469766520656D7074793A2026
:100EF0006261642073706F74206F7220656D70740E
:100F0000792073706F742873292077697468206E54
:100F10006F2076616C69642063686F696365732E06
:100F200000292E004572726F723A20496E76616C0C
:100F300069642050757A7A6C652028656D707479C3
:100F40003D005D20677565737320636F756E743D3A
:100F5000002C207072756E65733D002C20756E69D3
:100F60007175653D0020205B73746174733A207362
:100F7000696E676C65733D0050757A7A6C65207395
:100F80006F6C7574696F6E20666F756E643A0020C1
:100F90006661696C656400726573746F7265507523
:100FA0007A7A6C653A20656E7472792000206661E9
:100FB000696C6564007361766550757A7A6C653A20
:100FC00020656E7472792000696E76616C696400C8
:100FD000456E74657220726F775B00456E74657242
:100FE00020726F775B0020437573746F6D00202053
:100FF000002D2D003E2D003E3E0020486172640011
:10100000202000204D656469756D0020200020457A
:1010100061737900202000206F666600206F6E00EB
:10102000444F4E4500696E76616C696400117375BA
:10103000646F6B755F414200C11F11241FBECFEF6B
:10104000DAE0DEBFCDBF11E0A0E0B1E0E0E0FDE519
:1010500002C005900D92AE35B107D9F726E0AEE596
:10106000B1E001C01D92AF3EB207E1F718E0CDE15B
:10107000D8E004C02197FE010E94482ECC31D10750
:10108000C9F70E94DE1F0C947E2E0C940000E2EB48
:10109000F1E080E0A0E0B8E000800EBC8111012CFE
:1010A0001197A0FDFDCF0192B9F70DB408954F92AD
:1010B0005F926F927F928F929F92AF92BF92CF92E8
:1010C000DF92EF92FF920F931F93CF93DF9330E065
:1010D000F901E80FF91F1E161F060CF0A0C080389A
:1010E00091050CF09CC0FB01E00FF11D1E161F06C0
:1010F0000CF095C0603471050CF091C0DB0177FFF6
:1011000004C0AA27BB27A61BB70BA770BB27FB01F0
:1011100077FD3796C3E0F595E795CA95E1F777FF38
:1011200007C0319768E070E0EB01CA1BDB0BDE0102
:10113000802E869486948694912C077019F0DFEFA8
:101140008D1A9D0ABF018A01AF015695542F44277D
:1011500057954795480F591F4E545E4F860E971E60
:10116000E8E0F0E03F016A1A7B0A8616970609F468
:1011700056C06830710509F452C06F3FEFEF7E072B
:101180000CF443C07C01D0E0C0E05A01E0E8AE0EB0
:10119000B11CF7FC2EC06F3F760709F43DC0FE017D
:1011A000E00FF11FE4916A01CC0EDD1EF0E02F018B
:1011B0000A2E01C0440C0A94EAF7F6015080452833
:1011C00040821097B1F06730710599F0F801EC0F8B
:1011D000FD1FE4916501CC0EDD1EF0E02F01062C11
:1011E00002C0559447940A94E2F7F60150804528CE
:1011F00040822196FFEFEF1AFF0AC217D3072CF4A3
:10120000F0E8EF16F10409F0C4CF6F5F7F4F020FD3
:10121000131F40585F4FA9CF1097C1F6EACFDF9157
:10122000CF911F910F91FF90EF90DF90CF90BF90E3
:10123000AF909F908F907F906F905F904F900895A8
:1012400080E0E2EBF1E081118FEF00248193819344
:10125000819381930394D1F70895480F592F511D1D
:101260001416150684F5803891056CF597FF02C0B9
:1012700090E080E04138510514F040E850E0481B10
:10128000FB01E770FF2721E001C0220FEA95EAF792
:1012900077FF02C0695F7F4FFB0133E0F595E7956B
:1012A0003A95E1F7F695FE2FEE27F795E795E80FCB
:1012B000F91FEE54FE4F415030F08191DF0111973C
:1012C000822B8C93F8CF08956034710510F40C9440
:1012D0002D090895FC018091B101882311F13FB7D8
:1012E000F89482E08093E9002091F200822F90E050
:1012F0001816190614F481E090E0882339F0289A32
:1013000044E64093B0014091F1004083222339F03C
:101310002091F200211103C02BE62093E8003FBF8B
:1013200008958FEF9FEF08952FB7F89483E080938F
:10133000E9009091E800892F807295FF04C0909198
:10134000F20080E4891B2FBF08958091A8018111CC
:101350000DC082E08093A40184E08093A5011092E7
:10136000A7011092A60181E08093A80184EA91E090
:1013700008953FB7F8948091A0019091A101A091A8
:10138000A201B091A30126B5A89B05C02F3F19F07B
:101390000196A11DB11D3FBFBA2FA92F982F8827F5
:1013A000BC01CD01620F711D811D911D42E0660FD0
:1013B000771F881F991F4A95D1F708958F929F92A2
:1013C000AF92BF92CF92DF92EF92FF926B017C01BE
:1013D0000E94B9094B015C01C114D104E104F1047C
:1013E000B9F00E94B909681979098A099B09683E10
:1013F00073408105910580F321E0C21AD108E1080C
:10140000F10888EE880E83E0981EA11CB11CE4CF81
:10141000FF90EF90DF90CF90BF90AF909F908F9014
:10142000089565E070E080E090E00C94DE092FB74D
:10143000F89460919C0170919D0180919E01909122
:101440009F012FBF0895409160015091610120914B
:101450005E0130915F0142175307B4F49091E800A8
:101460009570E1F39091E80092FD19C08093F1002E
:10147000809160019091610101968F739927892B6A
:1014800019F48EEF8093E8008091600190916101E2
:101490000196909361018093600181E0089580E05E
:1014A0000895EF92FF920F931F93CF93DF93F82E3F
:1014B000192FE62E042F81E0860F880F0E94230A41
:1014C00083E00E94230ACF2DD12FEC0EFD2EF11CBC
:1014D000CE15DF05B9F007FF13C0FE0184910E940D
:1014E000230A182F80E00E94230A8123219681116C
:1014F000EFCFDF91CF911F910F91FF90EF90089563
:101500008881EDCF81E0F5CFDF92EF92FF920F93CC
:101510001F93CF93DF93D82E8A01EB017B01E40E5A
:10152000F51ECE15DF0559F0D7FE12C0FE018491DD
:101530000E94230A21968111F4CF0FEF1FEFC801FB
:10154000DF91CF911F910F91FF90EF90DF90089561
:101550008881EECF0F931F93CF93DF931F92CDB768
:10156000DEB782E0898342E450E06EEC7DE080E803
:101570000E94840A0E94A509DC0112960D911C911B
:101580000115110589F0D801ED91FC910280F381DC
:10159000E02DBE016F5F7F4FC801099597FD04C024
:1015A000F80100851185ECCF89810F90DF91CF91F3
:1015B0001F910F910895615030F02091F100FC01CE
:1015C00020830196F8CF289A84E68093B00108958D
:1015D000DC01ED91FC910190F081E02D0994EF92F6
:1015E000FF920F931F93CF93DF938C017B01D0E089
:1015F000C0E0F701EC0FFD1F6491662361F0D80194
:10160000ED91FC910190F081E02DC8010995892BA5
:1016100011F02196EECFCE01DF91CF911F910F9166
:10162000FF90EF900895AF92BF92CF92DF92EF922A
:10163000FF920F931F93CF93DF936C017B018B017C
:10164000040F151FEB015E01AE18BF08C017D107CC
:1016500059F06991D601ED91FC910190F081E02D56
:10166000C6010995892B79F7C501DF91CF911F91AB
:101670000F91FF90EF90DF90CF90BF90AF900895C3
:101680008F929F92AF92BF92CF92DF92EF92FF9292
:101690000F931F93CF93DF936C017B018A0180919D
:1016A0000B01882309F45CC08091B101882309F4FF
:1016B00057C08091640180FF05C08091E000826086
:1016C0008093E000E801B12C8AEFA82E93E0892EE8
:1016D0002AE3922E209711F4BB20D9F10E9494099D
:1016E00081110AC0AA94AA20D9F161E070E080E0DB
:1016F00090E00E94DE09EECF8C171D0611F00CF071
:101700008C2F9FB7F8948092E9002091E80025FD86
:1017100002C09FBFDFCF282F30E0C21BD30BF701E1
:10172000815020F041914093F100FACFE20EF31E78
:10173000BB2021F09092E800B12CEBCF8091E80023
:1017400085FDE7CF9092E800BB24B394209709F37E
:10175000F3CF5D9A84E680936301101611063CF086
:1017600081E090E0F6019383828310E000E0C801FD
:10177000DF91CF911F910F91FF90EF90DF90CF906D
:10178000BF90AF909F908F900895CF93DF931F925B
:10179000CDB7DEB76983DC01ED91FC910280F38166
:1017A000E02D41E050E0BE016F5F7F4F09950F9043
:1017B000DF91CF91089583E08093E9008091F2005A
:1017C000882319F08AE38093E80008950E94940921
:1017D00090E00895CF93DF931F92CDB7DEB7FC0161
:1017E0008485958597FD08C02FEF3FEF35872487C7
:1017F0000F90DF91CF910895CE0101960E946A0962
:10180000019719F4898190E0F3CF8FEF9FEFF0CF2C
:101810000F931F93CF93DF931F92CDB7DEB78C0149
:10182000FC018485958597FF0BC0CE0101960E942F
:101830006A09019771F4898190E0F801958784879E
:10184000F801848595850F90DF91CF911F910F91BD
:1018500008958FEF9FEFF1CF0F931F930E94170A08
:1018600060939F067093A0068093A1069093A206B2
:1018700087E996E00E94080C97FF1DC00E94170A96
:1018800000919F061091A0062091A1063091A2061A
:10189000601B710B820B930B00919B0610919C06B1
:1018A00020919D0630919E0660177107820793076D
:1018B000F8F28FEF9FEF1F910F910895FC0184853F
:1018C000958597FD0BC09FB7F89482E08093E9005F
:1018D0008091F2009FBF90E0019608959FB7F89421
:1018E00082E08093E9008091F2009FBF90E008952C
:1018F0008FB18095807F669B88601C9B8460089573
:101900008EBD00000DB407FEFDCF0895803891050F
:10191000B8F460347105A0F420E191E061FD94E039
:1019200060FD990F62FD9295687F269FD00111247A
:10193000A80FAE54BE4F8C9140FF03C0892B8C93EF
:10194000089590958923FBCF2F923F924F925F92FB
:101950006F927F928F929F92AF92BF92CF92DF92BF
:10196000EF92FF920F931F93CF93DF937C016B0154
:1019700088248394912CD0E0C0E003E010E09AEF3B
:10198000692E77247A942EEFA22EBB24BA94842F4A
:101990008470582E842F8270482E842F8870382EA1
:1019A0004170242E219682E0880E911CA80CB91C4F
:1019B000552091F041E0B8016C0D7D1DC7018C0FE1
:1019C0009D1F0E94860C41E0B6016C0F7D1FC8016F
:1019D0008E0D9F1D0E94860C442091F041E0B601BF
:1019E000601B710BC7018C0F9D1F0E94860C41E08C
:1019F000B6016C1B7D0BC8018E0D9F1D0E94860CCD
:101A0000332091F041E0B6016C0F7D1FC701801BB0
:101A1000910B0E94860C41E0B8016C0D7D1DC70141
:101A20008C1B9D0B0E94860C222091F041E0B60198
:101A30006C1B7D0BC701801B910B0E94860C41E043
:101A4000B601601B710BC7018C1B9D0B0E94860C9D
:101A5000C017D1076CF48FEFA816B80609F4A2CF0F
:101A60000150110982E0680E711CA60CB71C9ACFB8
:101A7000DF91CF911F910F91FF90EF90DF90CF906A
:101A8000BF90AF909F908F907F906F905F904F909E
:101A90003F902F900895EF92FF920F931F93CF9353
:101AA000DF937C018B01040F111DEB0177FF02C056
:101AB000D0E0C0E0C8010134110514F080E490E0EA
:101AC000C817D9073CF441E0BE01C7010E94860C4B
:101AD0002196F0CFDF91CF911F910F91FF90EF9062
:101AE0000895AF92BF92CF92DF92EF92FF920F9341
:101AF0001F93CF93DF935C018B01C42FDAEFD40FD8
:101B00007C0183E0E80EF11C4D2FC7010E9464099F
:101B1000B801665F7F4F4D2FC7010E9464096801BD
:101B200083E0C80ED11C45E0B601C5010E944B0DF3
:101B3000CA0DDB2DD11D45E0B601CE0101970E94F3
:101B40004B0D41E0B601C7010E94A40C249742E06E
:101B5000B601CE010E94A40C095F1F4F44E0B801FA
:101B6000CE010E94A40C48E0B801C701DF91CF91DB
:101B70001F910F91FF90EF90DF90CF90BF90AF90AB
:101B80000C94A40CEF92FF920F931F93CF93DF93CB
:101B90007C018B01C42FD22F0E946409B8016D0F04
:101BA000711D615071094C2FC7010E9464094D2FAE
:101BB000B801C7010E944B0DC7018C0F911D4D2F1D
:101BC000B8010197DF91CF911F910F91FF90EF9096
:101BD0000C944B0D2F923F924F925F926F927F9297
:101BE0008F929F92AF92BF92CF92DF92EF92FF922D
:101BF0000F931F93CF93DF9300D000D000D01F929C
:101C0000CDB7DEB76D30D9F030900D0140906C014A
:101C100050906D01832D90E09F838E836A3051F543
:101C200010926B0110926A0123E0880F991F2A9588
:101C3000E1F7480E591E50926D0140926C0181E00F
:101C400090E027960FB6F894DEBF0FBECDBFDF91B0
:101C5000CF911F910F91FF90EF90DF90CF90BF90A9
:101C6000AF909F908F907F906F905F904F903F903C
:101C70002F900895A0906A01B0906B0195E0699F44
:101C8000B0011124FB01E253F74F3F016501212C04
:101C9000F5E02F1629F1C3010196F301F491F983C0
:101CA0003C01420128E02A83898181708D8310E004
:101CB00000E00315D0F4F801EC0DFD1DFC83EB836F
:101CC000F12CE12CE31470F4B4016E0D7F1D4D81F5
:101CD0008B819C810E94860CFFEFEF1AFF0AF2CFE6
:101CE0001982DFCF0F5F1F4FE4CF2981269529830B
:101CF0008A8181508A83EE81FF818E0E9F1E811121
:101D0000D3CF2394CE0EDF1EF6E02F12C1CFC50134
:101D1000329C800D911D112490936B0180936A0178
:101D20008ECF2F923F924F925F926F927F928F92BF
:101D30009F92AF92BF92CF92DF92EF92FF920F935A
:101D40001F93CF93DF93CDB7DEB769970FB6F894A3
:101D5000DEBF0FBECDBF1C013C014FE0640E711C05
:101D60001986188610E021E030E0D12CC12C812F9B
:101D700063E00E94262E982F990F980F9C87F301FD
:101D80003F973E822D8200E0892F90E0DC01129681
:101D9000B98BA88B8785982F907F903F11F08F701B
:101DA0008787802F63E00E94262EA885B985A80F1B
:101DB000B11DAA0FBB1FAA0FBB1F7101EA0EFB1EAC
:101DC000FF86EE8659E0959FA00111245B874A8724
:101DD000D701A05ABF4F812C912C54018A9493941F
:101DE0000A8404C0880C991CAA1CBB1C0A94D2F754
:101DF00080949094A094B0944D915D916D917C915C
:101E0000139784229522A622B7228D929D92AD929D
:101E1000BC92139797859F7019F49FEFC91AD90A3E
:101E2000982F990F980F9D87512C412C40E050E03E
:101E3000BA01A92FB0E0CD0102969B8B8A8B91E06D
:101E4000940D99837D8A6C8A99E0188EAC89BD893E
:101E5000FD90BD8BAC8BBF2DBF70E980EB1203C032
:101E6000888D8F5F888F915089F7AD81BE81BD8B42
:101E7000AC8B89E0198EAC89BD891F96EC90BE2D84
:101E8000BF70F980FB1203C0998D9F5F998F8150BD
:101E9000AC89BD891996BD8BAC8B8111ECCF9C852B
:101EA000E888F9889E151F0409F044F5B9E09B9F66
:101EB000D0011124BF8BAE8BED84EF82BF81AB2F9D
:101EC000B0E0BD8BAC8BEA88FB88EA16FB06A4F079
:101ED0007D01E20CF31CAE89BF89EA0EFB1ED7011F
:101EE0001F96FC90BF2DBF70E980EB1201C08F5F81
:101EF000AF81AF5FAF83E2CF9F5FD2CFB88DB230FB
:101F000008F08CC0998D923008F088C0823008F0BB
:101F100085C0E88C998DE90EFF24FF1CD701A80F1E
:101F2000B11DAB2BB9F4F784AF2DAF7099F481E0FC
:101F300090E0A0E0B0E0042C04C0880F991FAA1F15
:101F4000BB1F0A94D2F7482B592B6A2B7B2B90E1AD
:101F50009F0D97879FEF491A590AA9E04A16510425
:101F600009F06DCF8785982F9F70C9F4AE85BF8526
:101F7000A05ABF4F0A8404C0440F551F661F771F25
:101F80000A94D2F7482959296A297B294D935D93F0
:101F90006D937C931397807F11F42FEF3FEF0F5FCA
:101FA00031964D815E814F5F5F4F5E834D83093077
:101FB00009F0F0CE1F5F59E0650E711CA885B98548
:101FC0001396B987A887193009F0D1CEC114D1046E
:101FD00019F42F3F320741F07901EC9C9001ED9C00
:101FE000300DFC9C300D1124C90169960FB6F89490
:101FF000DEBF0FBECDBFDF91CF911F910F91FF903C
:10200000EF90DF90CF90BF90AF909F908F907F9098
:102010006F905F904F903F902F9008952FEF3FEF7C
:1020200078CF2F923F924F925F926F927F928F92D2
:102030009F92AF92BF92CF92DF92EF92FF920F9357
:102040001F93CF93DF93CDB7DEB7C051D1400FB60A
:10205000F894DEBF0FBECDBF1C01C850DF4F6883B0
:10206000C85FD0400E94910ECE51DF4F9983888384
:10207000C25ED040181619060CF057C2CF5FDE4F73
:1020800099838883C150D140810100531F4FC251B1
:10209000DF4F19830883CE5ED0408101015F1F4F5F
:1020A000C150DF4F19830883CF5FD04061011CEC22
:1020B000C10ED11CC150DF4F08811981CF5FD040C4
:1020C00030E020E0B0E0A0E0780140E0F70181914D
:1020D0007F01807F803109F066C0842F63E00E9419
:1020E000262EF901E80FF11DEE0FFF1FEE0FFF1F67
:1020F000E20DF31DBF01605A7F4FC252DF4F79835B
:102100006883CE5DD040FB0180809180A280B38047
:10211000F9E09F9FC001112424013501082E04C05D
:1021200075946794579447940A94D2F751E05522D6
:102130006624772451E0411451046104710499F13B
:1021400040FEE0C1B70161507109FB015083412C91
:10215000512C32014A94539404C0440C551C661C03
:10216000771C8A95D2F740945094609470948420A0
:102170009520A620B720C252DF4FE881F981CE5DBD
:10218000D04080829182A282B382F60180819181C7
:102190000196918380831196C850DF4FB880C85F45
:1021A000D040B110B5C14F5F493009F08FCF075F04
:1021B0001F4F2D5F3F4F2B31310509F085CFAB2BE2
:1021C00009F0A6C1810102531F4FCE50DF4F198382
:1021D0000883C25FD040C150DF4FE880F980CF5FF5
:1021E000D040CC51DF4FF982E882C45ED040D12C80
:1021F000C12CCD5FDE4F19821882C350D14040E020
:10220000842F63E00E94262E982F990F980FC451B7
:10221000DF4F9883CC5ED040CC51DF4F08811981CD
:10222000C45ED040CA51DF4F19830883C65ED040D8
:1022300050E0892F90E09C012E5F3F4FC350DF4F4D
:1022400039832883CD5FD040CA51DF4FA881B9813F
:10225000C65ED0408D91CA51DF4FB983A883C65E58
:10226000D0408F7009F0E5C1852F63E00E94262ED3
:10227000282F30E0CD5FDE4FE881F981C350D14097
:10228000E20FF31FEE0FFF1FEE0FFF1F7101EE0EA7
:10229000FF1EC851DF4FF982E882C85ED040D701E7
:1022A000A05ABF4F4D905D906D907C9019E0919F2A
:1022B00080011124C651DF4F19830883CA5ED040C4
:1022C000E82FEE0FE80F220F331F220F331FD1012B
:1022D000A20FB31FC550DF4FB983A883CB5FD04097
:1022E00030E020E08E2F90E08C010E5F1F4FCA502F
:1022F000DF4F19830883C65FD04011E0120FCC5026
:10230000DF4F1883C45FD040C651DF4FE880F980AB
:10231000CA5ED040E20EF31E530142010E2C04C0EF
:10232000B594A794979487940A94D2F780FEBDC180
:10233000F0E05F1749F18F2F63E00E94262E692F8E
:10234000CD5FDE4FA881B981C350D140A80FB11D28
:10235000CD014896880F991F880F991F820D931DF4
:102360008901A9E06A9F000D111D1124DC018D90E7
:102370009D90AD90BC9004C0B594A7949794879419
:102380000A95D2F780FCF1C0FF5FF93091F6F1E0D9
:10239000812C912C5401839404C0880C991CAA1C94
:1023A000BB1CEA94D2F7C550DF4F88819981CB5F7F
:1023B000D04060E0461781F0DC01A05ABF4FED909D
:1023C000FD900D911C91E820F9200A211B21EF2896
:1023D000E02AE12A09F0CBC06F5F0C96693051F713
:1023E00001E0C051DF4F0883C05FD040C451DF4FD0
:1023F0006881CC5ED04081E0C350DF4FA881B981B5
:10240000CD5FD0406A171B0611F00CF0B9C08823CD
:1024100009F4B6C0B3E0FB2E6F9D70011124C750C4
:10242000DF4FF982E882C95FD0409E2FCA50DF4F4C
:1024300008811981C65FD0409017110611F00CF089
:102440009DC0641303C0951709F44DC01BEA919F0A
:10245000712D11247695C750DF4F08811981C95F0E
:10246000D040070F111D085E1F4F000F111F000FF6
:10247000111FD801A20DB31DC252DF4FB983A8832B
:10248000CE5DD040A72FAA0F7A0FB92FB71B7901C5
:1024900009E0B09FE00CF11C1124CB5FDE4FF98204
:1024A000E882C550D140C252DF4FA881B981CE5DCC
:1024B000D040ED90FD900D911C91CB5FDE4F0880D8
:1024C000C550D14004C015950795F794E7940A9438
:1024D000D2F7C252DF4FE882F9820A831B83CE5DB6
:1024E000D040E0FC4AC09F5FA1CFCE51DF4F288192
:1024F0003981C25ED040CF5FDE4F39832883C1501F
:10250000D140CBCD75946794579447945F5F13CEB9
:10251000C1010E94910ECE51DF4F99838883C25E24
:10252000D040181619060CF46FC7CE51DF4F8881C2
:102530009981C25ED040C05FDE4F0FB6F894DEBF17
:102540000FBECDBFDF91CF911F910F91FF90EF9004
:10255000DF90CF90BF90AF909F908F907F906F90C3
:102560005F904F903F902F900895F0E011CFC051B1
:10257000DF4F1882C05FD04039CF80E06F5F3CCF23
:10258000F1110AC0C051DF4FB881C05FD040B11116
:1025900003C0882309F489C0CA51DF4FE881F9815B
:1025A000C65ED0403197CC50DF4FE880C45FD0404A
:1025B000E082C851DF4FE881F981C85ED040E05A1F
:1025C000FF4F8FEF91E0A0E0B0E0C651DF4F0880F1
:1025D000CA5ED04004C0880F991FAA1FBB1F0A946F
:1025E000D2F780959095A095B09584219521A6214C
:1025F000B7212C013D01482859286A287B284082B0
:10260000518262827382CE50DF4FA881B981C25F4E
:10261000D0408D919C91119701968D939C93BFEF23
:10262000CB1ADB0AC850DF4FB880C85FD040B1106A
:1026300026C05F5F593009F007CE4F5FCC51DF4FA6
:1026400008811981C45ED040075F1F4FCC51DF4F16
:1026500019830883C45ED040CD5FDE4F2881398165
:10266000C350D1402D5F3F4FCD5FDE4F398328836C
:10267000C350D140493009F0C3CDCD28E9F0C101A4
:102680000E94910ECE51DF4F99838883C25ED04065
:10269000181619060CF049CFC850DF4FE880C85F04
:1026A000D040EE2009F497CD40CF2F5F3F4F293027
:1026B000310509F022CEBDCFC750DF4F19821882F5
:1026C000C95FD04043E0DE011A96C452DF4FB983A0
:1026D000A883CC5DD040FE013196C350DF4FF98313
:1026E000E883CD5FD040C051DF4F39822882C05F80
:1026F000D040CC51DF4F19821882C45ED040C45103
:10270000DF4F19821882CC5ED040CA51DF4F188249
:10271000C65ED040CA51DF4F8881C65ED040642F6C
:102720000E94262E292F982F990F980FC550DF4F02
:102730009883CB5FD040892F90E0249F70011124B3
:10274000C95FDE4FF982E882C750D140C051DF4FE8
:1027500008811981C05FD040C651DF4F19830883BB
:10276000CA5ED040C252DF4F19821882CE5DD0407F
:102770009C012E5F3F4FCD5FDE4F39832883C350CE
:10278000D140CB5FDE4F99838883C550D140C25280
:10279000DF4F3881CE5DD040CE50DF4F3883C25FEF
:1027A000D040C651DF4FA881B981CA5ED0401F9684
:1027B000BC908B2D8F7009F019C4BB2DB295BF70E2
:1027C000CC50DF4FB883C45FD040832F642F0E946A
:1027D000262E582FF9E09F9FF0011124C851DF4F9A
:1027E000F983E883C85ED040C451DF4FE881F981A6
:1027F000CC5ED040E80FF11D7896EE0FFF1FEE0F74
:10280000FF1FE20DF31D0081118122813381C85128
:10281000DF4F0880C85ED04004C0359527951795D6
:1028200007950A94D2F7117022273327E1E0F0E0F0
:10283000EC0FFD1FC252DF4FE880F980CE5DD04023
:10284000EE0DFF1DFF24F394F082C051DF4FE880AE
:10285000F980C05FD040DE011196CC24C394D12C06
:10286000CE50DF4FE881C25FD040ED15A9F1F701EE
:1028700087858B25807F09F0A0C28D2D642F0E9453
:10288000262EC451DF4FE881F981CC5ED040E80F9D
:10289000F11D7896EE0FFF1FEE0FFF1FE20DF31DE7
:1028A00069E0969FC001112440805180628073804E
:1028B00004C075946794579447948A95D2F771E051
:1028C000572266247724041515052605370509F0D7
:1028D00074C281E08C93C394D39411969FEFE91A4C
:1028E000F90AE9E0DE12BCCFCC50DF4FF881C45FBB
:1028F000D040FC119BC0C051DF4FA881B981C05F9F
:10290000D040BE016F5F7F4F7B01D12CF7018191D9
:102910007F01811186C08D2D642F0E94262EC45107
:10292000DF4FE881F981CC5ED040E80FF11DEE0F5A
:10293000FF1FEE0FFF1FE20DF31DE05AFF4F408017
:1029400051806280738079E0979FB0011124CA5052
:10295000DF4F79836883C65FD04053014201CA507C
:10296000DF4F0880C65FD04004C0B594A794979409
:1029700087940A94D2F780229122A222B322811452
:102980009104A104B10409F44CC0C901B801CA50B2
:10299000DF4F0880C65FD04004C0660F771F881FD6
:1029A000991F0A94D2F7C35FDE4F688379838A83C5
:1029B0009B83CD50D140609570958095909546222F
:1029C000572268227922408251826282738280FE7D
:1029D0001FC01F968C911F9780511F968C931F9735
:1029E000C251DF4FE881F981CE5ED0408081918174
:1029F000019691838083CC51DF4FE881F981C45ED9
:102A0000D0403196CC51DF4FF983E883C45ED0408B
:102A1000B594A7949794879481149104A104B10468
:102A2000B1F6D3941196F9E0DF1270CFE1E0C35014
:102A3000DF4FA881B981CD5FD040EC93C252DF4F08
:102A4000E880F980CE5DD040E20CF31CCA50DF4F25
:102A5000F982E882C65FD04064E0569FC00111242D
:102A6000820D931D6701DE01119670E060E0BB24CA
:102A7000B394CA51DF4FE881C65ED040E617C1F17A
:102A8000F601F784C651DF4FE881F981CA5ED04074
:102A9000E784FE24FF2DF07F09F091C1ECE0E69F72
:102AA0007001E79FF00C1124F0E6EF0EF11CE80E28
:102AB000F91EF7014080518062807380C851DF4F5A
:102AC0000880C85ED04004C07594679457944794BA
:102AD0000A94D2F7F1E05F226624772404151505E5
:102AE0002605370509F06BC1EE24E394EC92B3940C
:102AF0006F5F7F4F1196E9E0CE0ED11C69307105F2
:102B000009F0B7CFCC50DF4FF881C45FD040FB1144
:102B100084C068017901C851DF4F0880C85ED04089
:102B200004C0CC0CDD1CEE1CFF1C0A94D2F7C09430
:102B3000D094E094F094DE0111966D91611154C02F
:102B4000BC01605A7F4FFB014080518062807380DE
:102B500053014201C851DF4F0880C85ED04004C015
:102B6000B594A794979487940A94D2F780229122DF
:102B7000A222B32281149104A104B104A9F14C2032
:102B80005D206E207F20408251826282738280FEAF
:102B900022C0CA50DF4FE881F981C65FD040678507
:102BA00060516787C251DF4FE881F981CE5ED04026
:102BB000608171816F5F7F4F71836083CC51DF4F84
:102BC000E881F981C45ED0403196CC51DF4FF98362
:102BD000E883C45ED040B594A794979487948114F9
:102BE0009104A104B10499F60C96CA50DF4F688194
:102BF0007981C65FD040675F7F4FCA50DF4F7983CE
:102C00006883C65FD040C452DF4FE881F981CC5D54
:102C1000D040AE17BF0709F090CF852F880F580F0F
:102C2000E52EF12CC851DF4FF982E882C85ED04012
:102C3000C95FDE4FE881F981C750D140C252DF4FF2
:102C4000A881B981CE5DD040EA0FFB1FEE19FF09C4
:102C5000EE24E394F12CEC0EFD1EEE0DFF1DFF247F
:102C6000F394F082C550DF4FA881CB5FD04061E084
:102C7000CA50DF4F6883C65FD040C851DF4FE8803D
:102C8000F980C85ED04072E0E70EF11C8A2F90E018
:102C9000CD5FDE4FE881F981C350D140E817F907D5
:102CA0000CF49AC0F9E0AF9F20011124CB5FDE4FF6
:102CB000E881F981C550D1408E1B9F0B3C01660C09
:102CC000771C680E791EA49F60011124B52F6B2F0D
:102CD00070E0E616F7060CF47DC0CA51DF4FF881AC
:102CE000C65ED040AF1308C0CE50DF4FB880C25F81
:102CF000D040BB1509F45FC0CB01860D971DC851AC
:102D0000DF4FE881F981C85ED0408E1B9F0B620DBA
:102D1000731DFB01E40DF51D6785C651DF4FE8818A
:102D2000F981CA5ED04077856727607F09F049C086
:102D3000FBEABF9F612D11246695F601E60FF11D98
:102D40007896EE0FFF1FEE0FFF1FE20DF31D762F9B
:102D5000770F670FBB2EB61A6B2D79E0B72E6B9DE0
:102D6000B001112480809180A280B38004C0B5940A
:102D7000A794979487946A95D2F761E09622AA2443
:102D8000BB24E1E0F0E0EC0FFD1F8E0F9F1F081544
:102D900019052A053B05D9F4BB24B394FC01B08284
:102DA000CA50DF4F6881C65FD0406F5FCA50DF4FA7
:102DB0006883C65FD040BF5F8ACF1C928DCD1C92C6
:102DC00097CE61E070E06C0F7D1F860F971FFC01AE
:102DD0001082F1CFAF5F5ACFCC50DF4FF881C45F84
:102DE000D040CA50DF4FB880C65FD040FB11FEC054
:102DF000C550DF4F9881CB5FD040C851DF4F68810D
:102E00007981C85ED0406E5F7F4FC75FDE4F7983A8
:102E10006883C950D140692F70E0CD5FDE4FA88133
:102E2000B981C350D140A617B7070CF4DFC0CB5F00
:102E3000DE4FE881F981C550D1406E1B7F0BFB014D
:102E4000EE0FFF1F7F01E60EF71ECC50DF4FF98219
:102E5000E882C45FD040949FB0011124CA50DF4F74
:102E600079836883C65FD040B9E09B9FD00111246D
:102E7000C55FDE4FB983A883CB50D140852FE82FA3
:102E8000F0E0C75FDE4FE880F980C950D140EE1610
:102E9000FF060CF4A9C0CA51DF4FF880C65ED040CF
:102EA0009F1108C0CE50DF4FA881C25FD0408A1763
:102EB00009F498C0CC50DF4FE880F980C45FD0405F
:102EC000EE0DFF1DC851DF4F68817981C85ED0408B
:102ED000E61BF70BA1E0B0E0AC0FBD1FEA0FFB1F34
:102EE000608161117FC0BBEA8B9F612D11246695C3
:102EF000CA50DF4FE881F981C65FD040E60FF11D6F
:102F0000EE0FFF1FEE0FFF1FE20DF31DE05AFF4F04
:102F100080809180A280B380762F770F670FE82E94
:102F2000E61A79E0F72EEF9CB001112475016401D7
:102F3000062E04C0F594E794D794C7940A94D2F768
:102F4000C022D122E222F322C114D104E104F1040F
:102F500009F448C02801390104C0440C551C661C02
:102F6000771C6A95D2F740945094609470948420B2
:102F70009520A620B72080829182A282B382C55F6D
:102F8000DE4FE881F981CB50D140E80FF11DE20D11
:102F9000F31D3F96C0FE1DC0608160516083C25129
:102FA000DF4FA881B981CE5ED0406D917C911197A1
:102FB0006F5F7F4F6D937C93CC51DF4FA881B981B8
:102FC000C45ED0401196CC51DF4FB983A883C45E54
:102FD000D040F594E794D794C794C114D104E10488
:102FE000F104C1F68F5F4BCF9F5F15CFC252DF4F09
:102FF000E881F981CE5DD0403196C252DF4FF9832E
:10300000E883CE5DD040C651DF4F08811981CA5E8A
:10301000D0400F5F1F4FC651DF4F19830883CA5E30
:10302000D040399709F0B3CBCA51DF4F1881C65E43
:10303000D0401F5FCA51DF4F1883C65ED040C051D9
:10304000DF4F28813981C05FD040275F3F4FC0519B
:10305000DF4F39832883C05FD040C350DF4FA88142
:10306000B981CD5FD0401196C350DF4FB983A8839B
:10307000CD5FD040C451DF4FE881F981CC5ED040B4
:103080003396C451DF4FF983E883CC5ED0401930CA
:1030900009F040CBC750DF4FE880F980C95FD040CE
:1030A000CC51DF4F08811981C45ED040E00EF11E83
:1030B000C750DF4FF982E882C95FD040012B09F089
:1030C0000ACBCF5FDE4FE880F980C150D140CE51AE
:1030D000DF4F08811981C25ED0400E151F050CF428
:1030E00004CAC750DF4F28813981C95FD040232BE4
:1030F00009F0FBC9C851DF4F19830883C85ED0406F
:103100008E010F5F1F4F8091EB069091EC060097A8
:1031100011F48FEE96E0B801681B790BCB018F306C
:10312000924008F402CA72E0E72EF12CCE0101961B
:103130004C01C150DF4FA880B980CF5FD040D12C67
:10314000C12CC252DF4F99828882CE5DD040C651D9
:10315000DF4FB982A882CA5ED040CA51DF4F1882C1
:10316000C65ED040C651DF4FA881B981CA5ED0404B
:103170008D91C651DF4FB983A883CA5ED040282FF6
:1031800030E08F7009F005C164E0359527956A95A8
:10319000E1F7E216F3060CF4FCC0CA51DF4F888158
:1031A000C65ED04063E00E94262E292F8C0D9D2DF7
:1031B000911DB9E02B9F90011124412C512C32011B
:1031C0004A945394022E04C0440C551C661C771C70
:1031D0000A94D2F74094509460947094C251DF4F97
:1031E00039832883CE5ED040E1E0CC51DF4FE883C5
:1031F000C45ED0404896880F991F880F991F91018F
:10320000280F391FC051DF4F39832883C05FD0405A
:10321000A801480F591FC451DF4F59834883CC5E22
:10322000D040C051DF4FE881F981C05FD04080813C
:103230009181A281B381C251DF4F0880CE5ED04020
:1032400004C0B595A795979587950A94D2F780FF06
:1032500084C08BEDF101D80101900D928A95E1F7C0
:10326000CC51DF4FE881C45ED040C252DF4FA8810D
:10327000B981CE5DD0401F96EC93C451DF4FE881F9
:10328000F981CC5ED04080819181A281B38184217B
:103290009521A621B72180839183A283B383809156
:1032A000740190917501A0917601B091770101961A
:1032B000A11DB11D8093740190937501A0937601B7
:1032C000B0937701C850DF4FF881C85FD040F1114B
:1032D00040C060E0C8010E941110CE51DF4F9983B9
:1032E0008883C25ED040CE51DF4F28813981C25ED3
:1032F000D04037FD32C08BEDF801D10101900D9225
:103300008A95E1F7232B09F410C9C850DF4FB88024
:10331000C85FD040B11009C9C851DF4FE880F980BB
:10332000C85ED040CE51DF4F28813981C25ED04087
:103330002E153F050CF0F9C8CE51DF4F4881598159
:10334000C25ED040C851DF4F59834883C85ED04029
:10335000DACEC8010E94910EC0CFCC51DF4F388128
:10336000C45ED0403F5FCC51DF4F3883C45ED04055
:10337000C251DF4F48815981CE5ED0404F5F5F4FD1
:10338000C251DF4F59834883CE5ED0403A3009F0B6
:1033900048CFCA51DF4F5881C65ED0405F5FCA51E7
:1033A000DF4F5883C65ED040C252DF4F68817981BB
:1033B000CE5DD0406F5F7F4FC252DF4F798368830D
:1033C000CE5DD040593009F0CDCE79E0A70EB11CCA
:1033D00089E0880E911C93E0C90ED11CABE1CA169E
:1033E000D10409F0AECEBFEFEB1AFB0AEAE0EE160D
:1033F000F10409F09BCE0FEF1FEFCE51DF4F198381
:103400000883C25ED04091C8C850DF4FB880C85F03
:10341000D040BB2011F40C945A1087C82F923F92D1
:103420004F925F926F927F928F929F92AF92BF92D4
:10343000CF92DF92EF92FF920F931F93CF93DF9380
:10344000CDB7DEB729970FB6F894DEBF0FBECDBF5C
:1034500020EB30E03A8329832CE2222E312C3AE013
:10346000432E512C612C712C0E94200910926D0169
:1034700010926C0110926B0110926A014101B12C03
:10348000A12CF12CE12C89819A8186589D4F9D8336
:103490008C83E981FA81E25DFC4FFF83EE83FAE0E1
:1034A0008F1691040CF4AAC0EC81FD81EA0DFB1D7E
:1034B0000591159125913491B801C90121E030E0C1
:1034C00039872887A30192010E94CB2D2B83C32E1D
:1034D000D42E152F660F771F685E7E4FFB0140814B
:1034E000518107E027E0B701888599850E94570838
:1034F0006B817C2D8D2D912F28853985295F3F4F3C
:103500003987288720343105E9F63AE0831691049B
:103510000CF479C0EE81FF81EA0DFB1D0591159138
:1035200025913491B801C901A30192010E94CB2DCC
:103530002B83C32ED42E152F660F771F685E7E4F08
:10354000FB014081518107E027E0B701888599851B
:103550000E9457086B817C2D8D2D912F28853985F0
:10356000295F3F4F398728872F373105E9F63FEF2D
:10357000831A930A87E0E80EF11C94E0A90EB11CAF
:10358000EFE3EE16F10409F08ACF00E226E542E20D
:1035900051E060E170E085E190E00E9457080E94F0
:1035A00047086DE070E080E090E00E94DE09F1E005
:1035B0002F1A310829813A81245031093A8329830D
:1035C0003FEF2316330609F04FCF29960FB6F89434
:1035D000DEBF0FBECDBFDF91CF911F910F91FF9046
:1035E000EF90DF90CF90BF90AF909F908F907F90A3
:1035F0006F905F904F903F902F90089560E070E043
:1036000080E090E05BCF60E070E080E090E08CCF05
:1036100090916E0120916F01922398238091700107
:10362000982380917101982380917201982381E001
:1036300009F480E00895E0917301AFEFAE0FE1115E
:1036400001C0A4E0B0E0A259BE4F9C91982339F488
:10365000F0E0E259FE4F9081982381E009F480E088
:103660000895089590E080E00895DF92EF92FF9230
:103670000F931F93CF93DF93082F10E0843058F0FF
:103680000FEF1FEFC801DF91CF911F910F91FF90B6
:10369000EF90DF90089592EBE92E95E0F92ED12C72
:1036A000C0E1D0E0C25BD5409BED899FC00DD11D2C
:1036B0001124CE018E0D9F1D0E94B52DF70181931F
:1036C0007F01D80EFDE8EF16F6E0FF0691F76EE2F7
:1036D00070E18DE896E00E94AE2D6DE876E082EB19
:1036E00095E00E946E2E892B59F6EDE2F0E1E4910F
:1036F0008091BC058E13C4CFDD2021F2C1CFFB0128
:1037000001900020E9F73197AF01461B570BDC0110
:10371000ED91FC910280F381E02D099466E571E062
:1037200087E996E00C947F1BCF93DF93BC0187E978
:1037300096E00E94EF0AEC010E948E1B8C0F9D1FE9
:10374000DF91CF9108958F929F92AF92BF92EF92A7
:10375000FF920F931F93CF93DF93CDB7DEB7A1975F
:103760000FB6F894DEBF0FBECDBF7C01FA01CB01CE
:1037700019A2223008F42AE08E010F5D1F4F822E1D
:10378000912CB12CA12CBF01A50194010E94F52D13
:10379000F901CA016A300CF5605DD8016E938D01A4
:1037A000232B242B252B79F790E080E0109721F034
:1037B000BD01C7010E947F1BA1960FB6F894DEBF22
:1037C0000FBECDBFDF91CF911F910F91FF90EF9072
:1037D000BF90AF909F908F900895695CDECF462F89
:1037E00050E070E060E02AE00C94A31BCF92DF92DF
:1037F000EF92FF920F931F93CF93DF936B01770F9D
:10380000EE08FF08F7FE1BC0EC016DE20E94E80A1B
:103810008C0144275527BA014C195D096E097F09AF
:103820002AE0CE010E94A31B800F911FDF91CF9150
:103830001F910F91FF90EF90DF90CF9008952AE0B5
:10384000B701A601DF91CF911F910F91FF90EF90EB
:10385000DF90CF900C94A31B3F924F925F926F9298
:103860007F928F929F92AF92BF92CF92DF92EF9210
:10387000FF920F931F93CF93DF93882E69E171E03E
:1038800087E996E00E94EF0A682D87E996E00E949A
:10389000EF1B0E948E1B89E0889E4001112422EBC1
:1038A000A22E25E0B22ED0E0C0E03AE0432E512C0B
:1038B000612C712CF401EC0FFD1FEE0FFF1FEE0FBA
:1038C000FF1FE658FD4FC590D590E590F4902AE093
:1038D000B701A601F7FE0DC06DE287E996E00E94F0
:1038E000E80A44275527BA014C195D096E097F097A
:1038F0002AE087E996E00E94A31B0E948E1B8501A7
:1039000089E0382EC701B601A30192010E94CB2D98
:103910006115710581059105E1F1606FF801678B13
:10392000C701B601A30192010E94CB2D69017A0162
:103930003A94015011093110E5CF2196F9E0AF0E0C
:10394000B11CC930D10509F0B5CF84E090E0909367
:10395000940180939301909396018093950182EB5B
:1039600095E00E94910E90938B0680938A06DF91DA
:10397000CF911F910F91FF90EF90DF90CF90BF906C
:10398000AF909F908F907F906F905F904F903F90FF
:103990000895F801178AC4CF009729F0BC0187EE7B
:1039A00096E00C947F1B90E080E008951F920F92A8
:1039B0000FB60F9211242F933F938F939F93AF9342
:1039C000BF9380919C0190919D01A0919E01B09127
:1039D0009F0130919B0123E0230F2D3758F501966D
:1039E000A11DB11D20939B0180939C0190939D018B
:1039F000A0939E01B0939F018091A0019091A1019D
:103A0000A091A201B091A3010196A11DB11D8093C7
:103A1000A0019093A101A093A201B093A301BF9133
:103A2000AF919F918F913F912F910F900FBE0F906B
:103A30001F90189526E8230F0296A11DB11DD2CF25
:103A40001F920F920FB60F9211248F939F93809124
:103A5000E1009091E100937F9093E10083FF0FC01C
:103A60001092E90091E09093EB001092EC0092E349
:103A70009093ED001092B10198E09093F00082FFD6
:103A800022C093E09093E9009091F200992319F0FD
:103A90009AE39093E80090916301992341F090910B
:103AA0006301915090936301911101C05D989091D1
:103AB000B001992341F09091B00191509093B001E1
:103AC000911101C0289884FF18C08091E2008E7E79
:103AD00081608093E2008091E1008F7E8093E1001D
:103AE000809164018E7E8061809364019F918F91AB
:103AF0000F900FBE0F901F90189580FFF7CF809109
:103B0000E2008E7E80618093E2008091E1008E7EF3
:103B10008093E100809164018E7E8160E5CF1F92E9
:103B20000F920FB60F921124CF92DF92EF92FF9275
:103B30000F931F932F933F934F935F936F937F93B5
:103B40008F939F93AF93BF93EF93FF93CF93DF93A5
:103B5000CDB7DEB76C97DEBFCDBF1092E900809184
:103B6000E80083FF25C068E0CE0145960E94DB0A8D
:103B700082EF8093E8008D8987FF39C09091E8003B
:103B800090FFFCCF982F907609F034C19E894F8921
:103B9000588D2F89F88C911131C0803861F5809152
:103BA00065018093F1001092F1008EEF8093E800A0
:103BB0006C960FB6F894DEBF0FBECDBFDF91CF91EC
:103BC000FF91EF91BF91AF919F918F917F916F91F5
:103BD0005F914F913F912F911F910F91FF90EF9027
:103BE000DF90CF900F900FBE0F901F9018959EEF13
:103BF0009093E800C7CF1092F100D5CF913059F4DF
:103C00008111D3CF4130510581F6809165018D7FBF
:103C100080936501CACF933049F48111C6CF4130FA
:103C2000510519F6809165018260F2CF953041F41B
:103C30008091E80080FFFCCF20682093E300B5CF9F
:103C4000963009F0A9C00B8D1C8D22E01092E9007E
:103C50001092610110926001F2122EC010925F0169
:103C600010925E010E94AA0A1F8299E09983FA824B
:103C700091E09E8390EA98879AEF9987209160015E
:103C800030916101275F3F4F3C832B838D831092DE
:103C9000E900109261011092600110935F0100939E
:103CA0005E0149E050E0BE016F5F7F4F80E00E94FF
:103CB000840A0E94AA0A79CF10935F0100935E01E3
:103CC0000E94A509DC0112960D911C9101151105A8
:103CD00009F451C1D801ED91FC910480F581E02DEA
:103CE000BE016B5E7F4FC8010995009709F03EC188
:103CF000F80100851185EACFF3E0FF120EC08F892D
:103D0000882309F440C0823061F440E86DE082E32A
:103D10009EE00E94510A811148CF81E28093EB001E
:103D200047CF813029F440E86BE086E29EE0F1CF96
:103D3000833099F70E94A509DC011296ED90FC9062
:103D40008E010F5F1F4F6801E114F10479F0D70174
:103D5000ED91FC910680F781E02DB801C70109952E
:103D6000080F111DF701E084F184EECFD8011C92F9
:103D7000F60101900020E9F73197BF016C197D0928
:103D800040E0C601C6CF60E17EE0FB01449150E017
:103D900080E80E94840A09CF973009F4BECF98309A
:103DA00021F481E08093F10000CF993009F0FDCE3D
:103DB000837009F0B2CFE2E1F1E081E031E096E317
:103DC0002191222371F08093E9003093EB00DF0111
:103DD00011972C912093EC009093ED008F5F87302A
:103DE00079F78EE78093EA001092EA008F8980933A
:103DF000B101DBCE8B8D9C8D1092E9001092610198
:103E00001092600190935F0180935E01898D811112
:103E100092C08E899D89913A49F4813209F07DCF13
:103E200047E050E064E071E080E0B3CF913209F008
:103E300074CF833269F48F89988DB0E0A0E08093CD
:103E4000000190930101A0930201B0930301ADCE54
:103E5000803269F48091E80082FFFCCF67E084E063
:103E600091E00E94DB0A8BEF8093E8009ECE8232C5
:103E700009F09BCE8F8980930B01EEEFFFE78591D0
:103E800094918B3F9C4D51F1E0E0F8E0809104016A
:103E900090910501A0910601B0910701803B9440EB
:103EA000A105B105F1F480910B0180FD1AC0EE3F30
:103EB0008AE0F80789F587E797E791838083809107
:103EC00060008093620188E19BE00FB6F894A895AA
:103ED000809360000FBE9093600067CEEEEFFAE033
:103EE000D5CF808191818737974709F05ECEA8951D
:103EF000809160008861809360008091620180936E
:103F00006000EE3F2AE0F20789F08091FE0A90916E
:103F1000FF0A9183808349CE8081918187379807FA
:103F200051F29093FF0A8093FE0AC5CF1092FF0AC8
:103F30001092FE0A3ACE0E94A509DC0112960D915C
:103F40001C910115110509F4E8CED801ED91FC9101
:103F50000190F081E02DBE016B5E7F4FC801099595
:103F6000811123CEF80100851185EBCF18161906B3
:103F70000CF41BCED2CEF1E0FF12BECE64E17EE0A7
:103F800004CFE7E9F6E01382128288EE93E0A0E026
:103F9000B0E084839583A683B7838CE391E091831B
:103FA00080838FEF9FEF95878487E7EEF6E013829B
:103FB00012828EE491E0918380830895CF93DF9302
:103FC000CDB7DEB7CD5ED1090FB6F894DEBF0FBE18
:103FD000CDBF789484B5826084BD84B5816084BD92
:103FE00085B5826085BD85B5816085BD80916E0097
:103FF000816080936E0010928100809181008260C8
:104000008093810080918100816080938100809104
:104010008000816080938000809191008260809315
:104020009100809191008160809391008091900037
:104030008160809390008091C10084608093C10072
:104040008091C10082608093C1008091C100816035
:104050008093C1008091C30081608093C3008091F0
:10406000C00082608093C0008091C2008160809314
:10407000C20080917A00846080937A0080917A00F7
:10408000826080937A0080917A00816080937A00C8
:1040900080917A00806880937A001092B10110922A
:1040A0006501109264018091D70081608093D700F0
:1040B00080EA8093D80089B5806189BD89B5826026
:1040C00089BD09B400FEFDCF61E070E080E090E0C2
:1040D0000E94DE098091D8008F7C80618093D80097
:1040E0008091E000807F8093E0008091E1008E7EEF
:1040F0008093E1008DE08093E200559A209A5D98CC
:10410000289881EC80937C0085B1806F85B984B15B
:10411000877E84B984B1876E84B95E9A5F988AB1CC
:10412000806D8AB9769A6E9881B3806F81BB8998C9
:1041300080B38D7080BB80E58CBD81E08DBD0E9419
:10414000110A5F9A0E94110A5E985C9800E41EE0D2
:104150005DE4E52E5EE0F52EF80184910E94800C6E
:104160000F5F1F4FE016F106B9F75C9A81E8809364
:1041700064008091650081608093650000E014E038
:1041800080E00E94800C01501109D1F70E94780C48
:1041900087FF12C05C9885EA0E94800C5C9A2E987A
:1041A0002F982D988091640080628093640081E054
:1041B00083BF889513BEFCCF82E090E00E94B52DAE
:1041C000882309F488C03E9A3F9A82E480930C01C8
:1041D00010926E0110926F01109270011092710195
:1041E00010927201109273018FEF9FEF9093A406CB
:1041F0008093A3066DE47EE087E996E00E94EF0AD3
:104200000E940E1A4FE7E42E41E0F42E10E0812FB9
:104210000E94351B69E571E097FD02C06DEB75E00A
:10422000C7010E94772E1F5FF4E0EF0EF11C1430DF
:1042300071F76EE270E182EB95E00E94AE2DEDE247
:10424000F0E184918093BC0569E571E08DEB95E028
:104250000E94772E109285061092840680E00E94BC
:104260002C1C60ED77E080E090E00E94DE09109267
:1042700086061092870610928806109289060E9480
:10428000170A609378017093790180937A01909373
:104290007B0133E0232E312C8FE090E09C01225BE8
:1042A0003540C451DF4F39832883CC5ED0400E9413
:1042B000170A30916801C052DF4F3883C05ED0408A
:1042C000332361F01092680180E090E0892B79F34C
:1042D0000E940000E1CF3E983F9877CF809169011E
:1042E000462F481B842F90910C01491740F48F5F93
:1042F000891750F781E083BF889513BEE5CF81E031
:1043000080936801609369018091660190916701D3
:104310000196909367018093660180919701909137
:104320009801A0919901B0919A010196A11DB11D2A
:104330008093970190939801A0939901B0939A016B
:104340008091730190E0019665E070E00E94342E48
:104350008C01809373010E94780CF801E259FE4FA2
:1043600080830E94200910926D0110926C011092BE
:104370006B0110926A01E0911001EB3010F00C9487
:10438000362CF0E0EA53FE4D0C94482EAF25D6288B
:10439000E128ED28672A3C2BD524D12173220C2C4F
:1043A000242C80E40E941B1B811106C080E40E9423
:1043B000081B882309F491C0809195019091960182
:1043C000883091055CF40196909396018093950155
:1043D00081E0C052DF4F8883C05ED04080E20E94FF
:1043E0001B1B811105C080E20E94081B882391F0ED
:1043F0008091950190919601181619065CF4019729
:10440000909396018093950191E0C052DF4F98837D
:10441000C05ED04080E80E941B1B811105C080E86F
:104420000E94081B882391F0809193019091940140
:10443000181619065CF401979093940180939301E8
:10444000E1E0C052DF4FE883C05ED04080E10E94CF
:104450001B1B811105C080E10E94081B882391F07D
:104460008091930190919401883091055CF40196BC
:104470009093940180939301F1E0C052DF4FF88351
:10448000C05ED04088E00E941B1B882319F089E0A1
:104490008093100184E00E941B1B882309F493C0C1
:1044A000809193019091940129E0289FF001299F28
:1044B000F00D1124EE54FA4F8091950190919601E0
:1044C000E80FF91F878580939201807F803F09F470
:1044D0007AC088E08093100176C0C052DF4F188206
:1044E000C05ED0407BCF80E40E941B1B882329F054
:1044F0008091850681608093850680E20E941B1B67
:10450000882329F0809185068E7F8093850680E838
:104510000E941B1B811105C080E80E94081B882394
:1045200049F080919201982F9F70993018F48F5F15
:104530008093920180E10E941B1B811105C080E1E4
:104540000E94081B882341F080919201982F9F7050
:1045500019F081508093920188E00E941B1B8823F0
:1045600041F087E080931001809185068E7F8093D3
:10457000850684E00E941B1B882329F187E0809335
:104580001001809185068E7F80938506809193012E
:104590009091940129E0289FF001299FF00D1124AA
:1045A000EE54FA4F8091950190919601E80FF91F12
:1045B00080919201878782EB95E00E94910E909303
:1045C0008B0680938A06809110018750823010F00C
:1045D0000C94EC2C80918A0690918B06892BA1F18A
:1045E0000E94170AAB01BC0100917801109179017A
:1045F00020917A0130917B01809186069091870607
:10460000A0918806B0918906401751076207730789
:1046100018F40197A109B109801B910BA20BB30BF0
:10462000840F951FA61FB71F809386069093870659
:10463000A0938806B093890640937801509379013E
:1046400060937A0170937B0110926B0110926A0162
:1046500010926D0110926C01809184068F3F11F0D1
:104660000C94472C67EA7EE087EE96E00E94EF0A02
:1046700080918A0690918B0697FD02C00C94562C6F
:1046800030926B0120926A0188E190E090936D0175
:1046900080936C0163EA7EE087EE96E00E94EF0A69
:1046A00010926B0110926A0180E290E090936D018C
:1046B00080936C016EE97EE087EE96E00E94EF0A3F
:1046C00010926B0110926A0188E390E090936D0163
:1046D00080936C018091840664E97EE08F3040F025
:1046E0006FE87EE0893120F08D3230F46AE87EE0B8
:1046F00087EE96E00E94EF0A81E690E090936B01CE
:1047000080936A0110926D0110926C01609186068F
:1047100070918706809188069091890620E63AEE8E
:1047200040E050E00E94F52D69012A3031052CF45B
:1047300060E287EE96E00E94E80AB60187EE96E016
:104740000E94F61B6AE387EE96E00E94E80A6091F9
:10475000860670918706809188069091890628EEDA
:1047600033E040E050E00E94F52DCA01B9012CE38E
:1047700030E040E050E00E94F52D6B016A30710599
:104780002CF460E387EE96E00E94E80AB60187EE1B
:1047900096E00E94F61B0091930110919401809184
:1047A00095019091960129E0209FF001219FF00D45
:1047B0001124EE54FA4FE80FF91F3785307F303F50
:1047C00011F00C94732C8FE690E090936B01809322
:1047D0006A018CE190E090936D0180936C016CE430
:1047E00087EE96E00E94E80A8DE690E090936B01D8
:1047F00080936A018EE290E090936D0180936C014A
:1048000082E080930D0180911001883011F00C94AA
:10481000D12C24E142E16CE270E089E690E00E9454
:10482000C20D609192016F7070E06115710511F019
:104830000C94E62C6FE587EE96E00E94E80A81E092
:1048400080930D01C851DF4F19821882C85ED04095
:10485000CE51DF4F19821882C25ED04088248394E3
:10486000912CF4013197C651DF4FF983E883CA5E7A
:10487000D040CE51DF4F28813981C25ED0402E54C6
:104880003A4FCA51DF4F39832883C65ED040CC519E
:10489000DF4F19821882C45ED040CA51DF4F288191
:1048A0003981C65ED040CE51DF4F88819981C25E8A
:1048B000D040281B390B225B3540CA51DF4FE881BD
:1048C000F981C65ED04097859F70A92FB0E0E09037
:1048D0000E01F0900F01CC51DF4FE881F981C45EE9
:1048E000D040EE0DFF1D91110C94092D809185068D
:1048F00081FD02C00C94092DC90163E070E00E94A3
:10490000342EC851DF4FA881B981C85ED040A60FB0
:10491000B71FAA0FBB1FAA0FBB1FAE5EB94F49E05E
:10492000489F9001499F300D11244D905D906D90EE
:104930007C9004C075946794579447942A95D2F755
:1049400081E05822662477248F010F5F1F4F5401A6
:10495000680191E0CF51DF4F9883C15ED040411490
:1049600051046104710411F40C941A2D40FE05C029
:1049700041E0B501C6010E94860C75946794579476
:104980004794CF51DF4FE881C15ED040EF5FCF51F8
:10499000DF4FE883C15ED040E43011F00C94F82C76
:1049A000F2E0AF0EB11C6801DACF9CE2E92E91E093
:1049B000F92E22E0C22ED12C10E000E030926B01E3
:1049C00020926A01D0926D01C0926C0105301105F0
:1049D00061F480918A0690918B0665E270E197FD03
:1049E00018C060E270E1892BA1F0F701608171814C
:1049F0008DE896E00E94AE2D0E94CC1C023011057D
:104A000061F4809185066CE170E1823011F067E11C
:104A100070E187EE96E00E94EF0A0F5F1F4FFAE009
:104A2000CF0ED11C22E0E20EF11C0630110531F64A
:104A3000109191013AE0139FB00111244CE390E0F2
:104A400080E00E94710D80E20E941B1B882341F0D0
:104A50000E940E1A68EE73E080E090E00E94DE098A
:104A600080E80E941B1B811105C080E80E94081B82
:104A7000882321F0111111501093910180E10E94BF
:104A80001B1B811105C080E10E94081B882341F097
:104A900080919101853008F084E08F5F80939101CF
:104AA00088E00E941B1B882319F08AE08093100184
:104AB00084E00E941B1B882309F485CDD0909101CE
:104AC000D11028C0809184068F3F09F590E080E0E6
:104AD000FC01EF53FA4F29E03191307F303F19F05C
:104AE000DF0111971C922150B9F709968135910584
:104AF00079F782EB95E00E94910E90938B0680935C
:104B00008A0688E080939001D09210015CCD1092CB
:104B10009001FACF43E0D412F7CFD0928F0169E52C
:104B200071E08DEB95E00E946E2E8C01892B61F770
:104B30008FE7E82E81E0F82E69E571E0C7010E9459
:104B40006E2E892B19F400937E01DECF0F5F1F4F6D
:104B500084E0E80EF11C04301105B1F2EDCFF090C5
:104B6000840630926B0120926A0182E090E090937B
:104B70006D0180936C0160E171E08DE896E00E9428
:104B8000AE2D0E94CC1C10918406912C1F3F99F5EC
:104B900080E40E941B1B811106C080E40E94081B58
:104BA000982E882379F08091950190919601883014
:104BB00091050CF04FC0019690939601809395015A
:104BC0009924939480E20E941B1B811105C080E20E
:104BD0000E94081B882379F080919501909196019D
:104BE000181619060CF048C001979093960180930F
:104BF00095019924939480E80E941B1B811105C0A4
:104C000080E80E94081B882369F0209190012111FF
:104C10004CC08FEF112321F01F3F09F042C08CE2FE
:104C20008093840680E10E941B1B811106C080E1F5
:104C30000E94081B882309F46DC020919001211166
:104C40006CC1809184068C3209F05FC08FEF809335
:104C5000840660C010929601109295018091930194
:104C600090919401019669E070E00E94342E909337
:104C7000940180939301A4CF88E090E090939601F3
:104C8000809395018091930190919401009731F068
:104C900001979093940180939301ABCF88E090E0CB
:104CA000F8CF115010938406BDCF8091930190915D
:104CB0009401273061F4181619060CF0B3CF019750
:104CC000909394018093930199249394ABCF29E01E
:104CD000289FF001299FF00D11248091950190915A
:104CE0009601E80FF91FEE54FA4F87858F708930CF
:104CF00050F0878782EB95E00E94910E90938B068F
:104D000080938A068FCF8F5FF4CF8F3F09F000C169
:104D10001092840630926B0120926A018CE090E040
:104D200090936D0180936C01809184068F3008F020
:104D300024C18A3028F460E387EE96E00E94E80AF6
:104D40006091840687EE96E00E94EF1B6EE070E1B2
:104D500087EE96E00E94EF0A30926B0120926A0182
:104D600086E190E090936D0180936C0160918406E0
:104D700081EF860F8A3008F007C187EE96E00E9427
:104D8000EF1B02E010E063E070E187EE96E00E9426
:104D9000EF0A30926B0120926A0180E290E09093DA
:104DA0006D0180936C016091840687EE860F8431DB
:104DB00008F0F3C087EE96E00E94EF1B03E010E0DE
:104DC0006AEF7FE087EE96E00E94EF0A30926B0177
:104DD00020926A018AE290E090936D0180936C01C9
:104DE000809184068F3F09F0DFC08091900167EFCA
:104DF0007FE0883031F061EF7FE0873011F464EFBD
:104E00007FE087EE96E00E94EF0A04E010E066EE95
:104E10007FE087EE96E00E94EF0A8AE0809FB00173
:104E2000819F700D11244AE282E190E00E94710D91
:104E3000809184068D3208F0BEC0F81609F4F6C0E1
:104E40000E942C1C82EB95E00E94910E90938B06A1
:104E500080938A0688E00E941B1B882341F0809182
:104E600084068F3F09F493C186E08093100184E0AB
:104E70000E941B1B8823F1F080918A0690918B067B
:104E800018161906BCF490E080E0FC01EF53FA4FCD
:104E900039E02191422F4F7021F0DF011197206FEF
:104EA0002C933150B1F709968135910571F78AE05D
:104EB0008093100110928606109287061092880641
:104EC000109289060E94170A609378017093790105
:104ED00080937A0190937B0180918A0690918B0652
:104EE00097FF10C030926B0120926A0184E390E03A
:104EF00090936D0180936C0168EC7FE087EE96E003
:104F00000E94EF0AC052DF4F9882C05ED0405BCB58
:104F10008C3208F08BE28F5F9ACE80919301909152
:104F20009401273061F4883091050CF0F3CE01969E
:104F3000909394018093930199249394EBCE29E06C
:104F4000289FF001299FF00D1124809195019091E7
:104F50009601E80FF91FEE54FA4F87858F7051F4D0
:104F6000178682EB95E00E94910E90938B068093BA
:104F70008A06D0CE81508787F4CF64E170E187EE56
:104F800096E00E94EF0AE2CE6BE070E187EE96E0D9
:104F90000E94EF0A01E010E0F6CE60E070E187EEDB
:104FA00096E00E94EF0A0CCF6EEE7FE087EE96E06F
:104FB0000E94EF0A2CCFF816C9F190E080E0FC01C6
:104FC000EF53FA4F29E011922150E9F70996813504
:104FD0009105A9F782EB95E00E94910E90938B06C4
:104FE00080938A0688E08093900110927D01109250
:104FF0007C011092940110929301109296011092EC
:1050000095016BED7FE087E996E00E94EF0A6091E1
:105010007C0170917D0187E996E00E94F61B6DE5A9
:1050200087E996E00E94E80A0E948E1B19E0812E13
:1050300009E0A02EB12C87E996E00E945E0C1816BC
:1050400019060CF007CF0E942C0CFC0197FD9BC0A9
:105050008D32910521F0C0970A9708F08DC010E0BD
:10506000412C512C3201E130F105D9F0ED32F1053E
:1050700009F487C0CF01C0970A9798F4AAE0B0E07E
:10508000A30192010E94EA2D2F01FF0F6608770805
:10509000460E571E681E791E90E3491A5108610892
:1050A000710887E996E00E94EA0B0E942C0CFC0133
:1050B000C0970A97C0F2E130F105A9F2112341F03F
:1050C0007094609450944094411C511C611C711C5C
:1050D00000917C0110917D01809EC001819E900D08
:1050E0001124FC01EE54FA4F7F01B9E0CB2ED12CF4
:1050F000C301B2012AE030E040E050E00E94CB2D35
:10510000F701678B29013A01F1E0CF1AD10821E0BC
:10511000E21AF108C114D10459F7109296011092C5
:105120009501109394010093930182EB95E00E9406
:10513000910E90938B0680938A06C8010196B50163
:105140000E94342E90937D0180937C0160ED7FE07E
:1051500087E996E00E94EF0A60917C0170917D01E1
:1051600087E996E00E94F61B6DE587E996E00E94CC
:10517000E80A0E948E1B5FCF87E996E00E94EA0B47
:1051800062CF11E08ECF412C512C3201A1CF809102
:105190009001873031F0883039F487E080939001B6
:1051A00066CE1092900163CE88E0F8CF61E082EB8A
:1051B00095E00E94111090938B0680938A0686E0FA
:1051C00089C980918506811105C082E0809385069A
:1051D0008AE080C910928506FBCF30926B01209245
:1051E0006A0182E090E090936D0180936C0160E031
:1051F00071E08DE896E00E94AE2D0E94CC1C80E408
:105200000E941B1B811105C080E40E94081B88239B
:1052100041F080918F01833008F0DFC08F5F809371
:105220008F0180E20E941B1B811105C080E20E9459
:10523000081B882341F080918F01882309F4CFC097
:10524000815080938F0180E80E941B1B811105C053
:1052500080E80E94081B882369F0E0918F01E33009
:1052600008F4C1C080917E01882309F4BAC081503E
:1052700080937E0180E10E941B1B811105C080E1AB
:105280000E94081B882369F0E0918F01E33008F445
:10529000C6C080917E01833008F0BFC08F5F8093CD
:1052A0007E010FE711E0FCE0EF2EF12C912C812C18
:1052B000A9E0AA2EB12CB0926B01A0926A01F092E3
:1052C0006D01E0926C0164018FEFC81AD80AB60133
:1052D00087EE96E00E94F61B60E287EE96E00E9461
:1052E000E80A80917E018815190409F0B2C069E5C9
:1052F00071E08DEB95E00E946E2E892B09F4A9C018
:105300008DEB95E00E94CC1C3AE0E30EF11C0C5FA3
:105310001F4F460144E0C416D10469F6B0907E01E7
:10532000EB2CF12CC70101962AE0289F6001299FF0
:10533000D00C11242BE04BE0B60186E090E00E94F7
:10534000C20D00918F01033090F496E0099F800117
:1053500011240B5E1F4F46E0B601C8010E9464098C
:10536000B601665F7F4F46E0C8010E94640988E08D
:105370000E941B1B882319F086E08093100184E0B3
:105380000E941B1B882309F41EC969E571E08DEB9F
:1053900095E00E946E2E892B59F4B701660F771F96
:1053A000660F771F61587E4F8DEB95E00E94772E38
:1053B000E3E0EB1508F04FC065EB7FE087E996E08E
:1053C0000E94EF0A60917E0187E996E00E94EF1B40
:1053D0008DEA9FE00E94941BF6C880E020CF83E016
:1053E00030CF83E045CFF0E0EE54FA4F8385893328
:1053F00081F024F4803241F08F5F07C08A3559F084
:105400008A37D1F780E301C081E483871092C00519
:1054100031CF80E2FACF81E6F8CF80E040CFF0E0F4
:10542000EE54FA4F8385803359F024F4803279F0BA
:10543000815007C0813449F08136D1F78AE501C037
:105440008AE783871092C0052CCF80E2FACF89E3E8
:10545000F8CFC80157CF10928C06FBEDBF9E80019C
:1054600011244CE8E42E46E0F42E52EBA52E55E034
:10547000B52EC451DF4FC880D980CC5ED040C00E5D
:10548000D11EF50191905F01692DC6018E0F9F1FFE
:105490000E94BD2D60918C06690D60938C06EA1404
:1054A000FB0479F7619560938C06C80186519F4F84
:1054B0000E94BD2D80917E01F4E08F9FC0011124D8
:1054C0006DEB75E081589E4F0E94772E81CE309211
:1054D0006B0120926A0182E090E090936D018093CD
:1054E0006C0168EF70E08DE896E00E94AE2D0E949E
:1054F000CC1C80E80E941B1B811105C080E80E9423
:10550000081B882341F080917E01882309F4A5C0FF
:10551000815080937E0180E10E941B1B811105C098
:1055200080E10E94081B882341F080917E01833036
:1055300008F095C08F5F80937E019FE7E92E91E090
:10554000F92E2CE0A22EB12C10E000E039E0C32EA1
:10555000D12CD0926B01C0926A01B0926D01A092E1
:105560006C010F5F1F4FB80187EE96E00E94F61B9B
:1055700060E287EE96E00E94E80AC7010E94CC1C18
:105580002AE0A20EB11C34E0E30EF11C0430110538
:1055900001F700917E01802F90E001962AE0289F7C
:1055A000B001299F700D11242BE04BE086E090E0C4
:1055B0000E94C20D88E00E941B1B882319F086E020
:1055C0008093100184E00E941B1B882311F40C942B
:1055D000E322109184066DEB75E0CE0184529F4F5B
:1055E0000E94772E802F0E94351B97FF3AC067E9F3
:1055F0007FE087E996E00E94EF0A60917E0187E9EB
:1056000096E00E94EF1B8FE89FE00E94941B6EE2E1
:1056100070E182EB95E00E94AE2DEDE2F0E1849125
:105620008093BC05BE0164527F4F8DEB95E00E94D4
:10563000772E10928506109384061D3208F010E034
:10564000812F0E942C1C10928606109287061092C1
:105650008806109289060C94E32283E05ACF80E0FA
:105660006ACF0E94170A6093780170937901809342
:105670007A0190937B01ACCD10927F0610927E064A
:105680001092810610928006109283061092820674
:1056900010927401109275011092760110927701A8
:1056A00060E082EB95E00E94111090938B0680934E
:1056B0008A06009709F086C088E79FE00E94941B45
:1056C0008BEDE2EBF5E0DE01119601900D928A95EB
:1056D000E1F78E01005F1F4F6E01F1E6CF0ED11C86
:1056E00066E87EE087E996E00E94EF0A780188E0AC
:1056F000B82EF70161917F016F7070E087E996E045
:105700000E94F61B63E87EE087E996E00E94EF0ABC
:10571000BA94B110EECFF80160856F7070E087E940
:1057200096E00E94F61B0E948E1B075F1F4FC0165B
:10573000D106B1F60E948E1B65E67FE087E996E010
:105740000E94EF0A60917E0670917F0687E996E0DD
:105750000E94F61B6BE57FE087E996E00E94EF0A66
:10576000609180067091810687E996E00E94F61BA1
:1057700061E57FE087E996E00E94EF0A609182068A
:105780007091830687E996E00E94F61B62E47FE051
:1057900087E996E00E94EF0A4091740150917501EB
:1057A00060917601709177012AE087E996E00E9486
:1057B000A31B0E948E1B86E0809310011092910122
:1057C0000C94E32297FF17C064E27FE087E996E03C
:1057D0000E94EF0A60918A0670918B0687E996E035
:1057E0000E94F61B81E29FE00E94941B8EED9EE0DA
:1057F0000E94941BE0CF6EEC7EE087E996E00E9469
:10580000EF0A60918A0670918B0687E996E00E9404
:10581000F61B80EC9EE0ECCF20910E0130910F0141
:105820002034310544F680E490E0821B930B8430F1
:10583000910514F083E090E0820F931F90930F0185
:1058400080930E010C94E32280910E0190910F0140
:1058500081329105CCF09C018432910514F023E251
:1058600030E020523109821B930BE8CF6AEA7EE0D8
:1058700087E996E00E94EF0A6091100187E996E0BF
:105880000E94EF1B0E948E1B87E00C946A228A30D4
:1058900028F460E387EE96E00E94E80A60918406AF
:1058A00087EE96E00E94EF1B0C943823892B11F0B1
:1058B0000C94602330926B0120926A018CE190E09D
:1058C00090936D0180936C0169E97EE087EE96E02C
:1058D0000E94EF0A4EE16AE170E090E080E00E94F1
:1058E000710D0C94602330918506332311F40C94D0
:1058F000F42363E070E00E94342EF801EE0FFF1FE6
:10590000E00FF11FE60FF71FEE0FFF1FEE0FFF1F57
:10591000EE5EF94F289FA001299F500D1124808031
:105920009180A280B38004C0B594A7949794879483
:105930004A95D2F731E09322AA24BB24DD24D394E4
:1059400014E1E12EF12C07E610E081149104A1048A
:10595000B10411F40C94F42380FE0DC010936B017C
:1059600000936A01F0926D01E0926C016D2D87EE5B
:1059700096E00E94EF1BB594A79497948794D394D4
:1059800044E0D41631F087E0D81639F0085F1F4F95
:10599000DCCF6CE1E62EF12CD6CF54E2E52EF12CD3
:1059A000D2CF809193019091940129E0289FF0013A
:1059B000299FF00D1124EE54FA4F8091950190919A
:1059C0009601E80FF91F67850C94132487EE96E083
:1059D0000E94F61B0C941F240E94170A6093780102
:1059E0007093790180937A0190937B010C94222427
:1059F000CF51DF4F2881C15ED04042E0C40ED11CA0
:105A0000273011F00C94AF2432E0A30EB11C0C949B
:105A1000D324AA0FBB1FA85EBE4F4D915C9107E037
:105A200027E0C651DF4F68817981CA5ED040CF013F
:105A30000E945708CA51DF4F88819981C65ED040C5
:105A40000196CA51DF4F99838883C65ED040CC51FE
:105A5000DF4FE881F981C45ED0403796CC51DF4FEB
:105A6000F983E883C45ED040FF9711F00C944D2475
:105A7000F7E08F0E911CCE51DF4F28813981C25E35
:105A8000D040275F3F4FCE51DF4F39832883C25E1E
:105A9000D040C851DF4F88819981C85ED0400396BD
:105AA000C851DF4F99838883C85ED04090E489163F
:105AB000910411F00C9431244FE365E170E0C701CB
:105AC0000E942D094FE36AE270E0C7010E942D0990
:105AD0004FE370E060E0C70145960E944B0D4FE335
