:100000000C94D1070C94F9070C94F9070C94F90798
:100010000C94F9070C94F9070C94F9070C94F90760
:100020000C94F9070C94F9070C94ED0E0C945C0FEA
:100030000C94F9070C94F9070C94F9070C94F90740
:100040000C94F9070C94F9070C94F9070C94F90730
:100050000C94F9070C94F9070C94F9070C94A30E6F
:100060000C94F9070C94F9070C94F9070C94F90710
:100070000C94F9070C94F9070C94F9070C94F90700
:100080000C948E110C94F9070C94F9070C94F90751
:100090000C94F9070C94F9070C94F9070C94F907E0
:1000A0000C94F9070C94F9070C94F9070000000070
:1000B000003E5B4F5B3E3E6B4F6B3E1C3E7C3E1CEE
:1000C000183C7E3C181C577D571C1C5E7F5E1C0034
:1000D000183C1800FFE7C3E7FF0018241800FFE7EB
:1000E000DBE7FF30483A060E2629792926407F05AE
:1000F0000507407F05253F5A3CE73C5A7F3E1C1CC4
:1001000008081C1C3E7F14227F22145F5F005F5F83
:1001100006097F017F006689956A6060606060946F
:10012000A2FFA29408047E040810207E2010080874
:100130002A1C08081C2A08081E101010100C1E0C7F
:100140001E0C30383E3830060E3E0E060000000011
:100150000000005F00000007000700147F147F14F8
:10016000242A7F2A1223130864623649562050003D
:1001700008070300001C2241000041221C002A1C29
:100180007F1C2A08083E0808008070300008080814
:100190000808000060600020100804023E51494534
:1001A0003E00427F400072494949462141494D3352
:1001B0001814127F1027454545393C4A49493141B9
:1001C000211109073649494936464949291E000087
:1001D00014000000403400000008142241141414DC
:1001E0001414004122140802015909063E415D59C8
:1001F0004E7C1211127C7F494949363E41414122D1
:100200007F4141413E7F494949417F090909013EFA
:10021000414151737F0808087F00417F4100204021
:10022000413F017F081422417F404040407F021C33
:10023000027F7F0408107F3E4141413E7F0909094A
:10024000063E4151215E7F09192946264949493216
:1002500003017F01033F4040403F1F2040201F3FDC
:100260004038403F63140814630304780403615961
:10027000494D43007F4141410204081020004141A3
:10028000417F04020102044040404040000307084F
:100290000020545478407F2844443838444444284B
:1002A000384444287F385454541800087E090218F2
:1002B000A4A49C787F0804047800447D400020407A
:1002C000403D007F1028440000417F40007C0478BE
:1002D00004787C080404783844444438FC18242406
:1002E0001818242418FC7C08040408485454542486
:1002F00004043F44243C4040207C1C2040201C3C03
:100300004030403C44281028444C9090907C4464F9
:10031000544C44000836410000007700000041368C
:10032000080002010204023C2623263C1EA1A16112
:10033000123A4040207A3854545559215555794144
:100340002154547841215554784020545579400C1B
:100350001E527212395555555939545454593955FC
:100360005454580000457C410002457D420001453F
:100370007C40F0292429F0F0282528F07C545545AC
:10038000002054547C547C0A097F4932494949323F
:100390003248484832324A4848303A4141217A3A54
:1003A00042402078009DA0A07D39444444393D401E
:1003B00040403D3C24FF2424487E4943662B2FFCCB
:1003C0002F2BFF0929F620C0887E09032054547979
:1003D000410000447D413048484A32384040227A4A
:1003E000007A0A0A727D0D19317D2629292F2826C7
:1003F0002929292630484D402038080808080808CF
:100400000808382F10C8ACBA2F102834FA00007B27
:10041000000008142A142222142A1408950022002D
:1004200095AA005500AAAA55AA55AA000000FF00E7
:10043000101010FF00141414FF001010FF00FF1024
:1004400010F010F0141414FC001414F700FF000056
:10045000FF00FF1414F404FC141417101F10101FD5
:10046000101F1414141F00101010F0000000001FC3
:10047000101010101F10101010F010000000FF10CE
:100480001010101010101010FF10000000FF1400CA
:1004900000FF00FF00001F10170000FC04F41414FC
:1004A0001710171414F404F40000FF00F7141414C8
:1004B00014141414F700F7141414171410101F1048
:1004C0001F141414F4141010F010F000001F101F6B
:1004D0000000001F14000000FC140000F010F010D9
:1004E00010FF10FF141414FF141010101F00000050
:1004F00000F010FFFFFFFFFFF0F0F0F0F0FFFFFF54
:100500000000000000FFFF0F0F0F0F0F38444438AA
:10051000447C2A2A3E147E02020606027E027E02E5
:1005200063554941633844443C04407E201E200604
:10053000027E020299A5E7A5991C2A492A1C4C7241
:1005400001724C304A4D4D303048784830BC625AC8
:10055000463D3E494949007E0101017E2A2A2A2A58
:100560002A44445F444440514A444040444A514034
:100570000000FF0103E080FF000008086B6B0836F5
:1005800012362436060F090F060000181800000066
:100590001010003040FF0101001F01011E00191D55
:1005A0001712003C3C3C3C0000000000080B00021D
:1005B00002020000090400000102020000052400FC
:1005C000100105240101010424020605240600018E
:1005D0000705810310004009040100020A00000021
:1005E00007050202400000070583024000000403E3
:1005F000090412010002EF0201404123378000018B
:100600000102030141726475696E6F204C4C430016
:1006100041726475696E6F204D6963726F00F0F806
:100620009C8E8783878E9CF8F00000FEFF030303F7
:100630000303070EFCF80000FEFF03030303030798
:100640000EFCF80000FFFF00000000000000FFFFAC
:100650000000FEFF8383838383C7EE7C380000F8AD
:10066000FC0E07030303070EFCF800003F7FE0C009
:100670008080C0E07F3FFFFF01010101010101FF18
:10068000FF0000FFFF0C0C0C0C1C3E77E3C10000C8
:100690007FFFC0C0C0C0C0E0703F1F00001F3F70A0
:1006A000E0C0C0C0E0703F1F00007FFFC1C1C1C1FA
:1006B000C1E3773E1C00001F3F70E0C0C0C0E07087
:1006C0003F1F000000000001FFFF01000000D5F007
:1006D0008D14A1C881CFD9F1AF2000FFFFFFFFFF2C
:1006E000FFFFFFFFFFFFFFFFFFFFFFFFFFF0FFE147
:1006F000FFFFFFFFFFFFFFFFFFFFFFFFFF867F1EE4
:10070000FFFFFFFFFFFFFFFFFFFFFFFFFF3F7C7EBD
:100710007FFFFFFFFFFFFFFFFFFFFFFFFF7E7DFF6C
:100720007FFFFFFFFFFFFFFFFFFFFFFFFE7EFDFEDE
:100730007FFFFFFFFFFFFFFFFFFFFFFFFCFEFDFE50
:10074000FFFFFF87FFFFFFFFFFFFFFFFFDFDF9FD3D
:10075000FFFFFF87FFFFFFFFFFFFFFFFFDFDFBFD2B
:10076000FFFFFF87FFFFFFFFFFFFFFFFFDFDFBFB1D
:10077000FFFFFF87FFFFFFFFFFFFFFFFFDFDFBFB0D
:10078000FFFFFFFFFFFFFFFFFFFFFFFFFDFDFBFB85
:10079000FFFFFFFFFFFFFFFFFFFF3FFFFDFDFBF739
:1007A000FFFFFFFFFFFFFFFFFFFF3FFFFDFDFBF729
:1007B000FFFFFFFFFFFFFFFFFFFF3FFFFDFDFBF719
:1007C000FFFFFFFFFFFFFFFFFFFF3FFFFDBDFAF74A
:1007D000FFFFFFFFFFFFFC3FFFFF3FFFFDBDFAF7FD
:1007E000F000078787FFFC3FFFFF3FFFFDBDFAF7E3
:1007F000F000078783FFFC3FFFFF3FFFFDBDFAF7D7
:10080000F000078781FFFC3FF9FF3FFFFDBDFAF7CE
:10081000F000078780FFFC3FF9FF3FFFFDBDFAF7BF
:10082000F07FFF87807FFC3FF9FF3FFFFDBDFAF7B8
:10083000F07FFF87803FFC3FF9FF3FFFFDBDFAF7E8
:10084000F07FFF87801FFC3FF9FF3FFFFDBDFAF7F8
:10085000F07FFF87800FFC3FF9FF3FFFFDBDFAF7F8
:10086000F07FFF878407FC3FF9FF3FFFFDBDFAF7EC
:10087000F07FFF878607FC3FF9FF3FFFFDBDFAF7DA
:10088000F07FFF878703FC3FF9FF3FFFFDBDFAF7CD
:10089000F07FFF878701FC3FF9FF3FFFFDBDFAF7BF
:1008A000F07FFF878781FC3FF9FF3FFFFDBDFAF72F
:1008B000E0000F8787C0FC3FF9FF3FFFFDBDFAF75F
:1008C000E0000F8787C0FC3FF9FF3FFFFDBDFAF74F
:1008D000E0000F8787E07C3FF9FF3FFFFDBDFAF79F
:1008E000E0000F8787F03C3FF9FF3FFFFDBDFAF7BF
:1008F000E0000F8787F83C3FF9FF3FFFFDBDFAF7A7
:10090000F07FFF8787F81C3FF9FF3FFFFDBDFAF737
:10091000F07FFF8787FC0C3FF9FF3FFFFDBDFAF733
:10092000F07FFF8787FC0C3FF9FF3FFFFDBDFAF723
:10093000F07FFF8787FE043FF9FF3FFFFDBDFAF719
:10094000F07FFF8787FE003FF9FF3FFFFDBDFAF70D
:10095000F07FFF8787FF003FF9FF3FFFFDBDFAF7FC
:10096000F07FFF8787FF003FF9FF3FFFFDBDFAF7EC
:10097000F07FFF8787FF803FF9FF3FFFFDBDFAF75C
:10098000F07FFF8787FF803FF9FF3FFFFDBDFAF74C
:10099000F07FFF8787FFC03FF9FF0FFFFDBDFAF72C
:1009A000F07FFF8787FFE03FF9FE1FFFFDBDFAF7ED
:1009B000F07FFF8787FFE03FF9FC3FFFFDBDFAF7BF
:1009C000F07FFF8787FFF03FF9F83FFFFDBDFAF7A3
:1009D000FFFFFFFFFFFFFFFFF9FF3FFFFDBDFAF73E
:1009E000FFFFFFFFFFFFFFFFF9FF3FFFFDBDFAF72E
:1009F000FFFFFFFFFFFFFFFFF9FF3FFFFDBDFAF71E
:100A0000FFFFFFFFFFFFFFFFF9FF3FFFFDBDFAF70D
:100A1000FFFFFFFFFFFFFFFFF9FF3FFFFDBDFAF7FD
:100A2000FFFFFFFFFFFFFFFFF9FF3FFFFDBDFAF7ED
:100A3000FFFFFFFFFFFFFFFFF9FF3FFFFDBDFAF7DD
:100A4000FFFFFFFFFFFFFFFFF83F3FFFFDBDFAF78E
:100A5000FFFFFFFFFFFFFFFFF07FFFFFFDBDFAF786
:100A6000FFFFFFFFFFFFFFFFE07FFFFFFDBDFAF786
:100A7000FFFFFFFFFFFFFFFFC1FFFFFFFDBDFAF715
:100A8000FFFFFFFFFFFFFFFFF9FFFFFFFDBDFAF7CD
:100A9000FFFFFFFFFFFFFFFFF9FFFFFFFDBDFAF7BD
:100AA000FFFFFFFFFFFFFFFFF9FFFFFFFDBDFAF7AD
:100AB000FFFFFFFFFFFFFFFFF9FFFFFFFDBDFAF79D
:100AC000FFFFFFFFFFFFFFFFF9FFFFFFFDBDFAF78D
:100AD000FFFFFFFFFFFFFFFFFFFFFFFF0F0E040001
:100AE00000001098DCFEFFFFFEDC981000000040C4
:100AF00060727B7B7FFFFFFFFF7F7B7B726040F03C
:100B00007CFEFFFFFFCF67773E1C00000000004126
:100B100060603F3F331F1C180C0C0C0606030300DB
:100B20000000FC7EFEE7F37FE7F33E1C00000000C0
:100B300000000404090F0E121427270808101000E3
:100B400000001C3EE263FFFF63E23E1C0000000069
:100B5000000000007FFE0000FE7F0000000000009B
:100B600000001C3EF3E77FF3E7FE7EFC0000001070
:100B7000100808272714120E0F09040400000000B3
:100B8000000000001C3E7767CFFFFFFFFE7CF003F4
:100B90000306060C0C0C181C1F333F3F606041FF1E
:100BA000FFFFFFFFFFFFFFFFFF7F3F1F1F0F070735
:100BB000030303010101010101010101010101011F
:100BC000010101010303030307070F1F3F7FFFFF1D
:100BD000FFFFFFFFFFFFFFFFFFFFFFFFFFFFFFFF25
:100BE000FFFFFFFFFFFFFFFFFFFFFFFFFFFFFFFF15
:100BF000FFFFFFFFFFFFFFFFFFFFFFFFFFFFFFFF05
:100C0000FFFFFFFFFFFFFFFFFFFFFFFFFFFFFFFFF4
:100C1000FFFFFFFFFFFFFFFFFFFFFFFFFFFFFFFFE4
:100C2000FF7F3F1F0F0703010000000000000000CE
:100C3000000080C0E0F0F0F8F8F8FCFCF8300000AC
:100C400080C0F0F0F8FCFCFCFEFEFC380000FFFF6A
:100C5000FFFFFFFFFFFFFFFFFFFFFF0000BEBEBE65
:100C60001D41E3FFFF3F1FDFEFEFDF1F3FFF0F0FD0
:100C7000DFEFEFFF0C0CFFFF1F1F6FCFEFFFFFFF3A
:100C8000FFFFFFFFFFFFFFFFFFFFFFFFFFFFFFFF74
:100C9000FFFFFFFFFFFFFFFFFFFFFFFFFFFFFFFF64
:100CA00003000000C0E0E0000000000000000000C1
:100CB000001E3F7FFF7F7F7F3F1F07030100000073
:100CC0000F0F1F1F1F0F0F0F070380C0E0FEFFFF56
:100CD000FFFFFFFFFFFFFFFFFFFFFFE0E0EFEFE79A
:100CE000F7F0F8FFFFF8F0E7EFEFF7F0F8FFE0E0DC
:100CF000FFFFFFFFE0E0FFFFF7EEEEF0F1FFFFFF89
:100D0000FFFFFFFFFFFFFFFFFFFFFFFFFFFFFFFFF3
:100D1000FFFFFFFFFFFFFFFFFFFFFFFFFFFFFFFFE3
:100D2000C080F8FFFFFFFFFFFCF0E0C08000000084
:100D3000000000000000000000E0B060C080000083
:100D4000000000000070F8FCFEFFFFFFFFFFFFFF48
:100D5000FFFFFFFFFFFFFFFFFFFFFFFFFFFFFFFFA3
:100D6000FFFFFF0F03F1FDFD7E7E7C7EFFFF3F1F37
:100D7000DFEFEFDF1F3FFF7F1FDFEFCF1F3FFFFFE3
:100D80001F1F6FCFEFFFFFFFFFFFFFFFFFFFFFFF03
:100D9000FFFFFFFFFFFFFFFFFFFFFFFFFFFFFFFF63
:100DA000FFF7E7D7D7B7B777F7F7F7EFDFBFBEFEA5
:100DB0007C7C38300000000000000103CE7DBD1AAD
:100DC0000C00000000000001C3FFFFFFFFFFFFFF5A
:100DD000FFFFFFFFFFFFFFFFFFFFFFFFFFFFFFFF23
:100DE000FFFFFFFCF8F3F7EFEFEFE0F0FFFFF8F0A5
:100DF000E7EFEFF7F0F8FFF8F0E6EEEEE6FEFFFFC4
:100E0000F7EEEEF0F1FFFFFFFFFFFFFFFFFFFFFF39
:100E1000FFFFFFFFFFFFFFFFFFFFFFFFFFFFFFFFE2
:100E2000FFFFFFFFFFFFFFFFFEFDFDFBF7EFD1B070
:100E3000A0408000000000000018BEBF7FFFFEFD44
:100E4000FAFAF4E8E8D0D0B0A366EDFBFBF7EFCFF9
:100E5000DFBFBFBF7F7F7F7FFFFFFFFFFFFFFFFF82
:100E6000FFFFFFFFFFFFFFFFFFFFFFE3C18C9E3E81
:100E70003CFFFFFF00007F3F9FCFEFFF0C0CFFFF09
:100E80000C0CFFFF0F0FDFEFEFCF1F3FFFFF3F1FE8
:100E9000CFEFEFDF0F0FFFFFFFFFFFFFFFFFFFFFB2
:100EA000FFFFFFFFFFFFFFFFFFFFFFFFFFFFFFFF52
:100EB000FFFFFEFDFDFAF6F6EEDCBC7DFFFEFDFD5C
:100EC000FBF7F7EFEFDFDFBFBF7F7EFEFEFDFDFB31
:100ED000FBFBFBFBFBFBFBFDFCFEFEFFFFFFFFFF45
:100EE000FFFFFFFFFFFFFFFFFFFFFFF7EFEFEFE762
:100EF000F0F8FFFFE0E0FEFCF1E3EFFFE0E0FFFFD2
:100F0000E0E0FFFFE0E0FFFFFFFFE0E0FFFFF87041
:100F1000E7EFEF7700C0FFFFFFFFFFFFFFFFFFFFDF
:100F2000A3AB8BFF83BB83FF83F7EF83FF83ABBB55
:100F3000FFA3AB8BFFFFFFFFFFFFFFFFFEFEFDFDEB
:100F4000FDFBFBFBF7F7F7F7F7F7FBFAFAFDFDFF01
:100F5000FFFFFFFFFFFFFFFFFFFFFFFFFFFFFFFFA1
:100F6000FFFFFFFFFFFFFFFFFFFFFFFFFFFFFFFF91
:100F7000FFFFFFFFFFFFFFFFFFFFFFFFFFFFFFFF81
:100F8000FFFFFFFFFFFFFFFFFFFFFFFFFFFFFFFE72
:100F9000FEFEFEFFFFFFFFFFFFFFFFFFFFFFFF0063
:100FA000221211241FBECFEFDAE0DEBFCDBF11E069
:100FB000A0E0B1E0E2EFF7E302C005900D92AE359C
:100FC000B107D9F726E0AEE5B1E001C01D92A0342B
:100FD000B207E1F717E0C1EDD7E004C02197FE01A9
:100FE0000E94FF19C03DD107C9F70E944F120C940F
:100FF000F71B0C94000080916F010895E6EDF1E07D
:10100000A0E0B8E000800EBC8111012C1197A0FD7A
:10101000FDCF0192B9F70DB408952FB7F89483E08E
:101020008093E9009091E800892F807295FF04C0B9
:101030009091F20080E4891B2FBF0895FC018091FC
:10104000D501882311F13FB7F89482E08093E9003D
:101050002091F200822F90E01816190614F481E016
:1010600090E0882339F0289A44E64093D4014091D7
:10107000F1004083222339F02091F200211103C0B6
:101080002BE62093E8003FBF08958FEF9FEF089570
:101090008091CC0181110DC082E08093C80184E071
:1010A0008093C9011092CB011092CA0181E0809314
:1010B000CC0188EC91E008953FB7F8948091C40189
:1010C0009091C501A091C601B091C70126B5A89B1A
:1010D00005C02F3F19F00196A11DB11D3FBFBA2FCA
:1010E000A92F982F8827BC01CD01620F711D811D8A
:1010F000911D42E0660F771F881F991F4A95D1F70F
:1011000008958F929F92AF92BF92CF92DF92EF920B
:10111000FF926B017C010E945C084B015C01C114D1
:10112000D104E104F104B9F00E945C08681979095E
:101130008A099B09683E73408105910580F321E08F
:10114000C21AD108E108F10888EE880E83E0981EE3
:10115000A11CB11CE4CFFF90EF90DF90CF90BF9027
:10116000AF909F908F9008952FB7F8946091C00131
:101170007091C1018091C2019091C3012FBF089568
:101180004091690150916A01209167013091680195
:1011900042175307B4F49091E8009570E1F39091F1
:1011A000E80092FD19C08093F1008091690190914F
:1011B0006A0101968F739927892B19F48EEF80931A
:1011C000E8008091690190916A01019690936A010B
:1011D0008093690181E0089580E00895DF92EF92A5
:1011E000FF920F931F93CF93DF93D82E8A01EB01C9
:1011F0007B01E40EF51ECE15DF0559F0D7FE12C0B7
:10120000FE0184910E94C00821968111F4CF0FEF56
:101210001FEFC801DF91CF911F910F91FF90EF90C9
:10122000DF9008958881EECF0F931F93CF93DF93C4
:101230001F92CDB7DEB782E0898342E450E06CEACA
:1012400075E080E80E94EE080E944808DC011296D2
:101250000D911C910115110589F0D801ED91FC91BA
:101260000280F381E02DBE016F5F7F4FC8010995B9
:1012700097FD04C0F80100851185ECCF89810F909E
:10128000DF91CF911F910F910895615030F020911F
:10129000F100FC0120830196F8CF289A84E6809320
:1012A000D4010895AF92BF92CF92DF92EF92FF9256
:1012B0000F931F93CF93DF936C017B018B01040F7E
:1012C000151FEB015E01AE18BF08C017D10759F01A
:1012D0006991D601ED91FC910190F081E02DC6015C
:1012E0000995892B79F7C501DF91CF911F910F9156
:1012F000FF90EF90DF90CF90BF90AF9008958F92C6
:101300009F92AF92BF92CF92DF92EF92FF920F9394
:101310001F93CF93DF936C017B018A0180910B01B6
:10132000882309F45CC08091D501882309F457C053
:1013300080916D0180FF05C08091E0008260809304
:10134000E000E801B12C8AEFA82E93E0892E2AE371
:10135000922E209711F4BB20D9F10E940D08811123
:101360000AC0AA94AA20D9F161E070E080E090E080
:101370000E948108EECF8C171D0611F00CF08C2F07
:101380009FB7F8948092E9002091E80025FD02C003
:101390009FBFDFCF282F30E0C21BD30BF701815056
:1013A00020F041914093F100FACFE20EF31EBB20F2
:1013B00021F09092E800B12CEBCF8091E80085FD00
:1013C000E7CF9092E800BB24B394209709F3F3CFC2
:1013D0005D9A84E680936C01101611063CF081E062
:1013E00090E0F6019383828310E000E0C801DF9172
:1013F000CF911F910F91FF90EF90DF90CF90BF9012
:10140000AF909F908F900895CF93DF931F92CDB7A9
:10141000DEB76983DC01ED91FC910280F381E02D60
:1014200041E050E0BE016F5F7F4F09950F90DF9163
:10143000CF91089583E08093E9008091F2008823A2
:1014400019F08AE38093E80008950E940D0890E067
:101450000895CF93DF931F92CDB7DEB7FC0184854B
:10146000958597FD08C02FEF3FEF358724870F90B4
:10147000DF91CF910895CE0101960E941E08019739
:1014800019F4898190E0F3CF8FEF9FEFF0CF0F93A6
:101490001F93CF93DF931F92CDB7DEB78C01FC0172
:1014A0008485958597FF0BC0CE0101960E941E088A
:1014B000019771F4898190E0F80195878487F8019C
:1014C000848595850F90DF91CF911F910F9108959D
:1014D0008FEF9FEFF1CFFC018485958597FD0BC0C1
:1014E0009FB7F89482E08093E9008091F2009FBF5B
:1014F00090E0019608959FB7F89482E08093E90008
:101500008091F2009FBF90E008952091BC01E0918E
:10151000BA01F091BB01CF0102969093BB01809379
:10152000BA01222319F085919491089580819181C7
:101530000895CF92DF92EF92FF92CF93DF930E94B4
:10154000850A811520E8920791F4809171008D7FC2
:101550008093710010929100469847981092600114
:10156000DF91CF91FF90EF90DF90CF90089521E031
:1015700020936001813020E8920751F48091B801F6
:101580009091B9019093BB018093BA010E94850AA2
:1015900097FD05C020915F01222309F454C02091DA
:1015A0005E01211150C021E020936101EC01DF7741
:1015B000209709F04BC081E08093620146983FE993
:1015C000C32E3FE0D32EE12CF12CCAEFD0E0E09106
:1015D0003606F09137060995811103C081E08093AA
:1015E000620180916101882329F080916201882342
:1015F00009F43FC047980E94850A0097F1F19C01C9
:10160000DE010E94F019DC01CB0129E0B595A79518
:10161000979587952A95D1F7109290002AE020930C
:101620009100D0929900C0929800809363019093AA
:101630006401A0936501B09366018091710082609E
:10164000809371008DCF10926101B0CF9E0150E068
:1016500040E060E472E48FE090E00E946519690167
:101660007A0181E0C81AD108E108F10810926201FC
:10167000AECF4699BFCF479ABECF8FEF9FEFDC0129
:10168000CBCF9C01E1E7F0E090819D7F90831092A9
:10169000BC01E8E2F6E0F093BB01E093BA01F093FD
:1016A000B901E093B801318320837383628380E0C2
:1016B00090E8958384830C94990A2D9A0895BC012F
:1016C00090E080E00C9481088FB18095807F669BCC
:1016D00088601C9B8460089520E191E061FD94E0A6
:1016E00060FD990F62FD9295687F269FD0011124BD
:1016F000A80FAA52BE4F8C9140FF03C0892B8C9338
:10170000089590958923FBCF2F923F924F925F923D
:101710006F927F928F929F92AF92BF92CF92DF9201
:10172000EF92FF920F931F93CF93DF9300D000D0DF
:1017300000D01F92CDB7DEB76D30C9F020900C01FC
:101740006090AD017090AE01022D10E06A3051F54D
:101750001092B0011092AF0183E0000F111F8A9523
:10176000E1F7600E711E7092AE016092AD0181E0F2
:1017700090E027960FB6F894DEBF0FBECDBFDF9185
:10178000CF911F910F91FF90EF90DF90CF90BF907E
:10179000AF909F908F907F906F905F904F903F9011
:1017A0002F9008952091B1012B8380910D018C839E
:1017B0004090AF015090B00125E0629FF0011124EC
:1017C000E455FF4FFF83EE83620119828981312C3A
:1017D000853041F08E819F810196EE81FF813490AA
:1017E0009F838E834301F8E0FA8330FC20C02B8175
:1017F0008C81281719F12D8376018E2D8C19821575
:10180000E8F4B12CA12CA214A8F4E0E8EE16F1043F
:1018100050F4B4016A0D7B1D6034710520F44D81D4
:10182000C7010E946C0BFFEFAF1ABF0AECCF9C817F
:101830009D83E2CF2FEFE21AF20ADFCF36948A813E
:1018400081508A83800E911E8111CFCF99819F5F35
:101850009983C00ED11E963009F0B8CF299E400C56
:10186000511C11245092B0014092AF0180CFCF9310
:10187000C82F0E94640B982F9C2381E09C1380E06A
:10188000CF91089580E00C94FE072F923F924F92E3
:101890005F926F927F928F929F92AF92BF92CF9200
:1018A000DF92EF92FF920F931F93CF93DF9300D0BD
:1018B00000D01F92CDB7DEB7E982A22EB12C9501E0
:1018C000280F391F121613060CF0B3C0803891058B
:1018D0000CF0AFC09B01200F311D121613060CF047
:1018E000A8C0603471050CF0A4C09B0177FF04C050
:1018F00022273327261B370B27703327DB0177FD81
:101900001796F3E0B595A795FA95E1F777FF07C02D
:10191000119768E070E0FB01E21BF30B9F01069555
:1019200006950695402E512CBD017695762F66279B
:1019300077956795680F791F6A527E4F8A01AD01CE
:10194000E8E0F0E04F01821A930A4F3FFFEF5F0794
:101950000CF45FC07C011B821A823B01F0E86F0E21
:10196000711CF7FC44C04F3F540709F498C0CA806B
:10197000DB80C60ED71EF6012080EA81FB81E00FD6
:10198000F11FFD83EC83F981F13009F06AC0EC812D
:10199000FD813490E32D022E01C0EE0F0A94EAF788
:1019A0002E2AF60120822115310509F14730510513
:1019B000F1F0CA80DB80C60CD71CF6012080EA81DA
:1019C000FB81E00FF11FFD83EC83F981F13009F019
:1019D00057C0EC81FD813490E32DF0E0082C02C06B
:1019E000F595E7950A94E2F72E2AF6012082EA811E
:1019F000FB813196FB83EA83FFEFEF1AFF0AEA814E
:101A0000FB81EA15FB052CF4E0E8EE16F10409F081
:101A1000A8CF4F5F5F4F60587F4F0A0D1B1DFA0123
:101A2000EA1BFB0BE415F50524F44830510509F0D9
:101A30008CCF0F900F900F900F900F90DF91CF9160
:101A40001F910F91FF90EF90DF90CF90BF90AF90DC
:101A50009F908F907F906F905F904F903F902F90CE
:101A60000895EC81FD813490E32DF0E0022E02C058
:101A7000EE0FFF1F0A94E2F7E095F0952E2291CF2A
:101A8000EC81FD813490E32DF0E0082C02C0F59547
:101A9000E7950A94E2F7E095F0952E22A6CF21155E
:101AA000310509F086CFA3CFE6EDF1E081118FEF8C
:101AB000002481938193819381930394D1F70895B6
:101AC00080E00E94540D1092AE011092AD01109270
:101AD000B0011092AF010895089590E080E008955C
:101AE000CF93DF9381E692E00E944F19C6EDD5E0D7
:101AF000888382E692E00E944F198983CE01DF91AC
:101B0000CF9108950C944F19FB0101900020E9F743
:101B10003197AF01461B570BDC01ED91FC91028020
:101B2000F381E02D09948F929F92AF92BF92CF9252
:101B3000DF92EF92FF920F931F93CF93DF93CDB776
:101B4000DEB7A1970FB6F894DEBF0FBECDBF6C0114
:101B5000990FEE08FF08F7FE43C06DE288E396E0B8
:101B60000E94840B8C0122273327A9012C193D09DF
:101B70004E095F0919A2CE0181967C019AE0892E57
:101B8000912CA12CB12CCA01B901A50194010E948C
:101B9000CE19605DF70162937F0121153105410582
:101BA000510589F790E080E0309729F0BF0188E384
:101BB00096E00E94840D800F911FA1960FB6F894B5
:101BC000DEBF0FBECDBFDF91CF911F910F91FF9070
:101BD000EF90DF90CF90BF90AF909F908F9008953F
:101BE000A701960119A28E010F5D1F4F8AE0C82E32
:101BF000D12CE12CF12CCA01B901A70196010E9458
:101C0000CE19605DF80162938F0121153105410500
:101C1000510589F790E080E0309779F2BF0188E3C1
:101C200096E00E94840DC9CF0F931F93CF93DF934B
:101C3000EC0188819981009759F02A813B81261710
:101C4000370730F081E0DF91CF911F910F91089518
:101C50008B016F5F7F4F0E942A1B009759F0998379
:101C600088831B830A832C813D81232B59F7FC0138
:101C70001082E8CF80E0E7CFEF92FF920F931F939F
:101C8000CF93DF936115710541F480E0DF91CF912F
:101C90001F910F91FF90EF90089541155105B1F0FC
:101CA0007B01EC010C811D81040F151FB8010E94FE
:101CB000140E882351F3288139818C819D81B701CD
:101CC000820F931F0E94F01B1D830C8381E0DECFE7
:101CD000CF93DF93EC0188819981009711F00E94E6
:101CE000A11A198218821D821C821B821A82DF911E
:101CF000CF910895EF92FF920F931F93CF93DF93AD
:101D0000EC017B018A01BA010E94140E81110BC003
:101D1000CE010E94680ECE01DF91CF911F910F91ED
:101D2000FF90EF9008951D830C83B70188819981FE
:101D30000E94F01BF0CFFC0180819181009711F08F
:101D40000C94A11A08951F920F920FB60F921124AE
:101D50002F933F938F939F93AF93BF938091C00135
:101D60009091C101A091C201B091C3013091BF0116
:101D700023E0230F2D3758F50196A11DB11D2093A7
:101D8000BF018093C0019093C101A093C201B093A1
:101D9000C3018091C4019091C501A091C601B09189
:101DA000C7010196A11DB11D8093C4019093C50187
:101DB000A093C601B093C701BF91AF919F918F913E
:101DC0003F912F910F900FBE0F901F90189526E80E
:101DD000230F0296A11DB11DD2CF1F920F920FB6F5
:101DE0000F9211248F939F938091E1009091E100D5
:101DF000937F9093E10083FF0FC01092E90091E080
:101E00009093EB001092EC0092E39093ED0010920F
:101E1000D50198E09093F00082FF22C093E0909368
:101E2000E9009091F200992319F09AE39093E80069
:101E300090916C01992341F090916C019150909395
:101E40006C01911101C05D989091D401992341F0EA
:101E50009091D40191509093D401911101C0289890
:101E600084FF18C08091E2008E7E81608093E20042
:101E70008091E1008F7E8093E10080916D018E7EE4
:101E8000806180936D019F918F910F900FBE0F9095
:101E90001F90189580FFF7CF8091E2008E7E8061C1
:101EA0008093E2008091E1008E7E8093E10080913A
:101EB0006D018E7E8160E5CF1F920F920FB60F925B
:101EC0001124CF92DF92EF92FF920F931F932F93E3
:101ED0003F934F935F936F937F938F939F93AF93B2
:101EE000BF93EF93FF93CF93DF93CDB7DEB76C979C
:101EF000DEBFCDBF1092E9008091E80083FF25C0CE
:101F000068E0CE0145960E94450982EF8093E80083
:101F10008D8987FF39C09091E80090FFFCCF982F02
:101F2000907609F034C19E894F89588D2F89F88C9D
:101F3000911131C0803861F580916E018093F1007C
:101F40001092F1008EEF8093E8006C960FB6F89433
:101F5000DEBF0FBECDBFDF91CF91FF91EF91BF915B
:101F6000AF919F918F917F916F915F914F913F9131
:101F70002F911F910F91FF90EF90DF90CF900F90D6
:101F80000FBE0F901F9018959EEF9093E800C7CF5B
:101F90001092F100D5CF913059F48111D3CF413057
:101FA000510581F680916E018D7F80936E01CACFBD
:101FB000933049F48111C6CF4130510519F6809113
:101FC0006E018260F2CF953041F48091E80080FF8D
:101FD000FCCF20682093E300B5CF963009F0A9C06C
:101FE0000B8D1C8D22E01092E90010926A01109274
:101FF0006901F2122EC010926801109267010E94CE
:1020000014091F8299E09983FA8291E09E8390EAF5
:1020100098879AEF99872091690130916A01275F2B
:102020003F4F3C832B838D831092E90010926A010D
:1020300010926901109368010093670149E050E034
:10204000BE016F5F7F4F80E00E94EE080E9414097E
:1020500079CF10936801009367010E944808DC0162
:1020600012960D911C910115110509F451C1D80169
:10207000ED91FC910480F581E02DBE016B5E7F4FF8
:10208000C8010995009709F03EC1F8010085118546
:10209000EACFF3E0FF120EC08F89882309F440C015
:1020A000823061F440E86DE080E196E00E94EF113B
:1020B000811148CF81E28093EB0047CF813029F432
:1020C00040E86BE084E096E0F1CF833099F70E941E
:1020D0004808DC011296ED90FC908E010F5F1F4FB7
:1020E0006801E114F10479F0D701ED91FC910680CB
:1020F000F781E02DB801C7010995080F111DF701FF
:10210000E084F184EECFD8011C92F601019000200A
:10211000E9F73197BF016C197D0940E0C601C6CFD0
:102120006EEE75E0FB01449150E080E80E94EE08FD
:1021300009CF973009F4BECF983021F481E0809325
:10214000F10000CF993009F0FDCE837009F0B2CFD5
:10215000EDE1F1E081E031E096E32191222371F09D
:102160008093E9003093EB00DF0111972C912093CD
:10217000EC009093ED008F5F873079F78EE78093C6
:10218000EA001092EA008F898093D501DBCE8B8D17
:102190009C8D1092E90010926A011092690190934F
:1021A000680180936701898D811192C08E899D8914
:1021B000913A49F4813209F07DCF47E050E064E084
:1021C00071E080E0B3CF913209F074CF833269F4CB
:1021D0008F89988DB0E0A0E0809300019093010179
:1021E000A0930201B0930301ADCE803269F48091D7
:1021F000E80082FFFCCF67E084E091E00E9445099F
:102200008BEF8093E8009ECE823209F09BCE8F89BF
:1022100080930B01EEEFFFE7859194918B3F9C4DEE
:1022200051F1E0E0F8E08091040190910501A09166
:102230000601B0910701803B9440A105B105F1F47E
:1022400080910B0180FD1AC0EE3F8AE0F80789F506
:1022500087E797E7918380838091600080936B018B
:1022600088E19BE00FB6F894A895809360000FBEBC
:102270009093600067CEEEEFFAE0D5CF8081918138
:102280008737974709F05ECEA895809160008861F6
:102290008093600080916B0180936000EE3F2AE0A4
:1022A000F20789F08091FE0A9091FF0A9183808362
:1022B00049CE808191818737980751F29093FF0A28
:1022C0008093FE0AC5CF1092FF0A1092FE0A3ACE02
:1022D0000E944808DC0112960D911C910115110510
:1022E00009F4E8CED801ED91FC910190F081E02D48
:1022F000BE016B5E7F4FC8010995811123CEF801A5
:1023000000851185EBCF181619060CF41BCED2CE22
:10231000F1E0FF12BECE62EF75E004CF1F920F9284
:102320000FB60F9211242F933F934F935F936F93A8
:102330007F938F939F93AF93BF93EF93FF9380917E
:10234000630190916401A0916501B0916601892BB0
:102350008A2B8B2B09F440C08091620181110BC044
:1023600088B190E4892788B980916101882319F0A8
:1023700088B1805888B98091630190916401A091DF
:102380006501B0916601181619061A061B069CF421
:102390008091630190916401A0916501B091660103
:1023A0000197A109B1098093630190936401A093FF
:1023B0006501B0936601FF91EF91BF91AF919F913D
:1023C0008F917F916F915F914F913F912F910F90DE
:1023D0000FBE0F901F9018950E94990AECCFEF92B4
:1023E000FF920F931F93CF93DF93F82E192FE62EB2
:1023F000042F81E0860F880F0E94C00883E00E94AE
:10240000C008CF2DD12FEC0EFD2EF11CCE15DF050F
:10241000B9F007FF13C0FE0184910E94C008182F75
:1024200080E00E94C008812321968111EFCFDF91C7
:10243000CF911F910F91FF90EF9008958881EDCF7C
:1024400081E0F5CFE8EDF5E01382128288EE93E0AB
:10245000A0E0B0E084839583A683B78387E291E010
:10246000918380838FEF9FEF95878487E8E3F6E081
:102470001382128289E391E0918380838BEF97E04E
:10248000909337068093360680E090E89093350667
:102490008093340646983E9A47983F9A0895CF9382
:1024A000DF93CDB7DEB76E970FB6F894DEBF0FBEE1
:1024B000CDBF789484B5826084BD84B5816084BDCD
:1024C00085B5826085BD85B5816085BD80916E00D2
:1024D000816080936E001092810080918100826003
:1024E0008093810080918100816080938100809140
:1024F0008000816080938000809191008260809351
:102500009100809191008160809391008091900072
:102510008160809390008091C10084608093C100AD
:102520008091C10082608093C1008091C100816070
:102530008093C1008091C30081608093C30080912B
:10254000C00082608093C0008091C200816080934F
:10255000C20080917A00846080937A0080917A0032
:10256000826080937A0080917A00816080937A0003
:1025700080917A00806880937A001092D501109241
:102580006E0110926D018091D70081608093D70019
:1025900080EA8093D80089B5806189BD89B5826061
:1025A00089BD09B400FEFDCF61E070E080E090E0FD
:1025B0000E9481088091D8008F7C80618093D80030
:1025C0008091E000807F8093E0008091E1008E7E2A
:1025D0008093E1008DE08093E200559A209A5D9807
:1025E000289881EC80937C0085B1806F85B984B197
:1025F000877E84B984B1876E84B95E9A5F988AB108
:10260000806D8AB9769A6E9881B3806F81BB899804
:1026100080B38D7080BB80E58CBD81E08DBD85E091
:1026200090E00E945F0B5F9A85E090E00E945F0B54
:102630005E985C98EEECF6E08BED96E024912EBD72
:1026400000000DB407FEFDCF31968E179F07B1F73E
:102650005C9A81E88093640080916500816080933A
:1026600065000E94420C80E80E94370C8823A9F084
:102670005C9885EA8EBD00000DB407FEFDCF5C9A24
:102680002E982F982D98809164008062809364002A
:1026900081E083BF889513BEFCCF84E00E94370C95
:1026A000882309F448C02D9884E80E94370C8823B9
:1026B000E1F00E945D0B88EC90E00E945F0B2F9888
:1026C00082E090E00E944F198F3F29F06FEF82E087
:1026D00090E00E94571984EF91E00E945F0B2F9ABF
:1026E00084E80E94370C8111FBCF84E10E94370CF3
:1026F0008823E1F00E945D0B88EC90E00E945F0B64
:102700002E9882E090E00E944F19882329F060E023
:1027100082E090E00E94571984EF91E00E945F0BE5
:102720002E9A84E10E94370C8111FBCF88EC90E057
:102730000E945F0BB2CF0E945D0B82E090E00E948E
:10274000820D882309F49DC03E9A3F9A81E08093D0
:102750006F0181E090E00E94820D182F147081FFBC
:1027600010C011112E98F1EFCF2EDD24DA9480E401
:102770000E94370C882309F489C02E9A2F9A0E9450
:102780005D0B82E390E00E945F0B0E94640B81115D
:10279000F8CF0E94600D8FEF9FEF9093E505809337
:1027A000E4058DEA91E0EBE7F1E0148235968E17AF
:1027B0009F07D9F70E94B40860937701709378015E
:1027C0008093790190937A010E94B4086093B401D8
:1027D0007093B5018093B6019093B7018091640026
:1027E0008E7F8093640080917A00806480937A0069
:1027F00080917A0086FDFCCF0091780010917900DD
:102800000E945C08AB01BC01C801B0E0A0E0DC01A3
:10281000992788278C019D01040F151F261F371F3C
:10282000C901B80120916400216020936400611502
:1028300071058105910511F00E94111980ED97E055
:1028400090937601809375010E94700D9E012F5F19
:102850003F4F690132E0232E312C28E2622E26E020
:10286000722E0E94B40880917201882309F46DC011
:102870001092720180E090E0892B99F30E94000091
:10288000ECCF10926F013E983F9863CF112331F047
:1028900004E0C016D10411F42E9A2F9881E00E9412
:1028A000FE07EE24E39400E128E54EE156E0B60190
:1028B00084E190E00E94450C0E94420C8FE090E081
:1028C0000E945F0B2FEFC21AD20A39E1C316D1045E
:1028D00009F04DCF112311F02F9A2D9880E991E046
:1028E0000E945F0B0E945D0B81E090E00E94820DD0
:1028F00080FF47CF8AE090E00E94820D9FEF980F03
:102900009E3F08F03ECF22E330E03093B0012093A9
:10291000AF0128E330E03093AE012093AD010BE02E
:1029200010E0682F88E396E00E94840BC8010E94A3
:10293000820D0F5F1F4F0131110599F70E94420C64
:1029400088EE93E00E945F0B1CCF80917301362FBD
:10295000381B303140F43F3009F48CCF81E083BF25
:10296000889513BE87CF81E08093720160937301D5
:102970008091700190917101019690937101809303
:1029800070018091BD019091BE018130910509F4E3
:10299000D5C074F4892B09F482C040E054E066EDA0
:1029A00071E088ED95E00E947F090E94420C62CFA1
:1029B0008230910509F41DC3039779F72091B20184
:1029C0003091B3018091D6059091D7058217930776
:1029D000D4F41091B20181E692E00E944F19811760
:1029E00029F0612F81E692E00E9457191091B301FE
:1029F00082E692E00E944F19811729F0612F82E64A
:102A000092E00E94571964E670E080E090E00E9436
:102A100081080E94600D81E080930C0180E390E0CA
:102A20009093B0018093AF013092AE012092AD013E
:102A300065E571E088E396E00E94840D8091B20123
:102A40009091B3010E94930D8EE190E09093B001BC
:102A50008093AF0188E290E09093AE018093AD0146
:102A600060E571E088E396E00E94840D8091D605D0
:102A70009091D7050E94930D0E94420C60EA7FE07E
:102A800080E090E00E9481081092BE011092BD018A
:102A90000E94600D1092B3011092B2017ECF80911E
:102AA00071008D7F809371001092BC017092BB0108
:102AB0006092BA017092B9016092B8018EEE91E015
:102AC00090932906809328068CE291E090932B0640
:102AD00080932A0628E831E030932D0620932C06B7
:102AE00090932F0680932E068DE591E0909331060A
:102AF0008093300684EF91E0909333068093320602
:102B00000E94990AEE24E39400E420E84FE95BE098
:102B100070E060E090E080E00E94450C0E94420C72
:102B200088E00E94370C882369F381E090E090935D
:102B3000BE018093BD010E94B4082FCF0E94700D8A
:102B40000E94B408009177011091780120917901D9
:102B500030917A01AB01BC01401B510B620B730B2E
:102B60008091750190917601092E000CAA0BBB0B88
:102B700084179507A607B70708F06DC00E94C21812
:102B800022E030E040E050E00E9465196F5FE09184
:102B9000740105E00E9FF0011124E558FE4F648397
:102BA000613091F40E94C21820917401029F80014B
:102BB000112405581E4F2FE630E040E050E00E94FF
:102BC0006519F80171836083E091740105E00E9F3F
:102BD000F0011124E558FE4F8481823091F40E9467
:102BE000C21820917401029F8001112405581E4FC4
:102BF00027E530E040E050E00E946519F80171835C
:102C000060838091740105E0809FF0011124E558F4
:102C1000FE4F20E430E0338322838F5F8A3008F058
:102C2000AFC1809374010E94B408609377017093E0
:102C300078018093790190937A010E94C21828EE5E
:102C400033E040E050E00E9465196C507E4F709375
:102C50007601609375010E94600D81E00E94540D21
:102C60009BE7A92E91E0B92EF5018481882309F410
:102C70007CC08130C1F54280538080809180E12CFE
:102C800000E120E14FED5AE0B201C4010E94450C81
:102C9000F5E04F16510439F580910F019091100124
:102CA0009401225F3F4F28173907ECF00F968815E3
:102CB0009905CCF080910E01815080930E0160E95E
:102CC00071E08DE591E00E94410B68EE73E080E0D9
:102CD00090E00E94810880910E01811104C0309221
:102CE000BE012092BD01F50184818230C1F5428090
:102CF000538080809180E12C08E024E04BED5AE085
:102D0000B201C4010E94450C24E04BED5AE0B2012F
:102D1000C40180960E94450CFDE04F165104F9F461
:102D200080910F0190911001940122503109821776
:102D30009307ACF006E1800E911C881699067CF092
:102D40008091B2019091B30101969093B301809369
:102D5000B20168EC70E088EB91E00E94410BF50154
:102D600082819381019793838283F5E0AF0EB11C3A
:102D700008EA11E00A151B0509F076CF1092B001A0
:102D80001092AF011092AE011092AD0110920D01A0
:102D900081E08093B10180910E011C8A1B8A1E8AFA
:102DA0001D8A188E1F8A4AE0B60190E00E942519FC
:102DB000F60101900020E9F73197AF014C195D0948
:102DC000B601CE0143960E947A0E8091B201909195
:102DD000B3011A8E198E1C8E1B8E1E8E1D8E4AE01C
:102DE000B6010E941A19F60101900020E9F7319707
:102DF000AF014C195D09B601CE0149960E947A0EC9
:102E00001A8219821C821B821E821D8247E050E0BA
:102E100065E571E0C6010E947A0E4D8D5E8D698D6B
:102E20007A8DC6010E943C0E811103C0C6010E942A
:102E3000680E4BE050E061E471E0C6010E943C0E78
:102E4000811103C0C6010E94680E4F89588D6B899D
:102E50007C89C6010E943C0E811103C0C6010E94FC
:102E6000680E4D815E8169817A8188E396E00E94D7
:102E70005209C6010E949B0ECE0149960E949B0EEC
:102E8000CE0143960E949B0E10911101123009F45D
:102E900099C00CF078C0112309F480C0113009F4F6
:102EA0008BC00E94B4088090B4019090B501A090AE
:102EB000B601B090B701681979098A099B0964368F
:102EC00071058105910568F180E20E94370C882325
:102ED00029F0115017FD82C01093110180E40E9467
:102EE000370C882341F0809111018F5F85300CF001
:102EF00078C0809311010E94B4086093B40170936C
:102F0000B5018093B6019093B7016091110188EDEE
:102F100095E00E94040A6DE471E088ED95E00E945E
:102F2000840D80910F01909110012091110127FDD6
:102F300008C022300CF457C023500196223008F408
:102F400053C080910F019091100197FF07C010921C
:102F5000100110920F0182E08093110180910F0106
:102F600090911001803791050CF417CD2FE630E0D9
:102F70003093100120930F0182E0809311010DCD59
:102F80001092740150CE133019F1143009F089CF2A
:102F9000E12C00E120E14FEF5AE005C0E12C00E117
:102FA00020E14FE75BE065E070E080910F019091D8
:102FB00010010E94450C75CFE12C00E120E14FE5A6
:102FC0005BE0F1CFE12C00E120E14FE35BE0EBCFF0
:102FD000E12C00E120E14FE15BE0E5CF109211012F
:102FE0007DCF84E086CF01979093100180930F01ED
:102FF000A8CF0E94600D10E000E0912C812CB12C34
:10300000A12CF50183E0F595E7958A95E1F7E00FAE
:10301000F11FE552F94FE491C5018770992720E827
:1030200030E002C0359527958A95E2F7C901F0E0B6
:10303000E223F923EF2B29F041E0B401C5010E94FE
:103040006C0B3FEFA31AB30A80E8A816B104C9F6C7
:103050009FEF891A990A005F1F4FE0E48E169104D2
:1030600071F60E94420C809171008D7F80937100F7
:103070001092BC017092BB016092BA017092B901CA
:103080006092B80128EB31E030932906209328069E
:1030900084EF91E090932B0680932A0630932D06BF
:1030A00020932C0690932F0680932E068DE591E0B9
:1030B000909331068093300688EE93E09093330628
:1030C000809332060E94990A60ED77E080E090E0FC
:1030D0000E9481080E94600D83E080930E0183E0CE
:1030E00090E09093BE018093BD0157CC8F929F9248
:1030F000AF92BF92CF92DF92EF92FF92CF93DF9386
:10310000EC01688179818A819B8161157105810556
:10311000910521F464E279ED8BE597E02DE133EF41
:1031200041E050E00E94651949015A019B01AC0140
:10313000A7EAB1E40E9484196B017C01ACEEB4EF04
:10314000A50194010E949219C60ED71EE81EF91E11
:10315000F7FE06C081E0C81AD108E10880E8F80A45
:10316000C882D982EA82FB82C701B6019F77DF91CC
:10317000CF91FF90EF90DF90CF90BF90AF909F9056
:103180008F9008958F929F92AF92BF92CF92DF92CD
:10319000EF92FF92609112017091130180911401DE
:1031A00090911501611571058105910521F464E285
:1031B00079ED8BE597E02DE133EF41E050E00E949F
:1031C000651949015A019B01AC01A7EAB1E40E94CB
:1031D00084196B017C01ACEEB4EFA50194010E944F
:1031E0009219C60ED71EE81EF91EF7FE06C081E032
:1031F000C81AD108E10880E8F80AC0921201D092FA
:103200001301E0921401F0921501C701B6019F77F6
:10321000FF90EF90DF90CF90BF90AF909F908F90F6
:103220000895609312017093130180931401909399
:1032300015010895BB274A3031F4992322F4BDE2E9
:10324000909581959F4F0C942619BB27FB0155271C
:10325000AA27880F991FAA1FA41710F0A41B8395F3
:103260005051B9F7A05DAA3308F0A95DA19300976A
:1032700079F7B111B1931192CB010C943F19DC0194
:10328000FC01672F71917723E1F7329704C07C919D
:103290006D9370836291AE17BF07C8F30895F999D3
:1032A000FECF92BD81BDF89A992780B50895262F4B
:1032B000F999FECF1FBA92BD81BD20BD0FB6F8941B
:1032C000FA9AF99A0FBE01960895052E97FB1EF4FF
:1032D00000940E947C1957FD07D00E94CE1907FC6C
:1032E00003D04EF40C947C1950954095309521955F
:1032F0003F4F4F4F5F4F0895909580957095619522
:103300007F4F8F4F9F4F08950E94F019A59F900DFA
:10331000B49F900DA49F800D911D11240895B7FFB7
:103320000C9484190E948419821B930B08952F9288
:103330003F924F925F926F927F928F929F92AF9245
:10334000BF92CF92DF92EF92FF920F931F93CF9392
:10335000DF93CDB7DEB7CA1BDB0B0FB6F894DEBF29
:103360000FBECDBF09942A88398848885F846E844F
:103370007D848C849B84AA84B984C884DF80EE8099
:10338000FD800C811B81AA81B981CE0FD11D0FB6A2
:10339000F894DEBF0FBECDBFED010895A1E21A2E55
:1033A000AA1BBB1BFD010DC0AA1FBB1FEE1FFF1FE9
:1033B000A217B307E407F50720F0A21BB30BE40B39
:1033C000F50B661F771F881F991F1A9469F7609580
:1033D0007095809590959B01AC01BD01CF0108953A
:1033E000A29FB001B39FC001A39F700D811D112446
:1033F000911DB29F700D811D1124911D0895EE0F36
:10340000FF1F0590F491E02D09940F931F93CF9324
:10341000DF938230910510F482E090E0E0913E0667
:10342000F0913F0630E020E0B0E0A0E0309799F462
:103430002115310509F44AC0281B390B2430310508
:10344000D8F58A819B816115710589F1FB01938310
:103450008283FE0111C0408151810281138148178E
:103460005907E0F04817590799F4109761F0129640
:103470000C93129713961C933296CF01DF91CF9144
:103480001F910F91089500933E0610933F06F4CFCD
:103490002115310551F04217530738F0A901DB011E
:1034A0009A01BD01DF01F801C1CFEF01F9CF90937F
:1034B0003F0680933E06CDCFFE01E20FF31F8193BE
:1034C00091932250310939832883D7CF20913C062C
:1034D00030913D06232B41F42091180130911901C0
:1034E00030933D0620933C06209116013091170140
:1034F0002115310541F42DB73EB740911A01509185
:103500001B01241B350BE0913C06F0913D06E217B0
:10351000F307A0F42E1B3F0B2817390778F0AC01F6
:103520004E5F5F4F2417350748F04E0F5F1F5093D3
:103530003D0640933C06819391939FCFF0E0E0E0FD
:103540009CCFCF93DF930097E9F0FC013297138271
:103550001282A0913E06B0913F06ED0130E020E0DE
:103560001097A1F420813181820F931F20913C0696
:1035700030913D062817390709F061C0F0933D06E8
:10358000E0933C06DF91CF910895EA01CE17DF0763
:10359000E8F54A815B819E0141155105B1F7E901CA
:1035A000FB83EA8349915991C40FD51FEC17FD079E
:1035B00061F4808191810296840F951FE9019983BE
:1035C0008883828193819B838A83F0E0E0E0129676
:1035D0008D919C9113970097B9F52D913C9111977E
:1035E000CD010296820F931F20913C0630913D063B
:1035F0002817390739F6309751F510923F06109287
:103600003E06B0933D06A0933C06BCCFD383C28355
:1036100040815181840F951FC817D90761F44E5F0F
:103620005F4F88819981480F591F518340838A8158
:103630009B81938382832115310509F0B0CFF093EC
:103640003F06E0933E069ECFFD01DC01C0CF138212
:103650001282D7CFB0E0A0E0E0E3FBE10C9499192F
:103660008C01009751F4CB010E94051A8C01C8010E
:10367000CDB7DEB7E0E10C94B519FC01E60FF71FFA
:103680009C0122503109E217F30708F49DC0D901CB
:10369000CD91DC911197C617D70798F0C530D105A9
:1036A00030F3CE0104978617970708F3C61BD70B94
:1036B0002297C193D1936D937C93CF010E94A11A5D
:1036C000D6CF5B01AC1ABD0A4C018C0E9D1EA09199
:1036D0003E06B0913F06512C412CF12CE12C109765
:1036E00031F580913C0690913D068815990509F0C9
:1036F0005CC04616570608F058C08091160190919C
:103700001701009741F48DB79EB740911A0150916F
:103710001B01841B950BE817F90708F055C0F093BF
:103720003D06E0933C06F90171836083A0CF8D9143
:103730009C91119712966C90129713967C90139708
:10374000A815B90559F56C0142E0C40ED11CCA1484
:10375000DB0420F1AC014A195B09DA0112961597D6
:1037600080F06282738251834083D9016D937C9390
:10377000E114F10471F0D7011396FC93EE931297C4
:1037800076CF22968C0F9D1FF90191838083F301E0
:10379000EFCFF0933F06E0933E0669CF48165906F7
:1037A00008F42C017D01D3019ACFCB010E94051AA8
:1037B0007C01009749F0AE01B8010E94E71BC801E7
:1037C0000E94A11A870153CF10E000E050CFFB0107
:1037D000DC0102C001900D9241505040D8F708958D
:1037E000FB01DC0101900D920020E1F70895F894AF
:0237F000FFCF09
:1037F200FFFFFFFF00E100000000000001010338AD
:1038020000020100000000004006800000C180812B
:1038120000000000000000040A7F09250A1A0A6B52
:103822000A290A470A00000000840B52096D0D6C38
:103832000D2020204C69766573203A20000D0A0085
:0E384200486967682053636F72653A20000082
:00000001FF
