:100000000C94330A0C945B0A0C945B0A0C945B0A04
:100010000C945B0A0C945B0A0C945B0A0C945B0ACC
:100020000C945B0A0C945B0A0C94C5120C94341368
:100030000C945B0A0C945B0A0C945B0A0C945B0AAC
:100040000C945B0A0C945B0A0C945B0A0C945B0A9C
:100050000C945B0A0C945B0A0C945B0A0C94661576
:100060000C945B0A0C945B0A0C945B0A0C945B0A7C
:100070000C945B0A0C945B0A0C945B0A0C945B0A6C
:100080000C94B0150C945B0A0C945B0A0C945B0AFC
:100090000C945B0A0C945B0A0C945B0A0C945B0A4C
:1000A0000C945B0A0C945B0A0C945B0A0000000041
:1000B000003E5B4F5B3E3E6B4F6B3E1C3E7C3E1CEE
:1000C000183C7E3C181C577D571C1C5E7F5E1C0034
:1000D000183C1800FFE7C3E7FF0018241800FFE7EB
:1000E000DBE7FF30483A060E2629792926407F05AE
:1000F0000507407F05253F5A3CE73C5A7F3E1C1CC4
:1001000008081C1C3E7F14227F22145F5F005F5F83
:1001100006097F017F006689956A6060606060946F
:10012000A2FFA29408047E040810207E2010080874
:100130002A1C08081C2A08081E101010100C1E0C7F
:100140001E0C30383E3830060E3E0E060000000011
:100150000000005F00000007000700147F147F14F8
:10016000242A7F2A1223130864623649562050003D
:1001700008070300001C2241000041221C002A1C29
:100180007F1C2A08083E0808008070300008080814
:100190000808000060600020100804023E51494534
:1001A0003E00427F400072494949462141494D3352
:1001B0001814127F1027454545393C4A49493141B9
:1001C000211109073649494936464949291E000087
:1001D00014000000403400000008142241141414DC
:1001E0001414004122140802015909063E415D59C8
:1001F0004E7C1211127C7F494949363E41414122D1
:100200007F4141413E7F494949417F090909013EFA
:10021000414151737F0808087F00417F4100204021
:10022000413F017F081422417F404040407F021C33
:10023000027F7F0408107F3E4141413E7F0909094A
:10024000063E4151215E7F09192946264949493216
:1002500003017F01033F4040403F1F2040201F3FDC
:100260004038403F63140814630304780403615961
:10027000494D43007F4141410204081020004141A3
:10028000417F04020102044040404040000307084F
:100290000020545478407F2844443838444444284B
:1002A000384444287F385454541800087E090218F2
:1002B000A4A49C787F0804047800447D400020407A
:1002C000403D007F1028440000417F40007C0478BE
:1002D00004787C080404783844444438FC18242406
:1002E0001818242418FC7C08040408485454542486
:1002F00004043F44243C4040207C1C2040201C3C03
:100300004030403C44281028444C9090907C4464F9
:10031000544C44000836410000007700000041368C
:10032000080002010204023C2623263C1EA1A16112
:10033000123A4040207A3854545559215555794144
:100340002154547841215554784020545579400C1B
:100350001E527212395555555939545454593955FC
:100360005454580000457C410002457D420001453F
:100370007C40F0292429F0F0282528F07C545545AC
:10038000002054547C547C0A097F4932494949323F
:100390003248484832324A4848303A4141217A3A54
:1003A00042402078009DA0A07D39444444393D401E
:1003B00040403D3C24FF2424487E4943662B2FFCCB
:1003C0002F2BFF0929F620C0887E09032054547979
:1003D000410000447D413048484A32384040227A4A
:1003E000007A0A0A727D0D19317D2629292F2826C7
:1003F0002929292630484D402038080808080808CF
:100400000808382F10C8ACBA2F102834FA00007B27
:10041000000008142A142222142A1408950022002D
:1004200095AA005500AAAA55AA55AA000000FF00E7
:10043000101010FF00141414FF001010FF00FF1024
:1004400010F010F0141414FC001414F700FF000056
:10045000FF00FF1414F404FC141417101F10101FD5
:10046000101F1414141F00101010F0000000001FC3
:10047000101010101F10101010F010000000FF10CE
:100480001010101010101010FF10000000FF1400CA
:1004900000FF00FF00001F10170000FC04F41414FC
:1004A0001710171414F404F40000FF00F7141414C8
:1004B00014141414F700F7141414171410101F1048
:1004C0001F141414F4141010F010F000001F101F6B
:1004D0000000001F14000000FC140000F010F010D9
:1004E00010FF10FF141414FF141010101F00000050
:1004F00000F010FFFFFFFFFFF0F0F0F0F0FFFFFF54
:100500000000000000FFFF0F0F0F0F0F38444438AA
:10051000447C2A2A3E147E02020606027E027E02E5
:1005200063554941633844443C04407E201E200604
:10053000027E020299A5E7A5991C2A492A1C4C7241
:1005400001724C304A4D4D303048784830BC625AC8
:10055000463D3E494949007E0101017E2A2A2A2A58
:100560002A44445F444440514A444040444A514034
:100570000000FF0103E080FF000008086B6B0836F5
:1005800012362436060F090F060000181800000066
:100590001010003040FF0101001F01011E00191D55
:1005A0001712003C3C3C3C0000000000D5F08D14CC
:1005B000A1C881CFD9F1AF200000808080DE7341D7
:1005C0001D1D4173DE8080800000070C78C29E9F55
:1005D000D7DF9F9AC2780C070000000000F8CC8497
:1005E000343484CCF8C040C000001F1179C19C9EF7
:1005F000D6DE9E9CC179080F00000080C0780CE414
:10060000B692D2C67C0000000000000F78CE9FBFDB
:10061000BFBF96C77D131E0000000000007CC6D23D
:1006200092B6E40C78C080000000001E137DC796CF
:10063000BFBFBF9FCE780F00000000009EB2E60C47
:100640001830E000000000000000007ED7AAD57F2F
:100650000000E1CF98D0700000000070584D674056
:10066000C29F91B0E0000000000080E0B80CB6121C
:100670001A0A8A1AF60CF80000000F18F268486887
:100680002AAA28287758CF00000000F80CF61A8A0A
:100690000A1A12B60CB8E080000000CF587728285C
:1006A000AA2A684868F2180F000000C070F8ACF27F
:1006B000F93C1E0F03000000000000071E3B495DCF
:1006C0009FB83870706000000000000000030F1E2B
:1006D0003CF9F2ACF870C0000000000060707038A7
:1006E000B89F5D493B1E070000001C3A2C3A343A83
:1006F000343A343A343A343A343A343A342A3C1EAE
:10070000001E3F373B373B3F3B373B3F3B3F3B3791
:100710003B373B3F3B373B3F1E001E0F150B170B74
:10072000170B170B170B170B170B170B170D170EB4
:100730000084036400E8032C01B00464005802FA4A
:1007400000BC0264002003FA0084036400E8032C68
:1007500001B004FA0058026400BC02FA002003F45D
:100760000100808403640020036400840364005853
:10077000026400F40164002C016400640064002C35
:10078000016400F40164003200A000008000000059
:10079000000000E030180CE6B29E0000000000707F
:1007A000D098CFE100007FD5AAD77E0000000000DE
:1007B00000E0B0919FC240674D58700000FFFFFFFE
:1007C000FFFFFFFFFFFFFFFFFFFFFFFFFFFFFFFF39
:1007D000FFFFFFFF813CFFFFE7C1BF3F7FFFFFE05F
:1007E0009F3FFFFFFC618FFFFFFFFF0303C71F3F1A
:1007F000FFFF0303FF0303FFFF3F0FE7F7F3F3FBE5
:10080000F3FBFF03037B7B7B7BFFFFFFFFFFFFFF10
:10081000FF0303FFFF1F0FE7F3FBFBF3E7071FFFD8
:10082000FF03037B7B3307EFFFFF0303FFFFFFFFA4
:10083000FFFFFFFFFFFFFFFFFFFFFFFFFFFFFFFFC8
:10084000FFFFFFFFFFFFFFFFFFFFFFFFFFFFFFFFB8
:10085000FFFFFFFFFFFF18C3FFFF3F8FE6F9FFFF1A
:10086000E0CE9F7FE1CC9F7F7FFFFFE0E0FFFFFEB8
:10087000F8F1E0E0FFE0E0FFFFFEF8F3E7E7EFEF7D
:10088000E7FFFFE0E0EFEFEFEFEFFFFFFFFFEFEF3E
:10089000E7E0F8FFFFFCF0F3E7EFEFE7F3F0FCFF32
:1008A000FFE0E0EFEFE7F0F8FFFFE4E7FFFFFFFF17
:1008B000FFFFFFFFFFFFFFFFFFFFFFFFFFFFFFFF48
:1008C000FFFFFFFFFFFFFFFFFFFFFFFFFFFFFFFF38
:1008D000FFFFFFFF87387E7FFFFFF8FBF3F7C7FFBF
:1008E000FFFFFFF8FF7F3FBF9ECFEFE7F7F3FBBBB4
:1008F000FBF9FDFDFDBDFDFDFDFDFDFDEDFDFDFD7E
:10090000FDFCFEFEBEFEFEFCFEFEFCFDFDF9DBFB7B
:10091000F7F7E7EFCFDF9F3F7F7FFFFFFFFFFFFF8F
:10092000FFFFFFFFFFFFFFFFFFFFFFFFFFFFFFFFD7
:10093000FFFFFFFFFFFFFFFFFFFFFFFFFFFFFFFFC7
:10094000FFFFFFFFFFFFFFFFFFFFFFFFFFFFFFFFB7
:10095000FFFFFFFFFFFFFFFEFEFEFC7B673FBFBF09
:100960001FC7F3F9FCFEF7FFFFFFFEFFFF7FFFFF4E
:10097000FBFFFFFFFFFFFFFFDFFEFFFFFFFFFFFFAC
:10098000FDFFFFFFFFFFEFFFFFFFFFFFBFFDFFFFCB
:10099000FFFFFFFFFFF7FFFFFFFEFCF9F3C71FDFBD
:1009A000DF9F3FFFFFFFFFFFFFFFFFFFFFFFFFFF97
:1009B000FFFFFFFFFFFFFFFFFFFFFFFFFFFFFFFF47
:1009C000FFFFFFFFFFFFFFFFFFFFFFFFFFFFFFFF37
:1009D000FFFFFFFFFFFFFFFFFFFFFF1C8943871F94
:1009E0007EFCF9F3E7CF9F3F7E7F7FFFFFFFF7FF9E
:1009F000FFFFFDFFFFFFFFF7FFFFFFFFFFEFFFFF21
:100A0000FFFFFDFFFFFFFFF7FFFFFFFF7F7F7F7708
:100A10007F3FBFBFBEDFDDCFEFE7F37B791DDCCFCC
:100A200043197CFFFFFFFFFFFFFFFFFFFFFFFFFFFB
:100A3000FFFFFFFFFFFFFFFFFFFFFFFFFFFFFFFFC6
:100A4000FFFFFFFFFFFFFFFFFFFFFFFFFFFFFFFFB6
:100A5000FFFFFFFFFFFFFFFFFFFFFFE08A952A5523
:100A600000FEFC7D7D797B73676F4E5E5E4E6E6D22
:100A7000657535B515854D8D5DBD3DBD3DBD3D9D56
:100A80005DAD4DA555A556A656A656A646A7539BA1
:100A90005BB3373777F7F7F773398C46A7532914C9
:100AA000CAF1FCFFFFFFFFFFFFFFFFFFFFFFFFFF9C
:100AB000FFFFFFFFFFFFFFFFFFFFFFFFFFFFFFFF46
:100AC000FFFFFFFFFFFFFFFFFFFFFFFFFFFFFFFF36
:100AD000FFFFFFFFFFFFFFFFFFFFFFFFFFFFFEFC2A
:100AE000F8C0187AF1F2F5E265EAE5CAD5CAD5CAC6
:100AF000D5CAD5CAD5CAD5CA55CAD5CA95AA95AA3E
:100B000095AA95AA95AA95AA95AA95AA95CAD5CA6D
:100B1000D5EAE5EAE5F2F4F2F8FDFC6D3CBECFE083
:100B2000FFFFFFFFFFFFFFFFFFFFFFFFFFFFFFFFD5
:100B3000FFFFFFFFFFFFFFFFFFFFFFFFFFFFFFFFC5
:100B4000FFFFFFFFFFFFFFFFFFFFFFFFFFFFFFFFB5
:100B5000FFFFFFFFFFFFFFFFFFFFFFFFFFFFFFFFA5
:100B6000FFFFFFFEFCFDF9FBF3F7F7EFEFEFEFEE12
:100B7000EFCFDBDFDFDFDFD7DFDFDFDFDFDFDFDF91
:100B8000DFDFDBCFEFEFEFEFEFEDEFE7F7F7F7F7B3
:100B9000F6F3F3FBFBF9F9FDFDFCFEFEFFFFFFFFA3
:100BA000FFFFFFFFFFFFFFFFFFFFFFFFFFFFFFFF55
:100BB000FFFFFFFFFFFFFFFFFFFFFFFFFF0F090921
:100BC0000F00FFFF02020202020202020202FFFF06
:100BD0000000FFFF02020202020202020202FFFF05
:100BE00000001F1F020202020202020202021F1F75
:100BF00000FFFFFFFFFFFFFFFFFFFFFFFFFFFFFF04
:100C0000FFFFFFFFFFFFFFFFFFFFFFFFFFFFFFFFF4
:100C1000FFFFFFFFFFFFFFFFFFFFFFFFFFFFFFFFE4
:100C2000FFFFFFFFFFFFFFFFFFFFFFFFFFFFFFFFD4
:100C3000FFFFFFFFFFFFFFFFFFFFFFFFFFFFFFFFC4
:100C4000FFFFFFFFFFFFFFFFFFFFFFFFFFFFFFFFB4
:100C5000FFFFFFFFFFFFFFFFFFFFFFFFFFFFFFFFA4
:100C6000FFFFFFFFFFFFFFFFFFFFFFFFFFFFFFFF94
:100C7000FF4F2F4F2F4F2F4F2F4F2F4F2F4F2F4FB4
:100C80002F4F2F4F2F4F2F4F2F4F2F4F2F4F2F4F74
:100C90002F4F2F4F2F4F2F4F2F4F2F4F2F4F2F4F64
:100CA0002F4F2F4F2F4F2F4F2F4F2F4F2F4F2F4F54
:100CB0002F4F2F4F2F4F2F4F2F4F2F4F2F4F2F4F44
:100CC0002F4F2F4F2F4F2F4F2F4F2F4F2F4F2F4F34
:100CD0002F4F2F4F2F4F2F4F2F4F2F4F2F4F2F4F24
:100CE0002F4F2F4F2F4F2F4F2F4F2F4F2F4F2F4F14
:100CF0002FFFFFFFFFFFFFFFFFFFFFFFFFFFFFFFD4
:100D0000FFFFFFFFFFFFFFFFFFFFFFFFFFFFFFFFF3
:100D1000FFFFFFFFFFFFFFFFFFFFFFFFFFFFFFFFE3
:100D2000FFFFFFFFFFFFFFFFFFFFFFFFFFFFFFFFD3
:100D3000FFFFFFFFFFFFFFFFFFFFFFFFFFFFFFFFC3
:100D4000FFFFFFFFFFFFFFFFFFFFFFFFFFFFFFFFB3
:100D5000FFFFFFFFFFFFFFFFFFFFFFFFFFFFFFFFA3
:100D6000FFFFFFFFFFFFFFFFFFFFFFFFFFFFFFFF93
:100D7000FFFFFFFFFFFFFFFFFFFFFFFFFFFFFFFF83
:100D8000FFFFFFFFFFFFFFFFFFFFFFFFFFFFFFFF73
:100D9000FFFFFFFFFFFFFFFFFFFFFFFFFFFFFFFF63
:100DA000FFFFFFFFFFFFFFFFFFFFFFFFFFFFFFFF53
:100DB000FFFFFFFFFFFFFFFFFFFFFFFFFFFFFFFF43
:100DC000FFFFFFFFFFFFFFFFFFFFFFFFFFFFFFFF33
:100DD000FFFFFFFFFFFFFFFFFFFFFFFFFFFFFFFF23
:100DE000FFFFFFFFFFFFFFFFFFFFFFFFFFFFFFFF13
:100DF000FF4F2F4F2F4F2F4F2F4F2F4F2F4F2F4F33
:100E00002F4F2F4F2F4F2F4F2F4F2F4F2F4F2F4FF2
:100E10002F4F2F4F2F4F2F4F2F4F2F4F2F4F2F4FE2
:100E20002F4F2F4F2F4F2F4F2F4F2F4F2F4F2F4FD2
:100E30002F4F2F4F2F4F2F4F2F4F2F4F2F4F2F4FC2
:100E40002F4F2F4F2F4F2F4F2F4F2F4F2F4F2F4FB2
:100E50002F4F2F4F2F4F2F4F2F4F2F4F2F4F2F4FA2
:100E60002F4F2F4F2F4F2F4F2F4F2F4F2F4F2F4F92
:100E70002FFFFFFFFFFFFFFFFFFFFFFFFFFFFFFF52
:100E8000FFFFFFFFFFFFFFFFFFFFFFFFFFFFFFFF72
:100E9000FFFFFFFFFFFFFFFFFFFFFFFFFFFFFFFF62
:100EA000FFFFFFFFFFFFFFFFFFFFFFFFFFFFFFFF52
:100EB000FFFFFFFFFFFFFFFFFFFFFFFFFFFFFFFF42
:100EC000FFFFFFFFFFFFFFFFFFFFFFFFFFFFFFFF32
:100ED000FFFFFFFFFFFFFFFFFFFFFFFFFFFFFFFF22
:100EE000FFFFFFFFFFFFFFFFFFFFFFFFFFFFFFFF12
:100EF000FFFFFFFFFFFFFFFFFFFFFFFFFFFFFFFF02
:100F0000FFFFFFFFFFFFFFFFFFFFFFFFFFFFFFFFF1
:100F1000FFFFFFFFFFFFFFFFFFFFFFFFFFFFFFFFE1
:100F2000FFFFFFFFFFFFFFFFFFFFFFFFFFFFFFFFD1
:100F3000FFFFFFFFFFFFFFFFFFFFFFFFFFFFFFFFC1
:100F4000FFFFFFFFFFFFFFFFFFFFFFFFFFFFFFFFB1
:100F5000FFFFFFFFFFFFFFFFFFFFFFFFFFFFFFFFA1
:100F6000FFFFFFFFFFFFFFFFFFFFFFFFFFFFFFFF91
:100F7000FF4FAF4FAF4FAF4FAF4FAF4FAF4FAF4F31
:100F8000AF4FAF4FAF4FAF4FAF4FAF4FAF4FAF4F71
:100F9000AF4FAF4FAF4FAF4FAF4FAF4FAF4FAF4F61
:100FA000AF4FAF4FAF4FAF4FAF4FAF4FAF4FAF4F51
:100FB000AF4FAF4FAF4FAF4FAF4FAF4FAF4FAF4F41
:100FC000AF4FAF4FAF4FAF4FAF4FAF4FAF4FAF4F31
:100FD000AF4FAF4FAF4FAF4FAF4FAF4FAF4FAF4F21
:100FE000AF4FAF4FAF4FAF4FAF4FAF4FAF4FAF4F11
:100FF000AFAA55AA55AA55AA55AA55AA55AA55EA5F
:10100000FDFE3F83711D0D0D090B0B0B1B3367CECE
:101010001D7AF5EAD5AA55AAD5EAF5FA7D3E9FCE06
:101020006F663796D7D6D7D697B627EE0D7AF5EAFC
:10103000D5AAD5AAD5AAD5AAD5EAF5FA1DCE2F26C6
:101040003736B796D7D6D7D6D7D6D7D6D7D6D7D6D8
:10105000D79637F607FEFFAA55AA55AA55AA55AA4C
:1010600055AA55AA55AA55AA55AA55AA55AA55AA88
:1010700055DAF5DA75DAF5DA75DAF5DAF5FEFF3F05
:101080008FE13C07000000000C0C000000C0C0C154
:101090001FF03797D7D717731B0B09183F01001C98
:1010A0003E3FFFC3D9D9C3FFFF7F007F3F18190D13
:1010B0000D191933130BEB8BCBEBEBEB083F3820FF
:1010C000000000033B13C3C3FF7F1FC3733B9BDBC5
:1010D0009BB83C339097B7B69796973637262F2E06
:1010E0002D2EEDCE1DFAF5EAF5EAB5EA75EAD5EA58
:1010F00055FFEEFFFBFFDDFFFBFFFFFF7F0FE17CF6
:101100001F01006CEEEEEFCFDEDECE6C0001FFFFC4
:10111000C09FBE80FFFF7F000000C0F0783888C00D
:10112000E0F81C1F1F1919189898F000003C7EFF6A
:101130007F0F02000070FFFFFF01810000000038F8
:10114000383800000000877F010000000006FF3FE4
:1011500003F3FFFF1FC3E1FF3F0F030000C0C4C63E
:10116000C6FE0771FCFFFFFFFFFFF6FFFFFFFADF80
:10117000FFFFFFFFFFFFFFFFFFFFFFFFF8F3E7CEDB
:10118000DCD8D0D0D0D0D0D0D0D0D8DCCEECE9CB09
:10119000DBD3D7D3D9D8D8C8E8ECEFEFE2E68CB1EF
:1011A000B7A7A7A7A7A7B7B39BD9CCEECCD8D89899
:1011B000B0B098DCDFD0D7D3D8C6F3E7CED8D0D044
:1011C000D0D0D0D8D0D6D1DCDFD8D0D0D0D0D3D8E2
:1011D000D8CBEBC9D893B7B19CCCCCD8D8D0D0D091
:1011E000D0D1DFC6F0FFFFFFFFFFFFFFFFFFFFFFD4
:1011F000FFFFFFFFFFFFFFFFFFFFFFFFFFFFFFFFFF
:10120000FFFFFF1FCFE7F3194D61FFFFFFFFFFFF58
:10121000FFFFFFFFFFFF7F7F7F7F7FFFFFFFFFFF5E
:10122000FFFFFFFFFFFFFFFFFFFFFFFFFFFFFFFFCE
:10123000FFFFFFFFFFFFFFFFFFFFFFFFFFFFFFFFBE
:10124000FFFFFFFFFFFFFFFFFFFFFFFFFFFFFFFFAE
:10125000FFFFFFFFFFFFFFFFFFFFFFFFFFFFFFFF9E
:10126000FFFFFFFFFFFFFFFFFFFFFFFFFFFFFFFF8E
:10127000FFFFFFFFFFFFFFFFFFFFFFFFFFFFFF8FEE
:101280002F67301EFFFF802A552881FFFFFFFFFFD9
:10129000FFFF7F7F7F38B287CF7FFEFCF9D3C79FE8
:1012A0003FFFFFFFFFFFFFFFFFFF03F9FCFEBEFE56
:1012B000FEFEBCF9A38F3FFFFFFFFFFFFFFFFFFF15
:1012C000FFFFFFFFFFFFFFFFFFFFFFFFFFFFFFFF2E
:1012D000FFFFFFFFFFFFFFFFFF7F411C9EBEFCFDE6
:1012E000F9C39F3FFFFFFFFFFFFFFFFFFFFFFFFF70
:1012F000FF7F7F7F7F7F7F7F7F7F7F7F7F7F7F7F7E
:101300007F1F4F6E603D3F1832270F7F7F7F7F7FAB
:101310007F7F7E78797B013432383F3F1C49637987
:10132000787F7F7F7F7F7F7F7F7F1853476B6F2E14
:101330006E4F5F4B0773787F7F7F7F7F7F7F7F7FDD
:101340007F7F7F7F7F7F7F7F7F7F7F7F7F7F7F7FAD
:101350007F7F7F7F7F7F7F7F7076431F3B3F3F3F55
:101360003F1F43787F7F7F7F7F7F7F7F7F7F7F7F70
:101370007F54A854A854A854A854A854A854A854B6
:10138000A854A854A854A854A854A854A854A8547D
:10139000A854A854A854A854A854A854A854A8546D
:1013A000A854A854A854A854A854A854A854A8545D
:1013B000A854A854A854A854A854A854A854A8544D
:1013C000A854A854A854A854A854A854A854A8543D
:1013D000A854A854A854A854A854A854A854A8542D
:1013E000A854A854A854A854A854A854A854A8541D
:1013F000A8080B000202020000090400000102021A
:101400000000052400100105240101010424020646
:1014100005240600010705810310004009040100AE
:10142000020A0000000705020240000007058302CF
:101430004000000403090412010002EF02014041D0
:1014400023378000010102030141726475696E6FE8
:10145000204C4C430041726475696E6F204D696386
:10146000726F0000111611241FBECFEFDAE0DEBF4D
:10147000CDBF11E0A0E0B1E0ECE5FCE402C00590D6
:101480000D92A63CB107D9F726E0A6ECB1E001C069
:101490001D92A839B207E1F71AE0C3E3DAE004C00D
:1014A0002197FE010E943424C233D107C9F70E945C
:1014B0003E160C942C260C9400008091C6010895D1
:1014C000CF92DF92EF92FF920F931F93080F191F95
:1014D000601771078CF46E0D7F1D8617970764F4F3
:1014E000CA018C0D9D1D2817390734F4C20ED31E76
:1014F00081E04C155D050CF080E01F910F91FF908D
:10150000EF90DF90CF90089580E0EBE2F2E0811160
:101510008FEF002481938193819381930394D1F77A
:101520000895FC0180912A02882311F13FB7F894B5
:1015300082E08093E9002091F200822F90E018165B
:10154000190614F481E090E0882339F0289A44E6E3
:10155000409329024091F1004083222339F02091E9
:10156000F200211103C02BE62093E8003FBF08954D
:101570008FEF9FEF08952FB7F89483E08093E900F1
:101580009091E800892F807295FF04C09091F2003D
:1015900080E4891B2FBF08958091210281110DC025
:1015A00082E080931D0284E080931E02109220024C
:1015B00010921F0281E0809321028DE192E0089554
:1015C000CF93DF931F92CDB7DEB76983DC01ED9136
:1015D000FC910280F381E02D41E050E0BE016F5F9D
:1015E0007F4F09950F90DF91CF91089583E080930D
:1015F000E9008091F200882319F08AE38093E800E3
:1016000008950E94BB0A90E00895CF93DF931F9244
:10161000CDB7DEB7FC018485958597FD08C02FEF17
:101620003FEF358724870F90DF91CF910895CE014A
:1016300001960E94910A019719F4898190E0F3CFF5
:101640008FEF9FEFF0CF0F931F93CF93DF931F92F6
:10165000CDB7DEB78C01FC018485958597FF0BC063
:10166000CE0101960E94910A019771F4898190E060
:10167000F80195878487F801848595850F90DF911F
:10168000CF911F910F9108958FEF9FEFF1CFFC0144
:101690008485958597FD0BC09FB7F89482E0809371
:1016A000E9008091F2009FBF90E0019608959FB7F6
:1016B000F89482E08093E9008091F2009FBF90E06F
:1016C000089540911702509118022091150230910F
:1016D000160242175307B4F49091E8009570E1F3B5
:1016E0009091E80092FD19C08093F100809117025B
:1016F0009091180201968F739927892B19F48EEF18
:101700008093E800809117029091180201969093BF
:1017100018028093170281E0089580E00895EF9207
:10172000FF920F931F93CF93DF93F82E192FE62E7E
:10173000042F81E0860F880F0E94610B83E00E94D6
:10174000610BCF2DD12FEC0EFD2EF11CCE15DF0538
:10175000B9F007FF13C0FE0184910E94610B182F9E
:1017600080E00E94610B812321968111EFCFDF91F0
:10177000CF911F910F91FF90EF9008958881EDCF49
:1017800081E0F5CFDF92EF92FF920F931F93CF93FB
:10179000DF93D82E8A01EB017B01E40EF51ECE15F6
:1017A000DF0559F0D7FE12C0FE0184910E94610B43
:1017B00021968111F4CF0FEF1FEFC801DF91CF9178
:1017C0001F910F91FF90EF90DF9008958881EECFE9
:1017D0000F931F93CF93DF931F92CDB7DEB782E0B5
:1017E000898342E450E061EF73E180E80E94C20B1C
:1017F0000E94CC0ADC0112960D911C910115110575
:1018000089F0D801ED91FC910280F381E02DBE01B9
:101810006F5F7F4FC801099597FD04C0F8010085EF
:101820001185ECCF89810F90DF91CF911F910F919E
:101830000895615030F02091F100FC012083019661
:10184000F8CF289A84E68093290208953FB7F89448
:101850008091110290911202A0911302B091140292
:1018600026B5A89B05C02F3F19F00196A11DB11DFB
:101870003FBFBA2FA92F982F8827BC01CD01620F37
:10188000711D811D911D42E0660F771F881F991FF2
:101890004A95D1F708958F929F92AF92BF92CF92BF
:1018A000DF92EF92FF926B017C010E94260C4B01AC
:1018B0005C01C114D104E104F104B9F00E94260CCA
:1018C000681979098A099B09683E73408105910569
:1018D00080F321E0C21AD108E108F10888EE880EF1
:1018E00083E0981EA11CB11CE4CFFF90EF90DF9025
:1018F000CF90BF90AF909F908F9008958F929F92BE
:10190000AF92BF92CF92DF92EF92FF920F931F930D
:10191000CF93DF936C017B018A0180911C018823A6
:1019200009F45CC080912A02882309F457C0809191
:101930001C0280FF05C08091E00082608093E0007F
:10194000E801B12C8AEFA82E93E0892E2AE3922E8B
:10195000209711F4BB20D9F10E94BB0A81110AC063
:10196000AA94AA20D9F161E070E080E090E00E94A2
:101970004B0CEECF8C171D0611F00CF08C2F9FB77F
:10198000F8948092E9002091E80025FD02C09FBFF5
:10199000DFCF282F30E0C21BD30BF701815020F09E
:1019A00041914093F100FACFE20EF31EBB2021F0EB
:1019B0009092E800B12CEBCF8091E80085FDE7CF55
:1019C0009092E800BB24B394209709F3F3CF5D9A7B
:1019D00084E680931B02101611063CF081E090E033
:1019E000F6019383828310E000E0C801DF91CF917C
:1019F0001F910F91FF90EF90DF90CF90BF90AF902D
:101A00009F908F900895AF92BF92CF92DF92EF9206
:101A1000FF920F931F93CF93DF936C017B018B0198
:101A2000040F151FEB015E01AE18BF08C017D107E8
:101A300059F06991D601ED91FC910190F081E02D72
:101A4000C6010995892B79F7C501DF91CF911F91C7
:101A50000F91FF90EF90DF90CF90BF90AF900895DF
:101A600020912F06E0912D06F0912E06CF010296CF
:101A700090932E0680932D06222319F08591949140
:101A80000895808191810895CF92DF92EF92FF9225
:101A9000CF93DF930E94300D811520E8920791F4D7
:101AA000809171008D7F8093710010929100469813
:101AB000479810920502DF91CF91FF90EF90DF9051
:101AC000CF90089521E020930502813020E892070D
:101AD00051F480912B0690912C0690932E068093C2
:101AE0002D060E94300D97FD05C02091C8012223CC
:101AF00009F454C02091C701211150C021E0209366
:101B0000C901EC01DF77209709F04BC081E0809399
:101B1000CA0146983FE9C32E3FE0D32EE12CF12CB9
:101B2000CAEFD0E0E0918E06F0918F060995811101
:101B300003C081E08093CA018091C901882329F004
:101B40008091CA01882309F43FC047980E94300D54
:101B50000097F1F19C01DE010E941124DC01CB0110
:101B600029E0B595A795979587952A95D1F7109275
:101B700090002AE020939100D0929900C0929800A2
:101B80008093CB019093CC01A093CD01B093CE0173
:101B9000809171008260809371008DCF1092C90195
:101BA000B0CF9E0150E040E060E472E48FE090E04E
:101BB0000E94862369017A0181E0C81AD108E108F0
:101BC000F1081092CA01AECF4699BFCF479ABECF57
:101BD0008FEF9FEFDC01CBCF9C01E1E7F0E090813C
:101BE0009D7F908310922F06E0E8F6E0F0932E069A
:101BF000E0932D06F0932C06E0932B06318320838F
:101C000084E690E09383828380E090E895838483E8
:101C10000C94440DBC0190E080E00C944B0C1092AD
:101C2000C6013E983F9808953E9A3F9A81E080937E
:101C3000C6010895AF92BF92CF92DF92EF92FF92CA
:101C40000F931F93CF93DF936D3079F0C091010212
:101C5000D09102026A30B1F4109204021092030291
:101C60002896D0930202C093010281E090E0DF91B8
:101C7000CF911F910F91FF90EF90DF90CF90BF9089
:101C8000AF900895409103025091040285E0689F4F
:101C9000F0011124E455FF4F9A01C12C80E1E82E98
:101CA000A5E070E0CA1621F0CF0101967491FC0105
:101CB00010E000E0B72FB170DB2E20383105D0F4F2
:101CC000CE01800F911F80349105A0F461E081FD69
:101CD00064E080FD660F82FD6295887FE89ED001FA
:101CE0001124A20FF62EA55DBD4F8C91DD20A9F029
:101CF000862B8C9376950F5F1F4F08301105D1F618
:101D0000C3942F5F3F4F86E0C812CACF4A5F5F4F30
:101D10005093040240930302A8CFF0948F21E9CF9F
:101D2000282F9FB19095907F669B98601C9B946034
:101D3000922381E0921380E00895EBE2F2E080E0EC
:101D4000A0E0B8E000800EBC8111012C1197A0FD2D
:101D5000FDCF0192B9F70DB408953F924F925F9273
:101D60006F927F928F929F92AF92BF92CF92DF92AB
:101D7000EF92FF920F931F93CF93DF9330E0F9011F
:101D8000E80FF91F1E161F060CF0C1C08038910520
:101D90000CF0BDC0FB01E00FF11D1E161F060CF07C
:101DA000B6C0603471050CF0B2C0DB0177FF04C02F
:101DB000AA27BB27A61BB70BA770BB27FB0177FD84
:101DC0003796C3E0F595E795CA95E1F777FF07C029
:101DD000319768E070E0EB01CA1BDB0BDE01402E9F
:101DE000469446944694512C077019F0DFEF4D1A33
:101DF0005D0ABF01EF01D695DC2FCC27D795C7959B
:101E0000C80FD91FC55DDD4F8A01460E571E48E039
:101E100050E04A018A1A9B0A4616570609F477C011
:101E20006830710509F473C06F3FEFEF7E070CF463
:101E30004BC06C0150E040E03E01E0E86E0E711CCA
:101E4000D7FC35C06F3F760709F45DC05E01A40E74
:101E5000B51EF501F080F801E40FF51F332433942B
:101E6000E31039C0E4910A2E01C0EE0F0A94EAF79C
:101E7000FE2AF501F0821097D1F067307105B9F0B4
:101E80005301A40EB51EF501F080FA01E00FF11F19
:101E900033243394E3102BC0E491F0E0082C02C00B
:101EA000F595E7950A94E2F7FE2AF501F0824F5F77
:101EB0005F4FFFEFCF1ADF0A421753072CF4F0E809
:101EC000CF16D10409F0BCCF6F5F7F4FC058DF4FF2
:101ED000020F131FA1CFE491F0E00A2E02C0EE0F13
:101EE000FF1F0A94E2F7E095F095FE22C2CFE4913D
:101EF000F0E0082C02C0F595E7950A94E2F7E0952A
:101F0000F095FE22D2CF109709F0BACFD0CFDF9153
:101F1000CF911F910F91FF90EF90DF90CF90BF90E6
:101F2000AF909F908F907F906F905F904F903F9079
:101F3000089584E690E00C94EC0D10920402109247
:101F4000030228E330E03093020220930102FC01F7
:101F5000448155816081718180E996E00C94030D84
:101F60002091D1013091D201820F931F9093D20121
:101F70008093D101089580910902882321F084E89B
:101F800093E00C94EC0D089580910F019091100155
:101F9000009739F483E090E090930B0280930A025B
:101FA000089501979093100180930F018091090289
:101FB000882321F080EB94E00E94EC0D84E090E017
:101FC00090930A01809309018CE290E090930C01B8
:101FD00080930B01089520910B0130910C01205F3B
:101FE0003F4F81E02C30310541F02432310531F092
:101FF0002C33310519F080E00895089508950F936A
:102000001F93CF93DF93E0910602F091070231977F
:1020100080E0E830F10530F5EA5EFF4E20910901DD
:1020200030910A01D90114960C9434241E103710F3
:102030005E108510AC10D310FA102111EBE6F1E020
:1020400063E871E080E040815181A417B50734F066
:10205000485F5F4F421753070CF081E034966E17CC
:102060007F0789F7DF91CF911F910F9108956091BC
:102070000B0170910C01EB016096EBE5F1E080E063
:1020800040815181A417B5079CF0485F5F4F42170C
:10209000530774F0428153818A0104501109C0171B
:1020A000D10734F0485F5F4F461757070CF081E0C7
:1020B000349691E0EB36F90719F7D4CF60910B0114
:1020C00070910C01EB016096EFE4F1E080E040815B
:1020D0005181A417B5079CF0485F5F4F4217530723
:1020E00074F0428153818A0104501109C017D1074D
:1020F00034F0485F5F4F461757070CF081E0349685
:1021000091E0EB35F90719F7ADCF60910B017091B4
:102110000C01EB016096E7E4F1E080E04081518141
:10212000A417B5079CF0485F5F4F4217530774F040
:10213000428153818A0104501109C017D10734F03C
:10214000485F5F4F461757070CF081E0349691E0E7
:10215000E335F90719F786CF60910B0170910C01F7
:10216000EB016096EFE3F1E080E040815181A4173C
:10217000B5079CF0485F5F4F4217530774F04281E8
:1021800053818A0104501109C017D10734F0485F08
:102190005F4F461757070CF081E0349691E0EB341F
:1021A000F90719F75FCF60910B0170910C01EB01FA
:1021B0006096E7E3F1E080E040815181A417B50724
:1021C0009CF0485F5F4F4217530774F04281538180
:1021D0008A0104501109C017D10734F0485F5F4FDE
:1021E000461757070CF081E0349691E0E334F90785
:1021F00019F738CF60910B0170910C01EB016096DB
:10220000EFE2F1E080E040815181A417B5079CF036
:10221000485F5F4F4217530774F0428153818A0130
:1022200004501109C017D10734F0485F5F4F4617BB
:1022300057070CF081E0349691E0EB33F90719F77A
:1022400011CF60910B0170910C01EB016096E7E2F8
:10225000F1E080E040815181A417B5079CF0485F10
:102260005F4F4217530774F0428153818A01045033
:102270001109C017D10734F0485F5F4F4617570761
:102280000CF081E0349691E0E333F90719F7EACED8
:10229000089590E080E00895FC018081918100978D
:1022A00011F00C94D6240895EF92FF920F931F9390
:1022B000CF93DF93EC017B018A018881998100979C
:1022C00029F02A813B812417350788F4B8016F5F14
:1022D0007F4F0E945F25009791F0998388831B832D
:1022E0000A832C813D81232B11F4FC0110821D8374
:1022F0000C83B701888199810E9425260CC08881B2
:102300009981009711F00E94D624198218821D82AB
:102310001C821B821A82CE01DF91CF911F910F91F7
:10232000FF90EF9008950F931F93CF93DF938091C9
:1023300064008E7F8093640080917A008064809333
:102340007A0080917A0086FDFCCFC0917800D09110
:1023500079000E94260CAB01BC01CE01B0E0A0E0E8
:10236000DC01992788278C019D01040F151F261F6A
:10237000371FC901B80120916400216020936400D7
:10238000611571058105910531F0DF91CF911F91A4
:102390000F910C943223DF91CF911F910F910895EB
:1023A0000E94931185E090E09093100180930F01BB
:1023B000109208021092F8011092F7011092F601A3
:1023C0001092FE011092FD011092F1011092F001A5
:1023D0008CE290E090930C0180930B0184E090E0FC
:1023E00090930A01809309016AEF70E080E090E029
:1023F0000C944B0C80910A0290910B028130910554
:1024000009F445C01CF4892B49F0089582309105E8
:1024100009F482C0039709F49CC0089588E00E94E3
:10242000900E882371F080910902882351F1109257
:1024300009020E940F0E64E670E080E090E00E94C6
:102440004B0C84E00E94900E882309F49DC085E027
:1024500090E09093100180930F011092D20110929E
:10246000D10181E090E0909307028093060290935F
:102470000B0280930A0264E670E080E090E00C9426
:102480004B0C81E0809309020E94140ED4CF80E4AB
:102490000E94900E8823A1F181E08093D6011092D2
:1024A000D5011092D4011092D30180E20E94900EC7
:1024B000882349F11092D60181E08093D5011092D2
:1024C000D4011092D30180E80E94900E8823F1F08D
:1024D0001092D6011092D50181E08093D401109220
:1024E000D30180E10E94900E882399F01092D601CA
:1024F0001092D5011092D40181E08093D301089508
:102500001092D601D2CF1092D501DDCF1092D40116
:10251000E8CF1092D301089588E00E94900E88239E
:1025200091F0809106029091070201969093070224
:10253000809306020E94D01181E090E090930B02FC
:1025400080930A02089584E00E94900E8111E9CFE1
:10255000089588E00E94900E882389F01092070267
:10256000109206020E94D0116AEF70E080E090E0C5
:102570000E944B0C10920B0210920A02089584E004
:102580000E94900E8111EACF08951F920F920FB60C
:102590000F9211248F939F938091E1009091E1001D
:1025A000937F9093E10083FF0FC01092E90091E0C8
:1025B0009093EB001092EC0092E39093ED00109258
:1025C0002A0298E09093F00082FF22C093E090935B
:1025D000E9009091F200992319F09AE39093E800B2
:1025E00090911B02992341F090911B02915090937E
:1025F0001B02911101C05D9890912902992341F02D
:1026000090912902915090932902911101C028982C
:1026100084FF18C08091E2008E7E81608093E2008A
:102620008091E1008F7E8093E10080911C028E7E7C
:10263000806180931C029F918F910F900FBE0F902D
:102640001F90189580FFF7CF8091E2008E7E806109
:102650008093E2008091E1008E7E8093E100809182
:102660001C028E7E8160E5CF1F920F920FB60F92F3
:102670001124CF92DF92EF92FF920F931F932F932B
:102680003F934F935F936F937F938F939F93AF93FA
:10269000BF93EF93FF93CF93DF93CDB7DEB76C97E4
:1026A000DEBFCDBF1092E9008091E80083FF25C016
:1026B00068E0CE0145960E94190C82EF8093E800F5
:1026C0008D8987FF39C09091E80090FFFCCF982F4B
:1026D000907609F034C19E894F89588D2F89F88CE6
:1026E000911131C0803861F580911A028093F10018
:1026F0001092F1008EEF8093E8006C960FB6F8947C
:10270000DEBF0FBECDBFDF91CF91FF91EF91BF91A3
:10271000AF919F918F917F916F915F914F913F9179
:102720002F911F910F91FF90EF90DF90CF900F901E
:102730000FBE0F901F9018959EEF9093E800C7CFA3
:102740001092F100D5CF913059F48111D3CF41309F
:10275000510581F680911A028D7F80931A02CACFAB
:10276000933049F48111C6CF4130510519F680915B
:102770001A028260F2CF953041F48091E80080FF28
:10278000FCCF20682093E300B5CF963009F0A9C0B4
:102790000B8D1C8D22E01092E9001092180210920D
:1027A0001702F2122EC010921602109215020E9409
:1027B000E80B1F8299E09983FA8291E09E8390EA68
:1027C00098879AEF99872091170230911802275F16
:1027D0003F4F3C832B838D831092E90010921802A7
:1027E00010921702109316020093150249E050E070
:1027F000BE016F5F7F4F80E00E94C20B0E94E80B1A
:1028000079CF10931602009315020E94CC0ADC01C6
:1028100012960D911C910115110509F451C1D801B1
:10282000ED91FC910480F581E02DBE016B5E7F4F40
:10283000C8010995009709F03EC1F801008511858E
:10284000EACFF3E0FF120EC08F89882309F440C05D
:10285000823061F440E86DE085E594E10E948F0BE1
:10286000811148CF81E28093EB0047CF813029F47A
:1028700040E86BE089E494E1F1CF833099F70E945E
:10288000CC0ADC011296ED90FC908E010F5F1F4F79
:102890006801E114F10479F0D701ED91FC91068013
:1028A000F781E02DB801C7010995080F111DF70147
:1028B000E084F184EECFD8011C92F6010190002053
:1028C000E9F73197BF016C197D0940E0C601C6CF19
:1028D00063E374E1FB01449150E080E80E94C20B85
:1028E00009CF973009F4BECF983021F481E080936E
:1028F000F10000CF993009F0FDCE837009F0B2CF1E
:10290000E4E8F1E081E031E096E32191222371F0E7
:102910008093E9003093EB00DF0111972C91209315
:10292000EC009093ED008F5F873079F78EE780930E
:10293000EA001092EA008F8980932A02DBCE8B8D09
:102940009C8D1092E9001092180210921702909339
:10295000160280931502898D811192C08E899D89FE
:10296000913A49F4813209F07DCF47E050E065E1CA
:1029700071E080E0B3CF913209F074CF833269F413
:102980008F89988DB0E0A0E080931101909312019F
:10299000A0931301B0931401ADCE803269F48091FD
:1029A000E80082FFFCCF67E085E191E00E94190C0E
:1029B0008BEF8093E8009ECE823209F09BCE8F8908
:1029C00080931C01EEEFFFE7859194918B3F9C4D26
:1029D00051F1E0E0F8E08091150190911601A0918D
:1029E0001701B0911801803B9440A105B105F1F4A5
:1029F00080911C0180FD1AC0EE3F8AE0F80789F53E
:102A000087E797E791838083809160008093190224
:102A100088E19BE00FB6F894A895809360000FBE04
:102A20009093600067CEEEEFFAE0D5CF8081918180
:102A30008737974709F05ECEA8958091600088613E
:102A4000809360008091190280936000EE3F2AE03D
:102A5000F20789F08091FE0A9091FF0A91838083AA
:102A600049CE808191818737980751F29093FF0A70
:102A70008093FE0AC5CF1092FF0A1092FE0A3ACE4A
:102A80000E94CC0ADC0112960D911C9101151105D2
:102A900009F4E8CED801ED91FC910190F081E02D90
:102AA000BE016B5E7F4FC8010995811123CEF801ED
:102AB00000851185EBCF181619060CF41BCED2CE6B
:102AC000F1E0FF12BECE67E374E104CF1F920F92D4
:102AD0000FB60F9211242F933F938F939F93AF9331
:102AE000BF9380910D0290910E02A0910F02B091C0
:102AF000100230910C0223E0230F2D3758F5019678
:102B0000A11DB11D20930C0280930D0290930E0223
:102B1000A0930F02B09310028091110290911202C3
:102B2000A0911302B09114020196A11DB11D8093D2
:102B3000110290931202A0931302B0931402BF915A
:102B4000AF919F918F913F912F910F900FBE0F905A
:102B50001F90189526E8230F0296A11DB11DD2CF14
:102B60001F920F920FB60F9211242F933F934F9302
:102B70005F936F937F938F939F93AF93BF93EF93E5
:102B8000FF938091CB019091CC01A091CD01B091A8
:102B9000CE01892B8A2B8B2B09F440C08091CA016E
:102BA00081110BC088B190E4892788B98091C9014F
:102BB000882319F088B1805888B98091CB01909111
:102BC000CC01A091CD01B091CE01181619061A06BC
:102BD0001B069CF48091CB019091CC01A091CD017A
:102BE000B091CE010197A109B1098093CB019093D7
:102BF000CC01A093CD01B093CE01FF91EF91BF9195
:102C0000AF919F918F917F916F915F914F913F9184
:102C10002F910F900FBE0F901F9018950E94440D9A
:102C2000ECCFE0E3F6E01382128288EE93E0A0E0BE
:102C3000B0E084839583A683B7838EE891E0918387
:102C400080838FEF9FEF95878487E0E9F6E013821A
:102C5000128280EA91E0918380838DE59AE09093DF
:102C60008F0680938E0680E090E890938D06809387
:102C70008C0646983E9A47983F9A0895CF93DF93E3
:102C8000CDB7DEB76E970FB6F894DEBF0FBECDBFDF
:102C9000789484B5826084BD84B5816084BD85B537
:102CA000826085BD85B5816085BD80916E00816043
:102CB00080936E00109281008091810082608093E9
:102CC00081008091810081608093810080918000EB
:102CD0008160809380008091910082608093910058
:102CE000809191008160809391008091900081603B
:102CF000809390008091C10084608093C100809196
:102D0000C10082608093C1008091C1008160809386
:102D1000C1008091C30081608093C3008091C00096
:102D200082608093C0008091C20081608093C20065
:102D300080917A00846080937A0080917A0082602A
:102D400080937A0080917A00816080937A008091EC
:102D50007A00806880937A0010922A0210921A02F8
:102D600010921C028091D70081608093D70080EA86
:102D70008093D80089B5806189BD89B5826089BD9D
:102D800009B400FEFDCF61E070E080E090E00E94B9
:102D90004B0C8091D8008F7C80618093D80080910B
:102DA000E000807F8093E0008091E1008E7E809340
:102DB000E1008DE08093E200559A209A5D98289872
:102DC00081EC80937C0085B1806F85B984B1877E6A
:102DD00084B984B1876E84B95E9A5F988AB1806D38
:102DE0008AB9769A6E9881B3806F81BB899880B3D7
:102DF0008D7080BB80E58CBD81E08DBD85E090E06D
:102E00000E940A0E5F9A85E090E00E940A0E5E988A
:102E10005C98ECEAF5E089EB95E024912EBD00008A
:102E20000DB407FEFDCF31968E179F07B1F75C9A60
:102E300081E88093640080916500816080936500E3
:102E400084E00E94900E882309F446C02D9884E8FF
:102E50000E94900E8823D9F02D9A88EC90E00E9471
:102E60000A0E2F9882E090E00E9470238F3F29F095
:102E70006FEF82E090E00E94782384EF91E00E945F
:102E80000A0E2F9A84E80E94900E8111FBCF84E1F4
:102E90000E94900E8823D9F02D9A88EC90E00E9431
:102EA0000A0E2E9882E090E00E947023882329F079
:102EB00060E082E090E00E94782384EF91E00E943D
:102EC0000A0E2E9A84E10E94900E8111FBCF88ECAD
:102ED00090E00E940A0EB4CF2D9A82E090E00E940A
:102EE0007023882369F10E94140E81E2809300010F
:102EF0000E9493119E012F5F3F4F3A8F298F76E4F6
:102F0000272E312C51E2452E512C69E0662E712C72
:102F10008FB7F89440910D0250910E0260910F020C
:102F2000709110028FBF8091CF01882361F01092C1
:102F3000CF0180E090E0892B59F30E940000E2CF9E
:102F40000E940F0ED2CF8091D001342F381B832FD7
:102F500090910001391740F48F5F891750F781E095
:102F600083BF889513BEE5CF11E01093CF01409346
:102F7000D0018091E6019091E70101969093E701DD
:102F80008093E6010E94840A1092020210920102CC
:102F900010920402109203020E94840A80910A0295
:102FA00090910B028130910509F4A0C044F4892B63
:102FB00009F458C00E949D0E0E94FA11BACF8230C7
:102FC000910511F40C944F220397A1F7EE24E3949A
:102FD00008E120E14DE857E06CE070E088E390E024
:102FE0000E94AD0E86E290E090930402809303026B
:102FF00082E390E0909302028093010249E050E066
:103000006BEB71E080E996E00E94030D0E94FA11DB
:103010000E949D0E809108028111CCCF80910902FF
:10302000882341F210930802809171008D7F809374
:10303000710010932F0683E697E090932E068093FD
:103040002D0690932C0680932B060E94440D8091B0
:1030500005028111FCCF68EE73E080E090E00E94F1
:103060004B0CA8CFEE24E39400E420E841EF5FE0AE
:1030700070E060E090E080E00E94AD0E8091090277
:103080001A8219821C821B821E821D828823D9F01B
:1030900048E050E068EA71E0CE0101960E945411C8
:1030A000CE0101960E949D0FCE0101960E944C1107
:1030B0008091080281117ECF84E893E00E94EC0D9C
:1030C0001093080277CF49E050E061EB71E0CE0148
:1030D00001960E945411CE0101960E949D0FCE01CF
:1030E00001960E944C111092080264CFEE24E394E2
:1030F00000E420E841EF5BE070E060E090E080E019
:103100000E94AD0EE0910602F09107023197E8307F
:10311000F10500F5E257F74E0C94342427194219B3
:103120000B19F818EE18DB18C8189618E12C05E1F1
:1031300020E141EC5BE067E270E08AE590E00E940C
:10314000AD0E20E141EC5BE06FE070E090E080E0EC
:103150000E94AD0EAA24A394B12C912C812C8091B5
:103160000F0190911001881699060CF0A6C0E12C71
:1031700004E024E04DEB5BE061E070E0C5010E94FB
:10318000AD0E2FEF821A920A35E0A30EB11CE7CFE5
:10319000E12C05E120E141EC5BE067E270E08CE2CC
:1031A00090E00E94AD0E20E141EC5BE06FE070E04A
:1031B00080E190E0CDCFE12C05E120E141EC5BE046
:1031C00067E270E080E190E00E94AD0E20E141EC0A
:1031D0005BE06FE070E080E790E0BACFE12C05E1C2
:1031E00020E141EC5BE067E270E08AE590E0ECCF43
:1031F000E12C05E120E141EC5BE067E270E082E276
:1032000090E00E94AD0E20E141EC5BE06FE070E0E9
:1032100086E590E09DCFE12C05E120E141EC5BE00B
:1032200067E270E08EE190E00E94AD0E20E141EC9B
:103230005BE06FE070E089E390E00E94AD0E20E17A
:1032400041EC5BE067E270E084E590E081CF2BE643
:10325000A22E21E0B22E33E8832E31E0932EF50129
:1032600062817381E12C05E120E141EC5BE080812A
:1032700091810E94AD0EF4E0AF0EB11C8A149B0444
:1032800071F768CF8BE5A82E81E0B82E9BE6892EDA
:1032900091E0992EF50162817381E12C05E120E135
:1032A00041EC5BE0808191810E94AD0EF4E0AF0EB5
:1032B000B11C8A149B0471F74DCF8BE190E0909381
:1032C000040280930302E1E0F0E0F0930202E09355
:1032D00001028091D1019091D2011C8A1B8A1E8A21
:1032E0001D8A188E1F8A4AE0BE016F5F7F4F0E94C1
:1032F0003B23E98DFA8D01900020E9F73197AF016A
:10330000298D3A8D421B530BBE016F5F7F4FCE015B
:1033100043960E9454114F89588D6B897C8980E9AE
:1033200096E00E94030DCE0143960E944C118091BD
:103330000A0290910B02019709F0F5C08091D60125
:10334000882391F1A0900901B0900A0130E7A316FB
:10335000B104D8F40E94EB0F882309F4FEC08FEF6C
:10336000A81AB80AB0920A01A09209018091E60158
:103370009091E7016AE070E00E942024892B29F4F3
:103380008091090281110E94990F60910B01709147
:103390000C01E12C00E120E149E156E080910901B6
:1033A00090910A010E94AD0E8091D501882391F180
:1033B000A0900901B0900A0191E0A91AB108E0E7D4
:1033C000AE16B104C0F40E94EB0F882309F4CFC0FD
:1033D000B0920A01A09209018091E6019091E70163
:1033E0006AE070E00E942024892B29F48091090270
:1033F00081110E94990F60910B0170910C01E12CD9
:1034000000E120E149EF55E08091090190910A0126
:103410000E94AD0E8091D401882389F1A0900B0108
:10342000B0900C01C5010396C097D0F40E94FF0F25
:103430008823B1F0F1E0AF1AB108B0920C01A0926C
:103440000B018091E6019091E7016AE070E00E9433
:103450002024892B29F48091090281110E94990F5F
:1034600060910B0170910C01E12C00E120E149ED2C
:1034700055E08091090190910A010E94AD0E809162
:10348000D301882389F1A0900B01B0900C01C501F4
:103490000496C097D0F40E94FF0F8823B1F02FEF5D
:1034A000A21AB20AB0920C01A0920B018091E6011F
:1034B0009091E7016AE070E00E942024892B29F4B2
:1034C0008091090281110E94990F60910B01709106
:1034D0000C01E12C00E120E149ED55E0809109016A
:1034E00090910A010E94AD0E8091D60181111BC0FE
:1034F0008091D501811117C08091D401811113C031
:103500008091D30181110FC060910B0170910C016A
:10351000E12C00E120E149EB55E080910901909117
:103520000A010E94AD0E0E9493118091F801811151
:103530002EC0E0910602F09107023197E830F105C4
:1035400030F5EB55F54E0C943424C11ACA1ACD1A35
:10355000C11ACA1ACD1AC11ACA1A80910B019091C8
:103560000C01019690930C0180930B010ECF80917A
:103570000B0190910C01019690930C0180930B012B
:103580003ACF8EE090E090930E0180930D0130E0F1
:1035900020E00BC086EF9FEFF6CF86E290E090939D
:1035A0000E0180930D012CE030E08091FF0190919D
:1035B00000024091D7015091D8018037910549F51B
:1035C0004130510521F41092D8011092D70190900A
:1035D000E6018090E7012091D7013091D80190FC5D
:1035E00036C02115310509F50197909300028093AB
:1035F000FF0160910D0170910E01E12C08E120E1C5
:1036000049E356E08091FF01909100020E94AD0EC7
:1036100024C082179307D9F6452BC9F6E1E0F0E004
:10362000F093D801E093D701D2CF21303105A9F42E
:103630000196909300028093FF0160910D017091BB
:103640000E01E12C08E120E14DE857E0DBCF211528
:10365000310579F22130310581F3A0900602B09056
:1036600007028091F701811117C0F5013197E83009
:10367000F10590F4E25CF44E0C943424461B4F1B8D
:103680008F1B461B4F1B8F1B461B4F1B8CEF9FEF47
:10369000909308018093070190E080E008C08CE2DD
:1036A00090E090930801809307018CE090E02091D6
:1036B0000501309106014091D9015091DA0120377E
:1036C000310581F54130510521F41092DA01109253
:1036D000D901892D982D63E070E00E9420244C01CF
:1036E0008091D9019091DA0181149104C9F5009774
:1036F00029F521503109309306012093050160918D
:10370000070170910801E12C00E120E149E856E051
:1037100080910501909106010E94AD0E25C084E1C3
:1037200090E0B6CF28173907A1F6452B91F681E036
:1037300090E09093DA018093D901CBCF0197A1F467
:103740002F5F3F4F309306012093050160910701E1
:1037500070910801E12C00E120E149E656E0D8CF64
:10376000009769F2019791F38091F601811168C089
:10377000F5013197E830F10508F062C0EE53F44EE0
:103780000C943424CA1B1A1C231CCA1B1A1C231C8D
:10379000CA1B1A1C8CE290E09093040180930301F1
:1037A0004CE050E020910101309102018091DB0159
:1037B0009091DC012037310509F048C08130910536
:1037C00009F056C01092DC011092DB01892869F4DF
:1037D0002150310930930201209301018091DB01D6
:1037E0009091DC01009709F095C6609103017091FA
:1037F0000401E12C00E120E149EC56E08091010157
:10380000909102010E94AD0E8091FD019091FE0108
:10381000F5013197E830F10508F077C0EE5EF34E20
:103820000C943424421C961CB71CE21C0D1D0D1D6B
:10383000DD20F92084E190E090930401809303015E
:1038400050E040E0AFCF8CEF9FEFF6CF2417350765
:1038500079F4009709F05BC6E1E0F0E0F093DC0159
:10386000E093DB01892809F058C62F5F3F4FB2CFA4
:10387000892809F0B3CF009709F4AACF019709F07E
:10388000ADCFF3CF21E02093E5010097E1F42EE1E5
:1038900030E03093FA012093F9017092FC016092BC
:1038A000FB013093F3012093F2015092F501409215
:1038B000F4013093E4012093E3012AE330E03093F4
:1038C000E2012093E1012091F0013091F101232BDD
:1038D000E1F42AE430E03093ED012093EC017092A2
:1038E000EF016092EE013093E9012093E8015092DC
:1038F000EB014092EA013093E0012093DF01EAE31B
:10390000F0E0F093DE01E093DD01019709F0A6C03D
:103910008091FB019091FC01813291050CF0ACC4C7
:1039200001969093FC018093FB0198C01092E501F1
:10393000009759F784E390E09093FA018093F9019E
:103940007092FC016092FB019093F3018093F2016D
:103950005092F5014092F4019093E4018093E301C9
:103960002AE330E03093E2012093E10177C021E0C7
:103970002093E5010097E1F4E2E0F0E0F093FA0132
:10398000E093F9017092FC016092FB01F093F30166
:10399000E093F2015092F5014092F401F093E401BA
:1039A000E093E3012AE330E03093E2012093E10168
:1039B0002091F0013091F101232B09F0A6CF26E6EA
:1039C00030E089CF21E02093E5010097E1F424E085
:1039D00030E03093FA012093F9017092FC0160927B
:1039E000FB013093F3012093F2015092F5014092D4
:1039F000F4013093E4012093E3012AE330E03093B3
:103A0000E2012093E1012091F0013091F101232B9B
:103A100009F07BCF28E630E05ECF1092E5010097F9
:103A200009F073CF22E030E03093FA012093F901DE
:103A30007092FC016092FB013093F3012093F2013C
:103A40005092F5014092F4013093E4012093E30198
:103A50008AE390E09093E2018093E1018091FD017F
:103A60009091FE01029769F48091F4019091F50123
:103A7000873391050CF018C401969093F50180935B
:103A8000F4018091FD019091FE01039769F480910A
:103A9000FB019091FC01823391050CF00EC401965C
:103AA0009093FC018093FB016091FB017091FC01FC
:103AB000E12C06E028E149E157E08091F90190917D
:103AC000FA010E94AD0E6091F4017091F50128E1B8
:103AD00041E057E08091F2019091F3010E94AD0E18
:103AE0006091E1017091E20128E149EE56E0809198
:103AF000E3019091E4010E94AD0E8091E5018823DD
:103B000009F462C08091F0019091F101019769F48C
:103B10008091EE019091EF01813291050CF0E5C3A7
:103B200001969093EF018093EE018091F0019091C6
:103B3000F101029769F48091EA019091EB018733DA
:103B400091050CF0EAC301969093EB018093EA0192
:103B50008091F0019091F101039769F48091EE0159
:103B60009091EF01823391050CF0E0C301969093A0
:103B7000EF018093EE016091EE017091EF01E12C75
:103B800006E028E149E157E08091EC019091ED01D8
:103B90000E94AD0E6091EA017091EB0128E141E0D5
:103BA00057E08091E8019091E9010E94AD0E60918B
:103BB000DD017091DE0128E149EE56E08091DF01E0
:103BC0009091E0010E94AD0E8091FB019091FC016B
:103BD0002091E501222309F4C1C3C297C1F4809169
:103BE000F4019091F501C79791F48091EE019091C5
:103BF000EF01C29761F48091EA019091EB01C797C0
:103C000031F422E030E030930B0220930A028091DD
:103C10000A0290910B02019709F0CCC920910D0185
:103C200030910E0140910B0150910C016091FF0108
:103C300070910002685F7F4F8091090190910A01A5
:103C400018E0C12ED12C08E0E02EF12C08E010E0A5
:103C500008960E94600A882361F08091E6019091A5
:103C6000E7016AE070E00E942024892B11F40E9491
:103C7000C40F209107013091080140910B01509130
:103C80000C016091050170910601685F7F4F809182
:103C9000090190910A01A8E0CA2ED12CB8E0EB2EC0
:103CA000F12C08E010E008960E94600A882361F079
:103CB0008091E6019091E7016AE070E00E94202483
:103CC000892B11F40E94C40F20910301309104014B
:103CD00040910B0150910C01609101017091020122
:103CE000685F7F4F8091090190910A01E8E0CE2E34
:103CF000D12CF8E0EF2EF12C08E010E008960E949D
:103D0000600A882361F08091E6019091E7016AE002
:103D100070E00E942024892B11F40E94C40F80912E
:103D2000FD019091FE019C8F8B8F8D7F019709F093
:103D300074C08090FB019090FC01A090F901B090BC
:103D4000FA019CE0A90EB11C20910D0130910E01E9
:103D50006091FF0170910002685F7F4F48E1C42EBF
:103D6000D12C50E1E52EF12C08E110E0A401C501B1
:103D70000E94600A882359F030920E0120920D01B2
:103D800081E08093F80189E190E00E94B00F2091DA
:103D90000701309108016091050170910601685F8B
:103DA0007F4F80E1C82ED12C90E1E92EF12C08E163
:103DB00010E0A401C5010E94600A882359F03092E6
:103DC00008012092070181E08093F70189E190E0EA
:103DD0000E94B00F20910301309104016091010114
:103DE00070910201685F7F4F10E1C12ED12C00E17C
:103DF000E02EF12C08E110E0A401C5010E94600A48
:103E0000882359F0309204012092030181E08093CD
:103E1000F60189E190E00E94B00FEB8DFC8D3297A6
:103E200009F074C08090F4019090F501A090F20127
:103E3000B090F301FCE0AF0EB11C20910D01309168
:103E40000E016091FF0170910002685F7F4FA8E151
:103E5000CA2ED12CB0E1EB2EF12C08E110E0A40128
:103E6000C5010E94600A882359F030920E01209209
:103E70000D0181E08093F80189E190E00E94B00F8C
:103E800020910701309108016091050170910601B0
:103E9000685F7F4FE0E1CE2ED12CF0E1EF2EF12CC8
:103EA00008E110E0A401C5010E94600A882359F0CE
:103EB000309208012092070181E08093F70189E1A7
:103EC00090E00E94B00F20910301309104016091B5
:103ED000010170910201685F7F4F40E1C42ED12C37
:103EE00050E1E52EF12C08E110E0A401C5010E948B
:103EF000600A882359F0309204012092030181E086
:103F00008093F60189E190E00E94B00F2091F001CA
:103F10003091F1013E8F2D8FC9018D7F019709F0FE
:103F200074C08090EE019090EF01A090EC01B090F1
:103F3000ED013CE0A30EB11C20910D0130910E016A
:103F40006091FF0170910002685F7F4F88E1C82E89
:103F5000D12C90E1E92EF12C08E110E0A401C5017B
:103F60000E94600A882359F030920E0120920D01C0
:103F700081E08093F80189E190E00E94B00F2091E8
:103F80000701309108016091050170910601685F99
:103F90007F4F10E1C12ED12C00E1E02EF12C08E181
:103FA00010E0A401C5010E94600A882359F03092F4
:103FB00008012092070181E08093F70189E190E0F8
:103FC0000E94B00F20910301309104016091010122
:103FD00070910201685F7F4FA0E1CA2ED12CB0E141
:103FE000EB2EF12C08E110E0A401C5010E94600A4B
:103FF000882359F0309204012092030181E08093DC
:10400000F60189E190E00E94B00F8D8D9E8D0297A0
:1040100009F074C08090EA019090EB01A090E80153
:10402000B090E9019CE0A90EB11C20910D013091E6
:104030000E016091FF0170910002685F7F4FE8E11F
:10404000CE2ED12CF0E1EF2EF12C08E110E0A401EE
:10405000C5010E94600A882359F030920E01209217
:104060000D0181E08093F80189E190E00E94B00F9A
:1040700020910701309108016091050170910601BE
:10408000685F7F4F40E1C42ED12C50E1E52EF12C2A
:1040900008E110E0A401C5010E94600A882359F0DC
:1040A000309208012092070181E08093F70189E1B5
:1040B00090E00E94B00F20910301309104016091C3
:1040C000010170910201685F7F4F80E1C82ED12C01
:1040D00090E1E92EF12C08E110E0A401C5010E9455
:1040E000600A882359F0309204012092030181E094
:1040F0008093F60189E190E00E94B00F80910B015E
:1041000090910C018C3FEFEF9E0709F02FC12B8D92
:104110003C8D2115310529F02530310511F00C9425
:10412000DA178091FB019091FC010997E1F420914D
:10413000090130910A018091F9019091FA01A901D8
:10414000405F5F4F4817590774F00896821793072E
:1041500054F081E090E09093FE018093FD0185E0B2
:1041600090E00E94B00F8091EE019091EF010997CD
:1041700011F00C94DA172091090130910A01809115
:10418000EC019091ED01A901405F5F4F481759077D
:1041900014F40C94DA1708968217930714F40C940D
:1041A000DA17E1E0F0E0F093F101E093F00185E04F
:1041B00090E00E94B00F0C94DA171092E50100977E
:1041C00009F0A3CBE4E6F0E0F093FA01E093F90103
:1041D0007092FC016092FB01F093F301E093F20115
:1041E0005092F5014092F401F093E401E093E30171
:1041F000B7CB21E02093E5010097E1F4E0E3F0E0A4
:10420000F093FA01E093F9017092FC016092FB01D6
:10421000F093F301E093F2012AE330E03093F501EB
:104220002093F4011092E4011092E3011092E20154
:104230001092E1012091F0013091F101232B09F05E
:1042400064CBE0E3F0E0F093ED01E093EC015092F9
:10425000EF014092EE011092E9011092E8011092F4
:10426000EB011092EA011092E0011092DF0110922E
:10427000DE011092DD0149CB0E94BB0F8091F40159
:104280009091F5018733910534F401969093F501EF
:104290008093F401E3CB0E94BB0F85E090E0909304
:1042A000FE018093FD01DACB0E94BB0F85E090E018
:1042B0009093FE018093FD01E4CB0E94BB0F80919F
:1042C000F4019091F5018733910534F401969093B0
:1042D000F5018093F401E8CB0E94BB0F85E090E0EC
:1042E0009093FE018093FD01DFCB0E94BB0F809174
:1042F000EA019091EB018733910534F40196909394
:10430000EB018093EA0111CC0E94BB0F85E090E0A5
:104310009093F1018093F00108CC0E94BB0F85E0DF
:1043200090E09093F1018093F00112CC0E94BB0FBA
:104330008091EA019091EB018733910534F4019665
:104340009093EB018093EA0116CC0E94BB0F85E0AD
:1043500090E09093F1018093F0010DCCC29709F0A9
:1043600056CC8091F4019091F50149CC449711F01D
:104370000C94DA172B8D3C8D2115310529F0253051
:10438000310511F00C94DA178091F4019091F50148
:104390008197E1F42091090130910A018091F201A5
:1043A0009091F301A901405F5F4F4817590774F0DE
:1043B00008968217930754F082E090E09093FE01F4
:1043C0008093FD0185E090E00E94B00F8091FB0199
:1043D0009091FC018197E1F42091090130910A014B
:1043E0008091F9019091FA01A901405F5F4F481750
:1043F000590774F008968217930754F0E3E0F0E051
:10440000F093FE01E093FD0185E090E00E94B00F83
:104410008091EA019091EB018197E1F420910901EB
:1044200030910A018091E8019091E901A901405F72
:104430005F4F4817590774F008968217930754F096
:1044400022E030E03093F1012093F00185E090E02C
:104450000E94B00F8091EE019091EF01819711F0D1
:104460000C94DA172091090130910A018091EC0136
:104470009091ED01A901405F5F4F4817590714F46F
:104480000C94DA1708968217930714F40C94DA1731
:1044900083E090E09093F1018093F00188CEEE24C8
:1044A000E39400E420E84DEB57E070E060E090E03A
:1044B00080E00E94AD0E64E670E080E090E00E9433
:1044C0004B0C8091080281110C94DA17809109023B
:1044D000882311F40C94DA1710930802809171006C
:1044E0008D7F8093710010932F0681E397E0909366
:1044F0002E0680932D0690932C0680932B060E9407
:10450000440D809105028111FCCF0C94DA178928A3
:1045100009F4B4C9019709F077C96091030170915A
:104520000401E12C00E120E149EA56E067C98F92DD
:104530009F92AF92BF92CF92DF92EF92FF92CF9372
:10454000DF93EC01688179818A819B816115710516
:104550008105910521F464E279ED8BE597E02DE189
:1045600033EF41E050E00E94862349015A019B014C
:10457000AC01A7EAB1E40E94A5236B017C01ACEE7B
:10458000B4EFA50194010E94B323C60ED71EE81E06
:10459000F91EF7FE06C081E0C81AD108E10880E8DC
:1045A000F80AC882D982EA82FB82C701B6019F77E6
:1045B000DF91CF91FF90EF90DF90CF90BF90AF90C1
:1045C0009F908F9008958F929F92AF92BF92CF92BB
:1045D000DF92EF92FF9260911D0170911E01809118
:1045E0001F0190912001611571058105910521F44C
:1045F00064E279ED8BE597E02DE133EF41E050E0A7
:104600000E94862349015A019B01AC01A7EAB1E44B
:104610000E94A5236B017C01ACEEB4EFA5019401CF
:104620000E94B323C60ED71EE81EF91EF7FE06C071
:1046300081E0C81AD108E10880E8F80AC0921D019B
:10464000D0921E01E0921F01F0922001C701B60135
:104650009F77FF90EF90DF90CF90BF90AF909F90AB
:104660008F90089560931D0170931E0180931F0128
:10467000909320010895BB274A3031F4992322F406
:10468000BDE2909581959F4F0C944723BB27FB017A
:104690005527AA27880F991FAA1FA41710F0A41B3B
:1046A00083955051B9F7A05DAA3308F0A95DA19395
:1046B000009779F7B111B1931192CB010C9460235B
:1046C000DC01FC01672F71917723E1F7329704C079
:1046D0007C916D9370836291AE17BF07C8F3089504
:1046E000F999FECF92BD81BDF89A992780B50895BA
:1046F000262FF999FECF1FBA92BD81BD20BD0FB6FE
:10470000F894FA9AF99A0FBE01960895052E97FB30
:104710001EF400940E949D2357FD07D00E94EF23B2
:1047200007FC03D04EF40C949D2350954095309592
:1047300021953F4F4F4F5F4F08959095809570950D
:1047400061957F4F8F4F9F4F08950E941124A59F21
:10475000900DB49F900DA49F800D911D112408957C
:10476000B7FF0C94A5230E94A523821B930B0895E9
:104770002F923F924F925F926F927F928F929F9271
:10478000AF92BF92CF92DF92EF92FF920F931F935F
:10479000CF93DF93CDB7DEB7CA1BDB0B0FB6F89410
:1047A000DEBF0FBECDBF09942A88398848885F8450
:1047B0006E847D848C849B84AA84B984C884DF80C1
:1047C000EE80FD800C811B81AA81B981CE0FD11DA5
:1047D0000FB6F894DEBF0FBECDBFED010895A1E284
:1047E0001A2EAA1BBB1BFD010DC0AA1FBB1FEE1F6B
:1047F000FF1FA217B307E407F50720F0A21BB30BB6
:10480000E40BF50B661F771F881F991F1A9469F731
:1048100060957095809590959B01AC01BD01CF018D
:104820000895A29FB001B39FC001A39F700D811D89
:104830001124911DB29F700D811D1124911D0895A9
:10484000AA1BBB1B51E107C0AA1FBB1FA617B707B6
:1048500010F0A61BB70B881F991F5A95A9F78095D2
:104860009095BC01CD010895EE0FFF1F0590F491C6
:10487000E02D09940F931F93CF93DF93823091051E
:1048800010F482E090E0E0919606F091970630E017
:1048900020E0B0E0A0E0309799F42115310509F44B
:1048A0004AC0281B390B24303105D8F58A819B81F9
:1048B0006115710589F1FB0193838283FE0111C0AB
:1048C000408151810281138148175907E0F0481750
:1048D000590799F4109761F012960C93129713965A
:1048E0001C933296CF01DF91CF911F910F910895C4
:1048F0000093960610939706F4CF2115310551F0D9
:104900004217530738F0A901DB019A01BD01DF010D
:10491000F801C1CFEF01F9CF9093970680939606E7
:10492000CDCFFE01E20FF31F819391932250310905
:1049300039832883D7CF2091940630919506232B75
:1049400041F4209123013091240130939506209366
:10495000940620912101309122012115310541F465
:104960002DB73EB74091250150912601241B350BF0
:10497000E0919406F0919506E217F307A0F42E1B40
:104980003F0B2817390778F0AC014E5F5F4F2417B3
:10499000350748F04E0F5F1F5093950640939406DD
:1049A000819391939FCFF0E0E0E09CCFCF93DF9392
:1049B0000097E9F0FC01329713821282A0919606CB
:1049C000B0919706ED0130E020E01097A1F420812E
:1049D0003181820F931F20919406309195062817FC
:1049E000390709F061C0F0939506E0939406DF91D2
:1049F000CF910895EA01CE17DF07E8F54A815B8180
:104A00009E0141155105B1F7E901FB83EA83499104
:104A10005991C40FD51FEC17FD0761F48081918176
:104A20000296840F951FE90199838883828193817F
:104A30009B838A83F0E0E0E012968D919C9113971E
:104A40000097B9F52D913C911197CD010296820FF7
:104A5000931F20919406309195062817390739F64F
:104A6000309751F51092970610929606B0939506DE
:104A7000A0939406BCCFD383C28340815181840F1D
:104A8000951FC817D90761F44E5F5F4F88819981E0
:104A9000480F591F518340838A819B81938382836E
:104AA0002115310509F0B0CFF0939706E0939606F3
:104AB0009ECFFD01DC01C0CF13821282D7CFB0E0C0
:104AC000A0E0E5E6F5E20C94BA238C01009751F4DE
:104AD000CB010E943A248C01C801CDB7DEB7E0E1DA
:104AE0000C94D623FC01E60FF71F9C0122503109DC
:104AF000E217F30708F49DC0D901CD91DC9111971D
:104B0000C617D70798F0C530D10530F3CE0104970A
:104B10008617970708F3C61BD70B2297C193D1932B
:104B20006D937C93CF010E94D624D6CF5B01AC1A43
:104B3000BD0A4C018C0E9D1EA0919606B091970661
:104B4000512C412CF12CE12C109731F580919406D9
:104B5000909195068815990509F05CC04616570690
:104B600008F058C08091210190912201009741F4F2
:104B70008DB79EB74091250150912601841B950B5E
:104B8000E817F90708F055C0F0939506E0939406EE
:104B9000F90171836083A0CF8D919C91119712963A
:104BA0006C90129713967C901397A815B90559F538
:104BB0006C0142E0C40ED11CCA14DB0420F1AC012C
:104BC0004A195B09DA011296159780F062827382A6
:104BD00051834083D9016D937C93E114F10471F00A
:104BE000D7011396FC93EE93129776CF22968C0FF3
:104BF0009D1FF90191838083F301EFCFF093970616
:104C0000E093960669CF4816590608F42C017D01F9
:104C1000D3019ACFCB010E943A247C01009749F03E
:104C2000AE01B8010E941C26C8010E94D62487014B
:104C300053CF10E000E050CFFB01DC0102C0019037
:104C40000D9241505040D8F70895FB01DC010190CE
:0C4C50000D920020E1F70895F894FFCFCA
:104C5C001040002C007000FCFF04002C000E00051E
:104C6C0000FFFFFFFF00E10000000000000100005A
:104C7C00000000980680005A00270000000F002C4E
:104C8C0000270010000F001000270070000F005AC2
:104C9C0000270070000F002200270056000F001E96
:104CAC0000270039000F005400270010000F001BD4
:104CBC0000270056000F00700027000B000F000BA0
:104CCC0000270039000F003900270066000F00662E
:104CDC0000270000C1808100000000000000E00AF5
:104CEC007E0C010BF60A470B050B230B0000000092
:104CFC001A0E030D49114811534F554E44204F4E77
:104D0C0000534F554E44204F4646005452592041B3
:064D1C004741494E000072
:00000001FF
