:100000000C94DB050C9403060C9403060C94030675
:100010000C9403060C9403060C9403060C9403063C
:100020000C9403060C9403060C9496130C9405147C
:100030000C9403060C9403060C9403060C9403061C
:100040000C9403060C9403060C9403060C9403060C
:100050000C9403060C9403060C9403060C943716B8
:100060000C9403060C9403060C9403060C940306EC
:100070000C9403060C9403060C9403060C940306DC
:100080000C9403060C9403060C9403060C940306CC
:100090000C9403060C9403060C9403060C940306BC
:1000A0000C9403060C9403060C9403061010E0E075
:1000B000F8F8FCFC3EFE0EFE07FF0FFF1FFF1FFFC0
:1000C0000FFF07FF0EFE3EFEFCFCF8F8E0E007071E
:1000D0001F1F373F647F487FD8FF08FF00FF00FFE6
:1000E00008FFF8FF787F7C7F3F3F1F1F0707101036
:1000F0000000000000FC00FC70FCF0FCF0FCE0FCE8
:10010000D0FEB8FF7CFF3CFF0000000000000000B4
:10011000000E000F0C0F0E0F0F0F0E0F050F030F29
:10012000070F0F0F0F0F0E0F000000000000000060
:10013000001F00BF0FFF1FFFBFFF7CFFF8FFF0FF96
:10014000E8FFDCFFBFFF1FFF000000000000000011
:10015000080F0C0F0E0F0F0F0F0F070F020F010FDD
:10016000030F070F0F0F0F0F00000000000000002B
:10017000018F03DF07FF8FFFDFFFBEFF7CFFF8FF6C
:10018000F4FFEEFFDEFF8DFF000000000000000026
:10019000000F000F0F0F0F0F0F0F030F010F000FB6
:1001A000010F030F0F0F0F0F0000000000000000F1
:1001B000000F001F03FF07FFEFFFF7FFFAFF7CFFB1
:1001C000BEFFDFFFEFFFC7FF0000000000000000E0
:1001D000000000000003000300030003000300030D
:1001E0000007010F030F030F0000000000000000D4
:1001F0001CFF1CFF3CFF7CFFF8FFF0FEE0FCD0FE84
:10020000B8FF7CFF3EFF1FFF000000000000000061
:100210000C0F0C0F0E0F0F0F0E0F050F030F070F14
:100220000F0F0F0F060F080F000000000000000066
:100230000FFF01FF01FF81FFC0FFE0FFF0FFF8FFAC
:100240007CFF3EFF1FFF0FFF0000000000000000CA
:100250000E0F0C0F0B0F070F070F030F010F000FEF
:10026000000F080F040F0A0F00000000000000003C
:1002700003FF07FF0FFF1FFF3EFF7CFFF8FFF0FFAC
:10028000E0FFC1FF83FF07FF000000000000000047
:100290000F0F080F080F080F000F000F000F010FBE
:1002A000030F0B0F0D0F0E0F0000000000000000E9
:1002B00083FF83FFC7FFEFFFF7FFFAFF7CFFBEFF5F
:1002C000DFFFEFFFC7FF83FF00000000000000001A
:1002D000030F030F030F030F010F000700030007B5
:1002E000010F030F070F0F0F0000000000000000B8
:1002F0001FFF3EFF7CFFF8FFF0FEE0FCD0FEB8FFE2
:100300007CFF3CFF1CFF1CFF000000000000000001
:100310000C0F0E0F0F0F0E0F050F030F070F0F0F10
:100320000F0F0E0F0C0F0C0F00000000000000005C
:1003300007FF1BFF3DFF7CFFF8FFF0FFE0FFC0FF62
:1003400081FF01FF01FF0FFF00000000000000001F
:100350000E0F0C0F080F000F000F010F030F070FF8
:100360000F0F0F0F0E0F0C0F000000000000000019
:1003700007FF83FFC1FFE0FFF0FFF8FF7CFF3EFFB8
:100380001EFF0DFF03FF07FF00000000000000003C
:100390000F0F0F0F070F030F010F000F000F000FBC
:1003A000080F080F080F0F0F0000000000000000EA
:1003B00081FFC6FFEFFFF7FFFAFF7CFFBEFFDFFF05
:1003C000EFFFC7FF83FF83FF000000000000000075
:1003D0000F0F070F030F010F000700030007010FA6
:1003E000030F030F030F030F0000000000000000C5
:1003F0003CFF7CFFF8FFF0FEE0FCD0FCB0FC70FCA2
:1004000000FC00FC000000000000000000000000F4
:100410000E0F0F0F0E0F050F030F070F0F0F0F0F0C
:100420000E0F0C0F000F000E000000000000000077
:100430001FFFBFFFDCFFE8FFF0FFF8FF7CFFBFFFFF
:100440001FFF0FFF00BF001F0000000000000000A2
:100450000B0F070F070F030F010F020F070F0F0FEF
:100460000F0F0E0F0C0F080F00000000000000001F
:100470008FFFDFFFEEFFF4FFF8FF7CFFBEFFDFFF23
:100480008FFF07FF03DF018F000000000000000066
:100490000F0F0F0F030F010F000F010F030F0F0FAF
:1004A0000F0F0F0F000F000F0000000000000000F2
:1004B000C7FFEFFFF7FFFAFF7CFFBEFFDFFFEFFF95
:1004C00007FF03FF000F000700000000000000000E
:1004D000030F030F010F00070003000300030003D5
:1004E0000003000300000000000000000000000006
:1004F000583100000000000000C000E080F0C0F8AB
:10050000E0FC70FE38FE18FE18FE0CFF0CFF0EFF1C
:1005100006FF06FF06FF06FF06FF06FF06FF46FF73
:1005200046FF86FF8EFF0CFF3CFF38FEF0FEE0FC2E
:1005300080F800F080F0C0F0C0F860F860F860F873
:1005400060F860F8C0F8C0F080F000E000C0000083
:10055000000000000000000000000000000000009B
:100560000000000000000000008000C000C000E0AB
:1005700080E080F0C0F0C0F0C0F860F860F860FC87
:1005800070FC30FC30FC30FC30FC30FC60FC60F86F
:10059000E0F8C0F8C0F080F000E000C0008000008B
:1005A0000000000000FC00FFF8FFFEFF0FFF03FF4C
:1005B000E0FFF8FFFCFF06FF02FF00FF00FF00FF67
:1005C00000FF00FF00FFF0FFF8FFF8FFF0FFE0FF83
:1005D00000FF00FF00FF03FF1CFF00FF00FF01FF03
:1005E000FFFFFEFFFFFFC1FF80FF06FF06FF00FFCA
:1005F00040FF60FFB0FFC1FFFFFF7EFF60FF60FFB5
:1006000060F8C0F8E0F860FC30FC30FC30FC30FCF6
:1006100030FC30FC30FE38FF7CFFDCFF8FFF07FF33
:1006200013FF19FF05FF04FF02FF82FFC2FFC1FF96
:1006300061FF41FF40FFC0FF80FF00FF00FF84FF1C
:10064000F8FFE0FF01FF0FFFFFFFFCFF00FF00FED0
:100650000000000000FF00FFFFFFFFFF00FF00FFA2
:100660003FFFFFFFFFFF80FF00FF00FF00FF00FFD5
:1006700000FF00FF00FF00FF01FF01FF01FF00FF7F
:1006800000FF00FF00FF00FF00FF00FF0CFF9EFFC8
:100690003FFF3BFF70FF71FFFFFF9FFF27FF73FFCF
:1006A00033FF01FF01FF01FF01FF03FF86FF1CFF76
:1006B000F0FF80FF00FF00FF18FFF0FF00FF00FFCA
:1006C00000FF01FF03FF1FFF3EFF78FF01FF07FF51
:1006D000FCFF00FF00FF00FF07FF0FFF0CFF18FFEC
:1006E00018FF38FF38FF77FFFFFFF8FFF0FF31FFFB
:1006F00031FF38FF18FF1E7F0F7F033F001F000FE1
:100700000000000000010007001F037F0FFF3CFFF7
:10071000F0FFC0FF01FF07FF0EFF18FF20FF00FFE3
:1007200000FF00FF00FF00FF08FF38FFF0FFF2FFAF
:10073000E2FF84FF18FF60FF80FF80FF00FF01FFE2
:1007400003FF06FF1EFF3CFF3CFF38FF01FF01FFD8
:1007500086FFFCFFE0FF80FFB8FF9CFFC7FFE0FFC4
:10076000BCFF87FF80FFC0FFF8FFCFFFC0FF80FF07
:100770009CFF98FF90FF90FFC8FF60FF30FF98FF3D
:100780000FFF0CFF04FF02FF02FF02FF82FF00FFCA
:1007900000FF00FF00FF80FFC0FFE1FF3FFF0FFFF2
:1007A000007F001F000000000000000000000000AB
:1007B0000000000000000000000000000001000335
:1007C000000F011F073F0E3F0C7F18FF30FF30FF67
:1007D00060FF60FF60FFE0FFC0FFC0FFC0FFC1FF20
:1007E000C3FF61FF60FF38FF3FFF0FFFC3FF43FF01
:1007F000C6FF46FF4CFF0CFF4CFFCCFF46FF46FFF9
:10080000C1FF01FFC1FFC1FF01FF41FF00FFC0FFAA
:1008100041FF41FF81FF01FF80FF40FFC0FF01FF5B
:10082000C1FF01FF01FF1FFF7FFF70FFE7FFCFFF49
:10083000CFFFC6FFE6FF62FF71FF39FF1CFF0C7F91
:10084000063F061F031F010F0107000700030001F9
:100850000000000000000000000000000000000098
:100860000000000000000000000000000000000088
:100870000000000000000000000000000000000177
:100880000001000100030003000300030003000354
:100890000003000300030001000100030007000F34
:1008A00003FF00FFFBFF5BFF78FF03FF79FFC3FF40
:1008B000F9FF00FFCBFFABFF98FF03FFC8FFABFFC3
:1008C0009AFF02FFF9FFC0FF03FFF9FFABFF88FFAC
:1008D00003FF02FF030F000F0007000300030003E4
:1008E00000030003000300030001000100000000FA
:1008F00000000000000000000000000000000000F8
:1009000000000000000000000000000000000000E7
:1009100000000000000000000000000000000000D7
:1009200000000000000000000000000000000000C7
:1009300000000000000000000000000000000000B7
:1009400000000000000000000000000000000000A7
:10095000000100010001000100010001000100018F
:10096000000100010001000100010001000100017F
:10097000000100010001000100010001000100016F
:100980000001000100000000000000000000000065
:100990000000000000000000000000000000000057
:1009A0000000000000000000000000000000000047
:1009B0000000000000000000000000000000000037
:1009C000000000B00000A170E150964F26900F1D6E
:1009D000070C009669004AE44A00484440008068D9
:1009E00010000F99FB8F9DBDBBFB77D4D4DF1F1A7E
:1009F0001AFE7F5D5DFF805A0000A0A4AA0010BA15
:100A00003400FF5953F3FF9B9B9EFFB9B996FF95A6
:100A100095D19FF4940FFC295F91FF1838F8FF924D
:100A200094FFFF95D5F7BFB5DDD7F18F81F1F7883A
:100A3000C8F779C6467909FD9B090196F8008281BD
:100A40008280507162007756560076763700A2B7E2
:100A500073010772060078275000733474007751D1
:100A600076007F55F70047711000324772007364BB
:100A7000730015A2750061679400009F6060F4F236
:100A8000F6F2D5F08D14A1C881CFD9F1AF2000586E
:100A900010F0F89C8E8783878E9CF8F00000FEFF94
:100AA0000303030303070EFCF80000FEFF03030328
:100AB0000303070EFCF80000FFFF00000000000029
:100AC00000FFFF0000FEFF8383838383C7EE7C3833
:100AD0000000F8FC0E07030303070EFCF800003FBC
:100AE0007FE0C08080C0E07F3FFFFF010101010186
:100AF0000101FFFF0000FFFF0C0C0C0C1C3E77E314
:100B0000C100007FFFC0C0C0C0C0E0703F1F000038
:100B10001F3F70E0C0C0C0E0703F1F00007FFFC1FA
:100B2000C1C1C1C1E3773E1C00001F3F70E0C0C0DF
:100B3000C0E0703F1F000000000001FFFF01000047
:100B400000080B000202020000090400000102027A
:100B500000000524001001052401010104240206FF
:100B60000524060001070581031000400904010067
:100B7000020A000000070502024000000705830288
:100B80004000000403090412010002EF0201404189
:100B900023378000010102030141726475696E6FA1
:100BA000204C4C430041726475696E6F204D69633F
:100BB000726F00009B1611241FBECFEFDAE0DEBF7C
:100BC000CDBF12E0A0E0B1E0E8EAFCE302C005908E
:100BD0000D92AC36B107D9F728E0ACE6B2E001C01F
:100BE0001D92AD32B207E1F715E0CBEDD5E004C0C0
:100BF0002197FE010E94221DCA3DD107C9F70E941C
:100C000092180C94521E0C940000089508950895B3
:100C1000089508950895089580E0E4E1F4E08111D5
:100C20008FEF002481938193819381930394D1F773
:100C300008959C01480F592F511D4115510561F12F
:100C4000803891054CF54138510514F040E850E0EA
:100C5000421BCB018770992791E001C0990F8A95BB
:100C6000EAF777FF02C0695F7F4FFB0183E0F595EC
:100C7000E7958A95E1F7F695FE2FEE27F795E7952C
:100C8000E20FF31FEC5EFB4F415030F08191DF012A
:100C90001197892B8C93F8CF0895E4E1F4E0A0E05C
:100CA000B8E000800EBC8111012C1197A0FDFDCF92
:100CB0000192B9F70DB40895FC0180919402882344
:100CC00011F13FB7F89482E08093E9002091F2009F
:100CD000822F90E01816190614F481E090E0882322
:100CE00039F0289A44E6409393024091F100408302
:100CF000222339F02091F200211103C02BE620932A
:100D0000E8003FBF08958FEF9FEF08952FB7F89445
:100D100083E08093E9009091E800892F807295FF2D
:100D200004C09091F20080E4891B2FBF0895809148
:100D30008B0281110DC082E08093870284E0809352
:100D4000880210928A021092890281E080938B02BD
:100D500087E892E00895CF93DF931F92CDB7DEB777
:100D60006983DC01ED91FC910280F381E02D41E08B
:100D700050E0BE016F5F7F4F09950F90DF91CF91DB
:100D8000089583E08093E9008091F200882319F0B0
:100D90008AE38093E80008950E94860690E0089513
:100DA000CF93DF931F92CDB7DEB7FC018485958585
:100DB00097FD08C02FEF3FEF358724870F90DF9115
:100DC000CF910895CE0101960E945C06019719F417
:100DD000898190E0F3CF8FEF9FEFF0CF0F931F93B8
:100DE000CF93DF931F92CDB7DEB78C01FC018485D2
:100DF000958597FF0BC0CE0101960E945C06019776
:100E000071F4898190E0F80195878487F8018485E1
:100E100095850F90DF91CF911F910F9108958FEFDE
:100E20009FEFF1CFFC018485958597FD0BC09FB79F
:100E3000F89482E08093E9008091F2009FBF90E0F7
:100E4000019608959FB7F89482E08093E90080911D
:100E5000F2009FBF90E0089540918102509182027C
:100E600020917F023091800242175307B4F4909191
:100E7000E8009570E1F39091E80092FD19C080932D
:100E8000F100809181029091820201968F739927DF
:100E9000892B19F48EEF8093E80080918102909164
:100EA00082020196909382028093810281E00895EC
:100EB00080E00895DF92EF92FF920F931F93CF93FC
:100EC000DF93D82E8A01EB017B01E40EF51ECE15CF
:100ED000DF0559F0D7FE12C0FE0184910E942C0755
:100EE00021968111F4CF0FEF1FEFC801DF91CF9151
:100EF0001F910F91FF90EF90DF9008958881EECFC2
:100F00000F931F93CF93DF931F92CDB7DEB782E08D
:100F1000898342E450E061E47BE080E80E945A0764
:100F20000E949706DC0112960D911C910115110586
:100F300089F0D801ED91FC910280F381E02DBE0192
:100F40006F5F7F4FC801099597FD04C0F8010085C8
:100F50001185ECCF89810F90DF91CF911F910F9177
:100F60000895615030F02091F100FC01208301963A
:100F7000F8CF289A84E68093930208953FB7F894B7
:100F800080917B0290917C02A0917D02B0917E02C3
:100F900026B5A89B05C02F3F19F00196A11DB11DD4
:100FA0003FBFBA2FA92F982F8827BC01CD01620F10
:100FB000711D811D911D42E0660F771F881F991FCB
:100FC0004A95D1F708958F929F92AF92BF92CF9298
:100FD000DF92EF92FF926B017C010E94BE074B01F2
:100FE0005C01C114D104E104F104B9F00E94BE0710
:100FF000681979098A099B09683E73408105910542
:1010000080F321E0C21AD108E108F10888EE880EC9
:1010100083E0981EA11CB11CE4CFFF90EF90DF90FD
:10102000CF90BF90AF909F908F9008958F929F9296
:10103000AF92BF92CF92DF92EF92FF920F931F93E6
:10104000CF93DF936C017B018A0180910E0188238D
:1010500009F45CC080919402882309F457C0809100
:10106000860280FF05C08091E00082608093E000EE
:10107000E801B12C8AEFA82E93E0892E2AE3922E64
:10108000209711F4BB20D9F10E94860681110AC075
:10109000AA94AA20D9F161E070E080E090E00E947B
:1010A000E307EECF8C171D0611F00CF08C2F9FB7C5
:1010B000F8948092E9002091E80025FD02C09FBFCE
:1010C000DFCF282F30E0C21BD30BF701815020F077
:1010D00041914093F100FACFE20EF31EBB2021F0C4
:1010E0009092E800B12CEBCF8091E80085FDE7CF2E
:1010F0009092E800BB24B394209709F3F3CF5D9A54
:1011000084E680938502101611063CF081E090E0A1
:10111000F6019383828310E000E0C801DF91CF9154
:101120001F910F91FF90EF90DF90CF90BF90AF9005
:101130009F908F900895AF92BF92CF92DF92EF92DF
:10114000FF920F931F93CF93DF936C017B018B0171
:10115000040F151FEB015E01AE18BF08C017D107C1
:1011600059F06991D601ED91FC910190F081E02D4B
:10117000C6010995892B79F7C501DF91CF911F91A0
:101180000F91FF90EF90DF90CF90BF90AF900895B8
:101190006F927F928F929F92AF92BF92CF92DF9287
:1011A000EF92FF920F931F93CF93DF934C017B013C
:1011B000C22F102F98E0A92EB12C642E669466944D
:1011C0006694712CCA0187709927892B79F5D4010F
:1011D00017962D913C91C7019927B9010E94FA1CDD
:1011E000269DF001279DF00D369DF00D11248E0FE8
:1011F0009F1FD4011596ED91FC91E80FF91F2081F6
:10120000111112C0C095C223C083DF91CF911F91ED
:101210000F91FF90EF90DF90CF90BF90AF909F9095
:101220008F907F906F900895C22BEECFD0E04770E3
:10123000C42ED12C83E0660C771C8A95E1F79E01C1
:1012400001C0220F4A95EAF7012FA301B701C4019B
:101250000E94C808A301485F5F4FC5018C199D0912
:1012600002C0D595C7958A95E2F7A7CF5F926F9296
:101270007F928F929F92AF92BF92CF92DF92EF9226
:10128000FF920F931F93CF93DF936C015A01790163
:101290004D3F8FEF58070CF45AC0F60187819085B7
:1012A000481759070CF053C02D3FFFEF3F070CF4D0
:1012B0004EC0F60181859285281739070CF047C08A
:1012C000603208F46FE7C0EEC60F8FE9860F8A31EF
:1012D00018F4FFEFEF1AFF0ACC3011F0CB3119F4FC
:1012E0008FEFE81AF80AC695E4E0CE9FE0011124DA
:1012F000CE53D64F912C812C6170562EFE01E80DF5
:10130000F91D1491511033C01F703501680C791C00
:10131000F6018481882361F001E081899289892B1B
:1013200009F000E02FE0A701B301C6010E94C80840
:10133000F6010189212FA701B301C6010E94C80847
:10134000FFEF8F1A9F0A84E088169104B9F6DF91A7
:10135000CF911F910F91FF90EF90DF90CF90BF90B2
:10136000AF909F908F907F906F905F9008951295AF
:10137000CBCFCF93DF93EC016A3089F48D859E85C6
:101380009C878B878C892F853889820F932F911D9D
:10139000988B8F8781E090E0DF91CF9108954B8506
:1013A0005C85693029F4475F5F4F5C874B87F2CFDC
:1013B0002F8538890E9436098B8990E004962B8509
:1013C0003C85820F931F9C878B87E4CF4F925F925F
:1013D0006F927F928F929F92AF92BF92CF92DF9245
:1013E000EF92FF920F931F93CF93DF93DC0149019C
:1013F000FC2DC02FD0E06E01C80ED91EC114D1043F
:1014000009F462C0803891050CF05EC0CB018E0DEE
:10141000911D181619060CF057C0603471050CF0B8
:1014200053C04115510509F44FC0262F2770F22EE5
:10143000CB0177FD079633E0959587953A95E1F7CF
:10144000382F77FF04C0FF2011F03FEF380F902FA7
:1014500020E8C216D10414F090E89A1BC32E032E84
:10146000000CDD08EC2DE0953F3F0CF0E0E021E0C2
:101470008E2D877009F420E0E694E694E694E20E5F
:10148000CE0CD11C89E0C816D1041CF028E0E22E55
:10149000E31AEE1A3E0F20E83203B0011124A60F22
:1014A000B71F0E9F80011124400F511FAF2C0F2C2E
:1014B000000CBB08F33009F414C1B8F4F13009F49E
:1014C000CAC0F23009F478C0DF91CF911F910F911B
:1014D000FF90EF90DF90CF90BF90AF909F908F9054
:1014E0007F906F905F904F900895FA3FA9F1232F5E
:1014F0002E0DFB3F49F7321739F3BD016C5E7B4F70
:1015000010E000E0091708F0A0C0FA01E00FF11F99
:10151000E491F0E04F010A2C02C0880C991C0A9457
:10152000E2F737FD06C0FB018081E82CE0948E21B4
:101530008083FF2061F0373054F46B01F0E8CF0E68
:10154000D11CE92CE094F60180818E2180830F5F0D
:101550001F4F6F5F7F4FD6CF232F2E0D321709F409
:10156000B3CFBD016C5E7B4F10E000E0091708F0BF
:1015700066C0FA01E00FF11FE491F0E04F010A2C80
:1015800002C0880C991C0A94E2F737FD04C0FB01E5
:10159000808188298083FF2051F0373044F46B012B
:1015A000F0E8CF0ED11CF6018081892980830F5F7E
:1015B0001F4F6F5F7F4FDACF6FEF70E00F2C02C0CD
:1015C000660F771F0A94E2F760957095772E232FA8
:1015D0002E0D321709F478CF8D010C5E1B4FD12CE4
:1015E000C12CC91630F5FA01EC0DFD1DE491F0E0B7
:1015F0002F010A2C02C0440C551C0A94E2F737FD57
:1016000005C0F8018081862384298083FF2059F05A
:1016100037304CF44801F0E88F0E911CF4018081C2
:10162000872185298083FFEFCF1ADF0A0F5F1F4FC5
:10163000D8CF3F5F4C0F5D1FA058BF4FCACF3F5F51
:101640004C0F5D1FA058BF4F89CF3F5F4C0F5D1FF0
:10165000A058BF4F50CF080D191D232F2E0D321744
:1016600009F432CFBD016C5E7B4FD12CC12CC91661
:1016700080F5F801EC0DFD1D8490912C0A2C02C020
:10168000880C991C0A94E2F780949094FA01EC0D6E
:10169000FD1D6490712C0A2C02C0660C771C0A9404
:1016A000E2F737FD05C0FB01808188218629808310
:1016B000FF2049F037303CF4FB01E058FF4F8081B8
:1016C000892187298083FFEFCF1ADF0A6F5F7F4F61
:1016D000CECF3F5F4C0F5D1F0C0F1D1FA058BF4F9B
:1016E000BECFC92ED12CFA01E00FF11FAC5EBB4F6B
:1016F00060E870E06C197D09CC19DD098E01000FDE
:10170000111F41E050E06A010F2C01C0CC0C0A947B
:10171000EAF7592F2E2D792ECF93DF93ED01EF9617
:10172000EF9622968590A590FF2059F08C9C400161
:10173000AC9C500137302CF4E880B094EB20E928C1
:10174000E99233233AF0EC90A094EA20E828ED9255
:101750000C94AB0B11965A9529F72A9551F0572DF9
:1017600033951124E00FF11DA60FB11DC60FD11D39
:10177000D9CFDF91CF911124A7CECF92EF920F93C3
:101780004115510569F1FA0104913196E4904E5FDB
:101790005F4F2223F9F0A1E0B0E03E2D377011F445
:1017A000B0E0A0E0EE2DE695E695E695EA0FFB2F7A
:1017B000F11D0E9FD0010F9FB00D112430E0220FBC
:1017C000331FA29FF001A39FF00DB29FF00D1124D3
:1017D0004E0F5F1F23E0C22E30E020E00E94E6099A
:1017E0000F91EF90CF9008952D9A0895BC0190E04D
:1017F00080E00C94E3078FB18095807F669B8860C2
:101800001C9B846008958EBD00000DB407FEFDCFC3
:10181000089590917402982329F490917502982369
:1018200081E009F480E0089580389105B8F46034CF
:101830007105A0F420E191E061FD94E060FD990F55
:1018400062FD9295687F269FD0011124A80FAC5E9F
:10185000BB4F8C9140FF03C0892B8C9308959095CA
:101860008923FBCFDF92EF92FF920F931F93CF93C9
:10187000DF937C01EB01D22E8B01040F111DC801F7
:101880000134110514F080E490E0C817D9073CF446
:101890004D2DBE01C7010E94140C2196F0CFDF919F
:1018A000CF911F910F91FF90EF90DF900895EF92ED
:1018B000FF920F931F93CF93DF937C018B01C42F73
:1018C000D22F6034710514F40E941906B8016D0F0F
:1018D000711D615071096034710520F44C2FC701EE
:1018E0000E94190621E04D2FB801C7010E94320C59
:1018F000C7018C0F911D21E04D2FB8010197DF9199
:10190000CF911F910F91FF90EF900C94320CCF92DA
:10191000DF92EF92FF920F931F93CF93DF936B01B0
:10192000122FEC017C01E40EF11CCE15DF0544F40E
:10193000202F412FB601CE010E94320C2196F5CF07
:10194000DF91CF911F910F91FF90EF90DF90CF909B
:101950000895089590E080E00895FC0185811816AF
:101960001CF49185981744F48285882319F08681A8
:10197000811102C0CF01089587819085089508954F
:10198000CF93DF93EC018A85811108C088E00E9423
:10199000090C811103C084E00E94090C8A878985A3
:1019A0008F5F8987DF91CF910895FC0111861286A0
:1019B0000895FC0181E020899185291708F480E0D1
:1019C0000895CF92DF92EF92FF920F931F93CF93E0
:1019D000DF93EC01288930E080E890E0B9010E94B3
:1019E000FA1CD62E898590E0B9016F5F7F4F0E9467
:1019F000FA1C182FC82EE881F9810088F189E02DA2
:101A0000CE010995F12E811102C0F888F11AE12C5E
:101A1000ED1428F51889E19E102D1124E881F98133
:101A20000088F189E02D8D859E85019781F4CE0196
:101A30000995811101C01C0D0F8520E44F2D70E028
:101A400060E0812F90E00E94870CE394E1CFCE010B
:101A50000995882389F388898C19180FEDCFDF91B8
:101A6000CF911F910F91FF90EF90DF90CF9008954D
:101A7000FC014185208930E02F5F3F4F220F331F4B
:101A800081E0421713060CF480E00895CF93DF93B2
:101A9000EC01E881F9810684F785E02D099588231A
:101AA00029F08E819F81DF91CF910895CE01FBCFE8
:101AB000CF93DF93EC01E881F9810088F189E02D73
:101AC00009958823A1F08C819D81009739F0DC0174
:101AD000ED91FC910480F581E02D0995E881F98173
:101AE0000288F389E02DCE01DF91CF9109948E8198
:101AF0009F81EBCFCF93DF93EC01E881F9810088E0
:101B0000F189E02D0995882301F18C819D81009751
:101B100039F0DC01ED91FC910280F381E02D099513
:101B20006B812A85662349F0822F90E070E06F5F19
:101B30007F4F0E94FA1C892B19F489858F5F898752
:101B40002F5F2A87DF91CF9108958E819F81DFCF0C
:101B5000FC0111861286868197812085211102C0A1
:101B6000009739F0DC01ED91FC910190F081E02DBE
:101B700009940895FC0182810895FC01DC011B9603
:101B800080E09D91981306C08F5F8031D1F78185E9
:101B900092850895CF010895F901E35EFE4FA0817B
:101BA000275E3E4FF9017081E62FE370EE0FEE0FD6
:101BB000242F2370E20FE80FF92FF11D308125E06B
:101BC000215081F06A0F470FE62FE370EE0FEE0F02
:101BD000542F5370E50FE80FF92FF11D508130831A
:101BE000352FEECF0895EF92FF920F931F93CF936F
:101BF000DF93EC017C0180E6E80EF11C1A8100E025
:101C0000202F30E08C81082E000C990B97FF03C029
:101C1000919581959109281739079CF46B81062EBF
:101C2000000C770B41E0812F012E000C990B0E94D4
:101C3000140C8C8118161CF411500F5FE1CF1F5F3C
:101C4000FCCF2396CE15DF05C9F6DF91CF911F910A
:101C50000F91FF90EF9008954F925F926F927F9255
:101C60008F929F92AF92BF92CF92DF92EF92FF92AC
:101C70001F93CF93DF9300D000D000D0CDB7DEB755
:101C8000FC019C01255F3F4F3E832D83D90110E06D
:101C90001D931F5F1031E1F7158E168E178E10A25F
:101CA00011A212A2148E138E8091E5029091E60289
:101CB000A091E702B091E80283A394A3A5A3B6A3E1
:101CC00083E0482E512C612C712C92E0C92ED12C2E
:101CD000E12CF12C0E94291CA30192010E94971C67
:101CE0009B01AC012F5F3F4F4F4F5F4F29833A83DA
:101CF0004B835C830E94291CA30192010E94971CC4
:101D00004B015C013FEF831A930AA30AB30A0E94B6
:101D1000291CA70196010E94971C23E030E0672B45
:101D2000682B692B11F021E030E0482D69818D810D
:101D30009E810E94CC0D1150ED81FE8180E0111139
:101D4000C9CF9191981304C08F5F8031D1F7C2CF72
:101D500026960FB6F894DEBF0FBECDBFDF91CF91B0
:101D60001F91FF90EF90DF90CF90BF90AF909F902A
:101D70008F907F906F905F904F9008958F929F9279
:101D8000AF92BF92EF92FF920F931F93CF93DF9387
:101D9000EC018C01005A1F4F80E4882E912CA12C5D
:101DA000B12C90E8E92EF12C8A8187FF07C00E94B0
:101DB000291CA50194010E94971C6B838A81082E1F
:101DC000000C990BB7010E94FA1C9C81890F8A8331
:101DD00023960C171D0741F7DF91CF911F910F91AB
:101DE000FF90EF90BF90AF909F908F900895CF930A
:101DF000DF93EC010E94C00C8D859E850E94BE0E73
:101E00008E898F5F8E8BDF91CF910895CF93DF9373
:101E1000EC010E94C00C8D859E850E94BE0E8E89AD
:101E20008F5F8E8BDF91CF910895CF93DF93EC017D
:101E30000E94C00C8E898F5F8E8B8D859E85DF9171
:101E4000CF910C94BE0E6115710579F0FB010190E4
:101E50000020E9F73197AF01461B570BDC01ED91EC
:101E6000FC910280F381E02D099490E080E00895D8
:101E70004F925F926F927F92AF92BF92CF92DF921A
:101E8000EF92FF920F931F93CF93DF93EC01280102
:101E90003901C42ED12CE62EF12C411451046104D9
:101EA000710461F0C901B80120E13EE040E050E07A
:101EB0000E94C91C590124363105CCF0FE86ED86FE
:101EC000FC86EB86D88ACF866AEC71E0CE01DF9182
:101ED000CF911F910F91FF90EF90DF90CF90BF9027
:101EE000AF907F906F905F904F900C94230FC30141
:101EF000B8012CE3422E512C612C712CA3019201CC
:101F00000E94C91CCA01B901A30192010E94C91C07
:101F10003B01C50164E670E00E94FA1C0AE010E093
:101F2000B8010E94FA1CB82E605D9601A701CE018F
:101F30000E943609A7014B5F5F4F60E36B0D96016E
:101F4000CE010E943609A701465F5F4F96016AE302
:101F5000CE010E943609F7013F96C301B8010E94E5
:101F6000FA1C182F605D9601AF01CE010E94360960
:101F7000A7014C5E5F4F60E3610F9601CE01DF91D8
:101F8000CF911F910F91FF90EF90DF90CF90BF9076
:101F9000AF907F906F905F904F900C9436098F9226
:101FA0009F92AF92BF92CF92DF92EF92FF920F93E8
:101FB0001F93CF93DF93EC010E940C068F819885CD
:101FC0000E94F30D00E020E440E470E060E080E275
:101FD00090E00E94870C28E348E364E070E084E22C
:101FE00090E00E94570C24E344E366E070E086E250
:101FF00090E00E94570CED8C1CE0E19E802D112496
:10200000885DEE8CE19E102D1124185F2B8D3C8D88
:102010002115310509F427C12130310501F5E82EDC
:10202000F12C23E04CE070E060E0C7010E94570C07
:1020300023E04CE06DE370E0C7010E94570CE12EF5
:10204000F12C2CE043E0B70180E290E00E94570CB5
:102050002CE043E0B7018DE590E00E94570C7E0133
:102060008BE0E80EF11C68E2D62E7CE0B72E8701EB
:1020700058E0C52EF80121918F018B8D9C8D029720
:1020800009F013C1822F869586958B9D802D112492
:10209000885D622F63706B9D602D1124685F70E016
:1020A0004EEE50E090E00E94BD0BFCE0CF0E88E3C6
:1020B000C812E0CFDF0EE4E0EE0EF11CF8E5DF120F
:1020C000D6CFED81FE81CC24C394D12CD28AC18A93
:1020D000ED81FE8102E610E01687058714870387ED
:1020E0009CE2A92EB12CB08AA78660ED71E08D81AB
:1020F0009E810E94230FED81FE8126E6822E912C87
:102100009686858694868386B08AA78666E072E086
:102110008D819E810E94230FED81FE8139E6E32EA1
:10212000F12CF686E586F486E386B08AA78662ED12
:1021300071E08D819E810E94230FED81FE811687C3
:1021400005871487038704E310E0108B078767ED8A
:1021500071E08D819E810E94230FED81FE81968624
:10216000858694868386108B078766E072E08D8172
:102170009E810E94230FED81FE81F686E586F4861E
:10218000E386108B078769ED71E08D819E810E9447
:10219000230FED81FE81D28AC18AED81FE8148E064
:1021A000E42EF12CF686E586F486E386B08AA786CF
:1021B0006EED71E08D819E810E94230FED81FE8185
:1021C000F686E586F486E386108B078763EE71E07A
:1021D0008D819E810E94230FED81FE81D28AC18A6A
:1021E000ED81FE8185E690E09687858794878387D9
:1021F000F08AE78668EE71E08D819E810E94230F50
:102200000F8D18A129A13AA140E163E68D819E813D
:102210000E94380FED81FE81D28AC18AED81FE8154
:10222000F686E586F486E386F08AE7866DEE71E051
:102230008D819E810E94230F0BA11CA12DA13EA187
:1022400040E166E08D819E810E94380FDF91CF9141
:102250001F910F91FF90EF90DF90CF90BF90AF90C4
:102260009F908F900895E82EF12C01E023E04CE040
:1022700070E060E0C7010E94870C23E04CE06DE352
:1022800070E0C7010E94870CE12EF12C2CE043E0A6
:10229000B70180E290E00E94870C2CE043E0B70198
:1022A0008DE590E00E94870CDACE6C2D8D2DF7CE57
:1022B000FC0187818F738033E8F4A081B18186812E
:1022C00090E052969C938E935197238130E08281C7
:1022D00090E01E969C938E931D971C969C938E93D4
:1022E0001B9750963C932E931F9764817581CD0167
:1022F0000C94230F0895CF93DF93EC010E940C06FA
:102300008D859E850E94F30D20E040EF54E064E04F
:1023100070E084E190E00E94BD0BCE010F96DF914A
:10232000CF910C9458110F931F93CF93DF93EC012F
:102330000E940C068D859E850E94F30D01E026E02B
:1023400040E56EE070E08BE190E00E94870CEB8549
:10235000FC858CE190E096878587948783878FE062
:1023600090E0908B8787128A118A68E072E0CF0133
:102370000E94230F26E042E36DE170E08BE290E0E3
:102380000E94870CEB85FC858CE290E09687858720
:10239000948783878EE190E0908B87874091E50258
:1023A0005091E6026091E7027091E80280916C0220
:1023B00090916D02A0916E02B0916F02481759077B
:1023C0006A077B0721F16DEF71E0CF010E94230FB7
:1023D00001E026E04AE165E270E085E390E00E94DA
:1023E000870C00916C0210916D0220916E02309169
:1023F0006F0246E266E38B859C850E94380FCE0112
:102400000F96DF91CF911F910F910C94581162EFAD
:1024100071E0DBCFCF92DF92EF92FF920F931F9389
:10242000CF93DF936C010E940C06F601858596859B
:102430000E94F30DC8E2D0E0F12CEF2C08E010E090
:102440002E2D4EEE50E0B801CE010E94BD0B045F70
:102450001F4FE3940833110599F7F4E0FF0E2C9613
:10246000C835D10551F7C6010F96DF91CF911F9165
:102470000F91FF90EF90DF90CF900C9458110F9335
:102480001F93CF93DF938C010E940C0620E04CEA4F
:1024900050E068E170E08CE090E00E94BD0BD80154
:1024A0001B96ED91FC9181E090E0928B818BC0E2D4
:1024B000D0E0D687C587D487C3878AE190E0908B28
:1024C000878769E172E0CF010E94230FD8011B9634
:1024D000ED91FC91D687C587D487C38782E290E0CF
:1024E000908B878767E272E0CF01DF91CF911F91D8
:1024F0000F910C94230F9F92AF92BF92CF92DF92D5
:10250000EF92FF920F931F93CF93DF9300D000D0F1
:10251000CDB7DEB78C01FC01878190850E94BE0E8D
:10252000F801838D948D9801255F3F4F79018130AB
:10253000910509F4B2C008F46FC0029709F4DDC038
:10254000F801878D90A1A1A1B2A18F3FFFEF9F0756
:10255000AF07BF0741F00196A11DB11DF801878F9C
:1025600090A3A1A3B2A3F70180E09191981344C076
:102570008F5F8031D1F7F801C78CD0A0E1A0F2A025
:102580008091E5029091E602A091E702B091E80205
:102590000097A105B10529F0C816D906EA06FB0681
:1025A00018F5C092E502D092E602E092E702F092BE
:1025B000E802C982DA82EB82FC829E012F5F3F4FE4
:1025C00059010AE310E0F50191905F01C8010E94F2
:1025D000811C981621F0692DC8010E94891C0F5F8B
:1025E0001F4F0E33110579F7C0926C02D0926D0225
:1025F000E0926E02F0926F020F900F900F900F908A
:10260000DF91CF911F910F91FF90EF90DF90CF90CE
:10261000BF90AF909F90089588E00E94090C882396
:1026200031F081E090E0F801948F838F89CF84E0CE
:102630000E94090C882319F082E090E0F4CF80E238
:102640000E94090C8823A1F0F801858D90E0039683
:1026500083709927858F80E80E94090C882391F068
:10266000F801868D90E0039683709927868F68CF56
:1026700080E40E94090C882371F3F801858D90E0B5
:102680000196E6CF80E10E94090C882309F458CF17
:10269000F801868D90E00196E7CF8091740283FF68
:1026A00008C08091750283FD04C0F801148E138E5A
:1026B00047CF80E20E94090C30E020E0811116C073
:1026C00080E40E94090C21E030E081110FC080E815
:1026D0000E94090C22E030E0811108C080E10E94D4
:1026E000090C882309F42CCF23E030E0F801468D53
:1026F000658DC7010E94CC0D23CF8091740282FFAB
:102700001FCF8091750282FD1BCFCFCF0E944D1E3F
:102710000C94C41D0C94C41D0C94C41D0C94C41DB5
:102720000C94C41D0C94C41D0C94C41D1F920F92D4
:102730000FB60F9211248F939F938091E100909197
:10274000E100937F9093E10083FF0FC01092E900B6
:1027500091E09093EB001092EC0092E39093ED00E7
:102760001092940298E09093F00082FF22C093E0D0
:102770009093E9009091F200992319F09AE39093D5
:10278000E80090918502992341F090918502915043
:1027900090938502911101C05D98909193029923C5
:1027A00041F090919302915090939302911101C046
:1027B000289884FF18C08091E2008E7E816080930B
:1027C000E2008091E1008F7E8093E100809186029B
:1027D0008E7E8061809386029F918F910F900FBEB5
:1027E0000F901F90189580FFF7CF8091E2008E7EAA
:1027F00080618093E2008091E1008E7E8093E10011
:10280000809186028E7E8160E5CF1F920F920FB677
:102810000F921124CF92DF92EF92FF920F931F93AA
:102820002F933F934F935F936F937F938F939F93D8
:10283000AF93BF93EF93FF93CF93DF93CDB7DEB703
:102840006C97DEBFCDBF1092E9008091E80083FF56
:1028500025C068E0CE0145960E94B10782EF8093C3
:10286000E8008D8987FF39C09091E80090FFFCCF88
:10287000982F907609F034C19E894F89588D2F8901
:10288000F88C911131C0803861F580918402809379
:10289000F1001092F1008EEF8093E8006C960FB675
:1028A000F894DEBF0FBECDBFDF91CF91FF91EF91C6
:1028B000BF91AF919F918F917F916F915F914F9158
:1028C0003F912F911F910F91FF90EF90DF90CF904C
:1028D0000F900FBE0F901F9018959EEF9093E800F9
:1028E000C7CF1092F100D5CF913059F48111D3CFD9
:1028F0004130510581F6809184028D7F809384025E
:10290000CACF933049F48111C6CF4130510519F631
:10291000809184028260F2CF953041F48091E8008A
:1029200080FFFCCF20682093E300B5CF963009F0FC
:10293000A9C00B8D1C8D22E01092E900109282023A
:1029400010928102F2122EC01092800210927F0229
:102950000E9480071F8299E09983FA8291E09E830A
:1029600090EA98879AEF99872091810230918202AC
:10297000275F3F4F3C832B838D831092E900109299
:102980008202109281021093800200937F0249E03C
:1029900050E0BE016F5F7F4F80E00E945A070E94A7
:1029A000800779CF1093800200937F020E949706E0
:1029B000DC0112960D911C910115110509F451C10C
:1029C000D801ED91FC910480F581E02DBE016B5E94
:1029D0007F4FC8010995009709F03EC1F8010085B5
:1029E0001185EACFF3E0FF120EC08F89882309F426
:1029F00040C0823061F440E86DE085EA9BE00E94CF
:102A0000AA1B811148CF81E28093EB0047CF813030
:102A100029F440E86BE089E99BE0F1CF833099F736
:102A20000E949706DC011296ED90FC908E010F5FDC
:102A30001F4F6801E114F10479F0D701ED91FC9189
:102A40000680F781E02DB801C7010995080F111D17
:102A5000F701E084F184EECFD8011C92F6010190D9
:102A60000020E9F73197BF016C197D0940E0C601EC
:102A7000C6CF63E87BE0FB01449150E080E80E9410
:102A80005A0709CF973009F4BECF983021F481E07E
:102A90008093F10000CF993009F0FDCE837009F0EA
:102AA000B2CFE2E2F1E081E031E096E3219122232E
:102AB00071F08093E9003093EB00DF0111972C91C6
:102AC0002093EC009093ED008F5F873079F78EE7CD
:102AD0008093EA001092EA008F8980939402DBCE03
:102AE0008B8D9C8D1092E9001092820210928102CF
:102AF0009093800280937F02898D811192C08E898C
:102B00009D89913A49F4813209F07DCF47E050E048
:102B100067E071E080E0B3CF913209F074CF833287
:102B200069F48F89988DB0E0A0E0809303019093C1
:102B30000401A0930501B0930601ADCE803269F483
:102B40008091E80082FFFCCF67E087E091E00E947F
:102B5000B1078BEF8093E8009ECE823209F09BCEC6
:102B60008F8980930E01EEEFFFE7859194918B3F63
:102B70009C4D51F1E0E0F8E080910701909108014F
:102B8000A0910901B0910A01803B9440A105B105D3
:102B9000F1F480910E0180FD1AC0EE3F8AE0F80743
:102BA00089F587E797E79183808380916000809320
:102BB000830288E19BE00FB6F894A89580936000AB
:102BC0000FBE9093600067CEEEEFFAE0D5CF808124
:102BD00091818737974709F05ECEA8958091600074
:102BE0008861809360008091830280936000EE3F53
:102BF0002AE0F20789F08091FE0A9091FF0A918302
:102C0000808349CE808191818737980751F29093D4
:102C1000FF0A8093FE0AC5CF1092FF0A1092FE0AA7
:102C20003ACE0E949706DC0112960D911C91011577
:102C3000110509F4E8CED801ED91FC910190F081E5
:102C4000E02DBE016B5E7F4FC8010995811123CE37
:102C5000F80100851185EBCF181619060CF41BCE70
:102C6000D2CEF1E0FF12BECE67E87BE004CF1F9228
:102C70000F920FB60F9211242F933F938F939F9330
:102C8000AF93BF938091770290917802A0917902DF
:102C9000B0917A023091760223E0230F2D3758F558
:102CA0000196A11DB11D2093760280937702909327
:102CB0007802A0937902B0937A0280917B0290917E
:102CC0007C02A0917D02B0917E020196A11DB11DF2
:102CD00080937B0290937C02A0937D02B0937E024E
:102CE000BF91AF919F918F913F912F910F900FBE08
:102CF0000F901F90189526E8230F0296A11DB11D75
:102D0000D2CFFC011282138215821482178216829E
:102D10001086118612868EE391E09183808381EB89
:102D200093E09487838781E090E096878587878703
:102D300080E1808B08954F925F926F927F928F9285
:102D40009F92AF92BF92CF92DF92EF92FF920F933A
:102D50001F93CF93DF93109298021092970288EE00
:102D600093E0A0E0B0E08093990290939A02A09340
:102D70009B02B0939C028CE291E090939602809328
:102D800095028FEF9FEF9093A2028093A102109281
:102D900017081092160882EC91E090931508809322
:102DA000140884E194E090931A088093190880E84D
:102DB00090E090931C0880931B0880E490E090932F
:102DC0001E0880931D0885E08093280881E0809389
:102DD00027081092220810922108109224081092BD
:102DE00023081092200810921F0881E090E0909331
:102DF0002608809325081092180881EB93E09093A1
:102E0000B3038093B203C2EBD3E082E194E08E017E
:102E1000F8011282138214820D5F1F4F80179107F1
:102E2000B9F790E4492E512C612C712C24E0C22E6C
:102E3000D12CE12CF12C32E0832E912CA12CB12C41
:102E40000E94291C20E830E040E050E00E94971CDE
:102E50006A830E94291CA30192010E94971C6B8324
:102E60000E94291CA70196010E94971C6F5F7F4F4B
:102E70008F4F9F4F6C830E94291CA50194010E94D3
:102E8000971C672B682B692B19F08C8181958C839B
:102E90002396C017D107A1F680EA93E00E9481161D
:102EA0008FE893E00E94811610927A0321EB33E0C1
:102EB00030937C0320937B0310927D0341E0409389
:102EC0007E031092800310927F0310928103109270
:102ED000820380EB91E0909379038093780384E1FF
:102EE00098E0909384038093830362EB73E0709384
:102EF000860360938503909388038093870355E04E
:102F00005093890359E350938A03E9E3F2E0F09385
:102F10008C03E0938B0340938D0310928E031092E9
:102F20006F03EEE9F1E0F0936E03E0936D033093ED
:102F300071032093700310927203409373031092F5
:102F40007503109274031092760310927703109217
:102F500048034CE851E050934703409346033093B5
:102F60004A032093490390934C0380934B0370933F
:102F70004E0360934D031092500310924F03E1E50E
:102F8000F3E0119283E0E136F807D9F7E1E5F3E0E9
:102F900080E081938F5F8031E1F71092620310929D
:102FA0006103109263031092640310926503109200
:102FB000660310926703109268038091E502909176
:102FC000E602A091E702B091E80280936903909332
:102FD0006A03A0936B03B0936C0386E493E00E94B2
:102FE0002C0E1092310381EBE82E83E0F82EF09244
:102FF0003303E09232031092340311E0109335034F
:10300000109237031092360310923803109239034E
:103010008AE791E09093300380932F03C4E1D8E0D6
:10302000D0933B03C0933A0342EB53E050933D03EC
:1030300040933C03D0933F03C0933E0335E030936D
:10304000400329E32093410382E592E090934303F8
:1030500080934203109344031092450310921A0385
:10306000F0921C03E0921B0310921D0310931E03A9
:103070001092200310921F0310922103109222033A
:1030800068E671E07093190360931803D0932403EA
:10309000C09323035093260340932503D093280322
:1030A000C09327033093290320932A0390932C0382
:1030B00080932B0310932D0310922E0387E093E04F
:1030C0000E9481161092FC02F092FE02E092FD0234
:1030D0001092FF021093000310920203109201035A
:1030E000109203031092040386E591E09093FB0293
:1030F0008093FA02D0930603C093050389EE92E011
:10310000DF91CF911F910F91FF90EF90DF90CF90C3
:10311000BF90AF909F908F907F906F905F904F90F7
:103120000C948116CF93DF9300D000D0CDB7DEB7DB
:10313000789484B5826084BD84B5816084BD85B592
:10314000826085BD85B5816085BD80916E0081609E
:1031500080936E0010928100809181008260809344
:103160008100809181008160809381008091800046
:1031700081608093800080919100826080939100B3
:103180008091910081608093910080919000816096
:10319000809390008091C10084608093C1008091F1
:1031A000C10082608093C1008091C10081608093E2
:1031B000C1008091C30081608093C3008091C000F2
:1031C00082608093C0008091C20081608093C200C1
:1031D00080917A00846080937A0080917A00826086
:1031E00080937A0080917A00816080937A00809148
:1031F0007A00806880937A00109294021092840280
:10320000109286028091D70081608093D70080EA77
:103210008093D80089B5806189BD89B5826089BDF8
:1032200009B400FEFDCF61E070E080E090E00E9414
:10323000E3078091D8008F7C80618093D8008091D3
:10324000E000807F8093E0008091E1008E7E80939B
:10325000E1008DE08093E200559A209A5D982898CD
:1032600081EC80937C0085B1806F85B984B1877EC5
:1032700084B984B1876E84B95E9A5F988AB1806D93
:103280008AB9769A6E9881B3806F81BB899880B332
:103290008D7080BB80E58CBD81E08DBD85E090E0C8
:1032A0000E94F60B5F9A85E090E00E94F60B5E9814
:1032B0005C9802E81AE0EFE8EE2EEAE0FE2EF80154
:1032C00084910E94030C0F5F1F4FE016F106B9F7BF
:1032D0005C9A81E8809364008091650081608093AE
:1032E000650000E014E080E00E94030C0150110929
:1032F000D1F70E94FB0B87FF12C05C9885EA0E9401
:10330000030C5C9A2E982F982D988091640080620F
:103310008093640081E083BF889513BEFCCF0E9438
:10332000FB0B82FF48C02D980E94FB0B84788438E9
:10333000E1F40E94F40B88EC90E00E94F60B2F98C9
:1033400082E090E00E94811C8F3F29F06FEF82E0C5
:1033500090E00E94891C84EF91E00E94F60B2F9A66
:103360000E94FB0B84788438D9F30E94FB0B847194
:103370008431E1F40E94F40B88EC90E00E94F60B9B
:103380002E9882E090E00E94811C882329F060E062
:1033900082E090E00E94891C84EF91E00E94F60B8D
:1033A0002E9A0E94FB0B84718431D9F388EC90E053
:1033B0000E94F60BB4CF0E94F40B82E090E00E94D2
:1033C000811C882309F422C13E9A3F9A81E090E053
:1033D0000E94811C182F147081E090E00E94811CD3
:1033E00081FF16C011112E9851EFA52EBB24BA945F
:1033F0006FE8662E6AE0762E70E9872E7AE0972EC7
:103400000E94FB0B86FF05C12E9A2F9A0E94F40B97
:1034100082E390E00E94F60B0E94FB0B8111F8CF33
:10342000809164008E7F8093640080917A00806434
:1034300080937A0080917A0086FDFCCF009178001D
:10344000109179000E94BE07AB01BC01C801B0E039
:10345000A0E0DC01992788278C019D01040F151F2E
:10346000261F371FC901B8012091640021602093F5
:103470006400611571058105910511F00E94781CA9
:1034800000E1009300018AE390E00E94811C89839F
:103490008BE390E00E94811C8A838CE390E00E9481
:1034A000811C8B838DE390E00E94811C8C83898139
:1034B0009A81AB81BC818093E5029093E602A09350
:1034C000E702B093E8028CE38093720310927303D7
:1034D00080EA93E0909375038093740311E0109356
:1034E000AF030093B00382E0B82EB092A303109212
:1034F000A5031092A40398E7E92E93E0F92EF09229
:10350000A703E092A6038FE893E090938003809353
:103510007F0310929E0300939F03B0929203F09258
:103520009403E09293031093970386E493E09093BF
:10353000960380939503109391038FE293E0909309
:10354000500380934F0386E493E00E942C0E88E1A1
:1035500093E090933703809336031093310327E071
:1035600033E03093200320931F0310931A0310922B
:10357000160300931703B0920A0390930C038093F1
:103580000B0310930F038AEF92E090930E03809346
:103590000D031093090329EE32E0309302032093C8
:1035A00001031093FC0228E72093FF021093F80216
:1035B0000093F902B092EC029093EE028093ED0238
:1035C000F092F002E092EF021093EB02FF24F394EA
:1035D00020E0A22E20E0B22EEE24E3948FB7F894E0
:1035E00040917702509178026091790270917A024D
:1035F0008FBF80917202882309F43FC0109272023B
:10360000A114B10459F30E940000E8CF3E983F98FE
:10361000DDCE112331F0F4E0AF16B10411F42E9A8F
:103620002F9881E00E944D06F3010491F401E4908B
:103630004AEFC42E30E020E041E95AE0B50184E1D0
:1036400090E00E94E60980E00E944D068FE090E045
:103650000E94F60BFFEFAF1ABF0A09E1A016B104F2
:1036600009F0CECE112311F02F9A2D9880E991E028
:103670000E94F60B0E94F40BCBCE80917302142FA4
:10368000181B812F90910001191740F48F5F891743
:1036900008F0B6CFF3BE889513BEB2CFE0927202A7
:1036A0004093730280917002909171020196909301
:1036B00071028093700280917502809374020E945F
:1036C000FB0B80937502809101019091020100979C
:1036D000E9F1DC01ED91FC910480F581E02D099583
:1036E0008091010190910201DC01ED91FC91028039
:1036F000F381E02D09958091010190910201DC0197
:10370000ED91FC910680F781E02D09958C01892BC4
:10371000C9F080910101909102010817190791F0F9
:10372000D801ED91FC910084F185E02DC801099547
:10373000882341F0D801ED91FC910190F081E02DBA
:10374000C8010995109302010093010180E00E94D5
:103750004D0656CFEF92FF920F931F93CF93DF93B7
:10376000F82E192FE62E042F81E0860F880F0E9475
:103770002C0783E00E942C07CF2DD12FEC0EFD2EBD
:10378000F11CCE15DF05B9F007FF13C0FE018491CF
:103790000E942C07182F80E00E942C07812321967D
:1037A0008111EFCFDF91CF911F910F91FF90EF909B
:1037B00008958881EDCF81E0F5CF8F929F92AF92EF
:1037C000BF92CF92DF92EF92FF92CF93DF93EC0103
:1037D000688179818A819B816115710581059105D7
:1037E00021F464E279ED8BE597E02DE133EF41E0E0
:1037F00050E00E94971C49015A019B01AC01A7EAC5
:10380000B1E40E94B61C6B017C01ACEEB4EFA501E3
:1038100094010E94C41CC60ED71EE81EF91EF7FEB6
:1038200006C081E0C81AD108E10880E8F80AC88219
:10383000D982EA82FB82C701B6019F77DF91CF91DF
:10384000FF90EF90DF90CF90BF90AF909F908F90C0
:1038500008958F929F92AF92BF92CF92DF92EF9294
:10386000FF9260910F017091100180911101909170
:103870001201611571058105910521F464E279ED6C
:103880008BE597E02DE133EF41E050E00E94971C7B
:1038900049015A019B01AC01A7EAB1E40E94B61CA0
:1038A0006B017C01ACEEB4EFA50194010E94C41C35
:1038B000C60ED71EE81EF91EF7FE06C081E0C81A24
:1038C000D108E10880E8F80AC0920F01D0921001F7
:1038D000E0921101F0921201C701B6019F77FF90AB
:1038E000EF90DF90CF90BF90AF909F908F90089512
:1038F00060930F0170931001809311019093120156
:103900000895F999FECF92BD81BDF89A992780B5A7
:103910000895262FF999FECF1FBA92BD81BD20BD13
:103920000FB6F894FA9AF99A0FBE01960895052EEB
:1039300097FB1EF400940E94AE1C57FD07D00E9416
:10394000C91C07FC03D04EF40C94AE1C5095409556
:10395000309521953F4F4F4F5F4F0895909580953B
:10396000709561957F4F8F4F9F4F08950E94EB1C7C
:10397000A59F900DB49F900DA49F800D911D1124C3
:103980000895B7FF0C94B61C0E94B61C821B930BC3
:103990000895A1E21A2EAA1BBB1BFD010DC0AA1F90
:1039A000BB1FEE1FFF1FA217B307E407F50720F0A8
:1039B000A21BB30BE40BF50B661F771F881F991F23
:1039C0001A9469F760957095809590959B01AC016C
:1039D000BD01CF010895A29FB001B39FC001A39F75
:1039E000700D811D1124911DB29F700D811D112438
:1039F000911D089597FB072E16F4009407D077FDCC
:103A000009D00E940E1D07FC05D03EF490958195CB
:103A10009F4F0895709561957F4F0895AA1BBB1B1A
:103A200051E107C0AA1FBB1FA617B70710F0A61BBE
:103A3000B70B881F991F5A95A9F780959095BC01DF
:103A4000CD010895EE0FFF1F0590F491E02D09942C
:103A50000F931F93CF93DF938230910510F482E090
:103A600090E0E0912B08F0912C0830E020E0B0E0ED
:103A7000A0E0309799F42115310509F44AC0281BBC
:103A8000390B24303105D8F58A819B816115710588
:103A900089F1FB0193838283FE0111C04081518132
:103AA0000281138148175907E0F04817590799F424
:103AB000109761F012960C93129713961C933296FE
:103AC000CF01DF91CF911F910F91089500932B08A3
:103AD00010932C08F4CF2115310551F042175307EC
:103AE00038F0A901DB019A01BD01DF01F801C1CF66
:103AF000EF01F9CF90932C0880932B08CDCFFE01D6
:103B0000E20FF31F81939193225031093983288367
:103B1000D7CF2091290830912A08232B41F42091F6
:103B200015013091160130932A082093290820911D
:103B30001301309114012115310541F42DB73EB721
:103B40004091170150911801241B350BE091290871
:103B5000F0912A08E217F307A0F42E1B3F0B281759
:103B6000390778F0AC014E5F5F4F2417350748F0F6
:103B70004E0F5F1F50932A08409329088193919319
:103B80009FCFF0E0E0E09CCFCF93DF930097E9F088
:103B9000FC01329713821282A0912B08B0912C085D
:103BA000ED0130E020E01097A1F420813181820FF7
:103BB000931F2091290830912A082817390709F006
:103BC00061C0F0932A08E0932908DF91CF9108950E
:103BD000EA01CE17DF07E8F54A815B819E014115B6
:103BE0005105B1F7E901FB83EA8349915991C40F6B
:103BF000D51FEC17FD0761F4808191810296840F37
:103C0000951FE90199838883828193819B838A83AD
:103C1000F0E0E0E012968D919C9113970097B9F532
:103C20002D913C911197CD010296820F931F209107
:103C3000290830912A082817390739F6309751F5A5
:103C400010922C0810922B08B0932A08A0932908F0
:103C5000BCCFD383C28340815181840F951FC81785
:103C6000D90761F44E5F5F4F88819981480F591FD2
:103C7000518340838A819B819383828321153105FF
:103C800009F0B0CFF0932C08E0932B089ECFFD01F4
:103C9000DC01C0CF13821282D7CF81E090E0F8948C
:083CA0000C94521EF894FFCFB2
:103CA800106D03FFFFFFFF00E100000000000001AE
:103CB80000000000002D088000000003010301003F
:103CC8000000C1808100000000000000AB0616085B
:103CD800CC06C1061207D006EE0600000000A80DAB
:103CE8007A0D580D460DBA0D05068A13380DD90CF4
:103CF800E10C00000000D50CC00C3F12AD0CBA0D51
:103D08000706881300000000D50C060F9311AD0CB0
:103D1800BA0D0806901300000000D50C150F0A1202
:103D2800AD0CBA0D09069213000000002C0E7B1290
:103D3800CF0FBD0DBA0D0A068E1300000000D50C7A
:103D4800C00CBF0CAD0CBA0D0606941300000000A1
:103D5800D50CF70E7B11AD0CBA0D0B068C130000B9
:103D68000000B9099B08AA0CA90C2D2D3A2D2D008D
:103D780041004D4F564500420053484F5700763199
:103D88002E3100323031370054494D4500424553F9
:103D98005400424553542054494D452100594F552C
:103DA800522054494D453A00434F4E4752415455CD
:103DB8004C4154494F4E53210053534E696B6F6C1D
:103DC800616576696368002F72696E675F70757ADE
:103DD8007A6C655F67616D65007075736820616EE8
:103DE8007920627574746F6E20746F2073746172B9
:103DF80074007075736820616E7920627574746FD1
:0C3E08006E20746F20636F6E742E00003B
:00000001FF
